{"contracts/TicTacToe.sol":{"TicTacToe":{"abi":[{"inputs":[{"internalType":"address payable","name":"_playerO","type":"address"}],"stateMutability":"nonpayable","type":"constructor"},{"inputs":[{"internalType":"uint256","name":"","type":"uint256"},{"internalType":"uint256","name":"","type":"uint256"}],"name":"board","outputs":[{"internalType":"uint8","name":"","type":"uint8"}],"stateMutability":"view","type":"function"},{"inputs":[],"name":"isGameOver","outputs":[{"internalType":"bool","name":"","type":"bool"}],"stateMutability":"view","type":"function"},{"inputs":[{"internalType":"uint8","name":"row","type":"uint8"},{"internalType":"uint8","name":"col","type":"uint8"}],"name":"makeMove","outputs":[],"stateMutability":"nonpayable","type":"function"},{"inputs":[],"name":"nextPlayer","outputs":[{"internalType":"address","name":"","type":"address"}],"stateMutability":"view","type":"function"},{"inputs":[],"name":"playerO","outputs":[{"internalType":"address payable","name":"","type":"address"}],"stateMutability":"view","type":"function"},{"inputs":[],"name":"playerX","outputs":[{"internalType":"address payable","name":"","type":"address"}],"stateMutability":"view","type":"function"}],"evm":{"bytecode":{"linkReferences":{},"object":"608060405234801561001057600080fd5b506040516112e33803806112e38339818101604052810190610032919061022b565b33600360006101000a81548173ffffffffffffffffffffffffffffffffffffffff021916908373ffffffffffffffffffffffffffffffffffffffff1602179055508073ffffffffffffffffffffffffffffffffffffffff16600360009054906101000a900473ffffffffffffffffffffffffffffffffffffffff1673ffffffffffffffffffffffffffffffffffffffff1603610103576040517f08c379a00000000000000000000000000000000000000000000000000000000081526004016100fa906102db565b60405180910390fd5b80600460006101000a81548173ffffffffffffffffffffffffffffffffffffffff021916908373ffffffffffffffffffffffffffffffffffffffff160217905550600360009054906101000a900473ffffffffffffffffffffffffffffffffffffffff16600560006101000a81548173ffffffffffffffffffffffffffffffffffffffff021916908373ffffffffffffffffffffffffffffffffffffffff1602179055506000600560146101000a81548160ff021916908315150217905550506102fb565b600080fd5b600073ffffffffffffffffffffffffffffffffffffffff82169050919050565b60006101f8826101cd565b9050919050565b610208816101ed565b811461021357600080fd5b50565b600081519050610225816101ff565b92915050565b600060208284031215610241576102406101c8565b5b600061024f84828501610216565b91505092915050565b600082825260208201905092915050565b7f506c61796572204f206d757374206265206120646966666572656e742061646460008201527f726573732e000000000000000000000000000000000000000000000000000000602082015250565b60006102c5602583610258565b91506102d082610269565b604082019050919050565b600060208201905081810360008301526102f4816102b8565b9050919050565b610fd98061030a6000396000f3fe608060405234801561001057600080fd5b50600436106100625760003560e01c806304a93605146100675780630e04a7d8146100855780634cdea7d2146100a35780635e24b0f1146100c15780638086a92a146100dd578063e7dafa6e1461010d575b600080fd5b61006f61012b565b60405161007c9190610bb0565b60405180910390f35b61008d610151565b60405161009a9190610be6565b60405180910390f35b6100ab610164565b6040516100b89190610c22565b60405180910390f35b6100db60048036038101906100d69190610c7b565b61018a565b005b6100f760048036038101906100f29190610cf1565b610453565b6040516101049190610d40565b60405180910390f35b61011561048f565b6040516101229190610c22565b60405180910390f35b600560009054906101000a900473ffffffffffffffffffffffffffffffffffffffff1681565b600560149054906101000a900460ff1681565b600360009054906101000a900473ffffffffffffffffffffffffffffffffffffffff1681565b600560009054906101000a900473ffffffffffffffffffffffffffffffffffffffff1673ffffffffffffffffffffffffffffffffffffffff163373ffffffffffffffffffffffffffffffffffffffff161461021a576040517f08c379a000000000000000000000000000000000000000000000000000000000815260040161021190610db8565b60405180910390fd5b600560149054906101000a900460ff161561026a576040517f08c379a000000000000000000000000000000000000000000000000000000000815260040161026190610e24565b60405180910390fd5b60038260ff16108015610280575060038160ff16105b6102bf576040517f08c379a00000000000000000000000000000000000000000000000000000000081526004016102b690610e90565b60405180910390fd5b6000808360ff16600381106102d7576102d6610eb0565b5b018260ff16600381106102ed576102ec610eb0565b5b602091828204019190069054906101000a900460ff1660ff1614610346576040517f08c379a000000000000000000000000000000000000000000000000000000000815260040161033d90610f2b565b60405180910390fd5b600360009054906101000a900473ffffffffffffffffffffffffffffffffffffffff1673ffffffffffffffffffffffffffffffffffffffff163373ffffffffffffffffffffffffffffffffffffffff16036103ef57600160008360ff16600381106103b4576103b3610eb0565b5b018260ff16600381106103ca576103c9610eb0565b5b602091828204019190066101000a81548160ff021916908360ff16021790555061043f565b600260008360ff166003811061040857610407610eb0565b5b018260ff166003811061041e5761041d610eb0565b5b602091828204019190066101000a81548160ff021916908360ff1602179055505b6104476104b5565b61044f6105fa565b5050565b6000826003811061046357600080fd5b01816003811061047257600080fd5b60209182820401919006915091509054906101000a900460ff1681565b600460009054906101000a900473ffffffffffffffffffffffffffffffffffffffff1681565b600360009054906101000a900473ffffffffffffffffffffffffffffffffffffffff1673ffffffffffffffffffffffffffffffffffffffff16600560009054906101000a900473ffffffffffffffffffffffffffffffffffffffff1673ffffffffffffffffffffffffffffffffffffffff160361059457600460009054906101000a900473ffffffffffffffffffffffffffffffffffffffff16600560006101000a81548173ffffffffffffffffffffffffffffffffffffffff021916908373ffffffffffffffffffffffffffffffffffffffff1602179055506105f8565b600360009054906101000a900473ffffffffffffffffffffffffffffffffffffffff16600560006101000a81548173ffffffffffffffffffffffffffffffffffffffff021916908373ffffffffffffffffffffffffffffffffffffffff1602179055505b565b6000600360009054906101000a900473ffffffffffffffffffffffffffffffffffffffff1673ffffffffffffffffffffffffffffffffffffffff163373ffffffffffffffffffffffffffffffffffffffff160361065a576001905061065f565b600290505b60005b60038160ff16101561089e578160ff1660008260ff166003811061068957610688610eb0565b5b0160006003811061069d5761069c610eb0565b5b602091828204019190069054906101000a900460ff1660ff1614801561070857508160ff1660008260ff16600381106106d9576106d8610eb0565b5b016001600381106106ed576106ec610eb0565b5b602091828204019190069054906101000a900460ff1660ff16145b801561075957508160ff1660008260ff166003811061072a57610729610eb0565b5b0160026003811061073e5761073d610eb0565b5b602091828204019190069054906101000a900460ff1660ff16145b15610780576001600560146101000a81548160ff0219169083151502179055505050610b6d565b8160ff166000806003811061079857610797610eb0565b5b018260ff16600381106107ae576107ad610eb0565b5b602091828204019190069054906101000a900460ff1660ff1614801561081957508160ff1660006001600381106107e8576107e7610eb0565b5b018260ff16600381106107fe576107fd610eb0565b5b602091828204019190069054906101000a900460ff1660ff16145b801561086a57508160ff16600060026003811061083957610838610eb0565b5b018260ff166003811061084f5761084e610eb0565b5b602091828204019190069054906101000a900460ff1660ff16145b15610891576000600560146101000a81548160ff0219169083151502179055505050610b6d565b8080600101915050610662565b508060ff16600080600381106108b7576108b6610eb0565b5b016000600381106108cb576108ca610eb0565b5b602091828204019190069054906101000a900460ff1660ff1614801561093457508060ff16600060016003811061090557610904610eb0565b5b0160016003811061091957610918610eb0565b5b602091828204019190069054906101000a900460ff1660ff16145b801561098357508060ff16600060026003811061095457610953610eb0565b5b0160026003811061096857610967610eb0565b5b602091828204019190069054906101000a900460ff1660ff16145b156109a9576001600560146101000a81548160ff02191690831515021790555050610b6d565b8060ff16600080600381106109c1576109c0610eb0565b5b016002600381106109d5576109d4610eb0565b5b602091828204019190069054906101000a900460ff1660ff16148015610a3e57508060ff166000600160038110610a0f57610a0e610eb0565b5b01600160038110610a2357610a22610eb0565b5b602091828204019190069054906101000a900460ff1660ff16145b8015610a8d57508060ff166000600260038110610a5e57610a5d610eb0565b5b01600060038110610a7257610a71610eb0565b5b602091828204019190069054906101000a900460ff1660ff16145b15610ab3576001600560146101000a81548160ff02191690831515021790555050610b6d565b6000805b6003811015610b425760005b60038160ff161015610b34576000808360038110610ae457610ae3610eb0565b5b018260ff1660038110610afa57610af9610eb0565b5b602091828204019190069054906101000a900460ff1660ff1614610b27578280610b2390610f7a565b9350505b8080600101915050610ac3565b508080600101915050610ab7565b5060098160ff1603610b6a576000600560146101000a81548160ff0219169083151502179055505b50505b565b600073ffffffffffffffffffffffffffffffffffffffff82169050919050565b6000610b9a82610b6f565b9050919050565b610baa81610b8f565b82525050565b6000602082019050610bc56000830184610ba1565b92915050565b60008115159050919050565b610be081610bcb565b82525050565b6000602082019050610bfb6000830184610bd7565b92915050565b6000610c0c82610b6f565b9050919050565b610c1c81610c01565b82525050565b6000602082019050610c376000830184610c13565b92915050565b600080fd5b600060ff82169050919050565b610c5881610c42565b8114610c6357600080fd5b50565b600081359050610c7581610c4f565b92915050565b60008060408385031215610c9257610c91610c3d565b5b6000610ca085828601610c66565b9250506020610cb185828601610c66565b9150509250929050565b6000819050919050565b610cce81610cbb565b8114610cd957600080fd5b50565b600081359050610ceb81610cc5565b92915050565b60008060408385031215610d0857610d07610c3d565b5b6000610d1685828601610cdc565b9250506020610d2785828601610cdc565b9150509250929050565b610d3a81610c42565b82525050565b6000602082019050610d556000830184610d31565b92915050565b600082825260208201905092915050565b7f49742773206e6f7420796f7572207475726e2e00000000000000000000000000600082015250565b6000610da2601383610d5b565b9150610dad82610d6c565b602082019050919050565b60006020820190508181036000830152610dd181610d95565b9050919050565b7f5468652067616d65206973206f7665722e000000000000000000000000000000600082015250565b6000610e0e601183610d5b565b9150610e1982610dd8565b602082019050919050565b60006020820190508181036000830152610e3d81610e01565b9050919050565b7f496e76616c696420726f77206f7220636f6c756d6e20706c6163656d656e7400600082015250565b6000610e7a601f83610d5b565b9150610e8582610e44565b602082019050919050565b60006020820190508181036000830152610ea981610e6d565b9050919050565b7f4e487b7100000000000000000000000000000000000000000000000000000000600052603260045260246000fd5b7f43656c6c20697320616c72656164792074616b656e2e00000000000000000000600082015250565b6000610f15601683610d5b565b9150610f2082610edf565b602082019050919050565b60006020820190508181036000830152610f4481610f08565b9050919050565b7f4e487b7100000000000000000000000000000000000000000000000000000000600052601160045260246000fd5b6000610f8582610c42565b915060ff8203610f9857610f97610f4b565b5b60018201905091905056fea2646970667358221220d440f062c19ddf04a766a2e41cfc112517d681700256a13b054f8dc49422c59464736f6c634300081c0033","opcodes":"PUSH1 0x80 PUSH1 0x40 MSTORE CALLVALUE DUP1 ISZERO PUSH2 0x10 JUMPI PUSH1 0x0 DUP1 REVERT JUMPDEST POP PUSH1 0x40 MLOAD PUSH2 0x12E3 CODESIZE SUB DUP1 PUSH2 0x12E3 DUP4 CODECOPY DUP2 DUP2 ADD PUSH1 0x40 MSTORE DUP2 ADD SWAP1 PUSH2 0x32 SWAP2 SWAP1 PUSH2 0x22B JUMP JUMPDEST CALLER PUSH1 0x3 PUSH1 0x0 PUSH2 0x100 EXP DUP2 SLOAD DUP2 PUSH20 0xFFFFFFFFFFFFFFFFFFFFFFFFFFFFFFFFFFFFFFFF MUL NOT AND SWAP1 DUP4 PUSH20 0xFFFFFFFFFFFFFFFFFFFFFFFFFFFFFFFFFFFFFFFF AND MUL OR SWAP1 SSTORE POP DUP1 PUSH20 0xFFFFFFFFFFFFFFFFFFFFFFFFFFFFFFFFFFFFFFFF AND PUSH1 0x3 PUSH1 0x0 SWAP1 SLOAD SWAP1 PUSH2 0x100 EXP SWAP1 DIV PUSH20 0xFFFFFFFFFFFFFFFFFFFFFFFFFFFFFFFFFFFFFFFF AND PUSH20 0xFFFFFFFFFFFFFFFFFFFFFFFFFFFFFFFFFFFFFFFF AND SUB PUSH2 0x103 JUMPI PUSH1 0x40 MLOAD PUSH32 0x8C379A000000000000000000000000000000000000000000000000000000000 DUP2 MSTORE PUSH1 0x4 ADD PUSH2 0xFA SWAP1 PUSH2 0x2DB JUMP JUMPDEST PUSH1 0x40 MLOAD DUP1 SWAP2 SUB SWAP1 REVERT JUMPDEST DUP1 PUSH1 0x4 PUSH1 0x0 PUSH2 0x100 EXP DUP2 SLOAD DUP2 PUSH20 0xFFFFFFFFFFFFFFFFFFFFFFFFFFFFFFFFFFFFFFFF MUL NOT AND SWAP1 DUP4 PUSH20 0xFFFFFFFFFFFFFFFFFFFFFFFFFFFFFFFFFFFFFFFF AND MUL OR SWAP1 SSTORE POP PUSH1 0x3 PUSH1 0x0 SWAP1 SLOAD SWAP1 PUSH2 0x100 EXP SWAP1 DIV PUSH20 0xFFFFFFFFFFFFFFFFFFFFFFFFFFFFFFFFFFFFFFFF AND PUSH1 0x5 PUSH1 0x0 PUSH2 0x100 EXP DUP2 SLOAD DUP2 PUSH20 0xFFFFFFFFFFFFFFFFFFFFFFFFFFFFFFFFFFFFFFFF MUL NOT AND SWAP1 DUP4 PUSH20 0xFFFFFFFFFFFFFFFFFFFFFFFFFFFFFFFFFFFFFFFF AND MUL OR SWAP1 SSTORE POP PUSH1 0x0 PUSH1 0x5 PUSH1 0x14 PUSH2 0x100 EXP DUP2 SLOAD DUP2 PUSH1 0xFF MUL NOT AND SWAP1 DUP4 ISZERO ISZERO MUL OR SWAP1 SSTORE POP POP PUSH2 0x2FB JUMP JUMPDEST PUSH1 0x0 DUP1 REVERT JUMPDEST PUSH1 0x0 PUSH20 0xFFFFFFFFFFFFFFFFFFFFFFFFFFFFFFFFFFFFFFFF DUP3 AND SWAP1 POP SWAP2 SWAP1 POP JUMP JUMPDEST PUSH1 0x0 PUSH2 0x1F8 DUP3 PUSH2 0x1CD JUMP JUMPDEST SWAP1 POP SWAP2 SWAP1 POP JUMP JUMPDEST PUSH2 0x208 DUP2 PUSH2 0x1ED JUMP JUMPDEST DUP2 EQ PUSH2 0x213 JUMPI PUSH1 0x0 DUP1 REVERT JUMPDEST POP JUMP JUMPDEST PUSH1 0x0 DUP2 MLOAD SWAP1 POP PUSH2 0x225 DUP2 PUSH2 0x1FF JUMP JUMPDEST SWAP3 SWAP2 POP POP JUMP JUMPDEST PUSH1 0x0 PUSH1 0x20 DUP3 DUP5 SUB SLT ISZERO PUSH2 0x241 JUMPI PUSH2 0x240 PUSH2 0x1C8 JUMP JUMPDEST JUMPDEST PUSH1 0x0 PUSH2 0x24F DUP5 DUP3 DUP6 ADD PUSH2 0x216 JUMP JUMPDEST SWAP2 POP POP SWAP3 SWAP2 POP POP JUMP JUMPDEST PUSH1 0x0 DUP3 DUP3 MSTORE PUSH1 0x20 DUP3 ADD SWAP1 POP SWAP3 SWAP2 POP POP JUMP JUMPDEST PUSH32 0x506C61796572204F206D757374206265206120646966666572656E7420616464 PUSH1 0x0 DUP3 ADD MSTORE PUSH32 0x726573732E000000000000000000000000000000000000000000000000000000 PUSH1 0x20 DUP3 ADD MSTORE POP JUMP JUMPDEST PUSH1 0x0 PUSH2 0x2C5 PUSH1 0x25 DUP4 PUSH2 0x258 JUMP JUMPDEST SWAP2 POP PUSH2 0x2D0 DUP3 PUSH2 0x269 JUMP JUMPDEST PUSH1 0x40 DUP3 ADD SWAP1 POP SWAP2 SWAP1 POP JUMP JUMPDEST PUSH1 0x0 PUSH1 0x20 DUP3 ADD SWAP1 POP DUP2 DUP2 SUB PUSH1 0x0 DUP4 ADD MSTORE PUSH2 0x2F4 DUP2 PUSH2 0x2B8 JUMP JUMPDEST SWAP1 POP SWAP2 SWAP1 POP JUMP JUMPDEST PUSH2 0xFD9 DUP1 PUSH2 0x30A PUSH1 0x0 CODECOPY PUSH1 0x0 RETURN INVALID PUSH1 0x80 PUSH1 0x40 MSTORE CALLVALUE DUP1 ISZERO PUSH2 0x10 JUMPI PUSH1 0x0 DUP1 REVERT JUMPDEST POP PUSH1 0x4 CALLDATASIZE LT PUSH2 0x62 JUMPI PUSH1 0x0 CALLDATALOAD PUSH1 0xE0 SHR DUP1 PUSH4 0x4A93605 EQ PUSH2 0x67 JUMPI DUP1 PUSH4 0xE04A7D8 EQ PUSH2 0x85 JUMPI DUP1 PUSH4 0x4CDEA7D2 EQ PUSH2 0xA3 JUMPI DUP1 PUSH4 0x5E24B0F1 EQ PUSH2 0xC1 JUMPI DUP1 PUSH4 0x8086A92A EQ PUSH2 0xDD JUMPI DUP1 PUSH4 0xE7DAFA6E EQ PUSH2 0x10D JUMPI JUMPDEST PUSH1 0x0 DUP1 REVERT JUMPDEST PUSH2 0x6F PUSH2 0x12B JUMP JUMPDEST PUSH1 0x40 MLOAD PUSH2 0x7C SWAP2 SWAP1 PUSH2 0xBB0 JUMP JUMPDEST PUSH1 0x40 MLOAD DUP1 SWAP2 SUB SWAP1 RETURN JUMPDEST PUSH2 0x8D PUSH2 0x151 JUMP JUMPDEST PUSH1 0x40 MLOAD PUSH2 0x9A SWAP2 SWAP1 PUSH2 0xBE6 JUMP JUMPDEST PUSH1 0x40 MLOAD DUP1 SWAP2 SUB SWAP1 RETURN JUMPDEST PUSH2 0xAB PUSH2 0x164 JUMP JUMPDEST PUSH1 0x40 MLOAD PUSH2 0xB8 SWAP2 SWAP1 PUSH2 0xC22 JUMP JUMPDEST PUSH1 0x40 MLOAD DUP1 SWAP2 SUB SWAP1 RETURN JUMPDEST PUSH2 0xDB PUSH1 0x4 DUP1 CALLDATASIZE SUB DUP2 ADD SWAP1 PUSH2 0xD6 SWAP2 SWAP1 PUSH2 0xC7B JUMP JUMPDEST PUSH2 0x18A JUMP JUMPDEST STOP JUMPDEST PUSH2 0xF7 PUSH1 0x4 DUP1 CALLDATASIZE SUB DUP2 ADD SWAP1 PUSH2 0xF2 SWAP2 SWAP1 PUSH2 0xCF1 JUMP JUMPDEST PUSH2 0x453 JUMP JUMPDEST PUSH1 0x40 MLOAD PUSH2 0x104 SWAP2 SWAP1 PUSH2 0xD40 JUMP JUMPDEST PUSH1 0x40 MLOAD DUP1 SWAP2 SUB SWAP1 RETURN JUMPDEST PUSH2 0x115 PUSH2 0x48F JUMP JUMPDEST PUSH1 0x40 MLOAD PUSH2 0x122 SWAP2 SWAP1 PUSH2 0xC22 JUMP JUMPDEST PUSH1 0x40 MLOAD DUP1 SWAP2 SUB SWAP1 RETURN JUMPDEST PUSH1 0x5 PUSH1 0x0 SWAP1 SLOAD SWAP1 PUSH2 0x100 EXP SWAP1 DIV PUSH20 0xFFFFFFFFFFFFFFFFFFFFFFFFFFFFFFFFFFFFFFFF AND DUP2 JUMP JUMPDEST PUSH1 0x5 PUSH1 0x14 SWAP1 SLOAD SWAP1 PUSH2 0x100 EXP SWAP1 DIV PUSH1 0xFF AND DUP2 JUMP JUMPDEST PUSH1 0x3 PUSH1 0x0 SWAP1 SLOAD SWAP1 PUSH2 0x100 EXP SWAP1 DIV PUSH20 0xFFFFFFFFFFFFFFFFFFFFFFFFFFFFFFFFFFFFFFFF AND DUP2 JUMP JUMPDEST PUSH1 0x5 PUSH1 0x0 SWAP1 SLOAD SWAP1 PUSH2 0x100 EXP SWAP1 DIV PUSH20 0xFFFFFFFFFFFFFFFFFFFFFFFFFFFFFFFFFFFFFFFF AND PUSH20 0xFFFFFFFFFFFFFFFFFFFFFFFFFFFFFFFFFFFFFFFF AND CALLER PUSH20 0xFFFFFFFFFFFFFFFFFFFFFFFFFFFFFFFFFFFFFFFF AND EQ PUSH2 0x21A JUMPI PUSH1 0x40 MLOAD PUSH32 0x8C379A000000000000000000000000000000000000000000000000000000000 DUP2 MSTORE PUSH1 0x4 ADD PUSH2 0x211 SWAP1 PUSH2 0xDB8 JUMP JUMPDEST PUSH1 0x40 MLOAD DUP1 SWAP2 SUB SWAP1 REVERT JUMPDEST PUSH1 0x5 PUSH1 0x14 SWAP1 SLOAD SWAP1 PUSH2 0x100 EXP SWAP1 DIV PUSH1 0xFF AND ISZERO PUSH2 0x26A JUMPI PUSH1 0x40 MLOAD PUSH32 0x8C379A000000000000000000000000000000000000000000000000000000000 DUP2 MSTORE PUSH1 0x4 ADD PUSH2 0x261 SWAP1 PUSH2 0xE24 JUMP JUMPDEST PUSH1 0x40 MLOAD DUP1 SWAP2 SUB SWAP1 REVERT JUMPDEST PUSH1 0x3 DUP3 PUSH1 0xFF AND LT DUP1 ISZERO PUSH2 0x280 JUMPI POP PUSH1 0x3 DUP2 PUSH1 0xFF AND LT JUMPDEST PUSH2 0x2BF JUMPI PUSH1 0x40 MLOAD PUSH32 0x8C379A000000000000000000000000000000000000000000000000000000000 DUP2 MSTORE PUSH1 0x4 ADD PUSH2 0x2B6 SWAP1 PUSH2 0xE90 JUMP JUMPDEST PUSH1 0x40 MLOAD DUP1 SWAP2 SUB SWAP1 REVERT JUMPDEST PUSH1 0x0 DUP1 DUP4 PUSH1 0xFF AND PUSH1 0x3 DUP2 LT PUSH2 0x2D7 JUMPI PUSH2 0x2D6 PUSH2 0xEB0 JUMP JUMPDEST JUMPDEST ADD DUP3 PUSH1 0xFF AND PUSH1 0x3 DUP2 LT PUSH2 0x2ED JUMPI PUSH2 0x2EC PUSH2 0xEB0 JUMP JUMPDEST JUMPDEST PUSH1 0x20 SWAP2 DUP3 DUP3 DIV ADD SWAP2 SWAP1 MOD SWAP1 SLOAD SWAP1 PUSH2 0x100 EXP SWAP1 DIV PUSH1 0xFF AND PUSH1 0xFF AND EQ PUSH2 0x346 JUMPI PUSH1 0x40 MLOAD PUSH32 0x8C379A000000000000000000000000000000000000000000000000000000000 DUP2 MSTORE PUSH1 0x4 ADD PUSH2 0x33D SWAP1 PUSH2 0xF2B JUMP JUMPDEST PUSH1 0x40 MLOAD DUP1 SWAP2 SUB SWAP1 REVERT JUMPDEST PUSH1 0x3 PUSH1 0x0 SWAP1 SLOAD SWAP1 PUSH2 0x100 EXP SWAP1 DIV PUSH20 0xFFFFFFFFFFFFFFFFFFFFFFFFFFFFFFFFFFFFFFFF AND PUSH20 0xFFFFFFFFFFFFFFFFFFFFFFFFFFFFFFFFFFFFFFFF AND CALLER PUSH20 0xFFFFFFFFFFFFFFFFFFFFFFFFFFFFFFFFFFFFFFFF AND SUB PUSH2 0x3EF JUMPI PUSH1 0x1 PUSH1 0x0 DUP4 PUSH1 0xFF AND PUSH1 0x3 DUP2 LT PUSH2 0x3B4 JUMPI PUSH2 0x3B3 PUSH2 0xEB0 JUMP JUMPDEST JUMPDEST ADD DUP3 PUSH1 0xFF AND PUSH1 0x3 DUP2 LT PUSH2 0x3CA JUMPI PUSH2 0x3C9 PUSH2 0xEB0 JUMP JUMPDEST JUMPDEST PUSH1 0x20 SWAP2 DUP3 DUP3 DIV ADD SWAP2 SWAP1 MOD PUSH2 0x100 EXP DUP2 SLOAD DUP2 PUSH1 0xFF MUL NOT AND SWAP1 DUP4 PUSH1 0xFF AND MUL OR SWAP1 SSTORE POP PUSH2 0x43F JUMP JUMPDEST PUSH1 0x2 PUSH1 0x0 DUP4 PUSH1 0xFF AND PUSH1 0x3 DUP2 LT PUSH2 0x408 JUMPI PUSH2 0x407 PUSH2 0xEB0 JUMP JUMPDEST JUMPDEST ADD DUP3 PUSH1 0xFF AND PUSH1 0x3 DUP2 LT PUSH2 0x41E JUMPI PUSH2 0x41D PUSH2 0xEB0 JUMP JUMPDEST JUMPDEST PUSH1 0x20 SWAP2 DUP3 DUP3 DIV ADD SWAP2 SWAP1 MOD PUSH2 0x100 EXP DUP2 SLOAD DUP2 PUSH1 0xFF MUL NOT AND SWAP1 DUP4 PUSH1 0xFF AND MUL OR SWAP1 SSTORE POP JUMPDEST PUSH2 0x447 PUSH2 0x4B5 JUMP JUMPDEST PUSH2 0x44F PUSH2 0x5FA JUMP JUMPDEST POP POP JUMP JUMPDEST PUSH1 0x0 DUP3 PUSH1 0x3 DUP2 LT PUSH2 0x463 JUMPI PUSH1 0x0 DUP1 REVERT JUMPDEST ADD DUP2 PUSH1 0x3 DUP2 LT PUSH2 0x472 JUMPI PUSH1 0x0 DUP1 REVERT JUMPDEST PUSH1 0x20 SWAP2 DUP3 DUP3 DIV ADD SWAP2 SWAP1 MOD SWAP2 POP SWAP2 POP SWAP1 SLOAD SWAP1 PUSH2 0x100 EXP SWAP1 DIV PUSH1 0xFF AND DUP2 JUMP JUMPDEST PUSH1 0x4 PUSH1 0x0 SWAP1 SLOAD SWAP1 PUSH2 0x100 EXP SWAP1 DIV PUSH20 0xFFFFFFFFFFFFFFFFFFFFFFFFFFFFFFFFFFFFFFFF AND DUP2 JUMP JUMPDEST PUSH1 0x3 PUSH1 0x0 SWAP1 SLOAD SWAP1 PUSH2 0x100 EXP SWAP1 DIV PUSH20 0xFFFFFFFFFFFFFFFFFFFFFFFFFFFFFFFFFFFFFFFF AND PUSH20 0xFFFFFFFFFFFFFFFFFFFFFFFFFFFFFFFFFFFFFFFF AND PUSH1 0x5 PUSH1 0x0 SWAP1 SLOAD SWAP1 PUSH2 0x100 EXP SWAP1 DIV PUSH20 0xFFFFFFFFFFFFFFFFFFFFFFFFFFFFFFFFFFFFFFFF AND PUSH20 0xFFFFFFFFFFFFFFFFFFFFFFFFFFFFFFFFFFFFFFFF AND SUB PUSH2 0x594 JUMPI PUSH1 0x4 PUSH1 0x0 SWAP1 SLOAD SWAP1 PUSH2 0x100 EXP SWAP1 DIV PUSH20 0xFFFFFFFFFFFFFFFFFFFFFFFFFFFFFFFFFFFFFFFF AND PUSH1 0x5 PUSH1 0x0 PUSH2 0x100 EXP DUP2 SLOAD DUP2 PUSH20 0xFFFFFFFFFFFFFFFFFFFFFFFFFFFFFFFFFFFFFFFF MUL NOT AND SWAP1 DUP4 PUSH20 0xFFFFFFFFFFFFFFFFFFFFFFFFFFFFFFFFFFFFFFFF AND MUL OR SWAP1 SSTORE POP PUSH2 0x5F8 JUMP JUMPDEST PUSH1 0x3 PUSH1 0x0 SWAP1 SLOAD SWAP1 PUSH2 0x100 EXP SWAP1 DIV PUSH20 0xFFFFFFFFFFFFFFFFFFFFFFFFFFFFFFFFFFFFFFFF AND PUSH1 0x5 PUSH1 0x0 PUSH2 0x100 EXP DUP2 SLOAD DUP2 PUSH20 0xFFFFFFFFFFFFFFFFFFFFFFFFFFFFFFFFFFFFFFFF MUL NOT AND SWAP1 DUP4 PUSH20 0xFFFFFFFFFFFFFFFFFFFFFFFFFFFFFFFFFFFFFFFF AND MUL OR SWAP1 SSTORE POP JUMPDEST JUMP JUMPDEST PUSH1 0x0 PUSH1 0x3 PUSH1 0x0 SWAP1 SLOAD SWAP1 PUSH2 0x100 EXP SWAP1 DIV PUSH20 0xFFFFFFFFFFFFFFFFFFFFFFFFFFFFFFFFFFFFFFFF AND PUSH20 0xFFFFFFFFFFFFFFFFFFFFFFFFFFFFFFFFFFFFFFFF AND CALLER PUSH20 0xFFFFFFFFFFFFFFFFFFFFFFFFFFFFFFFFFFFFFFFF AND SUB PUSH2 0x65A JUMPI PUSH1 0x1 SWAP1 POP PUSH2 0x65F JUMP JUMPDEST PUSH1 0x2 SWAP1 POP JUMPDEST PUSH1 0x0 JUMPDEST PUSH1 0x3 DUP2 PUSH1 0xFF AND LT ISZERO PUSH2 0x89E JUMPI DUP2 PUSH1 0xFF AND PUSH1 0x0 DUP3 PUSH1 0xFF AND PUSH1 0x3 DUP2 LT PUSH2 0x689 JUMPI PUSH2 0x688 PUSH2 0xEB0 JUMP JUMPDEST JUMPDEST ADD PUSH1 0x0 PUSH1 0x3 DUP2 LT PUSH2 0x69D JUMPI PUSH2 0x69C PUSH2 0xEB0 JUMP JUMPDEST JUMPDEST PUSH1 0x20 SWAP2 DUP3 DUP3 DIV ADD SWAP2 SWAP1 MOD SWAP1 SLOAD SWAP1 PUSH2 0x100 EXP SWAP1 DIV PUSH1 0xFF AND PUSH1 0xFF AND EQ DUP1 ISZERO PUSH2 0x708 JUMPI POP DUP2 PUSH1 0xFF AND PUSH1 0x0 DUP3 PUSH1 0xFF AND PUSH1 0x3 DUP2 LT PUSH2 0x6D9 JUMPI PUSH2 0x6D8 PUSH2 0xEB0 JUMP JUMPDEST JUMPDEST ADD PUSH1 0x1 PUSH1 0x3 DUP2 LT PUSH2 0x6ED JUMPI PUSH2 0x6EC PUSH2 0xEB0 JUMP JUMPDEST JUMPDEST PUSH1 0x20 SWAP2 DUP3 DUP3 DIV ADD SWAP2 SWAP1 MOD SWAP1 SLOAD SWAP1 PUSH2 0x100 EXP SWAP1 DIV PUSH1 0xFF AND PUSH1 0xFF AND EQ JUMPDEST DUP1 ISZERO PUSH2 0x759 JUMPI POP DUP2 PUSH1 0xFF AND PUSH1 0x0 DUP3 PUSH1 0xFF AND PUSH1 0x3 DUP2 LT PUSH2 0x72A JUMPI PUSH2 0x729 PUSH2 0xEB0 JUMP JUMPDEST JUMPDEST ADD PUSH1 0x2 PUSH1 0x3 DUP2 LT PUSH2 0x73E JUMPI PUSH2 0x73D PUSH2 0xEB0 JUMP JUMPDEST JUMPDEST PUSH1 0x20 SWAP2 DUP3 DUP3 DIV ADD SWAP2 SWAP1 MOD SWAP1 SLOAD SWAP1 PUSH2 0x100 EXP SWAP1 DIV PUSH1 0xFF AND PUSH1 0xFF AND EQ JUMPDEST ISZERO PUSH2 0x780 JUMPI PUSH1 0x1 PUSH1 0x5 PUSH1 0x14 PUSH2 0x100 EXP DUP2 SLOAD DUP2 PUSH1 0xFF MUL NOT AND SWAP1 DUP4 ISZERO ISZERO MUL OR SWAP1 SSTORE POP POP POP PUSH2 0xB6D JUMP JUMPDEST DUP2 PUSH1 0xFF AND PUSH1 0x0 DUP1 PUSH1 0x3 DUP2 LT PUSH2 0x798 JUMPI PUSH2 0x797 PUSH2 0xEB0 JUMP JUMPDEST JUMPDEST ADD DUP3 PUSH1 0xFF AND PUSH1 0x3 DUP2 LT PUSH2 0x7AE JUMPI PUSH2 0x7AD PUSH2 0xEB0 JUMP JUMPDEST JUMPDEST PUSH1 0x20 SWAP2 DUP3 DUP3 DIV ADD SWAP2 SWAP1 MOD SWAP1 SLOAD SWAP1 PUSH2 0x100 EXP SWAP1 DIV PUSH1 0xFF AND PUSH1 0xFF AND EQ DUP1 ISZERO PUSH2 0x819 JUMPI POP DUP2 PUSH1 0xFF AND PUSH1 0x0 PUSH1 0x1 PUSH1 0x3 DUP2 LT PUSH2 0x7E8 JUMPI PUSH2 0x7E7 PUSH2 0xEB0 JUMP JUMPDEST JUMPDEST ADD DUP3 PUSH1 0xFF AND PUSH1 0x3 DUP2 LT PUSH2 0x7FE JUMPI PUSH2 0x7FD PUSH2 0xEB0 JUMP JUMPDEST JUMPDEST PUSH1 0x20 SWAP2 DUP3 DUP3 DIV ADD SWAP2 SWAP1 MOD SWAP1 SLOAD SWAP1 PUSH2 0x100 EXP SWAP1 DIV PUSH1 0xFF AND PUSH1 0xFF AND EQ JUMPDEST DUP1 ISZERO PUSH2 0x86A JUMPI POP DUP2 PUSH1 0xFF AND PUSH1 0x0 PUSH1 0x2 PUSH1 0x3 DUP2 LT PUSH2 0x839 JUMPI PUSH2 0x838 PUSH2 0xEB0 JUMP JUMPDEST JUMPDEST ADD DUP3 PUSH1 0xFF AND PUSH1 0x3 DUP2 LT PUSH2 0x84F JUMPI PUSH2 0x84E PUSH2 0xEB0 JUMP JUMPDEST JUMPDEST PUSH1 0x20 SWAP2 DUP3 DUP3 DIV ADD SWAP2 SWAP1 MOD SWAP1 SLOAD SWAP1 PUSH2 0x100 EXP SWAP1 DIV PUSH1 0xFF AND PUSH1 0xFF AND EQ JUMPDEST ISZERO PUSH2 0x891 JUMPI PUSH1 0x0 PUSH1 0x5 PUSH1 0x14 PUSH2 0x100 EXP DUP2 SLOAD DUP2 PUSH1 0xFF MUL NOT AND SWAP1 DUP4 ISZERO ISZERO MUL OR SWAP1 SSTORE POP POP POP PUSH2 0xB6D JUMP JUMPDEST DUP1 DUP1 PUSH1 0x1 ADD SWAP2 POP POP PUSH2 0x662 JUMP JUMPDEST POP DUP1 PUSH1 0xFF AND PUSH1 0x0 DUP1 PUSH1 0x3 DUP2 LT PUSH2 0x8B7 JUMPI PUSH2 0x8B6 PUSH2 0xEB0 JUMP JUMPDEST JUMPDEST ADD PUSH1 0x0 PUSH1 0x3 DUP2 LT PUSH2 0x8CB JUMPI PUSH2 0x8CA PUSH2 0xEB0 JUMP JUMPDEST JUMPDEST PUSH1 0x20 SWAP2 DUP3 DUP3 DIV ADD SWAP2 SWAP1 MOD SWAP1 SLOAD SWAP1 PUSH2 0x100 EXP SWAP1 DIV PUSH1 0xFF AND PUSH1 0xFF AND EQ DUP1 ISZERO PUSH2 0x934 JUMPI POP DUP1 PUSH1 0xFF AND PUSH1 0x0 PUSH1 0x1 PUSH1 0x3 DUP2 LT PUSH2 0x905 JUMPI PUSH2 0x904 PUSH2 0xEB0 JUMP JUMPDEST JUMPDEST ADD PUSH1 0x1 PUSH1 0x3 DUP2 LT PUSH2 0x919 JUMPI PUSH2 0x918 PUSH2 0xEB0 JUMP JUMPDEST JUMPDEST PUSH1 0x20 SWAP2 DUP3 DUP3 DIV ADD SWAP2 SWAP1 MOD SWAP1 SLOAD SWAP1 PUSH2 0x100 EXP SWAP1 DIV PUSH1 0xFF AND PUSH1 0xFF AND EQ JUMPDEST DUP1 ISZERO PUSH2 0x983 JUMPI POP DUP1 PUSH1 0xFF AND PUSH1 0x0 PUSH1 0x2 PUSH1 0x3 DUP2 LT PUSH2 0x954 JUMPI PUSH2 0x953 PUSH2 0xEB0 JUMP JUMPDEST JUMPDEST ADD PUSH1 0x2 PUSH1 0x3 DUP2 LT PUSH2 0x968 JUMPI PUSH2 0x967 PUSH2 0xEB0 JUMP JUMPDEST JUMPDEST PUSH1 0x20 SWAP2 DUP3 DUP3 DIV ADD SWAP2 SWAP1 MOD SWAP1 SLOAD SWAP1 PUSH2 0x100 EXP SWAP1 DIV PUSH1 0xFF AND PUSH1 0xFF AND EQ JUMPDEST ISZERO PUSH2 0x9A9 JUMPI PUSH1 0x1 PUSH1 0x5 PUSH1 0x14 PUSH2 0x100 EXP DUP2 SLOAD DUP2 PUSH1 0xFF MUL NOT AND SWAP1 DUP4 ISZERO ISZERO MUL OR SWAP1 SSTORE POP POP PUSH2 0xB6D JUMP JUMPDEST DUP1 PUSH1 0xFF AND PUSH1 0x0 DUP1 PUSH1 0x3 DUP2 LT PUSH2 0x9C1 JUMPI PUSH2 0x9C0 PUSH2 0xEB0 JUMP JUMPDEST JUMPDEST ADD PUSH1 0x2 PUSH1 0x3 DUP2 LT PUSH2 0x9D5 JUMPI PUSH2 0x9D4 PUSH2 0xEB0 JUMP JUMPDEST JUMPDEST PUSH1 0x20 SWAP2 DUP3 DUP3 DIV ADD SWAP2 SWAP1 MOD SWAP1 SLOAD SWAP1 PUSH2 0x100 EXP SWAP1 DIV PUSH1 0xFF AND PUSH1 0xFF AND EQ DUP1 ISZERO PUSH2 0xA3E JUMPI POP DUP1 PUSH1 0xFF AND PUSH1 0x0 PUSH1 0x1 PUSH1 0x3 DUP2 LT PUSH2 0xA0F JUMPI PUSH2 0xA0E PUSH2 0xEB0 JUMP JUMPDEST JUMPDEST ADD PUSH1 0x1 PUSH1 0x3 DUP2 LT PUSH2 0xA23 JUMPI PUSH2 0xA22 PUSH2 0xEB0 JUMP JUMPDEST JUMPDEST PUSH1 0x20 SWAP2 DUP3 DUP3 DIV ADD SWAP2 SWAP1 MOD SWAP1 SLOAD SWAP1 PUSH2 0x100 EXP SWAP1 DIV PUSH1 0xFF AND PUSH1 0xFF AND EQ JUMPDEST DUP1 ISZERO PUSH2 0xA8D JUMPI POP DUP1 PUSH1 0xFF AND PUSH1 0x0 PUSH1 0x2 PUSH1 0x3 DUP2 LT PUSH2 0xA5E JUMPI PUSH2 0xA5D PUSH2 0xEB0 JUMP JUMPDEST JUMPDEST ADD PUSH1 0x0 PUSH1 0x3 DUP2 LT PUSH2 0xA72 JUMPI PUSH2 0xA71 PUSH2 0xEB0 JUMP JUMPDEST JUMPDEST PUSH1 0x20 SWAP2 DUP3 DUP3 DIV ADD SWAP2 SWAP1 MOD SWAP1 SLOAD SWAP1 PUSH2 0x100 EXP SWAP1 DIV PUSH1 0xFF AND PUSH1 0xFF AND EQ JUMPDEST ISZERO PUSH2 0xAB3 JUMPI PUSH1 0x1 PUSH1 0x5 PUSH1 0x14 PUSH2 0x100 EXP DUP2 SLOAD DUP2 PUSH1 0xFF MUL NOT AND SWAP1 DUP4 ISZERO ISZERO MUL OR SWAP1 SSTORE POP POP PUSH2 0xB6D JUMP JUMPDEST PUSH1 0x0 DUP1 JUMPDEST PUSH1 0x3 DUP2 LT ISZERO PUSH2 0xB42 JUMPI PUSH1 0x0 JUMPDEST PUSH1 0x3 DUP2 PUSH1 0xFF AND LT ISZERO PUSH2 0xB34 JUMPI PUSH1 0x0 DUP1 DUP4 PUSH1 0x3 DUP2 LT PUSH2 0xAE4 JUMPI PUSH2 0xAE3 PUSH2 0xEB0 JUMP JUMPDEST JUMPDEST ADD DUP3 PUSH1 0xFF AND PUSH1 0x3 DUP2 LT PUSH2 0xAFA JUMPI PUSH2 0xAF9 PUSH2 0xEB0 JUMP JUMPDEST JUMPDEST PUSH1 0x20 SWAP2 DUP3 DUP3 DIV ADD SWAP2 SWAP1 MOD SWAP1 SLOAD SWAP1 PUSH2 0x100 EXP SWAP1 DIV PUSH1 0xFF AND PUSH1 0xFF AND EQ PUSH2 0xB27 JUMPI DUP3 DUP1 PUSH2 0xB23 SWAP1 PUSH2 0xF7A JUMP JUMPDEST SWAP4 POP POP JUMPDEST DUP1 DUP1 PUSH1 0x1 ADD SWAP2 POP POP PUSH2 0xAC3 JUMP JUMPDEST POP DUP1 DUP1 PUSH1 0x1 ADD SWAP2 POP POP PUSH2 0xAB7 JUMP JUMPDEST POP PUSH1 0x9 DUP2 PUSH1 0xFF AND SUB PUSH2 0xB6A JUMPI PUSH1 0x0 PUSH1 0x5 PUSH1 0x14 PUSH2 0x100 EXP DUP2 SLOAD DUP2 PUSH1 0xFF MUL NOT AND SWAP1 DUP4 ISZERO ISZERO MUL OR SWAP1 SSTORE POP JUMPDEST POP POP JUMPDEST JUMP JUMPDEST PUSH1 0x0 PUSH20 0xFFFFFFFFFFFFFFFFFFFFFFFFFFFFFFFFFFFFFFFF DUP3 AND SWAP1 POP SWAP2 SWAP1 POP JUMP JUMPDEST PUSH1 0x0 PUSH2 0xB9A DUP3 PUSH2 0xB6F JUMP JUMPDEST SWAP1 POP SWAP2 SWAP1 POP JUMP JUMPDEST PUSH2 0xBAA DUP2 PUSH2 0xB8F JUMP JUMPDEST DUP3 MSTORE POP POP JUMP JUMPDEST PUSH1 0x0 PUSH1 0x20 DUP3 ADD SWAP1 POP PUSH2 0xBC5 PUSH1 0x0 DUP4 ADD DUP5 PUSH2 0xBA1 JUMP JUMPDEST SWAP3 SWAP2 POP POP JUMP JUMPDEST PUSH1 0x0 DUP2 ISZERO ISZERO SWAP1 POP SWAP2 SWAP1 POP JUMP JUMPDEST PUSH2 0xBE0 DUP2 PUSH2 0xBCB JUMP JUMPDEST DUP3 MSTORE POP POP JUMP JUMPDEST PUSH1 0x0 PUSH1 0x20 DUP3 ADD SWAP1 POP PUSH2 0xBFB PUSH1 0x0 DUP4 ADD DUP5 PUSH2 0xBD7 JUMP JUMPDEST SWAP3 SWAP2 POP POP JUMP JUMPDEST PUSH1 0x0 PUSH2 0xC0C DUP3 PUSH2 0xB6F JUMP JUMPDEST SWAP1 POP SWAP2 SWAP1 POP JUMP JUMPDEST PUSH2 0xC1C DUP2 PUSH2 0xC01 JUMP JUMPDEST DUP3 MSTORE POP POP JUMP JUMPDEST PUSH1 0x0 PUSH1 0x20 DUP3 ADD SWAP1 POP PUSH2 0xC37 PUSH1 0x0 DUP4 ADD DUP5 PUSH2 0xC13 JUMP JUMPDEST SWAP3 SWAP2 POP POP JUMP JUMPDEST PUSH1 0x0 DUP1 REVERT JUMPDEST PUSH1 0x0 PUSH1 0xFF DUP3 AND SWAP1 POP SWAP2 SWAP1 POP JUMP JUMPDEST PUSH2 0xC58 DUP2 PUSH2 0xC42 JUMP JUMPDEST DUP2 EQ PUSH2 0xC63 JUMPI PUSH1 0x0 DUP1 REVERT JUMPDEST POP JUMP JUMPDEST PUSH1 0x0 DUP2 CALLDATALOAD SWAP1 POP PUSH2 0xC75 DUP2 PUSH2 0xC4F JUMP JUMPDEST SWAP3 SWAP2 POP POP JUMP JUMPDEST PUSH1 0x0 DUP1 PUSH1 0x40 DUP4 DUP6 SUB SLT ISZERO PUSH2 0xC92 JUMPI PUSH2 0xC91 PUSH2 0xC3D JUMP JUMPDEST JUMPDEST PUSH1 0x0 PUSH2 0xCA0 DUP6 DUP3 DUP7 ADD PUSH2 0xC66 JUMP JUMPDEST SWAP3 POP POP PUSH1 0x20 PUSH2 0xCB1 DUP6 DUP3 DUP7 ADD PUSH2 0xC66 JUMP JUMPDEST SWAP2 POP POP SWAP3 POP SWAP3 SWAP1 POP JUMP JUMPDEST PUSH1 0x0 DUP2 SWAP1 POP SWAP2 SWAP1 POP JUMP JUMPDEST PUSH2 0xCCE DUP2 PUSH2 0xCBB JUMP JUMPDEST DUP2 EQ PUSH2 0xCD9 JUMPI PUSH1 0x0 DUP1 REVERT JUMPDEST POP JUMP JUMPDEST PUSH1 0x0 DUP2 CALLDATALOAD SWAP1 POP PUSH2 0xCEB DUP2 PUSH2 0xCC5 JUMP JUMPDEST SWAP3 SWAP2 POP POP JUMP JUMPDEST PUSH1 0x0 DUP1 PUSH1 0x40 DUP4 DUP6 SUB SLT ISZERO PUSH2 0xD08 JUMPI PUSH2 0xD07 PUSH2 0xC3D JUMP JUMPDEST JUMPDEST PUSH1 0x0 PUSH2 0xD16 DUP6 DUP3 DUP7 ADD PUSH2 0xCDC JUMP JUMPDEST SWAP3 POP POP PUSH1 0x20 PUSH2 0xD27 DUP6 DUP3 DUP7 ADD PUSH2 0xCDC JUMP JUMPDEST SWAP2 POP POP SWAP3 POP SWAP3 SWAP1 POP JUMP JUMPDEST PUSH2 0xD3A DUP2 PUSH2 0xC42 JUMP JUMPDEST DUP3 MSTORE POP POP JUMP JUMPDEST PUSH1 0x0 PUSH1 0x20 DUP3 ADD SWAP1 POP PUSH2 0xD55 PUSH1 0x0 DUP4 ADD DUP5 PUSH2 0xD31 JUMP JUMPDEST SWAP3 SWAP2 POP POP JUMP JUMPDEST PUSH1 0x0 DUP3 DUP3 MSTORE PUSH1 0x20 DUP3 ADD SWAP1 POP SWAP3 SWAP2 POP POP JUMP JUMPDEST PUSH32 0x49742773206E6F7420796F7572207475726E2E00000000000000000000000000 PUSH1 0x0 DUP3 ADD MSTORE POP JUMP JUMPDEST PUSH1 0x0 PUSH2 0xDA2 PUSH1 0x13 DUP4 PUSH2 0xD5B JUMP JUMPDEST SWAP2 POP PUSH2 0xDAD DUP3 PUSH2 0xD6C JUMP JUMPDEST PUSH1 0x20 DUP3 ADD SWAP1 POP SWAP2 SWAP1 POP JUMP JUMPDEST PUSH1 0x0 PUSH1 0x20 DUP3 ADD SWAP1 POP DUP2 DUP2 SUB PUSH1 0x0 DUP4 ADD MSTORE PUSH2 0xDD1 DUP2 PUSH2 0xD95 JUMP JUMPDEST SWAP1 POP SWAP2 SWAP1 POP JUMP JUMPDEST PUSH32 0x5468652067616D65206973206F7665722E000000000000000000000000000000 PUSH1 0x0 DUP3 ADD MSTORE POP JUMP JUMPDEST PUSH1 0x0 PUSH2 0xE0E PUSH1 0x11 DUP4 PUSH2 0xD5B JUMP JUMPDEST SWAP2 POP PUSH2 0xE19 DUP3 PUSH2 0xDD8 JUMP JUMPDEST PUSH1 0x20 DUP3 ADD SWAP1 POP SWAP2 SWAP1 POP JUMP JUMPDEST PUSH1 0x0 PUSH1 0x20 DUP3 ADD SWAP1 POP DUP2 DUP2 SUB PUSH1 0x0 DUP4 ADD MSTORE PUSH2 0xE3D DUP2 PUSH2 0xE01 JUMP JUMPDEST SWAP1 POP SWAP2 SWAP1 POP JUMP JUMPDEST PUSH32 0x496E76616C696420726F77206F7220636F6C756D6E20706C6163656D656E7400 PUSH1 0x0 DUP3 ADD MSTORE POP JUMP JUMPDEST PUSH1 0x0 PUSH2 0xE7A PUSH1 0x1F DUP4 PUSH2 0xD5B JUMP JUMPDEST SWAP2 POP PUSH2 0xE85 DUP3 PUSH2 0xE44 JUMP JUMPDEST PUSH1 0x20 DUP3 ADD SWAP1 POP SWAP2 SWAP1 POP JUMP JUMPDEST PUSH1 0x0 PUSH1 0x20 DUP3 ADD SWAP1 POP DUP2 DUP2 SUB PUSH1 0x0 DUP4 ADD MSTORE PUSH2 0xEA9 DUP2 PUSH2 0xE6D JUMP JUMPDEST SWAP1 POP SWAP2 SWAP1 POP JUMP JUMPDEST PUSH32 0x4E487B7100000000000000000000000000000000000000000000000000000000 PUSH1 0x0 MSTORE PUSH1 0x32 PUSH1 0x4 MSTORE PUSH1 0x24 PUSH1 0x0 REVERT JUMPDEST PUSH32 0x43656C6C20697320616C72656164792074616B656E2E00000000000000000000 PUSH1 0x0 DUP3 ADD MSTORE POP JUMP JUMPDEST PUSH1 0x0 PUSH2 0xF15 PUSH1 0x16 DUP4 PUSH2 0xD5B JUMP JUMPDEST SWAP2 POP PUSH2 0xF20 DUP3 PUSH2 0xEDF JUMP JUMPDEST PUSH1 0x20 DUP3 ADD SWAP1 POP SWAP2 SWAP1 POP JUMP JUMPDEST PUSH1 0x0 PUSH1 0x20 DUP3 ADD SWAP1 POP DUP2 DUP2 SUB PUSH1 0x0 DUP4 ADD MSTORE PUSH2 0xF44 DUP2 PUSH2 0xF08 JUMP JUMPDEST SWAP1 POP SWAP2 SWAP1 POP JUMP JUMPDEST PUSH32 0x4E487B7100000000000000000000000000000000000000000000000000000000 PUSH1 0x0 MSTORE PUSH1 0x11 PUSH1 0x4 MSTORE PUSH1 0x24 PUSH1 0x0 REVERT JUMPDEST PUSH1 0x0 PUSH2 0xF85 DUP3 PUSH2 0xC42 JUMP JUMPDEST SWAP2 POP PUSH1 0xFF DUP3 SUB PUSH2 0xF98 JUMPI PUSH2 0xF97 PUSH2 0xF4B JUMP JUMPDEST JUMPDEST PUSH1 0x1 DUP3 ADD SWAP1 POP SWAP2 SWAP1 POP JUMP INVALID LOG2 PUSH5 0x6970667358 0x22 SLT KECCAK256 0xD4 BLOCKHASH CREATE PUSH3 0xC19DDF DIV 0xA7 PUSH7 0xA2E41CFC112517 0xD6 DUP2 PUSH17 0x256A13B054F8DC49422C59464736F6C63 NUMBER STOP ADDMOD SHR STOP CALLER "},"methodIdentifiers":{"board(uint256,uint256)":"8086a92a","isGameOver()":"0e04a7d8","makeMove(uint8,uint8)":"5e24b0f1","nextPlayer()":"04a93605","playerO()":"e7dafa6e","playerX()":"4cdea7d2"}}}}}