{
	"contracts/TicTacToe.sol": {
		"TicTacToe": {
			"abi": [
				{
					"anonymous": false,
					"inputs": [
						{
							"indexed": true,
							"internalType": "address",
							"name": "winner",
							"type": "address"
						}
					],
					"name": "GameEnded",
					"type": "event"
				},
				{
					"anonymous": false,
					"inputs": [
						{
							"indexed": true,
							"internalType": "address",
							"name": "gameAddress",
							"type": "address"
						},
						{
							"indexed": true,
							"internalType": "address",
							"name": "pX",
							"type": "address"
						},
						{
							"indexed": true,
							"internalType": "address",
							"name": "pO",
							"type": "address"
						}
					],
					"name": "GameStarted",
					"type": "event"
				},
				{
					"anonymous": false,
					"inputs": [
						{
							"indexed": true,
							"internalType": "address",
							"name": "player",
							"type": "address"
						},
						{
							"indexed": false,
							"internalType": "uint8",
							"name": "r",
							"type": "uint8"
						},
						{
							"indexed": false,
							"internalType": "uint8",
							"name": "c",
							"type": "uint8"
						},
						{
							"indexed": false,
							"internalType": "uint8",
							"name": "marker",
							"type": "uint8"
						}
					],
					"name": "MoveMade",
					"type": "event"
				},
				{
					"inputs": [
						{
							"internalType": "uint256",
							"name": "",
							"type": "uint256"
						},
						{
							"internalType": "uint256",
							"name": "",
							"type": "uint256"
						}
					],
					"name": "board",
					"outputs": [
						{
							"internalType": "uint8",
							"name": "",
							"type": "uint8"
						}
					],
					"stateMutability": "view",
					"type": "function"
				},
				{
					"inputs": [],
					"name": "getBoardState",
					"outputs": [
						{
							"internalType": "uint8[3][3]",
							"name": "",
							"type": "uint8[3][3]"
						}
					],
					"stateMutability": "view",
					"type": "function"
				},
				{
					"inputs": [],
					"name": "getPlayers",
					"outputs": [
						{
							"internalType": "address",
							"name": "",
							"type": "address"
						},
						{
							"internalType": "address",
							"name": "",
							"type": "address"
						}
					],
					"stateMutability": "view",
					"type": "function"
				},
				{
					"inputs": [
						{
							"internalType": "address payable",
							"name": "_playerX",
							"type": "address"
						},
						{
							"internalType": "address payable",
							"name": "_playerO",
							"type": "address"
						}
					],
					"name": "initialize",
					"outputs": [],
					"stateMutability": "nonpayable",
					"type": "function"
				},
				{
					"inputs": [],
					"name": "isGameOver",
					"outputs": [
						{
							"internalType": "bool",
							"name": "",
							"type": "bool"
						}
					],
					"stateMutability": "view",
					"type": "function"
				},
				{
					"inputs": [
						{
							"internalType": "uint8",
							"name": "row",
							"type": "uint8"
						},
						{
							"internalType": "uint8",
							"name": "col",
							"type": "uint8"
						}
					],
					"name": "makeMove",
					"outputs": [],
					"stateMutability": "nonpayable",
					"type": "function"
				},
				{
					"inputs": [],
					"name": "nextPlayer",
					"outputs": [
						{
							"internalType": "address",
							"name": "",
							"type": "address"
						}
					],
					"stateMutability": "view",
					"type": "function"
				},
				{
					"inputs": [],
					"name": "winner",
					"outputs": [
						{
							"internalType": "address",
							"name": "",
							"type": "address"
						}
					],
					"stateMutability": "view",
					"type": "function"
				}
			],
			"devdoc": {
				"kind": "dev",
				"methods": {},
				"version": 1
			},
			"evm": {
				"assembly": "    /* \"contracts/TicTacToe.sol\":423:6740  contract TicTacToe {... */\n  mstore(0x40, 0x80)\n  callvalue\n  dup1\n  iszero\n  tag_1\n  jumpi\n  revert(0x00, 0x00)\ntag_1:\n  pop\n  dataSize(sub_0)\n  dup1\n  dataOffset(sub_0)\n  0x00\n  codecopy\n  0x00\n  return\nstop\n\nsub_0: assembly {\n        /* \"contracts/TicTacToe.sol\":423:6740  contract TicTacToe {... */\n      mstore(0x40, 0x80)\n      callvalue\n      dup1\n      iszero\n      tag_1\n      jumpi\n      revert(0x00, 0x00)\n    tag_1:\n      pop\n      jumpi(tag_2, lt(calldatasize, 0x04))\n      shr(0xe0, calldataload(0x00))\n      dup1\n      0x5e24b0f1\n      gt\n      tag_11\n      jumpi\n      dup1\n      0x5e24b0f1\n      eq\n      tag_7\n      jumpi\n      dup1\n      0x8086a92a\n      eq\n      tag_8\n      jumpi\n      dup1\n      0x8b5b9ccc\n      eq\n      tag_9\n      jumpi\n      dup1\n      0xdfbf53ae\n      eq\n      tag_10\n      jumpi\n      jump(tag_2)\n    tag_11:\n      dup1\n      0x04a93605\n      eq\n      tag_3\n      jumpi\n      dup1\n      0x0e04a7d8\n      eq\n      tag_4\n      jumpi\n      dup1\n      0x2420f7f0\n      eq\n      tag_5\n      jumpi\n      dup1\n      0x485cc955\n      eq\n      tag_6\n      jumpi\n    tag_2:\n      revert(0x00, 0x00)\n        /* \"contracts/TicTacToe.sol\":1343:1368  address public nextPlayer */\n    tag_3:\n      tag_12\n      tag_13\n      jump\t// in\n    tag_12:\n      mload(0x40)\n      tag_14\n      swap2\n      swap1\n      tag_15\n      jump\t// in\n    tag_14:\n      mload(0x40)\n      dup1\n      swap2\n      sub\n      swap1\n      return\n        /* \"contracts/TicTacToe.sol\":1375:1397  bool public isGameOver */\n    tag_4:\n      tag_16\n      tag_17\n      jump\t// in\n    tag_16:\n      mload(0x40)\n      tag_18\n      swap2\n      swap1\n      tag_19\n      jump\t// in\n    tag_18:\n      mload(0x40)\n      dup1\n      swap2\n      sub\n      swap1\n      return\n        /* \"contracts/TicTacToe.sol\":3821:3918  function getBoardState() public view returns (uint8[3][3] memory) {... */\n    tag_5:\n      tag_20\n      tag_21\n      jump\t// in\n    tag_20:\n      mload(0x40)\n      tag_22\n      swap2\n      swap1\n      tag_23\n      jump\t// in\n    tag_22:\n      mload(0x40)\n      dup1\n      swap2\n      sub\n      swap1\n      return\n        /* \"contracts/TicTacToe.sol\":1818:2468  function initialize(address payable _playerX, address payable _playerO) public {... */\n    tag_6:\n      tag_24\n      0x04\n      dup1\n      calldatasize\n      sub\n      dup2\n      add\n      swap1\n      tag_25\n      swap2\n      swap1\n      tag_26\n      jump\t// in\n    tag_25:\n      tag_27\n      jump\t// in\n    tag_24:\n      stop\n        /* \"contracts/TicTacToe.sol\":3962:4851  function makeMove(uint8 row, uint8 col) public {... */\n    tag_7:\n      tag_28\n      0x04\n      dup1\n      calldatasize\n      sub\n      dup2\n      add\n      swap1\n      tag_29\n      swap2\n      swap1\n      tag_30\n      jump\t// in\n    tag_29:\n      tag_31\n      jump\t// in\n    tag_28:\n      stop\n        /* \"contracts/TicTacToe.sol\":856:880  uint8[3][3] public board */\n    tag_8:\n      tag_32\n      0x04\n      dup1\n      calldatasize\n      sub\n      dup2\n      add\n      swap1\n      tag_33\n      swap2\n      swap1\n      tag_34\n      jump\t// in\n    tag_33:\n      tag_35\n      jump\t// in\n    tag_32:\n      mload(0x40)\n      tag_36\n      swap2\n      swap1\n      tag_37\n      jump\t// in\n    tag_36:\n      mload(0x40)\n      dup1\n      swap2\n      sub\n      swap1\n      return\n        /* \"contracts/TicTacToe.sol\":3675:3780  function getPlayers() public view returns (address, address) {... */\n    tag_9:\n      tag_38\n      tag_39\n      jump\t// in\n    tag_38:\n      mload(0x40)\n      tag_40\n      swap3\n      swap2\n      swap1\n      tag_41\n      jump\t// in\n    tag_40:\n      mload(0x40)\n      dup1\n      swap2\n      sub\n      swap1\n      return\n        /* \"contracts/TicTacToe.sol\":1448:1469  address public winner */\n    tag_10:\n      tag_42\n      tag_43\n      jump\t// in\n    tag_42:\n      mload(0x40)\n      tag_44\n      swap2\n      swap1\n      tag_15\n      jump\t// in\n    tag_44:\n      mload(0x40)\n      dup1\n      swap2\n      sub\n      swap1\n      return\n        /* \"contracts/TicTacToe.sol\":1343:1368  address public nextPlayer */\n    tag_13:\n      0x05\n      0x00\n      swap1\n      sload\n      swap1\n      0x0100\n      exp\n      swap1\n      div\n      0xffffffffffffffffffffffffffffffffffffffff\n      and\n      dup2\n      jump\t// out\n        /* \"contracts/TicTacToe.sol\":1375:1397  bool public isGameOver */\n    tag_17:\n      0x05\n      0x14\n      swap1\n      sload\n      swap1\n      0x0100\n      exp\n      swap1\n      div\n      0xff\n      and\n      dup2\n      jump\t// out\n        /* \"contracts/TicTacToe.sol\":3821:3918  function getBoardState() public view returns (uint8[3][3] memory) {... */\n    tag_21:\n        /* \"contracts/TicTacToe.sol\":3867:3885  uint8[3][3] memory */\n      tag_45\n      tag_46\n      jump\t// in\n    tag_45:\n        /* \"contracts/TicTacToe.sol\":3905:3910  board */\n      0x00\n        /* \"contracts/TicTacToe.sol\":3898:3910  return board */\n      0x03\n      dup1\n      0x20\n      mul\n      mload(0x40)\n      swap1\n      dup2\n      add\n      0x40\n      mstore\n      dup1\n      swap3\n      swap2\n      swap1\n      0x00\n      swap1\n    tag_48:\n      dup3\n      dup3\n      lt\n      iszero\n      tag_49\n      jumpi\n      dup4\n      dup3\n      add\n      0x03\n      dup1\n      0x20\n      mul\n      mload(0x40)\n      swap1\n      dup2\n      add\n      0x40\n      mstore\n      dup1\n      swap3\n      swap2\n      swap1\n      dup3\n      0x03\n      dup1\n      iszero\n      tag_51\n      jumpi\n      0x20\n      mul\n      dup3\n      add\n      swap2\n      0x00\n      swap1\n    tag_52:\n      dup3\n      dup3\n      swap1\n      sload\n      swap1\n      0x0100\n      exp\n      swap1\n      div\n      0xff\n      and\n      0xff\n      and\n      dup2\n      mstore\n      0x20\n      add\n      swap1\n      0x01\n      add\n      swap1\n      0x20\n      dup3\n      0x00\n      add\n      div\n      swap3\n      dup4\n      add\n      swap3\n      0x01\n      sub\n      dup3\n      mul\n      swap2\n      pop\n      dup1\n      dup5\n      gt\n      tag_52\n      jumpi\n      swap1\n      pop\n    tag_51:\n      pop\n      pop\n      pop\n      pop\n      pop\n      dup2\n      mstore\n      0x20\n      add\n      swap1\n      0x01\n      add\n      swap1\n      jump(tag_48)\n    tag_49:\n      pop\n      pop\n      pop\n      pop\n      swap1\n      pop\n        /* \"contracts/TicTacToe.sol\":3821:3918  function getBoardState() public view returns (uint8[3][3] memory) {... */\n      swap1\n      jump\t// out\n        /* \"contracts/TicTacToe.sol\":1818:2468  function initialize(address payable _playerX, address payable _playerO) public {... */\n    tag_27:\n        /* \"contracts/TicTacToe.sol\":2161:2162  0 */\n      0x00\n        /* \"contracts/TicTacToe.sol\":2142:2163  playerX == address(0) */\n      0xffffffffffffffffffffffffffffffffffffffff\n      and\n        /* \"contracts/TicTacToe.sol\":2142:2149  playerX */\n      0x03\n      0x00\n      swap1\n      sload\n      swap1\n      0x0100\n      exp\n      swap1\n      div\n      0xffffffffffffffffffffffffffffffffffffffff\n      and\n        /* \"contracts/TicTacToe.sol\":2142:2163  playerX == address(0) */\n      0xffffffffffffffffffffffffffffffffffffffff\n      and\n      eq\n        /* \"contracts/TicTacToe.sol\":2134:2192  require(playerX == address(0), \"Game already initialized\") */\n      tag_54\n      jumpi\n      mload(0x40)\n      0x08c379a000000000000000000000000000000000000000000000000000000000\n      dup2\n      mstore\n      0x04\n      add\n      tag_55\n      swap1\n      tag_56\n      jump\t// in\n    tag_55:\n      mload(0x40)\n      dup1\n      swap2\n      sub\n      swap1\n      revert\n    tag_54:\n        /* \"contracts/TicTacToe.sol\":2213:2221  _playerX */\n      dup2\n        /* \"contracts/TicTacToe.sol\":2203:2210  playerX */\n      0x03\n      0x00\n        /* \"contracts/TicTacToe.sol\":2203:2221  playerX = _playerX */\n      0x0100\n      exp\n      dup2\n      sload\n      dup2\n      0xffffffffffffffffffffffffffffffffffffffff\n      mul\n      not\n      and\n      swap1\n      dup4\n      0xffffffffffffffffffffffffffffffffffffffff\n      and\n      mul\n      or\n      swap1\n      sstore\n      pop\n        /* \"contracts/TicTacToe.sol\":2254:2261  playerX */\n      0x03\n      0x00\n      swap1\n      sload\n      swap1\n      0x0100\n      exp\n      swap1\n      div\n      0xffffffffffffffffffffffffffffffffffffffff\n      and\n        /* \"contracts/TicTacToe.sol\":2242:2261  _playerO != playerX */\n      0xffffffffffffffffffffffffffffffffffffffff\n      and\n        /* \"contracts/TicTacToe.sol\":2242:2250  _playerO */\n      dup2\n        /* \"contracts/TicTacToe.sol\":2242:2261  _playerO != playerX */\n      0xffffffffffffffffffffffffffffffffffffffff\n      and\n      sub\n        /* \"contracts/TicTacToe.sol\":2234:2307  require(_playerO != playerX, \"Other player must use a different address\") */\n      tag_57\n      jumpi\n      mload(0x40)\n      0x08c379a000000000000000000000000000000000000000000000000000000000\n      dup2\n      mstore\n      0x04\n      add\n      tag_58\n      swap1\n      tag_59\n      jump\t// in\n    tag_58:\n      mload(0x40)\n      dup1\n      swap2\n      sub\n      swap1\n      revert\n    tag_57:\n        /* \"contracts/TicTacToe.sol\":2328:2336  _playerO */\n      dup1\n        /* \"contracts/TicTacToe.sol\":2318:2325  playerO */\n      0x04\n      0x00\n        /* \"contracts/TicTacToe.sol\":2318:2336  playerO = _playerO */\n      0x0100\n      exp\n      dup2\n      sload\n      dup2\n      0xffffffffffffffffffffffffffffffffffffffff\n      mul\n      not\n      and\n      swap1\n      dup4\n      0xffffffffffffffffffffffffffffffffffffffff\n      and\n      mul\n      or\n      swap1\n      sstore\n      pop\n        /* \"contracts/TicTacToe.sol\":2362:2369  playerX */\n      0x03\n      0x00\n      swap1\n      sload\n      swap1\n      0x0100\n      exp\n      swap1\n      div\n      0xffffffffffffffffffffffffffffffffffffffff\n      and\n        /* \"contracts/TicTacToe.sol\":2349:2359  nextPlayer */\n      0x05\n      0x00\n        /* \"contracts/TicTacToe.sol\":2349:2369  nextPlayer = playerX */\n      0x0100\n      exp\n      dup2\n      sload\n      dup2\n      0xffffffffffffffffffffffffffffffffffffffff\n      mul\n      not\n      and\n      swap1\n      dup4\n      0xffffffffffffffffffffffffffffffffffffffff\n      and\n      mul\n      or\n      swap1\n      sstore\n      pop\n        /* \"contracts/TicTacToe.sol\":2393:2398  false */\n      0x00\n        /* \"contracts/TicTacToe.sol\":2380:2390  isGameOver */\n      0x05\n      0x14\n        /* \"contracts/TicTacToe.sol\":2380:2398  isGameOver = false */\n      0x0100\n      exp\n      dup2\n      sload\n      dup2\n      0xff\n      mul\n      not\n      and\n      swap1\n      dup4\n      iszero\n      iszero\n      mul\n      or\n      swap1\n      sstore\n      pop\n        /* \"contracts/TicTacToe.sol\":2452:2459  playerO */\n      0x04\n      0x00\n      swap1\n      sload\n      swap1\n      0x0100\n      exp\n      swap1\n      div\n      0xffffffffffffffffffffffffffffffffffffffff\n      and\n        /* \"contracts/TicTacToe.sol\":2416:2460  GameStarted(address(this), playerX, playerO) */\n      0xffffffffffffffffffffffffffffffffffffffff\n      and\n        /* \"contracts/TicTacToe.sol\":2443:2450  playerX */\n      0x03\n      0x00\n      swap1\n      sload\n      swap1\n      0x0100\n      exp\n      swap1\n      div\n      0xffffffffffffffffffffffffffffffffffffffff\n      and\n        /* \"contracts/TicTacToe.sol\":2416:2460  GameStarted(address(this), playerX, playerO) */\n      0xffffffffffffffffffffffffffffffffffffffff\n      and\n        /* \"contracts/TicTacToe.sol\":2436:2440  this */\n      address\n        /* \"contracts/TicTacToe.sol\":2416:2460  GameStarted(address(this), playerX, playerO) */\n      0xffffffffffffffffffffffffffffffffffffffff\n      and\n      0xe733eb5c42c855d38269254700780d064a49ef1611d1f3bfdda632ec19891f56\n      mload(0x40)\n      mload(0x40)\n      dup1\n      swap2\n      sub\n      swap1\n      log4\n        /* \"contracts/TicTacToe.sol\":1818:2468  function initialize(address payable _playerX, address payable _playerO) public {... */\n      pop\n      pop\n      jump\t// out\n        /* \"contracts/TicTacToe.sol\":3962:4851  function makeMove(uint8 row, uint8 col) public {... */\n    tag_31:\n        /* \"contracts/TicTacToe.sol\":4113:4123  isGameOver */\n      0x05\n      0x14\n      swap1\n      sload\n      swap1\n      0x0100\n      exp\n      swap1\n      div\n      0xff\n      and\n        /* \"contracts/TicTacToe.sol\":4112:4123  !isGameOver */\n      iszero\n        /* \"contracts/TicTacToe.sol\":4104:4145  require(!isGameOver, \"The game is over.\") */\n      tag_61\n      jumpi\n      mload(0x40)\n      0x08c379a000000000000000000000000000000000000000000000000000000000\n      dup2\n      mstore\n      0x04\n      add\n      tag_62\n      swap1\n      tag_63\n      jump\t// in\n    tag_62:\n      mload(0x40)\n      dup1\n      swap2\n      sub\n      swap1\n      revert\n    tag_61:\n        /* \"contracts/TicTacToe.sol\":4237:4247  nextPlayer */\n      0x05\n      0x00\n      swap1\n      sload\n      swap1\n      0x0100\n      exp\n      swap1\n      div\n      0xffffffffffffffffffffffffffffffffffffffff\n      and\n        /* \"contracts/TicTacToe.sol\":4223:4247  msg.sender == nextPlayer */\n      0xffffffffffffffffffffffffffffffffffffffff\n      and\n        /* \"contracts/TicTacToe.sol\":4223:4233  msg.sender */\n      caller\n        /* \"contracts/TicTacToe.sol\":4223:4247  msg.sender == nextPlayer */\n      0xffffffffffffffffffffffffffffffffffffffff\n      and\n      eq\n        /* \"contracts/TicTacToe.sol\":4215:4271  require(msg.sender == nextPlayer, \"It's not your turn.\") */\n      tag_64\n      jumpi\n      mload(0x40)\n      0x08c379a000000000000000000000000000000000000000000000000000000000\n      dup2\n      mstore\n      0x04\n      add\n      tag_65\n      swap1\n      tag_66\n      jump\t// in\n    tag_65:\n      mload(0x40)\n      dup1\n      swap2\n      sub\n      swap1\n      revert\n    tag_64:\n        /* \"contracts/TicTacToe.sol\":4372:4373  3 */\n      0x03\n        /* \"contracts/TicTacToe.sol\":4366:4369  row */\n      dup3\n        /* \"contracts/TicTacToe.sol\":4366:4373  row < 3 */\n      0xff\n      and\n      lt\n        /* \"contracts/TicTacToe.sol\":4366:4384  row < 3 && col < 3 */\n      dup1\n      iszero\n      tag_67\n      jumpi\n      pop\n        /* \"contracts/TicTacToe.sol\":4383:4384  3 */\n      0x03\n        /* \"contracts/TicTacToe.sol\":4377:4380  col */\n      dup2\n        /* \"contracts/TicTacToe.sol\":4377:4384  col < 3 */\n      0xff\n      and\n      lt\n        /* \"contracts/TicTacToe.sol\":4366:4384  row < 3 && col < 3 */\n    tag_67:\n        /* \"contracts/TicTacToe.sol\":4358:4420  require(row < 3 && col < 3, \"Invalid row or column placement\") */\n      tag_68\n      jumpi\n      mload(0x40)\n      0x08c379a000000000000000000000000000000000000000000000000000000000\n      dup2\n      mstore\n      0x04\n      add\n      tag_69\n      swap1\n      tag_70\n      jump\t// in\n    tag_69:\n      mload(0x40)\n      dup1\n      swap2\n      sub\n      swap1\n      revert\n    tag_68:\n        /* \"contracts/TicTacToe.sol\":4506:4507  0 */\n      0x00\n        /* \"contracts/TicTacToe.sol\":4487:4492  board */\n      0x00\n        /* \"contracts/TicTacToe.sol\":4493:4496  row */\n      dup4\n        /* \"contracts/TicTacToe.sol\":4487:4497  board[row] */\n      0xff\n      and\n      0x03\n      dup2\n      lt\n      tag_71\n      jumpi\n      tag_72\n      tag_73\n      jump\t// in\n    tag_72:\n    tag_71:\n      add\n        /* \"contracts/TicTacToe.sol\":4498:4501  col */\n      dup3\n        /* \"contracts/TicTacToe.sol\":4487:4502  board[row][col] */\n      0xff\n      and\n      0x03\n      dup2\n      lt\n      tag_75\n      jumpi\n      tag_76\n      tag_73\n      jump\t// in\n    tag_76:\n    tag_75:\n      0x20\n      swap2\n      dup3\n      dup3\n      div\n      add\n      swap2\n      swap1\n      mod\n      swap1\n      sload\n      swap1\n      0x0100\n      exp\n      swap1\n      div\n      0xff\n      and\n        /* \"contracts/TicTacToe.sol\":4487:4507  board[row][col] == 0 */\n      0xff\n      and\n      eq\n        /* \"contracts/TicTacToe.sol\":4479:4534  require(board[row][col] == 0, \"Cell is already taken.\") */\n      tag_78\n      jumpi\n      mload(0x40)\n      0x08c379a000000000000000000000000000000000000000000000000000000000\n      dup2\n      mstore\n      0x04\n      add\n      tag_79\n      swap1\n      tag_80\n      jump\t// in\n    tag_79:\n      mload(0x40)\n      dup1\n      swap2\n      sub\n      swap1\n      revert\n    tag_78:\n        /* \"contracts/TicTacToe.sol\":4641:4648  playerX */\n      0x03\n      0x00\n      swap1\n      sload\n      swap1\n      0x0100\n      exp\n      swap1\n      div\n      0xffffffffffffffffffffffffffffffffffffffff\n      and\n        /* \"contracts/TicTacToe.sol\":4627:4648  msg.sender == playerX */\n      0xffffffffffffffffffffffffffffffffffffffff\n      and\n        /* \"contracts/TicTacToe.sol\":4627:4637  msg.sender */\n      caller\n        /* \"contracts/TicTacToe.sol\":4627:4648  msg.sender == playerX */\n      0xffffffffffffffffffffffffffffffffffffffff\n      and\n      sub\n        /* \"contracts/TicTacToe.sol\":4623:4748  if (msg.sender == playerX) {... */\n      tag_81\n      jumpi\n        /* \"contracts/TicTacToe.sol\":4683:4684  1 */\n      0x01\n        /* \"contracts/TicTacToe.sol\":4665:4670  board */\n      0x00\n        /* \"contracts/TicTacToe.sol\":4671:4674  row */\n      dup4\n        /* \"contracts/TicTacToe.sol\":4665:4675  board[row] */\n      0xff\n      and\n      0x03\n      dup2\n      lt\n      tag_82\n      jumpi\n      tag_83\n      tag_73\n      jump\t// in\n    tag_83:\n    tag_82:\n      add\n        /* \"contracts/TicTacToe.sol\":4676:4679  col */\n      dup3\n        /* \"contracts/TicTacToe.sol\":4665:4680  board[row][col] */\n      0xff\n      and\n      0x03\n      dup2\n      lt\n      tag_85\n      jumpi\n      tag_86\n      tag_73\n      jump\t// in\n    tag_86:\n    tag_85:\n      0x20\n      swap2\n      dup3\n      dup3\n      div\n      add\n      swap2\n      swap1\n      mod\n        /* \"contracts/TicTacToe.sol\":4665:4684  board[row][col] = 1 */\n      0x0100\n      exp\n      dup2\n      sload\n      dup2\n      0xff\n      mul\n      not\n      and\n      swap1\n      dup4\n      0xff\n      and\n      mul\n      or\n      swap1\n      sstore\n      pop\n        /* \"contracts/TicTacToe.sol\":4623:4748  if (msg.sender == playerX) {... */\n      jump(tag_88)\n    tag_81:\n        /* \"contracts/TicTacToe.sol\":4735:4736  2 */\n      0x02\n        /* \"contracts/TicTacToe.sol\":4717:4722  board */\n      0x00\n        /* \"contracts/TicTacToe.sol\":4723:4726  row */\n      dup4\n        /* \"contracts/TicTacToe.sol\":4717:4727  board[row] */\n      0xff\n      and\n      0x03\n      dup2\n      lt\n      tag_89\n      jumpi\n      tag_90\n      tag_73\n      jump\t// in\n    tag_90:\n    tag_89:\n      add\n        /* \"contracts/TicTacToe.sol\":4728:4731  col */\n      dup3\n        /* \"contracts/TicTacToe.sol\":4717:4732  board[row][col] */\n      0xff\n      and\n      0x03\n      dup2\n      lt\n      tag_92\n      jumpi\n      tag_93\n      tag_73\n      jump\t// in\n    tag_93:\n    tag_92:\n      0x20\n      swap2\n      dup3\n      dup3\n      div\n      add\n      swap2\n      swap1\n      mod\n        /* \"contracts/TicTacToe.sol\":4717:4736  board[row][col] = 2 */\n      0x0100\n      exp\n      dup2\n      sload\n      dup2\n      0xff\n      mul\n      not\n      and\n      swap1\n      dup4\n      0xff\n      and\n      mul\n      or\n      swap1\n      sstore\n      pop\n        /* \"contracts/TicTacToe.sol\":4623:4748  if (msg.sender == playerX) {... */\n    tag_88:\n        /* \"contracts/TicTacToe.sol\":4793:4803  checkWin() */\n      tag_95\n        /* \"contracts/TicTacToe.sol\":4793:4801  checkWin */\n      tag_96\n        /* \"contracts/TicTacToe.sol\":4793:4803  checkWin() */\n      jump\t// in\n    tag_95:\n        /* \"contracts/TicTacToe.sol\":4819:4829  isGameOver */\n      0x05\n      0x14\n      swap1\n      sload\n      swap1\n      0x0100\n      exp\n      swap1\n      div\n      0xff\n      and\n        /* \"contracts/TicTacToe.sol\":4814:4843  if (!isGameOver) switchTurn() */\n      tag_97\n      jumpi\n        /* \"contracts/TicTacToe.sol\":4831:4843  switchTurn() */\n      tag_98\n        /* \"contracts/TicTacToe.sol\":4831:4841  switchTurn */\n      tag_99\n        /* \"contracts/TicTacToe.sol\":4831:4843  switchTurn() */\n      jump\t// in\n    tag_98:\n        /* \"contracts/TicTacToe.sol\":4814:4843  if (!isGameOver) switchTurn() */\n    tag_97:\n        /* \"contracts/TicTacToe.sol\":3962:4851  function makeMove(uint8 row, uint8 col) public {... */\n      pop\n      pop\n      jump\t// out\n        /* \"contracts/TicTacToe.sol\":856:880  uint8[3][3] public board */\n    tag_35:\n      0x00\n      dup3\n      0x03\n      dup2\n      lt\n      tag_100\n      jumpi\n      0x00\n      dup1\n      revert\n    tag_100:\n      add\n      dup2\n      0x03\n      dup2\n      lt\n      tag_102\n      jumpi\n      0x00\n      dup1\n      revert\n    tag_102:\n      0x20\n      swap2\n      dup3\n      dup3\n      div\n      add\n      swap2\n      swap1\n      mod\n      swap2\n      pop\n      swap2\n      pop\n      swap1\n      sload\n      swap1\n      0x0100\n      exp\n      swap1\n      div\n      0xff\n      and\n      dup2\n      jump\t// out\n        /* \"contracts/TicTacToe.sol\":3675:3780  function getPlayers() public view returns (address, address) {... */\n    tag_39:\n        /* \"contracts/TicTacToe.sol\":3718:3725  address */\n      0x00\n        /* \"contracts/TicTacToe.sol\":3727:3734  address */\n      0x00\n        /* \"contracts/TicTacToe.sol\":3755:3762  playerX */\n      0x03\n      0x00\n      swap1\n      sload\n      swap1\n      0x0100\n      exp\n      swap1\n      div\n      0xffffffffffffffffffffffffffffffffffffffff\n      and\n        /* \"contracts/TicTacToe.sol\":3764:3771  playerO */\n      0x04\n      0x00\n      swap1\n      sload\n      swap1\n      0x0100\n      exp\n      swap1\n      div\n      0xffffffffffffffffffffffffffffffffffffffff\n      and\n        /* \"contracts/TicTacToe.sol\":3747:3772  return (playerX, playerO) */\n      swap2\n      pop\n      swap2\n      pop\n        /* \"contracts/TicTacToe.sol\":3675:3780  function getPlayers() public view returns (address, address) {... */\n      swap1\n      swap2\n      jump\t// out\n        /* \"contracts/TicTacToe.sol\":1448:1469  address public winner */\n    tag_43:\n      0x06\n      0x00\n      swap1\n      sload\n      swap1\n      0x0100\n      exp\n      swap1\n      div\n      0xffffffffffffffffffffffffffffffffffffffff\n      and\n      dup2\n      jump\t// out\n        /* \"contracts/TicTacToe.sol\":5331:6737  function checkWin() private {... */\n    tag_96:\n        /* \"contracts/TicTacToe.sol\":5433:5445  uint8 marker */\n      0x00\n        /* \"contracts/TicTacToe.sol\":5474:5481  playerX */\n      0x03\n      0x00\n      swap1\n      sload\n      swap1\n      0x0100\n      exp\n      swap1\n      div\n      0xffffffffffffffffffffffffffffffffffffffff\n      and\n        /* \"contracts/TicTacToe.sol\":5460:5481  msg.sender == playerX */\n      0xffffffffffffffffffffffffffffffffffffffff\n      and\n        /* \"contracts/TicTacToe.sol\":5460:5470  msg.sender */\n      caller\n        /* \"contracts/TicTacToe.sol\":5460:5481  msg.sender == playerX */\n      0xffffffffffffffffffffffffffffffffffffffff\n      and\n      sub\n        /* \"contracts/TicTacToe.sol\":5456:5563  if (msg.sender == playerX) {... */\n      tag_106\n      jumpi\n        /* \"contracts/TicTacToe.sol\":5507:5508  1 */\n      0x01\n        /* \"contracts/TicTacToe.sol\":5498:5508  marker = 1 */\n      swap1\n      pop\n        /* \"contracts/TicTacToe.sol\":5456:5563  if (msg.sender == playerX) {... */\n      jump(tag_107)\n    tag_106:\n        /* \"contracts/TicTacToe.sol\":5550:5551  2 */\n      0x02\n        /* \"contracts/TicTacToe.sol\":5541:5551  marker = 2 */\n      swap1\n      pop\n        /* \"contracts/TicTacToe.sol\":5456:5563  if (msg.sender == playerX) {... */\n    tag_107:\n        /* \"contracts/TicTacToe.sol\":5647:5654  uint8 i */\n      0x00\n        /* \"contracts/TicTacToe.sol\":5657:5658  0 */\n      0x00\n        /* \"contracts/TicTacToe.sol\":5647:5658  uint8 i = 0 */\n      swap1\n      pop\n        /* \"contracts/TicTacToe.sol\":5642:5988  for (uint8 i = 0; i < 3; i++) {... */\n    tag_108:\n        /* \"contracts/TicTacToe.sol\":5664:5665  3 */\n      0x03\n        /* \"contracts/TicTacToe.sol\":5660:5661  i */\n      dup2\n        /* \"contracts/TicTacToe.sol\":5660:5665  i < 3 */\n      0xff\n      and\n      lt\n        /* \"contracts/TicTacToe.sol\":5642:5988  for (uint8 i = 0; i < 3; i++) {... */\n      iszero\n      tag_109\n      jumpi\n        /* \"contracts/TicTacToe.sol\":5706:5712  marker */\n      dup2\n        /* \"contracts/TicTacToe.sol\":5691:5712  board[i][0] == marker */\n      0xff\n      and\n        /* \"contracts/TicTacToe.sol\":5691:5696  board */\n      0x00\n        /* \"contracts/TicTacToe.sol\":5697:5698  i */\n      dup3\n        /* \"contracts/TicTacToe.sol\":5691:5699  board[i] */\n      0xff\n      and\n      0x03\n      dup2\n      lt\n      tag_111\n      jumpi\n      tag_112\n      tag_73\n      jump\t// in\n    tag_112:\n    tag_111:\n      add\n        /* \"contracts/TicTacToe.sol\":5700:5701  0 */\n      0x00\n        /* \"contracts/TicTacToe.sol\":5691:5702  board[i][0] */\n      0x03\n      dup2\n      lt\n      tag_114\n      jumpi\n      tag_115\n      tag_73\n      jump\t// in\n    tag_115:\n    tag_114:\n      0x20\n      swap2\n      dup3\n      dup3\n      div\n      add\n      swap2\n      swap1\n      mod\n      swap1\n      sload\n      swap1\n      0x0100\n      exp\n      swap1\n      div\n      0xff\n      and\n        /* \"contracts/TicTacToe.sol\":5691:5712  board[i][0] == marker */\n      0xff\n      and\n      eq\n        /* \"contracts/TicTacToe.sol\":5691:5737  board[i][0] == marker && board[i][1] == marker */\n      dup1\n      iszero\n      tag_117\n      jumpi\n      pop\n        /* \"contracts/TicTacToe.sol\":5731:5737  marker */\n      dup2\n        /* \"contracts/TicTacToe.sol\":5716:5737  board[i][1] == marker */\n      0xff\n      and\n        /* \"contracts/TicTacToe.sol\":5716:5721  board */\n      0x00\n        /* \"contracts/TicTacToe.sol\":5722:5723  i */\n      dup3\n        /* \"contracts/TicTacToe.sol\":5716:5724  board[i] */\n      0xff\n      and\n      0x03\n      dup2\n      lt\n      tag_118\n      jumpi\n      tag_119\n      tag_73\n      jump\t// in\n    tag_119:\n    tag_118:\n      add\n        /* \"contracts/TicTacToe.sol\":5725:5726  1 */\n      0x01\n        /* \"contracts/TicTacToe.sol\":5716:5727  board[i][1] */\n      0x03\n      dup2\n      lt\n      tag_121\n      jumpi\n      tag_122\n      tag_73\n      jump\t// in\n    tag_122:\n    tag_121:\n      0x20\n      swap2\n      dup3\n      dup3\n      div\n      add\n      swap2\n      swap1\n      mod\n      swap1\n      sload\n      swap1\n      0x0100\n      exp\n      swap1\n      div\n      0xff\n      and\n        /* \"contracts/TicTacToe.sol\":5716:5737  board[i][1] == marker */\n      0xff\n      and\n      eq\n        /* \"contracts/TicTacToe.sol\":5691:5737  board[i][0] == marker && board[i][1] == marker */\n    tag_117:\n        /* \"contracts/TicTacToe.sol\":5691:5762  board[i][0] == marker && board[i][1] == marker && board[i][2] == marker */\n      dup1\n      iszero\n      tag_124\n      jumpi\n      pop\n        /* \"contracts/TicTacToe.sol\":5756:5762  marker */\n      dup2\n        /* \"contracts/TicTacToe.sol\":5741:5762  board[i][2] == marker */\n      0xff\n      and\n        /* \"contracts/TicTacToe.sol\":5741:5746  board */\n      0x00\n        /* \"contracts/TicTacToe.sol\":5747:5748  i */\n      dup3\n        /* \"contracts/TicTacToe.sol\":5741:5749  board[i] */\n      0xff\n      and\n      0x03\n      dup2\n      lt\n      tag_125\n      jumpi\n      tag_126\n      tag_73\n      jump\t// in\n    tag_126:\n    tag_125:\n      add\n        /* \"contracts/TicTacToe.sol\":5750:5751  2 */\n      0x02\n        /* \"contracts/TicTacToe.sol\":5741:5752  board[i][2] */\n      0x03\n      dup2\n      lt\n      tag_128\n      jumpi\n      tag_129\n      tag_73\n      jump\t// in\n    tag_129:\n    tag_128:\n      0x20\n      swap2\n      dup3\n      dup3\n      div\n      add\n      swap2\n      swap1\n      mod\n      swap1\n      sload\n      swap1\n      0x0100\n      exp\n      swap1\n      div\n      0xff\n      and\n        /* \"contracts/TicTacToe.sol\":5741:5762  board[i][2] == marker */\n      0xff\n      and\n      eq\n        /* \"contracts/TicTacToe.sol\":5691:5762  board[i][0] == marker && board[i][1] == marker && board[i][2] == marker */\n    tag_124:\n        /* \"contracts/TicTacToe.sol\":5687:5825  if (board[i][0] == marker && board[i][1] == marker && board[i][2] == marker) {... */\n      iszero\n      tag_131\n      jumpi\n        /* \"contracts/TicTacToe.sol\":5790:5809  endGameWithWinner() */\n      tag_132\n        /* \"contracts/TicTacToe.sol\":5790:5807  endGameWithWinner */\n      tag_133\n        /* \"contracts/TicTacToe.sol\":5790:5809  endGameWithWinner() */\n      jump\t// in\n    tag_132:\n        /* \"contracts/TicTacToe.sol\":5783:5809  return endGameWithWinner() */\n      pop\n      pop\n      jump(tag_105)\n        /* \"contracts/TicTacToe.sol\":5687:5825  if (board[i][0] == marker && board[i][1] == marker && board[i][2] == marker) {... */\n    tag_131:\n        /* \"contracts/TicTacToe.sol\":5858:5864  marker */\n      dup2\n        /* \"contracts/TicTacToe.sol\":5843:5864  board[0][i] == marker */\n      0xff\n      and\n        /* \"contracts/TicTacToe.sol\":5843:5848  board */\n      0x00\n        /* \"contracts/TicTacToe.sol\":5849:5850  0 */\n      0x00\n        /* \"contracts/TicTacToe.sol\":5843:5851  board[0] */\n      0x03\n      dup2\n      lt\n      tag_134\n      jumpi\n      tag_135\n      tag_73\n      jump\t// in\n    tag_135:\n    tag_134:\n      add\n        /* \"contracts/TicTacToe.sol\":5852:5853  i */\n      dup3\n        /* \"contracts/TicTacToe.sol\":5843:5854  board[0][i] */\n      0xff\n      and\n      0x03\n      dup2\n      lt\n      tag_137\n      jumpi\n      tag_138\n      tag_73\n      jump\t// in\n    tag_138:\n    tag_137:\n      0x20\n      swap2\n      dup3\n      dup3\n      div\n      add\n      swap2\n      swap1\n      mod\n      swap1\n      sload\n      swap1\n      0x0100\n      exp\n      swap1\n      div\n      0xff\n      and\n        /* \"contracts/TicTacToe.sol\":5843:5864  board[0][i] == marker */\n      0xff\n      and\n      eq\n        /* \"contracts/TicTacToe.sol\":5843:5889  board[0][i] == marker && board[1][i] == marker */\n      dup1\n      iszero\n      tag_140\n      jumpi\n      pop\n        /* \"contracts/TicTacToe.sol\":5883:5889  marker */\n      dup2\n        /* \"contracts/TicTacToe.sol\":5868:5889  board[1][i] == marker */\n      0xff\n      and\n        /* \"contracts/TicTacToe.sol\":5868:5873  board */\n      0x00\n        /* \"contracts/TicTacToe.sol\":5874:5875  1 */\n      0x01\n        /* \"contracts/TicTacToe.sol\":5868:5876  board[1] */\n      0x03\n      dup2\n      lt\n      tag_141\n      jumpi\n      tag_142\n      tag_73\n      jump\t// in\n    tag_142:\n    tag_141:\n      add\n        /* \"contracts/TicTacToe.sol\":5877:5878  i */\n      dup3\n        /* \"contracts/TicTacToe.sol\":5868:5879  board[1][i] */\n      0xff\n      and\n      0x03\n      dup2\n      lt\n      tag_144\n      jumpi\n      tag_145\n      tag_73\n      jump\t// in\n    tag_145:\n    tag_144:\n      0x20\n      swap2\n      dup3\n      dup3\n      div\n      add\n      swap2\n      swap1\n      mod\n      swap1\n      sload\n      swap1\n      0x0100\n      exp\n      swap1\n      div\n      0xff\n      and\n        /* \"contracts/TicTacToe.sol\":5868:5889  board[1][i] == marker */\n      0xff\n      and\n      eq\n        /* \"contracts/TicTacToe.sol\":5843:5889  board[0][i] == marker && board[1][i] == marker */\n    tag_140:\n        /* \"contracts/TicTacToe.sol\":5843:5914  board[0][i] == marker && board[1][i] == marker && board[2][i] == marker */\n      dup1\n      iszero\n      tag_147\n      jumpi\n      pop\n        /* \"contracts/TicTacToe.sol\":5908:5914  marker */\n      dup2\n        /* \"contracts/TicTacToe.sol\":5893:5914  board[2][i] == marker */\n      0xff\n      and\n        /* \"contracts/TicTacToe.sol\":5893:5898  board */\n      0x00\n        /* \"contracts/TicTacToe.sol\":5899:5900  2 */\n      0x02\n        /* \"contracts/TicTacToe.sol\":5893:5901  board[2] */\n      0x03\n      dup2\n      lt\n      tag_148\n      jumpi\n      tag_149\n      tag_73\n      jump\t// in\n    tag_149:\n    tag_148:\n      add\n        /* \"contracts/TicTacToe.sol\":5902:5903  i */\n      dup3\n        /* \"contracts/TicTacToe.sol\":5893:5904  board[2][i] */\n      0xff\n      and\n      0x03\n      dup2\n      lt\n      tag_151\n      jumpi\n      tag_152\n      tag_73\n      jump\t// in\n    tag_152:\n    tag_151:\n      0x20\n      swap2\n      dup3\n      dup3\n      div\n      add\n      swap2\n      swap1\n      mod\n      swap1\n      sload\n      swap1\n      0x0100\n      exp\n      swap1\n      div\n      0xff\n      and\n        /* \"contracts/TicTacToe.sol\":5893:5914  board[2][i] == marker */\n      0xff\n      and\n      eq\n        /* \"contracts/TicTacToe.sol\":5843:5914  board[0][i] == marker && board[1][i] == marker && board[2][i] == marker */\n    tag_147:\n        /* \"contracts/TicTacToe.sol\":5839:5977  if (board[0][i] == marker && board[1][i] == marker && board[2][i] == marker) {... */\n      iszero\n      tag_154\n      jumpi\n        /* \"contracts/TicTacToe.sol\":5942:5961  endGameWithWinner() */\n      tag_155\n        /* \"contracts/TicTacToe.sol\":5942:5959  endGameWithWinner */\n      tag_133\n        /* \"contracts/TicTacToe.sol\":5942:5961  endGameWithWinner() */\n      jump\t// in\n    tag_155:\n        /* \"contracts/TicTacToe.sol\":5935:5961  return endGameWithWinner() */\n      pop\n      pop\n      jump(tag_105)\n        /* \"contracts/TicTacToe.sol\":5839:5977  if (board[0][i] == marker && board[1][i] == marker && board[2][i] == marker) {... */\n    tag_154:\n        /* \"contracts/TicTacToe.sol\":5667:5670  i++ */\n      dup1\n      dup1\n      0x01\n      add\n      swap2\n      pop\n      pop\n        /* \"contracts/TicTacToe.sol\":5642:5988  for (uint8 i = 0; i < 3; i++) {... */\n      jump(tag_108)\n    tag_109:\n      pop\n        /* \"contracts/TicTacToe.sol\":6017:6023  marker */\n      dup1\n        /* \"contracts/TicTacToe.sol\":6002:6023  board[0][0] == marker */\n      0xff\n      and\n        /* \"contracts/TicTacToe.sol\":6002:6007  board */\n      0x00\n        /* \"contracts/TicTacToe.sol\":6008:6009  0 */\n      0x00\n        /* \"contracts/TicTacToe.sol\":6002:6010  board[0] */\n      0x03\n      dup2\n      lt\n      tag_156\n      jumpi\n      tag_157\n      tag_73\n      jump\t// in\n    tag_157:\n    tag_156:\n      add\n        /* \"contracts/TicTacToe.sol\":6011:6012  0 */\n      0x00\n        /* \"contracts/TicTacToe.sol\":6002:6013  board[0][0] */\n      0x03\n      dup2\n      lt\n      tag_159\n      jumpi\n      tag_160\n      tag_73\n      jump\t// in\n    tag_160:\n    tag_159:\n      0x20\n      swap2\n      dup3\n      dup3\n      div\n      add\n      swap2\n      swap1\n      mod\n      swap1\n      sload\n      swap1\n      0x0100\n      exp\n      swap1\n      div\n      0xff\n      and\n        /* \"contracts/TicTacToe.sol\":6002:6023  board[0][0] == marker */\n      0xff\n      and\n      eq\n        /* \"contracts/TicTacToe.sol\":6002:6048  board[0][0] == marker && board[1][1] == marker */\n      dup1\n      iszero\n      tag_162\n      jumpi\n      pop\n        /* \"contracts/TicTacToe.sol\":6042:6048  marker */\n      dup1\n        /* \"contracts/TicTacToe.sol\":6027:6048  board[1][1] == marker */\n      0xff\n      and\n        /* \"contracts/TicTacToe.sol\":6027:6032  board */\n      0x00\n        /* \"contracts/TicTacToe.sol\":6033:6034  1 */\n      0x01\n        /* \"contracts/TicTacToe.sol\":6027:6035  board[1] */\n      0x03\n      dup2\n      lt\n      tag_163\n      jumpi\n      tag_164\n      tag_73\n      jump\t// in\n    tag_164:\n    tag_163:\n      add\n        /* \"contracts/TicTacToe.sol\":6036:6037  1 */\n      0x01\n        /* \"contracts/TicTacToe.sol\":6027:6038  board[1][1] */\n      0x03\n      dup2\n      lt\n      tag_166\n      jumpi\n      tag_167\n      tag_73\n      jump\t// in\n    tag_167:\n    tag_166:\n      0x20\n      swap2\n      dup3\n      dup3\n      div\n      add\n      swap2\n      swap1\n      mod\n      swap1\n      sload\n      swap1\n      0x0100\n      exp\n      swap1\n      div\n      0xff\n      and\n        /* \"contracts/TicTacToe.sol\":6027:6048  board[1][1] == marker */\n      0xff\n      and\n      eq\n        /* \"contracts/TicTacToe.sol\":6002:6048  board[0][0] == marker && board[1][1] == marker */\n    tag_162:\n        /* \"contracts/TicTacToe.sol\":6002:6073  board[0][0] == marker && board[1][1] == marker && board[2][2] == marker */\n      dup1\n      iszero\n      tag_169\n      jumpi\n      pop\n        /* \"contracts/TicTacToe.sol\":6067:6073  marker */\n      dup1\n        /* \"contracts/TicTacToe.sol\":6052:6073  board[2][2] == marker */\n      0xff\n      and\n        /* \"contracts/TicTacToe.sol\":6052:6057  board */\n      0x00\n        /* \"contracts/TicTacToe.sol\":6058:6059  2 */\n      0x02\n        /* \"contracts/TicTacToe.sol\":6052:6060  board[2] */\n      0x03\n      dup2\n      lt\n      tag_170\n      jumpi\n      tag_171\n      tag_73\n      jump\t// in\n    tag_171:\n    tag_170:\n      add\n        /* \"contracts/TicTacToe.sol\":6061:6062  2 */\n      0x02\n        /* \"contracts/TicTacToe.sol\":6052:6063  board[2][2] */\n      0x03\n      dup2\n      lt\n      tag_173\n      jumpi\n      tag_174\n      tag_73\n      jump\t// in\n    tag_174:\n    tag_173:\n      0x20\n      swap2\n      dup3\n      dup3\n      div\n      add\n      swap2\n      swap1\n      mod\n      swap1\n      sload\n      swap1\n      0x0100\n      exp\n      swap1\n      div\n      0xff\n      and\n        /* \"contracts/TicTacToe.sol\":6052:6073  board[2][2] == marker */\n      0xff\n      and\n      eq\n        /* \"contracts/TicTacToe.sol\":6002:6073  board[0][0] == marker && board[1][1] == marker && board[2][2] == marker */\n    tag_169:\n        /* \"contracts/TicTacToe.sol\":5998:6264  if (board[0][0] == marker && board[1][1] == marker && board[2][2] == marker) {... */\n      iszero\n      tag_176\n      jumpi\n        /* \"contracts/TicTacToe.sol\":6097:6116  endGameWithWinner() */\n      tag_177\n        /* \"contracts/TicTacToe.sol\":6097:6114  endGameWithWinner */\n      tag_133\n        /* \"contracts/TicTacToe.sol\":6097:6116  endGameWithWinner() */\n      jump\t// in\n    tag_177:\n        /* \"contracts/TicTacToe.sol\":6090:6116  return endGameWithWinner() */\n      pop\n      jump(tag_105)\n        /* \"contracts/TicTacToe.sol\":5998:6264  if (board[0][0] == marker && board[1][1] == marker && board[2][2] == marker) {... */\n    tag_176:\n        /* \"contracts/TicTacToe.sol\":6153:6159  marker */\n      dup1\n        /* \"contracts/TicTacToe.sol\":6138:6159  board[0][2] == marker */\n      0xff\n      and\n        /* \"contracts/TicTacToe.sol\":6138:6143  board */\n      0x00\n        /* \"contracts/TicTacToe.sol\":6144:6145  0 */\n      0x00\n        /* \"contracts/TicTacToe.sol\":6138:6146  board[0] */\n      0x03\n      dup2\n      lt\n      tag_179\n      jumpi\n      tag_180\n      tag_73\n      jump\t// in\n    tag_180:\n    tag_179:\n      add\n        /* \"contracts/TicTacToe.sol\":6147:6148  2 */\n      0x02\n        /* \"contracts/TicTacToe.sol\":6138:6149  board[0][2] */\n      0x03\n      dup2\n      lt\n      tag_182\n      jumpi\n      tag_183\n      tag_73\n      jump\t// in\n    tag_183:\n    tag_182:\n      0x20\n      swap2\n      dup3\n      dup3\n      div\n      add\n      swap2\n      swap1\n      mod\n      swap1\n      sload\n      swap1\n      0x0100\n      exp\n      swap1\n      div\n      0xff\n      and\n        /* \"contracts/TicTacToe.sol\":6138:6159  board[0][2] == marker */\n      0xff\n      and\n      eq\n        /* \"contracts/TicTacToe.sol\":6138:6184  board[0][2] == marker && board[1][1] == marker */\n      dup1\n      iszero\n      tag_185\n      jumpi\n      pop\n        /* \"contracts/TicTacToe.sol\":6178:6184  marker */\n      dup1\n        /* \"contracts/TicTacToe.sol\":6163:6184  board[1][1] == marker */\n      0xff\n      and\n        /* \"contracts/TicTacToe.sol\":6163:6168  board */\n      0x00\n        /* \"contracts/TicTacToe.sol\":6169:6170  1 */\n      0x01\n        /* \"contracts/TicTacToe.sol\":6163:6171  board[1] */\n      0x03\n      dup2\n      lt\n      tag_186\n      jumpi\n      tag_187\n      tag_73\n      jump\t// in\n    tag_187:\n    tag_186:\n      add\n        /* \"contracts/TicTacToe.sol\":6172:6173  1 */\n      0x01\n        /* \"contracts/TicTacToe.sol\":6163:6174  board[1][1] */\n      0x03\n      dup2\n      lt\n      tag_189\n      jumpi\n      tag_190\n      tag_73\n      jump\t// in\n    tag_190:\n    tag_189:\n      0x20\n      swap2\n      dup3\n      dup3\n      div\n      add\n      swap2\n      swap1\n      mod\n      swap1\n      sload\n      swap1\n      0x0100\n      exp\n      swap1\n      div\n      0xff\n      and\n        /* \"contracts/TicTacToe.sol\":6163:6184  board[1][1] == marker */\n      0xff\n      and\n      eq\n        /* \"contracts/TicTacToe.sol\":6138:6184  board[0][2] == marker && board[1][1] == marker */\n    tag_185:\n        /* \"contracts/TicTacToe.sol\":6138:6209  board[0][2] == marker && board[1][1] == marker && board[2][0] == marker */\n      dup1\n      iszero\n      tag_192\n      jumpi\n      pop\n        /* \"contracts/TicTacToe.sol\":6203:6209  marker */\n      dup1\n        /* \"contracts/TicTacToe.sol\":6188:6209  board[2][0] == marker */\n      0xff\n      and\n        /* \"contracts/TicTacToe.sol\":6188:6193  board */\n      0x00\n        /* \"contracts/TicTacToe.sol\":6194:6195  2 */\n      0x02\n        /* \"contracts/TicTacToe.sol\":6188:6196  board[2] */\n      0x03\n      dup2\n      lt\n      tag_193\n      jumpi\n      tag_194\n      tag_73\n      jump\t// in\n    tag_194:\n    tag_193:\n      add\n        /* \"contracts/TicTacToe.sol\":6197:6198  0 */\n      0x00\n        /* \"contracts/TicTacToe.sol\":6188:6199  board[2][0] */\n      0x03\n      dup2\n      lt\n      tag_196\n      jumpi\n      tag_197\n      tag_73\n      jump\t// in\n    tag_197:\n    tag_196:\n      0x20\n      swap2\n      dup3\n      dup3\n      div\n      add\n      swap2\n      swap1\n      mod\n      swap1\n      sload\n      swap1\n      0x0100\n      exp\n      swap1\n      div\n      0xff\n      and\n        /* \"contracts/TicTacToe.sol\":6188:6209  board[2][0] == marker */\n      0xff\n      and\n      eq\n        /* \"contracts/TicTacToe.sol\":6138:6209  board[0][2] == marker && board[1][1] == marker && board[2][0] == marker */\n    tag_192:\n        /* \"contracts/TicTacToe.sol\":6134:6264  if (board[0][2] == marker && board[1][1] == marker && board[2][0] == marker) {... */\n      iszero\n      tag_199\n      jumpi\n        /* \"contracts/TicTacToe.sol\":6233:6252  endGameWithWinner() */\n      tag_200\n        /* \"contracts/TicTacToe.sol\":6233:6250  endGameWithWinner */\n      tag_133\n        /* \"contracts/TicTacToe.sol\":6233:6252  endGameWithWinner() */\n      jump\t// in\n    tag_200:\n        /* \"contracts/TicTacToe.sol\":6226:6252  return endGameWithWinner() */\n      pop\n      jump(tag_105)\n        /* \"contracts/TicTacToe.sol\":6134:6264  if (board[0][2] == marker && board[1][1] == marker && board[2][0] == marker) {... */\n    tag_199:\n        /* \"contracts/TicTacToe.sol\":6346:6363  uint8 filledCells */\n      0x00\n        /* \"contracts/TicTacToe.sol\":6366:6367  0 */\n      0x00\n        /* \"contracts/TicTacToe.sol\":6346:6367  uint8 filledCells = 0 */\n      swap1\n      pop\n        /* \"contracts/TicTacToe.sol\":6383:6389  uint i */\n      0x00\n        /* \"contracts/TicTacToe.sol\":6392:6393  0 */\n      0x00\n        /* \"contracts/TicTacToe.sol\":6383:6393  uint i = 0 */\n      swap1\n      pop\n        /* \"contracts/TicTacToe.sol\":6378:6533  for (uint i = 0; i < 3; i++) {... */\n    tag_201:\n        /* \"contracts/TicTacToe.sol\":6399:6400  3 */\n      0x03\n        /* \"contracts/TicTacToe.sol\":6395:6396  i */\n      dup2\n        /* \"contracts/TicTacToe.sol\":6395:6400  i < 3 */\n      lt\n        /* \"contracts/TicTacToe.sol\":6378:6533  for (uint i = 0; i < 3; i++) {... */\n      iszero\n      tag_202\n      jumpi\n        /* \"contracts/TicTacToe.sol\":6427:6434  uint8 j */\n      0x00\n        /* \"contracts/TicTacToe.sol\":6437:6438  0 */\n      0x00\n        /* \"contracts/TicTacToe.sol\":6427:6438  uint8 j = 0 */\n      swap1\n      pop\n        /* \"contracts/TicTacToe.sol\":6422:6522  for (uint8 j = 0; j < 3; j++) {... */\n    tag_204:\n        /* \"contracts/TicTacToe.sol\":6444:6445  3 */\n      0x03\n        /* \"contracts/TicTacToe.sol\":6440:6441  j */\n      dup2\n        /* \"contracts/TicTacToe.sol\":6440:6445  j < 3 */\n      0xff\n      and\n      lt\n        /* \"contracts/TicTacToe.sol\":6422:6522  for (uint8 j = 0; j < 3; j++) {... */\n      iszero\n      tag_205\n      jumpi\n        /* \"contracts/TicTacToe.sol\":6490:6491  0 */\n      0x00\n        /* \"contracts/TicTacToe.sol\":6475:6480  board */\n      0x00\n        /* \"contracts/TicTacToe.sol\":6481:6482  i */\n      dup4\n        /* \"contracts/TicTacToe.sol\":6475:6483  board[i] */\n      0x03\n      dup2\n      lt\n      tag_207\n      jumpi\n      tag_208\n      tag_73\n      jump\t// in\n    tag_208:\n    tag_207:\n      add\n        /* \"contracts/TicTacToe.sol\":6484:6485  j */\n      dup3\n        /* \"contracts/TicTacToe.sol\":6475:6486  board[i][j] */\n      0xff\n      and\n      0x03\n      dup2\n      lt\n      tag_210\n      jumpi\n      tag_211\n      tag_73\n      jump\t// in\n    tag_211:\n    tag_210:\n      0x20\n      swap2\n      dup3\n      dup3\n      div\n      add\n      swap2\n      swap1\n      mod\n      swap1\n      sload\n      swap1\n      0x0100\n      exp\n      swap1\n      div\n      0xff\n      and\n        /* \"contracts/TicTacToe.sol\":6475:6491  board[i][j] != 0 */\n      0xff\n      and\n      eq\n        /* \"contracts/TicTacToe.sol\":6471:6506  if (board[i][j] != 0) filledCells++ */\n      tag_213\n      jumpi\n        /* \"contracts/TicTacToe.sol\":6493:6506  filledCells++ */\n      dup3\n      dup1\n      tag_214\n      swap1\n      tag_215\n      jump\t// in\n    tag_214:\n      swap4\n      pop\n      pop\n        /* \"contracts/TicTacToe.sol\":6471:6506  if (board[i][j] != 0) filledCells++ */\n    tag_213:\n        /* \"contracts/TicTacToe.sol\":6447:6450  j++ */\n      dup1\n      dup1\n      0x01\n      add\n      swap2\n      pop\n      pop\n        /* \"contracts/TicTacToe.sol\":6422:6522  for (uint8 j = 0; j < 3; j++) {... */\n      jump(tag_204)\n    tag_205:\n      pop\n        /* \"contracts/TicTacToe.sol\":6402:6405  i++ */\n      dup1\n      dup1\n      0x01\n      add\n      swap2\n      pop\n      pop\n        /* \"contracts/TicTacToe.sol\":6378:6533  for (uint i = 0; i < 3; i++) {... */\n      jump(tag_201)\n    tag_202:\n      pop\n        /* \"contracts/TicTacToe.sol\":6612:6613  9 */\n      0x09\n        /* \"contracts/TicTacToe.sol\":6597:6608  filledCells */\n      dup2\n        /* \"contracts/TicTacToe.sol\":6597:6613  filledCells == 9 */\n      0xff\n      and\n      sub\n        /* \"contracts/TicTacToe.sol\":6593:6730  if (filledCells == 9) {... */\n      tag_216\n      jumpi\n        /* \"contracts/TicTacToe.sol\":6643:6647  true */\n      0x01\n        /* \"contracts/TicTacToe.sol\":6630:6640  isGameOver */\n      0x05\n      0x14\n        /* \"contracts/TicTacToe.sol\":6630:6647  isGameOver = true */\n      0x0100\n      exp\n      dup2\n      sload\n      dup2\n      0xff\n      mul\n      not\n      and\n      swap1\n      dup4\n      iszero\n      iszero\n      mul\n      or\n      swap1\n      sstore\n      pop\n        /* \"contracts/TicTacToe.sol\":6679:6680  0 */\n      0x00\n        /* \"contracts/TicTacToe.sol\":6662:6668  winner */\n      0x06\n      0x00\n        /* \"contracts/TicTacToe.sol\":6662:6681  winner = address(0) */\n      0x0100\n      exp\n      dup2\n      sload\n      dup2\n      0xffffffffffffffffffffffffffffffffffffffff\n      mul\n      not\n      and\n      swap1\n      dup4\n      0xffffffffffffffffffffffffffffffffffffffff\n      and\n      mul\n      or\n      swap1\n      sstore\n      pop\n        /* \"contracts/TicTacToe.sol\":6711:6717  winner */\n      0x06\n      0x00\n      swap1\n      sload\n      swap1\n      0x0100\n      exp\n      swap1\n      div\n      0xffffffffffffffffffffffffffffffffffffffff\n      and\n        /* \"contracts/TicTacToe.sol\":6701:6718  GameEnded(winner) */\n      0xffffffffffffffffffffffffffffffffffffffff\n      and\n      0x51b77d00d3c0b7e376e9ee146711ceb2c08e58a5dbe38055a618e52109f720c1\n      mload(0x40)\n      mload(0x40)\n      dup1\n      swap2\n      sub\n      swap1\n      log2\n        /* \"contracts/TicTacToe.sol\":6593:6730  if (filledCells == 9) {... */\n    tag_216:\n        /* \"contracts/TicTacToe.sol\":5359:6737  {... */\n      pop\n      pop\n        /* \"contracts/TicTacToe.sol\":5331:6737  function checkWin() private {... */\n    tag_105:\n      jump\t// out\n        /* \"contracts/TicTacToe.sol\":5062:5179  function switchTurn() private { ... */\n    tag_99:\n        /* \"contracts/TicTacToe.sol\":5118:5125  playerX */\n      0x03\n      0x00\n      swap1\n      sload\n      swap1\n      0x0100\n      exp\n      swap1\n      div\n      0xffffffffffffffffffffffffffffffffffffffff\n      and\n        /* \"contracts/TicTacToe.sol\":5104:5125  nextPlayer == playerX */\n      0xffffffffffffffffffffffffffffffffffffffff\n      and\n        /* \"contracts/TicTacToe.sol\":5104:5114  nextPlayer */\n      0x05\n      0x00\n      swap1\n      sload\n      swap1\n      0x0100\n      exp\n      swap1\n      div\n      0xffffffffffffffffffffffffffffffffffffffff\n      and\n        /* \"contracts/TicTacToe.sol\":5104:5125  nextPlayer == playerX */\n      0xffffffffffffffffffffffffffffffffffffffff\n      and\n      eq\n        /* \"contracts/TicTacToe.sol\":5104:5171  nextPlayer == playerX ? nextPlayer = playerO : nextPlayer = playerX */\n      tag_218\n      jumpi\n        /* \"contracts/TicTacToe.sol\":5164:5171  playerX */\n      0x03\n      0x00\n      swap1\n      sload\n      swap1\n      0x0100\n      exp\n      swap1\n      div\n      0xffffffffffffffffffffffffffffffffffffffff\n      and\n        /* \"contracts/TicTacToe.sol\":5151:5161  nextPlayer */\n      0x05\n      0x00\n        /* \"contracts/TicTacToe.sol\":5151:5171  nextPlayer = playerX */\n      0x0100\n      exp\n      dup2\n      sload\n      dup2\n      0xffffffffffffffffffffffffffffffffffffffff\n      mul\n      not\n      and\n      swap1\n      dup4\n      0xffffffffffffffffffffffffffffffffffffffff\n      and\n      mul\n      or\n      swap1\n      sstore\n        /* \"contracts/TicTacToe.sol\":5104:5171  nextPlayer == playerX ? nextPlayer = playerO : nextPlayer = playerX */\n      jump(tag_219)\n    tag_218:\n        /* \"contracts/TicTacToe.sol\":5141:5148  playerO */\n      0x04\n      0x00\n      swap1\n      sload\n      swap1\n      0x0100\n      exp\n      swap1\n      div\n      0xffffffffffffffffffffffffffffffffffffffff\n      and\n        /* \"contracts/TicTacToe.sol\":5128:5138  nextPlayer */\n      0x05\n      0x00\n        /* \"contracts/TicTacToe.sol\":5128:5148  nextPlayer = playerO */\n      0x0100\n      exp\n      dup2\n      sload\n      dup2\n      0xffffffffffffffffffffffffffffffffffffffff\n      mul\n      not\n      and\n      swap1\n      dup4\n      0xffffffffffffffffffffffffffffffffffffffff\n      and\n      mul\n      or\n      swap1\n      sstore\n        /* \"contracts/TicTacToe.sol\":5104:5171  nextPlayer == playerX ? nextPlayer = playerO : nextPlayer = playerX */\n    tag_219:\n      pop\n        /* \"contracts/TicTacToe.sol\":5062:5179  function switchTurn() private { ... */\n      jump\t// out\n        /* \"contracts/TicTacToe.sol\":5187:5323  function endGameWithWinner() private {... */\n    tag_133:\n        /* \"contracts/TicTacToe.sol\":5248:5252  true */\n      0x01\n        /* \"contracts/TicTacToe.sol\":5235:5245  isGameOver */\n      0x05\n      0x14\n        /* \"contracts/TicTacToe.sol\":5235:5252  isGameOver = true */\n      0x0100\n      exp\n      dup2\n      sload\n      dup2\n      0xff\n      mul\n      not\n      and\n      swap1\n      dup4\n      iszero\n      iszero\n      mul\n      or\n      swap1\n      sstore\n      pop\n        /* \"contracts/TicTacToe.sol\":5272:5282  msg.sender */\n      caller\n        /* \"contracts/TicTacToe.sol\":5263:5269  winner */\n      0x06\n      0x00\n        /* \"contracts/TicTacToe.sol\":5263:5282  winner = msg.sender */\n      0x0100\n      exp\n      dup2\n      sload\n      dup2\n      0xffffffffffffffffffffffffffffffffffffffff\n      mul\n      not\n      and\n      swap1\n      dup4\n      0xffffffffffffffffffffffffffffffffffffffff\n      and\n      mul\n      or\n      swap1\n      sstore\n      pop\n        /* \"contracts/TicTacToe.sol\":5308:5314  winner */\n      0x06\n      0x00\n      swap1\n      sload\n      swap1\n      0x0100\n      exp\n      swap1\n      div\n      0xffffffffffffffffffffffffffffffffffffffff\n      and\n        /* \"contracts/TicTacToe.sol\":5298:5315  GameEnded(winner) */\n      0xffffffffffffffffffffffffffffffffffffffff\n      and\n      0x51b77d00d3c0b7e376e9ee146711ceb2c08e58a5dbe38055a618e52109f720c1\n      mload(0x40)\n      mload(0x40)\n      dup1\n      swap2\n      sub\n      swap1\n      log2\n        /* \"contracts/TicTacToe.sol\":5187:5323  function endGameWithWinner() private {... */\n      jump\t// out\n    tag_46:\n      mload(0x40)\n      dup1\n      0x60\n      add\n      0x40\n      mstore\n      dup1\n      0x03\n      swap1\n    tag_221:\n      tag_222\n      tag_223\n      jump\t// in\n    tag_222:\n      dup2\n      mstore\n      0x20\n      add\n      swap1\n      0x01\n      swap1\n      sub\n      swap1\n      dup2\n      tag_221\n      jumpi\n      swap1\n      pop\n      pop\n      swap1\n      jump\t// out\n    tag_223:\n      mload(0x40)\n      dup1\n      0x60\n      add\n      0x40\n      mstore\n      dup1\n      0x03\n      swap1\n      0x20\n      dup3\n      mul\n      dup1\n      calldatasize\n      dup4\n      calldatacopy\n      dup1\n      dup3\n      add\n      swap2\n      pop\n      pop\n      swap1\n      pop\n      pop\n      swap1\n      jump\t// out\n        /* \"#utility.yul\":7:133   */\n    tag_224:\n        /* \"#utility.yul\":44:51   */\n      0x00\n        /* \"#utility.yul\":84:126   */\n      0xffffffffffffffffffffffffffffffffffffffff\n        /* \"#utility.yul\":77:82   */\n      dup3\n        /* \"#utility.yul\":73:127   */\n      and\n        /* \"#utility.yul\":62:127   */\n      swap1\n      pop\n        /* \"#utility.yul\":7:133   */\n      swap2\n      swap1\n      pop\n      jump\t// out\n        /* \"#utility.yul\":139:235   */\n    tag_225:\n        /* \"#utility.yul\":176:183   */\n      0x00\n        /* \"#utility.yul\":205:229   */\n      tag_272\n        /* \"#utility.yul\":223:228   */\n      dup3\n        /* \"#utility.yul\":205:229   */\n      tag_224\n      jump\t// in\n    tag_272:\n        /* \"#utility.yul\":194:229   */\n      swap1\n      pop\n        /* \"#utility.yul\":139:235   */\n      swap2\n      swap1\n      pop\n      jump\t// out\n        /* \"#utility.yul\":241:359   */\n    tag_226:\n        /* \"#utility.yul\":328:352   */\n      tag_274\n        /* \"#utility.yul\":346:351   */\n      dup2\n        /* \"#utility.yul\":328:352   */\n      tag_225\n      jump\t// in\n    tag_274:\n        /* \"#utility.yul\":323:326   */\n      dup3\n        /* \"#utility.yul\":316:353   */\n      mstore\n        /* \"#utility.yul\":241:359   */\n      pop\n      pop\n      jump\t// out\n        /* \"#utility.yul\":365:587   */\n    tag_15:\n        /* \"#utility.yul\":458:462   */\n      0x00\n        /* \"#utility.yul\":496:498   */\n      0x20\n        /* \"#utility.yul\":485:494   */\n      dup3\n        /* \"#utility.yul\":481:499   */\n      add\n        /* \"#utility.yul\":473:499   */\n      swap1\n      pop\n        /* \"#utility.yul\":509:580   */\n      tag_276\n        /* \"#utility.yul\":577:578   */\n      0x00\n        /* \"#utility.yul\":566:575   */\n      dup4\n        /* \"#utility.yul\":562:579   */\n      add\n        /* \"#utility.yul\":553:559   */\n      dup5\n        /* \"#utility.yul\":509:580   */\n      tag_226\n      jump\t// in\n    tag_276:\n        /* \"#utility.yul\":365:587   */\n      swap3\n      swap2\n      pop\n      pop\n      jump\t// out\n        /* \"#utility.yul\":593:683   */\n    tag_227:\n        /* \"#utility.yul\":627:634   */\n      0x00\n        /* \"#utility.yul\":670:675   */\n      dup2\n        /* \"#utility.yul\":663:676   */\n      iszero\n        /* \"#utility.yul\":656:677   */\n      iszero\n        /* \"#utility.yul\":645:677   */\n      swap1\n      pop\n        /* \"#utility.yul\":593:683   */\n      swap2\n      swap1\n      pop\n      jump\t// out\n        /* \"#utility.yul\":689:798   */\n    tag_228:\n        /* \"#utility.yul\":770:791   */\n      tag_279\n        /* \"#utility.yul\":785:790   */\n      dup2\n        /* \"#utility.yul\":770:791   */\n      tag_227\n      jump\t// in\n    tag_279:\n        /* \"#utility.yul\":765:768   */\n      dup3\n        /* \"#utility.yul\":758:792   */\n      mstore\n        /* \"#utility.yul\":689:798   */\n      pop\n      pop\n      jump\t// out\n        /* \"#utility.yul\":804:1014   */\n    tag_19:\n        /* \"#utility.yul\":891:895   */\n      0x00\n        /* \"#utility.yul\":929:931   */\n      0x20\n        /* \"#utility.yul\":918:927   */\n      dup3\n        /* \"#utility.yul\":914:932   */\n      add\n        /* \"#utility.yul\":906:932   */\n      swap1\n      pop\n        /* \"#utility.yul\":942:1007   */\n      tag_281\n        /* \"#utility.yul\":1004:1005   */\n      0x00\n        /* \"#utility.yul\":993:1002   */\n      dup4\n        /* \"#utility.yul\":989:1006   */\n      add\n        /* \"#utility.yul\":980:986   */\n      dup5\n        /* \"#utility.yul\":942:1007   */\n      tag_228\n      jump\t// in\n    tag_281:\n        /* \"#utility.yul\":804:1014   */\n      swap3\n      swap2\n      pop\n      pop\n      jump\t// out\n        /* \"#utility.yul\":1020:1145   */\n    tag_229:\n        /* \"#utility.yul\":1106:1112   */\n      0x00\n        /* \"#utility.yul\":1134:1138   */\n      0x03\n        /* \"#utility.yul\":1124:1138   */\n      swap1\n      pop\n        /* \"#utility.yul\":1020:1145   */\n      swap2\n      swap1\n      pop\n      jump\t// out\n        /* \"#utility.yul\":1151:1315   */\n    tag_230:\n        /* \"#utility.yul\":1269:1280   */\n      0x00\n        /* \"#utility.yul\":1306:1309   */\n      dup2\n        /* \"#utility.yul\":1291:1309   */\n      swap1\n      pop\n        /* \"#utility.yul\":1151:1315   */\n      swap3\n      swap2\n      pop\n      pop\n      jump\t// out\n        /* \"#utility.yul\":1321:1440   */\n    tag_231:\n        /* \"#utility.yul\":1407:1411   */\n      0x00\n        /* \"#utility.yul\":1430:1433   */\n      dup2\n        /* \"#utility.yul\":1422:1433   */\n      swap1\n      pop\n        /* \"#utility.yul\":1321:1440   */\n      swap2\n      swap1\n      pop\n      jump\t// out\n        /* \"#utility.yul\":1446:1548   */\n    tag_232:\n        /* \"#utility.yul\":1509:1515   */\n      0x00\n        /* \"#utility.yul\":1537:1541   */\n      0x03\n        /* \"#utility.yul\":1527:1541   */\n      swap1\n      pop\n        /* \"#utility.yul\":1446:1548   */\n      swap2\n      swap1\n      pop\n      jump\t// out\n        /* \"#utility.yul\":1554:1685   */\n    tag_233:\n        /* \"#utility.yul\":1639:1650   */\n      0x00\n        /* \"#utility.yul\":1676:1679   */\n      dup2\n        /* \"#utility.yul\":1661:1679   */\n      swap1\n      pop\n        /* \"#utility.yul\":1554:1685   */\n      swap3\n      swap2\n      pop\n      pop\n      jump\t// out\n        /* \"#utility.yul\":1691:1787   */\n    tag_234:\n        /* \"#utility.yul\":1754:1758   */\n      0x00\n        /* \"#utility.yul\":1777:1780   */\n      dup2\n        /* \"#utility.yul\":1769:1780   */\n      swap1\n      pop\n        /* \"#utility.yul\":1691:1787   */\n      swap2\n      swap1\n      pop\n      jump\t// out\n        /* \"#utility.yul\":1793:1879   */\n    tag_235:\n        /* \"#utility.yul\":1828:1835   */\n      0x00\n        /* \"#utility.yul\":1868:1872   */\n      0xff\n        /* \"#utility.yul\":1861:1866   */\n      dup3\n        /* \"#utility.yul\":1857:1873   */\n      and\n        /* \"#utility.yul\":1846:1873   */\n      swap1\n      pop\n        /* \"#utility.yul\":1793:1879   */\n      swap2\n      swap1\n      pop\n      jump\t// out\n        /* \"#utility.yul\":1885:1987   */\n    tag_236:\n        /* \"#utility.yul\":1958:1980   */\n      tag_290\n        /* \"#utility.yul\":1974:1979   */\n      dup2\n        /* \"#utility.yul\":1958:1980   */\n      tag_235\n      jump\t// in\n    tag_290:\n        /* \"#utility.yul\":1953:1956   */\n      dup3\n        /* \"#utility.yul\":1946:1981   */\n      mstore\n        /* \"#utility.yul\":1885:1987   */\n      pop\n      pop\n      jump\t// out\n        /* \"#utility.yul\":1993:2164   */\n    tag_237:\n        /* \"#utility.yul\":2058:2068   */\n      0x00\n        /* \"#utility.yul\":2079:2121   */\n      tag_292\n        /* \"#utility.yul\":2117:2120   */\n      dup4\n        /* \"#utility.yul\":2109:2115   */\n      dup4\n        /* \"#utility.yul\":2079:2121   */\n      tag_236\n      jump\t// in\n    tag_292:\n        /* \"#utility.yul\":2153:2157   */\n      0x20\n        /* \"#utility.yul\":2148:2151   */\n      dup4\n        /* \"#utility.yul\":2144:2158   */\n      add\n        /* \"#utility.yul\":2130:2158   */\n      swap1\n      pop\n        /* \"#utility.yul\":1993:2164   */\n      swap3\n      swap2\n      pop\n      pop\n      jump\t// out\n        /* \"#utility.yul\":2170:2279   */\n    tag_238:\n        /* \"#utility.yul\":2236:2240   */\n      0x00\n        /* \"#utility.yul\":2268:2272   */\n      0x20\n        /* \"#utility.yul\":2263:2266   */\n      dup3\n        /* \"#utility.yul\":2259:2273   */\n      add\n        /* \"#utility.yul\":2251:2273   */\n      swap1\n      pop\n        /* \"#utility.yul\":2170:2279   */\n      swap2\n      swap1\n      pop\n      jump\t// out\n        /* \"#utility.yul\":2313:2971   */\n    tag_239:\n        /* \"#utility.yul\":2435:2485   */\n      tag_295\n        /* \"#utility.yul\":2479:2484   */\n      dup2\n        /* \"#utility.yul\":2435:2485   */\n      tag_232\n      jump\t// in\n    tag_295:\n        /* \"#utility.yul\":2501:2573   */\n      tag_296\n        /* \"#utility.yul\":2566:2572   */\n      dup2\n        /* \"#utility.yul\":2561:2564   */\n      dup5\n        /* \"#utility.yul\":2501:2573   */\n      tag_233\n      jump\t// in\n    tag_296:\n        /* \"#utility.yul\":2494:2573   */\n      swap3\n      pop\n        /* \"#utility.yul\":2597:2649   */\n      tag_297\n        /* \"#utility.yul\":2643:2648   */\n      dup3\n        /* \"#utility.yul\":2597:2649   */\n      tag_234\n      jump\t// in\n    tag_297:\n        /* \"#utility.yul\":2672:2679   */\n      dup1\n        /* \"#utility.yul\":2703:2704   */\n      0x00\n        /* \"#utility.yul\":2688:2964   */\n    tag_298:\n        /* \"#utility.yul\":2713:2719   */\n      dup4\n        /* \"#utility.yul\":2710:2711   */\n      dup2\n        /* \"#utility.yul\":2707:2720   */\n      lt\n        /* \"#utility.yul\":2688:2964   */\n      iszero\n      tag_300\n      jumpi\n        /* \"#utility.yul\":2789:2795   */\n      dup2\n        /* \"#utility.yul\":2783:2796   */\n      mload\n        /* \"#utility.yul\":2816:2875   */\n      tag_301\n        /* \"#utility.yul\":2871:2874   */\n      dup8\n        /* \"#utility.yul\":2856:2869   */\n      dup3\n        /* \"#utility.yul\":2816:2875   */\n      tag_237\n      jump\t// in\n    tag_301:\n        /* \"#utility.yul\":2809:2875   */\n      swap7\n      pop\n        /* \"#utility.yul\":2898:2954   */\n      tag_302\n        /* \"#utility.yul\":2947:2953   */\n      dup4\n        /* \"#utility.yul\":2898:2954   */\n      tag_238\n      jump\t// in\n    tag_302:\n        /* \"#utility.yul\":2888:2954   */\n      swap3\n      pop\n        /* \"#utility.yul\":2748:2964   */\n      pop\n        /* \"#utility.yul\":2735:2736   */\n      0x01\n        /* \"#utility.yul\":2732:2733   */\n      dup2\n        /* \"#utility.yul\":2728:2737   */\n      add\n        /* \"#utility.yul\":2723:2737   */\n      swap1\n      pop\n        /* \"#utility.yul\":2688:2964   */\n      jump(tag_298)\n    tag_300:\n        /* \"#utility.yul\":2692:2706   */\n      pop\n        /* \"#utility.yul\":2411:2971   */\n      pop\n      pop\n      pop\n        /* \"#utility.yul\":2313:2971   */\n      pop\n      pop\n      jump\t// out\n        /* \"#utility.yul\":2977:3240   */\n    tag_240:\n        /* \"#utility.yul\":3088:3098   */\n      0x00\n        /* \"#utility.yul\":3109:3197   */\n      tag_304\n        /* \"#utility.yul\":3193:3196   */\n      dup4\n        /* \"#utility.yul\":3185:3191   */\n      dup4\n        /* \"#utility.yul\":3109:3197   */\n      tag_239\n      jump\t// in\n    tag_304:\n        /* \"#utility.yul\":3229:3233   */\n      0x60\n        /* \"#utility.yul\":3224:3227   */\n      dup4\n        /* \"#utility.yul\":3220:3234   */\n      add\n        /* \"#utility.yul\":3206:3234   */\n      swap1\n      pop\n        /* \"#utility.yul\":2977:3240   */\n      swap3\n      swap2\n      pop\n      pop\n      jump\t// out\n        /* \"#utility.yul\":3246:3378   */\n    tag_241:\n        /* \"#utility.yul\":3335:3339   */\n      0x00\n        /* \"#utility.yul\":3367:3371   */\n      0x20\n        /* \"#utility.yul\":3362:3365   */\n      dup3\n        /* \"#utility.yul\":3358:3372   */\n      add\n        /* \"#utility.yul\":3350:3372   */\n      swap1\n      pop\n        /* \"#utility.yul\":3246:3378   */\n      swap2\n      swap1\n      pop\n      jump\t// out\n        /* \"#utility.yul\":3418:4280   */\n    tag_242:\n        /* \"#utility.yul\":3596:3669   */\n      tag_307\n        /* \"#utility.yul\":3663:3668   */\n      dup2\n        /* \"#utility.yul\":3596:3669   */\n      tag_229\n      jump\t// in\n    tag_307:\n        /* \"#utility.yul\":3685:3790   */\n      tag_308\n        /* \"#utility.yul\":3783:3789   */\n      dup2\n        /* \"#utility.yul\":3778:3781   */\n      dup5\n        /* \"#utility.yul\":3685:3790   */\n      tag_230\n      jump\t// in\n    tag_308:\n        /* \"#utility.yul\":3678:3790   */\n      swap3\n      pop\n        /* \"#utility.yul\":3814:3889   */\n      tag_309\n        /* \"#utility.yul\":3883:3888   */\n      dup3\n        /* \"#utility.yul\":3814:3889   */\n      tag_231\n      jump\t// in\n    tag_309:\n        /* \"#utility.yul\":3912:3919   */\n      dup1\n        /* \"#utility.yul\":3943:3944   */\n      0x00\n        /* \"#utility.yul\":3928:4273   */\n    tag_310:\n        /* \"#utility.yul\":3953:3959   */\n      dup4\n        /* \"#utility.yul\":3950:3951   */\n      dup2\n        /* \"#utility.yul\":3947:3960   */\n      lt\n        /* \"#utility.yul\":3928:4273   */\n      iszero\n      tag_312\n      jumpi\n        /* \"#utility.yul\":4029:4035   */\n      dup2\n        /* \"#utility.yul\":4023:4036   */\n      mload\n        /* \"#utility.yul\":4056:4161   */\n      tag_313\n        /* \"#utility.yul\":4157:4160   */\n      dup8\n        /* \"#utility.yul\":4142:4155   */\n      dup3\n        /* \"#utility.yul\":4056:4161   */\n      tag_240\n      jump\t// in\n    tag_313:\n        /* \"#utility.yul\":4049:4161   */\n      swap7\n      pop\n        /* \"#utility.yul\":4184:4263   */\n      tag_314\n        /* \"#utility.yul\":4256:4262   */\n      dup4\n        /* \"#utility.yul\":4184:4263   */\n      tag_241\n      jump\t// in\n    tag_314:\n        /* \"#utility.yul\":4174:4263   */\n      swap3\n      pop\n        /* \"#utility.yul\":3988:4273   */\n      pop\n        /* \"#utility.yul\":3975:3976   */\n      0x01\n        /* \"#utility.yul\":3972:3973   */\n      dup2\n        /* \"#utility.yul\":3968:3977   */\n      add\n        /* \"#utility.yul\":3963:3977   */\n      swap1\n      pop\n        /* \"#utility.yul\":3928:4273   */\n      jump(tag_310)\n    tag_312:\n        /* \"#utility.yul\":3932:3946   */\n      pop\n        /* \"#utility.yul\":3572:4280   */\n      pop\n      pop\n      pop\n        /* \"#utility.yul\":3418:4280   */\n      pop\n      pop\n      jump\t// out\n        /* \"#utility.yul\":4286:4685   */\n    tag_23:\n        /* \"#utility.yul\":4467:4471   */\n      0x00\n        /* \"#utility.yul\":4505:4508   */\n      0x0120\n        /* \"#utility.yul\":4494:4503   */\n      dup3\n        /* \"#utility.yul\":4490:4509   */\n      add\n        /* \"#utility.yul\":4482:4509   */\n      swap1\n      pop\n        /* \"#utility.yul\":4519:4678   */\n      tag_316\n        /* \"#utility.yul\":4675:4676   */\n      0x00\n        /* \"#utility.yul\":4664:4673   */\n      dup4\n        /* \"#utility.yul\":4660:4677   */\n      add\n        /* \"#utility.yul\":4651:4657   */\n      dup5\n        /* \"#utility.yul\":4519:4678   */\n      tag_242\n      jump\t// in\n    tag_316:\n        /* \"#utility.yul\":4286:4685   */\n      swap3\n      swap2\n      pop\n      pop\n      jump\t// out\n        /* \"#utility.yul\":4772:4889   */\n    tag_244:\n        /* \"#utility.yul\":4881:4882   */\n      0x00\n        /* \"#utility.yul\":4878:4879   */\n      0x00\n        /* \"#utility.yul\":4871:4883   */\n      revert\n        /* \"#utility.yul\":5018:5122   */\n    tag_246:\n        /* \"#utility.yul\":5063:5070   */\n      0x00\n        /* \"#utility.yul\":5092:5116   */\n      tag_321\n        /* \"#utility.yul\":5110:5115   */\n      dup3\n        /* \"#utility.yul\":5092:5116   */\n      tag_224\n      jump\t// in\n    tag_321:\n        /* \"#utility.yul\":5081:5116   */\n      swap1\n      pop\n        /* \"#utility.yul\":5018:5122   */\n      swap2\n      swap1\n      pop\n      jump\t// out\n        /* \"#utility.yul\":5128:5266   */\n    tag_247:\n        /* \"#utility.yul\":5209:5241   */\n      tag_323\n        /* \"#utility.yul\":5235:5240   */\n      dup2\n        /* \"#utility.yul\":5209:5241   */\n      tag_246\n      jump\t// in\n    tag_323:\n        /* \"#utility.yul\":5202:5207   */\n      dup2\n        /* \"#utility.yul\":5199:5242   */\n      eq\n        /* \"#utility.yul\":5189:5260   */\n      tag_324\n      jumpi\n        /* \"#utility.yul\":5256:5257   */\n      0x00\n        /* \"#utility.yul\":5253:5254   */\n      0x00\n        /* \"#utility.yul\":5246:5258   */\n      revert\n        /* \"#utility.yul\":5189:5260   */\n    tag_324:\n        /* \"#utility.yul\":5128:5266   */\n      pop\n      jump\t// out\n        /* \"#utility.yul\":5272:5427   */\n    tag_248:\n        /* \"#utility.yul\":5326:5331   */\n      0x00\n        /* \"#utility.yul\":5364:5370   */\n      dup2\n        /* \"#utility.yul\":5351:5371   */\n      calldataload\n        /* \"#utility.yul\":5342:5371   */\n      swap1\n      pop\n        /* \"#utility.yul\":5380:5421   */\n      tag_326\n        /* \"#utility.yul\":5415:5420   */\n      dup2\n        /* \"#utility.yul\":5380:5421   */\n      tag_247\n      jump\t// in\n    tag_326:\n        /* \"#utility.yul\":5272:5427   */\n      swap3\n      swap2\n      pop\n      pop\n      jump\t// out\n        /* \"#utility.yul\":5433:5939   */\n    tag_26:\n        /* \"#utility.yul\":5517:5523   */\n      0x00\n        /* \"#utility.yul\":5525:5531   */\n      0x00\n        /* \"#utility.yul\":5574:5576   */\n      0x40\n        /* \"#utility.yul\":5562:5571   */\n      dup4\n        /* \"#utility.yul\":5553:5560   */\n      dup6\n        /* \"#utility.yul\":5549:5572   */\n      sub\n        /* \"#utility.yul\":5545:5577   */\n      slt\n        /* \"#utility.yul\":5542:5661   */\n      iszero\n      tag_328\n      jumpi\n        /* \"#utility.yul\":5580:5659   */\n      tag_329\n      tag_244\n      jump\t// in\n    tag_329:\n        /* \"#utility.yul\":5542:5661   */\n    tag_328:\n        /* \"#utility.yul\":5700:5701   */\n      0x00\n        /* \"#utility.yul\":5725:5786   */\n      tag_330\n        /* \"#utility.yul\":5778:5785   */\n      dup6\n        /* \"#utility.yul\":5769:5775   */\n      dup3\n        /* \"#utility.yul\":5758:5767   */\n      dup7\n        /* \"#utility.yul\":5754:5776   */\n      add\n        /* \"#utility.yul\":5725:5786   */\n      tag_248\n      jump\t// in\n    tag_330:\n        /* \"#utility.yul\":5715:5786   */\n      swap3\n      pop\n        /* \"#utility.yul\":5671:5796   */\n      pop\n        /* \"#utility.yul\":5835:5837   */\n      0x20\n        /* \"#utility.yul\":5861:5922   */\n      tag_331\n        /* \"#utility.yul\":5914:5921   */\n      dup6\n        /* \"#utility.yul\":5905:5911   */\n      dup3\n        /* \"#utility.yul\":5894:5903   */\n      dup7\n        /* \"#utility.yul\":5890:5912   */\n      add\n        /* \"#utility.yul\":5861:5922   */\n      tag_248\n      jump\t// in\n    tag_331:\n        /* \"#utility.yul\":5851:5922   */\n      swap2\n      pop\n        /* \"#utility.yul\":5806:5932   */\n      pop\n        /* \"#utility.yul\":5433:5939   */\n      swap3\n      pop\n      swap3\n      swap1\n      pop\n      jump\t// out\n        /* \"#utility.yul\":5945:6063   */\n    tag_249:\n        /* \"#utility.yul\":6016:6038   */\n      tag_333\n        /* \"#utility.yul\":6032:6037   */\n      dup2\n        /* \"#utility.yul\":6016:6038   */\n      tag_235\n      jump\t// in\n    tag_333:\n        /* \"#utility.yul\":6009:6014   */\n      dup2\n        /* \"#utility.yul\":6006:6039   */\n      eq\n        /* \"#utility.yul\":5996:6057   */\n      tag_334\n      jumpi\n        /* \"#utility.yul\":6053:6054   */\n      0x00\n        /* \"#utility.yul\":6050:6051   */\n      0x00\n        /* \"#utility.yul\":6043:6055   */\n      revert\n        /* \"#utility.yul\":5996:6057   */\n    tag_334:\n        /* \"#utility.yul\":5945:6063   */\n      pop\n      jump\t// out\n        /* \"#utility.yul\":6069:6204   */\n    tag_250:\n        /* \"#utility.yul\":6113:6118   */\n      0x00\n        /* \"#utility.yul\":6151:6157   */\n      dup2\n        /* \"#utility.yul\":6138:6158   */\n      calldataload\n        /* \"#utility.yul\":6129:6158   */\n      swap1\n      pop\n        /* \"#utility.yul\":6167:6198   */\n      tag_336\n        /* \"#utility.yul\":6192:6197   */\n      dup2\n        /* \"#utility.yul\":6167:6198   */\n      tag_249\n      jump\t// in\n    tag_336:\n        /* \"#utility.yul\":6069:6204   */\n      swap3\n      swap2\n      pop\n      pop\n      jump\t// out\n        /* \"#utility.yul\":6210:6676   */\n    tag_30:\n        /* \"#utility.yul\":6274:6280   */\n      0x00\n        /* \"#utility.yul\":6282:6288   */\n      0x00\n        /* \"#utility.yul\":6331:6333   */\n      0x40\n        /* \"#utility.yul\":6319:6328   */\n      dup4\n        /* \"#utility.yul\":6310:6317   */\n      dup6\n        /* \"#utility.yul\":6306:6329   */\n      sub\n        /* \"#utility.yul\":6302:6334   */\n      slt\n        /* \"#utility.yul\":6299:6418   */\n      iszero\n      tag_338\n      jumpi\n        /* \"#utility.yul\":6337:6416   */\n      tag_339\n      tag_244\n      jump\t// in\n    tag_339:\n        /* \"#utility.yul\":6299:6418   */\n    tag_338:\n        /* \"#utility.yul\":6457:6458   */\n      0x00\n        /* \"#utility.yul\":6482:6533   */\n      tag_340\n        /* \"#utility.yul\":6525:6532   */\n      dup6\n        /* \"#utility.yul\":6516:6522   */\n      dup3\n        /* \"#utility.yul\":6505:6514   */\n      dup7\n        /* \"#utility.yul\":6501:6523   */\n      add\n        /* \"#utility.yul\":6482:6533   */\n      tag_250\n      jump\t// in\n    tag_340:\n        /* \"#utility.yul\":6472:6533   */\n      swap3\n      pop\n        /* \"#utility.yul\":6428:6543   */\n      pop\n        /* \"#utility.yul\":6582:6584   */\n      0x20\n        /* \"#utility.yul\":6608:6659   */\n      tag_341\n        /* \"#utility.yul\":6651:6658   */\n      dup6\n        /* \"#utility.yul\":6642:6648   */\n      dup3\n        /* \"#utility.yul\":6631:6640   */\n      dup7\n        /* \"#utility.yul\":6627:6649   */\n      add\n        /* \"#utility.yul\":6608:6659   */\n      tag_250\n      jump\t// in\n    tag_341:\n        /* \"#utility.yul\":6598:6659   */\n      swap2\n      pop\n        /* \"#utility.yul\":6553:6669   */\n      pop\n        /* \"#utility.yul\":6210:6676   */\n      swap3\n      pop\n      swap3\n      swap1\n      pop\n      jump\t// out\n        /* \"#utility.yul\":6682:6759   */\n    tag_251:\n        /* \"#utility.yul\":6719:6726   */\n      0x00\n        /* \"#utility.yul\":6748:6753   */\n      dup2\n        /* \"#utility.yul\":6737:6753   */\n      swap1\n      pop\n        /* \"#utility.yul\":6682:6759   */\n      swap2\n      swap1\n      pop\n      jump\t// out\n        /* \"#utility.yul\":6765:6887   */\n    tag_252:\n        /* \"#utility.yul\":6838:6862   */\n      tag_344\n        /* \"#utility.yul\":6856:6861   */\n      dup2\n        /* \"#utility.yul\":6838:6862   */\n      tag_251\n      jump\t// in\n    tag_344:\n        /* \"#utility.yul\":6831:6836   */\n      dup2\n        /* \"#utility.yul\":6828:6863   */\n      eq\n        /* \"#utility.yul\":6818:6881   */\n      tag_345\n      jumpi\n        /* \"#utility.yul\":6877:6878   */\n      0x00\n        /* \"#utility.yul\":6874:6875   */\n      0x00\n        /* \"#utility.yul\":6867:6879   */\n      revert\n        /* \"#utility.yul\":6818:6881   */\n    tag_345:\n        /* \"#utility.yul\":6765:6887   */\n      pop\n      jump\t// out\n        /* \"#utility.yul\":6893:7032   */\n    tag_253:\n        /* \"#utility.yul\":6939:6944   */\n      0x00\n        /* \"#utility.yul\":6977:6983   */\n      dup2\n        /* \"#utility.yul\":6964:6984   */\n      calldataload\n        /* \"#utility.yul\":6955:6984   */\n      swap1\n      pop\n        /* \"#utility.yul\":6993:7026   */\n      tag_347\n        /* \"#utility.yul\":7020:7025   */\n      dup2\n        /* \"#utility.yul\":6993:7026   */\n      tag_252\n      jump\t// in\n    tag_347:\n        /* \"#utility.yul\":6893:7032   */\n      swap3\n      swap2\n      pop\n      pop\n      jump\t// out\n        /* \"#utility.yul\":7038:7512   */\n    tag_34:\n        /* \"#utility.yul\":7106:7112   */\n      0x00\n        /* \"#utility.yul\":7114:7120   */\n      0x00\n        /* \"#utility.yul\":7163:7165   */\n      0x40\n        /* \"#utility.yul\":7151:7160   */\n      dup4\n        /* \"#utility.yul\":7142:7149   */\n      dup6\n        /* \"#utility.yul\":7138:7161   */\n      sub\n        /* \"#utility.yul\":7134:7166   */\n      slt\n        /* \"#utility.yul\":7131:7250   */\n      iszero\n      tag_349\n      jumpi\n        /* \"#utility.yul\":7169:7248   */\n      tag_350\n      tag_244\n      jump\t// in\n    tag_350:\n        /* \"#utility.yul\":7131:7250   */\n    tag_349:\n        /* \"#utility.yul\":7289:7290   */\n      0x00\n        /* \"#utility.yul\":7314:7367   */\n      tag_351\n        /* \"#utility.yul\":7359:7366   */\n      dup6\n        /* \"#utility.yul\":7350:7356   */\n      dup3\n        /* \"#utility.yul\":7339:7348   */\n      dup7\n        /* \"#utility.yul\":7335:7357   */\n      add\n        /* \"#utility.yul\":7314:7367   */\n      tag_253\n      jump\t// in\n    tag_351:\n        /* \"#utility.yul\":7304:7367   */\n      swap3\n      pop\n        /* \"#utility.yul\":7260:7377   */\n      pop\n        /* \"#utility.yul\":7416:7418   */\n      0x20\n        /* \"#utility.yul\":7442:7495   */\n      tag_352\n        /* \"#utility.yul\":7487:7494   */\n      dup6\n        /* \"#utility.yul\":7478:7484   */\n      dup3\n        /* \"#utility.yul\":7467:7476   */\n      dup7\n        /* \"#utility.yul\":7463:7485   */\n      add\n        /* \"#utility.yul\":7442:7495   */\n      tag_253\n      jump\t// in\n    tag_352:\n        /* \"#utility.yul\":7432:7495   */\n      swap2\n      pop\n        /* \"#utility.yul\":7387:7505   */\n      pop\n        /* \"#utility.yul\":7038:7512   */\n      swap3\n      pop\n      swap3\n      swap1\n      pop\n      jump\t// out\n        /* \"#utility.yul\":7518:7630   */\n    tag_254:\n        /* \"#utility.yul\":7601:7623   */\n      tag_354\n        /* \"#utility.yul\":7617:7622   */\n      dup2\n        /* \"#utility.yul\":7601:7623   */\n      tag_235\n      jump\t// in\n    tag_354:\n        /* \"#utility.yul\":7596:7599   */\n      dup3\n        /* \"#utility.yul\":7589:7624   */\n      mstore\n        /* \"#utility.yul\":7518:7630   */\n      pop\n      pop\n      jump\t// out\n        /* \"#utility.yul\":7636:7850   */\n    tag_37:\n        /* \"#utility.yul\":7725:7729   */\n      0x00\n        /* \"#utility.yul\":7763:7765   */\n      0x20\n        /* \"#utility.yul\":7752:7761   */\n      dup3\n        /* \"#utility.yul\":7748:7766   */\n      add\n        /* \"#utility.yul\":7740:7766   */\n      swap1\n      pop\n        /* \"#utility.yul\":7776:7843   */\n      tag_356\n        /* \"#utility.yul\":7840:7841   */\n      0x00\n        /* \"#utility.yul\":7829:7838   */\n      dup4\n        /* \"#utility.yul\":7825:7842   */\n      add\n        /* \"#utility.yul\":7816:7822   */\n      dup5\n        /* \"#utility.yul\":7776:7843   */\n      tag_254\n      jump\t// in\n    tag_356:\n        /* \"#utility.yul\":7636:7850   */\n      swap3\n      swap2\n      pop\n      pop\n      jump\t// out\n        /* \"#utility.yul\":7856:8188   */\n    tag_41:\n        /* \"#utility.yul\":7977:7981   */\n      0x00\n        /* \"#utility.yul\":8015:8017   */\n      0x40\n        /* \"#utility.yul\":8004:8013   */\n      dup3\n        /* \"#utility.yul\":8000:8018   */\n      add\n        /* \"#utility.yul\":7992:8018   */\n      swap1\n      pop\n        /* \"#utility.yul\":8028:8099   */\n      tag_358\n        /* \"#utility.yul\":8096:8097   */\n      0x00\n        /* \"#utility.yul\":8085:8094   */\n      dup4\n        /* \"#utility.yul\":8081:8098   */\n      add\n        /* \"#utility.yul\":8072:8078   */\n      dup6\n        /* \"#utility.yul\":8028:8099   */\n      tag_226\n      jump\t// in\n    tag_358:\n        /* \"#utility.yul\":8109:8181   */\n      tag_359\n        /* \"#utility.yul\":8177:8179   */\n      0x20\n        /* \"#utility.yul\":8166:8175   */\n      dup4\n        /* \"#utility.yul\":8162:8180   */\n      add\n        /* \"#utility.yul\":8153:8159   */\n      dup5\n        /* \"#utility.yul\":8109:8181   */\n      tag_226\n      jump\t// in\n    tag_359:\n        /* \"#utility.yul\":7856:8188   */\n      swap4\n      swap3\n      pop\n      pop\n      pop\n      jump\t// out\n        /* \"#utility.yul\":8194:8363   */\n    tag_255:\n        /* \"#utility.yul\":8278:8289   */\n      0x00\n        /* \"#utility.yul\":8312:8318   */\n      dup3\n        /* \"#utility.yul\":8307:8310   */\n      dup3\n        /* \"#utility.yul\":8300:8319   */\n      mstore\n        /* \"#utility.yul\":8352:8356   */\n      0x20\n        /* \"#utility.yul\":8347:8350   */\n      dup3\n        /* \"#utility.yul\":8343:8357   */\n      add\n        /* \"#utility.yul\":8328:8357   */\n      swap1\n      pop\n        /* \"#utility.yul\":8194:8363   */\n      swap3\n      swap2\n      pop\n      pop\n      jump\t// out\n        /* \"#utility.yul\":8369:8543   */\n    tag_256:\n        /* \"#utility.yul\":8509:8535   */\n      0x47616d6520616c726561647920696e697469616c697a65640000000000000000\n        /* \"#utility.yul\":8505:8506   */\n      0x00\n        /* \"#utility.yul\":8497:8503   */\n      dup3\n        /* \"#utility.yul\":8493:8507   */\n      add\n        /* \"#utility.yul\":8486:8536   */\n      mstore\n        /* \"#utility.yul\":8369:8543   */\n      pop\n      jump\t// out\n        /* \"#utility.yul\":8549:8915   */\n    tag_257:\n        /* \"#utility.yul\":8691:8694   */\n      0x00\n        /* \"#utility.yul\":8712:8779   */\n      tag_363\n        /* \"#utility.yul\":8776:8778   */\n      0x18\n        /* \"#utility.yul\":8771:8774   */\n      dup4\n        /* \"#utility.yul\":8712:8779   */\n      tag_255\n      jump\t// in\n    tag_363:\n        /* \"#utility.yul\":8705:8779   */\n      swap2\n      pop\n        /* \"#utility.yul\":8788:8881   */\n      tag_364\n        /* \"#utility.yul\":8877:8880   */\n      dup3\n        /* \"#utility.yul\":8788:8881   */\n      tag_256\n      jump\t// in\n    tag_364:\n        /* \"#utility.yul\":8906:8908   */\n      0x20\n        /* \"#utility.yul\":8901:8904   */\n      dup3\n        /* \"#utility.yul\":8897:8909   */\n      add\n        /* \"#utility.yul\":8890:8909   */\n      swap1\n      pop\n        /* \"#utility.yul\":8549:8915   */\n      swap2\n      swap1\n      pop\n      jump\t// out\n        /* \"#utility.yul\":8921:9340   */\n    tag_56:\n        /* \"#utility.yul\":9087:9091   */\n      0x00\n        /* \"#utility.yul\":9125:9127   */\n      0x20\n        /* \"#utility.yul\":9114:9123   */\n      dup3\n        /* \"#utility.yul\":9110:9128   */\n      add\n        /* \"#utility.yul\":9102:9128   */\n      swap1\n      pop\n        /* \"#utility.yul\":9174:9183   */\n      dup2\n        /* \"#utility.yul\":9168:9172   */\n      dup2\n        /* \"#utility.yul\":9164:9184   */\n      sub\n        /* \"#utility.yul\":9160:9161   */\n      0x00\n        /* \"#utility.yul\":9149:9158   */\n      dup4\n        /* \"#utility.yul\":9145:9162   */\n      add\n        /* \"#utility.yul\":9138:9185   */\n      mstore\n        /* \"#utility.yul\":9202:9333   */\n      tag_366\n        /* \"#utility.yul\":9328:9332   */\n      dup2\n        /* \"#utility.yul\":9202:9333   */\n      tag_257\n      jump\t// in\n    tag_366:\n        /* \"#utility.yul\":9194:9333   */\n      swap1\n      pop\n        /* \"#utility.yul\":8921:9340   */\n      swap2\n      swap1\n      pop\n      jump\t// out\n        /* \"#utility.yul\":9346:9574   */\n    tag_258:\n        /* \"#utility.yul\":9486:9520   */\n      0x4f7468657220706c61796572206d75737420757365206120646966666572656e\n        /* \"#utility.yul\":9482:9483   */\n      0x00\n        /* \"#utility.yul\":9474:9480   */\n      dup3\n        /* \"#utility.yul\":9470:9484   */\n      add\n        /* \"#utility.yul\":9463:9521   */\n      mstore\n        /* \"#utility.yul\":9555:9566   */\n      0x7420616464726573730000000000000000000000000000000000000000000000\n        /* \"#utility.yul\":9550:9552   */\n      0x20\n        /* \"#utility.yul\":9542:9548   */\n      dup3\n        /* \"#utility.yul\":9538:9553   */\n      add\n        /* \"#utility.yul\":9531:9567   */\n      mstore\n        /* \"#utility.yul\":9346:9574   */\n      pop\n      jump\t// out\n        /* \"#utility.yul\":9580:9946   */\n    tag_259:\n        /* \"#utility.yul\":9722:9725   */\n      0x00\n        /* \"#utility.yul\":9743:9810   */\n      tag_369\n        /* \"#utility.yul\":9807:9809   */\n      0x29\n        /* \"#utility.yul\":9802:9805   */\n      dup4\n        /* \"#utility.yul\":9743:9810   */\n      tag_255\n      jump\t// in\n    tag_369:\n        /* \"#utility.yul\":9736:9810   */\n      swap2\n      pop\n        /* \"#utility.yul\":9819:9912   */\n      tag_370\n        /* \"#utility.yul\":9908:9911   */\n      dup3\n        /* \"#utility.yul\":9819:9912   */\n      tag_258\n      jump\t// in\n    tag_370:\n        /* \"#utility.yul\":9937:9939   */\n      0x40\n        /* \"#utility.yul\":9932:9935   */\n      dup3\n        /* \"#utility.yul\":9928:9940   */\n      add\n        /* \"#utility.yul\":9921:9940   */\n      swap1\n      pop\n        /* \"#utility.yul\":9580:9946   */\n      swap2\n      swap1\n      pop\n      jump\t// out\n        /* \"#utility.yul\":9952:10371   */\n    tag_59:\n        /* \"#utility.yul\":10118:10122   */\n      0x00\n        /* \"#utility.yul\":10156:10158   */\n      0x20\n        /* \"#utility.yul\":10145:10154   */\n      dup3\n        /* \"#utility.yul\":10141:10159   */\n      add\n        /* \"#utility.yul\":10133:10159   */\n      swap1\n      pop\n        /* \"#utility.yul\":10205:10214   */\n      dup2\n        /* \"#utility.yul\":10199:10203   */\n      dup2\n        /* \"#utility.yul\":10195:10215   */\n      sub\n        /* \"#utility.yul\":10191:10192   */\n      0x00\n        /* \"#utility.yul\":10180:10189   */\n      dup4\n        /* \"#utility.yul\":10176:10193   */\n      add\n        /* \"#utility.yul\":10169:10216   */\n      mstore\n        /* \"#utility.yul\":10233:10364   */\n      tag_372\n        /* \"#utility.yul\":10359:10363   */\n      dup2\n        /* \"#utility.yul\":10233:10364   */\n      tag_259\n      jump\t// in\n    tag_372:\n        /* \"#utility.yul\":10225:10364   */\n      swap1\n      pop\n        /* \"#utility.yul\":9952:10371   */\n      swap2\n      swap1\n      pop\n      jump\t// out\n        /* \"#utility.yul\":10377:10544   */\n    tag_260:\n        /* \"#utility.yul\":10517:10536   */\n      0x5468652067616d65206973206f7665722e000000000000000000000000000000\n        /* \"#utility.yul\":10513:10514   */\n      0x00\n        /* \"#utility.yul\":10505:10511   */\n      dup3\n        /* \"#utility.yul\":10501:10515   */\n      add\n        /* \"#utility.yul\":10494:10537   */\n      mstore\n        /* \"#utility.yul\":10377:10544   */\n      pop\n      jump\t// out\n        /* \"#utility.yul\":10550:10916   */\n    tag_261:\n        /* \"#utility.yul\":10692:10695   */\n      0x00\n        /* \"#utility.yul\":10713:10780   */\n      tag_375\n        /* \"#utility.yul\":10777:10779   */\n      0x11\n        /* \"#utility.yul\":10772:10775   */\n      dup4\n        /* \"#utility.yul\":10713:10780   */\n      tag_255\n      jump\t// in\n    tag_375:\n        /* \"#utility.yul\":10706:10780   */\n      swap2\n      pop\n        /* \"#utility.yul\":10789:10882   */\n      tag_376\n        /* \"#utility.yul\":10878:10881   */\n      dup3\n        /* \"#utility.yul\":10789:10882   */\n      tag_260\n      jump\t// in\n    tag_376:\n        /* \"#utility.yul\":10907:10909   */\n      0x20\n        /* \"#utility.yul\":10902:10905   */\n      dup3\n        /* \"#utility.yul\":10898:10910   */\n      add\n        /* \"#utility.yul\":10891:10910   */\n      swap1\n      pop\n        /* \"#utility.yul\":10550:10916   */\n      swap2\n      swap1\n      pop\n      jump\t// out\n        /* \"#utility.yul\":10922:11341   */\n    tag_63:\n        /* \"#utility.yul\":11088:11092   */\n      0x00\n        /* \"#utility.yul\":11126:11128   */\n      0x20\n        /* \"#utility.yul\":11115:11124   */\n      dup3\n        /* \"#utility.yul\":11111:11129   */\n      add\n        /* \"#utility.yul\":11103:11129   */\n      swap1\n      pop\n        /* \"#utility.yul\":11175:11184   */\n      dup2\n        /* \"#utility.yul\":11169:11173   */\n      dup2\n        /* \"#utility.yul\":11165:11185   */\n      sub\n        /* \"#utility.yul\":11161:11162   */\n      0x00\n        /* \"#utility.yul\":11150:11159   */\n      dup4\n        /* \"#utility.yul\":11146:11163   */\n      add\n        /* \"#utility.yul\":11139:11186   */\n      mstore\n        /* \"#utility.yul\":11203:11334   */\n      tag_378\n        /* \"#utility.yul\":11329:11333   */\n      dup2\n        /* \"#utility.yul\":11203:11334   */\n      tag_261\n      jump\t// in\n    tag_378:\n        /* \"#utility.yul\":11195:11334   */\n      swap1\n      pop\n        /* \"#utility.yul\":10922:11341   */\n      swap2\n      swap1\n      pop\n      jump\t// out\n        /* \"#utility.yul\":11347:11516   */\n    tag_262:\n        /* \"#utility.yul\":11487:11508   */\n      0x49742773206e6f7420796f7572207475726e2e00000000000000000000000000\n        /* \"#utility.yul\":11483:11484   */\n      0x00\n        /* \"#utility.yul\":11475:11481   */\n      dup3\n        /* \"#utility.yul\":11471:11485   */\n      add\n        /* \"#utility.yul\":11464:11509   */\n      mstore\n        /* \"#utility.yul\":11347:11516   */\n      pop\n      jump\t// out\n        /* \"#utility.yul\":11522:11888   */\n    tag_263:\n        /* \"#utility.yul\":11664:11667   */\n      0x00\n        /* \"#utility.yul\":11685:11752   */\n      tag_381\n        /* \"#utility.yul\":11749:11751   */\n      0x13\n        /* \"#utility.yul\":11744:11747   */\n      dup4\n        /* \"#utility.yul\":11685:11752   */\n      tag_255\n      jump\t// in\n    tag_381:\n        /* \"#utility.yul\":11678:11752   */\n      swap2\n      pop\n        /* \"#utility.yul\":11761:11854   */\n      tag_382\n        /* \"#utility.yul\":11850:11853   */\n      dup3\n        /* \"#utility.yul\":11761:11854   */\n      tag_262\n      jump\t// in\n    tag_382:\n        /* \"#utility.yul\":11879:11881   */\n      0x20\n        /* \"#utility.yul\":11874:11877   */\n      dup3\n        /* \"#utility.yul\":11870:11882   */\n      add\n        /* \"#utility.yul\":11863:11882   */\n      swap1\n      pop\n        /* \"#utility.yul\":11522:11888   */\n      swap2\n      swap1\n      pop\n      jump\t// out\n        /* \"#utility.yul\":11894:12313   */\n    tag_66:\n        /* \"#utility.yul\":12060:12064   */\n      0x00\n        /* \"#utility.yul\":12098:12100   */\n      0x20\n        /* \"#utility.yul\":12087:12096   */\n      dup3\n        /* \"#utility.yul\":12083:12101   */\n      add\n        /* \"#utility.yul\":12075:12101   */\n      swap1\n      pop\n        /* \"#utility.yul\":12147:12156   */\n      dup2\n        /* \"#utility.yul\":12141:12145   */\n      dup2\n        /* \"#utility.yul\":12137:12157   */\n      sub\n        /* \"#utility.yul\":12133:12134   */\n      0x00\n        /* \"#utility.yul\":12122:12131   */\n      dup4\n        /* \"#utility.yul\":12118:12135   */\n      add\n        /* \"#utility.yul\":12111:12158   */\n      mstore\n        /* \"#utility.yul\":12175:12306   */\n      tag_384\n        /* \"#utility.yul\":12301:12305   */\n      dup2\n        /* \"#utility.yul\":12175:12306   */\n      tag_263\n      jump\t// in\n    tag_384:\n        /* \"#utility.yul\":12167:12306   */\n      swap1\n      pop\n        /* \"#utility.yul\":11894:12313   */\n      swap2\n      swap1\n      pop\n      jump\t// out\n        /* \"#utility.yul\":12319:12500   */\n    tag_264:\n        /* \"#utility.yul\":12459:12492   */\n      0x496e76616c696420726f77206f7220636f6c756d6e20706c6163656d656e7400\n        /* \"#utility.yul\":12455:12456   */\n      0x00\n        /* \"#utility.yul\":12447:12453   */\n      dup3\n        /* \"#utility.yul\":12443:12457   */\n      add\n        /* \"#utility.yul\":12436:12493   */\n      mstore\n        /* \"#utility.yul\":12319:12500   */\n      pop\n      jump\t// out\n        /* \"#utility.yul\":12506:12872   */\n    tag_265:\n        /* \"#utility.yul\":12648:12651   */\n      0x00\n        /* \"#utility.yul\":12669:12736   */\n      tag_387\n        /* \"#utility.yul\":12733:12735   */\n      0x1f\n        /* \"#utility.yul\":12728:12731   */\n      dup4\n        /* \"#utility.yul\":12669:12736   */\n      tag_255\n      jump\t// in\n    tag_387:\n        /* \"#utility.yul\":12662:12736   */\n      swap2\n      pop\n        /* \"#utility.yul\":12745:12838   */\n      tag_388\n        /* \"#utility.yul\":12834:12837   */\n      dup3\n        /* \"#utility.yul\":12745:12838   */\n      tag_264\n      jump\t// in\n    tag_388:\n        /* \"#utility.yul\":12863:12865   */\n      0x20\n        /* \"#utility.yul\":12858:12861   */\n      dup3\n        /* \"#utility.yul\":12854:12866   */\n      add\n        /* \"#utility.yul\":12847:12866   */\n      swap1\n      pop\n        /* \"#utility.yul\":12506:12872   */\n      swap2\n      swap1\n      pop\n      jump\t// out\n        /* \"#utility.yul\":12878:13297   */\n    tag_70:\n        /* \"#utility.yul\":13044:13048   */\n      0x00\n        /* \"#utility.yul\":13082:13084   */\n      0x20\n        /* \"#utility.yul\":13071:13080   */\n      dup3\n        /* \"#utility.yul\":13067:13085   */\n      add\n        /* \"#utility.yul\":13059:13085   */\n      swap1\n      pop\n        /* \"#utility.yul\":13131:13140   */\n      dup2\n        /* \"#utility.yul\":13125:13129   */\n      dup2\n        /* \"#utility.yul\":13121:13141   */\n      sub\n        /* \"#utility.yul\":13117:13118   */\n      0x00\n        /* \"#utility.yul\":13106:13115   */\n      dup4\n        /* \"#utility.yul\":13102:13119   */\n      add\n        /* \"#utility.yul\":13095:13142   */\n      mstore\n        /* \"#utility.yul\":13159:13290   */\n      tag_390\n        /* \"#utility.yul\":13285:13289   */\n      dup2\n        /* \"#utility.yul\":13159:13290   */\n      tag_265\n      jump\t// in\n    tag_390:\n        /* \"#utility.yul\":13151:13290   */\n      swap1\n      pop\n        /* \"#utility.yul\":12878:13297   */\n      swap2\n      swap1\n      pop\n      jump\t// out\n        /* \"#utility.yul\":13303:13483   */\n    tag_73:\n        /* \"#utility.yul\":13351:13428   */\n      0x4e487b7100000000000000000000000000000000000000000000000000000000\n        /* \"#utility.yul\":13348:13349   */\n      0x00\n        /* \"#utility.yul\":13341:13429   */\n      mstore\n        /* \"#utility.yul\":13448:13452   */\n      0x32\n        /* \"#utility.yul\":13445:13446   */\n      0x04\n        /* \"#utility.yul\":13438:13453   */\n      mstore\n        /* \"#utility.yul\":13472:13476   */\n      0x24\n        /* \"#utility.yul\":13469:13470   */\n      0x00\n        /* \"#utility.yul\":13462:13477   */\n      revert\n        /* \"#utility.yul\":13489:13661   */\n    tag_266:\n        /* \"#utility.yul\":13629:13653   */\n      0x43656c6c20697320616c72656164792074616b656e2e00000000000000000000\n        /* \"#utility.yul\":13625:13626   */\n      0x00\n        /* \"#utility.yul\":13617:13623   */\n      dup3\n        /* \"#utility.yul\":13613:13627   */\n      add\n        /* \"#utility.yul\":13606:13654   */\n      mstore\n        /* \"#utility.yul\":13489:13661   */\n      pop\n      jump\t// out\n        /* \"#utility.yul\":13667:14033   */\n    tag_267:\n        /* \"#utility.yul\":13809:13812   */\n      0x00\n        /* \"#utility.yul\":13830:13897   */\n      tag_394\n        /* \"#utility.yul\":13894:13896   */\n      0x16\n        /* \"#utility.yul\":13889:13892   */\n      dup4\n        /* \"#utility.yul\":13830:13897   */\n      tag_255\n      jump\t// in\n    tag_394:\n        /* \"#utility.yul\":13823:13897   */\n      swap2\n      pop\n        /* \"#utility.yul\":13906:13999   */\n      tag_395\n        /* \"#utility.yul\":13995:13998   */\n      dup3\n        /* \"#utility.yul\":13906:13999   */\n      tag_266\n      jump\t// in\n    tag_395:\n        /* \"#utility.yul\":14024:14026   */\n      0x20\n        /* \"#utility.yul\":14019:14022   */\n      dup3\n        /* \"#utility.yul\":14015:14027   */\n      add\n        /* \"#utility.yul\":14008:14027   */\n      swap1\n      pop\n        /* \"#utility.yul\":13667:14033   */\n      swap2\n      swap1\n      pop\n      jump\t// out\n        /* \"#utility.yul\":14039:14458   */\n    tag_80:\n        /* \"#utility.yul\":14205:14209   */\n      0x00\n        /* \"#utility.yul\":14243:14245   */\n      0x20\n        /* \"#utility.yul\":14232:14241   */\n      dup3\n        /* \"#utility.yul\":14228:14246   */\n      add\n        /* \"#utility.yul\":14220:14246   */\n      swap1\n      pop\n        /* \"#utility.yul\":14292:14301   */\n      dup2\n        /* \"#utility.yul\":14286:14290   */\n      dup2\n        /* \"#utility.yul\":14282:14302   */\n      sub\n        /* \"#utility.yul\":14278:14279   */\n      0x00\n        /* \"#utility.yul\":14267:14276   */\n      dup4\n        /* \"#utility.yul\":14263:14280   */\n      add\n        /* \"#utility.yul\":14256:14303   */\n      mstore\n        /* \"#utility.yul\":14320:14451   */\n      tag_397\n        /* \"#utility.yul\":14446:14450   */\n      dup2\n        /* \"#utility.yul\":14320:14451   */\n      tag_267\n      jump\t// in\n    tag_397:\n        /* \"#utility.yul\":14312:14451   */\n      swap1\n      pop\n        /* \"#utility.yul\":14039:14458   */\n      swap2\n      swap1\n      pop\n      jump\t// out\n        /* \"#utility.yul\":14464:14644   */\n    tag_268:\n        /* \"#utility.yul\":14512:14589   */\n      0x4e487b7100000000000000000000000000000000000000000000000000000000\n        /* \"#utility.yul\":14509:14510   */\n      0x00\n        /* \"#utility.yul\":14502:14590   */\n      mstore\n        /* \"#utility.yul\":14609:14613   */\n      0x11\n        /* \"#utility.yul\":14606:14607   */\n      0x04\n        /* \"#utility.yul\":14599:14614   */\n      mstore\n        /* \"#utility.yul\":14633:14637   */\n      0x24\n        /* \"#utility.yul\":14630:14631   */\n      0x00\n        /* \"#utility.yul\":14623:14638   */\n      revert\n        /* \"#utility.yul\":14650:14817   */\n    tag_215:\n        /* \"#utility.yul\":14687:14690   */\n      0x00\n        /* \"#utility.yul\":14710:14732   */\n      tag_400\n        /* \"#utility.yul\":14726:14731   */\n      dup3\n        /* \"#utility.yul\":14710:14732   */\n      tag_235\n      jump\t// in\n    tag_400:\n        /* \"#utility.yul\":14701:14732   */\n      swap2\n      pop\n        /* \"#utility.yul\":14754:14758   */\n      0xff\n        /* \"#utility.yul\":14747:14752   */\n      dup3\n        /* \"#utility.yul\":14744:14759   */\n      sub\n        /* \"#utility.yul\":14741:14782   */\n      tag_401\n      jumpi\n        /* \"#utility.yul\":14762:14780   */\n      tag_402\n      tag_268\n      jump\t// in\n    tag_402:\n        /* \"#utility.yul\":14741:14782   */\n    tag_401:\n        /* \"#utility.yul\":14809:14810   */\n      0x01\n        /* \"#utility.yul\":14802:14807   */\n      dup3\n        /* \"#utility.yul\":14798:14811   */\n      add\n        /* \"#utility.yul\":14791:14811   */\n      swap1\n      pop\n        /* \"#utility.yul\":14650:14817   */\n      swap2\n      swap1\n      pop\n      jump\t// out\n\n    auxdata: 0xa2646970667358221220f722cc26d90d4841a94cb046be6be259c799239eda725068e405eef7a8f09cdb64736f6c634300081e0033\n}\n",
				"bytecode": {
					"linkReferences": {},
					"object": "6080604052348015600e575f5ffd5b506117b98061001c5f395ff3fe608060405234801561000f575f5ffd5b5060043610610086575f3560e01c80635e24b0f1116100595780635e24b0f1146101005780638086a92a1461011c5780638b5b9ccc1461014c578063dfbf53ae1461016b57610086565b806304a936051461008a5780630e04a7d8146100a85780632420f7f0146100c6578063485cc955146100e4575b5f5ffd5b610092610189565b60405161009f9190611109565b60405180910390f35b6100b06101ae565b6040516100bd919061113c565b60405180910390f35b6100ce6101c1565b6040516100db919061129c565b60405180910390f35b6100fe60048036038101906100f991906112f5565b610263565b005b61011a6004803603810190610115919061135d565b610533565b005b610136600480360381019061013191906113ce565b61080c565b604051610143919061141b565b60405180910390f35b610154610845565b604051610162929190611434565b60405180910390f35b610173610893565b6040516101809190611109565b60405180910390f35b60055f9054906101000a900473ffffffffffffffffffffffffffffffffffffffff1681565b600560149054906101000a900460ff1681565b6101c961107b565b5f600380602002604051908101604052809291905f905b8282101561025a57838201600380602002604051908101604052809291908260038015610246576020028201915f905b82829054906101000a900460ff1660ff16815260200190600101906020825f010492830192600103820291508084116102105790505b5050505050815260200190600101906101e0565b50505050905090565b5f73ffffffffffffffffffffffffffffffffffffffff1660035f9054906101000a900473ffffffffffffffffffffffffffffffffffffffff1673ffffffffffffffffffffffffffffffffffffffff16146102f2576040517f08c379a00000000000000000000000000000000000000000000000000000000081526004016102e9906114b5565b60405180910390fd5b8160035f6101000a81548173ffffffffffffffffffffffffffffffffffffffff021916908373ffffffffffffffffffffffffffffffffffffffff16021790555060035f9054906101000a900473ffffffffffffffffffffffffffffffffffffffff1673ffffffffffffffffffffffffffffffffffffffff168173ffffffffffffffffffffffffffffffffffffffff16036103c1576040517f08c379a00000000000000000000000000000000000000000000000000000000081526004016103b890611543565b60405180910390fd5b8060045f6101000a81548173ffffffffffffffffffffffffffffffffffffffff021916908373ffffffffffffffffffffffffffffffffffffffff16021790555060035f9054906101000a900473ffffffffffffffffffffffffffffffffffffffff1660055f6101000a81548173ffffffffffffffffffffffffffffffffffffffff021916908373ffffffffffffffffffffffffffffffffffffffff1602179055505f600560146101000a81548160ff02191690831515021790555060045f9054906101000a900473ffffffffffffffffffffffffffffffffffffffff1673ffffffffffffffffffffffffffffffffffffffff1660035f9054906101000a900473ffffffffffffffffffffffffffffffffffffffff1673ffffffffffffffffffffffffffffffffffffffff163073ffffffffffffffffffffffffffffffffffffffff167fe733eb5c42c855d38269254700780d064a49ef1611d1f3bfdda632ec19891f5660405160405180910390a45050565b600560149054906101000a900460ff1615610583576040517f08c379a000000000000000000000000000000000000000000000000000000000815260040161057a906115ab565b60405180910390fd5b60055f9054906101000a900473ffffffffffffffffffffffffffffffffffffffff1673ffffffffffffffffffffffffffffffffffffffff163373ffffffffffffffffffffffffffffffffffffffff1614610612576040517f08c379a000000000000000000000000000000000000000000000000000000000815260040161060990611613565b60405180910390fd5b60038260ff16108015610628575060038160ff16105b610667576040517f08c379a000000000000000000000000000000000000000000000000000000000815260040161065e9061167b565b60405180910390fd5b5f5f8360ff166003811061067e5761067d611699565b5b018260ff166003811061069457610693611699565b5b602091828204019190069054906101000a900460ff1660ff16146106ed576040517f08c379a00000000000000000000000000000000000000000000000000000000081526004016106e490611710565b60405180910390fd5b60035f9054906101000a900473ffffffffffffffffffffffffffffffffffffffff1673ffffffffffffffffffffffffffffffffffffffff163373ffffffffffffffffffffffffffffffffffffffff16036107945760015f8360ff166003811061075957610758611699565b5b018260ff166003811061076f5761076e611699565b5b602091828204019190066101000a81548160ff021916908360ff1602179055506107e3565b60025f8360ff16600381106107ac576107ab611699565b5b018260ff16600381106107c2576107c1611699565b5b602091828204019190066101000a81548160ff021916908360ff1602179055505b6107eb6108b8565b600560149054906101000a900460ff1661080857610807610e7c565b5b5050565b5f826003811061081a575f80fd5b018160038110610828575f80fd5b60209182820401919006915091509054906101000a900460ff1681565b5f5f60035f9054906101000a900473ffffffffffffffffffffffffffffffffffffffff1660045f9054906101000a900473ffffffffffffffffffffffffffffffffffffffff16915091509091565b60065f9054906101000a900473ffffffffffffffffffffffffffffffffffffffff1681565b5f60035f9054906101000a900473ffffffffffffffffffffffffffffffffffffffff1673ffffffffffffffffffffffffffffffffffffffff163373ffffffffffffffffffffffffffffffffffffffff1603610916576001905061091b565b600290505b5f5f90505b60038160ff161015610b2f578160ff165f8260ff166003811061094657610945611699565b5b015f6003811061095957610958611699565b5b602091828204019190069054906101000a900460ff1660ff161480156109c357508160ff165f8260ff166003811061099457610993611699565b5b016001600381106109a8576109a7611699565b5b602091828204019190069054906101000a900460ff1660ff16145b8015610a1357508160ff165f8260ff16600381106109e4576109e3611699565b5b016002600381106109f8576109f7611699565b5b602091828204019190069054906101000a900460ff1660ff16145b15610a2757610a20610fba565b5050610e7a565b8160ff165f5f60038110610a3e57610a3d611699565b5b018260ff1660038110610a5457610a53611699565b5b602091828204019190069054906101000a900460ff1660ff16148015610abe57508160ff165f600160038110610a8d57610a8c611699565b5b018260ff1660038110610aa357610aa2611699565b5b602091828204019190069054906101000a900460ff1660ff16145b8015610b0e57508160ff165f600260038110610add57610adc611699565b5b018260ff1660038110610af357610af2611699565b5b602091828204019190069054906101000a900460ff1660ff16145b15610b2257610b1b610fba565b5050610e7a565b8080600101915050610920565b508060ff165f5f60038110610b4757610b46611699565b5b015f60038110610b5a57610b59611699565b5b602091828204019190069054906101000a900460ff1660ff16148015610bc257508060ff165f600160038110610b9357610b92611699565b5b01600160038110610ba757610ba6611699565b5b602091828204019190069054906101000a900460ff1660ff16145b8015610c1057508060ff165f600260038110610be157610be0611699565b5b01600260038110610bf557610bf4611699565b5b602091828204019190069054906101000a900460ff1660ff16145b15610c2357610c1d610fba565b50610e7a565b8060ff165f5f60038110610c3a57610c39611699565b5b01600260038110610c4e57610c4d611699565b5b602091828204019190069054906101000a900460ff1660ff16148015610cb657508060ff165f600160038110610c8757610c86611699565b5b01600160038110610c9b57610c9a611699565b5b602091828204019190069054906101000a900460ff1660ff16145b8015610d0357508060ff165f600260038110610cd557610cd4611699565b5b015f60038110610ce857610ce7611699565b5b602091828204019190069054906101000a900460ff1660ff16145b15610d1657610d10610fba565b50610e7a565b5f5f90505f5f90505b6003811015610dab575f5f90505b60038160ff161015610d9d575f5f8360038110610d4d57610d4c611699565b5b018260ff1660038110610d6357610d62611699565b5b602091828204019190069054906101000a900460ff1660ff1614610d90578280610d8c9061175b565b9350505b8080600101915050610d2d565b508080600101915050610d1f565b5060098160ff1603610e77576001600560146101000a81548160ff0219169083151502179055505f60065f6101000a81548173ffffffffffffffffffffffffffffffffffffffff021916908373ffffffffffffffffffffffffffffffffffffffff16021790555060065f9054906101000a900473ffffffffffffffffffffffffffffffffffffffff1673ffffffffffffffffffffffffffffffffffffffff167f51b77d00d3c0b7e376e9ee146711ceb2c08e58a5dbe38055a618e52109f720c160405160405180910390a25b50505b565b60035f9054906101000a900473ffffffffffffffffffffffffffffffffffffffff1673ffffffffffffffffffffffffffffffffffffffff1660055f9054906101000a900473ffffffffffffffffffffffffffffffffffffffff1673ffffffffffffffffffffffffffffffffffffffff1614610f565760035f9054906101000a900473ffffffffffffffffffffffffffffffffffffffff1660055f6101000a81548173ffffffffffffffffffffffffffffffffffffffff021916908373ffffffffffffffffffffffffffffffffffffffff1602179055610fb7565b60045f9054906101000a900473ffffffffffffffffffffffffffffffffffffffff1660055f6101000a81548173ffffffffffffffffffffffffffffffffffffffff021916908373ffffffffffffffffffffffffffffffffffffffff16021790555b50565b6001600560146101000a81548160ff0219169083151502179055503360065f6101000a81548173ffffffffffffffffffffffffffffffffffffffff021916908373ffffffffffffffffffffffffffffffffffffffff16021790555060065f9054906101000a900473ffffffffffffffffffffffffffffffffffffffff1673ffffffffffffffffffffffffffffffffffffffff167f51b77d00d3c0b7e376e9ee146711ceb2c08e58a5dbe38055a618e52109f720c160405160405180910390a2565b60405180606001604052806003905b6110926110a8565b81526020019060019003908161108a5790505090565b6040518060600160405280600390602082028036833780820191505090505090565b5f73ffffffffffffffffffffffffffffffffffffffff82169050919050565b5f6110f3826110ca565b9050919050565b611103816110e9565b82525050565b5f60208201905061111c5f8301846110fa565b92915050565b5f8115159050919050565b61113681611122565b82525050565b5f60208201905061114f5f83018461112d565b92915050565b5f60039050919050565b5f81905092915050565b5f819050919050565b5f60039050919050565b5f81905092915050565b5f819050919050565b5f60ff82169050919050565b6111a48161118f565b82525050565b5f6111b5838361119b565b60208301905092915050565b5f602082019050919050565b6111d681611172565b6111e0818461117c565b92506111eb82611186565b805f5b8381101561121b57815161120287826111aa565b965061120d836111c1565b9250506001810190506111ee565b505050505050565b5f61122e83836111cd565b60608301905092915050565b5f602082019050919050565b61124f81611155565b611259818461115f565b925061126482611169565b805f5b8381101561129457815161127b8782611223565b96506112868361123a565b925050600181019050611267565b505050505050565b5f610120820190506112b05f830184611246565b92915050565b5f5ffd5b5f6112c4826110ca565b9050919050565b6112d4816112ba565b81146112de575f5ffd5b50565b5f813590506112ef816112cb565b92915050565b5f5f6040838503121561130b5761130a6112b6565b5b5f611318858286016112e1565b9250506020611329858286016112e1565b9150509250929050565b61133c8161118f565b8114611346575f5ffd5b50565b5f8135905061135781611333565b92915050565b5f5f60408385031215611373576113726112b6565b5b5f61138085828601611349565b925050602061139185828601611349565b9150509250929050565b5f819050919050565b6113ad8161139b565b81146113b7575f5ffd5b50565b5f813590506113c8816113a4565b92915050565b5f5f604083850312156113e4576113e36112b6565b5b5f6113f1858286016113ba565b9250506020611402858286016113ba565b9150509250929050565b6114158161118f565b82525050565b5f60208201905061142e5f83018461140c565b92915050565b5f6040820190506114475f8301856110fa565b61145460208301846110fa565b9392505050565b5f82825260208201905092915050565b7f47616d6520616c726561647920696e697469616c697a656400000000000000005f82015250565b5f61149f60188361145b565b91506114aa8261146b565b602082019050919050565b5f6020820190508181035f8301526114cc81611493565b9050919050565b7f4f7468657220706c61796572206d75737420757365206120646966666572656e5f8201527f7420616464726573730000000000000000000000000000000000000000000000602082015250565b5f61152d60298361145b565b9150611538826114d3565b604082019050919050565b5f6020820190508181035f83015261155a81611521565b9050919050565b7f5468652067616d65206973206f7665722e0000000000000000000000000000005f82015250565b5f61159560118361145b565b91506115a082611561565b602082019050919050565b5f6020820190508181035f8301526115c281611589565b9050919050565b7f49742773206e6f7420796f7572207475726e2e000000000000000000000000005f82015250565b5f6115fd60138361145b565b9150611608826115c9565b602082019050919050565b5f6020820190508181035f83015261162a816115f1565b9050919050565b7f496e76616c696420726f77206f7220636f6c756d6e20706c6163656d656e74005f82015250565b5f611665601f8361145b565b915061167082611631565b602082019050919050565b5f6020820190508181035f83015261169281611659565b9050919050565b7f4e487b71000000000000000000000000000000000000000000000000000000005f52603260045260245ffd5b7f43656c6c20697320616c72656164792074616b656e2e000000000000000000005f82015250565b5f6116fa60168361145b565b9150611705826116c6565b602082019050919050565b5f6020820190508181035f830152611727816116ee565b9050919050565b7f4e487b71000000000000000000000000000000000000000000000000000000005f52601160045260245ffd5b5f6117658261118f565b915060ff82036117785761177761172e565b5b60018201905091905056fea2646970667358221220f722cc26d90d4841a94cb046be6be259c799239eda725068e405eef7a8f09cdb64736f6c634300081e0033",
					"opcodes": "PUSH1 0x80 PUSH1 0x40 MSTORE CALLVALUE DUP1 ISZERO PUSH1 0xE JUMPI PUSH0 PUSH0 REVERT JUMPDEST POP PUSH2 0x17B9 DUP1 PUSH2 0x1C PUSH0 CODECOPY PUSH0 RETURN INVALID PUSH1 0x80 PUSH1 0x40 MSTORE CALLVALUE DUP1 ISZERO PUSH2 0xF JUMPI PUSH0 PUSH0 REVERT JUMPDEST POP PUSH1 0x4 CALLDATASIZE LT PUSH2 0x86 JUMPI PUSH0 CALLDATALOAD PUSH1 0xE0 SHR DUP1 PUSH4 0x5E24B0F1 GT PUSH2 0x59 JUMPI DUP1 PUSH4 0x5E24B0F1 EQ PUSH2 0x100 JUMPI DUP1 PUSH4 0x8086A92A EQ PUSH2 0x11C JUMPI DUP1 PUSH4 0x8B5B9CCC EQ PUSH2 0x14C JUMPI DUP1 PUSH4 0xDFBF53AE EQ PUSH2 0x16B JUMPI PUSH2 0x86 JUMP JUMPDEST DUP1 PUSH4 0x4A93605 EQ PUSH2 0x8A JUMPI DUP1 PUSH4 0xE04A7D8 EQ PUSH2 0xA8 JUMPI DUP1 PUSH4 0x2420F7F0 EQ PUSH2 0xC6 JUMPI DUP1 PUSH4 0x485CC955 EQ PUSH2 0xE4 JUMPI JUMPDEST PUSH0 PUSH0 REVERT JUMPDEST PUSH2 0x92 PUSH2 0x189 JUMP JUMPDEST PUSH1 0x40 MLOAD PUSH2 0x9F SWAP2 SWAP1 PUSH2 0x1109 JUMP JUMPDEST PUSH1 0x40 MLOAD DUP1 SWAP2 SUB SWAP1 RETURN JUMPDEST PUSH2 0xB0 PUSH2 0x1AE JUMP JUMPDEST PUSH1 0x40 MLOAD PUSH2 0xBD SWAP2 SWAP1 PUSH2 0x113C JUMP JUMPDEST PUSH1 0x40 MLOAD DUP1 SWAP2 SUB SWAP1 RETURN JUMPDEST PUSH2 0xCE PUSH2 0x1C1 JUMP JUMPDEST PUSH1 0x40 MLOAD PUSH2 0xDB SWAP2 SWAP1 PUSH2 0x129C JUMP JUMPDEST PUSH1 0x40 MLOAD DUP1 SWAP2 SUB SWAP1 RETURN JUMPDEST PUSH2 0xFE PUSH1 0x4 DUP1 CALLDATASIZE SUB DUP2 ADD SWAP1 PUSH2 0xF9 SWAP2 SWAP1 PUSH2 0x12F5 JUMP JUMPDEST PUSH2 0x263 JUMP JUMPDEST STOP JUMPDEST PUSH2 0x11A PUSH1 0x4 DUP1 CALLDATASIZE SUB DUP2 ADD SWAP1 PUSH2 0x115 SWAP2 SWAP1 PUSH2 0x135D JUMP JUMPDEST PUSH2 0x533 JUMP JUMPDEST STOP JUMPDEST PUSH2 0x136 PUSH1 0x4 DUP1 CALLDATASIZE SUB DUP2 ADD SWAP1 PUSH2 0x131 SWAP2 SWAP1 PUSH2 0x13CE JUMP JUMPDEST PUSH2 0x80C JUMP JUMPDEST PUSH1 0x40 MLOAD PUSH2 0x143 SWAP2 SWAP1 PUSH2 0x141B JUMP JUMPDEST PUSH1 0x40 MLOAD DUP1 SWAP2 SUB SWAP1 RETURN JUMPDEST PUSH2 0x154 PUSH2 0x845 JUMP JUMPDEST PUSH1 0x40 MLOAD PUSH2 0x162 SWAP3 SWAP2 SWAP1 PUSH2 0x1434 JUMP JUMPDEST PUSH1 0x40 MLOAD DUP1 SWAP2 SUB SWAP1 RETURN JUMPDEST PUSH2 0x173 PUSH2 0x893 JUMP JUMPDEST PUSH1 0x40 MLOAD PUSH2 0x180 SWAP2 SWAP1 PUSH2 0x1109 JUMP JUMPDEST PUSH1 0x40 MLOAD DUP1 SWAP2 SUB SWAP1 RETURN JUMPDEST PUSH1 0x5 PUSH0 SWAP1 SLOAD SWAP1 PUSH2 0x100 EXP SWAP1 DIV PUSH20 0xFFFFFFFFFFFFFFFFFFFFFFFFFFFFFFFFFFFFFFFF AND DUP2 JUMP JUMPDEST PUSH1 0x5 PUSH1 0x14 SWAP1 SLOAD SWAP1 PUSH2 0x100 EXP SWAP1 DIV PUSH1 0xFF AND DUP2 JUMP JUMPDEST PUSH2 0x1C9 PUSH2 0x107B JUMP JUMPDEST PUSH0 PUSH1 0x3 DUP1 PUSH1 0x20 MUL PUSH1 0x40 MLOAD SWAP1 DUP2 ADD PUSH1 0x40 MSTORE DUP1 SWAP3 SWAP2 SWAP1 PUSH0 SWAP1 JUMPDEST DUP3 DUP3 LT ISZERO PUSH2 0x25A JUMPI DUP4 DUP3 ADD PUSH1 0x3 DUP1 PUSH1 0x20 MUL PUSH1 0x40 MLOAD SWAP1 DUP2 ADD PUSH1 0x40 MSTORE DUP1 SWAP3 SWAP2 SWAP1 DUP3 PUSH1 0x3 DUP1 ISZERO PUSH2 0x246 JUMPI PUSH1 0x20 MUL DUP3 ADD SWAP2 PUSH0 SWAP1 JUMPDEST DUP3 DUP3 SWAP1 SLOAD SWAP1 PUSH2 0x100 EXP SWAP1 DIV PUSH1 0xFF AND PUSH1 0xFF AND DUP2 MSTORE PUSH1 0x20 ADD SWAP1 PUSH1 0x1 ADD SWAP1 PUSH1 0x20 DUP3 PUSH0 ADD DIV SWAP3 DUP4 ADD SWAP3 PUSH1 0x1 SUB DUP3 MUL SWAP2 POP DUP1 DUP5 GT PUSH2 0x210 JUMPI SWAP1 POP JUMPDEST POP POP POP POP POP DUP2 MSTORE PUSH1 0x20 ADD SWAP1 PUSH1 0x1 ADD SWAP1 PUSH2 0x1E0 JUMP JUMPDEST POP POP POP POP SWAP1 POP SWAP1 JUMP JUMPDEST PUSH0 PUSH20 0xFFFFFFFFFFFFFFFFFFFFFFFFFFFFFFFFFFFFFFFF AND PUSH1 0x3 PUSH0 SWAP1 SLOAD SWAP1 PUSH2 0x100 EXP SWAP1 DIV PUSH20 0xFFFFFFFFFFFFFFFFFFFFFFFFFFFFFFFFFFFFFFFF AND PUSH20 0xFFFFFFFFFFFFFFFFFFFFFFFFFFFFFFFFFFFFFFFF AND EQ PUSH2 0x2F2 JUMPI PUSH1 0x40 MLOAD PUSH32 0x8C379A000000000000000000000000000000000000000000000000000000000 DUP2 MSTORE PUSH1 0x4 ADD PUSH2 0x2E9 SWAP1 PUSH2 0x14B5 JUMP JUMPDEST PUSH1 0x40 MLOAD DUP1 SWAP2 SUB SWAP1 REVERT JUMPDEST DUP2 PUSH1 0x3 PUSH0 PUSH2 0x100 EXP DUP2 SLOAD DUP2 PUSH20 0xFFFFFFFFFFFFFFFFFFFFFFFFFFFFFFFFFFFFFFFF MUL NOT AND SWAP1 DUP4 PUSH20 0xFFFFFFFFFFFFFFFFFFFFFFFFFFFFFFFFFFFFFFFF AND MUL OR SWAP1 SSTORE POP PUSH1 0x3 PUSH0 SWAP1 SLOAD SWAP1 PUSH2 0x100 EXP SWAP1 DIV PUSH20 0xFFFFFFFFFFFFFFFFFFFFFFFFFFFFFFFFFFFFFFFF AND PUSH20 0xFFFFFFFFFFFFFFFFFFFFFFFFFFFFFFFFFFFFFFFF AND DUP2 PUSH20 0xFFFFFFFFFFFFFFFFFFFFFFFFFFFFFFFFFFFFFFFF AND SUB PUSH2 0x3C1 JUMPI PUSH1 0x40 MLOAD PUSH32 0x8C379A000000000000000000000000000000000000000000000000000000000 DUP2 MSTORE PUSH1 0x4 ADD PUSH2 0x3B8 SWAP1 PUSH2 0x1543 JUMP JUMPDEST PUSH1 0x40 MLOAD DUP1 SWAP2 SUB SWAP1 REVERT JUMPDEST DUP1 PUSH1 0x4 PUSH0 PUSH2 0x100 EXP DUP2 SLOAD DUP2 PUSH20 0xFFFFFFFFFFFFFFFFFFFFFFFFFFFFFFFFFFFFFFFF MUL NOT AND SWAP1 DUP4 PUSH20 0xFFFFFFFFFFFFFFFFFFFFFFFFFFFFFFFFFFFFFFFF AND MUL OR SWAP1 SSTORE POP PUSH1 0x3 PUSH0 SWAP1 SLOAD SWAP1 PUSH2 0x100 EXP SWAP1 DIV PUSH20 0xFFFFFFFFFFFFFFFFFFFFFFFFFFFFFFFFFFFFFFFF AND PUSH1 0x5 PUSH0 PUSH2 0x100 EXP DUP2 SLOAD DUP2 PUSH20 0xFFFFFFFFFFFFFFFFFFFFFFFFFFFFFFFFFFFFFFFF MUL NOT AND SWAP1 DUP4 PUSH20 0xFFFFFFFFFFFFFFFFFFFFFFFFFFFFFFFFFFFFFFFF AND MUL OR SWAP1 SSTORE POP PUSH0 PUSH1 0x5 PUSH1 0x14 PUSH2 0x100 EXP DUP2 SLOAD DUP2 PUSH1 0xFF MUL NOT AND SWAP1 DUP4 ISZERO ISZERO MUL OR SWAP1 SSTORE POP PUSH1 0x4 PUSH0 SWAP1 SLOAD SWAP1 PUSH2 0x100 EXP SWAP1 DIV PUSH20 0xFFFFFFFFFFFFFFFFFFFFFFFFFFFFFFFFFFFFFFFF AND PUSH20 0xFFFFFFFFFFFFFFFFFFFFFFFFFFFFFFFFFFFFFFFF AND PUSH1 0x3 PUSH0 SWAP1 SLOAD SWAP1 PUSH2 0x100 EXP SWAP1 DIV PUSH20 0xFFFFFFFFFFFFFFFFFFFFFFFFFFFFFFFFFFFFFFFF AND PUSH20 0xFFFFFFFFFFFFFFFFFFFFFFFFFFFFFFFFFFFFFFFF AND ADDRESS PUSH20 0xFFFFFFFFFFFFFFFFFFFFFFFFFFFFFFFFFFFFFFFF AND PUSH32 0xE733EB5C42C855D38269254700780D064A49EF1611D1F3BFDDA632EC19891F56 PUSH1 0x40 MLOAD PUSH1 0x40 MLOAD DUP1 SWAP2 SUB SWAP1 LOG4 POP POP JUMP JUMPDEST PUSH1 0x5 PUSH1 0x14 SWAP1 SLOAD SWAP1 PUSH2 0x100 EXP SWAP1 DIV PUSH1 0xFF AND ISZERO PUSH2 0x583 JUMPI PUSH1 0x40 MLOAD PUSH32 0x8C379A000000000000000000000000000000000000000000000000000000000 DUP2 MSTORE PUSH1 0x4 ADD PUSH2 0x57A SWAP1 PUSH2 0x15AB JUMP JUMPDEST PUSH1 0x40 MLOAD DUP1 SWAP2 SUB SWAP1 REVERT JUMPDEST PUSH1 0x5 PUSH0 SWAP1 SLOAD SWAP1 PUSH2 0x100 EXP SWAP1 DIV PUSH20 0xFFFFFFFFFFFFFFFFFFFFFFFFFFFFFFFFFFFFFFFF AND PUSH20 0xFFFFFFFFFFFFFFFFFFFFFFFFFFFFFFFFFFFFFFFF AND CALLER PUSH20 0xFFFFFFFFFFFFFFFFFFFFFFFFFFFFFFFFFFFFFFFF AND EQ PUSH2 0x612 JUMPI PUSH1 0x40 MLOAD PUSH32 0x8C379A000000000000000000000000000000000000000000000000000000000 DUP2 MSTORE PUSH1 0x4 ADD PUSH2 0x609 SWAP1 PUSH2 0x1613 JUMP JUMPDEST PUSH1 0x40 MLOAD DUP1 SWAP2 SUB SWAP1 REVERT JUMPDEST PUSH1 0x3 DUP3 PUSH1 0xFF AND LT DUP1 ISZERO PUSH2 0x628 JUMPI POP PUSH1 0x3 DUP2 PUSH1 0xFF AND LT JUMPDEST PUSH2 0x667 JUMPI PUSH1 0x40 MLOAD PUSH32 0x8C379A000000000000000000000000000000000000000000000000000000000 DUP2 MSTORE PUSH1 0x4 ADD PUSH2 0x65E SWAP1 PUSH2 0x167B JUMP JUMPDEST PUSH1 0x40 MLOAD DUP1 SWAP2 SUB SWAP1 REVERT JUMPDEST PUSH0 PUSH0 DUP4 PUSH1 0xFF AND PUSH1 0x3 DUP2 LT PUSH2 0x67E JUMPI PUSH2 0x67D PUSH2 0x1699 JUMP JUMPDEST JUMPDEST ADD DUP3 PUSH1 0xFF AND PUSH1 0x3 DUP2 LT PUSH2 0x694 JUMPI PUSH2 0x693 PUSH2 0x1699 JUMP JUMPDEST JUMPDEST PUSH1 0x20 SWAP2 DUP3 DUP3 DIV ADD SWAP2 SWAP1 MOD SWAP1 SLOAD SWAP1 PUSH2 0x100 EXP SWAP1 DIV PUSH1 0xFF AND PUSH1 0xFF AND EQ PUSH2 0x6ED JUMPI PUSH1 0x40 MLOAD PUSH32 0x8C379A000000000000000000000000000000000000000000000000000000000 DUP2 MSTORE PUSH1 0x4 ADD PUSH2 0x6E4 SWAP1 PUSH2 0x1710 JUMP JUMPDEST PUSH1 0x40 MLOAD DUP1 SWAP2 SUB SWAP1 REVERT JUMPDEST PUSH1 0x3 PUSH0 SWAP1 SLOAD SWAP1 PUSH2 0x100 EXP SWAP1 DIV PUSH20 0xFFFFFFFFFFFFFFFFFFFFFFFFFFFFFFFFFFFFFFFF AND PUSH20 0xFFFFFFFFFFFFFFFFFFFFFFFFFFFFFFFFFFFFFFFF AND CALLER PUSH20 0xFFFFFFFFFFFFFFFFFFFFFFFFFFFFFFFFFFFFFFFF AND SUB PUSH2 0x794 JUMPI PUSH1 0x1 PUSH0 DUP4 PUSH1 0xFF AND PUSH1 0x3 DUP2 LT PUSH2 0x759 JUMPI PUSH2 0x758 PUSH2 0x1699 JUMP JUMPDEST JUMPDEST ADD DUP3 PUSH1 0xFF AND PUSH1 0x3 DUP2 LT PUSH2 0x76F JUMPI PUSH2 0x76E PUSH2 0x1699 JUMP JUMPDEST JUMPDEST PUSH1 0x20 SWAP2 DUP3 DUP3 DIV ADD SWAP2 SWAP1 MOD PUSH2 0x100 EXP DUP2 SLOAD DUP2 PUSH1 0xFF MUL NOT AND SWAP1 DUP4 PUSH1 0xFF AND MUL OR SWAP1 SSTORE POP PUSH2 0x7E3 JUMP JUMPDEST PUSH1 0x2 PUSH0 DUP4 PUSH1 0xFF AND PUSH1 0x3 DUP2 LT PUSH2 0x7AC JUMPI PUSH2 0x7AB PUSH2 0x1699 JUMP JUMPDEST JUMPDEST ADD DUP3 PUSH1 0xFF AND PUSH1 0x3 DUP2 LT PUSH2 0x7C2 JUMPI PUSH2 0x7C1 PUSH2 0x1699 JUMP JUMPDEST JUMPDEST PUSH1 0x20 SWAP2 DUP3 DUP3 DIV ADD SWAP2 SWAP1 MOD PUSH2 0x100 EXP DUP2 SLOAD DUP2 PUSH1 0xFF MUL NOT AND SWAP1 DUP4 PUSH1 0xFF AND MUL OR SWAP1 SSTORE POP JUMPDEST PUSH2 0x7EB PUSH2 0x8B8 JUMP JUMPDEST PUSH1 0x5 PUSH1 0x14 SWAP1 SLOAD SWAP1 PUSH2 0x100 EXP SWAP1 DIV PUSH1 0xFF AND PUSH2 0x808 JUMPI PUSH2 0x807 PUSH2 0xE7C JUMP JUMPDEST JUMPDEST POP POP JUMP JUMPDEST PUSH0 DUP3 PUSH1 0x3 DUP2 LT PUSH2 0x81A JUMPI PUSH0 DUP1 REVERT JUMPDEST ADD DUP2 PUSH1 0x3 DUP2 LT PUSH2 0x828 JUMPI PUSH0 DUP1 REVERT JUMPDEST PUSH1 0x20 SWAP2 DUP3 DUP3 DIV ADD SWAP2 SWAP1 MOD SWAP2 POP SWAP2 POP SWAP1 SLOAD SWAP1 PUSH2 0x100 EXP SWAP1 DIV PUSH1 0xFF AND DUP2 JUMP JUMPDEST PUSH0 PUSH0 PUSH1 0x3 PUSH0 SWAP1 SLOAD SWAP1 PUSH2 0x100 EXP SWAP1 DIV PUSH20 0xFFFFFFFFFFFFFFFFFFFFFFFFFFFFFFFFFFFFFFFF AND PUSH1 0x4 PUSH0 SWAP1 SLOAD SWAP1 PUSH2 0x100 EXP SWAP1 DIV PUSH20 0xFFFFFFFFFFFFFFFFFFFFFFFFFFFFFFFFFFFFFFFF AND SWAP2 POP SWAP2 POP SWAP1 SWAP2 JUMP JUMPDEST PUSH1 0x6 PUSH0 SWAP1 SLOAD SWAP1 PUSH2 0x100 EXP SWAP1 DIV PUSH20 0xFFFFFFFFFFFFFFFFFFFFFFFFFFFFFFFFFFFFFFFF AND DUP2 JUMP JUMPDEST PUSH0 PUSH1 0x3 PUSH0 SWAP1 SLOAD SWAP1 PUSH2 0x100 EXP SWAP1 DIV PUSH20 0xFFFFFFFFFFFFFFFFFFFFFFFFFFFFFFFFFFFFFFFF AND PUSH20 0xFFFFFFFFFFFFFFFFFFFFFFFFFFFFFFFFFFFFFFFF AND CALLER PUSH20 0xFFFFFFFFFFFFFFFFFFFFFFFFFFFFFFFFFFFFFFFF AND SUB PUSH2 0x916 JUMPI PUSH1 0x1 SWAP1 POP PUSH2 0x91B JUMP JUMPDEST PUSH1 0x2 SWAP1 POP JUMPDEST PUSH0 PUSH0 SWAP1 POP JUMPDEST PUSH1 0x3 DUP2 PUSH1 0xFF AND LT ISZERO PUSH2 0xB2F JUMPI DUP2 PUSH1 0xFF AND PUSH0 DUP3 PUSH1 0xFF AND PUSH1 0x3 DUP2 LT PUSH2 0x946 JUMPI PUSH2 0x945 PUSH2 0x1699 JUMP JUMPDEST JUMPDEST ADD PUSH0 PUSH1 0x3 DUP2 LT PUSH2 0x959 JUMPI PUSH2 0x958 PUSH2 0x1699 JUMP JUMPDEST JUMPDEST PUSH1 0x20 SWAP2 DUP3 DUP3 DIV ADD SWAP2 SWAP1 MOD SWAP1 SLOAD SWAP1 PUSH2 0x100 EXP SWAP1 DIV PUSH1 0xFF AND PUSH1 0xFF AND EQ DUP1 ISZERO PUSH2 0x9C3 JUMPI POP DUP2 PUSH1 0xFF AND PUSH0 DUP3 PUSH1 0xFF AND PUSH1 0x3 DUP2 LT PUSH2 0x994 JUMPI PUSH2 0x993 PUSH2 0x1699 JUMP JUMPDEST JUMPDEST ADD PUSH1 0x1 PUSH1 0x3 DUP2 LT PUSH2 0x9A8 JUMPI PUSH2 0x9A7 PUSH2 0x1699 JUMP JUMPDEST JUMPDEST PUSH1 0x20 SWAP2 DUP3 DUP3 DIV ADD SWAP2 SWAP1 MOD SWAP1 SLOAD SWAP1 PUSH2 0x100 EXP SWAP1 DIV PUSH1 0xFF AND PUSH1 0xFF AND EQ JUMPDEST DUP1 ISZERO PUSH2 0xA13 JUMPI POP DUP2 PUSH1 0xFF AND PUSH0 DUP3 PUSH1 0xFF AND PUSH1 0x3 DUP2 LT PUSH2 0x9E4 JUMPI PUSH2 0x9E3 PUSH2 0x1699 JUMP JUMPDEST JUMPDEST ADD PUSH1 0x2 PUSH1 0x3 DUP2 LT PUSH2 0x9F8 JUMPI PUSH2 0x9F7 PUSH2 0x1699 JUMP JUMPDEST JUMPDEST PUSH1 0x20 SWAP2 DUP3 DUP3 DIV ADD SWAP2 SWAP1 MOD SWAP1 SLOAD SWAP1 PUSH2 0x100 EXP SWAP1 DIV PUSH1 0xFF AND PUSH1 0xFF AND EQ JUMPDEST ISZERO PUSH2 0xA27 JUMPI PUSH2 0xA20 PUSH2 0xFBA JUMP JUMPDEST POP POP PUSH2 0xE7A JUMP JUMPDEST DUP2 PUSH1 0xFF AND PUSH0 PUSH0 PUSH1 0x3 DUP2 LT PUSH2 0xA3E JUMPI PUSH2 0xA3D PUSH2 0x1699 JUMP JUMPDEST JUMPDEST ADD DUP3 PUSH1 0xFF AND PUSH1 0x3 DUP2 LT PUSH2 0xA54 JUMPI PUSH2 0xA53 PUSH2 0x1699 JUMP JUMPDEST JUMPDEST PUSH1 0x20 SWAP2 DUP3 DUP3 DIV ADD SWAP2 SWAP1 MOD SWAP1 SLOAD SWAP1 PUSH2 0x100 EXP SWAP1 DIV PUSH1 0xFF AND PUSH1 0xFF AND EQ DUP1 ISZERO PUSH2 0xABE JUMPI POP DUP2 PUSH1 0xFF AND PUSH0 PUSH1 0x1 PUSH1 0x3 DUP2 LT PUSH2 0xA8D JUMPI PUSH2 0xA8C PUSH2 0x1699 JUMP JUMPDEST JUMPDEST ADD DUP3 PUSH1 0xFF AND PUSH1 0x3 DUP2 LT PUSH2 0xAA3 JUMPI PUSH2 0xAA2 PUSH2 0x1699 JUMP JUMPDEST JUMPDEST PUSH1 0x20 SWAP2 DUP3 DUP3 DIV ADD SWAP2 SWAP1 MOD SWAP1 SLOAD SWAP1 PUSH2 0x100 EXP SWAP1 DIV PUSH1 0xFF AND PUSH1 0xFF AND EQ JUMPDEST DUP1 ISZERO PUSH2 0xB0E JUMPI POP DUP2 PUSH1 0xFF AND PUSH0 PUSH1 0x2 PUSH1 0x3 DUP2 LT PUSH2 0xADD JUMPI PUSH2 0xADC PUSH2 0x1699 JUMP JUMPDEST JUMPDEST ADD DUP3 PUSH1 0xFF AND PUSH1 0x3 DUP2 LT PUSH2 0xAF3 JUMPI PUSH2 0xAF2 PUSH2 0x1699 JUMP JUMPDEST JUMPDEST PUSH1 0x20 SWAP2 DUP3 DUP3 DIV ADD SWAP2 SWAP1 MOD SWAP1 SLOAD SWAP1 PUSH2 0x100 EXP SWAP1 DIV PUSH1 0xFF AND PUSH1 0xFF AND EQ JUMPDEST ISZERO PUSH2 0xB22 JUMPI PUSH2 0xB1B PUSH2 0xFBA JUMP JUMPDEST POP POP PUSH2 0xE7A JUMP JUMPDEST DUP1 DUP1 PUSH1 0x1 ADD SWAP2 POP POP PUSH2 0x920 JUMP JUMPDEST POP DUP1 PUSH1 0xFF AND PUSH0 PUSH0 PUSH1 0x3 DUP2 LT PUSH2 0xB47 JUMPI PUSH2 0xB46 PUSH2 0x1699 JUMP JUMPDEST JUMPDEST ADD PUSH0 PUSH1 0x3 DUP2 LT PUSH2 0xB5A JUMPI PUSH2 0xB59 PUSH2 0x1699 JUMP JUMPDEST JUMPDEST PUSH1 0x20 SWAP2 DUP3 DUP3 DIV ADD SWAP2 SWAP1 MOD SWAP1 SLOAD SWAP1 PUSH2 0x100 EXP SWAP1 DIV PUSH1 0xFF AND PUSH1 0xFF AND EQ DUP1 ISZERO PUSH2 0xBC2 JUMPI POP DUP1 PUSH1 0xFF AND PUSH0 PUSH1 0x1 PUSH1 0x3 DUP2 LT PUSH2 0xB93 JUMPI PUSH2 0xB92 PUSH2 0x1699 JUMP JUMPDEST JUMPDEST ADD PUSH1 0x1 PUSH1 0x3 DUP2 LT PUSH2 0xBA7 JUMPI PUSH2 0xBA6 PUSH2 0x1699 JUMP JUMPDEST JUMPDEST PUSH1 0x20 SWAP2 DUP3 DUP3 DIV ADD SWAP2 SWAP1 MOD SWAP1 SLOAD SWAP1 PUSH2 0x100 EXP SWAP1 DIV PUSH1 0xFF AND PUSH1 0xFF AND EQ JUMPDEST DUP1 ISZERO PUSH2 0xC10 JUMPI POP DUP1 PUSH1 0xFF AND PUSH0 PUSH1 0x2 PUSH1 0x3 DUP2 LT PUSH2 0xBE1 JUMPI PUSH2 0xBE0 PUSH2 0x1699 JUMP JUMPDEST JUMPDEST ADD PUSH1 0x2 PUSH1 0x3 DUP2 LT PUSH2 0xBF5 JUMPI PUSH2 0xBF4 PUSH2 0x1699 JUMP JUMPDEST JUMPDEST PUSH1 0x20 SWAP2 DUP3 DUP3 DIV ADD SWAP2 SWAP1 MOD SWAP1 SLOAD SWAP1 PUSH2 0x100 EXP SWAP1 DIV PUSH1 0xFF AND PUSH1 0xFF AND EQ JUMPDEST ISZERO PUSH2 0xC23 JUMPI PUSH2 0xC1D PUSH2 0xFBA JUMP JUMPDEST POP PUSH2 0xE7A JUMP JUMPDEST DUP1 PUSH1 0xFF AND PUSH0 PUSH0 PUSH1 0x3 DUP2 LT PUSH2 0xC3A JUMPI PUSH2 0xC39 PUSH2 0x1699 JUMP JUMPDEST JUMPDEST ADD PUSH1 0x2 PUSH1 0x3 DUP2 LT PUSH2 0xC4E JUMPI PUSH2 0xC4D PUSH2 0x1699 JUMP JUMPDEST JUMPDEST PUSH1 0x20 SWAP2 DUP3 DUP3 DIV ADD SWAP2 SWAP1 MOD SWAP1 SLOAD SWAP1 PUSH2 0x100 EXP SWAP1 DIV PUSH1 0xFF AND PUSH1 0xFF AND EQ DUP1 ISZERO PUSH2 0xCB6 JUMPI POP DUP1 PUSH1 0xFF AND PUSH0 PUSH1 0x1 PUSH1 0x3 DUP2 LT PUSH2 0xC87 JUMPI PUSH2 0xC86 PUSH2 0x1699 JUMP JUMPDEST JUMPDEST ADD PUSH1 0x1 PUSH1 0x3 DUP2 LT PUSH2 0xC9B JUMPI PUSH2 0xC9A PUSH2 0x1699 JUMP JUMPDEST JUMPDEST PUSH1 0x20 SWAP2 DUP3 DUP3 DIV ADD SWAP2 SWAP1 MOD SWAP1 SLOAD SWAP1 PUSH2 0x100 EXP SWAP1 DIV PUSH1 0xFF AND PUSH1 0xFF AND EQ JUMPDEST DUP1 ISZERO PUSH2 0xD03 JUMPI POP DUP1 PUSH1 0xFF AND PUSH0 PUSH1 0x2 PUSH1 0x3 DUP2 LT PUSH2 0xCD5 JUMPI PUSH2 0xCD4 PUSH2 0x1699 JUMP JUMPDEST JUMPDEST ADD PUSH0 PUSH1 0x3 DUP2 LT PUSH2 0xCE8 JUMPI PUSH2 0xCE7 PUSH2 0x1699 JUMP JUMPDEST JUMPDEST PUSH1 0x20 SWAP2 DUP3 DUP3 DIV ADD SWAP2 SWAP1 MOD SWAP1 SLOAD SWAP1 PUSH2 0x100 EXP SWAP1 DIV PUSH1 0xFF AND PUSH1 0xFF AND EQ JUMPDEST ISZERO PUSH2 0xD16 JUMPI PUSH2 0xD10 PUSH2 0xFBA JUMP JUMPDEST POP PUSH2 0xE7A JUMP JUMPDEST PUSH0 PUSH0 SWAP1 POP PUSH0 PUSH0 SWAP1 POP JUMPDEST PUSH1 0x3 DUP2 LT ISZERO PUSH2 0xDAB JUMPI PUSH0 PUSH0 SWAP1 POP JUMPDEST PUSH1 0x3 DUP2 PUSH1 0xFF AND LT ISZERO PUSH2 0xD9D JUMPI PUSH0 PUSH0 DUP4 PUSH1 0x3 DUP2 LT PUSH2 0xD4D JUMPI PUSH2 0xD4C PUSH2 0x1699 JUMP JUMPDEST JUMPDEST ADD DUP3 PUSH1 0xFF AND PUSH1 0x3 DUP2 LT PUSH2 0xD63 JUMPI PUSH2 0xD62 PUSH2 0x1699 JUMP JUMPDEST JUMPDEST PUSH1 0x20 SWAP2 DUP3 DUP3 DIV ADD SWAP2 SWAP1 MOD SWAP1 SLOAD SWAP1 PUSH2 0x100 EXP SWAP1 DIV PUSH1 0xFF AND PUSH1 0xFF AND EQ PUSH2 0xD90 JUMPI DUP3 DUP1 PUSH2 0xD8C SWAP1 PUSH2 0x175B JUMP JUMPDEST SWAP4 POP POP JUMPDEST DUP1 DUP1 PUSH1 0x1 ADD SWAP2 POP POP PUSH2 0xD2D JUMP JUMPDEST POP DUP1 DUP1 PUSH1 0x1 ADD SWAP2 POP POP PUSH2 0xD1F JUMP JUMPDEST POP PUSH1 0x9 DUP2 PUSH1 0xFF AND SUB PUSH2 0xE77 JUMPI PUSH1 0x1 PUSH1 0x5 PUSH1 0x14 PUSH2 0x100 EXP DUP2 SLOAD DUP2 PUSH1 0xFF MUL NOT AND SWAP1 DUP4 ISZERO ISZERO MUL OR SWAP1 SSTORE POP PUSH0 PUSH1 0x6 PUSH0 PUSH2 0x100 EXP DUP2 SLOAD DUP2 PUSH20 0xFFFFFFFFFFFFFFFFFFFFFFFFFFFFFFFFFFFFFFFF MUL NOT AND SWAP1 DUP4 PUSH20 0xFFFFFFFFFFFFFFFFFFFFFFFFFFFFFFFFFFFFFFFF AND MUL OR SWAP1 SSTORE POP PUSH1 0x6 PUSH0 SWAP1 SLOAD SWAP1 PUSH2 0x100 EXP SWAP1 DIV PUSH20 0xFFFFFFFFFFFFFFFFFFFFFFFFFFFFFFFFFFFFFFFF AND PUSH20 0xFFFFFFFFFFFFFFFFFFFFFFFFFFFFFFFFFFFFFFFF AND PUSH32 0x51B77D00D3C0B7E376E9EE146711CEB2C08E58A5DBE38055A618E52109F720C1 PUSH1 0x40 MLOAD PUSH1 0x40 MLOAD DUP1 SWAP2 SUB SWAP1 LOG2 JUMPDEST POP POP JUMPDEST JUMP JUMPDEST PUSH1 0x3 PUSH0 SWAP1 SLOAD SWAP1 PUSH2 0x100 EXP SWAP1 DIV PUSH20 0xFFFFFFFFFFFFFFFFFFFFFFFFFFFFFFFFFFFFFFFF AND PUSH20 0xFFFFFFFFFFFFFFFFFFFFFFFFFFFFFFFFFFFFFFFF AND PUSH1 0x5 PUSH0 SWAP1 SLOAD SWAP1 PUSH2 0x100 EXP SWAP1 DIV PUSH20 0xFFFFFFFFFFFFFFFFFFFFFFFFFFFFFFFFFFFFFFFF AND PUSH20 0xFFFFFFFFFFFFFFFFFFFFFFFFFFFFFFFFFFFFFFFF AND EQ PUSH2 0xF56 JUMPI PUSH1 0x3 PUSH0 SWAP1 SLOAD SWAP1 PUSH2 0x100 EXP SWAP1 DIV PUSH20 0xFFFFFFFFFFFFFFFFFFFFFFFFFFFFFFFFFFFFFFFF AND PUSH1 0x5 PUSH0 PUSH2 0x100 EXP DUP2 SLOAD DUP2 PUSH20 0xFFFFFFFFFFFFFFFFFFFFFFFFFFFFFFFFFFFFFFFF MUL NOT AND SWAP1 DUP4 PUSH20 0xFFFFFFFFFFFFFFFFFFFFFFFFFFFFFFFFFFFFFFFF AND MUL OR SWAP1 SSTORE PUSH2 0xFB7 JUMP JUMPDEST PUSH1 0x4 PUSH0 SWAP1 SLOAD SWAP1 PUSH2 0x100 EXP SWAP1 DIV PUSH20 0xFFFFFFFFFFFFFFFFFFFFFFFFFFFFFFFFFFFFFFFF AND PUSH1 0x5 PUSH0 PUSH2 0x100 EXP DUP2 SLOAD DUP2 PUSH20 0xFFFFFFFFFFFFFFFFFFFFFFFFFFFFFFFFFFFFFFFF MUL NOT AND SWAP1 DUP4 PUSH20 0xFFFFFFFFFFFFFFFFFFFFFFFFFFFFFFFFFFFFFFFF AND MUL OR SWAP1 SSTORE JUMPDEST POP JUMP JUMPDEST PUSH1 0x1 PUSH1 0x5 PUSH1 0x14 PUSH2 0x100 EXP DUP2 SLOAD DUP2 PUSH1 0xFF MUL NOT AND SWAP1 DUP4 ISZERO ISZERO MUL OR SWAP1 SSTORE POP CALLER PUSH1 0x6 PUSH0 PUSH2 0x100 EXP DUP2 SLOAD DUP2 PUSH20 0xFFFFFFFFFFFFFFFFFFFFFFFFFFFFFFFFFFFFFFFF MUL NOT AND SWAP1 DUP4 PUSH20 0xFFFFFFFFFFFFFFFFFFFFFFFFFFFFFFFFFFFFFFFF AND MUL OR SWAP1 SSTORE POP PUSH1 0x6 PUSH0 SWAP1 SLOAD SWAP1 PUSH2 0x100 EXP SWAP1 DIV PUSH20 0xFFFFFFFFFFFFFFFFFFFFFFFFFFFFFFFFFFFFFFFF AND PUSH20 0xFFFFFFFFFFFFFFFFFFFFFFFFFFFFFFFFFFFFFFFF AND PUSH32 0x51B77D00D3C0B7E376E9EE146711CEB2C08E58A5DBE38055A618E52109F720C1 PUSH1 0x40 MLOAD PUSH1 0x40 MLOAD DUP1 SWAP2 SUB SWAP1 LOG2 JUMP JUMPDEST PUSH1 0x40 MLOAD DUP1 PUSH1 0x60 ADD PUSH1 0x40 MSTORE DUP1 PUSH1 0x3 SWAP1 JUMPDEST PUSH2 0x1092 PUSH2 0x10A8 JUMP JUMPDEST DUP2 MSTORE PUSH1 0x20 ADD SWAP1 PUSH1 0x1 SWAP1 SUB SWAP1 DUP2 PUSH2 0x108A JUMPI SWAP1 POP POP SWAP1 JUMP JUMPDEST PUSH1 0x40 MLOAD DUP1 PUSH1 0x60 ADD PUSH1 0x40 MSTORE DUP1 PUSH1 0x3 SWAP1 PUSH1 0x20 DUP3 MUL DUP1 CALLDATASIZE DUP4 CALLDATACOPY DUP1 DUP3 ADD SWAP2 POP POP SWAP1 POP POP SWAP1 JUMP JUMPDEST PUSH0 PUSH20 0xFFFFFFFFFFFFFFFFFFFFFFFFFFFFFFFFFFFFFFFF DUP3 AND SWAP1 POP SWAP2 SWAP1 POP JUMP JUMPDEST PUSH0 PUSH2 0x10F3 DUP3 PUSH2 0x10CA JUMP JUMPDEST SWAP1 POP SWAP2 SWAP1 POP JUMP JUMPDEST PUSH2 0x1103 DUP2 PUSH2 0x10E9 JUMP JUMPDEST DUP3 MSTORE POP POP JUMP JUMPDEST PUSH0 PUSH1 0x20 DUP3 ADD SWAP1 POP PUSH2 0x111C PUSH0 DUP4 ADD DUP5 PUSH2 0x10FA JUMP JUMPDEST SWAP3 SWAP2 POP POP JUMP JUMPDEST PUSH0 DUP2 ISZERO ISZERO SWAP1 POP SWAP2 SWAP1 POP JUMP JUMPDEST PUSH2 0x1136 DUP2 PUSH2 0x1122 JUMP JUMPDEST DUP3 MSTORE POP POP JUMP JUMPDEST PUSH0 PUSH1 0x20 DUP3 ADD SWAP1 POP PUSH2 0x114F PUSH0 DUP4 ADD DUP5 PUSH2 0x112D JUMP JUMPDEST SWAP3 SWAP2 POP POP JUMP JUMPDEST PUSH0 PUSH1 0x3 SWAP1 POP SWAP2 SWAP1 POP JUMP JUMPDEST PUSH0 DUP2 SWAP1 POP SWAP3 SWAP2 POP POP JUMP JUMPDEST PUSH0 DUP2 SWAP1 POP SWAP2 SWAP1 POP JUMP JUMPDEST PUSH0 PUSH1 0x3 SWAP1 POP SWAP2 SWAP1 POP JUMP JUMPDEST PUSH0 DUP2 SWAP1 POP SWAP3 SWAP2 POP POP JUMP JUMPDEST PUSH0 DUP2 SWAP1 POP SWAP2 SWAP1 POP JUMP JUMPDEST PUSH0 PUSH1 0xFF DUP3 AND SWAP1 POP SWAP2 SWAP1 POP JUMP JUMPDEST PUSH2 0x11A4 DUP2 PUSH2 0x118F JUMP JUMPDEST DUP3 MSTORE POP POP JUMP JUMPDEST PUSH0 PUSH2 0x11B5 DUP4 DUP4 PUSH2 0x119B JUMP JUMPDEST PUSH1 0x20 DUP4 ADD SWAP1 POP SWAP3 SWAP2 POP POP JUMP JUMPDEST PUSH0 PUSH1 0x20 DUP3 ADD SWAP1 POP SWAP2 SWAP1 POP JUMP JUMPDEST PUSH2 0x11D6 DUP2 PUSH2 0x1172 JUMP JUMPDEST PUSH2 0x11E0 DUP2 DUP5 PUSH2 0x117C JUMP JUMPDEST SWAP3 POP PUSH2 0x11EB DUP3 PUSH2 0x1186 JUMP JUMPDEST DUP1 PUSH0 JUMPDEST DUP4 DUP2 LT ISZERO PUSH2 0x121B JUMPI DUP2 MLOAD PUSH2 0x1202 DUP8 DUP3 PUSH2 0x11AA JUMP JUMPDEST SWAP7 POP PUSH2 0x120D DUP4 PUSH2 0x11C1 JUMP JUMPDEST SWAP3 POP POP PUSH1 0x1 DUP2 ADD SWAP1 POP PUSH2 0x11EE JUMP JUMPDEST POP POP POP POP POP POP JUMP JUMPDEST PUSH0 PUSH2 0x122E DUP4 DUP4 PUSH2 0x11CD JUMP JUMPDEST PUSH1 0x60 DUP4 ADD SWAP1 POP SWAP3 SWAP2 POP POP JUMP JUMPDEST PUSH0 PUSH1 0x20 DUP3 ADD SWAP1 POP SWAP2 SWAP1 POP JUMP JUMPDEST PUSH2 0x124F DUP2 PUSH2 0x1155 JUMP JUMPDEST PUSH2 0x1259 DUP2 DUP5 PUSH2 0x115F JUMP JUMPDEST SWAP3 POP PUSH2 0x1264 DUP3 PUSH2 0x1169 JUMP JUMPDEST DUP1 PUSH0 JUMPDEST DUP4 DUP2 LT ISZERO PUSH2 0x1294 JUMPI DUP2 MLOAD PUSH2 0x127B DUP8 DUP3 PUSH2 0x1223 JUMP JUMPDEST SWAP7 POP PUSH2 0x1286 DUP4 PUSH2 0x123A JUMP JUMPDEST SWAP3 POP POP PUSH1 0x1 DUP2 ADD SWAP1 POP PUSH2 0x1267 JUMP JUMPDEST POP POP POP POP POP POP JUMP JUMPDEST PUSH0 PUSH2 0x120 DUP3 ADD SWAP1 POP PUSH2 0x12B0 PUSH0 DUP4 ADD DUP5 PUSH2 0x1246 JUMP JUMPDEST SWAP3 SWAP2 POP POP JUMP JUMPDEST PUSH0 PUSH0 REVERT JUMPDEST PUSH0 PUSH2 0x12C4 DUP3 PUSH2 0x10CA JUMP JUMPDEST SWAP1 POP SWAP2 SWAP1 POP JUMP JUMPDEST PUSH2 0x12D4 DUP2 PUSH2 0x12BA JUMP JUMPDEST DUP2 EQ PUSH2 0x12DE JUMPI PUSH0 PUSH0 REVERT JUMPDEST POP JUMP JUMPDEST PUSH0 DUP2 CALLDATALOAD SWAP1 POP PUSH2 0x12EF DUP2 PUSH2 0x12CB JUMP JUMPDEST SWAP3 SWAP2 POP POP JUMP JUMPDEST PUSH0 PUSH0 PUSH1 0x40 DUP4 DUP6 SUB SLT ISZERO PUSH2 0x130B JUMPI PUSH2 0x130A PUSH2 0x12B6 JUMP JUMPDEST JUMPDEST PUSH0 PUSH2 0x1318 DUP6 DUP3 DUP7 ADD PUSH2 0x12E1 JUMP JUMPDEST SWAP3 POP POP PUSH1 0x20 PUSH2 0x1329 DUP6 DUP3 DUP7 ADD PUSH2 0x12E1 JUMP JUMPDEST SWAP2 POP POP SWAP3 POP SWAP3 SWAP1 POP JUMP JUMPDEST PUSH2 0x133C DUP2 PUSH2 0x118F JUMP JUMPDEST DUP2 EQ PUSH2 0x1346 JUMPI PUSH0 PUSH0 REVERT JUMPDEST POP JUMP JUMPDEST PUSH0 DUP2 CALLDATALOAD SWAP1 POP PUSH2 0x1357 DUP2 PUSH2 0x1333 JUMP JUMPDEST SWAP3 SWAP2 POP POP JUMP JUMPDEST PUSH0 PUSH0 PUSH1 0x40 DUP4 DUP6 SUB SLT ISZERO PUSH2 0x1373 JUMPI PUSH2 0x1372 PUSH2 0x12B6 JUMP JUMPDEST JUMPDEST PUSH0 PUSH2 0x1380 DUP6 DUP3 DUP7 ADD PUSH2 0x1349 JUMP JUMPDEST SWAP3 POP POP PUSH1 0x20 PUSH2 0x1391 DUP6 DUP3 DUP7 ADD PUSH2 0x1349 JUMP JUMPDEST SWAP2 POP POP SWAP3 POP SWAP3 SWAP1 POP JUMP JUMPDEST PUSH0 DUP2 SWAP1 POP SWAP2 SWAP1 POP JUMP JUMPDEST PUSH2 0x13AD DUP2 PUSH2 0x139B JUMP JUMPDEST DUP2 EQ PUSH2 0x13B7 JUMPI PUSH0 PUSH0 REVERT JUMPDEST POP JUMP JUMPDEST PUSH0 DUP2 CALLDATALOAD SWAP1 POP PUSH2 0x13C8 DUP2 PUSH2 0x13A4 JUMP JUMPDEST SWAP3 SWAP2 POP POP JUMP JUMPDEST PUSH0 PUSH0 PUSH1 0x40 DUP4 DUP6 SUB SLT ISZERO PUSH2 0x13E4 JUMPI PUSH2 0x13E3 PUSH2 0x12B6 JUMP JUMPDEST JUMPDEST PUSH0 PUSH2 0x13F1 DUP6 DUP3 DUP7 ADD PUSH2 0x13BA JUMP JUMPDEST SWAP3 POP POP PUSH1 0x20 PUSH2 0x1402 DUP6 DUP3 DUP7 ADD PUSH2 0x13BA JUMP JUMPDEST SWAP2 POP POP SWAP3 POP SWAP3 SWAP1 POP JUMP JUMPDEST PUSH2 0x1415 DUP2 PUSH2 0x118F JUMP JUMPDEST DUP3 MSTORE POP POP JUMP JUMPDEST PUSH0 PUSH1 0x20 DUP3 ADD SWAP1 POP PUSH2 0x142E PUSH0 DUP4 ADD DUP5 PUSH2 0x140C JUMP JUMPDEST SWAP3 SWAP2 POP POP JUMP JUMPDEST PUSH0 PUSH1 0x40 DUP3 ADD SWAP1 POP PUSH2 0x1447 PUSH0 DUP4 ADD DUP6 PUSH2 0x10FA JUMP JUMPDEST PUSH2 0x1454 PUSH1 0x20 DUP4 ADD DUP5 PUSH2 0x10FA JUMP JUMPDEST SWAP4 SWAP3 POP POP POP JUMP JUMPDEST PUSH0 DUP3 DUP3 MSTORE PUSH1 0x20 DUP3 ADD SWAP1 POP SWAP3 SWAP2 POP POP JUMP JUMPDEST PUSH32 0x47616D6520616C726561647920696E697469616C697A65640000000000000000 PUSH0 DUP3 ADD MSTORE POP JUMP JUMPDEST PUSH0 PUSH2 0x149F PUSH1 0x18 DUP4 PUSH2 0x145B JUMP JUMPDEST SWAP2 POP PUSH2 0x14AA DUP3 PUSH2 0x146B JUMP JUMPDEST PUSH1 0x20 DUP3 ADD SWAP1 POP SWAP2 SWAP1 POP JUMP JUMPDEST PUSH0 PUSH1 0x20 DUP3 ADD SWAP1 POP DUP2 DUP2 SUB PUSH0 DUP4 ADD MSTORE PUSH2 0x14CC DUP2 PUSH2 0x1493 JUMP JUMPDEST SWAP1 POP SWAP2 SWAP1 POP JUMP JUMPDEST PUSH32 0x4F7468657220706C61796572206D75737420757365206120646966666572656E PUSH0 DUP3 ADD MSTORE PUSH32 0x7420616464726573730000000000000000000000000000000000000000000000 PUSH1 0x20 DUP3 ADD MSTORE POP JUMP JUMPDEST PUSH0 PUSH2 0x152D PUSH1 0x29 DUP4 PUSH2 0x145B JUMP JUMPDEST SWAP2 POP PUSH2 0x1538 DUP3 PUSH2 0x14D3 JUMP JUMPDEST PUSH1 0x40 DUP3 ADD SWAP1 POP SWAP2 SWAP1 POP JUMP JUMPDEST PUSH0 PUSH1 0x20 DUP3 ADD SWAP1 POP DUP2 DUP2 SUB PUSH0 DUP4 ADD MSTORE PUSH2 0x155A DUP2 PUSH2 0x1521 JUMP JUMPDEST SWAP1 POP SWAP2 SWAP1 POP JUMP JUMPDEST PUSH32 0x5468652067616D65206973206F7665722E000000000000000000000000000000 PUSH0 DUP3 ADD MSTORE POP JUMP JUMPDEST PUSH0 PUSH2 0x1595 PUSH1 0x11 DUP4 PUSH2 0x145B JUMP JUMPDEST SWAP2 POP PUSH2 0x15A0 DUP3 PUSH2 0x1561 JUMP JUMPDEST PUSH1 0x20 DUP3 ADD SWAP1 POP SWAP2 SWAP1 POP JUMP JUMPDEST PUSH0 PUSH1 0x20 DUP3 ADD SWAP1 POP DUP2 DUP2 SUB PUSH0 DUP4 ADD MSTORE PUSH2 0x15C2 DUP2 PUSH2 0x1589 JUMP JUMPDEST SWAP1 POP SWAP2 SWAP1 POP JUMP JUMPDEST PUSH32 0x49742773206E6F7420796F7572207475726E2E00000000000000000000000000 PUSH0 DUP3 ADD MSTORE POP JUMP JUMPDEST PUSH0 PUSH2 0x15FD PUSH1 0x13 DUP4 PUSH2 0x145B JUMP JUMPDEST SWAP2 POP PUSH2 0x1608 DUP3 PUSH2 0x15C9 JUMP JUMPDEST PUSH1 0x20 DUP3 ADD SWAP1 POP SWAP2 SWAP1 POP JUMP JUMPDEST PUSH0 PUSH1 0x20 DUP3 ADD SWAP1 POP DUP2 DUP2 SUB PUSH0 DUP4 ADD MSTORE PUSH2 0x162A DUP2 PUSH2 0x15F1 JUMP JUMPDEST SWAP1 POP SWAP2 SWAP1 POP JUMP JUMPDEST PUSH32 0x496E76616C696420726F77206F7220636F6C756D6E20706C6163656D656E7400 PUSH0 DUP3 ADD MSTORE POP JUMP JUMPDEST PUSH0 PUSH2 0x1665 PUSH1 0x1F DUP4 PUSH2 0x145B JUMP JUMPDEST SWAP2 POP PUSH2 0x1670 DUP3 PUSH2 0x1631 JUMP JUMPDEST PUSH1 0x20 DUP3 ADD SWAP1 POP SWAP2 SWAP1 POP JUMP JUMPDEST PUSH0 PUSH1 0x20 DUP3 ADD SWAP1 POP DUP2 DUP2 SUB PUSH0 DUP4 ADD MSTORE PUSH2 0x1692 DUP2 PUSH2 0x1659 JUMP JUMPDEST SWAP1 POP SWAP2 SWAP1 POP JUMP JUMPDEST PUSH32 0x4E487B7100000000000000000000000000000000000000000000000000000000 PUSH0 MSTORE PUSH1 0x32 PUSH1 0x4 MSTORE PUSH1 0x24 PUSH0 REVERT JUMPDEST PUSH32 0x43656C6C20697320616C72656164792074616B656E2E00000000000000000000 PUSH0 DUP3 ADD MSTORE POP JUMP JUMPDEST PUSH0 PUSH2 0x16FA PUSH1 0x16 DUP4 PUSH2 0x145B JUMP JUMPDEST SWAP2 POP PUSH2 0x1705 DUP3 PUSH2 0x16C6 JUMP JUMPDEST PUSH1 0x20 DUP3 ADD SWAP1 POP SWAP2 SWAP1 POP JUMP JUMPDEST PUSH0 PUSH1 0x20 DUP3 ADD SWAP1 POP DUP2 DUP2 SUB PUSH0 DUP4 ADD MSTORE PUSH2 0x1727 DUP2 PUSH2 0x16EE JUMP JUMPDEST SWAP1 POP SWAP2 SWAP1 POP JUMP JUMPDEST PUSH32 0x4E487B7100000000000000000000000000000000000000000000000000000000 PUSH0 MSTORE PUSH1 0x11 PUSH1 0x4 MSTORE PUSH1 0x24 PUSH0 REVERT JUMPDEST PUSH0 PUSH2 0x1765 DUP3 PUSH2 0x118F JUMP JUMPDEST SWAP2 POP PUSH1 0xFF DUP3 SUB PUSH2 0x1778 JUMPI PUSH2 0x1777 PUSH2 0x172E JUMP JUMPDEST JUMPDEST PUSH1 0x1 DUP3 ADD SWAP1 POP SWAP2 SWAP1 POP JUMP INVALID LOG2 PUSH5 0x6970667358 0x22 SLT KECCAK256 0xF7 0x22 0xCC 0x26 0xD9 0xD BASEFEE COINBASE 0xA9 0x4C 0xB0 CHAINID 0xBE PUSH12 0xE259C799239EDA725068E405 RETURNCONTRACT 0xF7 0xA8 CREATE SWAP13 0xDB PUSH5 0x736F6C6343 STOP ADDMOD 0x1E STOP CALLER "
				},
				"gasEstimates": {
					"creation": {
						"codeDepositCost": "1214600",
						"executionCost": "1259",
						"totalCost": "1215859"
					},
					"external": {
						"board(uint256,uint256)": "infinite",
						"getBoardState()": "infinite",
						"getPlayers()": "infinite",
						"initialize(address,address)": "infinite",
						"isGameOver()": "2540",
						"makeMove(uint8,uint8)": "infinite",
						"nextPlayer()": "2509",
						"winner()": "2574"
					},
					"internal": {
						"checkWin()": "infinite",
						"endGameWithWinner()": "51896",
						"switchTurn()": "30726"
					}
				},
				"methodIdentifiers": {
					"board(uint256,uint256)": "8086a92a",
					"getBoardState()": "2420f7f0",
					"getPlayers()": "8b5b9ccc",
					"initialize(address,address)": "485cc955",
					"isGameOver()": "0e04a7d8",
					"makeMove(uint8,uint8)": "5e24b0f1",
					"nextPlayer()": "04a93605",
					"winner()": "dfbf53ae"
				}
			},
			"storageLayout": {
				"storage": [
					{
						"astId": 7,
						"contract": "contracts/TicTacToe.sol:TicTacToe",
						"label": "board",
						"offset": 0,
						"slot": "0",
						"type": "t_array(t_array(t_uint8)3_storage)3_storage"
					},
					{
						"astId": 9,
						"contract": "contracts/TicTacToe.sol:TicTacToe",
						"label": "playerX",
						"offset": 0,
						"slot": "3",
						"type": "t_address_payable"
					},
					{
						"astId": 11,
						"contract": "contracts/TicTacToe.sol:TicTacToe",
						"label": "playerO",
						"offset": 0,
						"slot": "4",
						"type": "t_address_payable"
					},
					{
						"astId": 13,
						"contract": "contracts/TicTacToe.sol:TicTacToe",
						"label": "nextPlayer",
						"offset": 0,
						"slot": "5",
						"type": "t_address"
					},
					{
						"astId": 15,
						"contract": "contracts/TicTacToe.sol:TicTacToe",
						"label": "isGameOver",
						"offset": 20,
						"slot": "5",
						"type": "t_bool"
					},
					{
						"astId": 17,
						"contract": "contracts/TicTacToe.sol:TicTacToe",
						"label": "winner",
						"offset": 0,
						"slot": "6",
						"type": "t_address"
					}
				],
				"types": {
					"t_address": {
						"encoding": "inplace",
						"label": "address",
						"numberOfBytes": "20"
					},
					"t_address_payable": {
						"encoding": "inplace",
						"label": "address payable",
						"numberOfBytes": "20"
					},
					"t_array(t_array(t_uint8)3_storage)3_storage": {
						"base": "t_array(t_uint8)3_storage",
						"encoding": "inplace",
						"label": "uint8[3][3]",
						"numberOfBytes": "96"
					},
					"t_array(t_uint8)3_storage": {
						"base": "t_uint8",
						"encoding": "inplace",
						"label": "uint8[3]",
						"numberOfBytes": "32"
					},
					"t_bool": {
						"encoding": "inplace",
						"label": "bool",
						"numberOfBytes": "1"
					},
					"t_uint8": {
						"encoding": "inplace",
						"label": "uint8",
						"numberOfBytes": "1"
					}
				}
			},
			"userdoc": {
				"kind": "user",
				"methods": {},
				"version": 1
			}
		}
	}
}