{
	"contracts/TicTacToe.sol": {
		"TicTacToe": {
			"abi": [
				{
					"anonymous": false,
					"inputs": [
						{
							"indexed": true,
							"internalType": "address",
							"name": "winner",
							"type": "address"
						}
					],
					"name": "GameEnded",
					"type": "event"
				},
				{
					"anonymous": false,
					"inputs": [
						{
							"indexed": true,
							"internalType": "address",
							"name": "gameAddress",
							"type": "address"
						},
						{
							"indexed": true,
							"internalType": "address",
							"name": "pX",
							"type": "address"
						},
						{
							"indexed": true,
							"internalType": "address",
							"name": "pO",
							"type": "address"
						}
					],
					"name": "GameStarted",
					"type": "event"
				},
				{
					"anonymous": false,
					"inputs": [
						{
							"indexed": true,
							"internalType": "address",
							"name": "player",
							"type": "address"
						},
						{
							"indexed": false,
							"internalType": "uint8",
							"name": "r",
							"type": "uint8"
						},
						{
							"indexed": false,
							"internalType": "uint8",
							"name": "c",
							"type": "uint8"
						},
						{
							"indexed": false,
							"internalType": "uint8",
							"name": "marker",
							"type": "uint8"
						}
					],
					"name": "MoveMade",
					"type": "event"
				},
				{
					"inputs": [
						{
							"internalType": "uint256",
							"name": "",
							"type": "uint256"
						},
						{
							"internalType": "uint256",
							"name": "",
							"type": "uint256"
						}
					],
					"name": "board",
					"outputs": [
						{
							"internalType": "uint8",
							"name": "",
							"type": "uint8"
						}
					],
					"stateMutability": "view",
					"type": "function"
				},
				{
					"inputs": [],
					"name": "getBoardState",
					"outputs": [
						{
							"internalType": "uint8[3][3]",
							"name": "",
							"type": "uint8[3][3]"
						}
					],
					"stateMutability": "view",
					"type": "function"
				},
				{
					"inputs": [],
					"name": "getPlayerO",
					"outputs": [
						{
							"internalType": "address",
							"name": "",
							"type": "address"
						}
					],
					"stateMutability": "view",
					"type": "function"
				},
				{
					"inputs": [],
					"name": "getPlayerX",
					"outputs": [
						{
							"internalType": "address",
							"name": "",
							"type": "address"
						}
					],
					"stateMutability": "view",
					"type": "function"
				},
				{
					"inputs": [],
					"name": "getPlayers",
					"outputs": [
						{
							"internalType": "address",
							"name": "",
							"type": "address"
						},
						{
							"internalType": "address",
							"name": "",
							"type": "address"
						}
					],
					"stateMutability": "view",
					"type": "function"
				},
				{
					"inputs": [
						{
							"internalType": "address payable",
							"name": "_playerX",
							"type": "address"
						},
						{
							"internalType": "address payable",
							"name": "_playerO",
							"type": "address"
						}
					],
					"name": "initialize",
					"outputs": [],
					"stateMutability": "nonpayable",
					"type": "function"
				},
				{
					"inputs": [],
					"name": "isGameOver",
					"outputs": [
						{
							"internalType": "bool",
							"name": "",
							"type": "bool"
						}
					],
					"stateMutability": "view",
					"type": "function"
				},
				{
					"inputs": [
						{
							"internalType": "uint8",
							"name": "row",
							"type": "uint8"
						},
						{
							"internalType": "uint8",
							"name": "col",
							"type": "uint8"
						}
					],
					"name": "makeMove",
					"outputs": [],
					"stateMutability": "nonpayable",
					"type": "function"
				},
				{
					"inputs": [],
					"name": "nextPlayer",
					"outputs": [
						{
							"internalType": "address",
							"name": "",
							"type": "address"
						}
					],
					"stateMutability": "view",
					"type": "function"
				},
				{
					"inputs": [],
					"name": "restartGame",
					"outputs": [],
					"stateMutability": "nonpayable",
					"type": "function"
				},
				{
					"inputs": [],
					"name": "winner",
					"outputs": [
						{
							"internalType": "address",
							"name": "",
							"type": "address"
						}
					],
					"stateMutability": "view",
					"type": "function"
				}
			],
			"devdoc": {
				"kind": "dev",
				"methods": {},
				"version": 1
			},
			"evm": {
				"assembly": "    /* \"contracts/TicTacToe.sol\":732:7757  contract TicTacToe {... */\n  mstore(0x40, 0x80)\n  callvalue\n  dup1\n  iszero\n  tag_1\n  jumpi\n  revert(0x00, 0x00)\ntag_1:\n  pop\n  dataSize(sub_0)\n  dup1\n  dataOffset(sub_0)\n  0x00\n  codecopy\n  0x00\n  return\nstop\n\nsub_0: assembly {\n        /* \"contracts/TicTacToe.sol\":732:7757  contract TicTacToe {... */\n      mstore(0x40, 0x80)\n      callvalue\n      dup1\n      iszero\n      tag_1\n      jumpi\n      revert(0x00, 0x00)\n    tag_1:\n      pop\n      jumpi(tag_2, lt(calldatasize, 0x04))\n      shr(0xe0, calldataload(0x00))\n      dup1\n      0x8086a92a\n      gt\n      tag_14\n      jumpi\n      dup1\n      0x8086a92a\n      eq\n      tag_8\n      jumpi\n      dup1\n      0x8b5b9ccc\n      eq\n      tag_9\n      jumpi\n      dup1\n      0x8d25af04\n      eq\n      tag_10\n      jumpi\n      dup1\n      0xc06af996\n      eq\n      tag_11\n      jumpi\n      dup1\n      0xd9a4264c\n      eq\n      tag_12\n      jumpi\n      dup1\n      0xdfbf53ae\n      eq\n      tag_13\n      jumpi\n      jump(tag_2)\n    tag_14:\n      dup1\n      0x04a93605\n      eq\n      tag_3\n      jumpi\n      dup1\n      0x0e04a7d8\n      eq\n      tag_4\n      jumpi\n      dup1\n      0x2420f7f0\n      eq\n      tag_5\n      jumpi\n      dup1\n      0x485cc955\n      eq\n      tag_6\n      jumpi\n      dup1\n      0x5e24b0f1\n      eq\n      tag_7\n      jumpi\n    tag_2:\n      revert(0x00, 0x00)\n        /* \"contracts/TicTacToe.sol\":1652:1677  address public nextPlayer */\n    tag_3:\n      tag_15\n      tag_16\n      jump\t// in\n    tag_15:\n      mload(0x40)\n      tag_17\n      swap2\n      swap1\n      tag_18\n      jump\t// in\n    tag_17:\n      mload(0x40)\n      dup1\n      swap2\n      sub\n      swap1\n      return\n        /* \"contracts/TicTacToe.sol\":1684:1706  bool public isGameOver */\n    tag_4:\n      tag_19\n      tag_20\n      jump\t// in\n    tag_19:\n      mload(0x40)\n      tag_21\n      swap2\n      swap1\n      tag_22\n      jump\t// in\n    tag_21:\n      mload(0x40)\n      dup1\n      swap2\n      sub\n      swap1\n      return\n        /* \"contracts/TicTacToe.sol\":4366:4463  function getBoardState() public view returns (uint8[3][3] memory) {... */\n    tag_5:\n      tag_23\n      tag_24\n      jump\t// in\n    tag_23:\n      mload(0x40)\n      tag_25\n      swap2\n      swap1\n      tag_26\n      jump\t// in\n    tag_25:\n      mload(0x40)\n      dup1\n      swap2\n      sub\n      swap1\n      return\n        /* \"contracts/TicTacToe.sol\":2127:2821  function initialize(address payable _playerX, address payable _playerO) public {... */\n    tag_6:\n      tag_27\n      0x04\n      dup1\n      calldatasize\n      sub\n      dup2\n      add\n      swap1\n      tag_28\n      swap2\n      swap1\n      tag_29\n      jump\t// in\n    tag_28:\n      tag_30\n      jump\t// in\n    tag_27:\n      stop\n        /* \"contracts/TicTacToe.sol\":4507:5396  function makeMove(uint8 row, uint8 col) public {... */\n    tag_7:\n      tag_31\n      0x04\n      dup1\n      calldatasize\n      sub\n      dup2\n      add\n      swap1\n      tag_32\n      swap2\n      swap1\n      tag_33\n      jump\t// in\n    tag_32:\n      tag_34\n      jump\t// in\n    tag_31:\n      stop\n        /* \"contracts/TicTacToe.sol\":1165:1189  uint8[3][3] public board */\n    tag_8:\n      tag_35\n      0x04\n      dup1\n      calldatasize\n      sub\n      dup2\n      add\n      swap1\n      tag_36\n      swap2\n      swap1\n      tag_37\n      jump\t// in\n    tag_36:\n      tag_38\n      jump\t// in\n    tag_35:\n      mload(0x40)\n      tag_39\n      swap2\n      swap1\n      tag_40\n      jump\t// in\n    tag_39:\n      mload(0x40)\n      dup1\n      swap2\n      sub\n      swap1\n      return\n        /* \"contracts/TicTacToe.sol\":4034:4139  function getPlayers() public view returns (address, address) {... */\n    tag_9:\n      tag_41\n      tag_42\n      jump\t// in\n    tag_41:\n      mload(0x40)\n      tag_43\n      swap3\n      swap2\n      swap1\n      tag_44\n      jump\t// in\n    tag_43:\n      mload(0x40)\n      dup1\n      swap2\n      sub\n      swap1\n      return\n        /* \"contracts/TicTacToe.sol\":7315:7754  function restartGame() public {... */\n    tag_10:\n      tag_45\n      tag_46\n      jump\t// in\n    tag_45:\n      stop\n        /* \"contracts/TicTacToe.sol\":4240:4325  function getPlayerO() public view returns (address) {... */\n    tag_11:\n      tag_47\n      tag_48\n      jump\t// in\n    tag_47:\n      mload(0x40)\n      tag_49\n      swap2\n      swap1\n      tag_18\n      jump\t// in\n    tag_49:\n      mload(0x40)\n      dup1\n      swap2\n      sub\n      swap1\n      return\n        /* \"contracts/TicTacToe.sol\":4147:4232  function getPlayerX() public view returns (address) {... */\n    tag_12:\n      tag_50\n      tag_51\n      jump\t// in\n    tag_50:\n      mload(0x40)\n      tag_52\n      swap2\n      swap1\n      tag_18\n      jump\t// in\n    tag_52:\n      mload(0x40)\n      dup1\n      swap2\n      sub\n      swap1\n      return\n        /* \"contracts/TicTacToe.sol\":1757:1778  address public winner */\n    tag_13:\n      tag_53\n      tag_54\n      jump\t// in\n    tag_53:\n      mload(0x40)\n      tag_55\n      swap2\n      swap1\n      tag_18\n      jump\t// in\n    tag_55:\n      mload(0x40)\n      dup1\n      swap2\n      sub\n      swap1\n      return\n        /* \"contracts/TicTacToe.sol\":1652:1677  address public nextPlayer */\n    tag_16:\n      0x05\n      0x00\n      swap1\n      sload\n      swap1\n      0x0100\n      exp\n      swap1\n      div\n      0xffffffffffffffffffffffffffffffffffffffff\n      and\n      dup2\n      jump\t// out\n        /* \"contracts/TicTacToe.sol\":1684:1706  bool public isGameOver */\n    tag_20:\n      0x05\n      0x14\n      swap1\n      sload\n      swap1\n      0x0100\n      exp\n      swap1\n      div\n      0xff\n      and\n      dup2\n      jump\t// out\n        /* \"contracts/TicTacToe.sol\":4366:4463  function getBoardState() public view returns (uint8[3][3] memory) {... */\n    tag_24:\n        /* \"contracts/TicTacToe.sol\":4412:4430  uint8[3][3] memory */\n      tag_56\n      tag_57\n      jump\t// in\n    tag_56:\n        /* \"contracts/TicTacToe.sol\":4450:4455  board */\n      0x00\n        /* \"contracts/TicTacToe.sol\":4443:4455  return board */\n      0x03\n      dup1\n      0x20\n      mul\n      mload(0x40)\n      swap1\n      dup2\n      add\n      0x40\n      mstore\n      dup1\n      swap3\n      swap2\n      swap1\n      0x00\n      swap1\n    tag_59:\n      dup3\n      dup3\n      lt\n      iszero\n      tag_60\n      jumpi\n      dup4\n      dup3\n      add\n      0x03\n      dup1\n      0x20\n      mul\n      mload(0x40)\n      swap1\n      dup2\n      add\n      0x40\n      mstore\n      dup1\n      swap3\n      swap2\n      swap1\n      dup3\n      0x03\n      dup1\n      iszero\n      tag_62\n      jumpi\n      0x20\n      mul\n      dup3\n      add\n      swap2\n      0x00\n      swap1\n    tag_63:\n      dup3\n      dup3\n      swap1\n      sload\n      swap1\n      0x0100\n      exp\n      swap1\n      div\n      0xff\n      and\n      0xff\n      and\n      dup2\n      mstore\n      0x20\n      add\n      swap1\n      0x01\n      add\n      swap1\n      0x20\n      dup3\n      0x00\n      add\n      div\n      swap3\n      dup4\n      add\n      swap3\n      0x01\n      sub\n      dup3\n      mul\n      swap2\n      pop\n      dup1\n      dup5\n      gt\n      tag_63\n      jumpi\n      swap1\n      pop\n    tag_62:\n      pop\n      pop\n      pop\n      pop\n      pop\n      dup2\n      mstore\n      0x20\n      add\n      swap1\n      0x01\n      add\n      swap1\n      jump(tag_59)\n    tag_60:\n      pop\n      pop\n      pop\n      pop\n      swap1\n      pop\n        /* \"contracts/TicTacToe.sol\":4366:4463  function getBoardState() public view returns (uint8[3][3] memory) {... */\n      swap1\n      jump\t// out\n        /* \"contracts/TicTacToe.sol\":2127:2821  function initialize(address payable _playerX, address payable _playerO) public {... */\n    tag_30:\n        /* \"contracts/TicTacToe.sol\":2470:2471  0 */\n      0x00\n        /* \"contracts/TicTacToe.sol\":2451:2472  playerX == address(0) */\n      0xffffffffffffffffffffffffffffffffffffffff\n      and\n        /* \"contracts/TicTacToe.sol\":2451:2458  playerX */\n      0x03\n      0x00\n      swap1\n      sload\n      swap1\n      0x0100\n      exp\n      swap1\n      div\n      0xffffffffffffffffffffffffffffffffffffffff\n      and\n        /* \"contracts/TicTacToe.sol\":2451:2472  playerX == address(0) */\n      0xffffffffffffffffffffffffffffffffffffffff\n      and\n      eq\n        /* \"contracts/TicTacToe.sol\":2443:2501  require(playerX == address(0), \"Game already initialized\") */\n      tag_65\n      jumpi\n      mload(0x40)\n      0x08c379a000000000000000000000000000000000000000000000000000000000\n      dup2\n      mstore\n      0x04\n      add\n      tag_66\n      swap1\n      tag_67\n      jump\t// in\n    tag_66:\n      mload(0x40)\n      dup1\n      swap2\n      sub\n      swap1\n      revert\n    tag_65:\n        /* \"contracts/TicTacToe.sol\":2522:2530  _playerX */\n      dup2\n        /* \"contracts/TicTacToe.sol\":2512:2519  playerX */\n      0x03\n      0x00\n        /* \"contracts/TicTacToe.sol\":2512:2530  playerX = _playerX */\n      0x0100\n      exp\n      dup2\n      sload\n      dup2\n      0xffffffffffffffffffffffffffffffffffffffff\n      mul\n      not\n      and\n      swap1\n      dup4\n      0xffffffffffffffffffffffffffffffffffffffff\n      and\n      mul\n      or\n      swap1\n      sstore\n      pop\n        /* \"contracts/TicTacToe.sol\":2563:2570  playerX */\n      0x03\n      0x00\n      swap1\n      sload\n      swap1\n      0x0100\n      exp\n      swap1\n      div\n      0xffffffffffffffffffffffffffffffffffffffff\n      and\n        /* \"contracts/TicTacToe.sol\":2551:2570  _playerO != playerX */\n      0xffffffffffffffffffffffffffffffffffffffff\n      and\n        /* \"contracts/TicTacToe.sol\":2551:2559  _playerO */\n      dup2\n        /* \"contracts/TicTacToe.sol\":2551:2570  _playerO != playerX */\n      0xffffffffffffffffffffffffffffffffffffffff\n      and\n      sub\n        /* \"contracts/TicTacToe.sol\":2543:2616  require(_playerO != playerX, \"Other player must use a different address\") */\n      tag_68\n      jumpi\n      mload(0x40)\n      0x08c379a000000000000000000000000000000000000000000000000000000000\n      dup2\n      mstore\n      0x04\n      add\n      tag_69\n      swap1\n      tag_70\n      jump\t// in\n    tag_69:\n      mload(0x40)\n      dup1\n      swap2\n      sub\n      swap1\n      revert\n    tag_68:\n        /* \"contracts/TicTacToe.sol\":2637:2645  _playerO */\n      dup1\n        /* \"contracts/TicTacToe.sol\":2627:2634  playerO */\n      0x04\n      0x00\n        /* \"contracts/TicTacToe.sol\":2627:2645  playerO = _playerO */\n      0x0100\n      exp\n      dup2\n      sload\n      dup2\n      0xffffffffffffffffffffffffffffffffffffffff\n      mul\n      not\n      and\n      swap1\n      dup4\n      0xffffffffffffffffffffffffffffffffffffffff\n      and\n      mul\n      or\n      swap1\n      sstore\n      pop\n        /* \"contracts/TicTacToe.sol\":2671:2678  playerX */\n      0x03\n      0x00\n      swap1\n      sload\n      swap1\n      0x0100\n      exp\n      swap1\n      div\n      0xffffffffffffffffffffffffffffffffffffffff\n      and\n        /* \"contracts/TicTacToe.sol\":2658:2668  nextPlayer */\n      0x05\n      0x00\n        /* \"contracts/TicTacToe.sol\":2658:2678  nextPlayer = playerX */\n      0x0100\n      exp\n      dup2\n      sload\n      dup2\n      0xffffffffffffffffffffffffffffffffffffffff\n      mul\n      not\n      and\n      swap1\n      dup4\n      0xffffffffffffffffffffffffffffffffffffffff\n      and\n      mul\n      or\n      swap1\n      sstore\n      pop\n        /* \"contracts/TicTacToe.sol\":2702:2707  false */\n      0x00\n        /* \"contracts/TicTacToe.sol\":2689:2699  isGameOver */\n      0x05\n      0x14\n        /* \"contracts/TicTacToe.sol\":2689:2707  isGameOver = false */\n      0x0100\n      exp\n      dup2\n      sload\n      dup2\n      0xff\n      mul\n      not\n      and\n      swap1\n      dup4\n      iszero\n      iszero\n      mul\n      or\n      swap1\n      sstore\n      pop\n        /* \"contracts/TicTacToe.sol\":2805:2812  playerO */\n      0x04\n      0x00\n      swap1\n      sload\n      swap1\n      0x0100\n      exp\n      swap1\n      div\n      0xffffffffffffffffffffffffffffffffffffffff\n      and\n        /* \"contracts/TicTacToe.sol\":2769:2813  GameStarted(address(this), playerX, playerO) */\n      0xffffffffffffffffffffffffffffffffffffffff\n      and\n        /* \"contracts/TicTacToe.sol\":2796:2803  playerX */\n      0x03\n      0x00\n      swap1\n      sload\n      swap1\n      0x0100\n      exp\n      swap1\n      div\n      0xffffffffffffffffffffffffffffffffffffffff\n      and\n        /* \"contracts/TicTacToe.sol\":2769:2813  GameStarted(address(this), playerX, playerO) */\n      0xffffffffffffffffffffffffffffffffffffffff\n      and\n        /* \"contracts/TicTacToe.sol\":2789:2793  this */\n      address\n        /* \"contracts/TicTacToe.sol\":2769:2813  GameStarted(address(this), playerX, playerO) */\n      0xffffffffffffffffffffffffffffffffffffffff\n      and\n      0xe733eb5c42c855d38269254700780d064a49ef1611d1f3bfdda632ec19891f56\n      mload(0x40)\n      mload(0x40)\n      dup1\n      swap2\n      sub\n      swap1\n      log4\n        /* \"contracts/TicTacToe.sol\":2127:2821  function initialize(address payable _playerX, address payable _playerO) public {... */\n      pop\n      pop\n      jump\t// out\n        /* \"contracts/TicTacToe.sol\":4507:5396  function makeMove(uint8 row, uint8 col) public {... */\n    tag_34:\n        /* \"contracts/TicTacToe.sol\":4658:4668  isGameOver */\n      0x05\n      0x14\n      swap1\n      sload\n      swap1\n      0x0100\n      exp\n      swap1\n      div\n      0xff\n      and\n        /* \"contracts/TicTacToe.sol\":4657:4668  !isGameOver */\n      iszero\n        /* \"contracts/TicTacToe.sol\":4649:4690  require(!isGameOver, \"The game is over.\") */\n      tag_72\n      jumpi\n      mload(0x40)\n      0x08c379a000000000000000000000000000000000000000000000000000000000\n      dup2\n      mstore\n      0x04\n      add\n      tag_73\n      swap1\n      tag_74\n      jump\t// in\n    tag_73:\n      mload(0x40)\n      dup1\n      swap2\n      sub\n      swap1\n      revert\n    tag_72:\n        /* \"contracts/TicTacToe.sol\":4782:4792  nextPlayer */\n      0x05\n      0x00\n      swap1\n      sload\n      swap1\n      0x0100\n      exp\n      swap1\n      div\n      0xffffffffffffffffffffffffffffffffffffffff\n      and\n        /* \"contracts/TicTacToe.sol\":4768:4792  msg.sender == nextPlayer */\n      0xffffffffffffffffffffffffffffffffffffffff\n      and\n        /* \"contracts/TicTacToe.sol\":4768:4778  msg.sender */\n      caller\n        /* \"contracts/TicTacToe.sol\":4768:4792  msg.sender == nextPlayer */\n      0xffffffffffffffffffffffffffffffffffffffff\n      and\n      eq\n        /* \"contracts/TicTacToe.sol\":4760:4816  require(msg.sender == nextPlayer, \"It's not your turn.\") */\n      tag_75\n      jumpi\n      mload(0x40)\n      0x08c379a000000000000000000000000000000000000000000000000000000000\n      dup2\n      mstore\n      0x04\n      add\n      tag_76\n      swap1\n      tag_77\n      jump\t// in\n    tag_76:\n      mload(0x40)\n      dup1\n      swap2\n      sub\n      swap1\n      revert\n    tag_75:\n        /* \"contracts/TicTacToe.sol\":4917:4918  3 */\n      0x03\n        /* \"contracts/TicTacToe.sol\":4911:4914  row */\n      dup3\n        /* \"contracts/TicTacToe.sol\":4911:4918  row < 3 */\n      0xff\n      and\n      lt\n        /* \"contracts/TicTacToe.sol\":4911:4929  row < 3 && col < 3 */\n      dup1\n      iszero\n      tag_78\n      jumpi\n      pop\n        /* \"contracts/TicTacToe.sol\":4928:4929  3 */\n      0x03\n        /* \"contracts/TicTacToe.sol\":4922:4925  col */\n      dup2\n        /* \"contracts/TicTacToe.sol\":4922:4929  col < 3 */\n      0xff\n      and\n      lt\n        /* \"contracts/TicTacToe.sol\":4911:4929  row < 3 && col < 3 */\n    tag_78:\n        /* \"contracts/TicTacToe.sol\":4903:4965  require(row < 3 && col < 3, \"Invalid row or column placement\") */\n      tag_79\n      jumpi\n      mload(0x40)\n      0x08c379a000000000000000000000000000000000000000000000000000000000\n      dup2\n      mstore\n      0x04\n      add\n      tag_80\n      swap1\n      tag_81\n      jump\t// in\n    tag_80:\n      mload(0x40)\n      dup1\n      swap2\n      sub\n      swap1\n      revert\n    tag_79:\n        /* \"contracts/TicTacToe.sol\":5051:5052  0 */\n      0x00\n        /* \"contracts/TicTacToe.sol\":5032:5037  board */\n      0x00\n        /* \"contracts/TicTacToe.sol\":5038:5041  row */\n      dup4\n        /* \"contracts/TicTacToe.sol\":5032:5042  board[row] */\n      0xff\n      and\n      0x03\n      dup2\n      lt\n      tag_82\n      jumpi\n      tag_83\n      tag_84\n      jump\t// in\n    tag_83:\n    tag_82:\n      add\n        /* \"contracts/TicTacToe.sol\":5043:5046  col */\n      dup3\n        /* \"contracts/TicTacToe.sol\":5032:5047  board[row][col] */\n      0xff\n      and\n      0x03\n      dup2\n      lt\n      tag_86\n      jumpi\n      tag_87\n      tag_84\n      jump\t// in\n    tag_87:\n    tag_86:\n      0x20\n      swap2\n      dup3\n      dup3\n      div\n      add\n      swap2\n      swap1\n      mod\n      swap1\n      sload\n      swap1\n      0x0100\n      exp\n      swap1\n      div\n      0xff\n      and\n        /* \"contracts/TicTacToe.sol\":5032:5052  board[row][col] == 0 */\n      0xff\n      and\n      eq\n        /* \"contracts/TicTacToe.sol\":5024:5079  require(board[row][col] == 0, \"Cell is already taken.\") */\n      tag_89\n      jumpi\n      mload(0x40)\n      0x08c379a000000000000000000000000000000000000000000000000000000000\n      dup2\n      mstore\n      0x04\n      add\n      tag_90\n      swap1\n      tag_91\n      jump\t// in\n    tag_90:\n      mload(0x40)\n      dup1\n      swap2\n      sub\n      swap1\n      revert\n    tag_89:\n        /* \"contracts/TicTacToe.sol\":5186:5193  playerX */\n      0x03\n      0x00\n      swap1\n      sload\n      swap1\n      0x0100\n      exp\n      swap1\n      div\n      0xffffffffffffffffffffffffffffffffffffffff\n      and\n        /* \"contracts/TicTacToe.sol\":5172:5193  msg.sender == playerX */\n      0xffffffffffffffffffffffffffffffffffffffff\n      and\n        /* \"contracts/TicTacToe.sol\":5172:5182  msg.sender */\n      caller\n        /* \"contracts/TicTacToe.sol\":5172:5193  msg.sender == playerX */\n      0xffffffffffffffffffffffffffffffffffffffff\n      and\n      sub\n        /* \"contracts/TicTacToe.sol\":5168:5293  if (msg.sender == playerX) {... */\n      tag_92\n      jumpi\n        /* \"contracts/TicTacToe.sol\":5228:5229  1 */\n      0x01\n        /* \"contracts/TicTacToe.sol\":5210:5215  board */\n      0x00\n        /* \"contracts/TicTacToe.sol\":5216:5219  row */\n      dup4\n        /* \"contracts/TicTacToe.sol\":5210:5220  board[row] */\n      0xff\n      and\n      0x03\n      dup2\n      lt\n      tag_93\n      jumpi\n      tag_94\n      tag_84\n      jump\t// in\n    tag_94:\n    tag_93:\n      add\n        /* \"contracts/TicTacToe.sol\":5221:5224  col */\n      dup3\n        /* \"contracts/TicTacToe.sol\":5210:5225  board[row][col] */\n      0xff\n      and\n      0x03\n      dup2\n      lt\n      tag_96\n      jumpi\n      tag_97\n      tag_84\n      jump\t// in\n    tag_97:\n    tag_96:\n      0x20\n      swap2\n      dup3\n      dup3\n      div\n      add\n      swap2\n      swap1\n      mod\n        /* \"contracts/TicTacToe.sol\":5210:5229  board[row][col] = 1 */\n      0x0100\n      exp\n      dup2\n      sload\n      dup2\n      0xff\n      mul\n      not\n      and\n      swap1\n      dup4\n      0xff\n      and\n      mul\n      or\n      swap1\n      sstore\n      pop\n        /* \"contracts/TicTacToe.sol\":5168:5293  if (msg.sender == playerX) {... */\n      jump(tag_99)\n    tag_92:\n        /* \"contracts/TicTacToe.sol\":5280:5281  2 */\n      0x02\n        /* \"contracts/TicTacToe.sol\":5262:5267  board */\n      0x00\n        /* \"contracts/TicTacToe.sol\":5268:5271  row */\n      dup4\n        /* \"contracts/TicTacToe.sol\":5262:5272  board[row] */\n      0xff\n      and\n      0x03\n      dup2\n      lt\n      tag_100\n      jumpi\n      tag_101\n      tag_84\n      jump\t// in\n    tag_101:\n    tag_100:\n      add\n        /* \"contracts/TicTacToe.sol\":5273:5276  col */\n      dup3\n        /* \"contracts/TicTacToe.sol\":5262:5277  board[row][col] */\n      0xff\n      and\n      0x03\n      dup2\n      lt\n      tag_103\n      jumpi\n      tag_104\n      tag_84\n      jump\t// in\n    tag_104:\n    tag_103:\n      0x20\n      swap2\n      dup3\n      dup3\n      div\n      add\n      swap2\n      swap1\n      mod\n        /* \"contracts/TicTacToe.sol\":5262:5281  board[row][col] = 2 */\n      0x0100\n      exp\n      dup2\n      sload\n      dup2\n      0xff\n      mul\n      not\n      and\n      swap1\n      dup4\n      0xff\n      and\n      mul\n      or\n      swap1\n      sstore\n      pop\n        /* \"contracts/TicTacToe.sol\":5168:5293  if (msg.sender == playerX) {... */\n    tag_99:\n        /* \"contracts/TicTacToe.sol\":5338:5348  checkWin() */\n      tag_106\n        /* \"contracts/TicTacToe.sol\":5338:5346  checkWin */\n      tag_107\n        /* \"contracts/TicTacToe.sol\":5338:5348  checkWin() */\n      jump\t// in\n    tag_106:\n        /* \"contracts/TicTacToe.sol\":5364:5374  isGameOver */\n      0x05\n      0x14\n      swap1\n      sload\n      swap1\n      0x0100\n      exp\n      swap1\n      div\n      0xff\n      and\n        /* \"contracts/TicTacToe.sol\":5359:5388  if (!isGameOver) switchTurn() */\n      tag_108\n      jumpi\n        /* \"contracts/TicTacToe.sol\":5376:5388  switchTurn() */\n      tag_109\n        /* \"contracts/TicTacToe.sol\":5376:5386  switchTurn */\n      tag_110\n        /* \"contracts/TicTacToe.sol\":5376:5388  switchTurn() */\n      jump\t// in\n    tag_109:\n        /* \"contracts/TicTacToe.sol\":5359:5388  if (!isGameOver) switchTurn() */\n    tag_108:\n        /* \"contracts/TicTacToe.sol\":4507:5396  function makeMove(uint8 row, uint8 col) public {... */\n      pop\n      pop\n      jump\t// out\n        /* \"contracts/TicTacToe.sol\":1165:1189  uint8[3][3] public board */\n    tag_38:\n      0x00\n      dup3\n      0x03\n      dup2\n      lt\n      tag_111\n      jumpi\n      0x00\n      dup1\n      revert\n    tag_111:\n      add\n      dup2\n      0x03\n      dup2\n      lt\n      tag_113\n      jumpi\n      0x00\n      dup1\n      revert\n    tag_113:\n      0x20\n      swap2\n      dup3\n      dup3\n      div\n      add\n      swap2\n      swap1\n      mod\n      swap2\n      pop\n      swap2\n      pop\n      swap1\n      sload\n      swap1\n      0x0100\n      exp\n      swap1\n      div\n      0xff\n      and\n      dup2\n      jump\t// out\n        /* \"contracts/TicTacToe.sol\":4034:4139  function getPlayers() public view returns (address, address) {... */\n    tag_42:\n        /* \"contracts/TicTacToe.sol\":4077:4084  address */\n      0x00\n        /* \"contracts/TicTacToe.sol\":4086:4093  address */\n      0x00\n        /* \"contracts/TicTacToe.sol\":4114:4121  playerX */\n      0x03\n      0x00\n      swap1\n      sload\n      swap1\n      0x0100\n      exp\n      swap1\n      div\n      0xffffffffffffffffffffffffffffffffffffffff\n      and\n        /* \"contracts/TicTacToe.sol\":4123:4130  playerO */\n      0x04\n      0x00\n      swap1\n      sload\n      swap1\n      0x0100\n      exp\n      swap1\n      div\n      0xffffffffffffffffffffffffffffffffffffffff\n      and\n        /* \"contracts/TicTacToe.sol\":4106:4131  return (playerX, playerO) */\n      swap2\n      pop\n      swap2\n      pop\n        /* \"contracts/TicTacToe.sol\":4034:4139  function getPlayers() public view returns (address, address) {... */\n      swap1\n      swap2\n      jump\t// out\n        /* \"contracts/TicTacToe.sol\":7315:7754  function restartGame() public {... */\n    tag_46:\n        /* \"contracts/TicTacToe.sol\":7378:7385  playerX */\n      0x03\n      0x00\n      swap1\n      sload\n      swap1\n      0x0100\n      exp\n      swap1\n      div\n      0xffffffffffffffffffffffffffffffffffffffff\n      and\n        /* \"contracts/TicTacToe.sol\":7364:7385  msg.sender == playerX */\n      0xffffffffffffffffffffffffffffffffffffffff\n      and\n        /* \"contracts/TicTacToe.sol\":7364:7374  msg.sender */\n      caller\n        /* \"contracts/TicTacToe.sol\":7364:7385  msg.sender == playerX */\n      0xffffffffffffffffffffffffffffffffffffffff\n      and\n      eq\n        /* \"contracts/TicTacToe.sol\":7364:7410  msg.sender == playerX || msg.sender == playerO */\n      dup1\n      tag_117\n      jumpi\n      pop\n        /* \"contracts/TicTacToe.sol\":7403:7410  playerO */\n      0x04\n      0x00\n      swap1\n      sload\n      swap1\n      0x0100\n      exp\n      swap1\n      div\n      0xffffffffffffffffffffffffffffffffffffffff\n      and\n        /* \"contracts/TicTacToe.sol\":7389:7410  msg.sender == playerO */\n      0xffffffffffffffffffffffffffffffffffffffff\n      and\n        /* \"contracts/TicTacToe.sol\":7389:7399  msg.sender */\n      caller\n        /* \"contracts/TicTacToe.sol\":7389:7410  msg.sender == playerO */\n      0xffffffffffffffffffffffffffffffffffffffff\n      and\n      eq\n        /* \"contracts/TicTacToe.sol\":7364:7410  msg.sender == playerX || msg.sender == playerO */\n    tag_117:\n        /* \"contracts/TicTacToe.sol\":7356:7448  require(msg.sender == playerX || msg.sender == playerO, \"Cannot restart game, not a player\") */\n      tag_118\n      jumpi\n      mload(0x40)\n      0x08c379a000000000000000000000000000000000000000000000000000000000\n      dup2\n      mstore\n      0x04\n      add\n      tag_119\n      swap1\n      tag_120\n      jump\t// in\n    tag_119:\n      mload(0x40)\n      dup1\n      swap2\n      sub\n      swap1\n      revert\n    tag_118:\n        /* \"contracts/TicTacToe.sol\":7466:7473  uint8 i */\n      0x00\n        /* \"contracts/TicTacToe.sol\":7476:7477  0 */\n      0x00\n        /* \"contracts/TicTacToe.sol\":7466:7477  uint8 i = 0 */\n      swap1\n      pop\n        /* \"contracts/TicTacToe.sol\":7461:7588  for (uint8 i = 0; i < board.length; i++) {... */\n    tag_121:\n        /* \"contracts/TicTacToe.sol\":7483:7495  board.length */\n      0x03\n        /* \"contracts/TicTacToe.sol\":7479:7480  i */\n      dup2\n        /* \"contracts/TicTacToe.sol\":7479:7495  i < board.length */\n      0xff\n      and\n      lt\n        /* \"contracts/TicTacToe.sol\":7461:7588  for (uint8 i = 0; i < board.length; i++) {... */\n      iszero\n      tag_122\n      jumpi\n        /* \"contracts/TicTacToe.sol\":7522:7529  uint8 j */\n      0x00\n        /* \"contracts/TicTacToe.sol\":7532:7533  0 */\n      0x00\n        /* \"contracts/TicTacToe.sol\":7522:7533  uint8 j = 0 */\n      swap1\n      pop\n        /* \"contracts/TicTacToe.sol\":7517:7576  for (uint8 j = 0; j < board[i].length; j++) board[i][j] = 0 */\n    tag_124:\n        /* \"contracts/TicTacToe.sol\":7539:7544  board */\n      0x00\n        /* \"contracts/TicTacToe.sol\":7545:7546  i */\n      dup3\n        /* \"contracts/TicTacToe.sol\":7539:7547  board[i] */\n      0xff\n      and\n      0x03\n      dup2\n      lt\n      tag_127\n      jumpi\n      tag_128\n      tag_84\n      jump\t// in\n    tag_128:\n    tag_127:\n      pop\n      pop\n        /* \"contracts/TicTacToe.sol\":7539:7554  board[i].length */\n      0x03\n        /* \"contracts/TicTacToe.sol\":7535:7536  j */\n      dup2\n        /* \"contracts/TicTacToe.sol\":7535:7554  j < board[i].length */\n      0xff\n      and\n      lt\n        /* \"contracts/TicTacToe.sol\":7517:7576  for (uint8 j = 0; j < board[i].length; j++) board[i][j] = 0 */\n      iszero\n      tag_125\n      jumpi\n        /* \"contracts/TicTacToe.sol\":7575:7576  0 */\n      0x00\n        /* \"contracts/TicTacToe.sol\":7561:7566  board */\n      0x00\n        /* \"contracts/TicTacToe.sol\":7567:7568  i */\n      dup4\n        /* \"contracts/TicTacToe.sol\":7561:7569  board[i] */\n      0xff\n      and\n      0x03\n      dup2\n      lt\n      tag_130\n      jumpi\n      tag_131\n      tag_84\n      jump\t// in\n    tag_131:\n    tag_130:\n      add\n        /* \"contracts/TicTacToe.sol\":7570:7571  j */\n      dup3\n        /* \"contracts/TicTacToe.sol\":7561:7572  board[i][j] */\n      0xff\n      and\n      0x03\n      dup2\n      lt\n      tag_133\n      jumpi\n      tag_134\n      tag_84\n      jump\t// in\n    tag_134:\n    tag_133:\n      0x20\n      swap2\n      dup3\n      dup3\n      div\n      add\n      swap2\n      swap1\n      mod\n        /* \"contracts/TicTacToe.sol\":7561:7576  board[i][j] = 0 */\n      0x0100\n      exp\n      dup2\n      sload\n      dup2\n      0xff\n      mul\n      not\n      and\n      swap1\n      dup4\n      0xff\n      and\n      mul\n      or\n      swap1\n      sstore\n      pop\n        /* \"contracts/TicTacToe.sol\":7556:7559  j++ */\n      dup1\n      dup1\n      tag_136\n      swap1\n      tag_137\n      jump\t// in\n    tag_136:\n      swap2\n      pop\n      pop\n        /* \"contracts/TicTacToe.sol\":7517:7576  for (uint8 j = 0; j < board[i].length; j++) board[i][j] = 0 */\n      jump(tag_124)\n    tag_125:\n      pop\n        /* \"contracts/TicTacToe.sol\":7497:7500  i++ */\n      dup1\n      dup1\n      tag_138\n      swap1\n      tag_137\n      jump\t// in\n    tag_138:\n      swap2\n      pop\n      pop\n        /* \"contracts/TicTacToe.sol\":7461:7588  for (uint8 i = 0; i < board.length; i++) {... */\n      jump(tag_121)\n    tag_122:\n      pop\n        /* \"contracts/TicTacToe.sol\":7613:7618  false */\n      0x00\n        /* \"contracts/TicTacToe.sol\":7600:7610  isGameOver */\n      0x05\n      0x14\n        /* \"contracts/TicTacToe.sol\":7600:7618  isGameOver = false */\n      0x0100\n      exp\n      dup2\n      sload\n      dup2\n      0xff\n      mul\n      not\n      and\n      swap1\n      dup4\n      iszero\n      iszero\n      mul\n      or\n      swap1\n      sstore\n      pop\n        /* \"contracts/TicTacToe.sol\":7646:7647  0 */\n      0x00\n        /* \"contracts/TicTacToe.sol\":7629:7635  winner */\n      0x06\n      0x00\n        /* \"contracts/TicTacToe.sol\":7629:7648  winner = address(0) */\n      0x0100\n      exp\n      dup2\n      sload\n      dup2\n      0xffffffffffffffffffffffffffffffffffffffff\n      mul\n      not\n      and\n      swap1\n      dup4\n      0xffffffffffffffffffffffffffffffffffffffff\n      and\n      mul\n      or\n      swap1\n      sstore\n      pop\n        /* \"contracts/TicTacToe.sol\":7674:7684  msg.sender */\n      caller\n        /* \"contracts/TicTacToe.sol\":7661:7671  nextPlayer */\n      0x05\n      0x00\n        /* \"contracts/TicTacToe.sol\":7661:7684  nextPlayer = msg.sender */\n      0x0100\n      exp\n      dup2\n      sload\n      dup2\n      0xffffffffffffffffffffffffffffffffffffffff\n      mul\n      not\n      and\n      swap1\n      dup4\n      0xffffffffffffffffffffffffffffffffffffffff\n      and\n      mul\n      or\n      swap1\n      sstore\n      pop\n        /* \"contracts/TicTacToe.sol\":7738:7745  playerO */\n      0x04\n      0x00\n      swap1\n      sload\n      swap1\n      0x0100\n      exp\n      swap1\n      div\n      0xffffffffffffffffffffffffffffffffffffffff\n      and\n        /* \"contracts/TicTacToe.sol\":7702:7746  GameStarted(address(this), playerX, playerO) */\n      0xffffffffffffffffffffffffffffffffffffffff\n      and\n        /* \"contracts/TicTacToe.sol\":7729:7736  playerX */\n      0x03\n      0x00\n      swap1\n      sload\n      swap1\n      0x0100\n      exp\n      swap1\n      div\n      0xffffffffffffffffffffffffffffffffffffffff\n      and\n        /* \"contracts/TicTacToe.sol\":7702:7746  GameStarted(address(this), playerX, playerO) */\n      0xffffffffffffffffffffffffffffffffffffffff\n      and\n        /* \"contracts/TicTacToe.sol\":7722:7726  this */\n      address\n        /* \"contracts/TicTacToe.sol\":7702:7746  GameStarted(address(this), playerX, playerO) */\n      0xffffffffffffffffffffffffffffffffffffffff\n      and\n      0xe733eb5c42c855d38269254700780d064a49ef1611d1f3bfdda632ec19891f56\n      mload(0x40)\n      mload(0x40)\n      dup1\n      swap2\n      sub\n      swap1\n      log4\n        /* \"contracts/TicTacToe.sol\":7315:7754  function restartGame() public {... */\n      jump\t// out\n        /* \"contracts/TicTacToe.sol\":4240:4325  function getPlayerO() public view returns (address) {... */\n    tag_48:\n        /* \"contracts/TicTacToe.sol\":4283:4290  address */\n      0x00\n        /* \"contracts/TicTacToe.sol\":4310:4317  playerO */\n      0x04\n      0x00\n      swap1\n      sload\n      swap1\n      0x0100\n      exp\n      swap1\n      div\n      0xffffffffffffffffffffffffffffffffffffffff\n      and\n        /* \"contracts/TicTacToe.sol\":4303:4317  return playerO */\n      swap1\n      pop\n        /* \"contracts/TicTacToe.sol\":4240:4325  function getPlayerO() public view returns (address) {... */\n      swap1\n      jump\t// out\n        /* \"contracts/TicTacToe.sol\":4147:4232  function getPlayerX() public view returns (address) {... */\n    tag_51:\n        /* \"contracts/TicTacToe.sol\":4190:4197  address */\n      0x00\n        /* \"contracts/TicTacToe.sol\":4217:4224  playerX */\n      0x03\n      0x00\n      swap1\n      sload\n      swap1\n      0x0100\n      exp\n      swap1\n      div\n      0xffffffffffffffffffffffffffffffffffffffff\n      and\n        /* \"contracts/TicTacToe.sol\":4210:4224  return playerX */\n      swap1\n      pop\n        /* \"contracts/TicTacToe.sol\":4147:4232  function getPlayerX() public view returns (address) {... */\n      swap1\n      jump\t// out\n        /* \"contracts/TicTacToe.sol\":1757:1778  address public winner */\n    tag_54:\n      0x06\n      0x00\n      swap1\n      sload\n      swap1\n      0x0100\n      exp\n      swap1\n      div\n      0xffffffffffffffffffffffffffffffffffffffff\n      and\n      dup2\n      jump\t// out\n        /* \"contracts/TicTacToe.sol\":5875:7307  function checkWin() private {... */\n    tag_107:\n        /* \"contracts/TicTacToe.sol\":5977:5989  uint8 marker */\n      0x00\n        /* \"contracts/TicTacToe.sol\":6018:6025  playerX */\n      0x03\n      0x00\n      swap1\n      sload\n      swap1\n      0x0100\n      exp\n      swap1\n      div\n      0xffffffffffffffffffffffffffffffffffffffff\n      and\n        /* \"contracts/TicTacToe.sol\":6004:6025  msg.sender == playerX */\n      0xffffffffffffffffffffffffffffffffffffffff\n      and\n        /* \"contracts/TicTacToe.sol\":6004:6014  msg.sender */\n      caller\n        /* \"contracts/TicTacToe.sol\":6004:6025  msg.sender == playerX */\n      0xffffffffffffffffffffffffffffffffffffffff\n      and\n      sub\n        /* \"contracts/TicTacToe.sol\":6000:6107  if (msg.sender == playerX) {... */\n      tag_142\n      jumpi\n        /* \"contracts/TicTacToe.sol\":6051:6052  1 */\n      0x01\n        /* \"contracts/TicTacToe.sol\":6042:6052  marker = 1 */\n      swap1\n      pop\n        /* \"contracts/TicTacToe.sol\":6000:6107  if (msg.sender == playerX) {... */\n      jump(tag_143)\n    tag_142:\n        /* \"contracts/TicTacToe.sol\":6094:6095  2 */\n      0x02\n        /* \"contracts/TicTacToe.sol\":6085:6095  marker = 2 */\n      swap1\n      pop\n        /* \"contracts/TicTacToe.sol\":6000:6107  if (msg.sender == playerX) {... */\n    tag_143:\n        /* \"contracts/TicTacToe.sol\":6191:6198  uint8 i */\n      0x00\n        /* \"contracts/TicTacToe.sol\":6201:6202  0 */\n      0x00\n        /* \"contracts/TicTacToe.sol\":6191:6202  uint8 i = 0 */\n      swap1\n      pop\n        /* \"contracts/TicTacToe.sol\":6186:6532  for (uint8 i = 0; i < 3; i++) {... */\n    tag_144:\n        /* \"contracts/TicTacToe.sol\":6208:6209  3 */\n      0x03\n        /* \"contracts/TicTacToe.sol\":6204:6205  i */\n      dup2\n        /* \"contracts/TicTacToe.sol\":6204:6209  i < 3 */\n      0xff\n      and\n      lt\n        /* \"contracts/TicTacToe.sol\":6186:6532  for (uint8 i = 0; i < 3; i++) {... */\n      iszero\n      tag_145\n      jumpi\n        /* \"contracts/TicTacToe.sol\":6250:6256  marker */\n      dup2\n        /* \"contracts/TicTacToe.sol\":6235:6256  board[i][0] == marker */\n      0xff\n      and\n        /* \"contracts/TicTacToe.sol\":6235:6240  board */\n      0x00\n        /* \"contracts/TicTacToe.sol\":6241:6242  i */\n      dup3\n        /* \"contracts/TicTacToe.sol\":6235:6243  board[i] */\n      0xff\n      and\n      0x03\n      dup2\n      lt\n      tag_147\n      jumpi\n      tag_148\n      tag_84\n      jump\t// in\n    tag_148:\n    tag_147:\n      add\n        /* \"contracts/TicTacToe.sol\":6244:6245  0 */\n      0x00\n        /* \"contracts/TicTacToe.sol\":6235:6246  board[i][0] */\n      0x03\n      dup2\n      lt\n      tag_150\n      jumpi\n      tag_151\n      tag_84\n      jump\t// in\n    tag_151:\n    tag_150:\n      0x20\n      swap2\n      dup3\n      dup3\n      div\n      add\n      swap2\n      swap1\n      mod\n      swap1\n      sload\n      swap1\n      0x0100\n      exp\n      swap1\n      div\n      0xff\n      and\n        /* \"contracts/TicTacToe.sol\":6235:6256  board[i][0] == marker */\n      0xff\n      and\n      eq\n        /* \"contracts/TicTacToe.sol\":6235:6281  board[i][0] == marker && board[i][1] == marker */\n      dup1\n      iszero\n      tag_153\n      jumpi\n      pop\n        /* \"contracts/TicTacToe.sol\":6275:6281  marker */\n      dup2\n        /* \"contracts/TicTacToe.sol\":6260:6281  board[i][1] == marker */\n      0xff\n      and\n        /* \"contracts/TicTacToe.sol\":6260:6265  board */\n      0x00\n        /* \"contracts/TicTacToe.sol\":6266:6267  i */\n      dup3\n        /* \"contracts/TicTacToe.sol\":6260:6268  board[i] */\n      0xff\n      and\n      0x03\n      dup2\n      lt\n      tag_154\n      jumpi\n      tag_155\n      tag_84\n      jump\t// in\n    tag_155:\n    tag_154:\n      add\n        /* \"contracts/TicTacToe.sol\":6269:6270  1 */\n      0x01\n        /* \"contracts/TicTacToe.sol\":6260:6271  board[i][1] */\n      0x03\n      dup2\n      lt\n      tag_157\n      jumpi\n      tag_158\n      tag_84\n      jump\t// in\n    tag_158:\n    tag_157:\n      0x20\n      swap2\n      dup3\n      dup3\n      div\n      add\n      swap2\n      swap1\n      mod\n      swap1\n      sload\n      swap1\n      0x0100\n      exp\n      swap1\n      div\n      0xff\n      and\n        /* \"contracts/TicTacToe.sol\":6260:6281  board[i][1] == marker */\n      0xff\n      and\n      eq\n        /* \"contracts/TicTacToe.sol\":6235:6281  board[i][0] == marker && board[i][1] == marker */\n    tag_153:\n        /* \"contracts/TicTacToe.sol\":6235:6306  board[i][0] == marker && board[i][1] == marker && board[i][2] == marker */\n      dup1\n      iszero\n      tag_160\n      jumpi\n      pop\n        /* \"contracts/TicTacToe.sol\":6300:6306  marker */\n      dup2\n        /* \"contracts/TicTacToe.sol\":6285:6306  board[i][2] == marker */\n      0xff\n      and\n        /* \"contracts/TicTacToe.sol\":6285:6290  board */\n      0x00\n        /* \"contracts/TicTacToe.sol\":6291:6292  i */\n      dup3\n        /* \"contracts/TicTacToe.sol\":6285:6293  board[i] */\n      0xff\n      and\n      0x03\n      dup2\n      lt\n      tag_161\n      jumpi\n      tag_162\n      tag_84\n      jump\t// in\n    tag_162:\n    tag_161:\n      add\n        /* \"contracts/TicTacToe.sol\":6294:6295  2 */\n      0x02\n        /* \"contracts/TicTacToe.sol\":6285:6296  board[i][2] */\n      0x03\n      dup2\n      lt\n      tag_164\n      jumpi\n      tag_165\n      tag_84\n      jump\t// in\n    tag_165:\n    tag_164:\n      0x20\n      swap2\n      dup3\n      dup3\n      div\n      add\n      swap2\n      swap1\n      mod\n      swap1\n      sload\n      swap1\n      0x0100\n      exp\n      swap1\n      div\n      0xff\n      and\n        /* \"contracts/TicTacToe.sol\":6285:6306  board[i][2] == marker */\n      0xff\n      and\n      eq\n        /* \"contracts/TicTacToe.sol\":6235:6306  board[i][0] == marker && board[i][1] == marker && board[i][2] == marker */\n    tag_160:\n        /* \"contracts/TicTacToe.sol\":6231:6369  if (board[i][0] == marker && board[i][1] == marker && board[i][2] == marker) {... */\n      iszero\n      tag_167\n      jumpi\n        /* \"contracts/TicTacToe.sol\":6334:6353  endGameWithWinner() */\n      tag_168\n        /* \"contracts/TicTacToe.sol\":6334:6351  endGameWithWinner */\n      tag_169\n        /* \"contracts/TicTacToe.sol\":6334:6353  endGameWithWinner() */\n      jump\t// in\n    tag_168:\n        /* \"contracts/TicTacToe.sol\":6327:6353  return endGameWithWinner() */\n      pop\n      pop\n      jump(tag_141)\n        /* \"contracts/TicTacToe.sol\":6231:6369  if (board[i][0] == marker && board[i][1] == marker && board[i][2] == marker) {... */\n    tag_167:\n        /* \"contracts/TicTacToe.sol\":6402:6408  marker */\n      dup2\n        /* \"contracts/TicTacToe.sol\":6387:6408  board[0][i] == marker */\n      0xff\n      and\n        /* \"contracts/TicTacToe.sol\":6387:6392  board */\n      0x00\n        /* \"contracts/TicTacToe.sol\":6393:6394  0 */\n      0x00\n        /* \"contracts/TicTacToe.sol\":6387:6395  board[0] */\n      0x03\n      dup2\n      lt\n      tag_170\n      jumpi\n      tag_171\n      tag_84\n      jump\t// in\n    tag_171:\n    tag_170:\n      add\n        /* \"contracts/TicTacToe.sol\":6396:6397  i */\n      dup3\n        /* \"contracts/TicTacToe.sol\":6387:6398  board[0][i] */\n      0xff\n      and\n      0x03\n      dup2\n      lt\n      tag_173\n      jumpi\n      tag_174\n      tag_84\n      jump\t// in\n    tag_174:\n    tag_173:\n      0x20\n      swap2\n      dup3\n      dup3\n      div\n      add\n      swap2\n      swap1\n      mod\n      swap1\n      sload\n      swap1\n      0x0100\n      exp\n      swap1\n      div\n      0xff\n      and\n        /* \"contracts/TicTacToe.sol\":6387:6408  board[0][i] == marker */\n      0xff\n      and\n      eq\n        /* \"contracts/TicTacToe.sol\":6387:6433  board[0][i] == marker && board[1][i] == marker */\n      dup1\n      iszero\n      tag_176\n      jumpi\n      pop\n        /* \"contracts/TicTacToe.sol\":6427:6433  marker */\n      dup2\n        /* \"contracts/TicTacToe.sol\":6412:6433  board[1][i] == marker */\n      0xff\n      and\n        /* \"contracts/TicTacToe.sol\":6412:6417  board */\n      0x00\n        /* \"contracts/TicTacToe.sol\":6418:6419  1 */\n      0x01\n        /* \"contracts/TicTacToe.sol\":6412:6420  board[1] */\n      0x03\n      dup2\n      lt\n      tag_177\n      jumpi\n      tag_178\n      tag_84\n      jump\t// in\n    tag_178:\n    tag_177:\n      add\n        /* \"contracts/TicTacToe.sol\":6421:6422  i */\n      dup3\n        /* \"contracts/TicTacToe.sol\":6412:6423  board[1][i] */\n      0xff\n      and\n      0x03\n      dup2\n      lt\n      tag_180\n      jumpi\n      tag_181\n      tag_84\n      jump\t// in\n    tag_181:\n    tag_180:\n      0x20\n      swap2\n      dup3\n      dup3\n      div\n      add\n      swap2\n      swap1\n      mod\n      swap1\n      sload\n      swap1\n      0x0100\n      exp\n      swap1\n      div\n      0xff\n      and\n        /* \"contracts/TicTacToe.sol\":6412:6433  board[1][i] == marker */\n      0xff\n      and\n      eq\n        /* \"contracts/TicTacToe.sol\":6387:6433  board[0][i] == marker && board[1][i] == marker */\n    tag_176:\n        /* \"contracts/TicTacToe.sol\":6387:6458  board[0][i] == marker && board[1][i] == marker && board[2][i] == marker */\n      dup1\n      iszero\n      tag_183\n      jumpi\n      pop\n        /* \"contracts/TicTacToe.sol\":6452:6458  marker */\n      dup2\n        /* \"contracts/TicTacToe.sol\":6437:6458  board[2][i] == marker */\n      0xff\n      and\n        /* \"contracts/TicTacToe.sol\":6437:6442  board */\n      0x00\n        /* \"contracts/TicTacToe.sol\":6443:6444  2 */\n      0x02\n        /* \"contracts/TicTacToe.sol\":6437:6445  board[2] */\n      0x03\n      dup2\n      lt\n      tag_184\n      jumpi\n      tag_185\n      tag_84\n      jump\t// in\n    tag_185:\n    tag_184:\n      add\n        /* \"contracts/TicTacToe.sol\":6446:6447  i */\n      dup3\n        /* \"contracts/TicTacToe.sol\":6437:6448  board[2][i] */\n      0xff\n      and\n      0x03\n      dup2\n      lt\n      tag_187\n      jumpi\n      tag_188\n      tag_84\n      jump\t// in\n    tag_188:\n    tag_187:\n      0x20\n      swap2\n      dup3\n      dup3\n      div\n      add\n      swap2\n      swap1\n      mod\n      swap1\n      sload\n      swap1\n      0x0100\n      exp\n      swap1\n      div\n      0xff\n      and\n        /* \"contracts/TicTacToe.sol\":6437:6458  board[2][i] == marker */\n      0xff\n      and\n      eq\n        /* \"contracts/TicTacToe.sol\":6387:6458  board[0][i] == marker && board[1][i] == marker && board[2][i] == marker */\n    tag_183:\n        /* \"contracts/TicTacToe.sol\":6383:6521  if (board[0][i] == marker && board[1][i] == marker && board[2][i] == marker) {... */\n      iszero\n      tag_190\n      jumpi\n        /* \"contracts/TicTacToe.sol\":6486:6505  endGameWithWinner() */\n      tag_191\n        /* \"contracts/TicTacToe.sol\":6486:6503  endGameWithWinner */\n      tag_169\n        /* \"contracts/TicTacToe.sol\":6486:6505  endGameWithWinner() */\n      jump\t// in\n    tag_191:\n        /* \"contracts/TicTacToe.sol\":6479:6505  return endGameWithWinner() */\n      pop\n      pop\n      jump(tag_141)\n        /* \"contracts/TicTacToe.sol\":6383:6521  if (board[0][i] == marker && board[1][i] == marker && board[2][i] == marker) {... */\n    tag_190:\n        /* \"contracts/TicTacToe.sol\":6211:6214  i++ */\n      dup1\n      dup1\n      0x01\n      add\n      swap2\n      pop\n      pop\n        /* \"contracts/TicTacToe.sol\":6186:6532  for (uint8 i = 0; i < 3; i++) {... */\n      jump(tag_144)\n    tag_145:\n      pop\n        /* \"contracts/TicTacToe.sol\":6561:6567  marker */\n      dup1\n        /* \"contracts/TicTacToe.sol\":6546:6567  board[0][0] == marker */\n      0xff\n      and\n        /* \"contracts/TicTacToe.sol\":6546:6551  board */\n      0x00\n        /* \"contracts/TicTacToe.sol\":6552:6553  0 */\n      0x00\n        /* \"contracts/TicTacToe.sol\":6546:6554  board[0] */\n      0x03\n      dup2\n      lt\n      tag_192\n      jumpi\n      tag_193\n      tag_84\n      jump\t// in\n    tag_193:\n    tag_192:\n      add\n        /* \"contracts/TicTacToe.sol\":6555:6556  0 */\n      0x00\n        /* \"contracts/TicTacToe.sol\":6546:6557  board[0][0] */\n      0x03\n      dup2\n      lt\n      tag_195\n      jumpi\n      tag_196\n      tag_84\n      jump\t// in\n    tag_196:\n    tag_195:\n      0x20\n      swap2\n      dup3\n      dup3\n      div\n      add\n      swap2\n      swap1\n      mod\n      swap1\n      sload\n      swap1\n      0x0100\n      exp\n      swap1\n      div\n      0xff\n      and\n        /* \"contracts/TicTacToe.sol\":6546:6567  board[0][0] == marker */\n      0xff\n      and\n      eq\n        /* \"contracts/TicTacToe.sol\":6546:6592  board[0][0] == marker && board[1][1] == marker */\n      dup1\n      iszero\n      tag_198\n      jumpi\n      pop\n        /* \"contracts/TicTacToe.sol\":6586:6592  marker */\n      dup1\n        /* \"contracts/TicTacToe.sol\":6571:6592  board[1][1] == marker */\n      0xff\n      and\n        /* \"contracts/TicTacToe.sol\":6571:6576  board */\n      0x00\n        /* \"contracts/TicTacToe.sol\":6577:6578  1 */\n      0x01\n        /* \"contracts/TicTacToe.sol\":6571:6579  board[1] */\n      0x03\n      dup2\n      lt\n      tag_199\n      jumpi\n      tag_200\n      tag_84\n      jump\t// in\n    tag_200:\n    tag_199:\n      add\n        /* \"contracts/TicTacToe.sol\":6580:6581  1 */\n      0x01\n        /* \"contracts/TicTacToe.sol\":6571:6582  board[1][1] */\n      0x03\n      dup2\n      lt\n      tag_202\n      jumpi\n      tag_203\n      tag_84\n      jump\t// in\n    tag_203:\n    tag_202:\n      0x20\n      swap2\n      dup3\n      dup3\n      div\n      add\n      swap2\n      swap1\n      mod\n      swap1\n      sload\n      swap1\n      0x0100\n      exp\n      swap1\n      div\n      0xff\n      and\n        /* \"contracts/TicTacToe.sol\":6571:6592  board[1][1] == marker */\n      0xff\n      and\n      eq\n        /* \"contracts/TicTacToe.sol\":6546:6592  board[0][0] == marker && board[1][1] == marker */\n    tag_198:\n        /* \"contracts/TicTacToe.sol\":6546:6617  board[0][0] == marker && board[1][1] == marker && board[2][2] == marker */\n      dup1\n      iszero\n      tag_205\n      jumpi\n      pop\n        /* \"contracts/TicTacToe.sol\":6611:6617  marker */\n      dup1\n        /* \"contracts/TicTacToe.sol\":6596:6617  board[2][2] == marker */\n      0xff\n      and\n        /* \"contracts/TicTacToe.sol\":6596:6601  board */\n      0x00\n        /* \"contracts/TicTacToe.sol\":6602:6603  2 */\n      0x02\n        /* \"contracts/TicTacToe.sol\":6596:6604  board[2] */\n      0x03\n      dup2\n      lt\n      tag_206\n      jumpi\n      tag_207\n      tag_84\n      jump\t// in\n    tag_207:\n    tag_206:\n      add\n        /* \"contracts/TicTacToe.sol\":6605:6606  2 */\n      0x02\n        /* \"contracts/TicTacToe.sol\":6596:6607  board[2][2] */\n      0x03\n      dup2\n      lt\n      tag_209\n      jumpi\n      tag_210\n      tag_84\n      jump\t// in\n    tag_210:\n    tag_209:\n      0x20\n      swap2\n      dup3\n      dup3\n      div\n      add\n      swap2\n      swap1\n      mod\n      swap1\n      sload\n      swap1\n      0x0100\n      exp\n      swap1\n      div\n      0xff\n      and\n        /* \"contracts/TicTacToe.sol\":6596:6617  board[2][2] == marker */\n      0xff\n      and\n      eq\n        /* \"contracts/TicTacToe.sol\":6546:6617  board[0][0] == marker && board[1][1] == marker && board[2][2] == marker */\n    tag_205:\n        /* \"contracts/TicTacToe.sol\":6542:6808  if (board[0][0] == marker && board[1][1] == marker && board[2][2] == marker) {... */\n      iszero\n      tag_212\n      jumpi\n        /* \"contracts/TicTacToe.sol\":6641:6660  endGameWithWinner() */\n      tag_213\n        /* \"contracts/TicTacToe.sol\":6641:6658  endGameWithWinner */\n      tag_169\n        /* \"contracts/TicTacToe.sol\":6641:6660  endGameWithWinner() */\n      jump\t// in\n    tag_213:\n        /* \"contracts/TicTacToe.sol\":6634:6660  return endGameWithWinner() */\n      pop\n      jump(tag_141)\n        /* \"contracts/TicTacToe.sol\":6542:6808  if (board[0][0] == marker && board[1][1] == marker && board[2][2] == marker) {... */\n    tag_212:\n        /* \"contracts/TicTacToe.sol\":6697:6703  marker */\n      dup1\n        /* \"contracts/TicTacToe.sol\":6682:6703  board[0][2] == marker */\n      0xff\n      and\n        /* \"contracts/TicTacToe.sol\":6682:6687  board */\n      0x00\n        /* \"contracts/TicTacToe.sol\":6688:6689  0 */\n      0x00\n        /* \"contracts/TicTacToe.sol\":6682:6690  board[0] */\n      0x03\n      dup2\n      lt\n      tag_215\n      jumpi\n      tag_216\n      tag_84\n      jump\t// in\n    tag_216:\n    tag_215:\n      add\n        /* \"contracts/TicTacToe.sol\":6691:6692  2 */\n      0x02\n        /* \"contracts/TicTacToe.sol\":6682:6693  board[0][2] */\n      0x03\n      dup2\n      lt\n      tag_218\n      jumpi\n      tag_219\n      tag_84\n      jump\t// in\n    tag_219:\n    tag_218:\n      0x20\n      swap2\n      dup3\n      dup3\n      div\n      add\n      swap2\n      swap1\n      mod\n      swap1\n      sload\n      swap1\n      0x0100\n      exp\n      swap1\n      div\n      0xff\n      and\n        /* \"contracts/TicTacToe.sol\":6682:6703  board[0][2] == marker */\n      0xff\n      and\n      eq\n        /* \"contracts/TicTacToe.sol\":6682:6728  board[0][2] == marker && board[1][1] == marker */\n      dup1\n      iszero\n      tag_221\n      jumpi\n      pop\n        /* \"contracts/TicTacToe.sol\":6722:6728  marker */\n      dup1\n        /* \"contracts/TicTacToe.sol\":6707:6728  board[1][1] == marker */\n      0xff\n      and\n        /* \"contracts/TicTacToe.sol\":6707:6712  board */\n      0x00\n        /* \"contracts/TicTacToe.sol\":6713:6714  1 */\n      0x01\n        /* \"contracts/TicTacToe.sol\":6707:6715  board[1] */\n      0x03\n      dup2\n      lt\n      tag_222\n      jumpi\n      tag_223\n      tag_84\n      jump\t// in\n    tag_223:\n    tag_222:\n      add\n        /* \"contracts/TicTacToe.sol\":6716:6717  1 */\n      0x01\n        /* \"contracts/TicTacToe.sol\":6707:6718  board[1][1] */\n      0x03\n      dup2\n      lt\n      tag_225\n      jumpi\n      tag_226\n      tag_84\n      jump\t// in\n    tag_226:\n    tag_225:\n      0x20\n      swap2\n      dup3\n      dup3\n      div\n      add\n      swap2\n      swap1\n      mod\n      swap1\n      sload\n      swap1\n      0x0100\n      exp\n      swap1\n      div\n      0xff\n      and\n        /* \"contracts/TicTacToe.sol\":6707:6728  board[1][1] == marker */\n      0xff\n      and\n      eq\n        /* \"contracts/TicTacToe.sol\":6682:6728  board[0][2] == marker && board[1][1] == marker */\n    tag_221:\n        /* \"contracts/TicTacToe.sol\":6682:6753  board[0][2] == marker && board[1][1] == marker && board[2][0] == marker */\n      dup1\n      iszero\n      tag_228\n      jumpi\n      pop\n        /* \"contracts/TicTacToe.sol\":6747:6753  marker */\n      dup1\n        /* \"contracts/TicTacToe.sol\":6732:6753  board[2][0] == marker */\n      0xff\n      and\n        /* \"contracts/TicTacToe.sol\":6732:6737  board */\n      0x00\n        /* \"contracts/TicTacToe.sol\":6738:6739  2 */\n      0x02\n        /* \"contracts/TicTacToe.sol\":6732:6740  board[2] */\n      0x03\n      dup2\n      lt\n      tag_229\n      jumpi\n      tag_230\n      tag_84\n      jump\t// in\n    tag_230:\n    tag_229:\n      add\n        /* \"contracts/TicTacToe.sol\":6741:6742  0 */\n      0x00\n        /* \"contracts/TicTacToe.sol\":6732:6743  board[2][0] */\n      0x03\n      dup2\n      lt\n      tag_232\n      jumpi\n      tag_233\n      tag_84\n      jump\t// in\n    tag_233:\n    tag_232:\n      0x20\n      swap2\n      dup3\n      dup3\n      div\n      add\n      swap2\n      swap1\n      mod\n      swap1\n      sload\n      swap1\n      0x0100\n      exp\n      swap1\n      div\n      0xff\n      and\n        /* \"contracts/TicTacToe.sol\":6732:6753  board[2][0] == marker */\n      0xff\n      and\n      eq\n        /* \"contracts/TicTacToe.sol\":6682:6753  board[0][2] == marker && board[1][1] == marker && board[2][0] == marker */\n    tag_228:\n        /* \"contracts/TicTacToe.sol\":6678:6808  if (board[0][2] == marker && board[1][1] == marker && board[2][0] == marker) {... */\n      iszero\n      tag_235\n      jumpi\n        /* \"contracts/TicTacToe.sol\":6777:6796  endGameWithWinner() */\n      tag_236\n        /* \"contracts/TicTacToe.sol\":6777:6794  endGameWithWinner */\n      tag_169\n        /* \"contracts/TicTacToe.sol\":6777:6796  endGameWithWinner() */\n      jump\t// in\n    tag_236:\n        /* \"contracts/TicTacToe.sol\":6770:6796  return endGameWithWinner() */\n      pop\n      jump(tag_141)\n        /* \"contracts/TicTacToe.sol\":6678:6808  if (board[0][2] == marker && board[1][1] == marker && board[2][0] == marker) {... */\n    tag_235:\n        /* \"contracts/TicTacToe.sol\":6890:6907  uint8 filledCells */\n      0x00\n        /* \"contracts/TicTacToe.sol\":6910:6911  0 */\n      0x00\n        /* \"contracts/TicTacToe.sol\":6890:6911  uint8 filledCells = 0 */\n      swap1\n      pop\n        /* \"contracts/TicTacToe.sol\":6927:6934  uint8 i */\n      0x00\n        /* \"contracts/TicTacToe.sol\":6937:6938  0 */\n      0x00\n        /* \"contracts/TicTacToe.sol\":6927:6938  uint8 i = 0 */\n      swap1\n      pop\n        /* \"contracts/TicTacToe.sol\":6922:7103  for (uint8 i = 0; i < board.length; i++) {... */\n    tag_237:\n        /* \"contracts/TicTacToe.sol\":6944:6956  board.length */\n      0x03\n        /* \"contracts/TicTacToe.sol\":6940:6941  i */\n      dup2\n        /* \"contracts/TicTacToe.sol\":6940:6956  i < board.length */\n      0xff\n      and\n      lt\n        /* \"contracts/TicTacToe.sol\":6922:7103  for (uint8 i = 0; i < board.length; i++) {... */\n      iszero\n      tag_238\n      jumpi\n        /* \"contracts/TicTacToe.sol\":6983:6990  uint8 j */\n      0x00\n        /* \"contracts/TicTacToe.sol\":6993:6994  0 */\n      0x00\n        /* \"contracts/TicTacToe.sol\":6983:6994  uint8 j = 0 */\n      swap1\n      pop\n        /* \"contracts/TicTacToe.sol\":6978:7092  for (uint8 j = 0; j < board[i].length; j++) {... */\n    tag_240:\n        /* \"contracts/TicTacToe.sol\":7000:7005  board */\n      0x00\n        /* \"contracts/TicTacToe.sol\":7006:7007  i */\n      dup3\n        /* \"contracts/TicTacToe.sol\":7000:7008  board[i] */\n      0xff\n      and\n      0x03\n      dup2\n      lt\n      tag_243\n      jumpi\n      tag_244\n      tag_84\n      jump\t// in\n    tag_244:\n    tag_243:\n      pop\n      pop\n        /* \"contracts/TicTacToe.sol\":7000:7015  board[i].length */\n      0x03\n        /* \"contracts/TicTacToe.sol\":6996:6997  j */\n      dup2\n        /* \"contracts/TicTacToe.sol\":6996:7015  j < board[i].length */\n      0xff\n      and\n      lt\n        /* \"contracts/TicTacToe.sol\":6978:7092  for (uint8 j = 0; j < board[i].length; j++) {... */\n      iszero\n      tag_241\n      jumpi\n        /* \"contracts/TicTacToe.sol\":7060:7061  0 */\n      0x00\n        /* \"contracts/TicTacToe.sol\":7045:7050  board */\n      0x00\n        /* \"contracts/TicTacToe.sol\":7051:7052  i */\n      dup4\n        /* \"contracts/TicTacToe.sol\":7045:7053  board[i] */\n      0xff\n      and\n      0x03\n      dup2\n      lt\n      tag_246\n      jumpi\n      tag_247\n      tag_84\n      jump\t// in\n    tag_247:\n    tag_246:\n      add\n        /* \"contracts/TicTacToe.sol\":7054:7055  j */\n      dup3\n        /* \"contracts/TicTacToe.sol\":7045:7056  board[i][j] */\n      0xff\n      and\n      0x03\n      dup2\n      lt\n      tag_249\n      jumpi\n      tag_250\n      tag_84\n      jump\t// in\n    tag_250:\n    tag_249:\n      0x20\n      swap2\n      dup3\n      dup3\n      div\n      add\n      swap2\n      swap1\n      mod\n      swap1\n      sload\n      swap1\n      0x0100\n      exp\n      swap1\n      div\n      0xff\n      and\n        /* \"contracts/TicTacToe.sol\":7045:7061  board[i][j] != 0 */\n      0xff\n      and\n      eq\n        /* \"contracts/TicTacToe.sol\":7041:7076  if (board[i][j] != 0) filledCells++ */\n      tag_252\n      jumpi\n        /* \"contracts/TicTacToe.sol\":7063:7076  filledCells++ */\n      dup3\n      dup1\n      tag_253\n      swap1\n      tag_137\n      jump\t// in\n    tag_253:\n      swap4\n      pop\n      pop\n        /* \"contracts/TicTacToe.sol\":7041:7076  if (board[i][j] != 0) filledCells++ */\n    tag_252:\n        /* \"contracts/TicTacToe.sol\":7017:7020  j++ */\n      dup1\n      dup1\n      tag_254\n      swap1\n      tag_137\n      jump\t// in\n    tag_254:\n      swap2\n      pop\n      pop\n        /* \"contracts/TicTacToe.sol\":6978:7092  for (uint8 j = 0; j < board[i].length; j++) {... */\n      jump(tag_240)\n    tag_241:\n      pop\n        /* \"contracts/TicTacToe.sol\":6958:6961  i++ */\n      dup1\n      dup1\n      tag_255\n      swap1\n      tag_137\n      jump\t// in\n    tag_255:\n      swap2\n      pop\n      pop\n        /* \"contracts/TicTacToe.sol\":6922:7103  for (uint8 i = 0; i < board.length; i++) {... */\n      jump(tag_237)\n    tag_238:\n      pop\n        /* \"contracts/TicTacToe.sol\":7182:7183  9 */\n      0x09\n        /* \"contracts/TicTacToe.sol\":7167:7178  filledCells */\n      dup2\n        /* \"contracts/TicTacToe.sol\":7167:7183  filledCells == 9 */\n      0xff\n      and\n      sub\n        /* \"contracts/TicTacToe.sol\":7163:7300  if (filledCells == 9) {... */\n      tag_256\n      jumpi\n        /* \"contracts/TicTacToe.sol\":7213:7217  true */\n      0x01\n        /* \"contracts/TicTacToe.sol\":7200:7210  isGameOver */\n      0x05\n      0x14\n        /* \"contracts/TicTacToe.sol\":7200:7217  isGameOver = true */\n      0x0100\n      exp\n      dup2\n      sload\n      dup2\n      0xff\n      mul\n      not\n      and\n      swap1\n      dup4\n      iszero\n      iszero\n      mul\n      or\n      swap1\n      sstore\n      pop\n        /* \"contracts/TicTacToe.sol\":7249:7250  0 */\n      0x00\n        /* \"contracts/TicTacToe.sol\":7232:7238  winner */\n      0x06\n      0x00\n        /* \"contracts/TicTacToe.sol\":7232:7251  winner = address(0) */\n      0x0100\n      exp\n      dup2\n      sload\n      dup2\n      0xffffffffffffffffffffffffffffffffffffffff\n      mul\n      not\n      and\n      swap1\n      dup4\n      0xffffffffffffffffffffffffffffffffffffffff\n      and\n      mul\n      or\n      swap1\n      sstore\n      pop\n        /* \"contracts/TicTacToe.sol\":7281:7287  winner */\n      0x06\n      0x00\n      swap1\n      sload\n      swap1\n      0x0100\n      exp\n      swap1\n      div\n      0xffffffffffffffffffffffffffffffffffffffff\n      and\n        /* \"contracts/TicTacToe.sol\":7271:7288  GameEnded(winner) */\n      0xffffffffffffffffffffffffffffffffffffffff\n      and\n      0x51b77d00d3c0b7e376e9ee146711ceb2c08e58a5dbe38055a618e52109f720c1\n      mload(0x40)\n      mload(0x40)\n      dup1\n      swap2\n      sub\n      swap1\n      log2\n        /* \"contracts/TicTacToe.sol\":7163:7300  if (filledCells == 9) {... */\n    tag_256:\n        /* \"contracts/TicTacToe.sol\":5903:7307  {... */\n      pop\n      pop\n        /* \"contracts/TicTacToe.sol\":5875:7307  function checkWin() private {... */\n    tag_141:\n      jump\t// out\n        /* \"contracts/TicTacToe.sol\":5607:5723  function switchTurn() private {... */\n    tag_110:\n        /* \"contracts/TicTacToe.sol\":5662:5669  playerX */\n      0x03\n      0x00\n      swap1\n      sload\n      swap1\n      0x0100\n      exp\n      swap1\n      div\n      0xffffffffffffffffffffffffffffffffffffffff\n      and\n        /* \"contracts/TicTacToe.sol\":5648:5669  nextPlayer == playerX */\n      0xffffffffffffffffffffffffffffffffffffffff\n      and\n        /* \"contracts/TicTacToe.sol\":5648:5658  nextPlayer */\n      0x05\n      0x00\n      swap1\n      sload\n      swap1\n      0x0100\n      exp\n      swap1\n      div\n      0xffffffffffffffffffffffffffffffffffffffff\n      and\n        /* \"contracts/TicTacToe.sol\":5648:5669  nextPlayer == playerX */\n      0xffffffffffffffffffffffffffffffffffffffff\n      and\n      eq\n        /* \"contracts/TicTacToe.sol\":5648:5715  nextPlayer == playerX ? nextPlayer = playerO : nextPlayer = playerX */\n      tag_258\n      jumpi\n        /* \"contracts/TicTacToe.sol\":5708:5715  playerX */\n      0x03\n      0x00\n      swap1\n      sload\n      swap1\n      0x0100\n      exp\n      swap1\n      div\n      0xffffffffffffffffffffffffffffffffffffffff\n      and\n        /* \"contracts/TicTacToe.sol\":5695:5705  nextPlayer */\n      0x05\n      0x00\n        /* \"contracts/TicTacToe.sol\":5695:5715  nextPlayer = playerX */\n      0x0100\n      exp\n      dup2\n      sload\n      dup2\n      0xffffffffffffffffffffffffffffffffffffffff\n      mul\n      not\n      and\n      swap1\n      dup4\n      0xffffffffffffffffffffffffffffffffffffffff\n      and\n      mul\n      or\n      swap1\n      sstore\n        /* \"contracts/TicTacToe.sol\":5648:5715  nextPlayer == playerX ? nextPlayer = playerO : nextPlayer = playerX */\n      jump(tag_259)\n    tag_258:\n        /* \"contracts/TicTacToe.sol\":5685:5692  playerO */\n      0x04\n      0x00\n      swap1\n      sload\n      swap1\n      0x0100\n      exp\n      swap1\n      div\n      0xffffffffffffffffffffffffffffffffffffffff\n      and\n        /* \"contracts/TicTacToe.sol\":5672:5682  nextPlayer */\n      0x05\n      0x00\n        /* \"contracts/TicTacToe.sol\":5672:5692  nextPlayer = playerO */\n      0x0100\n      exp\n      dup2\n      sload\n      dup2\n      0xffffffffffffffffffffffffffffffffffffffff\n      mul\n      not\n      and\n      swap1\n      dup4\n      0xffffffffffffffffffffffffffffffffffffffff\n      and\n      mul\n      or\n      swap1\n      sstore\n        /* \"contracts/TicTacToe.sol\":5648:5715  nextPlayer == playerX ? nextPlayer = playerO : nextPlayer = playerX */\n    tag_259:\n      pop\n        /* \"contracts/TicTacToe.sol\":5607:5723  function switchTurn() private {... */\n      jump\t// out\n        /* \"contracts/TicTacToe.sol\":5731:5867  function endGameWithWinner() private {... */\n    tag_169:\n        /* \"contracts/TicTacToe.sol\":5792:5796  true */\n      0x01\n        /* \"contracts/TicTacToe.sol\":5779:5789  isGameOver */\n      0x05\n      0x14\n        /* \"contracts/TicTacToe.sol\":5779:5796  isGameOver = true */\n      0x0100\n      exp\n      dup2\n      sload\n      dup2\n      0xff\n      mul\n      not\n      and\n      swap1\n      dup4\n      iszero\n      iszero\n      mul\n      or\n      swap1\n      sstore\n      pop\n        /* \"contracts/TicTacToe.sol\":5816:5826  msg.sender */\n      caller\n        /* \"contracts/TicTacToe.sol\":5807:5813  winner */\n      0x06\n      0x00\n        /* \"contracts/TicTacToe.sol\":5807:5826  winner = msg.sender */\n      0x0100\n      exp\n      dup2\n      sload\n      dup2\n      0xffffffffffffffffffffffffffffffffffffffff\n      mul\n      not\n      and\n      swap1\n      dup4\n      0xffffffffffffffffffffffffffffffffffffffff\n      and\n      mul\n      or\n      swap1\n      sstore\n      pop\n        /* \"contracts/TicTacToe.sol\":5852:5858  winner */\n      0x06\n      0x00\n      swap1\n      sload\n      swap1\n      0x0100\n      exp\n      swap1\n      div\n      0xffffffffffffffffffffffffffffffffffffffff\n      and\n        /* \"contracts/TicTacToe.sol\":5842:5859  GameEnded(winner) */\n      0xffffffffffffffffffffffffffffffffffffffff\n      and\n      0x51b77d00d3c0b7e376e9ee146711ceb2c08e58a5dbe38055a618e52109f720c1\n      mload(0x40)\n      mload(0x40)\n      dup1\n      swap2\n      sub\n      swap1\n      log2\n        /* \"contracts/TicTacToe.sol\":5731:5867  function endGameWithWinner() private {... */\n      jump\t// out\n    tag_57:\n      mload(0x40)\n      dup1\n      0x60\n      add\n      0x40\n      mstore\n      dup1\n      0x03\n      swap1\n    tag_261:\n      tag_262\n      tag_263\n      jump\t// in\n    tag_262:\n      dup2\n      mstore\n      0x20\n      add\n      swap1\n      0x01\n      swap1\n      sub\n      swap1\n      dup2\n      tag_261\n      jumpi\n      swap1\n      pop\n      pop\n      swap1\n      jump\t// out\n    tag_263:\n      mload(0x40)\n      dup1\n      0x60\n      add\n      0x40\n      mstore\n      dup1\n      0x03\n      swap1\n      0x20\n      dup3\n      mul\n      dup1\n      calldatasize\n      dup4\n      calldatacopy\n      dup1\n      dup3\n      add\n      swap2\n      pop\n      pop\n      swap1\n      pop\n      pop\n      swap1\n      jump\t// out\n        /* \"#utility.yul\":7:133   */\n    tag_264:\n        /* \"#utility.yul\":44:51   */\n      0x00\n        /* \"#utility.yul\":84:126   */\n      0xffffffffffffffffffffffffffffffffffffffff\n        /* \"#utility.yul\":77:82   */\n      dup3\n        /* \"#utility.yul\":73:127   */\n      and\n        /* \"#utility.yul\":62:127   */\n      swap1\n      pop\n        /* \"#utility.yul\":7:133   */\n      swap2\n      swap1\n      pop\n      jump\t// out\n        /* \"#utility.yul\":139:235   */\n    tag_265:\n        /* \"#utility.yul\":176:183   */\n      0x00\n        /* \"#utility.yul\":205:229   */\n      tag_314\n        /* \"#utility.yul\":223:228   */\n      dup3\n        /* \"#utility.yul\":205:229   */\n      tag_264\n      jump\t// in\n    tag_314:\n        /* \"#utility.yul\":194:229   */\n      swap1\n      pop\n        /* \"#utility.yul\":139:235   */\n      swap2\n      swap1\n      pop\n      jump\t// out\n        /* \"#utility.yul\":241:359   */\n    tag_266:\n        /* \"#utility.yul\":328:352   */\n      tag_316\n        /* \"#utility.yul\":346:351   */\n      dup2\n        /* \"#utility.yul\":328:352   */\n      tag_265\n      jump\t// in\n    tag_316:\n        /* \"#utility.yul\":323:326   */\n      dup3\n        /* \"#utility.yul\":316:353   */\n      mstore\n        /* \"#utility.yul\":241:359   */\n      pop\n      pop\n      jump\t// out\n        /* \"#utility.yul\":365:587   */\n    tag_18:\n        /* \"#utility.yul\":458:462   */\n      0x00\n        /* \"#utility.yul\":496:498   */\n      0x20\n        /* \"#utility.yul\":485:494   */\n      dup3\n        /* \"#utility.yul\":481:499   */\n      add\n        /* \"#utility.yul\":473:499   */\n      swap1\n      pop\n        /* \"#utility.yul\":509:580   */\n      tag_318\n        /* \"#utility.yul\":577:578   */\n      0x00\n        /* \"#utility.yul\":566:575   */\n      dup4\n        /* \"#utility.yul\":562:579   */\n      add\n        /* \"#utility.yul\":553:559   */\n      dup5\n        /* \"#utility.yul\":509:580   */\n      tag_266\n      jump\t// in\n    tag_318:\n        /* \"#utility.yul\":365:587   */\n      swap3\n      swap2\n      pop\n      pop\n      jump\t// out\n        /* \"#utility.yul\":593:683   */\n    tag_267:\n        /* \"#utility.yul\":627:634   */\n      0x00\n        /* \"#utility.yul\":670:675   */\n      dup2\n        /* \"#utility.yul\":663:676   */\n      iszero\n        /* \"#utility.yul\":656:677   */\n      iszero\n        /* \"#utility.yul\":645:677   */\n      swap1\n      pop\n        /* \"#utility.yul\":593:683   */\n      swap2\n      swap1\n      pop\n      jump\t// out\n        /* \"#utility.yul\":689:798   */\n    tag_268:\n        /* \"#utility.yul\":770:791   */\n      tag_321\n        /* \"#utility.yul\":785:790   */\n      dup2\n        /* \"#utility.yul\":770:791   */\n      tag_267\n      jump\t// in\n    tag_321:\n        /* \"#utility.yul\":765:768   */\n      dup3\n        /* \"#utility.yul\":758:792   */\n      mstore\n        /* \"#utility.yul\":689:798   */\n      pop\n      pop\n      jump\t// out\n        /* \"#utility.yul\":804:1014   */\n    tag_22:\n        /* \"#utility.yul\":891:895   */\n      0x00\n        /* \"#utility.yul\":929:931   */\n      0x20\n        /* \"#utility.yul\":918:927   */\n      dup3\n        /* \"#utility.yul\":914:932   */\n      add\n        /* \"#utility.yul\":906:932   */\n      swap1\n      pop\n        /* \"#utility.yul\":942:1007   */\n      tag_323\n        /* \"#utility.yul\":1004:1005   */\n      0x00\n        /* \"#utility.yul\":993:1002   */\n      dup4\n        /* \"#utility.yul\":989:1006   */\n      add\n        /* \"#utility.yul\":980:986   */\n      dup5\n        /* \"#utility.yul\":942:1007   */\n      tag_268\n      jump\t// in\n    tag_323:\n        /* \"#utility.yul\":804:1014   */\n      swap3\n      swap2\n      pop\n      pop\n      jump\t// out\n        /* \"#utility.yul\":1020:1145   */\n    tag_269:\n        /* \"#utility.yul\":1106:1112   */\n      0x00\n        /* \"#utility.yul\":1134:1138   */\n      0x03\n        /* \"#utility.yul\":1124:1138   */\n      swap1\n      pop\n        /* \"#utility.yul\":1020:1145   */\n      swap2\n      swap1\n      pop\n      jump\t// out\n        /* \"#utility.yul\":1151:1315   */\n    tag_270:\n        /* \"#utility.yul\":1269:1280   */\n      0x00\n        /* \"#utility.yul\":1306:1309   */\n      dup2\n        /* \"#utility.yul\":1291:1309   */\n      swap1\n      pop\n        /* \"#utility.yul\":1151:1315   */\n      swap3\n      swap2\n      pop\n      pop\n      jump\t// out\n        /* \"#utility.yul\":1321:1440   */\n    tag_271:\n        /* \"#utility.yul\":1407:1411   */\n      0x00\n        /* \"#utility.yul\":1430:1433   */\n      dup2\n        /* \"#utility.yul\":1422:1433   */\n      swap1\n      pop\n        /* \"#utility.yul\":1321:1440   */\n      swap2\n      swap1\n      pop\n      jump\t// out\n        /* \"#utility.yul\":1446:1548   */\n    tag_272:\n        /* \"#utility.yul\":1509:1515   */\n      0x00\n        /* \"#utility.yul\":1537:1541   */\n      0x03\n        /* \"#utility.yul\":1527:1541   */\n      swap1\n      pop\n        /* \"#utility.yul\":1446:1548   */\n      swap2\n      swap1\n      pop\n      jump\t// out\n        /* \"#utility.yul\":1554:1685   */\n    tag_273:\n        /* \"#utility.yul\":1639:1650   */\n      0x00\n        /* \"#utility.yul\":1676:1679   */\n      dup2\n        /* \"#utility.yul\":1661:1679   */\n      swap1\n      pop\n        /* \"#utility.yul\":1554:1685   */\n      swap3\n      swap2\n      pop\n      pop\n      jump\t// out\n        /* \"#utility.yul\":1691:1787   */\n    tag_274:\n        /* \"#utility.yul\":1754:1758   */\n      0x00\n        /* \"#utility.yul\":1777:1780   */\n      dup2\n        /* \"#utility.yul\":1769:1780   */\n      swap1\n      pop\n        /* \"#utility.yul\":1691:1787   */\n      swap2\n      swap1\n      pop\n      jump\t// out\n        /* \"#utility.yul\":1793:1879   */\n    tag_275:\n        /* \"#utility.yul\":1828:1835   */\n      0x00\n        /* \"#utility.yul\":1868:1872   */\n      0xff\n        /* \"#utility.yul\":1861:1866   */\n      dup3\n        /* \"#utility.yul\":1857:1873   */\n      and\n        /* \"#utility.yul\":1846:1873   */\n      swap1\n      pop\n        /* \"#utility.yul\":1793:1879   */\n      swap2\n      swap1\n      pop\n      jump\t// out\n        /* \"#utility.yul\":1885:1987   */\n    tag_276:\n        /* \"#utility.yul\":1958:1980   */\n      tag_332\n        /* \"#utility.yul\":1974:1979   */\n      dup2\n        /* \"#utility.yul\":1958:1980   */\n      tag_275\n      jump\t// in\n    tag_332:\n        /* \"#utility.yul\":1953:1956   */\n      dup3\n        /* \"#utility.yul\":1946:1981   */\n      mstore\n        /* \"#utility.yul\":1885:1987   */\n      pop\n      pop\n      jump\t// out\n        /* \"#utility.yul\":1993:2164   */\n    tag_277:\n        /* \"#utility.yul\":2058:2068   */\n      0x00\n        /* \"#utility.yul\":2079:2121   */\n      tag_334\n        /* \"#utility.yul\":2117:2120   */\n      dup4\n        /* \"#utility.yul\":2109:2115   */\n      dup4\n        /* \"#utility.yul\":2079:2121   */\n      tag_276\n      jump\t// in\n    tag_334:\n        /* \"#utility.yul\":2153:2157   */\n      0x20\n        /* \"#utility.yul\":2148:2151   */\n      dup4\n        /* \"#utility.yul\":2144:2158   */\n      add\n        /* \"#utility.yul\":2130:2158   */\n      swap1\n      pop\n        /* \"#utility.yul\":1993:2164   */\n      swap3\n      swap2\n      pop\n      pop\n      jump\t// out\n        /* \"#utility.yul\":2170:2279   */\n    tag_278:\n        /* \"#utility.yul\":2236:2240   */\n      0x00\n        /* \"#utility.yul\":2268:2272   */\n      0x20\n        /* \"#utility.yul\":2263:2266   */\n      dup3\n        /* \"#utility.yul\":2259:2273   */\n      add\n        /* \"#utility.yul\":2251:2273   */\n      swap1\n      pop\n        /* \"#utility.yul\":2170:2279   */\n      swap2\n      swap1\n      pop\n      jump\t// out\n        /* \"#utility.yul\":2313:2971   */\n    tag_279:\n        /* \"#utility.yul\":2435:2485   */\n      tag_337\n        /* \"#utility.yul\":2479:2484   */\n      dup2\n        /* \"#utility.yul\":2435:2485   */\n      tag_272\n      jump\t// in\n    tag_337:\n        /* \"#utility.yul\":2501:2573   */\n      tag_338\n        /* \"#utility.yul\":2566:2572   */\n      dup2\n        /* \"#utility.yul\":2561:2564   */\n      dup5\n        /* \"#utility.yul\":2501:2573   */\n      tag_273\n      jump\t// in\n    tag_338:\n        /* \"#utility.yul\":2494:2573   */\n      swap3\n      pop\n        /* \"#utility.yul\":2597:2649   */\n      tag_339\n        /* \"#utility.yul\":2643:2648   */\n      dup3\n        /* \"#utility.yul\":2597:2649   */\n      tag_274\n      jump\t// in\n    tag_339:\n        /* \"#utility.yul\":2672:2679   */\n      dup1\n        /* \"#utility.yul\":2703:2704   */\n      0x00\n        /* \"#utility.yul\":2688:2964   */\n    tag_340:\n        /* \"#utility.yul\":2713:2719   */\n      dup4\n        /* \"#utility.yul\":2710:2711   */\n      dup2\n        /* \"#utility.yul\":2707:2720   */\n      lt\n        /* \"#utility.yul\":2688:2964   */\n      iszero\n      tag_342\n      jumpi\n        /* \"#utility.yul\":2789:2795   */\n      dup2\n        /* \"#utility.yul\":2783:2796   */\n      mload\n        /* \"#utility.yul\":2816:2875   */\n      tag_343\n        /* \"#utility.yul\":2871:2874   */\n      dup8\n        /* \"#utility.yul\":2856:2869   */\n      dup3\n        /* \"#utility.yul\":2816:2875   */\n      tag_277\n      jump\t// in\n    tag_343:\n        /* \"#utility.yul\":2809:2875   */\n      swap7\n      pop\n        /* \"#utility.yul\":2898:2954   */\n      tag_344\n        /* \"#utility.yul\":2947:2953   */\n      dup4\n        /* \"#utility.yul\":2898:2954   */\n      tag_278\n      jump\t// in\n    tag_344:\n        /* \"#utility.yul\":2888:2954   */\n      swap3\n      pop\n        /* \"#utility.yul\":2748:2964   */\n      pop\n        /* \"#utility.yul\":2735:2736   */\n      0x01\n        /* \"#utility.yul\":2732:2733   */\n      dup2\n        /* \"#utility.yul\":2728:2737   */\n      add\n        /* \"#utility.yul\":2723:2737   */\n      swap1\n      pop\n        /* \"#utility.yul\":2688:2964   */\n      jump(tag_340)\n    tag_342:\n        /* \"#utility.yul\":2692:2706   */\n      pop\n        /* \"#utility.yul\":2411:2971   */\n      pop\n      pop\n      pop\n        /* \"#utility.yul\":2313:2971   */\n      pop\n      pop\n      jump\t// out\n        /* \"#utility.yul\":2977:3240   */\n    tag_280:\n        /* \"#utility.yul\":3088:3098   */\n      0x00\n        /* \"#utility.yul\":3109:3197   */\n      tag_346\n        /* \"#utility.yul\":3193:3196   */\n      dup4\n        /* \"#utility.yul\":3185:3191   */\n      dup4\n        /* \"#utility.yul\":3109:3197   */\n      tag_279\n      jump\t// in\n    tag_346:\n        /* \"#utility.yul\":3229:3233   */\n      0x60\n        /* \"#utility.yul\":3224:3227   */\n      dup4\n        /* \"#utility.yul\":3220:3234   */\n      add\n        /* \"#utility.yul\":3206:3234   */\n      swap1\n      pop\n        /* \"#utility.yul\":2977:3240   */\n      swap3\n      swap2\n      pop\n      pop\n      jump\t// out\n        /* \"#utility.yul\":3246:3378   */\n    tag_281:\n        /* \"#utility.yul\":3335:3339   */\n      0x00\n        /* \"#utility.yul\":3367:3371   */\n      0x20\n        /* \"#utility.yul\":3362:3365   */\n      dup3\n        /* \"#utility.yul\":3358:3372   */\n      add\n        /* \"#utility.yul\":3350:3372   */\n      swap1\n      pop\n        /* \"#utility.yul\":3246:3378   */\n      swap2\n      swap1\n      pop\n      jump\t// out\n        /* \"#utility.yul\":3418:4280   */\n    tag_282:\n        /* \"#utility.yul\":3596:3669   */\n      tag_349\n        /* \"#utility.yul\":3663:3668   */\n      dup2\n        /* \"#utility.yul\":3596:3669   */\n      tag_269\n      jump\t// in\n    tag_349:\n        /* \"#utility.yul\":3685:3790   */\n      tag_350\n        /* \"#utility.yul\":3783:3789   */\n      dup2\n        /* \"#utility.yul\":3778:3781   */\n      dup5\n        /* \"#utility.yul\":3685:3790   */\n      tag_270\n      jump\t// in\n    tag_350:\n        /* \"#utility.yul\":3678:3790   */\n      swap3\n      pop\n        /* \"#utility.yul\":3814:3889   */\n      tag_351\n        /* \"#utility.yul\":3883:3888   */\n      dup3\n        /* \"#utility.yul\":3814:3889   */\n      tag_271\n      jump\t// in\n    tag_351:\n        /* \"#utility.yul\":3912:3919   */\n      dup1\n        /* \"#utility.yul\":3943:3944   */\n      0x00\n        /* \"#utility.yul\":3928:4273   */\n    tag_352:\n        /* \"#utility.yul\":3953:3959   */\n      dup4\n        /* \"#utility.yul\":3950:3951   */\n      dup2\n        /* \"#utility.yul\":3947:3960   */\n      lt\n        /* \"#utility.yul\":3928:4273   */\n      iszero\n      tag_354\n      jumpi\n        /* \"#utility.yul\":4029:4035   */\n      dup2\n        /* \"#utility.yul\":4023:4036   */\n      mload\n        /* \"#utility.yul\":4056:4161   */\n      tag_355\n        /* \"#utility.yul\":4157:4160   */\n      dup8\n        /* \"#utility.yul\":4142:4155   */\n      dup3\n        /* \"#utility.yul\":4056:4161   */\n      tag_280\n      jump\t// in\n    tag_355:\n        /* \"#utility.yul\":4049:4161   */\n      swap7\n      pop\n        /* \"#utility.yul\":4184:4263   */\n      tag_356\n        /* \"#utility.yul\":4256:4262   */\n      dup4\n        /* \"#utility.yul\":4184:4263   */\n      tag_281\n      jump\t// in\n    tag_356:\n        /* \"#utility.yul\":4174:4263   */\n      swap3\n      pop\n        /* \"#utility.yul\":3988:4273   */\n      pop\n        /* \"#utility.yul\":3975:3976   */\n      0x01\n        /* \"#utility.yul\":3972:3973   */\n      dup2\n        /* \"#utility.yul\":3968:3977   */\n      add\n        /* \"#utility.yul\":3963:3977   */\n      swap1\n      pop\n        /* \"#utility.yul\":3928:4273   */\n      jump(tag_352)\n    tag_354:\n        /* \"#utility.yul\":3932:3946   */\n      pop\n        /* \"#utility.yul\":3572:4280   */\n      pop\n      pop\n      pop\n        /* \"#utility.yul\":3418:4280   */\n      pop\n      pop\n      jump\t// out\n        /* \"#utility.yul\":4286:4685   */\n    tag_26:\n        /* \"#utility.yul\":4467:4471   */\n      0x00\n        /* \"#utility.yul\":4505:4508   */\n      0x0120\n        /* \"#utility.yul\":4494:4503   */\n      dup3\n        /* \"#utility.yul\":4490:4509   */\n      add\n        /* \"#utility.yul\":4482:4509   */\n      swap1\n      pop\n        /* \"#utility.yul\":4519:4678   */\n      tag_358\n        /* \"#utility.yul\":4675:4676   */\n      0x00\n        /* \"#utility.yul\":4664:4673   */\n      dup4\n        /* \"#utility.yul\":4660:4677   */\n      add\n        /* \"#utility.yul\":4651:4657   */\n      dup5\n        /* \"#utility.yul\":4519:4678   */\n      tag_282\n      jump\t// in\n    tag_358:\n        /* \"#utility.yul\":4286:4685   */\n      swap3\n      swap2\n      pop\n      pop\n      jump\t// out\n        /* \"#utility.yul\":4772:4889   */\n    tag_284:\n        /* \"#utility.yul\":4881:4882   */\n      0x00\n        /* \"#utility.yul\":4878:4879   */\n      0x00\n        /* \"#utility.yul\":4871:4883   */\n      revert\n        /* \"#utility.yul\":5018:5122   */\n    tag_286:\n        /* \"#utility.yul\":5063:5070   */\n      0x00\n        /* \"#utility.yul\":5092:5116   */\n      tag_363\n        /* \"#utility.yul\":5110:5115   */\n      dup3\n        /* \"#utility.yul\":5092:5116   */\n      tag_264\n      jump\t// in\n    tag_363:\n        /* \"#utility.yul\":5081:5116   */\n      swap1\n      pop\n        /* \"#utility.yul\":5018:5122   */\n      swap2\n      swap1\n      pop\n      jump\t// out\n        /* \"#utility.yul\":5128:5266   */\n    tag_287:\n        /* \"#utility.yul\":5209:5241   */\n      tag_365\n        /* \"#utility.yul\":5235:5240   */\n      dup2\n        /* \"#utility.yul\":5209:5241   */\n      tag_286\n      jump\t// in\n    tag_365:\n        /* \"#utility.yul\":5202:5207   */\n      dup2\n        /* \"#utility.yul\":5199:5242   */\n      eq\n        /* \"#utility.yul\":5189:5260   */\n      tag_366\n      jumpi\n        /* \"#utility.yul\":5256:5257   */\n      0x00\n        /* \"#utility.yul\":5253:5254   */\n      0x00\n        /* \"#utility.yul\":5246:5258   */\n      revert\n        /* \"#utility.yul\":5189:5260   */\n    tag_366:\n        /* \"#utility.yul\":5128:5266   */\n      pop\n      jump\t// out\n        /* \"#utility.yul\":5272:5427   */\n    tag_288:\n        /* \"#utility.yul\":5326:5331   */\n      0x00\n        /* \"#utility.yul\":5364:5370   */\n      dup2\n        /* \"#utility.yul\":5351:5371   */\n      calldataload\n        /* \"#utility.yul\":5342:5371   */\n      swap1\n      pop\n        /* \"#utility.yul\":5380:5421   */\n      tag_368\n        /* \"#utility.yul\":5415:5420   */\n      dup2\n        /* \"#utility.yul\":5380:5421   */\n      tag_287\n      jump\t// in\n    tag_368:\n        /* \"#utility.yul\":5272:5427   */\n      swap3\n      swap2\n      pop\n      pop\n      jump\t// out\n        /* \"#utility.yul\":5433:5939   */\n    tag_29:\n        /* \"#utility.yul\":5517:5523   */\n      0x00\n        /* \"#utility.yul\":5525:5531   */\n      0x00\n        /* \"#utility.yul\":5574:5576   */\n      0x40\n        /* \"#utility.yul\":5562:5571   */\n      dup4\n        /* \"#utility.yul\":5553:5560   */\n      dup6\n        /* \"#utility.yul\":5549:5572   */\n      sub\n        /* \"#utility.yul\":5545:5577   */\n      slt\n        /* \"#utility.yul\":5542:5661   */\n      iszero\n      tag_370\n      jumpi\n        /* \"#utility.yul\":5580:5659   */\n      tag_371\n      tag_284\n      jump\t// in\n    tag_371:\n        /* \"#utility.yul\":5542:5661   */\n    tag_370:\n        /* \"#utility.yul\":5700:5701   */\n      0x00\n        /* \"#utility.yul\":5725:5786   */\n      tag_372\n        /* \"#utility.yul\":5778:5785   */\n      dup6\n        /* \"#utility.yul\":5769:5775   */\n      dup3\n        /* \"#utility.yul\":5758:5767   */\n      dup7\n        /* \"#utility.yul\":5754:5776   */\n      add\n        /* \"#utility.yul\":5725:5786   */\n      tag_288\n      jump\t// in\n    tag_372:\n        /* \"#utility.yul\":5715:5786   */\n      swap3\n      pop\n        /* \"#utility.yul\":5671:5796   */\n      pop\n        /* \"#utility.yul\":5835:5837   */\n      0x20\n        /* \"#utility.yul\":5861:5922   */\n      tag_373\n        /* \"#utility.yul\":5914:5921   */\n      dup6\n        /* \"#utility.yul\":5905:5911   */\n      dup3\n        /* \"#utility.yul\":5894:5903   */\n      dup7\n        /* \"#utility.yul\":5890:5912   */\n      add\n        /* \"#utility.yul\":5861:5922   */\n      tag_288\n      jump\t// in\n    tag_373:\n        /* \"#utility.yul\":5851:5922   */\n      swap2\n      pop\n        /* \"#utility.yul\":5806:5932   */\n      pop\n        /* \"#utility.yul\":5433:5939   */\n      swap3\n      pop\n      swap3\n      swap1\n      pop\n      jump\t// out\n        /* \"#utility.yul\":5945:6063   */\n    tag_289:\n        /* \"#utility.yul\":6016:6038   */\n      tag_375\n        /* \"#utility.yul\":6032:6037   */\n      dup2\n        /* \"#utility.yul\":6016:6038   */\n      tag_275\n      jump\t// in\n    tag_375:\n        /* \"#utility.yul\":6009:6014   */\n      dup2\n        /* \"#utility.yul\":6006:6039   */\n      eq\n        /* \"#utility.yul\":5996:6057   */\n      tag_376\n      jumpi\n        /* \"#utility.yul\":6053:6054   */\n      0x00\n        /* \"#utility.yul\":6050:6051   */\n      0x00\n        /* \"#utility.yul\":6043:6055   */\n      revert\n        /* \"#utility.yul\":5996:6057   */\n    tag_376:\n        /* \"#utility.yul\":5945:6063   */\n      pop\n      jump\t// out\n        /* \"#utility.yul\":6069:6204   */\n    tag_290:\n        /* \"#utility.yul\":6113:6118   */\n      0x00\n        /* \"#utility.yul\":6151:6157   */\n      dup2\n        /* \"#utility.yul\":6138:6158   */\n      calldataload\n        /* \"#utility.yul\":6129:6158   */\n      swap1\n      pop\n        /* \"#utility.yul\":6167:6198   */\n      tag_378\n        /* \"#utility.yul\":6192:6197   */\n      dup2\n        /* \"#utility.yul\":6167:6198   */\n      tag_289\n      jump\t// in\n    tag_378:\n        /* \"#utility.yul\":6069:6204   */\n      swap3\n      swap2\n      pop\n      pop\n      jump\t// out\n        /* \"#utility.yul\":6210:6676   */\n    tag_33:\n        /* \"#utility.yul\":6274:6280   */\n      0x00\n        /* \"#utility.yul\":6282:6288   */\n      0x00\n        /* \"#utility.yul\":6331:6333   */\n      0x40\n        /* \"#utility.yul\":6319:6328   */\n      dup4\n        /* \"#utility.yul\":6310:6317   */\n      dup6\n        /* \"#utility.yul\":6306:6329   */\n      sub\n        /* \"#utility.yul\":6302:6334   */\n      slt\n        /* \"#utility.yul\":6299:6418   */\n      iszero\n      tag_380\n      jumpi\n        /* \"#utility.yul\":6337:6416   */\n      tag_381\n      tag_284\n      jump\t// in\n    tag_381:\n        /* \"#utility.yul\":6299:6418   */\n    tag_380:\n        /* \"#utility.yul\":6457:6458   */\n      0x00\n        /* \"#utility.yul\":6482:6533   */\n      tag_382\n        /* \"#utility.yul\":6525:6532   */\n      dup6\n        /* \"#utility.yul\":6516:6522   */\n      dup3\n        /* \"#utility.yul\":6505:6514   */\n      dup7\n        /* \"#utility.yul\":6501:6523   */\n      add\n        /* \"#utility.yul\":6482:6533   */\n      tag_290\n      jump\t// in\n    tag_382:\n        /* \"#utility.yul\":6472:6533   */\n      swap3\n      pop\n        /* \"#utility.yul\":6428:6543   */\n      pop\n        /* \"#utility.yul\":6582:6584   */\n      0x20\n        /* \"#utility.yul\":6608:6659   */\n      tag_383\n        /* \"#utility.yul\":6651:6658   */\n      dup6\n        /* \"#utility.yul\":6642:6648   */\n      dup3\n        /* \"#utility.yul\":6631:6640   */\n      dup7\n        /* \"#utility.yul\":6627:6649   */\n      add\n        /* \"#utility.yul\":6608:6659   */\n      tag_290\n      jump\t// in\n    tag_383:\n        /* \"#utility.yul\":6598:6659   */\n      swap2\n      pop\n        /* \"#utility.yul\":6553:6669   */\n      pop\n        /* \"#utility.yul\":6210:6676   */\n      swap3\n      pop\n      swap3\n      swap1\n      pop\n      jump\t// out\n        /* \"#utility.yul\":6682:6759   */\n    tag_291:\n        /* \"#utility.yul\":6719:6726   */\n      0x00\n        /* \"#utility.yul\":6748:6753   */\n      dup2\n        /* \"#utility.yul\":6737:6753   */\n      swap1\n      pop\n        /* \"#utility.yul\":6682:6759   */\n      swap2\n      swap1\n      pop\n      jump\t// out\n        /* \"#utility.yul\":6765:6887   */\n    tag_292:\n        /* \"#utility.yul\":6838:6862   */\n      tag_386\n        /* \"#utility.yul\":6856:6861   */\n      dup2\n        /* \"#utility.yul\":6838:6862   */\n      tag_291\n      jump\t// in\n    tag_386:\n        /* \"#utility.yul\":6831:6836   */\n      dup2\n        /* \"#utility.yul\":6828:6863   */\n      eq\n        /* \"#utility.yul\":6818:6881   */\n      tag_387\n      jumpi\n        /* \"#utility.yul\":6877:6878   */\n      0x00\n        /* \"#utility.yul\":6874:6875   */\n      0x00\n        /* \"#utility.yul\":6867:6879   */\n      revert\n        /* \"#utility.yul\":6818:6881   */\n    tag_387:\n        /* \"#utility.yul\":6765:6887   */\n      pop\n      jump\t// out\n        /* \"#utility.yul\":6893:7032   */\n    tag_293:\n        /* \"#utility.yul\":6939:6944   */\n      0x00\n        /* \"#utility.yul\":6977:6983   */\n      dup2\n        /* \"#utility.yul\":6964:6984   */\n      calldataload\n        /* \"#utility.yul\":6955:6984   */\n      swap1\n      pop\n        /* \"#utility.yul\":6993:7026   */\n      tag_389\n        /* \"#utility.yul\":7020:7025   */\n      dup2\n        /* \"#utility.yul\":6993:7026   */\n      tag_292\n      jump\t// in\n    tag_389:\n        /* \"#utility.yul\":6893:7032   */\n      swap3\n      swap2\n      pop\n      pop\n      jump\t// out\n        /* \"#utility.yul\":7038:7512   */\n    tag_37:\n        /* \"#utility.yul\":7106:7112   */\n      0x00\n        /* \"#utility.yul\":7114:7120   */\n      0x00\n        /* \"#utility.yul\":7163:7165   */\n      0x40\n        /* \"#utility.yul\":7151:7160   */\n      dup4\n        /* \"#utility.yul\":7142:7149   */\n      dup6\n        /* \"#utility.yul\":7138:7161   */\n      sub\n        /* \"#utility.yul\":7134:7166   */\n      slt\n        /* \"#utility.yul\":7131:7250   */\n      iszero\n      tag_391\n      jumpi\n        /* \"#utility.yul\":7169:7248   */\n      tag_392\n      tag_284\n      jump\t// in\n    tag_392:\n        /* \"#utility.yul\":7131:7250   */\n    tag_391:\n        /* \"#utility.yul\":7289:7290   */\n      0x00\n        /* \"#utility.yul\":7314:7367   */\n      tag_393\n        /* \"#utility.yul\":7359:7366   */\n      dup6\n        /* \"#utility.yul\":7350:7356   */\n      dup3\n        /* \"#utility.yul\":7339:7348   */\n      dup7\n        /* \"#utility.yul\":7335:7357   */\n      add\n        /* \"#utility.yul\":7314:7367   */\n      tag_293\n      jump\t// in\n    tag_393:\n        /* \"#utility.yul\":7304:7367   */\n      swap3\n      pop\n        /* \"#utility.yul\":7260:7377   */\n      pop\n        /* \"#utility.yul\":7416:7418   */\n      0x20\n        /* \"#utility.yul\":7442:7495   */\n      tag_394\n        /* \"#utility.yul\":7487:7494   */\n      dup6\n        /* \"#utility.yul\":7478:7484   */\n      dup3\n        /* \"#utility.yul\":7467:7476   */\n      dup7\n        /* \"#utility.yul\":7463:7485   */\n      add\n        /* \"#utility.yul\":7442:7495   */\n      tag_293\n      jump\t// in\n    tag_394:\n        /* \"#utility.yul\":7432:7495   */\n      swap2\n      pop\n        /* \"#utility.yul\":7387:7505   */\n      pop\n        /* \"#utility.yul\":7038:7512   */\n      swap3\n      pop\n      swap3\n      swap1\n      pop\n      jump\t// out\n        /* \"#utility.yul\":7518:7630   */\n    tag_294:\n        /* \"#utility.yul\":7601:7623   */\n      tag_396\n        /* \"#utility.yul\":7617:7622   */\n      dup2\n        /* \"#utility.yul\":7601:7623   */\n      tag_275\n      jump\t// in\n    tag_396:\n        /* \"#utility.yul\":7596:7599   */\n      dup3\n        /* \"#utility.yul\":7589:7624   */\n      mstore\n        /* \"#utility.yul\":7518:7630   */\n      pop\n      pop\n      jump\t// out\n        /* \"#utility.yul\":7636:7850   */\n    tag_40:\n        /* \"#utility.yul\":7725:7729   */\n      0x00\n        /* \"#utility.yul\":7763:7765   */\n      0x20\n        /* \"#utility.yul\":7752:7761   */\n      dup3\n        /* \"#utility.yul\":7748:7766   */\n      add\n        /* \"#utility.yul\":7740:7766   */\n      swap1\n      pop\n        /* \"#utility.yul\":7776:7843   */\n      tag_398\n        /* \"#utility.yul\":7840:7841   */\n      0x00\n        /* \"#utility.yul\":7829:7838   */\n      dup4\n        /* \"#utility.yul\":7825:7842   */\n      add\n        /* \"#utility.yul\":7816:7822   */\n      dup5\n        /* \"#utility.yul\":7776:7843   */\n      tag_294\n      jump\t// in\n    tag_398:\n        /* \"#utility.yul\":7636:7850   */\n      swap3\n      swap2\n      pop\n      pop\n      jump\t// out\n        /* \"#utility.yul\":7856:8188   */\n    tag_44:\n        /* \"#utility.yul\":7977:7981   */\n      0x00\n        /* \"#utility.yul\":8015:8017   */\n      0x40\n        /* \"#utility.yul\":8004:8013   */\n      dup3\n        /* \"#utility.yul\":8000:8018   */\n      add\n        /* \"#utility.yul\":7992:8018   */\n      swap1\n      pop\n        /* \"#utility.yul\":8028:8099   */\n      tag_400\n        /* \"#utility.yul\":8096:8097   */\n      0x00\n        /* \"#utility.yul\":8085:8094   */\n      dup4\n        /* \"#utility.yul\":8081:8098   */\n      add\n        /* \"#utility.yul\":8072:8078   */\n      dup6\n        /* \"#utility.yul\":8028:8099   */\n      tag_266\n      jump\t// in\n    tag_400:\n        /* \"#utility.yul\":8109:8181   */\n      tag_401\n        /* \"#utility.yul\":8177:8179   */\n      0x20\n        /* \"#utility.yul\":8166:8175   */\n      dup4\n        /* \"#utility.yul\":8162:8180   */\n      add\n        /* \"#utility.yul\":8153:8159   */\n      dup5\n        /* \"#utility.yul\":8109:8181   */\n      tag_266\n      jump\t// in\n    tag_401:\n        /* \"#utility.yul\":7856:8188   */\n      swap4\n      swap3\n      pop\n      pop\n      pop\n      jump\t// out\n        /* \"#utility.yul\":8194:8363   */\n    tag_295:\n        /* \"#utility.yul\":8278:8289   */\n      0x00\n        /* \"#utility.yul\":8312:8318   */\n      dup3\n        /* \"#utility.yul\":8307:8310   */\n      dup3\n        /* \"#utility.yul\":8300:8319   */\n      mstore\n        /* \"#utility.yul\":8352:8356   */\n      0x20\n        /* \"#utility.yul\":8347:8350   */\n      dup3\n        /* \"#utility.yul\":8343:8357   */\n      add\n        /* \"#utility.yul\":8328:8357   */\n      swap1\n      pop\n        /* \"#utility.yul\":8194:8363   */\n      swap3\n      swap2\n      pop\n      pop\n      jump\t// out\n        /* \"#utility.yul\":8369:8543   */\n    tag_296:\n        /* \"#utility.yul\":8509:8535   */\n      0x47616d6520616c726561647920696e697469616c697a65640000000000000000\n        /* \"#utility.yul\":8505:8506   */\n      0x00\n        /* \"#utility.yul\":8497:8503   */\n      dup3\n        /* \"#utility.yul\":8493:8507   */\n      add\n        /* \"#utility.yul\":8486:8536   */\n      mstore\n        /* \"#utility.yul\":8369:8543   */\n      pop\n      jump\t// out\n        /* \"#utility.yul\":8549:8915   */\n    tag_297:\n        /* \"#utility.yul\":8691:8694   */\n      0x00\n        /* \"#utility.yul\":8712:8779   */\n      tag_405\n        /* \"#utility.yul\":8776:8778   */\n      0x18\n        /* \"#utility.yul\":8771:8774   */\n      dup4\n        /* \"#utility.yul\":8712:8779   */\n      tag_295\n      jump\t// in\n    tag_405:\n        /* \"#utility.yul\":8705:8779   */\n      swap2\n      pop\n        /* \"#utility.yul\":8788:8881   */\n      tag_406\n        /* \"#utility.yul\":8877:8880   */\n      dup3\n        /* \"#utility.yul\":8788:8881   */\n      tag_296\n      jump\t// in\n    tag_406:\n        /* \"#utility.yul\":8906:8908   */\n      0x20\n        /* \"#utility.yul\":8901:8904   */\n      dup3\n        /* \"#utility.yul\":8897:8909   */\n      add\n        /* \"#utility.yul\":8890:8909   */\n      swap1\n      pop\n        /* \"#utility.yul\":8549:8915   */\n      swap2\n      swap1\n      pop\n      jump\t// out\n        /* \"#utility.yul\":8921:9340   */\n    tag_67:\n        /* \"#utility.yul\":9087:9091   */\n      0x00\n        /* \"#utility.yul\":9125:9127   */\n      0x20\n        /* \"#utility.yul\":9114:9123   */\n      dup3\n        /* \"#utility.yul\":9110:9128   */\n      add\n        /* \"#utility.yul\":9102:9128   */\n      swap1\n      pop\n        /* \"#utility.yul\":9174:9183   */\n      dup2\n        /* \"#utility.yul\":9168:9172   */\n      dup2\n        /* \"#utility.yul\":9164:9184   */\n      sub\n        /* \"#utility.yul\":9160:9161   */\n      0x00\n        /* \"#utility.yul\":9149:9158   */\n      dup4\n        /* \"#utility.yul\":9145:9162   */\n      add\n        /* \"#utility.yul\":9138:9185   */\n      mstore\n        /* \"#utility.yul\":9202:9333   */\n      tag_408\n        /* \"#utility.yul\":9328:9332   */\n      dup2\n        /* \"#utility.yul\":9202:9333   */\n      tag_297\n      jump\t// in\n    tag_408:\n        /* \"#utility.yul\":9194:9333   */\n      swap1\n      pop\n        /* \"#utility.yul\":8921:9340   */\n      swap2\n      swap1\n      pop\n      jump\t// out\n        /* \"#utility.yul\":9346:9574   */\n    tag_298:\n        /* \"#utility.yul\":9486:9520   */\n      0x4f7468657220706c61796572206d75737420757365206120646966666572656e\n        /* \"#utility.yul\":9482:9483   */\n      0x00\n        /* \"#utility.yul\":9474:9480   */\n      dup3\n        /* \"#utility.yul\":9470:9484   */\n      add\n        /* \"#utility.yul\":9463:9521   */\n      mstore\n        /* \"#utility.yul\":9555:9566   */\n      0x7420616464726573730000000000000000000000000000000000000000000000\n        /* \"#utility.yul\":9550:9552   */\n      0x20\n        /* \"#utility.yul\":9542:9548   */\n      dup3\n        /* \"#utility.yul\":9538:9553   */\n      add\n        /* \"#utility.yul\":9531:9567   */\n      mstore\n        /* \"#utility.yul\":9346:9574   */\n      pop\n      jump\t// out\n        /* \"#utility.yul\":9580:9946   */\n    tag_299:\n        /* \"#utility.yul\":9722:9725   */\n      0x00\n        /* \"#utility.yul\":9743:9810   */\n      tag_411\n        /* \"#utility.yul\":9807:9809   */\n      0x29\n        /* \"#utility.yul\":9802:9805   */\n      dup4\n        /* \"#utility.yul\":9743:9810   */\n      tag_295\n      jump\t// in\n    tag_411:\n        /* \"#utility.yul\":9736:9810   */\n      swap2\n      pop\n        /* \"#utility.yul\":9819:9912   */\n      tag_412\n        /* \"#utility.yul\":9908:9911   */\n      dup3\n        /* \"#utility.yul\":9819:9912   */\n      tag_298\n      jump\t// in\n    tag_412:\n        /* \"#utility.yul\":9937:9939   */\n      0x40\n        /* \"#utility.yul\":9932:9935   */\n      dup3\n        /* \"#utility.yul\":9928:9940   */\n      add\n        /* \"#utility.yul\":9921:9940   */\n      swap1\n      pop\n        /* \"#utility.yul\":9580:9946   */\n      swap2\n      swap1\n      pop\n      jump\t// out\n        /* \"#utility.yul\":9952:10371   */\n    tag_70:\n        /* \"#utility.yul\":10118:10122   */\n      0x00\n        /* \"#utility.yul\":10156:10158   */\n      0x20\n        /* \"#utility.yul\":10145:10154   */\n      dup3\n        /* \"#utility.yul\":10141:10159   */\n      add\n        /* \"#utility.yul\":10133:10159   */\n      swap1\n      pop\n        /* \"#utility.yul\":10205:10214   */\n      dup2\n        /* \"#utility.yul\":10199:10203   */\n      dup2\n        /* \"#utility.yul\":10195:10215   */\n      sub\n        /* \"#utility.yul\":10191:10192   */\n      0x00\n        /* \"#utility.yul\":10180:10189   */\n      dup4\n        /* \"#utility.yul\":10176:10193   */\n      add\n        /* \"#utility.yul\":10169:10216   */\n      mstore\n        /* \"#utility.yul\":10233:10364   */\n      tag_414\n        /* \"#utility.yul\":10359:10363   */\n      dup2\n        /* \"#utility.yul\":10233:10364   */\n      tag_299\n      jump\t// in\n    tag_414:\n        /* \"#utility.yul\":10225:10364   */\n      swap1\n      pop\n        /* \"#utility.yul\":9952:10371   */\n      swap2\n      swap1\n      pop\n      jump\t// out\n        /* \"#utility.yul\":10377:10544   */\n    tag_300:\n        /* \"#utility.yul\":10517:10536   */\n      0x5468652067616d65206973206f7665722e000000000000000000000000000000\n        /* \"#utility.yul\":10513:10514   */\n      0x00\n        /* \"#utility.yul\":10505:10511   */\n      dup3\n        /* \"#utility.yul\":10501:10515   */\n      add\n        /* \"#utility.yul\":10494:10537   */\n      mstore\n        /* \"#utility.yul\":10377:10544   */\n      pop\n      jump\t// out\n        /* \"#utility.yul\":10550:10916   */\n    tag_301:\n        /* \"#utility.yul\":10692:10695   */\n      0x00\n        /* \"#utility.yul\":10713:10780   */\n      tag_417\n        /* \"#utility.yul\":10777:10779   */\n      0x11\n        /* \"#utility.yul\":10772:10775   */\n      dup4\n        /* \"#utility.yul\":10713:10780   */\n      tag_295\n      jump\t// in\n    tag_417:\n        /* \"#utility.yul\":10706:10780   */\n      swap2\n      pop\n        /* \"#utility.yul\":10789:10882   */\n      tag_418\n        /* \"#utility.yul\":10878:10881   */\n      dup3\n        /* \"#utility.yul\":10789:10882   */\n      tag_300\n      jump\t// in\n    tag_418:\n        /* \"#utility.yul\":10907:10909   */\n      0x20\n        /* \"#utility.yul\":10902:10905   */\n      dup3\n        /* \"#utility.yul\":10898:10910   */\n      add\n        /* \"#utility.yul\":10891:10910   */\n      swap1\n      pop\n        /* \"#utility.yul\":10550:10916   */\n      swap2\n      swap1\n      pop\n      jump\t// out\n        /* \"#utility.yul\":10922:11341   */\n    tag_74:\n        /* \"#utility.yul\":11088:11092   */\n      0x00\n        /* \"#utility.yul\":11126:11128   */\n      0x20\n        /* \"#utility.yul\":11115:11124   */\n      dup3\n        /* \"#utility.yul\":11111:11129   */\n      add\n        /* \"#utility.yul\":11103:11129   */\n      swap1\n      pop\n        /* \"#utility.yul\":11175:11184   */\n      dup2\n        /* \"#utility.yul\":11169:11173   */\n      dup2\n        /* \"#utility.yul\":11165:11185   */\n      sub\n        /* \"#utility.yul\":11161:11162   */\n      0x00\n        /* \"#utility.yul\":11150:11159   */\n      dup4\n        /* \"#utility.yul\":11146:11163   */\n      add\n        /* \"#utility.yul\":11139:11186   */\n      mstore\n        /* \"#utility.yul\":11203:11334   */\n      tag_420\n        /* \"#utility.yul\":11329:11333   */\n      dup2\n        /* \"#utility.yul\":11203:11334   */\n      tag_301\n      jump\t// in\n    tag_420:\n        /* \"#utility.yul\":11195:11334   */\n      swap1\n      pop\n        /* \"#utility.yul\":10922:11341   */\n      swap2\n      swap1\n      pop\n      jump\t// out\n        /* \"#utility.yul\":11347:11516   */\n    tag_302:\n        /* \"#utility.yul\":11487:11508   */\n      0x49742773206e6f7420796f7572207475726e2e00000000000000000000000000\n        /* \"#utility.yul\":11483:11484   */\n      0x00\n        /* \"#utility.yul\":11475:11481   */\n      dup3\n        /* \"#utility.yul\":11471:11485   */\n      add\n        /* \"#utility.yul\":11464:11509   */\n      mstore\n        /* \"#utility.yul\":11347:11516   */\n      pop\n      jump\t// out\n        /* \"#utility.yul\":11522:11888   */\n    tag_303:\n        /* \"#utility.yul\":11664:11667   */\n      0x00\n        /* \"#utility.yul\":11685:11752   */\n      tag_423\n        /* \"#utility.yul\":11749:11751   */\n      0x13\n        /* \"#utility.yul\":11744:11747   */\n      dup4\n        /* \"#utility.yul\":11685:11752   */\n      tag_295\n      jump\t// in\n    tag_423:\n        /* \"#utility.yul\":11678:11752   */\n      swap2\n      pop\n        /* \"#utility.yul\":11761:11854   */\n      tag_424\n        /* \"#utility.yul\":11850:11853   */\n      dup3\n        /* \"#utility.yul\":11761:11854   */\n      tag_302\n      jump\t// in\n    tag_424:\n        /* \"#utility.yul\":11879:11881   */\n      0x20\n        /* \"#utility.yul\":11874:11877   */\n      dup3\n        /* \"#utility.yul\":11870:11882   */\n      add\n        /* \"#utility.yul\":11863:11882   */\n      swap1\n      pop\n        /* \"#utility.yul\":11522:11888   */\n      swap2\n      swap1\n      pop\n      jump\t// out\n        /* \"#utility.yul\":11894:12313   */\n    tag_77:\n        /* \"#utility.yul\":12060:12064   */\n      0x00\n        /* \"#utility.yul\":12098:12100   */\n      0x20\n        /* \"#utility.yul\":12087:12096   */\n      dup3\n        /* \"#utility.yul\":12083:12101   */\n      add\n        /* \"#utility.yul\":12075:12101   */\n      swap1\n      pop\n        /* \"#utility.yul\":12147:12156   */\n      dup2\n        /* \"#utility.yul\":12141:12145   */\n      dup2\n        /* \"#utility.yul\":12137:12157   */\n      sub\n        /* \"#utility.yul\":12133:12134   */\n      0x00\n        /* \"#utility.yul\":12122:12131   */\n      dup4\n        /* \"#utility.yul\":12118:12135   */\n      add\n        /* \"#utility.yul\":12111:12158   */\n      mstore\n        /* \"#utility.yul\":12175:12306   */\n      tag_426\n        /* \"#utility.yul\":12301:12305   */\n      dup2\n        /* \"#utility.yul\":12175:12306   */\n      tag_303\n      jump\t// in\n    tag_426:\n        /* \"#utility.yul\":12167:12306   */\n      swap1\n      pop\n        /* \"#utility.yul\":11894:12313   */\n      swap2\n      swap1\n      pop\n      jump\t// out\n        /* \"#utility.yul\":12319:12500   */\n    tag_304:\n        /* \"#utility.yul\":12459:12492   */\n      0x496e76616c696420726f77206f7220636f6c756d6e20706c6163656d656e7400\n        /* \"#utility.yul\":12455:12456   */\n      0x00\n        /* \"#utility.yul\":12447:12453   */\n      dup3\n        /* \"#utility.yul\":12443:12457   */\n      add\n        /* \"#utility.yul\":12436:12493   */\n      mstore\n        /* \"#utility.yul\":12319:12500   */\n      pop\n      jump\t// out\n        /* \"#utility.yul\":12506:12872   */\n    tag_305:\n        /* \"#utility.yul\":12648:12651   */\n      0x00\n        /* \"#utility.yul\":12669:12736   */\n      tag_429\n        /* \"#utility.yul\":12733:12735   */\n      0x1f\n        /* \"#utility.yul\":12728:12731   */\n      dup4\n        /* \"#utility.yul\":12669:12736   */\n      tag_295\n      jump\t// in\n    tag_429:\n        /* \"#utility.yul\":12662:12736   */\n      swap2\n      pop\n        /* \"#utility.yul\":12745:12838   */\n      tag_430\n        /* \"#utility.yul\":12834:12837   */\n      dup3\n        /* \"#utility.yul\":12745:12838   */\n      tag_304\n      jump\t// in\n    tag_430:\n        /* \"#utility.yul\":12863:12865   */\n      0x20\n        /* \"#utility.yul\":12858:12861   */\n      dup3\n        /* \"#utility.yul\":12854:12866   */\n      add\n        /* \"#utility.yul\":12847:12866   */\n      swap1\n      pop\n        /* \"#utility.yul\":12506:12872   */\n      swap2\n      swap1\n      pop\n      jump\t// out\n        /* \"#utility.yul\":12878:13297   */\n    tag_81:\n        /* \"#utility.yul\":13044:13048   */\n      0x00\n        /* \"#utility.yul\":13082:13084   */\n      0x20\n        /* \"#utility.yul\":13071:13080   */\n      dup3\n        /* \"#utility.yul\":13067:13085   */\n      add\n        /* \"#utility.yul\":13059:13085   */\n      swap1\n      pop\n        /* \"#utility.yul\":13131:13140   */\n      dup2\n        /* \"#utility.yul\":13125:13129   */\n      dup2\n        /* \"#utility.yul\":13121:13141   */\n      sub\n        /* \"#utility.yul\":13117:13118   */\n      0x00\n        /* \"#utility.yul\":13106:13115   */\n      dup4\n        /* \"#utility.yul\":13102:13119   */\n      add\n        /* \"#utility.yul\":13095:13142   */\n      mstore\n        /* \"#utility.yul\":13159:13290   */\n      tag_432\n        /* \"#utility.yul\":13285:13289   */\n      dup2\n        /* \"#utility.yul\":13159:13290   */\n      tag_305\n      jump\t// in\n    tag_432:\n        /* \"#utility.yul\":13151:13290   */\n      swap1\n      pop\n        /* \"#utility.yul\":12878:13297   */\n      swap2\n      swap1\n      pop\n      jump\t// out\n        /* \"#utility.yul\":13303:13483   */\n    tag_84:\n        /* \"#utility.yul\":13351:13428   */\n      0x4e487b7100000000000000000000000000000000000000000000000000000000\n        /* \"#utility.yul\":13348:13349   */\n      0x00\n        /* \"#utility.yul\":13341:13429   */\n      mstore\n        /* \"#utility.yul\":13448:13452   */\n      0x32\n        /* \"#utility.yul\":13445:13446   */\n      0x04\n        /* \"#utility.yul\":13438:13453   */\n      mstore\n        /* \"#utility.yul\":13472:13476   */\n      0x24\n        /* \"#utility.yul\":13469:13470   */\n      0x00\n        /* \"#utility.yul\":13462:13477   */\n      revert\n        /* \"#utility.yul\":13489:13661   */\n    tag_306:\n        /* \"#utility.yul\":13629:13653   */\n      0x43656c6c20697320616c72656164792074616b656e2e00000000000000000000\n        /* \"#utility.yul\":13625:13626   */\n      0x00\n        /* \"#utility.yul\":13617:13623   */\n      dup3\n        /* \"#utility.yul\":13613:13627   */\n      add\n        /* \"#utility.yul\":13606:13654   */\n      mstore\n        /* \"#utility.yul\":13489:13661   */\n      pop\n      jump\t// out\n        /* \"#utility.yul\":13667:14033   */\n    tag_307:\n        /* \"#utility.yul\":13809:13812   */\n      0x00\n        /* \"#utility.yul\":13830:13897   */\n      tag_436\n        /* \"#utility.yul\":13894:13896   */\n      0x16\n        /* \"#utility.yul\":13889:13892   */\n      dup4\n        /* \"#utility.yul\":13830:13897   */\n      tag_295\n      jump\t// in\n    tag_436:\n        /* \"#utility.yul\":13823:13897   */\n      swap2\n      pop\n        /* \"#utility.yul\":13906:13999   */\n      tag_437\n        /* \"#utility.yul\":13995:13998   */\n      dup3\n        /* \"#utility.yul\":13906:13999   */\n      tag_306\n      jump\t// in\n    tag_437:\n        /* \"#utility.yul\":14024:14026   */\n      0x20\n        /* \"#utility.yul\":14019:14022   */\n      dup3\n        /* \"#utility.yul\":14015:14027   */\n      add\n        /* \"#utility.yul\":14008:14027   */\n      swap1\n      pop\n        /* \"#utility.yul\":13667:14033   */\n      swap2\n      swap1\n      pop\n      jump\t// out\n        /* \"#utility.yul\":14039:14458   */\n    tag_91:\n        /* \"#utility.yul\":14205:14209   */\n      0x00\n        /* \"#utility.yul\":14243:14245   */\n      0x20\n        /* \"#utility.yul\":14232:14241   */\n      dup3\n        /* \"#utility.yul\":14228:14246   */\n      add\n        /* \"#utility.yul\":14220:14246   */\n      swap1\n      pop\n        /* \"#utility.yul\":14292:14301   */\n      dup2\n        /* \"#utility.yul\":14286:14290   */\n      dup2\n        /* \"#utility.yul\":14282:14302   */\n      sub\n        /* \"#utility.yul\":14278:14279   */\n      0x00\n        /* \"#utility.yul\":14267:14276   */\n      dup4\n        /* \"#utility.yul\":14263:14280   */\n      add\n        /* \"#utility.yul\":14256:14303   */\n      mstore\n        /* \"#utility.yul\":14320:14451   */\n      tag_439\n        /* \"#utility.yul\":14446:14450   */\n      dup2\n        /* \"#utility.yul\":14320:14451   */\n      tag_307\n      jump\t// in\n    tag_439:\n        /* \"#utility.yul\":14312:14451   */\n      swap1\n      pop\n        /* \"#utility.yul\":14039:14458   */\n      swap2\n      swap1\n      pop\n      jump\t// out\n        /* \"#utility.yul\":14464:14684   */\n    tag_308:\n        /* \"#utility.yul\":14604:14638   */\n      0x43616e6e6f7420726573746172742067616d652c206e6f74206120706c617965\n        /* \"#utility.yul\":14600:14601   */\n      0x00\n        /* \"#utility.yul\":14592:14598   */\n      dup3\n        /* \"#utility.yul\":14588:14602   */\n      add\n        /* \"#utility.yul\":14581:14639   */\n      mstore\n        /* \"#utility.yul\":14673:14676   */\n      0x7200000000000000000000000000000000000000000000000000000000000000\n        /* \"#utility.yul\":14668:14670   */\n      0x20\n        /* \"#utility.yul\":14660:14666   */\n      dup3\n        /* \"#utility.yul\":14656:14671   */\n      add\n        /* \"#utility.yul\":14649:14677   */\n      mstore\n        /* \"#utility.yul\":14464:14684   */\n      pop\n      jump\t// out\n        /* \"#utility.yul\":14690:15056   */\n    tag_309:\n        /* \"#utility.yul\":14832:14835   */\n      0x00\n        /* \"#utility.yul\":14853:14920   */\n      tag_442\n        /* \"#utility.yul\":14917:14919   */\n      0x21\n        /* \"#utility.yul\":14912:14915   */\n      dup4\n        /* \"#utility.yul\":14853:14920   */\n      tag_295\n      jump\t// in\n    tag_442:\n        /* \"#utility.yul\":14846:14920   */\n      swap2\n      pop\n        /* \"#utility.yul\":14929:15022   */\n      tag_443\n        /* \"#utility.yul\":15018:15021   */\n      dup3\n        /* \"#utility.yul\":14929:15022   */\n      tag_308\n      jump\t// in\n    tag_443:\n        /* \"#utility.yul\":15047:15049   */\n      0x40\n        /* \"#utility.yul\":15042:15045   */\n      dup3\n        /* \"#utility.yul\":15038:15050   */\n      add\n        /* \"#utility.yul\":15031:15050   */\n      swap1\n      pop\n        /* \"#utility.yul\":14690:15056   */\n      swap2\n      swap1\n      pop\n      jump\t// out\n        /* \"#utility.yul\":15062:15481   */\n    tag_120:\n        /* \"#utility.yul\":15228:15232   */\n      0x00\n        /* \"#utility.yul\":15266:15268   */\n      0x20\n        /* \"#utility.yul\":15255:15264   */\n      dup3\n        /* \"#utility.yul\":15251:15269   */\n      add\n        /* \"#utility.yul\":15243:15269   */\n      swap1\n      pop\n        /* \"#utility.yul\":15315:15324   */\n      dup2\n        /* \"#utility.yul\":15309:15313   */\n      dup2\n        /* \"#utility.yul\":15305:15325   */\n      sub\n        /* \"#utility.yul\":15301:15302   */\n      0x00\n        /* \"#utility.yul\":15290:15299   */\n      dup4\n        /* \"#utility.yul\":15286:15303   */\n      add\n        /* \"#utility.yul\":15279:15326   */\n      mstore\n        /* \"#utility.yul\":15343:15474   */\n      tag_445\n        /* \"#utility.yul\":15469:15473   */\n      dup2\n        /* \"#utility.yul\":15343:15474   */\n      tag_309\n      jump\t// in\n    tag_445:\n        /* \"#utility.yul\":15335:15474   */\n      swap1\n      pop\n        /* \"#utility.yul\":15062:15481   */\n      swap2\n      swap1\n      pop\n      jump\t// out\n        /* \"#utility.yul\":15487:15667   */\n    tag_310:\n        /* \"#utility.yul\":15535:15612   */\n      0x4e487b7100000000000000000000000000000000000000000000000000000000\n        /* \"#utility.yul\":15532:15533   */\n      0x00\n        /* \"#utility.yul\":15525:15613   */\n      mstore\n        /* \"#utility.yul\":15632:15636   */\n      0x11\n        /* \"#utility.yul\":15629:15630   */\n      0x04\n        /* \"#utility.yul\":15622:15637   */\n      mstore\n        /* \"#utility.yul\":15656:15660   */\n      0x24\n        /* \"#utility.yul\":15653:15654   */\n      0x00\n        /* \"#utility.yul\":15646:15661   */\n      revert\n        /* \"#utility.yul\":15673:15840   */\n    tag_137:\n        /* \"#utility.yul\":15710:15713   */\n      0x00\n        /* \"#utility.yul\":15733:15755   */\n      tag_448\n        /* \"#utility.yul\":15749:15754   */\n      dup3\n        /* \"#utility.yul\":15733:15755   */\n      tag_275\n      jump\t// in\n    tag_448:\n        /* \"#utility.yul\":15724:15755   */\n      swap2\n      pop\n        /* \"#utility.yul\":15777:15781   */\n      0xff\n        /* \"#utility.yul\":15770:15775   */\n      dup3\n        /* \"#utility.yul\":15767:15782   */\n      sub\n        /* \"#utility.yul\":15764:15805   */\n      tag_449\n      jumpi\n        /* \"#utility.yul\":15785:15803   */\n      tag_450\n      tag_310\n      jump\t// in\n    tag_450:\n        /* \"#utility.yul\":15764:15805   */\n    tag_449:\n        /* \"#utility.yul\":15832:15833   */\n      0x01\n        /* \"#utility.yul\":15825:15830   */\n      dup3\n        /* \"#utility.yul\":15821:15834   */\n      add\n        /* \"#utility.yul\":15814:15834   */\n      swap1\n      pop\n        /* \"#utility.yul\":15673:15840   */\n      swap2\n      swap1\n      pop\n      jump\t// out\n\n    auxdata: 0xa26469706673582212205ca8d9573b577e90fad6828e65a455d60a68235249f9258b5e763479766f95dc64736f6c634300081e0033\n}\n",
				"bytecode": {
					"linkReferences": {},
					"object": "6080604052348015600e575f5ffd5b50611c0c8061001c5f395ff3fe608060405234801561000f575f5ffd5b50600436106100a7575f3560e01c80638086a92a1161006f5780638086a92a1461013d5780638b5b9ccc1461016d5780638d25af041461018c578063c06af99614610196578063d9a4264c146101b4578063dfbf53ae146101d2576100a7565b806304a93605146100ab5780630e04a7d8146100c95780632420f7f0146100e7578063485cc955146101055780635e24b0f114610121575b5f5ffd5b6100b36101f0565b6040516100c091906114ce565b60405180910390f35b6100d1610215565b6040516100de9190611501565b60405180910390f35b6100ef610228565b6040516100fc9190611661565b60405180910390f35b61011f600480360381019061011a91906116ba565b6102ca565b005b61013b60048036038101906101369190611722565b61059a565b005b61015760048036038101906101529190611793565b610873565b60405161016491906117e0565b60405180910390f35b6101756108ac565b6040516101839291906117f9565b60405180910390f35b6101946108fa565b005b61019e610bde565b6040516101ab91906114ce565b60405180910390f35b6101bc610c06565b6040516101c991906114ce565b60405180910390f35b6101da610c2e565b6040516101e791906114ce565b60405180910390f35b60055f9054906101000a900473ffffffffffffffffffffffffffffffffffffffff1681565b600560149054906101000a900460ff1681565b610230611440565b5f600380602002604051908101604052809291905f905b828210156102c1578382016003806020026040519081016040528092919082600380156102ad576020028201915f905b82829054906101000a900460ff1660ff16815260200190600101906020825f010492830192600103820291508084116102775790505b505050505081526020019060010190610247565b50505050905090565b5f73ffffffffffffffffffffffffffffffffffffffff1660035f9054906101000a900473ffffffffffffffffffffffffffffffffffffffff1673ffffffffffffffffffffffffffffffffffffffff1614610359576040517f08c379a00000000000000000000000000000000000000000000000000000000081526004016103509061187a565b60405180910390fd5b8160035f6101000a81548173ffffffffffffffffffffffffffffffffffffffff021916908373ffffffffffffffffffffffffffffffffffffffff16021790555060035f9054906101000a900473ffffffffffffffffffffffffffffffffffffffff1673ffffffffffffffffffffffffffffffffffffffff168173ffffffffffffffffffffffffffffffffffffffff1603610428576040517f08c379a000000000000000000000000000000000000000000000000000000000815260040161041f90611908565b60405180910390fd5b8060045f6101000a81548173ffffffffffffffffffffffffffffffffffffffff021916908373ffffffffffffffffffffffffffffffffffffffff16021790555060035f9054906101000a900473ffffffffffffffffffffffffffffffffffffffff1660055f6101000a81548173ffffffffffffffffffffffffffffffffffffffff021916908373ffffffffffffffffffffffffffffffffffffffff1602179055505f600560146101000a81548160ff02191690831515021790555060045f9054906101000a900473ffffffffffffffffffffffffffffffffffffffff1673ffffffffffffffffffffffffffffffffffffffff1660035f9054906101000a900473ffffffffffffffffffffffffffffffffffffffff1673ffffffffffffffffffffffffffffffffffffffff163073ffffffffffffffffffffffffffffffffffffffff167fe733eb5c42c855d38269254700780d064a49ef1611d1f3bfdda632ec19891f5660405160405180910390a45050565b600560149054906101000a900460ff16156105ea576040517f08c379a00000000000000000000000000000000000000000000000000000000081526004016105e190611970565b60405180910390fd5b60055f9054906101000a900473ffffffffffffffffffffffffffffffffffffffff1673ffffffffffffffffffffffffffffffffffffffff163373ffffffffffffffffffffffffffffffffffffffff1614610679576040517f08c379a0000000000000000000000000000000000000000000000000000000008152600401610670906119d8565b60405180910390fd5b60038260ff1610801561068f575060038160ff16105b6106ce576040517f08c379a00000000000000000000000000000000000000000000000000000000081526004016106c590611a40565b60405180910390fd5b5f5f8360ff16600381106106e5576106e4611a5e565b5b018260ff16600381106106fb576106fa611a5e565b5b602091828204019190069054906101000a900460ff1660ff1614610754576040517f08c379a000000000000000000000000000000000000000000000000000000000815260040161074b90611ad5565b60405180910390fd5b60035f9054906101000a900473ffffffffffffffffffffffffffffffffffffffff1673ffffffffffffffffffffffffffffffffffffffff163373ffffffffffffffffffffffffffffffffffffffff16036107fb5760015f8360ff16600381106107c0576107bf611a5e565b5b018260ff16600381106107d6576107d5611a5e565b5b602091828204019190066101000a81548160ff021916908360ff16021790555061084a565b60025f8360ff166003811061081357610812611a5e565b5b018260ff166003811061082957610828611a5e565b5b602091828204019190066101000a81548160ff021916908360ff1602179055505b610852610c53565b600560149054906101000a900460ff1661086f5761086e611241565b5b5050565b5f8260038110610881575f80fd5b01816003811061088f575f80fd5b60209182820401919006915091509054906101000a900460ff1681565b5f5f60035f9054906101000a900473ffffffffffffffffffffffffffffffffffffffff1660045f9054906101000a900473ffffffffffffffffffffffffffffffffffffffff16915091509091565b60035f9054906101000a900473ffffffffffffffffffffffffffffffffffffffff1673ffffffffffffffffffffffffffffffffffffffff163373ffffffffffffffffffffffffffffffffffffffff1614806109a1575060045f9054906101000a900473ffffffffffffffffffffffffffffffffffffffff1673ffffffffffffffffffffffffffffffffffffffff163373ffffffffffffffffffffffffffffffffffffffff16145b6109e0576040517f08c379a00000000000000000000000000000000000000000000000000000000081526004016109d790611b63565b60405180910390fd5b5f5f90505b60038160ff161015610a8e575f5f90505b5f8260ff1660038110610a0c57610a0b611a5e565b5b505060038160ff161015610a7a575f5f8360ff1660038110610a3157610a30611a5e565b5b018260ff1660038110610a4757610a46611a5e565b5b602091828204019190066101000a81548160ff021916908360ff1602179055508080610a7290611bae565b9150506109f6565b508080610a8690611bae565b9150506109e5565b505f600560146101000a81548160ff0219169083151502179055505f60065f6101000a81548173ffffffffffffffffffffffffffffffffffffffff021916908373ffffffffffffffffffffffffffffffffffffffff1602179055503360055f6101000a81548173ffffffffffffffffffffffffffffffffffffffff021916908373ffffffffffffffffffffffffffffffffffffffff16021790555060045f9054906101000a900473ffffffffffffffffffffffffffffffffffffffff1673ffffffffffffffffffffffffffffffffffffffff1660035f9054906101000a900473ffffffffffffffffffffffffffffffffffffffff1673ffffffffffffffffffffffffffffffffffffffff163073ffffffffffffffffffffffffffffffffffffffff167fe733eb5c42c855d38269254700780d064a49ef1611d1f3bfdda632ec19891f5660405160405180910390a4565b5f60045f9054906101000a900473ffffffffffffffffffffffffffffffffffffffff16905090565b5f60035f9054906101000a900473ffffffffffffffffffffffffffffffffffffffff16905090565b60065f9054906101000a900473ffffffffffffffffffffffffffffffffffffffff1681565b5f60035f9054906101000a900473ffffffffffffffffffffffffffffffffffffffff1673ffffffffffffffffffffffffffffffffffffffff163373ffffffffffffffffffffffffffffffffffffffff1603610cb15760019050610cb6565b600290505b5f5f90505b60038160ff161015610eca578160ff165f8260ff1660038110610ce157610ce0611a5e565b5b015f60038110610cf457610cf3611a5e565b5b602091828204019190069054906101000a900460ff1660ff16148015610d5e57508160ff165f8260ff1660038110610d2f57610d2e611a5e565b5b01600160038110610d4357610d42611a5e565b5b602091828204019190069054906101000a900460ff1660ff16145b8015610dae57508160ff165f8260ff1660038110610d7f57610d7e611a5e565b5b01600260038110610d9357610d92611a5e565b5b602091828204019190069054906101000a900460ff1660ff16145b15610dc257610dbb61137f565b505061123f565b8160ff165f5f60038110610dd957610dd8611a5e565b5b018260ff1660038110610def57610dee611a5e565b5b602091828204019190069054906101000a900460ff1660ff16148015610e5957508160ff165f600160038110610e2857610e27611a5e565b5b018260ff1660038110610e3e57610e3d611a5e565b5b602091828204019190069054906101000a900460ff1660ff16145b8015610ea957508160ff165f600260038110610e7857610e77611a5e565b5b018260ff1660038110610e8e57610e8d611a5e565b5b602091828204019190069054906101000a900460ff1660ff16145b15610ebd57610eb661137f565b505061123f565b8080600101915050610cbb565b508060ff165f5f60038110610ee257610ee1611a5e565b5b015f60038110610ef557610ef4611a5e565b5b602091828204019190069054906101000a900460ff1660ff16148015610f5d57508060ff165f600160038110610f2e57610f2d611a5e565b5b01600160038110610f4257610f41611a5e565b5b602091828204019190069054906101000a900460ff1660ff16145b8015610fab57508060ff165f600260038110610f7c57610f7b611a5e565b5b01600260038110610f9057610f8f611a5e565b5b602091828204019190069054906101000a900460ff1660ff16145b15610fbe57610fb861137f565b5061123f565b8060ff165f5f60038110610fd557610fd4611a5e565b5b01600260038110610fe957610fe8611a5e565b5b602091828204019190069054906101000a900460ff1660ff1614801561105157508060ff165f60016003811061102257611021611a5e565b5b0160016003811061103657611035611a5e565b5b602091828204019190069054906101000a900460ff1660ff16145b801561109e57508060ff165f6002600381106110705761106f611a5e565b5b015f6003811061108357611082611a5e565b5b602091828204019190069054906101000a900460ff1660ff16145b156110b1576110ab61137f565b5061123f565b5f5f90505f5f90505b60038160ff161015611170575f5f90505b5f8260ff16600381106110e1576110e0611a5e565b5b505060038160ff16101561115c575f5f8360ff166003811061110657611105611a5e565b5b018260ff166003811061111c5761111b611a5e565b5b602091828204019190069054906101000a900460ff1660ff161461114957828061114590611bae565b9350505b808061115490611bae565b9150506110cb565b50808061116890611bae565b9150506110ba565b5060098160ff160361123c576001600560146101000a81548160ff0219169083151502179055505f60065f6101000a81548173ffffffffffffffffffffffffffffffffffffffff021916908373ffffffffffffffffffffffffffffffffffffffff16021790555060065f9054906101000a900473ffffffffffffffffffffffffffffffffffffffff1673ffffffffffffffffffffffffffffffffffffffff167f51b77d00d3c0b7e376e9ee146711ceb2c08e58a5dbe38055a618e52109f720c160405160405180910390a25b50505b565b60035f9054906101000a900473ffffffffffffffffffffffffffffffffffffffff1673ffffffffffffffffffffffffffffffffffffffff1660055f9054906101000a900473ffffffffffffffffffffffffffffffffffffffff1673ffffffffffffffffffffffffffffffffffffffff161461131b5760035f9054906101000a900473ffffffffffffffffffffffffffffffffffffffff1660055f6101000a81548173ffffffffffffffffffffffffffffffffffffffff021916908373ffffffffffffffffffffffffffffffffffffffff160217905561137c565b60045f9054906101000a900473ffffffffffffffffffffffffffffffffffffffff1660055f6101000a81548173ffffffffffffffffffffffffffffffffffffffff021916908373ffffffffffffffffffffffffffffffffffffffff16021790555b50565b6001600560146101000a81548160ff0219169083151502179055503360065f6101000a81548173ffffffffffffffffffffffffffffffffffffffff021916908373ffffffffffffffffffffffffffffffffffffffff16021790555060065f9054906101000a900473ffffffffffffffffffffffffffffffffffffffff1673ffffffffffffffffffffffffffffffffffffffff167f51b77d00d3c0b7e376e9ee146711ceb2c08e58a5dbe38055a618e52109f720c160405160405180910390a2565b60405180606001604052806003905b61145761146d565b81526020019060019003908161144f5790505090565b6040518060600160405280600390602082028036833780820191505090505090565b5f73ffffffffffffffffffffffffffffffffffffffff82169050919050565b5f6114b88261148f565b9050919050565b6114c8816114ae565b82525050565b5f6020820190506114e15f8301846114bf565b92915050565b5f8115159050919050565b6114fb816114e7565b82525050565b5f6020820190506115145f8301846114f2565b92915050565b5f60039050919050565b5f81905092915050565b5f819050919050565b5f60039050919050565b5f81905092915050565b5f819050919050565b5f60ff82169050919050565b61156981611554565b82525050565b5f61157a8383611560565b60208301905092915050565b5f602082019050919050565b61159b81611537565b6115a58184611541565b92506115b08261154b565b805f5b838110156115e05781516115c7878261156f565b96506115d283611586565b9250506001810190506115b3565b505050505050565b5f6115f38383611592565b60608301905092915050565b5f602082019050919050565b6116148161151a565b61161e8184611524565b92506116298261152e565b805f5b8381101561165957815161164087826115e8565b965061164b836115ff565b92505060018101905061162c565b505050505050565b5f610120820190506116755f83018461160b565b92915050565b5f5ffd5b5f6116898261148f565b9050919050565b6116998161167f565b81146116a3575f5ffd5b50565b5f813590506116b481611690565b92915050565b5f5f604083850312156116d0576116cf61167b565b5b5f6116dd858286016116a6565b92505060206116ee858286016116a6565b9150509250929050565b61170181611554565b811461170b575f5ffd5b50565b5f8135905061171c816116f8565b92915050565b5f5f604083850312156117385761173761167b565b5b5f6117458582860161170e565b92505060206117568582860161170e565b9150509250929050565b5f819050919050565b61177281611760565b811461177c575f5ffd5b50565b5f8135905061178d81611769565b92915050565b5f5f604083850312156117a9576117a861167b565b5b5f6117b68582860161177f565b92505060206117c78582860161177f565b9150509250929050565b6117da81611554565b82525050565b5f6020820190506117f35f8301846117d1565b92915050565b5f60408201905061180c5f8301856114bf565b61181960208301846114bf565b9392505050565b5f82825260208201905092915050565b7f47616d6520616c726561647920696e697469616c697a656400000000000000005f82015250565b5f611864601883611820565b915061186f82611830565b602082019050919050565b5f6020820190508181035f83015261189181611858565b9050919050565b7f4f7468657220706c61796572206d75737420757365206120646966666572656e5f8201527f7420616464726573730000000000000000000000000000000000000000000000602082015250565b5f6118f2602983611820565b91506118fd82611898565b604082019050919050565b5f6020820190508181035f83015261191f816118e6565b9050919050565b7f5468652067616d65206973206f7665722e0000000000000000000000000000005f82015250565b5f61195a601183611820565b915061196582611926565b602082019050919050565b5f6020820190508181035f8301526119878161194e565b9050919050565b7f49742773206e6f7420796f7572207475726e2e000000000000000000000000005f82015250565b5f6119c2601383611820565b91506119cd8261198e565b602082019050919050565b5f6020820190508181035f8301526119ef816119b6565b9050919050565b7f496e76616c696420726f77206f7220636f6c756d6e20706c6163656d656e74005f82015250565b5f611a2a601f83611820565b9150611a35826119f6565b602082019050919050565b5f6020820190508181035f830152611a5781611a1e565b9050919050565b7f4e487b71000000000000000000000000000000000000000000000000000000005f52603260045260245ffd5b7f43656c6c20697320616c72656164792074616b656e2e000000000000000000005f82015250565b5f611abf601683611820565b9150611aca82611a8b565b602082019050919050565b5f6020820190508181035f830152611aec81611ab3565b9050919050565b7f43616e6e6f7420726573746172742067616d652c206e6f74206120706c6179655f8201527f7200000000000000000000000000000000000000000000000000000000000000602082015250565b5f611b4d602183611820565b9150611b5882611af3565b604082019050919050565b5f6020820190508181035f830152611b7a81611b41565b9050919050565b7f4e487b71000000000000000000000000000000000000000000000000000000005f52601160045260245ffd5b5f611bb882611554565b915060ff8203611bcb57611bca611b81565b5b60018201905091905056fea26469706673582212205ca8d9573b577e90fad6828e65a455d60a68235249f9258b5e763479766f95dc64736f6c634300081e0033",
					"opcodes": "PUSH1 0x80 PUSH1 0x40 MSTORE CALLVALUE DUP1 ISZERO PUSH1 0xE JUMPI PUSH0 PUSH0 REVERT JUMPDEST POP PUSH2 0x1C0C DUP1 PUSH2 0x1C PUSH0 CODECOPY PUSH0 RETURN INVALID PUSH1 0x80 PUSH1 0x40 MSTORE CALLVALUE DUP1 ISZERO PUSH2 0xF JUMPI PUSH0 PUSH0 REVERT JUMPDEST POP PUSH1 0x4 CALLDATASIZE LT PUSH2 0xA7 JUMPI PUSH0 CALLDATALOAD PUSH1 0xE0 SHR DUP1 PUSH4 0x8086A92A GT PUSH2 0x6F JUMPI DUP1 PUSH4 0x8086A92A EQ PUSH2 0x13D JUMPI DUP1 PUSH4 0x8B5B9CCC EQ PUSH2 0x16D JUMPI DUP1 PUSH4 0x8D25AF04 EQ PUSH2 0x18C JUMPI DUP1 PUSH4 0xC06AF996 EQ PUSH2 0x196 JUMPI DUP1 PUSH4 0xD9A4264C EQ PUSH2 0x1B4 JUMPI DUP1 PUSH4 0xDFBF53AE EQ PUSH2 0x1D2 JUMPI PUSH2 0xA7 JUMP JUMPDEST DUP1 PUSH4 0x4A93605 EQ PUSH2 0xAB JUMPI DUP1 PUSH4 0xE04A7D8 EQ PUSH2 0xC9 JUMPI DUP1 PUSH4 0x2420F7F0 EQ PUSH2 0xE7 JUMPI DUP1 PUSH4 0x485CC955 EQ PUSH2 0x105 JUMPI DUP1 PUSH4 0x5E24B0F1 EQ PUSH2 0x121 JUMPI JUMPDEST PUSH0 PUSH0 REVERT JUMPDEST PUSH2 0xB3 PUSH2 0x1F0 JUMP JUMPDEST PUSH1 0x40 MLOAD PUSH2 0xC0 SWAP2 SWAP1 PUSH2 0x14CE JUMP JUMPDEST PUSH1 0x40 MLOAD DUP1 SWAP2 SUB SWAP1 RETURN JUMPDEST PUSH2 0xD1 PUSH2 0x215 JUMP JUMPDEST PUSH1 0x40 MLOAD PUSH2 0xDE SWAP2 SWAP1 PUSH2 0x1501 JUMP JUMPDEST PUSH1 0x40 MLOAD DUP1 SWAP2 SUB SWAP1 RETURN JUMPDEST PUSH2 0xEF PUSH2 0x228 JUMP JUMPDEST PUSH1 0x40 MLOAD PUSH2 0xFC SWAP2 SWAP1 PUSH2 0x1661 JUMP JUMPDEST PUSH1 0x40 MLOAD DUP1 SWAP2 SUB SWAP1 RETURN JUMPDEST PUSH2 0x11F PUSH1 0x4 DUP1 CALLDATASIZE SUB DUP2 ADD SWAP1 PUSH2 0x11A SWAP2 SWAP1 PUSH2 0x16BA JUMP JUMPDEST PUSH2 0x2CA JUMP JUMPDEST STOP JUMPDEST PUSH2 0x13B PUSH1 0x4 DUP1 CALLDATASIZE SUB DUP2 ADD SWAP1 PUSH2 0x136 SWAP2 SWAP1 PUSH2 0x1722 JUMP JUMPDEST PUSH2 0x59A JUMP JUMPDEST STOP JUMPDEST PUSH2 0x157 PUSH1 0x4 DUP1 CALLDATASIZE SUB DUP2 ADD SWAP1 PUSH2 0x152 SWAP2 SWAP1 PUSH2 0x1793 JUMP JUMPDEST PUSH2 0x873 JUMP JUMPDEST PUSH1 0x40 MLOAD PUSH2 0x164 SWAP2 SWAP1 PUSH2 0x17E0 JUMP JUMPDEST PUSH1 0x40 MLOAD DUP1 SWAP2 SUB SWAP1 RETURN JUMPDEST PUSH2 0x175 PUSH2 0x8AC JUMP JUMPDEST PUSH1 0x40 MLOAD PUSH2 0x183 SWAP3 SWAP2 SWAP1 PUSH2 0x17F9 JUMP JUMPDEST PUSH1 0x40 MLOAD DUP1 SWAP2 SUB SWAP1 RETURN JUMPDEST PUSH2 0x194 PUSH2 0x8FA JUMP JUMPDEST STOP JUMPDEST PUSH2 0x19E PUSH2 0xBDE JUMP JUMPDEST PUSH1 0x40 MLOAD PUSH2 0x1AB SWAP2 SWAP1 PUSH2 0x14CE JUMP JUMPDEST PUSH1 0x40 MLOAD DUP1 SWAP2 SUB SWAP1 RETURN JUMPDEST PUSH2 0x1BC PUSH2 0xC06 JUMP JUMPDEST PUSH1 0x40 MLOAD PUSH2 0x1C9 SWAP2 SWAP1 PUSH2 0x14CE JUMP JUMPDEST PUSH1 0x40 MLOAD DUP1 SWAP2 SUB SWAP1 RETURN JUMPDEST PUSH2 0x1DA PUSH2 0xC2E JUMP JUMPDEST PUSH1 0x40 MLOAD PUSH2 0x1E7 SWAP2 SWAP1 PUSH2 0x14CE JUMP JUMPDEST PUSH1 0x40 MLOAD DUP1 SWAP2 SUB SWAP1 RETURN JUMPDEST PUSH1 0x5 PUSH0 SWAP1 SLOAD SWAP1 PUSH2 0x100 EXP SWAP1 DIV PUSH20 0xFFFFFFFFFFFFFFFFFFFFFFFFFFFFFFFFFFFFFFFF AND DUP2 JUMP JUMPDEST PUSH1 0x5 PUSH1 0x14 SWAP1 SLOAD SWAP1 PUSH2 0x100 EXP SWAP1 DIV PUSH1 0xFF AND DUP2 JUMP JUMPDEST PUSH2 0x230 PUSH2 0x1440 JUMP JUMPDEST PUSH0 PUSH1 0x3 DUP1 PUSH1 0x20 MUL PUSH1 0x40 MLOAD SWAP1 DUP2 ADD PUSH1 0x40 MSTORE DUP1 SWAP3 SWAP2 SWAP1 PUSH0 SWAP1 JUMPDEST DUP3 DUP3 LT ISZERO PUSH2 0x2C1 JUMPI DUP4 DUP3 ADD PUSH1 0x3 DUP1 PUSH1 0x20 MUL PUSH1 0x40 MLOAD SWAP1 DUP2 ADD PUSH1 0x40 MSTORE DUP1 SWAP3 SWAP2 SWAP1 DUP3 PUSH1 0x3 DUP1 ISZERO PUSH2 0x2AD JUMPI PUSH1 0x20 MUL DUP3 ADD SWAP2 PUSH0 SWAP1 JUMPDEST DUP3 DUP3 SWAP1 SLOAD SWAP1 PUSH2 0x100 EXP SWAP1 DIV PUSH1 0xFF AND PUSH1 0xFF AND DUP2 MSTORE PUSH1 0x20 ADD SWAP1 PUSH1 0x1 ADD SWAP1 PUSH1 0x20 DUP3 PUSH0 ADD DIV SWAP3 DUP4 ADD SWAP3 PUSH1 0x1 SUB DUP3 MUL SWAP2 POP DUP1 DUP5 GT PUSH2 0x277 JUMPI SWAP1 POP JUMPDEST POP POP POP POP POP DUP2 MSTORE PUSH1 0x20 ADD SWAP1 PUSH1 0x1 ADD SWAP1 PUSH2 0x247 JUMP JUMPDEST POP POP POP POP SWAP1 POP SWAP1 JUMP JUMPDEST PUSH0 PUSH20 0xFFFFFFFFFFFFFFFFFFFFFFFFFFFFFFFFFFFFFFFF AND PUSH1 0x3 PUSH0 SWAP1 SLOAD SWAP1 PUSH2 0x100 EXP SWAP1 DIV PUSH20 0xFFFFFFFFFFFFFFFFFFFFFFFFFFFFFFFFFFFFFFFF AND PUSH20 0xFFFFFFFFFFFFFFFFFFFFFFFFFFFFFFFFFFFFFFFF AND EQ PUSH2 0x359 JUMPI PUSH1 0x40 MLOAD PUSH32 0x8C379A000000000000000000000000000000000000000000000000000000000 DUP2 MSTORE PUSH1 0x4 ADD PUSH2 0x350 SWAP1 PUSH2 0x187A JUMP JUMPDEST PUSH1 0x40 MLOAD DUP1 SWAP2 SUB SWAP1 REVERT JUMPDEST DUP2 PUSH1 0x3 PUSH0 PUSH2 0x100 EXP DUP2 SLOAD DUP2 PUSH20 0xFFFFFFFFFFFFFFFFFFFFFFFFFFFFFFFFFFFFFFFF MUL NOT AND SWAP1 DUP4 PUSH20 0xFFFFFFFFFFFFFFFFFFFFFFFFFFFFFFFFFFFFFFFF AND MUL OR SWAP1 SSTORE POP PUSH1 0x3 PUSH0 SWAP1 SLOAD SWAP1 PUSH2 0x100 EXP SWAP1 DIV PUSH20 0xFFFFFFFFFFFFFFFFFFFFFFFFFFFFFFFFFFFFFFFF AND PUSH20 0xFFFFFFFFFFFFFFFFFFFFFFFFFFFFFFFFFFFFFFFF AND DUP2 PUSH20 0xFFFFFFFFFFFFFFFFFFFFFFFFFFFFFFFFFFFFFFFF AND SUB PUSH2 0x428 JUMPI PUSH1 0x40 MLOAD PUSH32 0x8C379A000000000000000000000000000000000000000000000000000000000 DUP2 MSTORE PUSH1 0x4 ADD PUSH2 0x41F SWAP1 PUSH2 0x1908 JUMP JUMPDEST PUSH1 0x40 MLOAD DUP1 SWAP2 SUB SWAP1 REVERT JUMPDEST DUP1 PUSH1 0x4 PUSH0 PUSH2 0x100 EXP DUP2 SLOAD DUP2 PUSH20 0xFFFFFFFFFFFFFFFFFFFFFFFFFFFFFFFFFFFFFFFF MUL NOT AND SWAP1 DUP4 PUSH20 0xFFFFFFFFFFFFFFFFFFFFFFFFFFFFFFFFFFFFFFFF AND MUL OR SWAP1 SSTORE POP PUSH1 0x3 PUSH0 SWAP1 SLOAD SWAP1 PUSH2 0x100 EXP SWAP1 DIV PUSH20 0xFFFFFFFFFFFFFFFFFFFFFFFFFFFFFFFFFFFFFFFF AND PUSH1 0x5 PUSH0 PUSH2 0x100 EXP DUP2 SLOAD DUP2 PUSH20 0xFFFFFFFFFFFFFFFFFFFFFFFFFFFFFFFFFFFFFFFF MUL NOT AND SWAP1 DUP4 PUSH20 0xFFFFFFFFFFFFFFFFFFFFFFFFFFFFFFFFFFFFFFFF AND MUL OR SWAP1 SSTORE POP PUSH0 PUSH1 0x5 PUSH1 0x14 PUSH2 0x100 EXP DUP2 SLOAD DUP2 PUSH1 0xFF MUL NOT AND SWAP1 DUP4 ISZERO ISZERO MUL OR SWAP1 SSTORE POP PUSH1 0x4 PUSH0 SWAP1 SLOAD SWAP1 PUSH2 0x100 EXP SWAP1 DIV PUSH20 0xFFFFFFFFFFFFFFFFFFFFFFFFFFFFFFFFFFFFFFFF AND PUSH20 0xFFFFFFFFFFFFFFFFFFFFFFFFFFFFFFFFFFFFFFFF AND PUSH1 0x3 PUSH0 SWAP1 SLOAD SWAP1 PUSH2 0x100 EXP SWAP1 DIV PUSH20 0xFFFFFFFFFFFFFFFFFFFFFFFFFFFFFFFFFFFFFFFF AND PUSH20 0xFFFFFFFFFFFFFFFFFFFFFFFFFFFFFFFFFFFFFFFF AND ADDRESS PUSH20 0xFFFFFFFFFFFFFFFFFFFFFFFFFFFFFFFFFFFFFFFF AND PUSH32 0xE733EB5C42C855D38269254700780D064A49EF1611D1F3BFDDA632EC19891F56 PUSH1 0x40 MLOAD PUSH1 0x40 MLOAD DUP1 SWAP2 SUB SWAP1 LOG4 POP POP JUMP JUMPDEST PUSH1 0x5 PUSH1 0x14 SWAP1 SLOAD SWAP1 PUSH2 0x100 EXP SWAP1 DIV PUSH1 0xFF AND ISZERO PUSH2 0x5EA JUMPI PUSH1 0x40 MLOAD PUSH32 0x8C379A000000000000000000000000000000000000000000000000000000000 DUP2 MSTORE PUSH1 0x4 ADD PUSH2 0x5E1 SWAP1 PUSH2 0x1970 JUMP JUMPDEST PUSH1 0x40 MLOAD DUP1 SWAP2 SUB SWAP1 REVERT JUMPDEST PUSH1 0x5 PUSH0 SWAP1 SLOAD SWAP1 PUSH2 0x100 EXP SWAP1 DIV PUSH20 0xFFFFFFFFFFFFFFFFFFFFFFFFFFFFFFFFFFFFFFFF AND PUSH20 0xFFFFFFFFFFFFFFFFFFFFFFFFFFFFFFFFFFFFFFFF AND CALLER PUSH20 0xFFFFFFFFFFFFFFFFFFFFFFFFFFFFFFFFFFFFFFFF AND EQ PUSH2 0x679 JUMPI PUSH1 0x40 MLOAD PUSH32 0x8C379A000000000000000000000000000000000000000000000000000000000 DUP2 MSTORE PUSH1 0x4 ADD PUSH2 0x670 SWAP1 PUSH2 0x19D8 JUMP JUMPDEST PUSH1 0x40 MLOAD DUP1 SWAP2 SUB SWAP1 REVERT JUMPDEST PUSH1 0x3 DUP3 PUSH1 0xFF AND LT DUP1 ISZERO PUSH2 0x68F JUMPI POP PUSH1 0x3 DUP2 PUSH1 0xFF AND LT JUMPDEST PUSH2 0x6CE JUMPI PUSH1 0x40 MLOAD PUSH32 0x8C379A000000000000000000000000000000000000000000000000000000000 DUP2 MSTORE PUSH1 0x4 ADD PUSH2 0x6C5 SWAP1 PUSH2 0x1A40 JUMP JUMPDEST PUSH1 0x40 MLOAD DUP1 SWAP2 SUB SWAP1 REVERT JUMPDEST PUSH0 PUSH0 DUP4 PUSH1 0xFF AND PUSH1 0x3 DUP2 LT PUSH2 0x6E5 JUMPI PUSH2 0x6E4 PUSH2 0x1A5E JUMP JUMPDEST JUMPDEST ADD DUP3 PUSH1 0xFF AND PUSH1 0x3 DUP2 LT PUSH2 0x6FB JUMPI PUSH2 0x6FA PUSH2 0x1A5E JUMP JUMPDEST JUMPDEST PUSH1 0x20 SWAP2 DUP3 DUP3 DIV ADD SWAP2 SWAP1 MOD SWAP1 SLOAD SWAP1 PUSH2 0x100 EXP SWAP1 DIV PUSH1 0xFF AND PUSH1 0xFF AND EQ PUSH2 0x754 JUMPI PUSH1 0x40 MLOAD PUSH32 0x8C379A000000000000000000000000000000000000000000000000000000000 DUP2 MSTORE PUSH1 0x4 ADD PUSH2 0x74B SWAP1 PUSH2 0x1AD5 JUMP JUMPDEST PUSH1 0x40 MLOAD DUP1 SWAP2 SUB SWAP1 REVERT JUMPDEST PUSH1 0x3 PUSH0 SWAP1 SLOAD SWAP1 PUSH2 0x100 EXP SWAP1 DIV PUSH20 0xFFFFFFFFFFFFFFFFFFFFFFFFFFFFFFFFFFFFFFFF AND PUSH20 0xFFFFFFFFFFFFFFFFFFFFFFFFFFFFFFFFFFFFFFFF AND CALLER PUSH20 0xFFFFFFFFFFFFFFFFFFFFFFFFFFFFFFFFFFFFFFFF AND SUB PUSH2 0x7FB JUMPI PUSH1 0x1 PUSH0 DUP4 PUSH1 0xFF AND PUSH1 0x3 DUP2 LT PUSH2 0x7C0 JUMPI PUSH2 0x7BF PUSH2 0x1A5E JUMP JUMPDEST JUMPDEST ADD DUP3 PUSH1 0xFF AND PUSH1 0x3 DUP2 LT PUSH2 0x7D6 JUMPI PUSH2 0x7D5 PUSH2 0x1A5E JUMP JUMPDEST JUMPDEST PUSH1 0x20 SWAP2 DUP3 DUP3 DIV ADD SWAP2 SWAP1 MOD PUSH2 0x100 EXP DUP2 SLOAD DUP2 PUSH1 0xFF MUL NOT AND SWAP1 DUP4 PUSH1 0xFF AND MUL OR SWAP1 SSTORE POP PUSH2 0x84A JUMP JUMPDEST PUSH1 0x2 PUSH0 DUP4 PUSH1 0xFF AND PUSH1 0x3 DUP2 LT PUSH2 0x813 JUMPI PUSH2 0x812 PUSH2 0x1A5E JUMP JUMPDEST JUMPDEST ADD DUP3 PUSH1 0xFF AND PUSH1 0x3 DUP2 LT PUSH2 0x829 JUMPI PUSH2 0x828 PUSH2 0x1A5E JUMP JUMPDEST JUMPDEST PUSH1 0x20 SWAP2 DUP3 DUP3 DIV ADD SWAP2 SWAP1 MOD PUSH2 0x100 EXP DUP2 SLOAD DUP2 PUSH1 0xFF MUL NOT AND SWAP1 DUP4 PUSH1 0xFF AND MUL OR SWAP1 SSTORE POP JUMPDEST PUSH2 0x852 PUSH2 0xC53 JUMP JUMPDEST PUSH1 0x5 PUSH1 0x14 SWAP1 SLOAD SWAP1 PUSH2 0x100 EXP SWAP1 DIV PUSH1 0xFF AND PUSH2 0x86F JUMPI PUSH2 0x86E PUSH2 0x1241 JUMP JUMPDEST JUMPDEST POP POP JUMP JUMPDEST PUSH0 DUP3 PUSH1 0x3 DUP2 LT PUSH2 0x881 JUMPI PUSH0 DUP1 REVERT JUMPDEST ADD DUP2 PUSH1 0x3 DUP2 LT PUSH2 0x88F JUMPI PUSH0 DUP1 REVERT JUMPDEST PUSH1 0x20 SWAP2 DUP3 DUP3 DIV ADD SWAP2 SWAP1 MOD SWAP2 POP SWAP2 POP SWAP1 SLOAD SWAP1 PUSH2 0x100 EXP SWAP1 DIV PUSH1 0xFF AND DUP2 JUMP JUMPDEST PUSH0 PUSH0 PUSH1 0x3 PUSH0 SWAP1 SLOAD SWAP1 PUSH2 0x100 EXP SWAP1 DIV PUSH20 0xFFFFFFFFFFFFFFFFFFFFFFFFFFFFFFFFFFFFFFFF AND PUSH1 0x4 PUSH0 SWAP1 SLOAD SWAP1 PUSH2 0x100 EXP SWAP1 DIV PUSH20 0xFFFFFFFFFFFFFFFFFFFFFFFFFFFFFFFFFFFFFFFF AND SWAP2 POP SWAP2 POP SWAP1 SWAP2 JUMP JUMPDEST PUSH1 0x3 PUSH0 SWAP1 SLOAD SWAP1 PUSH2 0x100 EXP SWAP1 DIV PUSH20 0xFFFFFFFFFFFFFFFFFFFFFFFFFFFFFFFFFFFFFFFF AND PUSH20 0xFFFFFFFFFFFFFFFFFFFFFFFFFFFFFFFFFFFFFFFF AND CALLER PUSH20 0xFFFFFFFFFFFFFFFFFFFFFFFFFFFFFFFFFFFFFFFF AND EQ DUP1 PUSH2 0x9A1 JUMPI POP PUSH1 0x4 PUSH0 SWAP1 SLOAD SWAP1 PUSH2 0x100 EXP SWAP1 DIV PUSH20 0xFFFFFFFFFFFFFFFFFFFFFFFFFFFFFFFFFFFFFFFF AND PUSH20 0xFFFFFFFFFFFFFFFFFFFFFFFFFFFFFFFFFFFFFFFF AND CALLER PUSH20 0xFFFFFFFFFFFFFFFFFFFFFFFFFFFFFFFFFFFFFFFF AND EQ JUMPDEST PUSH2 0x9E0 JUMPI PUSH1 0x40 MLOAD PUSH32 0x8C379A000000000000000000000000000000000000000000000000000000000 DUP2 MSTORE PUSH1 0x4 ADD PUSH2 0x9D7 SWAP1 PUSH2 0x1B63 JUMP JUMPDEST PUSH1 0x40 MLOAD DUP1 SWAP2 SUB SWAP1 REVERT JUMPDEST PUSH0 PUSH0 SWAP1 POP JUMPDEST PUSH1 0x3 DUP2 PUSH1 0xFF AND LT ISZERO PUSH2 0xA8E JUMPI PUSH0 PUSH0 SWAP1 POP JUMPDEST PUSH0 DUP3 PUSH1 0xFF AND PUSH1 0x3 DUP2 LT PUSH2 0xA0C JUMPI PUSH2 0xA0B PUSH2 0x1A5E JUMP JUMPDEST JUMPDEST POP POP PUSH1 0x3 DUP2 PUSH1 0xFF AND LT ISZERO PUSH2 0xA7A JUMPI PUSH0 PUSH0 DUP4 PUSH1 0xFF AND PUSH1 0x3 DUP2 LT PUSH2 0xA31 JUMPI PUSH2 0xA30 PUSH2 0x1A5E JUMP JUMPDEST JUMPDEST ADD DUP3 PUSH1 0xFF AND PUSH1 0x3 DUP2 LT PUSH2 0xA47 JUMPI PUSH2 0xA46 PUSH2 0x1A5E JUMP JUMPDEST JUMPDEST PUSH1 0x20 SWAP2 DUP3 DUP3 DIV ADD SWAP2 SWAP1 MOD PUSH2 0x100 EXP DUP2 SLOAD DUP2 PUSH1 0xFF MUL NOT AND SWAP1 DUP4 PUSH1 0xFF AND MUL OR SWAP1 SSTORE POP DUP1 DUP1 PUSH2 0xA72 SWAP1 PUSH2 0x1BAE JUMP JUMPDEST SWAP2 POP POP PUSH2 0x9F6 JUMP JUMPDEST POP DUP1 DUP1 PUSH2 0xA86 SWAP1 PUSH2 0x1BAE JUMP JUMPDEST SWAP2 POP POP PUSH2 0x9E5 JUMP JUMPDEST POP PUSH0 PUSH1 0x5 PUSH1 0x14 PUSH2 0x100 EXP DUP2 SLOAD DUP2 PUSH1 0xFF MUL NOT AND SWAP1 DUP4 ISZERO ISZERO MUL OR SWAP1 SSTORE POP PUSH0 PUSH1 0x6 PUSH0 PUSH2 0x100 EXP DUP2 SLOAD DUP2 PUSH20 0xFFFFFFFFFFFFFFFFFFFFFFFFFFFFFFFFFFFFFFFF MUL NOT AND SWAP1 DUP4 PUSH20 0xFFFFFFFFFFFFFFFFFFFFFFFFFFFFFFFFFFFFFFFF AND MUL OR SWAP1 SSTORE POP CALLER PUSH1 0x5 PUSH0 PUSH2 0x100 EXP DUP2 SLOAD DUP2 PUSH20 0xFFFFFFFFFFFFFFFFFFFFFFFFFFFFFFFFFFFFFFFF MUL NOT AND SWAP1 DUP4 PUSH20 0xFFFFFFFFFFFFFFFFFFFFFFFFFFFFFFFFFFFFFFFF AND MUL OR SWAP1 SSTORE POP PUSH1 0x4 PUSH0 SWAP1 SLOAD SWAP1 PUSH2 0x100 EXP SWAP1 DIV PUSH20 0xFFFFFFFFFFFFFFFFFFFFFFFFFFFFFFFFFFFFFFFF AND PUSH20 0xFFFFFFFFFFFFFFFFFFFFFFFFFFFFFFFFFFFFFFFF AND PUSH1 0x3 PUSH0 SWAP1 SLOAD SWAP1 PUSH2 0x100 EXP SWAP1 DIV PUSH20 0xFFFFFFFFFFFFFFFFFFFFFFFFFFFFFFFFFFFFFFFF AND PUSH20 0xFFFFFFFFFFFFFFFFFFFFFFFFFFFFFFFFFFFFFFFF AND ADDRESS PUSH20 0xFFFFFFFFFFFFFFFFFFFFFFFFFFFFFFFFFFFFFFFF AND PUSH32 0xE733EB5C42C855D38269254700780D064A49EF1611D1F3BFDDA632EC19891F56 PUSH1 0x40 MLOAD PUSH1 0x40 MLOAD DUP1 SWAP2 SUB SWAP1 LOG4 JUMP JUMPDEST PUSH0 PUSH1 0x4 PUSH0 SWAP1 SLOAD SWAP1 PUSH2 0x100 EXP SWAP1 DIV PUSH20 0xFFFFFFFFFFFFFFFFFFFFFFFFFFFFFFFFFFFFFFFF AND SWAP1 POP SWAP1 JUMP JUMPDEST PUSH0 PUSH1 0x3 PUSH0 SWAP1 SLOAD SWAP1 PUSH2 0x100 EXP SWAP1 DIV PUSH20 0xFFFFFFFFFFFFFFFFFFFFFFFFFFFFFFFFFFFFFFFF AND SWAP1 POP SWAP1 JUMP JUMPDEST PUSH1 0x6 PUSH0 SWAP1 SLOAD SWAP1 PUSH2 0x100 EXP SWAP1 DIV PUSH20 0xFFFFFFFFFFFFFFFFFFFFFFFFFFFFFFFFFFFFFFFF AND DUP2 JUMP JUMPDEST PUSH0 PUSH1 0x3 PUSH0 SWAP1 SLOAD SWAP1 PUSH2 0x100 EXP SWAP1 DIV PUSH20 0xFFFFFFFFFFFFFFFFFFFFFFFFFFFFFFFFFFFFFFFF AND PUSH20 0xFFFFFFFFFFFFFFFFFFFFFFFFFFFFFFFFFFFFFFFF AND CALLER PUSH20 0xFFFFFFFFFFFFFFFFFFFFFFFFFFFFFFFFFFFFFFFF AND SUB PUSH2 0xCB1 JUMPI PUSH1 0x1 SWAP1 POP PUSH2 0xCB6 JUMP JUMPDEST PUSH1 0x2 SWAP1 POP JUMPDEST PUSH0 PUSH0 SWAP1 POP JUMPDEST PUSH1 0x3 DUP2 PUSH1 0xFF AND LT ISZERO PUSH2 0xECA JUMPI DUP2 PUSH1 0xFF AND PUSH0 DUP3 PUSH1 0xFF AND PUSH1 0x3 DUP2 LT PUSH2 0xCE1 JUMPI PUSH2 0xCE0 PUSH2 0x1A5E JUMP JUMPDEST JUMPDEST ADD PUSH0 PUSH1 0x3 DUP2 LT PUSH2 0xCF4 JUMPI PUSH2 0xCF3 PUSH2 0x1A5E JUMP JUMPDEST JUMPDEST PUSH1 0x20 SWAP2 DUP3 DUP3 DIV ADD SWAP2 SWAP1 MOD SWAP1 SLOAD SWAP1 PUSH2 0x100 EXP SWAP1 DIV PUSH1 0xFF AND PUSH1 0xFF AND EQ DUP1 ISZERO PUSH2 0xD5E JUMPI POP DUP2 PUSH1 0xFF AND PUSH0 DUP3 PUSH1 0xFF AND PUSH1 0x3 DUP2 LT PUSH2 0xD2F JUMPI PUSH2 0xD2E PUSH2 0x1A5E JUMP JUMPDEST JUMPDEST ADD PUSH1 0x1 PUSH1 0x3 DUP2 LT PUSH2 0xD43 JUMPI PUSH2 0xD42 PUSH2 0x1A5E JUMP JUMPDEST JUMPDEST PUSH1 0x20 SWAP2 DUP3 DUP3 DIV ADD SWAP2 SWAP1 MOD SWAP1 SLOAD SWAP1 PUSH2 0x100 EXP SWAP1 DIV PUSH1 0xFF AND PUSH1 0xFF AND EQ JUMPDEST DUP1 ISZERO PUSH2 0xDAE JUMPI POP DUP2 PUSH1 0xFF AND PUSH0 DUP3 PUSH1 0xFF AND PUSH1 0x3 DUP2 LT PUSH2 0xD7F JUMPI PUSH2 0xD7E PUSH2 0x1A5E JUMP JUMPDEST JUMPDEST ADD PUSH1 0x2 PUSH1 0x3 DUP2 LT PUSH2 0xD93 JUMPI PUSH2 0xD92 PUSH2 0x1A5E JUMP JUMPDEST JUMPDEST PUSH1 0x20 SWAP2 DUP3 DUP3 DIV ADD SWAP2 SWAP1 MOD SWAP1 SLOAD SWAP1 PUSH2 0x100 EXP SWAP1 DIV PUSH1 0xFF AND PUSH1 0xFF AND EQ JUMPDEST ISZERO PUSH2 0xDC2 JUMPI PUSH2 0xDBB PUSH2 0x137F JUMP JUMPDEST POP POP PUSH2 0x123F JUMP JUMPDEST DUP2 PUSH1 0xFF AND PUSH0 PUSH0 PUSH1 0x3 DUP2 LT PUSH2 0xDD9 JUMPI PUSH2 0xDD8 PUSH2 0x1A5E JUMP JUMPDEST JUMPDEST ADD DUP3 PUSH1 0xFF AND PUSH1 0x3 DUP2 LT PUSH2 0xDEF JUMPI PUSH2 0xDEE PUSH2 0x1A5E JUMP JUMPDEST JUMPDEST PUSH1 0x20 SWAP2 DUP3 DUP3 DIV ADD SWAP2 SWAP1 MOD SWAP1 SLOAD SWAP1 PUSH2 0x100 EXP SWAP1 DIV PUSH1 0xFF AND PUSH1 0xFF AND EQ DUP1 ISZERO PUSH2 0xE59 JUMPI POP DUP2 PUSH1 0xFF AND PUSH0 PUSH1 0x1 PUSH1 0x3 DUP2 LT PUSH2 0xE28 JUMPI PUSH2 0xE27 PUSH2 0x1A5E JUMP JUMPDEST JUMPDEST ADD DUP3 PUSH1 0xFF AND PUSH1 0x3 DUP2 LT PUSH2 0xE3E JUMPI PUSH2 0xE3D PUSH2 0x1A5E JUMP JUMPDEST JUMPDEST PUSH1 0x20 SWAP2 DUP3 DUP3 DIV ADD SWAP2 SWAP1 MOD SWAP1 SLOAD SWAP1 PUSH2 0x100 EXP SWAP1 DIV PUSH1 0xFF AND PUSH1 0xFF AND EQ JUMPDEST DUP1 ISZERO PUSH2 0xEA9 JUMPI POP DUP2 PUSH1 0xFF AND PUSH0 PUSH1 0x2 PUSH1 0x3 DUP2 LT PUSH2 0xE78 JUMPI PUSH2 0xE77 PUSH2 0x1A5E JUMP JUMPDEST JUMPDEST ADD DUP3 PUSH1 0xFF AND PUSH1 0x3 DUP2 LT PUSH2 0xE8E JUMPI PUSH2 0xE8D PUSH2 0x1A5E JUMP JUMPDEST JUMPDEST PUSH1 0x20 SWAP2 DUP3 DUP3 DIV ADD SWAP2 SWAP1 MOD SWAP1 SLOAD SWAP1 PUSH2 0x100 EXP SWAP1 DIV PUSH1 0xFF AND PUSH1 0xFF AND EQ JUMPDEST ISZERO PUSH2 0xEBD JUMPI PUSH2 0xEB6 PUSH2 0x137F JUMP JUMPDEST POP POP PUSH2 0x123F JUMP JUMPDEST DUP1 DUP1 PUSH1 0x1 ADD SWAP2 POP POP PUSH2 0xCBB JUMP JUMPDEST POP DUP1 PUSH1 0xFF AND PUSH0 PUSH0 PUSH1 0x3 DUP2 LT PUSH2 0xEE2 JUMPI PUSH2 0xEE1 PUSH2 0x1A5E JUMP JUMPDEST JUMPDEST ADD PUSH0 PUSH1 0x3 DUP2 LT PUSH2 0xEF5 JUMPI PUSH2 0xEF4 PUSH2 0x1A5E JUMP JUMPDEST JUMPDEST PUSH1 0x20 SWAP2 DUP3 DUP3 DIV ADD SWAP2 SWAP1 MOD SWAP1 SLOAD SWAP1 PUSH2 0x100 EXP SWAP1 DIV PUSH1 0xFF AND PUSH1 0xFF AND EQ DUP1 ISZERO PUSH2 0xF5D JUMPI POP DUP1 PUSH1 0xFF AND PUSH0 PUSH1 0x1 PUSH1 0x3 DUP2 LT PUSH2 0xF2E JUMPI PUSH2 0xF2D PUSH2 0x1A5E JUMP JUMPDEST JUMPDEST ADD PUSH1 0x1 PUSH1 0x3 DUP2 LT PUSH2 0xF42 JUMPI PUSH2 0xF41 PUSH2 0x1A5E JUMP JUMPDEST JUMPDEST PUSH1 0x20 SWAP2 DUP3 DUP3 DIV ADD SWAP2 SWAP1 MOD SWAP1 SLOAD SWAP1 PUSH2 0x100 EXP SWAP1 DIV PUSH1 0xFF AND PUSH1 0xFF AND EQ JUMPDEST DUP1 ISZERO PUSH2 0xFAB JUMPI POP DUP1 PUSH1 0xFF AND PUSH0 PUSH1 0x2 PUSH1 0x3 DUP2 LT PUSH2 0xF7C JUMPI PUSH2 0xF7B PUSH2 0x1A5E JUMP JUMPDEST JUMPDEST ADD PUSH1 0x2 PUSH1 0x3 DUP2 LT PUSH2 0xF90 JUMPI PUSH2 0xF8F PUSH2 0x1A5E JUMP JUMPDEST JUMPDEST PUSH1 0x20 SWAP2 DUP3 DUP3 DIV ADD SWAP2 SWAP1 MOD SWAP1 SLOAD SWAP1 PUSH2 0x100 EXP SWAP1 DIV PUSH1 0xFF AND PUSH1 0xFF AND EQ JUMPDEST ISZERO PUSH2 0xFBE JUMPI PUSH2 0xFB8 PUSH2 0x137F JUMP JUMPDEST POP PUSH2 0x123F JUMP JUMPDEST DUP1 PUSH1 0xFF AND PUSH0 PUSH0 PUSH1 0x3 DUP2 LT PUSH2 0xFD5 JUMPI PUSH2 0xFD4 PUSH2 0x1A5E JUMP JUMPDEST JUMPDEST ADD PUSH1 0x2 PUSH1 0x3 DUP2 LT PUSH2 0xFE9 JUMPI PUSH2 0xFE8 PUSH2 0x1A5E JUMP JUMPDEST JUMPDEST PUSH1 0x20 SWAP2 DUP3 DUP3 DIV ADD SWAP2 SWAP1 MOD SWAP1 SLOAD SWAP1 PUSH2 0x100 EXP SWAP1 DIV PUSH1 0xFF AND PUSH1 0xFF AND EQ DUP1 ISZERO PUSH2 0x1051 JUMPI POP DUP1 PUSH1 0xFF AND PUSH0 PUSH1 0x1 PUSH1 0x3 DUP2 LT PUSH2 0x1022 JUMPI PUSH2 0x1021 PUSH2 0x1A5E JUMP JUMPDEST JUMPDEST ADD PUSH1 0x1 PUSH1 0x3 DUP2 LT PUSH2 0x1036 JUMPI PUSH2 0x1035 PUSH2 0x1A5E JUMP JUMPDEST JUMPDEST PUSH1 0x20 SWAP2 DUP3 DUP3 DIV ADD SWAP2 SWAP1 MOD SWAP1 SLOAD SWAP1 PUSH2 0x100 EXP SWAP1 DIV PUSH1 0xFF AND PUSH1 0xFF AND EQ JUMPDEST DUP1 ISZERO PUSH2 0x109E JUMPI POP DUP1 PUSH1 0xFF AND PUSH0 PUSH1 0x2 PUSH1 0x3 DUP2 LT PUSH2 0x1070 JUMPI PUSH2 0x106F PUSH2 0x1A5E JUMP JUMPDEST JUMPDEST ADD PUSH0 PUSH1 0x3 DUP2 LT PUSH2 0x1083 JUMPI PUSH2 0x1082 PUSH2 0x1A5E JUMP JUMPDEST JUMPDEST PUSH1 0x20 SWAP2 DUP3 DUP3 DIV ADD SWAP2 SWAP1 MOD SWAP1 SLOAD SWAP1 PUSH2 0x100 EXP SWAP1 DIV PUSH1 0xFF AND PUSH1 0xFF AND EQ JUMPDEST ISZERO PUSH2 0x10B1 JUMPI PUSH2 0x10AB PUSH2 0x137F JUMP JUMPDEST POP PUSH2 0x123F JUMP JUMPDEST PUSH0 PUSH0 SWAP1 POP PUSH0 PUSH0 SWAP1 POP JUMPDEST PUSH1 0x3 DUP2 PUSH1 0xFF AND LT ISZERO PUSH2 0x1170 JUMPI PUSH0 PUSH0 SWAP1 POP JUMPDEST PUSH0 DUP3 PUSH1 0xFF AND PUSH1 0x3 DUP2 LT PUSH2 0x10E1 JUMPI PUSH2 0x10E0 PUSH2 0x1A5E JUMP JUMPDEST JUMPDEST POP POP PUSH1 0x3 DUP2 PUSH1 0xFF AND LT ISZERO PUSH2 0x115C JUMPI PUSH0 PUSH0 DUP4 PUSH1 0xFF AND PUSH1 0x3 DUP2 LT PUSH2 0x1106 JUMPI PUSH2 0x1105 PUSH2 0x1A5E JUMP JUMPDEST JUMPDEST ADD DUP3 PUSH1 0xFF AND PUSH1 0x3 DUP2 LT PUSH2 0x111C JUMPI PUSH2 0x111B PUSH2 0x1A5E JUMP JUMPDEST JUMPDEST PUSH1 0x20 SWAP2 DUP3 DUP3 DIV ADD SWAP2 SWAP1 MOD SWAP1 SLOAD SWAP1 PUSH2 0x100 EXP SWAP1 DIV PUSH1 0xFF AND PUSH1 0xFF AND EQ PUSH2 0x1149 JUMPI DUP3 DUP1 PUSH2 0x1145 SWAP1 PUSH2 0x1BAE JUMP JUMPDEST SWAP4 POP POP JUMPDEST DUP1 DUP1 PUSH2 0x1154 SWAP1 PUSH2 0x1BAE JUMP JUMPDEST SWAP2 POP POP PUSH2 0x10CB JUMP JUMPDEST POP DUP1 DUP1 PUSH2 0x1168 SWAP1 PUSH2 0x1BAE JUMP JUMPDEST SWAP2 POP POP PUSH2 0x10BA JUMP JUMPDEST POP PUSH1 0x9 DUP2 PUSH1 0xFF AND SUB PUSH2 0x123C JUMPI PUSH1 0x1 PUSH1 0x5 PUSH1 0x14 PUSH2 0x100 EXP DUP2 SLOAD DUP2 PUSH1 0xFF MUL NOT AND SWAP1 DUP4 ISZERO ISZERO MUL OR SWAP1 SSTORE POP PUSH0 PUSH1 0x6 PUSH0 PUSH2 0x100 EXP DUP2 SLOAD DUP2 PUSH20 0xFFFFFFFFFFFFFFFFFFFFFFFFFFFFFFFFFFFFFFFF MUL NOT AND SWAP1 DUP4 PUSH20 0xFFFFFFFFFFFFFFFFFFFFFFFFFFFFFFFFFFFFFFFF AND MUL OR SWAP1 SSTORE POP PUSH1 0x6 PUSH0 SWAP1 SLOAD SWAP1 PUSH2 0x100 EXP SWAP1 DIV PUSH20 0xFFFFFFFFFFFFFFFFFFFFFFFFFFFFFFFFFFFFFFFF AND PUSH20 0xFFFFFFFFFFFFFFFFFFFFFFFFFFFFFFFFFFFFFFFF AND PUSH32 0x51B77D00D3C0B7E376E9EE146711CEB2C08E58A5DBE38055A618E52109F720C1 PUSH1 0x40 MLOAD PUSH1 0x40 MLOAD DUP1 SWAP2 SUB SWAP1 LOG2 JUMPDEST POP POP JUMPDEST JUMP JUMPDEST PUSH1 0x3 PUSH0 SWAP1 SLOAD SWAP1 PUSH2 0x100 EXP SWAP1 DIV PUSH20 0xFFFFFFFFFFFFFFFFFFFFFFFFFFFFFFFFFFFFFFFF AND PUSH20 0xFFFFFFFFFFFFFFFFFFFFFFFFFFFFFFFFFFFFFFFF AND PUSH1 0x5 PUSH0 SWAP1 SLOAD SWAP1 PUSH2 0x100 EXP SWAP1 DIV PUSH20 0xFFFFFFFFFFFFFFFFFFFFFFFFFFFFFFFFFFFFFFFF AND PUSH20 0xFFFFFFFFFFFFFFFFFFFFFFFFFFFFFFFFFFFFFFFF AND EQ PUSH2 0x131B JUMPI PUSH1 0x3 PUSH0 SWAP1 SLOAD SWAP1 PUSH2 0x100 EXP SWAP1 DIV PUSH20 0xFFFFFFFFFFFFFFFFFFFFFFFFFFFFFFFFFFFFFFFF AND PUSH1 0x5 PUSH0 PUSH2 0x100 EXP DUP2 SLOAD DUP2 PUSH20 0xFFFFFFFFFFFFFFFFFFFFFFFFFFFFFFFFFFFFFFFF MUL NOT AND SWAP1 DUP4 PUSH20 0xFFFFFFFFFFFFFFFFFFFFFFFFFFFFFFFFFFFFFFFF AND MUL OR SWAP1 SSTORE PUSH2 0x137C JUMP JUMPDEST PUSH1 0x4 PUSH0 SWAP1 SLOAD SWAP1 PUSH2 0x100 EXP SWAP1 DIV PUSH20 0xFFFFFFFFFFFFFFFFFFFFFFFFFFFFFFFFFFFFFFFF AND PUSH1 0x5 PUSH0 PUSH2 0x100 EXP DUP2 SLOAD DUP2 PUSH20 0xFFFFFFFFFFFFFFFFFFFFFFFFFFFFFFFFFFFFFFFF MUL NOT AND SWAP1 DUP4 PUSH20 0xFFFFFFFFFFFFFFFFFFFFFFFFFFFFFFFFFFFFFFFF AND MUL OR SWAP1 SSTORE JUMPDEST POP JUMP JUMPDEST PUSH1 0x1 PUSH1 0x5 PUSH1 0x14 PUSH2 0x100 EXP DUP2 SLOAD DUP2 PUSH1 0xFF MUL NOT AND SWAP1 DUP4 ISZERO ISZERO MUL OR SWAP1 SSTORE POP CALLER PUSH1 0x6 PUSH0 PUSH2 0x100 EXP DUP2 SLOAD DUP2 PUSH20 0xFFFFFFFFFFFFFFFFFFFFFFFFFFFFFFFFFFFFFFFF MUL NOT AND SWAP1 DUP4 PUSH20 0xFFFFFFFFFFFFFFFFFFFFFFFFFFFFFFFFFFFFFFFF AND MUL OR SWAP1 SSTORE POP PUSH1 0x6 PUSH0 SWAP1 SLOAD SWAP1 PUSH2 0x100 EXP SWAP1 DIV PUSH20 0xFFFFFFFFFFFFFFFFFFFFFFFFFFFFFFFFFFFFFFFF AND PUSH20 0xFFFFFFFFFFFFFFFFFFFFFFFFFFFFFFFFFFFFFFFF AND PUSH32 0x51B77D00D3C0B7E376E9EE146711CEB2C08E58A5DBE38055A618E52109F720C1 PUSH1 0x40 MLOAD PUSH1 0x40 MLOAD DUP1 SWAP2 SUB SWAP1 LOG2 JUMP JUMPDEST PUSH1 0x40 MLOAD DUP1 PUSH1 0x60 ADD PUSH1 0x40 MSTORE DUP1 PUSH1 0x3 SWAP1 JUMPDEST PUSH2 0x1457 PUSH2 0x146D JUMP JUMPDEST DUP2 MSTORE PUSH1 0x20 ADD SWAP1 PUSH1 0x1 SWAP1 SUB SWAP1 DUP2 PUSH2 0x144F JUMPI SWAP1 POP POP SWAP1 JUMP JUMPDEST PUSH1 0x40 MLOAD DUP1 PUSH1 0x60 ADD PUSH1 0x40 MSTORE DUP1 PUSH1 0x3 SWAP1 PUSH1 0x20 DUP3 MUL DUP1 CALLDATASIZE DUP4 CALLDATACOPY DUP1 DUP3 ADD SWAP2 POP POP SWAP1 POP POP SWAP1 JUMP JUMPDEST PUSH0 PUSH20 0xFFFFFFFFFFFFFFFFFFFFFFFFFFFFFFFFFFFFFFFF DUP3 AND SWAP1 POP SWAP2 SWAP1 POP JUMP JUMPDEST PUSH0 PUSH2 0x14B8 DUP3 PUSH2 0x148F JUMP JUMPDEST SWAP1 POP SWAP2 SWAP1 POP JUMP JUMPDEST PUSH2 0x14C8 DUP2 PUSH2 0x14AE JUMP JUMPDEST DUP3 MSTORE POP POP JUMP JUMPDEST PUSH0 PUSH1 0x20 DUP3 ADD SWAP1 POP PUSH2 0x14E1 PUSH0 DUP4 ADD DUP5 PUSH2 0x14BF JUMP JUMPDEST SWAP3 SWAP2 POP POP JUMP JUMPDEST PUSH0 DUP2 ISZERO ISZERO SWAP1 POP SWAP2 SWAP1 POP JUMP JUMPDEST PUSH2 0x14FB DUP2 PUSH2 0x14E7 JUMP JUMPDEST DUP3 MSTORE POP POP JUMP JUMPDEST PUSH0 PUSH1 0x20 DUP3 ADD SWAP1 POP PUSH2 0x1514 PUSH0 DUP4 ADD DUP5 PUSH2 0x14F2 JUMP JUMPDEST SWAP3 SWAP2 POP POP JUMP JUMPDEST PUSH0 PUSH1 0x3 SWAP1 POP SWAP2 SWAP1 POP JUMP JUMPDEST PUSH0 DUP2 SWAP1 POP SWAP3 SWAP2 POP POP JUMP JUMPDEST PUSH0 DUP2 SWAP1 POP SWAP2 SWAP1 POP JUMP JUMPDEST PUSH0 PUSH1 0x3 SWAP1 POP SWAP2 SWAP1 POP JUMP JUMPDEST PUSH0 DUP2 SWAP1 POP SWAP3 SWAP2 POP POP JUMP JUMPDEST PUSH0 DUP2 SWAP1 POP SWAP2 SWAP1 POP JUMP JUMPDEST PUSH0 PUSH1 0xFF DUP3 AND SWAP1 POP SWAP2 SWAP1 POP JUMP JUMPDEST PUSH2 0x1569 DUP2 PUSH2 0x1554 JUMP JUMPDEST DUP3 MSTORE POP POP JUMP JUMPDEST PUSH0 PUSH2 0x157A DUP4 DUP4 PUSH2 0x1560 JUMP JUMPDEST PUSH1 0x20 DUP4 ADD SWAP1 POP SWAP3 SWAP2 POP POP JUMP JUMPDEST PUSH0 PUSH1 0x20 DUP3 ADD SWAP1 POP SWAP2 SWAP1 POP JUMP JUMPDEST PUSH2 0x159B DUP2 PUSH2 0x1537 JUMP JUMPDEST PUSH2 0x15A5 DUP2 DUP5 PUSH2 0x1541 JUMP JUMPDEST SWAP3 POP PUSH2 0x15B0 DUP3 PUSH2 0x154B JUMP JUMPDEST DUP1 PUSH0 JUMPDEST DUP4 DUP2 LT ISZERO PUSH2 0x15E0 JUMPI DUP2 MLOAD PUSH2 0x15C7 DUP8 DUP3 PUSH2 0x156F JUMP JUMPDEST SWAP7 POP PUSH2 0x15D2 DUP4 PUSH2 0x1586 JUMP JUMPDEST SWAP3 POP POP PUSH1 0x1 DUP2 ADD SWAP1 POP PUSH2 0x15B3 JUMP JUMPDEST POP POP POP POP POP POP JUMP JUMPDEST PUSH0 PUSH2 0x15F3 DUP4 DUP4 PUSH2 0x1592 JUMP JUMPDEST PUSH1 0x60 DUP4 ADD SWAP1 POP SWAP3 SWAP2 POP POP JUMP JUMPDEST PUSH0 PUSH1 0x20 DUP3 ADD SWAP1 POP SWAP2 SWAP1 POP JUMP JUMPDEST PUSH2 0x1614 DUP2 PUSH2 0x151A JUMP JUMPDEST PUSH2 0x161E DUP2 DUP5 PUSH2 0x1524 JUMP JUMPDEST SWAP3 POP PUSH2 0x1629 DUP3 PUSH2 0x152E JUMP JUMPDEST DUP1 PUSH0 JUMPDEST DUP4 DUP2 LT ISZERO PUSH2 0x1659 JUMPI DUP2 MLOAD PUSH2 0x1640 DUP8 DUP3 PUSH2 0x15E8 JUMP JUMPDEST SWAP7 POP PUSH2 0x164B DUP4 PUSH2 0x15FF JUMP JUMPDEST SWAP3 POP POP PUSH1 0x1 DUP2 ADD SWAP1 POP PUSH2 0x162C JUMP JUMPDEST POP POP POP POP POP POP JUMP JUMPDEST PUSH0 PUSH2 0x120 DUP3 ADD SWAP1 POP PUSH2 0x1675 PUSH0 DUP4 ADD DUP5 PUSH2 0x160B JUMP JUMPDEST SWAP3 SWAP2 POP POP JUMP JUMPDEST PUSH0 PUSH0 REVERT JUMPDEST PUSH0 PUSH2 0x1689 DUP3 PUSH2 0x148F JUMP JUMPDEST SWAP1 POP SWAP2 SWAP1 POP JUMP JUMPDEST PUSH2 0x1699 DUP2 PUSH2 0x167F JUMP JUMPDEST DUP2 EQ PUSH2 0x16A3 JUMPI PUSH0 PUSH0 REVERT JUMPDEST POP JUMP JUMPDEST PUSH0 DUP2 CALLDATALOAD SWAP1 POP PUSH2 0x16B4 DUP2 PUSH2 0x1690 JUMP JUMPDEST SWAP3 SWAP2 POP POP JUMP JUMPDEST PUSH0 PUSH0 PUSH1 0x40 DUP4 DUP6 SUB SLT ISZERO PUSH2 0x16D0 JUMPI PUSH2 0x16CF PUSH2 0x167B JUMP JUMPDEST JUMPDEST PUSH0 PUSH2 0x16DD DUP6 DUP3 DUP7 ADD PUSH2 0x16A6 JUMP JUMPDEST SWAP3 POP POP PUSH1 0x20 PUSH2 0x16EE DUP6 DUP3 DUP7 ADD PUSH2 0x16A6 JUMP JUMPDEST SWAP2 POP POP SWAP3 POP SWAP3 SWAP1 POP JUMP JUMPDEST PUSH2 0x1701 DUP2 PUSH2 0x1554 JUMP JUMPDEST DUP2 EQ PUSH2 0x170B JUMPI PUSH0 PUSH0 REVERT JUMPDEST POP JUMP JUMPDEST PUSH0 DUP2 CALLDATALOAD SWAP1 POP PUSH2 0x171C DUP2 PUSH2 0x16F8 JUMP JUMPDEST SWAP3 SWAP2 POP POP JUMP JUMPDEST PUSH0 PUSH0 PUSH1 0x40 DUP4 DUP6 SUB SLT ISZERO PUSH2 0x1738 JUMPI PUSH2 0x1737 PUSH2 0x167B JUMP JUMPDEST JUMPDEST PUSH0 PUSH2 0x1745 DUP6 DUP3 DUP7 ADD PUSH2 0x170E JUMP JUMPDEST SWAP3 POP POP PUSH1 0x20 PUSH2 0x1756 DUP6 DUP3 DUP7 ADD PUSH2 0x170E JUMP JUMPDEST SWAP2 POP POP SWAP3 POP SWAP3 SWAP1 POP JUMP JUMPDEST PUSH0 DUP2 SWAP1 POP SWAP2 SWAP1 POP JUMP JUMPDEST PUSH2 0x1772 DUP2 PUSH2 0x1760 JUMP JUMPDEST DUP2 EQ PUSH2 0x177C JUMPI PUSH0 PUSH0 REVERT JUMPDEST POP JUMP JUMPDEST PUSH0 DUP2 CALLDATALOAD SWAP1 POP PUSH2 0x178D DUP2 PUSH2 0x1769 JUMP JUMPDEST SWAP3 SWAP2 POP POP JUMP JUMPDEST PUSH0 PUSH0 PUSH1 0x40 DUP4 DUP6 SUB SLT ISZERO PUSH2 0x17A9 JUMPI PUSH2 0x17A8 PUSH2 0x167B JUMP JUMPDEST JUMPDEST PUSH0 PUSH2 0x17B6 DUP6 DUP3 DUP7 ADD PUSH2 0x177F JUMP JUMPDEST SWAP3 POP POP PUSH1 0x20 PUSH2 0x17C7 DUP6 DUP3 DUP7 ADD PUSH2 0x177F JUMP JUMPDEST SWAP2 POP POP SWAP3 POP SWAP3 SWAP1 POP JUMP JUMPDEST PUSH2 0x17DA DUP2 PUSH2 0x1554 JUMP JUMPDEST DUP3 MSTORE POP POP JUMP JUMPDEST PUSH0 PUSH1 0x20 DUP3 ADD SWAP1 POP PUSH2 0x17F3 PUSH0 DUP4 ADD DUP5 PUSH2 0x17D1 JUMP JUMPDEST SWAP3 SWAP2 POP POP JUMP JUMPDEST PUSH0 PUSH1 0x40 DUP3 ADD SWAP1 POP PUSH2 0x180C PUSH0 DUP4 ADD DUP6 PUSH2 0x14BF JUMP JUMPDEST PUSH2 0x1819 PUSH1 0x20 DUP4 ADD DUP5 PUSH2 0x14BF JUMP JUMPDEST SWAP4 SWAP3 POP POP POP JUMP JUMPDEST PUSH0 DUP3 DUP3 MSTORE PUSH1 0x20 DUP3 ADD SWAP1 POP SWAP3 SWAP2 POP POP JUMP JUMPDEST PUSH32 0x47616D6520616C726561647920696E697469616C697A65640000000000000000 PUSH0 DUP3 ADD MSTORE POP JUMP JUMPDEST PUSH0 PUSH2 0x1864 PUSH1 0x18 DUP4 PUSH2 0x1820 JUMP JUMPDEST SWAP2 POP PUSH2 0x186F DUP3 PUSH2 0x1830 JUMP JUMPDEST PUSH1 0x20 DUP3 ADD SWAP1 POP SWAP2 SWAP1 POP JUMP JUMPDEST PUSH0 PUSH1 0x20 DUP3 ADD SWAP1 POP DUP2 DUP2 SUB PUSH0 DUP4 ADD MSTORE PUSH2 0x1891 DUP2 PUSH2 0x1858 JUMP JUMPDEST SWAP1 POP SWAP2 SWAP1 POP JUMP JUMPDEST PUSH32 0x4F7468657220706C61796572206D75737420757365206120646966666572656E PUSH0 DUP3 ADD MSTORE PUSH32 0x7420616464726573730000000000000000000000000000000000000000000000 PUSH1 0x20 DUP3 ADD MSTORE POP JUMP JUMPDEST PUSH0 PUSH2 0x18F2 PUSH1 0x29 DUP4 PUSH2 0x1820 JUMP JUMPDEST SWAP2 POP PUSH2 0x18FD DUP3 PUSH2 0x1898 JUMP JUMPDEST PUSH1 0x40 DUP3 ADD SWAP1 POP SWAP2 SWAP1 POP JUMP JUMPDEST PUSH0 PUSH1 0x20 DUP3 ADD SWAP1 POP DUP2 DUP2 SUB PUSH0 DUP4 ADD MSTORE PUSH2 0x191F DUP2 PUSH2 0x18E6 JUMP JUMPDEST SWAP1 POP SWAP2 SWAP1 POP JUMP JUMPDEST PUSH32 0x5468652067616D65206973206F7665722E000000000000000000000000000000 PUSH0 DUP3 ADD MSTORE POP JUMP JUMPDEST PUSH0 PUSH2 0x195A PUSH1 0x11 DUP4 PUSH2 0x1820 JUMP JUMPDEST SWAP2 POP PUSH2 0x1965 DUP3 PUSH2 0x1926 JUMP JUMPDEST PUSH1 0x20 DUP3 ADD SWAP1 POP SWAP2 SWAP1 POP JUMP JUMPDEST PUSH0 PUSH1 0x20 DUP3 ADD SWAP1 POP DUP2 DUP2 SUB PUSH0 DUP4 ADD MSTORE PUSH2 0x1987 DUP2 PUSH2 0x194E JUMP JUMPDEST SWAP1 POP SWAP2 SWAP1 POP JUMP JUMPDEST PUSH32 0x49742773206E6F7420796F7572207475726E2E00000000000000000000000000 PUSH0 DUP3 ADD MSTORE POP JUMP JUMPDEST PUSH0 PUSH2 0x19C2 PUSH1 0x13 DUP4 PUSH2 0x1820 JUMP JUMPDEST SWAP2 POP PUSH2 0x19CD DUP3 PUSH2 0x198E JUMP JUMPDEST PUSH1 0x20 DUP3 ADD SWAP1 POP SWAP2 SWAP1 POP JUMP JUMPDEST PUSH0 PUSH1 0x20 DUP3 ADD SWAP1 POP DUP2 DUP2 SUB PUSH0 DUP4 ADD MSTORE PUSH2 0x19EF DUP2 PUSH2 0x19B6 JUMP JUMPDEST SWAP1 POP SWAP2 SWAP1 POP JUMP JUMPDEST PUSH32 0x496E76616C696420726F77206F7220636F6C756D6E20706C6163656D656E7400 PUSH0 DUP3 ADD MSTORE POP JUMP JUMPDEST PUSH0 PUSH2 0x1A2A PUSH1 0x1F DUP4 PUSH2 0x1820 JUMP JUMPDEST SWAP2 POP PUSH2 0x1A35 DUP3 PUSH2 0x19F6 JUMP JUMPDEST PUSH1 0x20 DUP3 ADD SWAP1 POP SWAP2 SWAP1 POP JUMP JUMPDEST PUSH0 PUSH1 0x20 DUP3 ADD SWAP1 POP DUP2 DUP2 SUB PUSH0 DUP4 ADD MSTORE PUSH2 0x1A57 DUP2 PUSH2 0x1A1E JUMP JUMPDEST SWAP1 POP SWAP2 SWAP1 POP JUMP JUMPDEST PUSH32 0x4E487B7100000000000000000000000000000000000000000000000000000000 PUSH0 MSTORE PUSH1 0x32 PUSH1 0x4 MSTORE PUSH1 0x24 PUSH0 REVERT JUMPDEST PUSH32 0x43656C6C20697320616C72656164792074616B656E2E00000000000000000000 PUSH0 DUP3 ADD MSTORE POP JUMP JUMPDEST PUSH0 PUSH2 0x1ABF PUSH1 0x16 DUP4 PUSH2 0x1820 JUMP JUMPDEST SWAP2 POP PUSH2 0x1ACA DUP3 PUSH2 0x1A8B JUMP JUMPDEST PUSH1 0x20 DUP3 ADD SWAP1 POP SWAP2 SWAP1 POP JUMP JUMPDEST PUSH0 PUSH1 0x20 DUP3 ADD SWAP1 POP DUP2 DUP2 SUB PUSH0 DUP4 ADD MSTORE PUSH2 0x1AEC DUP2 PUSH2 0x1AB3 JUMP JUMPDEST SWAP1 POP SWAP2 SWAP1 POP JUMP JUMPDEST PUSH32 0x43616E6E6F7420726573746172742067616D652C206E6F74206120706C617965 PUSH0 DUP3 ADD MSTORE PUSH32 0x7200000000000000000000000000000000000000000000000000000000000000 PUSH1 0x20 DUP3 ADD MSTORE POP JUMP JUMPDEST PUSH0 PUSH2 0x1B4D PUSH1 0x21 DUP4 PUSH2 0x1820 JUMP JUMPDEST SWAP2 POP PUSH2 0x1B58 DUP3 PUSH2 0x1AF3 JUMP JUMPDEST PUSH1 0x40 DUP3 ADD SWAP1 POP SWAP2 SWAP1 POP JUMP JUMPDEST PUSH0 PUSH1 0x20 DUP3 ADD SWAP1 POP DUP2 DUP2 SUB PUSH0 DUP4 ADD MSTORE PUSH2 0x1B7A DUP2 PUSH2 0x1B41 JUMP JUMPDEST SWAP1 POP SWAP2 SWAP1 POP JUMP JUMPDEST PUSH32 0x4E487B7100000000000000000000000000000000000000000000000000000000 PUSH0 MSTORE PUSH1 0x11 PUSH1 0x4 MSTORE PUSH1 0x24 PUSH0 REVERT JUMPDEST PUSH0 PUSH2 0x1BB8 DUP3 PUSH2 0x1554 JUMP JUMPDEST SWAP2 POP PUSH1 0xFF DUP3 SUB PUSH2 0x1BCB JUMPI PUSH2 0x1BCA PUSH2 0x1B81 JUMP JUMPDEST JUMPDEST PUSH1 0x1 DUP3 ADD SWAP1 POP SWAP2 SWAP1 POP JUMP INVALID LOG2 PUSH5 0x6970667358 0x22 SLT KECCAK256 TLOAD 0xA8 0xD9 JUMPI EXTCODESIZE JUMPI PUSH31 0x90FAD6828E65A455D60A68235249F9258B5E763479766F95DC64736F6C6343 STOP ADDMOD 0x1E STOP CALLER "
				},
				"gasEstimates": {
					"creation": {
						"codeDepositCost": "1436000",
						"executionCost": "1497",
						"totalCost": "1437497"
					},
					"external": {
						"board(uint256,uint256)": "infinite",
						"getBoardState()": "infinite",
						"getPlayerO()": "2581",
						"getPlayerX()": "2603",
						"getPlayers()": "infinite",
						"initialize(address,address)": "infinite",
						"isGameOver()": "2540",
						"makeMove(uint8,uint8)": "infinite",
						"nextPlayer()": "2509",
						"restartGame()": "infinite",
						"winner()": "2618"
					},
					"internal": {
						"checkWin()": "infinite",
						"endGameWithWinner()": "51896",
						"switchTurn()": "30726"
					}
				},
				"methodIdentifiers": {
					"board(uint256,uint256)": "8086a92a",
					"getBoardState()": "2420f7f0",
					"getPlayerO()": "c06af996",
					"getPlayerX()": "d9a4264c",
					"getPlayers()": "8b5b9ccc",
					"initialize(address,address)": "485cc955",
					"isGameOver()": "0e04a7d8",
					"makeMove(uint8,uint8)": "5e24b0f1",
					"nextPlayer()": "04a93605",
					"restartGame()": "8d25af04",
					"winner()": "dfbf53ae"
				}
			},
			"storageLayout": {
				"storage": [
					{
						"astId": 7,
						"contract": "contracts/TicTacToe.sol:TicTacToe",
						"label": "board",
						"offset": 0,
						"slot": "0",
						"type": "t_array(t_array(t_uint8)3_storage)3_storage"
					},
					{
						"astId": 9,
						"contract": "contracts/TicTacToe.sol:TicTacToe",
						"label": "playerX",
						"offset": 0,
						"slot": "3",
						"type": "t_address_payable"
					},
					{
						"astId": 11,
						"contract": "contracts/TicTacToe.sol:TicTacToe",
						"label": "playerO",
						"offset": 0,
						"slot": "4",
						"type": "t_address_payable"
					},
					{
						"astId": 13,
						"contract": "contracts/TicTacToe.sol:TicTacToe",
						"label": "nextPlayer",
						"offset": 0,
						"slot": "5",
						"type": "t_address"
					},
					{
						"astId": 15,
						"contract": "contracts/TicTacToe.sol:TicTacToe",
						"label": "isGameOver",
						"offset": 20,
						"slot": "5",
						"type": "t_bool"
					},
					{
						"astId": 17,
						"contract": "contracts/TicTacToe.sol:TicTacToe",
						"label": "winner",
						"offset": 0,
						"slot": "6",
						"type": "t_address"
					}
				],
				"types": {
					"t_address": {
						"encoding": "inplace",
						"label": "address",
						"numberOfBytes": "20"
					},
					"t_address_payable": {
						"encoding": "inplace",
						"label": "address payable",
						"numberOfBytes": "20"
					},
					"t_array(t_array(t_uint8)3_storage)3_storage": {
						"base": "t_array(t_uint8)3_storage",
						"encoding": "inplace",
						"label": "uint8[3][3]",
						"numberOfBytes": "96"
					},
					"t_array(t_uint8)3_storage": {
						"base": "t_uint8",
						"encoding": "inplace",
						"label": "uint8[3]",
						"numberOfBytes": "32"
					},
					"t_bool": {
						"encoding": "inplace",
						"label": "bool",
						"numberOfBytes": "1"
					},
					"t_uint8": {
						"encoding": "inplace",
						"label": "uint8",
						"numberOfBytes": "1"
					}
				}
			},
			"userdoc": {
				"kind": "user",
				"methods": {},
				"version": 1
			}
		}
	}
}