{
	"contracts/TicTacToe.sol": {
		"TicTacToe": {
			"abi": [
				{
					"inputs": [
						{
							"internalType": "address payable",
							"name": "_playerO",
							"type": "address"
						}
					],
					"stateMutability": "nonpayable",
					"type": "constructor"
				},
				{
					"inputs": [
						{
							"internalType": "uint256",
							"name": "",
							"type": "uint256"
						},
						{
							"internalType": "uint256",
							"name": "",
							"type": "uint256"
						}
					],
					"name": "board",
					"outputs": [
						{
							"internalType": "uint8",
							"name": "",
							"type": "uint8"
						}
					],
					"stateMutability": "view",
					"type": "function"
				},
				{
					"inputs": [],
					"name": "isGameOver",
					"outputs": [
						{
							"internalType": "bool",
							"name": "",
							"type": "bool"
						}
					],
					"stateMutability": "view",
					"type": "function"
				},
				{
					"inputs": [
						{
							"internalType": "uint8",
							"name": "row",
							"type": "uint8"
						},
						{
							"internalType": "uint8",
							"name": "col",
							"type": "uint8"
						}
					],
					"name": "makeMove",
					"outputs": [],
					"stateMutability": "nonpayable",
					"type": "function"
				},
				{
					"inputs": [],
					"name": "nextPlayer",
					"outputs": [
						{
							"internalType": "address",
							"name": "",
							"type": "address"
						}
					],
					"stateMutability": "view",
					"type": "function"
				},
				{
					"inputs": [],
					"name": "playerO",
					"outputs": [
						{
							"internalType": "address payable",
							"name": "",
							"type": "address"
						}
					],
					"stateMutability": "view",
					"type": "function"
				},
				{
					"inputs": [],
					"name": "playerX",
					"outputs": [
						{
							"internalType": "address payable",
							"name": "",
							"type": "address"
						}
					],
					"stateMutability": "view",
					"type": "function"
				}
			],
			"devdoc": {
				"kind": "dev",
				"methods": {},
				"version": 1
			},
			"evm": {
				"assembly": "    /* \"contracts/TicTacToe.sol\":415:5096  contract TicTacToe {... */\n  mstore(0x40, 0x80)\n    /* \"contracts/TicTacToe.sol\":1586:2482  constructor(address payable _playerO) {... */\n  callvalue\n  dup1\n  iszero\n  tag_1\n  jumpi\n  revert(0x00, 0x00)\ntag_1:\n  pop\n  mload(0x40)\n  sub(codesize, bytecodeSize)\n  dup1\n  bytecodeSize\n  dup4\n  codecopy\n  dup2\n  dup2\n  add\n  0x40\n  mstore\n  dup2\n  add\n  swap1\n  tag_2\n  swap2\n  swap1\n  tag_3\n  jump\t// in\ntag_2:\n    /* \"contracts/TicTacToe.sol\":1974:1984  msg.sender */\n  caller\n    /* \"contracts/TicTacToe.sol\":1956:1963  playerX */\n  0x03\n  0x00\n    /* \"contracts/TicTacToe.sol\":1956:1985  playerX = payable(msg.sender) */\n  0x0100\n  exp\n  dup2\n  sload\n  dup2\n  0xffffffffffffffffffffffffffffffffffffffff\n  mul\n  not\n  and\n  swap1\n  dup4\n  0xffffffffffffffffffffffffffffffffffffffff\n  and\n  mul\n  or\n  swap1\n  sstore\n  pop\n    /* \"contracts/TicTacToe.sol\":2251:2259  _playerO */\n  dup1\n    /* \"contracts/TicTacToe.sol\":2240:2259  playerX != _playerO */\n  0xffffffffffffffffffffffffffffffffffffffff\n  and\n    /* \"contracts/TicTacToe.sol\":2240:2247  playerX */\n  0x03\n  0x00\n  swap1\n  sload\n  swap1\n  0x0100\n  exp\n  swap1\n  div\n  0xffffffffffffffffffffffffffffffffffffffff\n  and\n    /* \"contracts/TicTacToe.sol\":2240:2259  playerX != _playerO */\n  0xffffffffffffffffffffffffffffffffffffffff\n  and\n  sub\n    /* \"contracts/TicTacToe.sol\":2232:2301  require(playerX != _playerO, \"Player O must be a different address.\") */\n  tag_6\n  jumpi\n  mload(0x40)\n  0x08c379a000000000000000000000000000000000000000000000000000000000\n  dup2\n  mstore\n  0x04\n  add\n  tag_7\n  swap1\n  tag_8\n  jump\t// in\ntag_7:\n  mload(0x40)\n  dup1\n  swap2\n  sub\n  swap1\n  revert\ntag_6:\n    /* \"contracts/TicTacToe.sol\":2321:2329  _playerO */\n  dup1\n    /* \"contracts/TicTacToe.sol\":2311:2318  playerO */\n  0x04\n  0x00\n    /* \"contracts/TicTacToe.sol\":2311:2329  playerO = _playerO */\n  0x0100\n  exp\n  dup2\n  sload\n  dup2\n  0xffffffffffffffffffffffffffffffffffffffff\n  mul\n  not\n  and\n  swap1\n  dup4\n  0xffffffffffffffffffffffffffffffffffffffff\n  and\n  mul\n  or\n  swap1\n  sstore\n  pop\n    /* \"contracts/TicTacToe.sol\":2440:2447  playerX */\n  0x03\n  0x00\n  swap1\n  sload\n  swap1\n  0x0100\n  exp\n  swap1\n  div\n  0xffffffffffffffffffffffffffffffffffffffff\n  and\n    /* \"contracts/TicTacToe.sol\":2427:2437  nextPlayer */\n  0x05\n  0x00\n    /* \"contracts/TicTacToe.sol\":2427:2447  nextPlayer = playerX */\n  0x0100\n  exp\n  dup2\n  sload\n  dup2\n  0xffffffffffffffffffffffffffffffffffffffff\n  mul\n  not\n  and\n  swap1\n  dup4\n  0xffffffffffffffffffffffffffffffffffffffff\n  and\n  mul\n  or\n  swap1\n  sstore\n  pop\n    /* \"contracts/TicTacToe.sol\":2470:2475  false */\n  0x00\n    /* \"contracts/TicTacToe.sol\":2457:2467  isGameOver */\n  0x05\n  0x14\n    /* \"contracts/TicTacToe.sol\":2457:2475  isGameOver = false */\n  0x0100\n  exp\n  dup2\n  sload\n  dup2\n  0xff\n  mul\n  not\n  and\n  swap1\n  dup4\n  iszero\n  iszero\n  mul\n  or\n  swap1\n  sstore\n  pop\n    /* \"contracts/TicTacToe.sol\":1586:2482  constructor(address payable _playerO) {... */\n  pop\n    /* \"contracts/TicTacToe.sol\":415:5096  contract TicTacToe {... */\n  jump(tag_9)\n    /* \"#utility.yul\":88:205   */\ntag_11:\n    /* \"#utility.yul\":197:198   */\n  0x00\n    /* \"#utility.yul\":194:195   */\n  0x00\n    /* \"#utility.yul\":187:199   */\n  revert\n    /* \"#utility.yul\":334:460   */\ntag_13:\n    /* \"#utility.yul\":371:378   */\n  0x00\n    /* \"#utility.yul\":411:453   */\n  0xffffffffffffffffffffffffffffffffffffffff\n    /* \"#utility.yul\":404:409   */\n  dup3\n    /* \"#utility.yul\":400:454   */\n  and\n    /* \"#utility.yul\":389:454   */\n  swap1\n  pop\n    /* \"#utility.yul\":334:460   */\n  swap2\n  swap1\n  pop\n  jump\t// out\n    /* \"#utility.yul\":466:570   */\ntag_14:\n    /* \"#utility.yul\":511:518   */\n  0x00\n    /* \"#utility.yul\":540:564   */\n  tag_26\n    /* \"#utility.yul\":558:563   */\n  dup3\n    /* \"#utility.yul\":540:564   */\n  tag_13\n  jump\t// in\ntag_26:\n    /* \"#utility.yul\":529:564   */\n  swap1\n  pop\n    /* \"#utility.yul\":466:570   */\n  swap2\n  swap1\n  pop\n  jump\t// out\n    /* \"#utility.yul\":576:714   */\ntag_15:\n    /* \"#utility.yul\":657:689   */\n  tag_28\n    /* \"#utility.yul\":683:688   */\n  dup2\n    /* \"#utility.yul\":657:689   */\n  tag_14\n  jump\t// in\ntag_28:\n    /* \"#utility.yul\":650:655   */\n  dup2\n    /* \"#utility.yul\":647:690   */\n  eq\n    /* \"#utility.yul\":637:708   */\n  tag_29\n  jumpi\n    /* \"#utility.yul\":704:705   */\n  0x00\n    /* \"#utility.yul\":701:702   */\n  0x00\n    /* \"#utility.yul\":694:706   */\n  revert\n    /* \"#utility.yul\":637:708   */\ntag_29:\n    /* \"#utility.yul\":576:714   */\n  pop\n  jump\t// out\n    /* \"#utility.yul\":720:879   */\ntag_16:\n    /* \"#utility.yul\":785:790   */\n  0x00\n    /* \"#utility.yul\":816:822   */\n  dup2\n    /* \"#utility.yul\":810:823   */\n  mload\n    /* \"#utility.yul\":801:823   */\n  swap1\n  pop\n    /* \"#utility.yul\":832:873   */\n  tag_31\n    /* \"#utility.yul\":867:872   */\n  dup2\n    /* \"#utility.yul\":832:873   */\n  tag_15\n  jump\t// in\ntag_31:\n    /* \"#utility.yul\":720:879   */\n  swap3\n  swap2\n  pop\n  pop\n  jump\t// out\n    /* \"#utility.yul\":885:1252   */\ntag_3:\n    /* \"#utility.yul\":963:969   */\n  0x00\n    /* \"#utility.yul\":1012:1014   */\n  0x20\n    /* \"#utility.yul\":1000:1009   */\n  dup3\n    /* \"#utility.yul\":991:998   */\n  dup5\n    /* \"#utility.yul\":987:1010   */\n  sub\n    /* \"#utility.yul\":983:1015   */\n  slt\n    /* \"#utility.yul\":980:1099   */\n  iszero\n  tag_33\n  jumpi\n    /* \"#utility.yul\":1018:1097   */\n  tag_34\n  tag_11\n  jump\t// in\ntag_34:\n    /* \"#utility.yul\":980:1099   */\ntag_33:\n    /* \"#utility.yul\":1138:1139   */\n  0x00\n    /* \"#utility.yul\":1163:1235   */\n  tag_35\n    /* \"#utility.yul\":1227:1234   */\n  dup5\n    /* \"#utility.yul\":1218:1224   */\n  dup3\n    /* \"#utility.yul\":1207:1216   */\n  dup6\n    /* \"#utility.yul\":1203:1225   */\n  add\n    /* \"#utility.yul\":1163:1235   */\n  tag_16\n  jump\t// in\ntag_35:\n    /* \"#utility.yul\":1153:1235   */\n  swap2\n  pop\n    /* \"#utility.yul\":1109:1245   */\n  pop\n    /* \"#utility.yul\":885:1252   */\n  swap3\n  swap2\n  pop\n  pop\n  jump\t// out\n    /* \"#utility.yul\":1258:1427   */\ntag_17:\n    /* \"#utility.yul\":1342:1353   */\n  0x00\n    /* \"#utility.yul\":1376:1382   */\n  dup3\n    /* \"#utility.yul\":1371:1374   */\n  dup3\n    /* \"#utility.yul\":1364:1383   */\n  mstore\n    /* \"#utility.yul\":1416:1420   */\n  0x20\n    /* \"#utility.yul\":1411:1414   */\n  dup3\n    /* \"#utility.yul\":1407:1421   */\n  add\n    /* \"#utility.yul\":1392:1421   */\n  swap1\n  pop\n    /* \"#utility.yul\":1258:1427   */\n  swap3\n  swap2\n  pop\n  pop\n  jump\t// out\n    /* \"#utility.yul\":1433:1657   */\ntag_18:\n    /* \"#utility.yul\":1573:1607   */\n  0x506c61796572204f206d757374206265206120646966666572656e7420616464\n    /* \"#utility.yul\":1569:1570   */\n  0x00\n    /* \"#utility.yul\":1561:1567   */\n  dup3\n    /* \"#utility.yul\":1557:1571   */\n  add\n    /* \"#utility.yul\":1550:1608   */\n  mstore\n    /* \"#utility.yul\":1642:1649   */\n  0x726573732e000000000000000000000000000000000000000000000000000000\n    /* \"#utility.yul\":1637:1639   */\n  0x20\n    /* \"#utility.yul\":1629:1635   */\n  dup3\n    /* \"#utility.yul\":1625:1640   */\n  add\n    /* \"#utility.yul\":1618:1650   */\n  mstore\n    /* \"#utility.yul\":1433:1657   */\n  pop\n  jump\t// out\n    /* \"#utility.yul\":1663:2029   */\ntag_19:\n    /* \"#utility.yul\":1805:1808   */\n  0x00\n    /* \"#utility.yul\":1826:1893   */\n  tag_39\n    /* \"#utility.yul\":1890:1892   */\n  0x25\n    /* \"#utility.yul\":1885:1888   */\n  dup4\n    /* \"#utility.yul\":1826:1893   */\n  tag_17\n  jump\t// in\ntag_39:\n    /* \"#utility.yul\":1819:1893   */\n  swap2\n  pop\n    /* \"#utility.yul\":1902:1995   */\n  tag_40\n    /* \"#utility.yul\":1991:1994   */\n  dup3\n    /* \"#utility.yul\":1902:1995   */\n  tag_18\n  jump\t// in\ntag_40:\n    /* \"#utility.yul\":2020:2022   */\n  0x40\n    /* \"#utility.yul\":2015:2018   */\n  dup3\n    /* \"#utility.yul\":2011:2023   */\n  add\n    /* \"#utility.yul\":2004:2023   */\n  swap1\n  pop\n    /* \"#utility.yul\":1663:2029   */\n  swap2\n  swap1\n  pop\n  jump\t// out\n    /* \"#utility.yul\":2035:2454   */\ntag_8:\n    /* \"#utility.yul\":2201:2205   */\n  0x00\n    /* \"#utility.yul\":2239:2241   */\n  0x20\n    /* \"#utility.yul\":2228:2237   */\n  dup3\n    /* \"#utility.yul\":2224:2242   */\n  add\n    /* \"#utility.yul\":2216:2242   */\n  swap1\n  pop\n    /* \"#utility.yul\":2288:2297   */\n  dup2\n    /* \"#utility.yul\":2282:2286   */\n  dup2\n    /* \"#utility.yul\":2278:2298   */\n  sub\n    /* \"#utility.yul\":2274:2275   */\n  0x00\n    /* \"#utility.yul\":2263:2272   */\n  dup4\n    /* \"#utility.yul\":2259:2276   */\n  add\n    /* \"#utility.yul\":2252:2299   */\n  mstore\n    /* \"#utility.yul\":2316:2447   */\n  tag_42\n    /* \"#utility.yul\":2442:2446   */\n  dup2\n    /* \"#utility.yul\":2316:2447   */\n  tag_19\n  jump\t// in\ntag_42:\n    /* \"#utility.yul\":2308:2447   */\n  swap1\n  pop\n    /* \"#utility.yul\":2035:2454   */\n  swap2\n  swap1\n  pop\n  jump\t// out\n    /* \"contracts/TicTacToe.sol\":415:5096  contract TicTacToe {... */\ntag_9:\n  dataSize(sub_0)\n  dup1\n  dataOffset(sub_0)\n  0x00\n  codecopy\n  0x00\n  return\nstop\n\nsub_0: assembly {\n        /* \"contracts/TicTacToe.sol\":415:5096  contract TicTacToe {... */\n      mstore(0x40, 0x80)\n      callvalue\n      dup1\n      iszero\n      tag_1\n      jumpi\n      revert(0x00, 0x00)\n    tag_1:\n      pop\n      jumpi(tag_2, lt(calldatasize, 0x04))\n      shr(0xe0, calldataload(0x00))\n      dup1\n      0x04a93605\n      eq\n      tag_3\n      jumpi\n      dup1\n      0x0e04a7d8\n      eq\n      tag_4\n      jumpi\n      dup1\n      0x4cdea7d2\n      eq\n      tag_5\n      jumpi\n      dup1\n      0x5e24b0f1\n      eq\n      tag_6\n      jumpi\n      dup1\n      0x8086a92a\n      eq\n      tag_7\n      jumpi\n      dup1\n      0xe7dafa6e\n      eq\n      tag_8\n      jumpi\n    tag_2:\n      revert(0x00, 0x00)\n        /* \"contracts/TicTacToe.sol\":1318:1343  address public nextPlayer */\n    tag_3:\n      tag_9\n      tag_10\n      jump\t// in\n    tag_9:\n      mload(0x40)\n      tag_11\n      swap2\n      swap1\n      tag_12\n      jump\t// in\n    tag_11:\n      mload(0x40)\n      dup1\n      swap2\n      sub\n      swap1\n      return\n        /* \"contracts/TicTacToe.sol\":1349:1371  bool public isGameOver */\n    tag_4:\n      tag_13\n      tag_14\n      jump\t// in\n    tag_13:\n      mload(0x40)\n      tag_15\n      swap2\n      swap1\n      tag_16\n      jump\t// in\n    tag_15:\n      mload(0x40)\n      dup1\n      swap2\n      sub\n      swap1\n      return\n        /* \"contracts/TicTacToe.sol\":1246:1276  address payable public playerX */\n    tag_5:\n      tag_17\n      tag_18\n      jump\t// in\n    tag_17:\n      mload(0x40)\n      tag_19\n      swap2\n      swap1\n      tag_20\n      jump\t// in\n    tag_19:\n      mload(0x40)\n      dup1\n      swap2\n      sub\n      swap1\n      return\n        /* \"contracts/TicTacToe.sol\":2523:3386  function makeMove(uint8 row, uint8 col) public {... */\n    tag_6:\n      tag_21\n      0x04\n      dup1\n      calldatasize\n      sub\n      dup2\n      add\n      swap1\n      tag_22\n      swap2\n      swap1\n      tag_23\n      jump\t// in\n    tag_22:\n      tag_24\n      jump\t// in\n    tag_21:\n      stop\n        /* \"contracts/TicTacToe.sol\":842:866  uint8[3][3] public board */\n    tag_7:\n      tag_25\n      0x04\n      dup1\n      calldatasize\n      sub\n      dup2\n      add\n      swap1\n      tag_26\n      swap2\n      swap1\n      tag_27\n      jump\t// in\n    tag_26:\n      tag_28\n      jump\t// in\n    tag_25:\n      mload(0x40)\n      tag_29\n      swap2\n      swap1\n      tag_30\n      jump\t// in\n    tag_29:\n      mload(0x40)\n      dup1\n      swap2\n      sub\n      swap1\n      return\n        /* \"contracts/TicTacToe.sol\":1282:1312  address payable public playerO */\n    tag_8:\n      tag_31\n      tag_32\n      jump\t// in\n    tag_31:\n      mload(0x40)\n      tag_33\n      swap2\n      swap1\n      tag_20\n      jump\t// in\n    tag_33:\n      mload(0x40)\n      dup1\n      swap2\n      sub\n      swap1\n      return\n        /* \"contracts/TicTacToe.sol\":1318:1343  address public nextPlayer */\n    tag_10:\n      0x05\n      0x00\n      swap1\n      sload\n      swap1\n      0x0100\n      exp\n      swap1\n      div\n      0xffffffffffffffffffffffffffffffffffffffff\n      and\n      dup2\n      jump\t// out\n        /* \"contracts/TicTacToe.sol\":1349:1371  bool public isGameOver */\n    tag_14:\n      0x05\n      0x14\n      swap1\n      sload\n      swap1\n      0x0100\n      exp\n      swap1\n      div\n      0xff\n      and\n      dup2\n      jump\t// out\n        /* \"contracts/TicTacToe.sol\":1246:1276  address payable public playerX */\n    tag_18:\n      0x03\n      0x00\n      swap1\n      sload\n      swap1\n      0x0100\n      exp\n      swap1\n      div\n      0xffffffffffffffffffffffffffffffffffffffff\n      and\n      dup2\n      jump\t// out\n        /* \"contracts/TicTacToe.sol\":2523:3386  function makeMove(uint8 row, uint8 col) public {... */\n    tag_24:\n        /* \"contracts/TicTacToe.sol\":2670:2680  isGameOver */\n      0x05\n      0x14\n      swap1\n      sload\n      swap1\n      0x0100\n      exp\n      swap1\n      div\n      0xff\n      and\n        /* \"contracts/TicTacToe.sol\":2669:2680  !isGameOver */\n      iszero\n        /* \"contracts/TicTacToe.sol\":2661:2702  require(!isGameOver, \"The game is over.\") */\n      tag_35\n      jumpi\n      mload(0x40)\n      0x08c379a000000000000000000000000000000000000000000000000000000000\n      dup2\n      mstore\n      0x04\n      add\n      tag_36\n      swap1\n      tag_37\n      jump\t// in\n    tag_36:\n      mload(0x40)\n      dup1\n      swap2\n      sub\n      swap1\n      revert\n    tag_35:\n        /* \"contracts/TicTacToe.sol\":2791:2801  nextPlayer */\n      0x05\n      0x00\n      swap1\n      sload\n      swap1\n      0x0100\n      exp\n      swap1\n      div\n      0xffffffffffffffffffffffffffffffffffffffff\n      and\n        /* \"contracts/TicTacToe.sol\":2777:2801  msg.sender == nextPlayer */\n      0xffffffffffffffffffffffffffffffffffffffff\n      and\n        /* \"contracts/TicTacToe.sol\":2777:2787  msg.sender */\n      caller\n        /* \"contracts/TicTacToe.sol\":2777:2801  msg.sender == nextPlayer */\n      0xffffffffffffffffffffffffffffffffffffffff\n      and\n      eq\n        /* \"contracts/TicTacToe.sol\":2769:2825  require(msg.sender == nextPlayer, \"It's not your turn.\") */\n      tag_38\n      jumpi\n      mload(0x40)\n      0x08c379a000000000000000000000000000000000000000000000000000000000\n      dup2\n      mstore\n      0x04\n      add\n      tag_39\n      swap1\n      tag_40\n      jump\t// in\n    tag_39:\n      mload(0x40)\n      dup1\n      swap2\n      sub\n      swap1\n      revert\n    tag_38:\n        /* \"contracts/TicTacToe.sol\":2923:2924  3 */\n      0x03\n        /* \"contracts/TicTacToe.sol\":2917:2920  row */\n      dup3\n        /* \"contracts/TicTacToe.sol\":2917:2924  row < 3 */\n      0xff\n      and\n      lt\n        /* \"contracts/TicTacToe.sol\":2917:2935  row < 3 && col < 3 */\n      dup1\n      iszero\n      tag_41\n      jumpi\n      pop\n        /* \"contracts/TicTacToe.sol\":2934:2935  3 */\n      0x03\n        /* \"contracts/TicTacToe.sol\":2928:2931  col */\n      dup2\n        /* \"contracts/TicTacToe.sol\":2928:2935  col < 3 */\n      0xff\n      and\n      lt\n        /* \"contracts/TicTacToe.sol\":2917:2935  row < 3 && col < 3 */\n    tag_41:\n        /* \"contracts/TicTacToe.sol\":2909:2971  require(row < 3 && col < 3, \"Invalid row or column placement\") */\n      tag_42\n      jumpi\n      mload(0x40)\n      0x08c379a000000000000000000000000000000000000000000000000000000000\n      dup2\n      mstore\n      0x04\n      add\n      tag_43\n      swap1\n      tag_44\n      jump\t// in\n    tag_43:\n      mload(0x40)\n      dup1\n      swap2\n      sub\n      swap1\n      revert\n    tag_42:\n        /* \"contracts/TicTacToe.sol\":3054:3055  0 */\n      0x00\n        /* \"contracts/TicTacToe.sol\":3035:3040  board */\n      0x00\n        /* \"contracts/TicTacToe.sol\":3041:3044  row */\n      dup4\n        /* \"contracts/TicTacToe.sol\":3035:3045  board[row] */\n      0xff\n      and\n      0x03\n      dup2\n      lt\n      tag_45\n      jumpi\n      tag_46\n      tag_47\n      jump\t// in\n    tag_46:\n    tag_45:\n      add\n        /* \"contracts/TicTacToe.sol\":3046:3049  col */\n      dup3\n        /* \"contracts/TicTacToe.sol\":3035:3050  board[row][col] */\n      0xff\n      and\n      0x03\n      dup2\n      lt\n      tag_49\n      jumpi\n      tag_50\n      tag_47\n      jump\t// in\n    tag_50:\n    tag_49:\n      0x20\n      swap2\n      dup3\n      dup3\n      div\n      add\n      swap2\n      swap1\n      mod\n      swap1\n      sload\n      swap1\n      0x0100\n      exp\n      swap1\n      div\n      0xff\n      and\n        /* \"contracts/TicTacToe.sol\":3035:3055  board[row][col] == 0 */\n      0xff\n      and\n      eq\n        /* \"contracts/TicTacToe.sol\":3027:3082  require(board[row][col] == 0, \"Cell is already taken.\") */\n      tag_52\n      jumpi\n      mload(0x40)\n      0x08c379a000000000000000000000000000000000000000000000000000000000\n      dup2\n      mstore\n      0x04\n      add\n      tag_53\n      swap1\n      tag_54\n      jump\t// in\n    tag_53:\n      mload(0x40)\n      dup1\n      swap2\n      sub\n      swap1\n      revert\n    tag_52:\n        /* \"contracts/TicTacToe.sol\":3185:3192  playerX */\n      0x03\n      0x00\n      swap1\n      sload\n      swap1\n      0x0100\n      exp\n      swap1\n      div\n      0xffffffffffffffffffffffffffffffffffffffff\n      and\n        /* \"contracts/TicTacToe.sol\":3171:3192  msg.sender == playerX */\n      0xffffffffffffffffffffffffffffffffffffffff\n      and\n        /* \"contracts/TicTacToe.sol\":3171:3181  msg.sender */\n      caller\n        /* \"contracts/TicTacToe.sol\":3171:3192  msg.sender == playerX */\n      0xffffffffffffffffffffffffffffffffffffffff\n      and\n      sub\n        /* \"contracts/TicTacToe.sol\":3167:3288  if (msg.sender == playerX) {... */\n      tag_55\n      jumpi\n        /* \"contracts/TicTacToe.sol\":3226:3227  1 */\n      0x01\n        /* \"contracts/TicTacToe.sol\":3208:3213  board */\n      0x00\n        /* \"contracts/TicTacToe.sol\":3214:3217  row */\n      dup4\n        /* \"contracts/TicTacToe.sol\":3208:3218  board[row] */\n      0xff\n      and\n      0x03\n      dup2\n      lt\n      tag_56\n      jumpi\n      tag_57\n      tag_47\n      jump\t// in\n    tag_57:\n    tag_56:\n      add\n        /* \"contracts/TicTacToe.sol\":3219:3222  col */\n      dup3\n        /* \"contracts/TicTacToe.sol\":3208:3223  board[row][col] */\n      0xff\n      and\n      0x03\n      dup2\n      lt\n      tag_59\n      jumpi\n      tag_60\n      tag_47\n      jump\t// in\n    tag_60:\n    tag_59:\n      0x20\n      swap2\n      dup3\n      dup3\n      div\n      add\n      swap2\n      swap1\n      mod\n        /* \"contracts/TicTacToe.sol\":3208:3227  board[row][col] = 1 */\n      0x0100\n      exp\n      dup2\n      sload\n      dup2\n      0xff\n      mul\n      not\n      and\n      swap1\n      dup4\n      0xff\n      and\n      mul\n      or\n      swap1\n      sstore\n      pop\n        /* \"contracts/TicTacToe.sol\":3167:3288  if (msg.sender == playerX) {... */\n      jump(tag_62)\n    tag_55:\n        /* \"contracts/TicTacToe.sol\":3276:3277  2 */\n      0x02\n        /* \"contracts/TicTacToe.sol\":3258:3263  board */\n      0x00\n        /* \"contracts/TicTacToe.sol\":3264:3267  row */\n      dup4\n        /* \"contracts/TicTacToe.sol\":3258:3268  board[row] */\n      0xff\n      and\n      0x03\n      dup2\n      lt\n      tag_63\n      jumpi\n      tag_64\n      tag_47\n      jump\t// in\n    tag_64:\n    tag_63:\n      add\n        /* \"contracts/TicTacToe.sol\":3269:3272  col */\n      dup3\n        /* \"contracts/TicTacToe.sol\":3258:3273  board[row][col] */\n      0xff\n      and\n      0x03\n      dup2\n      lt\n      tag_66\n      jumpi\n      tag_67\n      tag_47\n      jump\t// in\n    tag_67:\n    tag_66:\n      0x20\n      swap2\n      dup3\n      dup3\n      div\n      add\n      swap2\n      swap1\n      mod\n        /* \"contracts/TicTacToe.sol\":3258:3277  board[row][col] = 2 */\n      0x0100\n      exp\n      dup2\n      sload\n      dup2\n      0xff\n      mul\n      not\n      and\n      swap1\n      dup4\n      0xff\n      and\n      mul\n      or\n      swap1\n      sstore\n      pop\n        /* \"contracts/TicTacToe.sol\":3167:3288  if (msg.sender == playerX) {... */\n    tag_62:\n        /* \"contracts/TicTacToe.sol\":3330:3340  checkWin() */\n      tag_69\n        /* \"contracts/TicTacToe.sol\":3330:3338  checkWin */\n      tag_70\n        /* \"contracts/TicTacToe.sol\":3330:3340  checkWin() */\n      jump\t// in\n    tag_69:\n        /* \"contracts/TicTacToe.sol\":3355:3365  isGameOver */\n      0x05\n      0x14\n      swap1\n      sload\n      swap1\n      0x0100\n      exp\n      swap1\n      div\n      0xff\n      and\n        /* \"contracts/TicTacToe.sol\":3350:3379  if (!isGameOver) switchTurn() */\n      tag_71\n      jumpi\n        /* \"contracts/TicTacToe.sol\":3367:3379  switchTurn() */\n      tag_72\n        /* \"contracts/TicTacToe.sol\":3367:3377  switchTurn */\n      tag_73\n        /* \"contracts/TicTacToe.sol\":3367:3379  switchTurn() */\n      jump\t// in\n    tag_72:\n        /* \"contracts/TicTacToe.sol\":3350:3379  if (!isGameOver) switchTurn() */\n    tag_71:\n        /* \"contracts/TicTacToe.sol\":2523:3386  function makeMove(uint8 row, uint8 col) public {... */\n      pop\n      pop\n      jump\t// out\n        /* \"contracts/TicTacToe.sol\":842:866  uint8[3][3] public board */\n    tag_28:\n      0x00\n      dup3\n      0x03\n      dup2\n      lt\n      tag_74\n      jumpi\n      0x00\n      dup1\n      revert\n    tag_74:\n      add\n      dup2\n      0x03\n      dup2\n      lt\n      tag_76\n      jumpi\n      0x00\n      dup1\n      revert\n    tag_76:\n      0x20\n      swap2\n      dup3\n      dup3\n      div\n      add\n      swap2\n      swap1\n      mod\n      swap2\n      pop\n      swap2\n      pop\n      swap1\n      sload\n      swap1\n      0x0100\n      exp\n      swap1\n      div\n      0xff\n      and\n      dup2\n      jump\t// out\n        /* \"contracts/TicTacToe.sol\":1282:1312  address payable public playerO */\n    tag_32:\n      0x04\n      0x00\n      swap1\n      sload\n      swap1\n      0x0100\n      exp\n      swap1\n      div\n      0xffffffffffffffffffffffffffffffffffffffff\n      and\n      dup2\n      jump\t// out\n        /* \"contracts/TicTacToe.sol\":3768:5094  function checkWin() private {... */\n    tag_70:\n        /* \"contracts/TicTacToe.sol\":3868:3880  uint8 marker */\n      0x00\n        /* \"contracts/TicTacToe.sol\":3908:3915  playerX */\n      0x03\n      0x00\n      swap1\n      sload\n      swap1\n      0x0100\n      exp\n      swap1\n      div\n      0xffffffffffffffffffffffffffffffffffffffff\n      and\n        /* \"contracts/TicTacToe.sol\":3894:3915  msg.sender == playerX */\n      0xffffffffffffffffffffffffffffffffffffffff\n      and\n        /* \"contracts/TicTacToe.sol\":3894:3904  msg.sender */\n      caller\n        /* \"contracts/TicTacToe.sol\":3894:3915  msg.sender == playerX */\n      0xffffffffffffffffffffffffffffffffffffffff\n      and\n      sub\n        /* \"contracts/TicTacToe.sol\":3890:3993  if (msg.sender == playerX) {... */\n      tag_79\n      jumpi\n        /* \"contracts/TicTacToe.sol\":3940:3941  1 */\n      0x01\n        /* \"contracts/TicTacToe.sol\":3931:3941  marker = 1 */\n      swap1\n      pop\n        /* \"contracts/TicTacToe.sol\":3890:3993  if (msg.sender == playerX) {... */\n      jump(tag_80)\n    tag_79:\n        /* \"contracts/TicTacToe.sol\":3981:3982  2 */\n      0x02\n        /* \"contracts/TicTacToe.sol\":3972:3982  marker = 2 */\n      swap1\n      pop\n        /* \"contracts/TicTacToe.sol\":3890:3993  if (msg.sender == playerX) {... */\n    tag_80:\n        /* \"contracts/TicTacToe.sol\":4072:4079  uint8 i */\n      0x00\n        /* \"contracts/TicTacToe.sol\":4082:4083  0 */\n      0x00\n        /* \"contracts/TicTacToe.sol\":4072:4083  uint8 i = 0 */\n      swap1\n      pop\n        /* \"contracts/TicTacToe.sol\":4067:4436  for (uint8 i = 0; i < 3; i++) {... */\n    tag_81:\n        /* \"contracts/TicTacToe.sol\":4089:4090  3 */\n      0x03\n        /* \"contracts/TicTacToe.sol\":4085:4086  i */\n      dup2\n        /* \"contracts/TicTacToe.sol\":4085:4090  i < 3 */\n      0xff\n      and\n      lt\n        /* \"contracts/TicTacToe.sol\":4067:4436  for (uint8 i = 0; i < 3; i++) {... */\n      iszero\n      tag_82\n      jumpi\n        /* \"contracts/TicTacToe.sol\":4130:4136  marker */\n      dup2\n        /* \"contracts/TicTacToe.sol\":4115:4136  board[i][0] == marker */\n      0xff\n      and\n        /* \"contracts/TicTacToe.sol\":4115:4120  board */\n      0x00\n        /* \"contracts/TicTacToe.sol\":4121:4122  i */\n      dup3\n        /* \"contracts/TicTacToe.sol\":4115:4123  board[i] */\n      0xff\n      and\n      0x03\n      dup2\n      lt\n      tag_84\n      jumpi\n      tag_85\n      tag_47\n      jump\t// in\n    tag_85:\n    tag_84:\n      add\n        /* \"contracts/TicTacToe.sol\":4124:4125  0 */\n      0x00\n        /* \"contracts/TicTacToe.sol\":4115:4126  board[i][0] */\n      0x03\n      dup2\n      lt\n      tag_87\n      jumpi\n      tag_88\n      tag_47\n      jump\t// in\n    tag_88:\n    tag_87:\n      0x20\n      swap2\n      dup3\n      dup3\n      div\n      add\n      swap2\n      swap1\n      mod\n      swap1\n      sload\n      swap1\n      0x0100\n      exp\n      swap1\n      div\n      0xff\n      and\n        /* \"contracts/TicTacToe.sol\":4115:4136  board[i][0] == marker */\n      0xff\n      and\n      eq\n        /* \"contracts/TicTacToe.sol\":4115:4161  board[i][0] == marker && board[i][1] == marker */\n      dup1\n      iszero\n      tag_90\n      jumpi\n      pop\n        /* \"contracts/TicTacToe.sol\":4155:4161  marker */\n      dup2\n        /* \"contracts/TicTacToe.sol\":4140:4161  board[i][1] == marker */\n      0xff\n      and\n        /* \"contracts/TicTacToe.sol\":4140:4145  board */\n      0x00\n        /* \"contracts/TicTacToe.sol\":4146:4147  i */\n      dup3\n        /* \"contracts/TicTacToe.sol\":4140:4148  board[i] */\n      0xff\n      and\n      0x03\n      dup2\n      lt\n      tag_91\n      jumpi\n      tag_92\n      tag_47\n      jump\t// in\n    tag_92:\n    tag_91:\n      add\n        /* \"contracts/TicTacToe.sol\":4149:4150  1 */\n      0x01\n        /* \"contracts/TicTacToe.sol\":4140:4151  board[i][1] */\n      0x03\n      dup2\n      lt\n      tag_94\n      jumpi\n      tag_95\n      tag_47\n      jump\t// in\n    tag_95:\n    tag_94:\n      0x20\n      swap2\n      dup3\n      dup3\n      div\n      add\n      swap2\n      swap1\n      mod\n      swap1\n      sload\n      swap1\n      0x0100\n      exp\n      swap1\n      div\n      0xff\n      and\n        /* \"contracts/TicTacToe.sol\":4140:4161  board[i][1] == marker */\n      0xff\n      and\n      eq\n        /* \"contracts/TicTacToe.sol\":4115:4161  board[i][0] == marker && board[i][1] == marker */\n    tag_90:\n        /* \"contracts/TicTacToe.sol\":4115:4186  board[i][0] == marker && board[i][1] == marker && board[i][2] == marker */\n      dup1\n      iszero\n      tag_97\n      jumpi\n      pop\n        /* \"contracts/TicTacToe.sol\":4180:4186  marker */\n      dup2\n        /* \"contracts/TicTacToe.sol\":4165:4186  board[i][2] == marker */\n      0xff\n      and\n        /* \"contracts/TicTacToe.sol\":4165:4170  board */\n      0x00\n        /* \"contracts/TicTacToe.sol\":4171:4172  i */\n      dup3\n        /* \"contracts/TicTacToe.sol\":4165:4173  board[i] */\n      0xff\n      and\n      0x03\n      dup2\n      lt\n      tag_98\n      jumpi\n      tag_99\n      tag_47\n      jump\t// in\n    tag_99:\n    tag_98:\n      add\n        /* \"contracts/TicTacToe.sol\":4174:4175  2 */\n      0x02\n        /* \"contracts/TicTacToe.sol\":4165:4176  board[i][2] */\n      0x03\n      dup2\n      lt\n      tag_101\n      jumpi\n      tag_102\n      tag_47\n      jump\t// in\n    tag_102:\n    tag_101:\n      0x20\n      swap2\n      dup3\n      dup3\n      div\n      add\n      swap2\n      swap1\n      mod\n      swap1\n      sload\n      swap1\n      0x0100\n      exp\n      swap1\n      div\n      0xff\n      and\n        /* \"contracts/TicTacToe.sol\":4165:4186  board[i][2] == marker */\n      0xff\n      and\n      eq\n        /* \"contracts/TicTacToe.sol\":4115:4186  board[i][0] == marker && board[i][1] == marker && board[i][2] == marker */\n    tag_97:\n        /* \"contracts/TicTacToe.sol\":4111:4262  if (board[i][0] == marker && board[i][1] == marker && board[i][2] == marker) {... */\n      iszero\n      tag_104\n      jumpi\n        /* \"contracts/TicTacToe.sol\":4219:4223  true */\n      0x01\n        /* \"contracts/TicTacToe.sol\":4206:4216  isGameOver */\n      0x05\n      0x14\n        /* \"contracts/TicTacToe.sol\":4206:4223  isGameOver = true */\n      0x0100\n      exp\n      dup2\n      sload\n      dup2\n      0xff\n      mul\n      not\n      and\n      swap1\n      dup4\n      iszero\n      iszero\n      mul\n      or\n      swap1\n      sstore\n      pop\n        /* \"contracts/TicTacToe.sol\":4241:4248  return; */\n      pop\n      pop\n      jump(tag_78)\n        /* \"contracts/TicTacToe.sol\":4111:4262  if (board[i][0] == marker && board[i][1] == marker && board[i][2] == marker) {... */\n    tag_104:\n        /* \"contracts/TicTacToe.sol\":4294:4300  marker */\n      dup2\n        /* \"contracts/TicTacToe.sol\":4279:4300  board[0][i] == marker */\n      0xff\n      and\n        /* \"contracts/TicTacToe.sol\":4279:4284  board */\n      0x00\n        /* \"contracts/TicTacToe.sol\":4285:4286  0 */\n      0x00\n        /* \"contracts/TicTacToe.sol\":4279:4287  board[0] */\n      0x03\n      dup2\n      lt\n      tag_105\n      jumpi\n      tag_106\n      tag_47\n      jump\t// in\n    tag_106:\n    tag_105:\n      add\n        /* \"contracts/TicTacToe.sol\":4288:4289  i */\n      dup3\n        /* \"contracts/TicTacToe.sol\":4279:4290  board[0][i] */\n      0xff\n      and\n      0x03\n      dup2\n      lt\n      tag_108\n      jumpi\n      tag_109\n      tag_47\n      jump\t// in\n    tag_109:\n    tag_108:\n      0x20\n      swap2\n      dup3\n      dup3\n      div\n      add\n      swap2\n      swap1\n      mod\n      swap1\n      sload\n      swap1\n      0x0100\n      exp\n      swap1\n      div\n      0xff\n      and\n        /* \"contracts/TicTacToe.sol\":4279:4300  board[0][i] == marker */\n      0xff\n      and\n      eq\n        /* \"contracts/TicTacToe.sol\":4279:4325  board[0][i] == marker && board[1][i] == marker */\n      dup1\n      iszero\n      tag_111\n      jumpi\n      pop\n        /* \"contracts/TicTacToe.sol\":4319:4325  marker */\n      dup2\n        /* \"contracts/TicTacToe.sol\":4304:4325  board[1][i] == marker */\n      0xff\n      and\n        /* \"contracts/TicTacToe.sol\":4304:4309  board */\n      0x00\n        /* \"contracts/TicTacToe.sol\":4310:4311  1 */\n      0x01\n        /* \"contracts/TicTacToe.sol\":4304:4312  board[1] */\n      0x03\n      dup2\n      lt\n      tag_112\n      jumpi\n      tag_113\n      tag_47\n      jump\t// in\n    tag_113:\n    tag_112:\n      add\n        /* \"contracts/TicTacToe.sol\":4313:4314  i */\n      dup3\n        /* \"contracts/TicTacToe.sol\":4304:4315  board[1][i] */\n      0xff\n      and\n      0x03\n      dup2\n      lt\n      tag_115\n      jumpi\n      tag_116\n      tag_47\n      jump\t// in\n    tag_116:\n    tag_115:\n      0x20\n      swap2\n      dup3\n      dup3\n      div\n      add\n      swap2\n      swap1\n      mod\n      swap1\n      sload\n      swap1\n      0x0100\n      exp\n      swap1\n      div\n      0xff\n      and\n        /* \"contracts/TicTacToe.sol\":4304:4325  board[1][i] == marker */\n      0xff\n      and\n      eq\n        /* \"contracts/TicTacToe.sol\":4279:4325  board[0][i] == marker && board[1][i] == marker */\n    tag_111:\n        /* \"contracts/TicTacToe.sol\":4279:4350  board[0][i] == marker && board[1][i] == marker && board[2][i] == marker */\n      dup1\n      iszero\n      tag_118\n      jumpi\n      pop\n        /* \"contracts/TicTacToe.sol\":4344:4350  marker */\n      dup2\n        /* \"contracts/TicTacToe.sol\":4329:4350  board[2][i] == marker */\n      0xff\n      and\n        /* \"contracts/TicTacToe.sol\":4329:4334  board */\n      0x00\n        /* \"contracts/TicTacToe.sol\":4335:4336  2 */\n      0x02\n        /* \"contracts/TicTacToe.sol\":4329:4337  board[2] */\n      0x03\n      dup2\n      lt\n      tag_119\n      jumpi\n      tag_120\n      tag_47\n      jump\t// in\n    tag_120:\n    tag_119:\n      add\n        /* \"contracts/TicTacToe.sol\":4338:4339  i */\n      dup3\n        /* \"contracts/TicTacToe.sol\":4329:4340  board[2][i] */\n      0xff\n      and\n      0x03\n      dup2\n      lt\n      tag_122\n      jumpi\n      tag_123\n      tag_47\n      jump\t// in\n    tag_123:\n    tag_122:\n      0x20\n      swap2\n      dup3\n      dup3\n      div\n      add\n      swap2\n      swap1\n      mod\n      swap1\n      sload\n      swap1\n      0x0100\n      exp\n      swap1\n      div\n      0xff\n      and\n        /* \"contracts/TicTacToe.sol\":4329:4350  board[2][i] == marker */\n      0xff\n      and\n      eq\n        /* \"contracts/TicTacToe.sol\":4279:4350  board[0][i] == marker && board[1][i] == marker && board[2][i] == marker */\n    tag_118:\n        /* \"contracts/TicTacToe.sol\":4275:4426  if (board[0][i] == marker && board[1][i] == marker && board[2][i] == marker) {... */\n      iszero\n      tag_125\n      jumpi\n        /* \"contracts/TicTacToe.sol\":4383:4387  true */\n      0x01\n        /* \"contracts/TicTacToe.sol\":4370:4380  isGameOver */\n      0x05\n      0x14\n        /* \"contracts/TicTacToe.sol\":4370:4387  isGameOver = true */\n      0x0100\n      exp\n      dup2\n      sload\n      dup2\n      0xff\n      mul\n      not\n      and\n      swap1\n      dup4\n      iszero\n      iszero\n      mul\n      or\n      swap1\n      sstore\n      pop\n        /* \"contracts/TicTacToe.sol\":4405:4412  return; */\n      pop\n      pop\n      jump(tag_78)\n        /* \"contracts/TicTacToe.sol\":4275:4426  if (board[0][i] == marker && board[1][i] == marker && board[2][i] == marker) {... */\n    tag_125:\n        /* \"contracts/TicTacToe.sol\":4092:4095  i++ */\n      dup1\n      dup1\n      0x01\n      add\n      swap2\n      pop\n      pop\n        /* \"contracts/TicTacToe.sol\":4067:4436  for (uint8 i = 0; i < 3; i++) {... */\n      jump(tag_81)\n    tag_82:\n      pop\n        /* \"contracts/TicTacToe.sol\":4464:4470  marker */\n      dup1\n        /* \"contracts/TicTacToe.sol\":4449:4470  board[0][0] == marker */\n      0xff\n      and\n        /* \"contracts/TicTacToe.sol\":4449:4454  board */\n      0x00\n        /* \"contracts/TicTacToe.sol\":4455:4456  0 */\n      0x00\n        /* \"contracts/TicTacToe.sol\":4449:4457  board[0] */\n      0x03\n      dup2\n      lt\n      tag_126\n      jumpi\n      tag_127\n      tag_47\n      jump\t// in\n    tag_127:\n    tag_126:\n      add\n        /* \"contracts/TicTacToe.sol\":4458:4459  0 */\n      0x00\n        /* \"contracts/TicTacToe.sol\":4449:4460  board[0][0] */\n      0x03\n      dup2\n      lt\n      tag_129\n      jumpi\n      tag_130\n      tag_47\n      jump\t// in\n    tag_130:\n    tag_129:\n      0x20\n      swap2\n      dup3\n      dup3\n      div\n      add\n      swap2\n      swap1\n      mod\n      swap1\n      sload\n      swap1\n      0x0100\n      exp\n      swap1\n      div\n      0xff\n      and\n        /* \"contracts/TicTacToe.sol\":4449:4470  board[0][0] == marker */\n      0xff\n      and\n      eq\n        /* \"contracts/TicTacToe.sol\":4449:4495  board[0][0] == marker && board[1][1] == marker */\n      dup1\n      iszero\n      tag_132\n      jumpi\n      pop\n        /* \"contracts/TicTacToe.sol\":4489:4495  marker */\n      dup1\n        /* \"contracts/TicTacToe.sol\":4474:4495  board[1][1] == marker */\n      0xff\n      and\n        /* \"contracts/TicTacToe.sol\":4474:4479  board */\n      0x00\n        /* \"contracts/TicTacToe.sol\":4480:4481  1 */\n      0x01\n        /* \"contracts/TicTacToe.sol\":4474:4482  board[1] */\n      0x03\n      dup2\n      lt\n      tag_133\n      jumpi\n      tag_134\n      tag_47\n      jump\t// in\n    tag_134:\n    tag_133:\n      add\n        /* \"contracts/TicTacToe.sol\":4483:4484  1 */\n      0x01\n        /* \"contracts/TicTacToe.sol\":4474:4485  board[1][1] */\n      0x03\n      dup2\n      lt\n      tag_136\n      jumpi\n      tag_137\n      tag_47\n      jump\t// in\n    tag_137:\n    tag_136:\n      0x20\n      swap2\n      dup3\n      dup3\n      div\n      add\n      swap2\n      swap1\n      mod\n      swap1\n      sload\n      swap1\n      0x0100\n      exp\n      swap1\n      div\n      0xff\n      and\n        /* \"contracts/TicTacToe.sol\":4474:4495  board[1][1] == marker */\n      0xff\n      and\n      eq\n        /* \"contracts/TicTacToe.sol\":4449:4495  board[0][0] == marker && board[1][1] == marker */\n    tag_132:\n        /* \"contracts/TicTacToe.sol\":4449:4520  board[0][0] == marker && board[1][1] == marker && board[2][2] == marker */\n      dup1\n      iszero\n      tag_139\n      jumpi\n      pop\n        /* \"contracts/TicTacToe.sol\":4514:4520  marker */\n      dup1\n        /* \"contracts/TicTacToe.sol\":4499:4520  board[2][2] == marker */\n      0xff\n      and\n        /* \"contracts/TicTacToe.sol\":4499:4504  board */\n      0x00\n        /* \"contracts/TicTacToe.sol\":4505:4506  2 */\n      0x02\n        /* \"contracts/TicTacToe.sol\":4499:4507  board[2] */\n      0x03\n      dup2\n      lt\n      tag_140\n      jumpi\n      tag_141\n      tag_47\n      jump\t// in\n    tag_141:\n    tag_140:\n      add\n        /* \"contracts/TicTacToe.sol\":4508:4509  2 */\n      0x02\n        /* \"contracts/TicTacToe.sol\":4499:4510  board[2][2] */\n      0x03\n      dup2\n      lt\n      tag_143\n      jumpi\n      tag_144\n      tag_47\n      jump\t// in\n    tag_144:\n    tag_143:\n      0x20\n      swap2\n      dup3\n      dup3\n      div\n      add\n      swap2\n      swap1\n      mod\n      swap1\n      sload\n      swap1\n      0x0100\n      exp\n      swap1\n      div\n      0xff\n      and\n        /* \"contracts/TicTacToe.sol\":4499:4520  board[2][2] == marker */\n      0xff\n      and\n      eq\n        /* \"contracts/TicTacToe.sol\":4449:4520  board[0][0] == marker && board[1][1] == marker && board[2][2] == marker */\n    tag_139:\n        /* \"contracts/TicTacToe.sol\":4445:4729  if (board[0][0] == marker && board[1][1] == marker && board[2][2] == marker) {... */\n      iszero\n      tag_146\n      jumpi\n        /* \"contracts/TicTacToe.sol\":4549:4553  true */\n      0x01\n        /* \"contracts/TicTacToe.sol\":4536:4546  isGameOver */\n      0x05\n      0x14\n        /* \"contracts/TicTacToe.sol\":4536:4553  isGameOver = true */\n      0x0100\n      exp\n      dup2\n      sload\n      dup2\n      0xff\n      mul\n      not\n      and\n      swap1\n      dup4\n      iszero\n      iszero\n      mul\n      or\n      swap1\n      sstore\n      pop\n        /* \"contracts/TicTacToe.sol\":4567:4574  return; */\n      pop\n      jump(tag_78)\n        /* \"contracts/TicTacToe.sol\":4445:4729  if (board[0][0] == marker && board[1][1] == marker && board[2][2] == marker) {... */\n    tag_146:\n        /* \"contracts/TicTacToe.sol\":4609:4615  marker */\n      dup1\n        /* \"contracts/TicTacToe.sol\":4594:4615  board[0][2] == marker */\n      0xff\n      and\n        /* \"contracts/TicTacToe.sol\":4594:4599  board */\n      0x00\n        /* \"contracts/TicTacToe.sol\":4600:4601  0 */\n      0x00\n        /* \"contracts/TicTacToe.sol\":4594:4602  board[0] */\n      0x03\n      dup2\n      lt\n      tag_148\n      jumpi\n      tag_149\n      tag_47\n      jump\t// in\n    tag_149:\n    tag_148:\n      add\n        /* \"contracts/TicTacToe.sol\":4603:4604  2 */\n      0x02\n        /* \"contracts/TicTacToe.sol\":4594:4605  board[0][2] */\n      0x03\n      dup2\n      lt\n      tag_151\n      jumpi\n      tag_152\n      tag_47\n      jump\t// in\n    tag_152:\n    tag_151:\n      0x20\n      swap2\n      dup3\n      dup3\n      div\n      add\n      swap2\n      swap1\n      mod\n      swap1\n      sload\n      swap1\n      0x0100\n      exp\n      swap1\n      div\n      0xff\n      and\n        /* \"contracts/TicTacToe.sol\":4594:4615  board[0][2] == marker */\n      0xff\n      and\n      eq\n        /* \"contracts/TicTacToe.sol\":4594:4640  board[0][2] == marker && board[1][1] == marker */\n      dup1\n      iszero\n      tag_154\n      jumpi\n      pop\n        /* \"contracts/TicTacToe.sol\":4634:4640  marker */\n      dup1\n        /* \"contracts/TicTacToe.sol\":4619:4640  board[1][1] == marker */\n      0xff\n      and\n        /* \"contracts/TicTacToe.sol\":4619:4624  board */\n      0x00\n        /* \"contracts/TicTacToe.sol\":4625:4626  1 */\n      0x01\n        /* \"contracts/TicTacToe.sol\":4619:4627  board[1] */\n      0x03\n      dup2\n      lt\n      tag_155\n      jumpi\n      tag_156\n      tag_47\n      jump\t// in\n    tag_156:\n    tag_155:\n      add\n        /* \"contracts/TicTacToe.sol\":4628:4629  1 */\n      0x01\n        /* \"contracts/TicTacToe.sol\":4619:4630  board[1][1] */\n      0x03\n      dup2\n      lt\n      tag_158\n      jumpi\n      tag_159\n      tag_47\n      jump\t// in\n    tag_159:\n    tag_158:\n      0x20\n      swap2\n      dup3\n      dup3\n      div\n      add\n      swap2\n      swap1\n      mod\n      swap1\n      sload\n      swap1\n      0x0100\n      exp\n      swap1\n      div\n      0xff\n      and\n        /* \"contracts/TicTacToe.sol\":4619:4640  board[1][1] == marker */\n      0xff\n      and\n      eq\n        /* \"contracts/TicTacToe.sol\":4594:4640  board[0][2] == marker && board[1][1] == marker */\n    tag_154:\n        /* \"contracts/TicTacToe.sol\":4594:4665  board[0][2] == marker && board[1][1] == marker && board[2][0] == marker */\n      dup1\n      iszero\n      tag_161\n      jumpi\n      pop\n        /* \"contracts/TicTacToe.sol\":4659:4665  marker */\n      dup1\n        /* \"contracts/TicTacToe.sol\":4644:4665  board[2][0] == marker */\n      0xff\n      and\n        /* \"contracts/TicTacToe.sol\":4644:4649  board */\n      0x00\n        /* \"contracts/TicTacToe.sol\":4650:4651  2 */\n      0x02\n        /* \"contracts/TicTacToe.sol\":4644:4652  board[2] */\n      0x03\n      dup2\n      lt\n      tag_162\n      jumpi\n      tag_163\n      tag_47\n      jump\t// in\n    tag_163:\n    tag_162:\n      add\n        /* \"contracts/TicTacToe.sol\":4653:4654  0 */\n      0x00\n        /* \"contracts/TicTacToe.sol\":4644:4655  board[2][0] */\n      0x03\n      dup2\n      lt\n      tag_165\n      jumpi\n      tag_166\n      tag_47\n      jump\t// in\n    tag_166:\n    tag_165:\n      0x20\n      swap2\n      dup3\n      dup3\n      div\n      add\n      swap2\n      swap1\n      mod\n      swap1\n      sload\n      swap1\n      0x0100\n      exp\n      swap1\n      div\n      0xff\n      and\n        /* \"contracts/TicTacToe.sol\":4644:4665  board[2][0] == marker */\n      0xff\n      and\n      eq\n        /* \"contracts/TicTacToe.sol\":4594:4665  board[0][2] == marker && board[1][1] == marker && board[2][0] == marker */\n    tag_161:\n        /* \"contracts/TicTacToe.sol\":4590:4729  if (board[0][2] == marker && board[1][1] == marker && board[2][0] == marker) {... */\n      iszero\n      tag_168\n      jumpi\n        /* \"contracts/TicTacToe.sol\":4694:4698  true */\n      0x01\n        /* \"contracts/TicTacToe.sol\":4681:4691  isGameOver */\n      0x05\n      0x14\n        /* \"contracts/TicTacToe.sol\":4681:4698  isGameOver = true */\n      0x0100\n      exp\n      dup2\n      sload\n      dup2\n      0xff\n      mul\n      not\n      and\n      swap1\n      dup4\n      iszero\n      iszero\n      mul\n      or\n      swap1\n      sstore\n      pop\n        /* \"contracts/TicTacToe.sol\":4712:4719  return; */\n      pop\n      jump(tag_78)\n        /* \"contracts/TicTacToe.sol\":4590:4729  if (board[0][2] == marker && board[1][1] == marker && board[2][0] == marker) {... */\n    tag_168:\n        /* \"contracts/TicTacToe.sol\":4808:4825  uint8 filledCells */\n      0x00\n        /* \"contracts/TicTacToe.sol\":4828:4829  0 */\n      0x00\n        /* \"contracts/TicTacToe.sol\":4808:4829  uint8 filledCells = 0 */\n      swap1\n      pop\n        /* \"contracts/TicTacToe.sol\":4844:4850  uint i */\n      0x00\n        /* \"contracts/TicTacToe.sol\":4853:4854  0 */\n      0x00\n        /* \"contracts/TicTacToe.sol\":4844:4854  uint i = 0 */\n      swap1\n      pop\n        /* \"contracts/TicTacToe.sol\":4839:4990  for (uint i = 0; i < 3; i++) {... */\n    tag_169:\n        /* \"contracts/TicTacToe.sol\":4860:4861  3 */\n      0x03\n        /* \"contracts/TicTacToe.sol\":4856:4857  i */\n      dup2\n        /* \"contracts/TicTacToe.sol\":4856:4861  i < 3 */\n      lt\n        /* \"contracts/TicTacToe.sol\":4839:4990  for (uint i = 0; i < 3; i++) {... */\n      iszero\n      tag_170\n      jumpi\n        /* \"contracts/TicTacToe.sol\":4887:4894  uint8 j */\n      0x00\n        /* \"contracts/TicTacToe.sol\":4897:4898  0 */\n      0x00\n        /* \"contracts/TicTacToe.sol\":4887:4898  uint8 j = 0 */\n      swap1\n      pop\n        /* \"contracts/TicTacToe.sol\":4882:4980  for (uint8 j = 0; j < 3; j++) {... */\n    tag_172:\n        /* \"contracts/TicTacToe.sol\":4904:4905  3 */\n      0x03\n        /* \"contracts/TicTacToe.sol\":4900:4901  j */\n      dup2\n        /* \"contracts/TicTacToe.sol\":4900:4905  j < 3 */\n      0xff\n      and\n      lt\n        /* \"contracts/TicTacToe.sol\":4882:4980  for (uint8 j = 0; j < 3; j++) {... */\n      iszero\n      tag_173\n      jumpi\n        /* \"contracts/TicTacToe.sol\":4949:4950  0 */\n      0x00\n        /* \"contracts/TicTacToe.sol\":4934:4939  board */\n      0x00\n        /* \"contracts/TicTacToe.sol\":4940:4941  i */\n      dup4\n        /* \"contracts/TicTacToe.sol\":4934:4942  board[i] */\n      0x03\n      dup2\n      lt\n      tag_175\n      jumpi\n      tag_176\n      tag_47\n      jump\t// in\n    tag_176:\n    tag_175:\n      add\n        /* \"contracts/TicTacToe.sol\":4943:4944  j */\n      dup3\n        /* \"contracts/TicTacToe.sol\":4934:4945  board[i][j] */\n      0xff\n      and\n      0x03\n      dup2\n      lt\n      tag_178\n      jumpi\n      tag_179\n      tag_47\n      jump\t// in\n    tag_179:\n    tag_178:\n      0x20\n      swap2\n      dup3\n      dup3\n      div\n      add\n      swap2\n      swap1\n      mod\n      swap1\n      sload\n      swap1\n      0x0100\n      exp\n      swap1\n      div\n      0xff\n      and\n        /* \"contracts/TicTacToe.sol\":4934:4950  board[i][j] != 0 */\n      0xff\n      and\n      eq\n        /* \"contracts/TicTacToe.sol\":4930:4965  if (board[i][j] != 0) filledCells++ */\n      tag_181\n      jumpi\n        /* \"contracts/TicTacToe.sol\":4952:4965  filledCells++ */\n      dup3\n      dup1\n      tag_182\n      swap1\n      tag_183\n      jump\t// in\n    tag_182:\n      swap4\n      pop\n      pop\n        /* \"contracts/TicTacToe.sol\":4930:4965  if (board[i][j] != 0) filledCells++ */\n    tag_181:\n        /* \"contracts/TicTacToe.sol\":4907:4910  j++ */\n      dup1\n      dup1\n      0x01\n      add\n      swap2\n      pop\n      pop\n        /* \"contracts/TicTacToe.sol\":4882:4980  for (uint8 j = 0; j < 3; j++) {... */\n      jump(tag_172)\n    tag_173:\n      pop\n        /* \"contracts/TicTacToe.sol\":4863:4866  i++ */\n      dup1\n      dup1\n      0x01\n      add\n      swap2\n      pop\n      pop\n        /* \"contracts/TicTacToe.sol\":4839:4990  for (uint i = 0; i < 3; i++) {... */\n      jump(tag_169)\n    tag_170:\n      pop\n        /* \"contracts/TicTacToe.sol\":5067:5068  9 */\n      0x09\n        /* \"contracts/TicTacToe.sol\":5052:5063  filledCells */\n      dup2\n        /* \"contracts/TicTacToe.sol\":5052:5068  filledCells == 9 */\n      0xff\n      and\n      sub\n        /* \"contracts/TicTacToe.sol\":5048:5087  if (filledCells == 9) isGameOver = true */\n      tag_184\n      jumpi\n        /* \"contracts/TicTacToe.sol\":5083:5087  true */\n      0x01\n        /* \"contracts/TicTacToe.sol\":5070:5080  isGameOver */\n      0x05\n      0x14\n        /* \"contracts/TicTacToe.sol\":5070:5087  isGameOver = true */\n      0x0100\n      exp\n      dup2\n      sload\n      dup2\n      0xff\n      mul\n      not\n      and\n      swap1\n      dup4\n      iszero\n      iszero\n      mul\n      or\n      swap1\n      sstore\n      pop\n        /* \"contracts/TicTacToe.sol\":5048:5087  if (filledCells == 9) isGameOver = true */\n    tag_184:\n        /* \"contracts/TicTacToe.sol\":3796:5094  {... */\n      pop\n      pop\n        /* \"contracts/TicTacToe.sol\":3768:5094  function checkWin() private {... */\n    tag_78:\n      jump\t// out\n        /* \"contracts/TicTacToe.sol\":3593:3762  function switchTurn() private {... */\n    tag_73:\n        /* \"contracts/TicTacToe.sol\":3651:3658  playerX */\n      0x03\n      0x00\n      swap1\n      sload\n      swap1\n      0x0100\n      exp\n      swap1\n      div\n      0xffffffffffffffffffffffffffffffffffffffff\n      and\n        /* \"contracts/TicTacToe.sol\":3637:3658  nextPlayer == playerX */\n      0xffffffffffffffffffffffffffffffffffffffff\n      and\n        /* \"contracts/TicTacToe.sol\":3637:3647  nextPlayer */\n      0x05\n      0x00\n      swap1\n      sload\n      swap1\n      0x0100\n      exp\n      swap1\n      div\n      0xffffffffffffffffffffffffffffffffffffffff\n      and\n        /* \"contracts/TicTacToe.sol\":3637:3658  nextPlayer == playerX */\n      0xffffffffffffffffffffffffffffffffffffffff\n      and\n      sub\n        /* \"contracts/TicTacToe.sol\":3633:3756  if (nextPlayer == playerX) {... */\n      tag_186\n      jumpi\n        /* \"contracts/TicTacToe.sol\":3687:3694  playerO */\n      0x04\n      0x00\n      swap1\n      sload\n      swap1\n      0x0100\n      exp\n      swap1\n      div\n      0xffffffffffffffffffffffffffffffffffffffff\n      and\n        /* \"contracts/TicTacToe.sol\":3674:3684  nextPlayer */\n      0x05\n      0x00\n        /* \"contracts/TicTacToe.sol\":3674:3694  nextPlayer = playerO */\n      0x0100\n      exp\n      dup2\n      sload\n      dup2\n      0xffffffffffffffffffffffffffffffffffffffff\n      mul\n      not\n      and\n      swap1\n      dup4\n      0xffffffffffffffffffffffffffffffffffffffff\n      and\n      mul\n      or\n      swap1\n      sstore\n      pop\n        /* \"contracts/TicTacToe.sol\":3633:3756  if (nextPlayer == playerX) {... */\n      jump(tag_187)\n    tag_186:\n        /* \"contracts/TicTacToe.sol\":3738:3745  playerX */\n      0x03\n      0x00\n      swap1\n      sload\n      swap1\n      0x0100\n      exp\n      swap1\n      div\n      0xffffffffffffffffffffffffffffffffffffffff\n      and\n        /* \"contracts/TicTacToe.sol\":3725:3735  nextPlayer */\n      0x05\n      0x00\n        /* \"contracts/TicTacToe.sol\":3725:3745  nextPlayer = playerX */\n      0x0100\n      exp\n      dup2\n      sload\n      dup2\n      0xffffffffffffffffffffffffffffffffffffffff\n      mul\n      not\n      and\n      swap1\n      dup4\n      0xffffffffffffffffffffffffffffffffffffffff\n      and\n      mul\n      or\n      swap1\n      sstore\n      pop\n        /* \"contracts/TicTacToe.sol\":3633:3756  if (nextPlayer == playerX) {... */\n    tag_187:\n        /* \"contracts/TicTacToe.sol\":3593:3762  function switchTurn() private {... */\n      jump\t// out\n        /* \"#utility.yul\":7:133   */\n    tag_188:\n        /* \"#utility.yul\":44:51   */\n      0x00\n        /* \"#utility.yul\":84:126   */\n      0xffffffffffffffffffffffffffffffffffffffff\n        /* \"#utility.yul\":77:82   */\n      dup3\n        /* \"#utility.yul\":73:127   */\n      and\n        /* \"#utility.yul\":62:127   */\n      swap1\n      pop\n        /* \"#utility.yul\":7:133   */\n      swap2\n      swap1\n      pop\n      jump\t// out\n        /* \"#utility.yul\":139:235   */\n    tag_189:\n        /* \"#utility.yul\":176:183   */\n      0x00\n        /* \"#utility.yul\":205:229   */\n      tag_218\n        /* \"#utility.yul\":223:228   */\n      dup3\n        /* \"#utility.yul\":205:229   */\n      tag_188\n      jump\t// in\n    tag_218:\n        /* \"#utility.yul\":194:229   */\n      swap1\n      pop\n        /* \"#utility.yul\":139:235   */\n      swap2\n      swap1\n      pop\n      jump\t// out\n        /* \"#utility.yul\":241:359   */\n    tag_190:\n        /* \"#utility.yul\":328:352   */\n      tag_220\n        /* \"#utility.yul\":346:351   */\n      dup2\n        /* \"#utility.yul\":328:352   */\n      tag_189\n      jump\t// in\n    tag_220:\n        /* \"#utility.yul\":323:326   */\n      dup3\n        /* \"#utility.yul\":316:353   */\n      mstore\n        /* \"#utility.yul\":241:359   */\n      pop\n      pop\n      jump\t// out\n        /* \"#utility.yul\":365:587   */\n    tag_12:\n        /* \"#utility.yul\":458:462   */\n      0x00\n        /* \"#utility.yul\":496:498   */\n      0x20\n        /* \"#utility.yul\":485:494   */\n      dup3\n        /* \"#utility.yul\":481:499   */\n      add\n        /* \"#utility.yul\":473:499   */\n      swap1\n      pop\n        /* \"#utility.yul\":509:580   */\n      tag_222\n        /* \"#utility.yul\":577:578   */\n      0x00\n        /* \"#utility.yul\":566:575   */\n      dup4\n        /* \"#utility.yul\":562:579   */\n      add\n        /* \"#utility.yul\":553:559   */\n      dup5\n        /* \"#utility.yul\":509:580   */\n      tag_190\n      jump\t// in\n    tag_222:\n        /* \"#utility.yul\":365:587   */\n      swap3\n      swap2\n      pop\n      pop\n      jump\t// out\n        /* \"#utility.yul\":593:683   */\n    tag_191:\n        /* \"#utility.yul\":627:634   */\n      0x00\n        /* \"#utility.yul\":670:675   */\n      dup2\n        /* \"#utility.yul\":663:676   */\n      iszero\n        /* \"#utility.yul\":656:677   */\n      iszero\n        /* \"#utility.yul\":645:677   */\n      swap1\n      pop\n        /* \"#utility.yul\":593:683   */\n      swap2\n      swap1\n      pop\n      jump\t// out\n        /* \"#utility.yul\":689:798   */\n    tag_192:\n        /* \"#utility.yul\":770:791   */\n      tag_225\n        /* \"#utility.yul\":785:790   */\n      dup2\n        /* \"#utility.yul\":770:791   */\n      tag_191\n      jump\t// in\n    tag_225:\n        /* \"#utility.yul\":765:768   */\n      dup3\n        /* \"#utility.yul\":758:792   */\n      mstore\n        /* \"#utility.yul\":689:798   */\n      pop\n      pop\n      jump\t// out\n        /* \"#utility.yul\":804:1014   */\n    tag_16:\n        /* \"#utility.yul\":891:895   */\n      0x00\n        /* \"#utility.yul\":929:931   */\n      0x20\n        /* \"#utility.yul\":918:927   */\n      dup3\n        /* \"#utility.yul\":914:932   */\n      add\n        /* \"#utility.yul\":906:932   */\n      swap1\n      pop\n        /* \"#utility.yul\":942:1007   */\n      tag_227\n        /* \"#utility.yul\":1004:1005   */\n      0x00\n        /* \"#utility.yul\":993:1002   */\n      dup4\n        /* \"#utility.yul\":989:1006   */\n      add\n        /* \"#utility.yul\":980:986   */\n      dup5\n        /* \"#utility.yul\":942:1007   */\n      tag_192\n      jump\t// in\n    tag_227:\n        /* \"#utility.yul\":804:1014   */\n      swap3\n      swap2\n      pop\n      pop\n      jump\t// out\n        /* \"#utility.yul\":1020:1124   */\n    tag_193:\n        /* \"#utility.yul\":1065:1072   */\n      0x00\n        /* \"#utility.yul\":1094:1118   */\n      tag_229\n        /* \"#utility.yul\":1112:1117   */\n      dup3\n        /* \"#utility.yul\":1094:1118   */\n      tag_188\n      jump\t// in\n    tag_229:\n        /* \"#utility.yul\":1083:1118   */\n      swap1\n      pop\n        /* \"#utility.yul\":1020:1124   */\n      swap2\n      swap1\n      pop\n      jump\t// out\n        /* \"#utility.yul\":1130:1272   */\n    tag_194:\n        /* \"#utility.yul\":1233:1265   */\n      tag_231\n        /* \"#utility.yul\":1259:1264   */\n      dup2\n        /* \"#utility.yul\":1233:1265   */\n      tag_193\n      jump\t// in\n    tag_231:\n        /* \"#utility.yul\":1228:1231   */\n      dup3\n        /* \"#utility.yul\":1221:1266   */\n      mstore\n        /* \"#utility.yul\":1130:1272   */\n      pop\n      pop\n      jump\t// out\n        /* \"#utility.yul\":1278:1532   */\n    tag_20:\n        /* \"#utility.yul\":1387:1391   */\n      0x00\n        /* \"#utility.yul\":1425:1427   */\n      0x20\n        /* \"#utility.yul\":1414:1423   */\n      dup3\n        /* \"#utility.yul\":1410:1428   */\n      add\n        /* \"#utility.yul\":1402:1428   */\n      swap1\n      pop\n        /* \"#utility.yul\":1438:1525   */\n      tag_233\n        /* \"#utility.yul\":1522:1523   */\n      0x00\n        /* \"#utility.yul\":1511:1520   */\n      dup4\n        /* \"#utility.yul\":1507:1524   */\n      add\n        /* \"#utility.yul\":1498:1504   */\n      dup5\n        /* \"#utility.yul\":1438:1525   */\n      tag_194\n      jump\t// in\n    tag_233:\n        /* \"#utility.yul\":1278:1532   */\n      swap3\n      swap2\n      pop\n      pop\n      jump\t// out\n        /* \"#utility.yul\":1619:1736   */\n    tag_196:\n        /* \"#utility.yul\":1728:1729   */\n      0x00\n        /* \"#utility.yul\":1725:1726   */\n      0x00\n        /* \"#utility.yul\":1718:1730   */\n      revert\n        /* \"#utility.yul\":1865:1951   */\n    tag_198:\n        /* \"#utility.yul\":1900:1907   */\n      0x00\n        /* \"#utility.yul\":1940:1944   */\n      0xff\n        /* \"#utility.yul\":1933:1938   */\n      dup3\n        /* \"#utility.yul\":1929:1945   */\n      and\n        /* \"#utility.yul\":1918:1945   */\n      swap1\n      pop\n        /* \"#utility.yul\":1865:1951   */\n      swap2\n      swap1\n      pop\n      jump\t// out\n        /* \"#utility.yul\":1957:2075   */\n    tag_199:\n        /* \"#utility.yul\":2028:2050   */\n      tag_239\n        /* \"#utility.yul\":2044:2049   */\n      dup2\n        /* \"#utility.yul\":2028:2050   */\n      tag_198\n      jump\t// in\n    tag_239:\n        /* \"#utility.yul\":2021:2026   */\n      dup2\n        /* \"#utility.yul\":2018:2051   */\n      eq\n        /* \"#utility.yul\":2008:2069   */\n      tag_240\n      jumpi\n        /* \"#utility.yul\":2065:2066   */\n      0x00\n        /* \"#utility.yul\":2062:2063   */\n      0x00\n        /* \"#utility.yul\":2055:2067   */\n      revert\n        /* \"#utility.yul\":2008:2069   */\n    tag_240:\n        /* \"#utility.yul\":1957:2075   */\n      pop\n      jump\t// out\n        /* \"#utility.yul\":2081:2216   */\n    tag_200:\n        /* \"#utility.yul\":2125:2130   */\n      0x00\n        /* \"#utility.yul\":2163:2169   */\n      dup2\n        /* \"#utility.yul\":2150:2170   */\n      calldataload\n        /* \"#utility.yul\":2141:2170   */\n      swap1\n      pop\n        /* \"#utility.yul\":2179:2210   */\n      tag_242\n        /* \"#utility.yul\":2204:2209   */\n      dup2\n        /* \"#utility.yul\":2179:2210   */\n      tag_199\n      jump\t// in\n    tag_242:\n        /* \"#utility.yul\":2081:2216   */\n      swap3\n      swap2\n      pop\n      pop\n      jump\t// out\n        /* \"#utility.yul\":2222:2688   */\n    tag_23:\n        /* \"#utility.yul\":2286:2292   */\n      0x00\n        /* \"#utility.yul\":2294:2300   */\n      0x00\n        /* \"#utility.yul\":2343:2345   */\n      0x40\n        /* \"#utility.yul\":2331:2340   */\n      dup4\n        /* \"#utility.yul\":2322:2329   */\n      dup6\n        /* \"#utility.yul\":2318:2341   */\n      sub\n        /* \"#utility.yul\":2314:2346   */\n      slt\n        /* \"#utility.yul\":2311:2430   */\n      iszero\n      tag_244\n      jumpi\n        /* \"#utility.yul\":2349:2428   */\n      tag_245\n      tag_196\n      jump\t// in\n    tag_245:\n        /* \"#utility.yul\":2311:2430   */\n    tag_244:\n        /* \"#utility.yul\":2469:2470   */\n      0x00\n        /* \"#utility.yul\":2494:2545   */\n      tag_246\n        /* \"#utility.yul\":2537:2544   */\n      dup6\n        /* \"#utility.yul\":2528:2534   */\n      dup3\n        /* \"#utility.yul\":2517:2526   */\n      dup7\n        /* \"#utility.yul\":2513:2535   */\n      add\n        /* \"#utility.yul\":2494:2545   */\n      tag_200\n      jump\t// in\n    tag_246:\n        /* \"#utility.yul\":2484:2545   */\n      swap3\n      pop\n        /* \"#utility.yul\":2440:2555   */\n      pop\n        /* \"#utility.yul\":2594:2596   */\n      0x20\n        /* \"#utility.yul\":2620:2671   */\n      tag_247\n        /* \"#utility.yul\":2663:2670   */\n      dup6\n        /* \"#utility.yul\":2654:2660   */\n      dup3\n        /* \"#utility.yul\":2643:2652   */\n      dup7\n        /* \"#utility.yul\":2639:2661   */\n      add\n        /* \"#utility.yul\":2620:2671   */\n      tag_200\n      jump\t// in\n    tag_247:\n        /* \"#utility.yul\":2610:2671   */\n      swap2\n      pop\n        /* \"#utility.yul\":2565:2681   */\n      pop\n        /* \"#utility.yul\":2222:2688   */\n      swap3\n      pop\n      swap3\n      swap1\n      pop\n      jump\t// out\n        /* \"#utility.yul\":2694:2771   */\n    tag_201:\n        /* \"#utility.yul\":2731:2738   */\n      0x00\n        /* \"#utility.yul\":2760:2765   */\n      dup2\n        /* \"#utility.yul\":2749:2765   */\n      swap1\n      pop\n        /* \"#utility.yul\":2694:2771   */\n      swap2\n      swap1\n      pop\n      jump\t// out\n        /* \"#utility.yul\":2777:2899   */\n    tag_202:\n        /* \"#utility.yul\":2850:2874   */\n      tag_250\n        /* \"#utility.yul\":2868:2873   */\n      dup2\n        /* \"#utility.yul\":2850:2874   */\n      tag_201\n      jump\t// in\n    tag_250:\n        /* \"#utility.yul\":2843:2848   */\n      dup2\n        /* \"#utility.yul\":2840:2875   */\n      eq\n        /* \"#utility.yul\":2830:2893   */\n      tag_251\n      jumpi\n        /* \"#utility.yul\":2889:2890   */\n      0x00\n        /* \"#utility.yul\":2886:2887   */\n      0x00\n        /* \"#utility.yul\":2879:2891   */\n      revert\n        /* \"#utility.yul\":2830:2893   */\n    tag_251:\n        /* \"#utility.yul\":2777:2899   */\n      pop\n      jump\t// out\n        /* \"#utility.yul\":2905:3044   */\n    tag_203:\n        /* \"#utility.yul\":2951:2956   */\n      0x00\n        /* \"#utility.yul\":2989:2995   */\n      dup2\n        /* \"#utility.yul\":2976:2996   */\n      calldataload\n        /* \"#utility.yul\":2967:2996   */\n      swap1\n      pop\n        /* \"#utility.yul\":3005:3038   */\n      tag_253\n        /* \"#utility.yul\":3032:3037   */\n      dup2\n        /* \"#utility.yul\":3005:3038   */\n      tag_202\n      jump\t// in\n    tag_253:\n        /* \"#utility.yul\":2905:3044   */\n      swap3\n      swap2\n      pop\n      pop\n      jump\t// out\n        /* \"#utility.yul\":3050:3524   */\n    tag_27:\n        /* \"#utility.yul\":3118:3124   */\n      0x00\n        /* \"#utility.yul\":3126:3132   */\n      0x00\n        /* \"#utility.yul\":3175:3177   */\n      0x40\n        /* \"#utility.yul\":3163:3172   */\n      dup4\n        /* \"#utility.yul\":3154:3161   */\n      dup6\n        /* \"#utility.yul\":3150:3173   */\n      sub\n        /* \"#utility.yul\":3146:3178   */\n      slt\n        /* \"#utility.yul\":3143:3262   */\n      iszero\n      tag_255\n      jumpi\n        /* \"#utility.yul\":3181:3260   */\n      tag_256\n      tag_196\n      jump\t// in\n    tag_256:\n        /* \"#utility.yul\":3143:3262   */\n    tag_255:\n        /* \"#utility.yul\":3301:3302   */\n      0x00\n        /* \"#utility.yul\":3326:3379   */\n      tag_257\n        /* \"#utility.yul\":3371:3378   */\n      dup6\n        /* \"#utility.yul\":3362:3368   */\n      dup3\n        /* \"#utility.yul\":3351:3360   */\n      dup7\n        /* \"#utility.yul\":3347:3369   */\n      add\n        /* \"#utility.yul\":3326:3379   */\n      tag_203\n      jump\t// in\n    tag_257:\n        /* \"#utility.yul\":3316:3379   */\n      swap3\n      pop\n        /* \"#utility.yul\":3272:3389   */\n      pop\n        /* \"#utility.yul\":3428:3430   */\n      0x20\n        /* \"#utility.yul\":3454:3507   */\n      tag_258\n        /* \"#utility.yul\":3499:3506   */\n      dup6\n        /* \"#utility.yul\":3490:3496   */\n      dup3\n        /* \"#utility.yul\":3479:3488   */\n      dup7\n        /* \"#utility.yul\":3475:3497   */\n      add\n        /* \"#utility.yul\":3454:3507   */\n      tag_203\n      jump\t// in\n    tag_258:\n        /* \"#utility.yul\":3444:3507   */\n      swap2\n      pop\n        /* \"#utility.yul\":3399:3517   */\n      pop\n        /* \"#utility.yul\":3050:3524   */\n      swap3\n      pop\n      swap3\n      swap1\n      pop\n      jump\t// out\n        /* \"#utility.yul\":3530:3642   */\n    tag_204:\n        /* \"#utility.yul\":3613:3635   */\n      tag_260\n        /* \"#utility.yul\":3629:3634   */\n      dup2\n        /* \"#utility.yul\":3613:3635   */\n      tag_198\n      jump\t// in\n    tag_260:\n        /* \"#utility.yul\":3608:3611   */\n      dup3\n        /* \"#utility.yul\":3601:3636   */\n      mstore\n        /* \"#utility.yul\":3530:3642   */\n      pop\n      pop\n      jump\t// out\n        /* \"#utility.yul\":3648:3862   */\n    tag_30:\n        /* \"#utility.yul\":3737:3741   */\n      0x00\n        /* \"#utility.yul\":3775:3777   */\n      0x20\n        /* \"#utility.yul\":3764:3773   */\n      dup3\n        /* \"#utility.yul\":3760:3778   */\n      add\n        /* \"#utility.yul\":3752:3778   */\n      swap1\n      pop\n        /* \"#utility.yul\":3788:3855   */\n      tag_262\n        /* \"#utility.yul\":3852:3853   */\n      0x00\n        /* \"#utility.yul\":3841:3850   */\n      dup4\n        /* \"#utility.yul\":3837:3854   */\n      add\n        /* \"#utility.yul\":3828:3834   */\n      dup5\n        /* \"#utility.yul\":3788:3855   */\n      tag_204\n      jump\t// in\n    tag_262:\n        /* \"#utility.yul\":3648:3862   */\n      swap3\n      swap2\n      pop\n      pop\n      jump\t// out\n        /* \"#utility.yul\":3868:4037   */\n    tag_205:\n        /* \"#utility.yul\":3952:3963   */\n      0x00\n        /* \"#utility.yul\":3986:3992   */\n      dup3\n        /* \"#utility.yul\":3981:3984   */\n      dup3\n        /* \"#utility.yul\":3974:3993   */\n      mstore\n        /* \"#utility.yul\":4026:4030   */\n      0x20\n        /* \"#utility.yul\":4021:4024   */\n      dup3\n        /* \"#utility.yul\":4017:4031   */\n      add\n        /* \"#utility.yul\":4002:4031   */\n      swap1\n      pop\n        /* \"#utility.yul\":3868:4037   */\n      swap3\n      swap2\n      pop\n      pop\n      jump\t// out\n        /* \"#utility.yul\":4043:4210   */\n    tag_206:\n        /* \"#utility.yul\":4183:4202   */\n      0x5468652067616d65206973206f7665722e000000000000000000000000000000\n        /* \"#utility.yul\":4179:4180   */\n      0x00\n        /* \"#utility.yul\":4171:4177   */\n      dup3\n        /* \"#utility.yul\":4167:4181   */\n      add\n        /* \"#utility.yul\":4160:4203   */\n      mstore\n        /* \"#utility.yul\":4043:4210   */\n      pop\n      jump\t// out\n        /* \"#utility.yul\":4216:4582   */\n    tag_207:\n        /* \"#utility.yul\":4358:4361   */\n      0x00\n        /* \"#utility.yul\":4379:4446   */\n      tag_266\n        /* \"#utility.yul\":4443:4445   */\n      0x11\n        /* \"#utility.yul\":4438:4441   */\n      dup4\n        /* \"#utility.yul\":4379:4446   */\n      tag_205\n      jump\t// in\n    tag_266:\n        /* \"#utility.yul\":4372:4446   */\n      swap2\n      pop\n        /* \"#utility.yul\":4455:4548   */\n      tag_267\n        /* \"#utility.yul\":4544:4547   */\n      dup3\n        /* \"#utility.yul\":4455:4548   */\n      tag_206\n      jump\t// in\n    tag_267:\n        /* \"#utility.yul\":4573:4575   */\n      0x20\n        /* \"#utility.yul\":4568:4571   */\n      dup3\n        /* \"#utility.yul\":4564:4576   */\n      add\n        /* \"#utility.yul\":4557:4576   */\n      swap1\n      pop\n        /* \"#utility.yul\":4216:4582   */\n      swap2\n      swap1\n      pop\n      jump\t// out\n        /* \"#utility.yul\":4588:5007   */\n    tag_37:\n        /* \"#utility.yul\":4754:4758   */\n      0x00\n        /* \"#utility.yul\":4792:4794   */\n      0x20\n        /* \"#utility.yul\":4781:4790   */\n      dup3\n        /* \"#utility.yul\":4777:4795   */\n      add\n        /* \"#utility.yul\":4769:4795   */\n      swap1\n      pop\n        /* \"#utility.yul\":4841:4850   */\n      dup2\n        /* \"#utility.yul\":4835:4839   */\n      dup2\n        /* \"#utility.yul\":4831:4851   */\n      sub\n        /* \"#utility.yul\":4827:4828   */\n      0x00\n        /* \"#utility.yul\":4816:4825   */\n      dup4\n        /* \"#utility.yul\":4812:4829   */\n      add\n        /* \"#utility.yul\":4805:4852   */\n      mstore\n        /* \"#utility.yul\":4869:5000   */\n      tag_269\n        /* \"#utility.yul\":4995:4999   */\n      dup2\n        /* \"#utility.yul\":4869:5000   */\n      tag_207\n      jump\t// in\n    tag_269:\n        /* \"#utility.yul\":4861:5000   */\n      swap1\n      pop\n        /* \"#utility.yul\":4588:5007   */\n      swap2\n      swap1\n      pop\n      jump\t// out\n        /* \"#utility.yul\":5013:5182   */\n    tag_208:\n        /* \"#utility.yul\":5153:5174   */\n      0x49742773206e6f7420796f7572207475726e2e00000000000000000000000000\n        /* \"#utility.yul\":5149:5150   */\n      0x00\n        /* \"#utility.yul\":5141:5147   */\n      dup3\n        /* \"#utility.yul\":5137:5151   */\n      add\n        /* \"#utility.yul\":5130:5175   */\n      mstore\n        /* \"#utility.yul\":5013:5182   */\n      pop\n      jump\t// out\n        /* \"#utility.yul\":5188:5554   */\n    tag_209:\n        /* \"#utility.yul\":5330:5333   */\n      0x00\n        /* \"#utility.yul\":5351:5418   */\n      tag_272\n        /* \"#utility.yul\":5415:5417   */\n      0x13\n        /* \"#utility.yul\":5410:5413   */\n      dup4\n        /* \"#utility.yul\":5351:5418   */\n      tag_205\n      jump\t// in\n    tag_272:\n        /* \"#utility.yul\":5344:5418   */\n      swap2\n      pop\n        /* \"#utility.yul\":5427:5520   */\n      tag_273\n        /* \"#utility.yul\":5516:5519   */\n      dup3\n        /* \"#utility.yul\":5427:5520   */\n      tag_208\n      jump\t// in\n    tag_273:\n        /* \"#utility.yul\":5545:5547   */\n      0x20\n        /* \"#utility.yul\":5540:5543   */\n      dup3\n        /* \"#utility.yul\":5536:5548   */\n      add\n        /* \"#utility.yul\":5529:5548   */\n      swap1\n      pop\n        /* \"#utility.yul\":5188:5554   */\n      swap2\n      swap1\n      pop\n      jump\t// out\n        /* \"#utility.yul\":5560:5979   */\n    tag_40:\n        /* \"#utility.yul\":5726:5730   */\n      0x00\n        /* \"#utility.yul\":5764:5766   */\n      0x20\n        /* \"#utility.yul\":5753:5762   */\n      dup3\n        /* \"#utility.yul\":5749:5767   */\n      add\n        /* \"#utility.yul\":5741:5767   */\n      swap1\n      pop\n        /* \"#utility.yul\":5813:5822   */\n      dup2\n        /* \"#utility.yul\":5807:5811   */\n      dup2\n        /* \"#utility.yul\":5803:5823   */\n      sub\n        /* \"#utility.yul\":5799:5800   */\n      0x00\n        /* \"#utility.yul\":5788:5797   */\n      dup4\n        /* \"#utility.yul\":5784:5801   */\n      add\n        /* \"#utility.yul\":5777:5824   */\n      mstore\n        /* \"#utility.yul\":5841:5972   */\n      tag_275\n        /* \"#utility.yul\":5967:5971   */\n      dup2\n        /* \"#utility.yul\":5841:5972   */\n      tag_209\n      jump\t// in\n    tag_275:\n        /* \"#utility.yul\":5833:5972   */\n      swap1\n      pop\n        /* \"#utility.yul\":5560:5979   */\n      swap2\n      swap1\n      pop\n      jump\t// out\n        /* \"#utility.yul\":5985:6166   */\n    tag_210:\n        /* \"#utility.yul\":6125:6158   */\n      0x496e76616c696420726f77206f7220636f6c756d6e20706c6163656d656e7400\n        /* \"#utility.yul\":6121:6122   */\n      0x00\n        /* \"#utility.yul\":6113:6119   */\n      dup3\n        /* \"#utility.yul\":6109:6123   */\n      add\n        /* \"#utility.yul\":6102:6159   */\n      mstore\n        /* \"#utility.yul\":5985:6166   */\n      pop\n      jump\t// out\n        /* \"#utility.yul\":6172:6538   */\n    tag_211:\n        /* \"#utility.yul\":6314:6317   */\n      0x00\n        /* \"#utility.yul\":6335:6402   */\n      tag_278\n        /* \"#utility.yul\":6399:6401   */\n      0x1f\n        /* \"#utility.yul\":6394:6397   */\n      dup4\n        /* \"#utility.yul\":6335:6402   */\n      tag_205\n      jump\t// in\n    tag_278:\n        /* \"#utility.yul\":6328:6402   */\n      swap2\n      pop\n        /* \"#utility.yul\":6411:6504   */\n      tag_279\n        /* \"#utility.yul\":6500:6503   */\n      dup3\n        /* \"#utility.yul\":6411:6504   */\n      tag_210\n      jump\t// in\n    tag_279:\n        /* \"#utility.yul\":6529:6531   */\n      0x20\n        /* \"#utility.yul\":6524:6527   */\n      dup3\n        /* \"#utility.yul\":6520:6532   */\n      add\n        /* \"#utility.yul\":6513:6532   */\n      swap1\n      pop\n        /* \"#utility.yul\":6172:6538   */\n      swap2\n      swap1\n      pop\n      jump\t// out\n        /* \"#utility.yul\":6544:6963   */\n    tag_44:\n        /* \"#utility.yul\":6710:6714   */\n      0x00\n        /* \"#utility.yul\":6748:6750   */\n      0x20\n        /* \"#utility.yul\":6737:6746   */\n      dup3\n        /* \"#utility.yul\":6733:6751   */\n      add\n        /* \"#utility.yul\":6725:6751   */\n      swap1\n      pop\n        /* \"#utility.yul\":6797:6806   */\n      dup2\n        /* \"#utility.yul\":6791:6795   */\n      dup2\n        /* \"#utility.yul\":6787:6807   */\n      sub\n        /* \"#utility.yul\":6783:6784   */\n      0x00\n        /* \"#utility.yul\":6772:6781   */\n      dup4\n        /* \"#utility.yul\":6768:6785   */\n      add\n        /* \"#utility.yul\":6761:6808   */\n      mstore\n        /* \"#utility.yul\":6825:6956   */\n      tag_281\n        /* \"#utility.yul\":6951:6955   */\n      dup2\n        /* \"#utility.yul\":6825:6956   */\n      tag_211\n      jump\t// in\n    tag_281:\n        /* \"#utility.yul\":6817:6956   */\n      swap1\n      pop\n        /* \"#utility.yul\":6544:6963   */\n      swap2\n      swap1\n      pop\n      jump\t// out\n        /* \"#utility.yul\":6969:7149   */\n    tag_47:\n        /* \"#utility.yul\":7017:7094   */\n      0x4e487b7100000000000000000000000000000000000000000000000000000000\n        /* \"#utility.yul\":7014:7015   */\n      0x00\n        /* \"#utility.yul\":7007:7095   */\n      mstore\n        /* \"#utility.yul\":7114:7118   */\n      0x32\n        /* \"#utility.yul\":7111:7112   */\n      0x04\n        /* \"#utility.yul\":7104:7119   */\n      mstore\n        /* \"#utility.yul\":7138:7142   */\n      0x24\n        /* \"#utility.yul\":7135:7136   */\n      0x00\n        /* \"#utility.yul\":7128:7143   */\n      revert\n        /* \"#utility.yul\":7155:7327   */\n    tag_212:\n        /* \"#utility.yul\":7295:7319   */\n      0x43656c6c20697320616c72656164792074616b656e2e00000000000000000000\n        /* \"#utility.yul\":7291:7292   */\n      0x00\n        /* \"#utility.yul\":7283:7289   */\n      dup3\n        /* \"#utility.yul\":7279:7293   */\n      add\n        /* \"#utility.yul\":7272:7320   */\n      mstore\n        /* \"#utility.yul\":7155:7327   */\n      pop\n      jump\t// out\n        /* \"#utility.yul\":7333:7699   */\n    tag_213:\n        /* \"#utility.yul\":7475:7478   */\n      0x00\n        /* \"#utility.yul\":7496:7563   */\n      tag_285\n        /* \"#utility.yul\":7560:7562   */\n      0x16\n        /* \"#utility.yul\":7555:7558   */\n      dup4\n        /* \"#utility.yul\":7496:7563   */\n      tag_205\n      jump\t// in\n    tag_285:\n        /* \"#utility.yul\":7489:7563   */\n      swap2\n      pop\n        /* \"#utility.yul\":7572:7665   */\n      tag_286\n        /* \"#utility.yul\":7661:7664   */\n      dup3\n        /* \"#utility.yul\":7572:7665   */\n      tag_212\n      jump\t// in\n    tag_286:\n        /* \"#utility.yul\":7690:7692   */\n      0x20\n        /* \"#utility.yul\":7685:7688   */\n      dup3\n        /* \"#utility.yul\":7681:7693   */\n      add\n        /* \"#utility.yul\":7674:7693   */\n      swap1\n      pop\n        /* \"#utility.yul\":7333:7699   */\n      swap2\n      swap1\n      pop\n      jump\t// out\n        /* \"#utility.yul\":7705:8124   */\n    tag_54:\n        /* \"#utility.yul\":7871:7875   */\n      0x00\n        /* \"#utility.yul\":7909:7911   */\n      0x20\n        /* \"#utility.yul\":7898:7907   */\n      dup3\n        /* \"#utility.yul\":7894:7912   */\n      add\n        /* \"#utility.yul\":7886:7912   */\n      swap1\n      pop\n        /* \"#utility.yul\":7958:7967   */\n      dup2\n        /* \"#utility.yul\":7952:7956   */\n      dup2\n        /* \"#utility.yul\":7948:7968   */\n      sub\n        /* \"#utility.yul\":7944:7945   */\n      0x00\n        /* \"#utility.yul\":7933:7942   */\n      dup4\n        /* \"#utility.yul\":7929:7946   */\n      add\n        /* \"#utility.yul\":7922:7969   */\n      mstore\n        /* \"#utility.yul\":7986:8117   */\n      tag_288\n        /* \"#utility.yul\":8112:8116   */\n      dup2\n        /* \"#utility.yul\":7986:8117   */\n      tag_213\n      jump\t// in\n    tag_288:\n        /* \"#utility.yul\":7978:8117   */\n      swap1\n      pop\n        /* \"#utility.yul\":7705:8124   */\n      swap2\n      swap1\n      pop\n      jump\t// out\n        /* \"#utility.yul\":8130:8310   */\n    tag_214:\n        /* \"#utility.yul\":8178:8255   */\n      0x4e487b7100000000000000000000000000000000000000000000000000000000\n        /* \"#utility.yul\":8175:8176   */\n      0x00\n        /* \"#utility.yul\":8168:8256   */\n      mstore\n        /* \"#utility.yul\":8275:8279   */\n      0x11\n        /* \"#utility.yul\":8272:8273   */\n      0x04\n        /* \"#utility.yul\":8265:8280   */\n      mstore\n        /* \"#utility.yul\":8299:8303   */\n      0x24\n        /* \"#utility.yul\":8296:8297   */\n      0x00\n        /* \"#utility.yul\":8289:8304   */\n      revert\n        /* \"#utility.yul\":8316:8483   */\n    tag_183:\n        /* \"#utility.yul\":8353:8356   */\n      0x00\n        /* \"#utility.yul\":8376:8398   */\n      tag_291\n        /* \"#utility.yul\":8392:8397   */\n      dup3\n        /* \"#utility.yul\":8376:8398   */\n      tag_198\n      jump\t// in\n    tag_291:\n        /* \"#utility.yul\":8367:8398   */\n      swap2\n      pop\n        /* \"#utility.yul\":8420:8424   */\n      0xff\n        /* \"#utility.yul\":8413:8418   */\n      dup3\n        /* \"#utility.yul\":8410:8425   */\n      sub\n        /* \"#utility.yul\":8407:8448   */\n      tag_292\n      jumpi\n        /* \"#utility.yul\":8428:8446   */\n      tag_293\n      tag_214\n      jump\t// in\n    tag_293:\n        /* \"#utility.yul\":8407:8448   */\n    tag_292:\n        /* \"#utility.yul\":8475:8476   */\n      0x01\n        /* \"#utility.yul\":8468:8473   */\n      dup3\n        /* \"#utility.yul\":8464:8477   */\n      add\n        /* \"#utility.yul\":8457:8477   */\n      swap1\n      pop\n        /* \"#utility.yul\":8316:8483   */\n      swap2\n      swap1\n      pop\n      jump\t// out\n\n    auxdata: 0xa264697066735822122019b2a2c9d8968f162959447afb194d4afe49f3d519a7bb633edafaa3fa189e4d64736f6c634300081e0033\n}\n",
				"bytecode": {
					"linkReferences": {},
					"object": "608060405234801561000f575f5ffd5b506040516112993803806112998339818101604052810190610031919061021f565b3360035f6101000a81548173ffffffffffffffffffffffffffffffffffffffff021916908373ffffffffffffffffffffffffffffffffffffffff1602179055508073ffffffffffffffffffffffffffffffffffffffff1660035f9054906101000a900473ffffffffffffffffffffffffffffffffffffffff1673ffffffffffffffffffffffffffffffffffffffff1603610100576040517f08c379a00000000000000000000000000000000000000000000000000000000081526004016100f7906102ca565b60405180910390fd5b8060045f6101000a81548173ffffffffffffffffffffffffffffffffffffffff021916908373ffffffffffffffffffffffffffffffffffffffff16021790555060035f9054906101000a900473ffffffffffffffffffffffffffffffffffffffff1660055f6101000a81548173ffffffffffffffffffffffffffffffffffffffff021916908373ffffffffffffffffffffffffffffffffffffffff1602179055505f600560146101000a81548160ff021916908315150217905550506102e8565b5f5ffd5b5f73ffffffffffffffffffffffffffffffffffffffff82169050919050565b5f6101ee826101c5565b9050919050565b6101fe816101e4565b8114610208575f5ffd5b50565b5f81519050610219816101f5565b92915050565b5f60208284031215610234576102336101c1565b5b5f6102418482850161020b565b91505092915050565b5f82825260208201905092915050565b7f506c61796572204f206d757374206265206120646966666572656e74206164645f8201527f726573732e000000000000000000000000000000000000000000000000000000602082015250565b5f6102b460258361024a565b91506102bf8261025a565b604082019050919050565b5f6020820190508181035f8301526102e1816102a8565b9050919050565b610fa4806102f55f395ff3fe608060405234801561000f575f5ffd5b5060043610610060575f3560e01c806304a93605146100645780630e04a7d8146100825780634cdea7d2146100a05780635e24b0f1146100be5780638086a92a146100da578063e7dafa6e1461010a575b5f5ffd5b61006c610128565b6040516100799190610ba6565b60405180910390f35b61008a61014d565b6040516100979190610bd9565b60405180910390f35b6100a8610160565b6040516100b59190610c12565b60405180910390f35b6100d860048036038101906100d39190610c65565b610185565b005b6100f460048036038101906100ef9190610cd6565b61045e565b6040516101019190610d23565b60405180910390f35b610112610497565b60405161011f9190610c12565b60405180910390f35b60055f9054906101000a900473ffffffffffffffffffffffffffffffffffffffff1681565b600560149054906101000a900460ff1681565b60035f9054906101000a900473ffffffffffffffffffffffffffffffffffffffff1681565b600560149054906101000a900460ff16156101d5576040517f08c379a00000000000000000000000000000000000000000000000000000000081526004016101cc90610d96565b60405180910390fd5b60055f9054906101000a900473ffffffffffffffffffffffffffffffffffffffff1673ffffffffffffffffffffffffffffffffffffffff163373ffffffffffffffffffffffffffffffffffffffff1614610264576040517f08c379a000000000000000000000000000000000000000000000000000000000815260040161025b90610dfe565b60405180910390fd5b60038260ff1610801561027a575060038160ff16105b6102b9576040517f08c379a00000000000000000000000000000000000000000000000000000000081526004016102b090610e66565b60405180910390fd5b5f5f8360ff16600381106102d0576102cf610e84565b5b018260ff16600381106102e6576102e5610e84565b5b602091828204019190069054906101000a900460ff1660ff161461033f576040517f08c379a000000000000000000000000000000000000000000000000000000000815260040161033690610efb565b60405180910390fd5b60035f9054906101000a900473ffffffffffffffffffffffffffffffffffffffff1673ffffffffffffffffffffffffffffffffffffffff163373ffffffffffffffffffffffffffffffffffffffff16036103e65760015f8360ff16600381106103ab576103aa610e84565b5b018260ff16600381106103c1576103c0610e84565b5b602091828204019190066101000a81548160ff021916908360ff160217905550610435565b60025f8360ff16600381106103fe576103fd610e84565b5b018260ff166003811061041457610413610e84565b5b602091828204019190066101000a81548160ff021916908360ff1602179055505b61043d6104bc565b600560149054906101000a900460ff1661045a57610459610a28565b5b5050565b5f826003811061046c575f80fd5b01816003811061047a575f80fd5b60209182820401919006915091509054906101000a900460ff1681565b60045f9054906101000a900473ffffffffffffffffffffffffffffffffffffffff1681565b5f60035f9054906101000a900473ffffffffffffffffffffffffffffffffffffffff1673ffffffffffffffffffffffffffffffffffffffff163373ffffffffffffffffffffffffffffffffffffffff160361051a576001905061051f565b600290505b5f5f90505b60038160ff161015610759578160ff165f8260ff166003811061054a57610549610e84565b5b015f6003811061055d5761055c610e84565b5b602091828204019190069054906101000a900460ff1660ff161480156105c757508160ff165f8260ff166003811061059857610597610e84565b5b016001600381106105ac576105ab610e84565b5b602091828204019190069054906101000a900460ff1660ff16145b801561061757508160ff165f8260ff16600381106105e8576105e7610e84565b5b016002600381106105fc576105fb610e84565b5b602091828204019190069054906101000a900460ff1660ff16145b1561063e576001600560146101000a81548160ff0219169083151502179055505050610a26565b8160ff165f5f6003811061065557610654610e84565b5b018260ff166003811061066b5761066a610e84565b5b602091828204019190069054906101000a900460ff1660ff161480156106d557508160ff165f6001600381106106a4576106a3610e84565b5b018260ff16600381106106ba576106b9610e84565b5b602091828204019190069054906101000a900460ff1660ff16145b801561072557508160ff165f6002600381106106f4576106f3610e84565b5b018260ff166003811061070a57610709610e84565b5b602091828204019190069054906101000a900460ff1660ff16145b1561074c576001600560146101000a81548160ff0219169083151502179055505050610a26565b8080600101915050610524565b508060ff165f5f6003811061077157610770610e84565b5b015f6003811061078457610783610e84565b5b602091828204019190069054906101000a900460ff1660ff161480156107ec57508060ff165f6001600381106107bd576107bc610e84565b5b016001600381106107d1576107d0610e84565b5b602091828204019190069054906101000a900460ff1660ff16145b801561083a57508060ff165f60026003811061080b5761080a610e84565b5b0160026003811061081f5761081e610e84565b5b602091828204019190069054906101000a900460ff1660ff16145b15610860576001600560146101000a81548160ff02191690831515021790555050610a26565b8060ff165f5f6003811061087757610876610e84565b5b0160026003811061088b5761088a610e84565b5b602091828204019190069054906101000a900460ff1660ff161480156108f357508060ff165f6001600381106108c4576108c3610e84565b5b016001600381106108d8576108d7610e84565b5b602091828204019190069054906101000a900460ff1660ff16145b801561094057508060ff165f60026003811061091257610911610e84565b5b015f6003811061092557610924610e84565b5b602091828204019190069054906101000a900460ff1660ff16145b15610966576001600560146101000a81548160ff02191690831515021790555050610a26565b5f5f90505f5f90505b60038110156109fb575f5f90505b60038160ff1610156109ed575f5f836003811061099d5761099c610e84565b5b018260ff16600381106109b3576109b2610e84565b5b602091828204019190069054906101000a900460ff1660ff16146109e05782806109dc90610f46565b9350505b808060010191505061097d565b50808060010191505061096f565b5060098160ff1603610a23576001600560146101000a81548160ff0219169083151502179055505b50505b565b60035f9054906101000a900473ffffffffffffffffffffffffffffffffffffffff1673ffffffffffffffffffffffffffffffffffffffff1660055f9054906101000a900473ffffffffffffffffffffffffffffffffffffffff1673ffffffffffffffffffffffffffffffffffffffff1603610b035760045f9054906101000a900473ffffffffffffffffffffffffffffffffffffffff1660055f6101000a81548173ffffffffffffffffffffffffffffffffffffffff021916908373ffffffffffffffffffffffffffffffffffffffff160217905550610b65565b60035f9054906101000a900473ffffffffffffffffffffffffffffffffffffffff1660055f6101000a81548173ffffffffffffffffffffffffffffffffffffffff021916908373ffffffffffffffffffffffffffffffffffffffff1602179055505b565b5f73ffffffffffffffffffffffffffffffffffffffff82169050919050565b5f610b9082610b67565b9050919050565b610ba081610b86565b82525050565b5f602082019050610bb95f830184610b97565b92915050565b5f8115159050919050565b610bd381610bbf565b82525050565b5f602082019050610bec5f830184610bca565b92915050565b5f610bfc82610b67565b9050919050565b610c0c81610bf2565b82525050565b5f602082019050610c255f830184610c03565b92915050565b5f5ffd5b5f60ff82169050919050565b610c4481610c2f565b8114610c4e575f5ffd5b50565b5f81359050610c5f81610c3b565b92915050565b5f5f60408385031215610c7b57610c7a610c2b565b5b5f610c8885828601610c51565b9250506020610c9985828601610c51565b9150509250929050565b5f819050919050565b610cb581610ca3565b8114610cbf575f5ffd5b50565b5f81359050610cd081610cac565b92915050565b5f5f60408385031215610cec57610ceb610c2b565b5b5f610cf985828601610cc2565b9250506020610d0a85828601610cc2565b9150509250929050565b610d1d81610c2f565b82525050565b5f602082019050610d365f830184610d14565b92915050565b5f82825260208201905092915050565b7f5468652067616d65206973206f7665722e0000000000000000000000000000005f82015250565b5f610d80601183610d3c565b9150610d8b82610d4c565b602082019050919050565b5f6020820190508181035f830152610dad81610d74565b9050919050565b7f49742773206e6f7420796f7572207475726e2e000000000000000000000000005f82015250565b5f610de8601383610d3c565b9150610df382610db4565b602082019050919050565b5f6020820190508181035f830152610e1581610ddc565b9050919050565b7f496e76616c696420726f77206f7220636f6c756d6e20706c6163656d656e74005f82015250565b5f610e50601f83610d3c565b9150610e5b82610e1c565b602082019050919050565b5f6020820190508181035f830152610e7d81610e44565b9050919050565b7f4e487b71000000000000000000000000000000000000000000000000000000005f52603260045260245ffd5b7f43656c6c20697320616c72656164792074616b656e2e000000000000000000005f82015250565b5f610ee5601683610d3c565b9150610ef082610eb1565b602082019050919050565b5f6020820190508181035f830152610f1281610ed9565b9050919050565b7f4e487b71000000000000000000000000000000000000000000000000000000005f52601160045260245ffd5b5f610f5082610c2f565b915060ff8203610f6357610f62610f19565b5b60018201905091905056fea264697066735822122019b2a2c9d8968f162959447afb194d4afe49f3d519a7bb633edafaa3fa189e4d64736f6c634300081e0033",
					"opcodes": "PUSH1 0x80 PUSH1 0x40 MSTORE CALLVALUE DUP1 ISZERO PUSH2 0xF JUMPI PUSH0 PUSH0 REVERT JUMPDEST POP PUSH1 0x40 MLOAD PUSH2 0x1299 CODESIZE SUB DUP1 PUSH2 0x1299 DUP4 CODECOPY DUP2 DUP2 ADD PUSH1 0x40 MSTORE DUP2 ADD SWAP1 PUSH2 0x31 SWAP2 SWAP1 PUSH2 0x21F JUMP JUMPDEST CALLER PUSH1 0x3 PUSH0 PUSH2 0x100 EXP DUP2 SLOAD DUP2 PUSH20 0xFFFFFFFFFFFFFFFFFFFFFFFFFFFFFFFFFFFFFFFF MUL NOT AND SWAP1 DUP4 PUSH20 0xFFFFFFFFFFFFFFFFFFFFFFFFFFFFFFFFFFFFFFFF AND MUL OR SWAP1 SSTORE POP DUP1 PUSH20 0xFFFFFFFFFFFFFFFFFFFFFFFFFFFFFFFFFFFFFFFF AND PUSH1 0x3 PUSH0 SWAP1 SLOAD SWAP1 PUSH2 0x100 EXP SWAP1 DIV PUSH20 0xFFFFFFFFFFFFFFFFFFFFFFFFFFFFFFFFFFFFFFFF AND PUSH20 0xFFFFFFFFFFFFFFFFFFFFFFFFFFFFFFFFFFFFFFFF AND SUB PUSH2 0x100 JUMPI PUSH1 0x40 MLOAD PUSH32 0x8C379A000000000000000000000000000000000000000000000000000000000 DUP2 MSTORE PUSH1 0x4 ADD PUSH2 0xF7 SWAP1 PUSH2 0x2CA JUMP JUMPDEST PUSH1 0x40 MLOAD DUP1 SWAP2 SUB SWAP1 REVERT JUMPDEST DUP1 PUSH1 0x4 PUSH0 PUSH2 0x100 EXP DUP2 SLOAD DUP2 PUSH20 0xFFFFFFFFFFFFFFFFFFFFFFFFFFFFFFFFFFFFFFFF MUL NOT AND SWAP1 DUP4 PUSH20 0xFFFFFFFFFFFFFFFFFFFFFFFFFFFFFFFFFFFFFFFF AND MUL OR SWAP1 SSTORE POP PUSH1 0x3 PUSH0 SWAP1 SLOAD SWAP1 PUSH2 0x100 EXP SWAP1 DIV PUSH20 0xFFFFFFFFFFFFFFFFFFFFFFFFFFFFFFFFFFFFFFFF AND PUSH1 0x5 PUSH0 PUSH2 0x100 EXP DUP2 SLOAD DUP2 PUSH20 0xFFFFFFFFFFFFFFFFFFFFFFFFFFFFFFFFFFFFFFFF MUL NOT AND SWAP1 DUP4 PUSH20 0xFFFFFFFFFFFFFFFFFFFFFFFFFFFFFFFFFFFFFFFF AND MUL OR SWAP1 SSTORE POP PUSH0 PUSH1 0x5 PUSH1 0x14 PUSH2 0x100 EXP DUP2 SLOAD DUP2 PUSH1 0xFF MUL NOT AND SWAP1 DUP4 ISZERO ISZERO MUL OR SWAP1 SSTORE POP POP PUSH2 0x2E8 JUMP JUMPDEST PUSH0 PUSH0 REVERT JUMPDEST PUSH0 PUSH20 0xFFFFFFFFFFFFFFFFFFFFFFFFFFFFFFFFFFFFFFFF DUP3 AND SWAP1 POP SWAP2 SWAP1 POP JUMP JUMPDEST PUSH0 PUSH2 0x1EE DUP3 PUSH2 0x1C5 JUMP JUMPDEST SWAP1 POP SWAP2 SWAP1 POP JUMP JUMPDEST PUSH2 0x1FE DUP2 PUSH2 0x1E4 JUMP JUMPDEST DUP2 EQ PUSH2 0x208 JUMPI PUSH0 PUSH0 REVERT JUMPDEST POP JUMP JUMPDEST PUSH0 DUP2 MLOAD SWAP1 POP PUSH2 0x219 DUP2 PUSH2 0x1F5 JUMP JUMPDEST SWAP3 SWAP2 POP POP JUMP JUMPDEST PUSH0 PUSH1 0x20 DUP3 DUP5 SUB SLT ISZERO PUSH2 0x234 JUMPI PUSH2 0x233 PUSH2 0x1C1 JUMP JUMPDEST JUMPDEST PUSH0 PUSH2 0x241 DUP5 DUP3 DUP6 ADD PUSH2 0x20B JUMP JUMPDEST SWAP2 POP POP SWAP3 SWAP2 POP POP JUMP JUMPDEST PUSH0 DUP3 DUP3 MSTORE PUSH1 0x20 DUP3 ADD SWAP1 POP SWAP3 SWAP2 POP POP JUMP JUMPDEST PUSH32 0x506C61796572204F206D757374206265206120646966666572656E7420616464 PUSH0 DUP3 ADD MSTORE PUSH32 0x726573732E000000000000000000000000000000000000000000000000000000 PUSH1 0x20 DUP3 ADD MSTORE POP JUMP JUMPDEST PUSH0 PUSH2 0x2B4 PUSH1 0x25 DUP4 PUSH2 0x24A JUMP JUMPDEST SWAP2 POP PUSH2 0x2BF DUP3 PUSH2 0x25A JUMP JUMPDEST PUSH1 0x40 DUP3 ADD SWAP1 POP SWAP2 SWAP1 POP JUMP JUMPDEST PUSH0 PUSH1 0x20 DUP3 ADD SWAP1 POP DUP2 DUP2 SUB PUSH0 DUP4 ADD MSTORE PUSH2 0x2E1 DUP2 PUSH2 0x2A8 JUMP JUMPDEST SWAP1 POP SWAP2 SWAP1 POP JUMP JUMPDEST PUSH2 0xFA4 DUP1 PUSH2 0x2F5 PUSH0 CODECOPY PUSH0 RETURN INVALID PUSH1 0x80 PUSH1 0x40 MSTORE CALLVALUE DUP1 ISZERO PUSH2 0xF JUMPI PUSH0 PUSH0 REVERT JUMPDEST POP PUSH1 0x4 CALLDATASIZE LT PUSH2 0x60 JUMPI PUSH0 CALLDATALOAD PUSH1 0xE0 SHR DUP1 PUSH4 0x4A93605 EQ PUSH2 0x64 JUMPI DUP1 PUSH4 0xE04A7D8 EQ PUSH2 0x82 JUMPI DUP1 PUSH4 0x4CDEA7D2 EQ PUSH2 0xA0 JUMPI DUP1 PUSH4 0x5E24B0F1 EQ PUSH2 0xBE JUMPI DUP1 PUSH4 0x8086A92A EQ PUSH2 0xDA JUMPI DUP1 PUSH4 0xE7DAFA6E EQ PUSH2 0x10A JUMPI JUMPDEST PUSH0 PUSH0 REVERT JUMPDEST PUSH2 0x6C PUSH2 0x128 JUMP JUMPDEST PUSH1 0x40 MLOAD PUSH2 0x79 SWAP2 SWAP1 PUSH2 0xBA6 JUMP JUMPDEST PUSH1 0x40 MLOAD DUP1 SWAP2 SUB SWAP1 RETURN JUMPDEST PUSH2 0x8A PUSH2 0x14D JUMP JUMPDEST PUSH1 0x40 MLOAD PUSH2 0x97 SWAP2 SWAP1 PUSH2 0xBD9 JUMP JUMPDEST PUSH1 0x40 MLOAD DUP1 SWAP2 SUB SWAP1 RETURN JUMPDEST PUSH2 0xA8 PUSH2 0x160 JUMP JUMPDEST PUSH1 0x40 MLOAD PUSH2 0xB5 SWAP2 SWAP1 PUSH2 0xC12 JUMP JUMPDEST PUSH1 0x40 MLOAD DUP1 SWAP2 SUB SWAP1 RETURN JUMPDEST PUSH2 0xD8 PUSH1 0x4 DUP1 CALLDATASIZE SUB DUP2 ADD SWAP1 PUSH2 0xD3 SWAP2 SWAP1 PUSH2 0xC65 JUMP JUMPDEST PUSH2 0x185 JUMP JUMPDEST STOP JUMPDEST PUSH2 0xF4 PUSH1 0x4 DUP1 CALLDATASIZE SUB DUP2 ADD SWAP1 PUSH2 0xEF SWAP2 SWAP1 PUSH2 0xCD6 JUMP JUMPDEST PUSH2 0x45E JUMP JUMPDEST PUSH1 0x40 MLOAD PUSH2 0x101 SWAP2 SWAP1 PUSH2 0xD23 JUMP JUMPDEST PUSH1 0x40 MLOAD DUP1 SWAP2 SUB SWAP1 RETURN JUMPDEST PUSH2 0x112 PUSH2 0x497 JUMP JUMPDEST PUSH1 0x40 MLOAD PUSH2 0x11F SWAP2 SWAP1 PUSH2 0xC12 JUMP JUMPDEST PUSH1 0x40 MLOAD DUP1 SWAP2 SUB SWAP1 RETURN JUMPDEST PUSH1 0x5 PUSH0 SWAP1 SLOAD SWAP1 PUSH2 0x100 EXP SWAP1 DIV PUSH20 0xFFFFFFFFFFFFFFFFFFFFFFFFFFFFFFFFFFFFFFFF AND DUP2 JUMP JUMPDEST PUSH1 0x5 PUSH1 0x14 SWAP1 SLOAD SWAP1 PUSH2 0x100 EXP SWAP1 DIV PUSH1 0xFF AND DUP2 JUMP JUMPDEST PUSH1 0x3 PUSH0 SWAP1 SLOAD SWAP1 PUSH2 0x100 EXP SWAP1 DIV PUSH20 0xFFFFFFFFFFFFFFFFFFFFFFFFFFFFFFFFFFFFFFFF AND DUP2 JUMP JUMPDEST PUSH1 0x5 PUSH1 0x14 SWAP1 SLOAD SWAP1 PUSH2 0x100 EXP SWAP1 DIV PUSH1 0xFF AND ISZERO PUSH2 0x1D5 JUMPI PUSH1 0x40 MLOAD PUSH32 0x8C379A000000000000000000000000000000000000000000000000000000000 DUP2 MSTORE PUSH1 0x4 ADD PUSH2 0x1CC SWAP1 PUSH2 0xD96 JUMP JUMPDEST PUSH1 0x40 MLOAD DUP1 SWAP2 SUB SWAP1 REVERT JUMPDEST PUSH1 0x5 PUSH0 SWAP1 SLOAD SWAP1 PUSH2 0x100 EXP SWAP1 DIV PUSH20 0xFFFFFFFFFFFFFFFFFFFFFFFFFFFFFFFFFFFFFFFF AND PUSH20 0xFFFFFFFFFFFFFFFFFFFFFFFFFFFFFFFFFFFFFFFF AND CALLER PUSH20 0xFFFFFFFFFFFFFFFFFFFFFFFFFFFFFFFFFFFFFFFF AND EQ PUSH2 0x264 JUMPI PUSH1 0x40 MLOAD PUSH32 0x8C379A000000000000000000000000000000000000000000000000000000000 DUP2 MSTORE PUSH1 0x4 ADD PUSH2 0x25B SWAP1 PUSH2 0xDFE JUMP JUMPDEST PUSH1 0x40 MLOAD DUP1 SWAP2 SUB SWAP1 REVERT JUMPDEST PUSH1 0x3 DUP3 PUSH1 0xFF AND LT DUP1 ISZERO PUSH2 0x27A JUMPI POP PUSH1 0x3 DUP2 PUSH1 0xFF AND LT JUMPDEST PUSH2 0x2B9 JUMPI PUSH1 0x40 MLOAD PUSH32 0x8C379A000000000000000000000000000000000000000000000000000000000 DUP2 MSTORE PUSH1 0x4 ADD PUSH2 0x2B0 SWAP1 PUSH2 0xE66 JUMP JUMPDEST PUSH1 0x40 MLOAD DUP1 SWAP2 SUB SWAP1 REVERT JUMPDEST PUSH0 PUSH0 DUP4 PUSH1 0xFF AND PUSH1 0x3 DUP2 LT PUSH2 0x2D0 JUMPI PUSH2 0x2CF PUSH2 0xE84 JUMP JUMPDEST JUMPDEST ADD DUP3 PUSH1 0xFF AND PUSH1 0x3 DUP2 LT PUSH2 0x2E6 JUMPI PUSH2 0x2E5 PUSH2 0xE84 JUMP JUMPDEST JUMPDEST PUSH1 0x20 SWAP2 DUP3 DUP3 DIV ADD SWAP2 SWAP1 MOD SWAP1 SLOAD SWAP1 PUSH2 0x100 EXP SWAP1 DIV PUSH1 0xFF AND PUSH1 0xFF AND EQ PUSH2 0x33F JUMPI PUSH1 0x40 MLOAD PUSH32 0x8C379A000000000000000000000000000000000000000000000000000000000 DUP2 MSTORE PUSH1 0x4 ADD PUSH2 0x336 SWAP1 PUSH2 0xEFB JUMP JUMPDEST PUSH1 0x40 MLOAD DUP1 SWAP2 SUB SWAP1 REVERT JUMPDEST PUSH1 0x3 PUSH0 SWAP1 SLOAD SWAP1 PUSH2 0x100 EXP SWAP1 DIV PUSH20 0xFFFFFFFFFFFFFFFFFFFFFFFFFFFFFFFFFFFFFFFF AND PUSH20 0xFFFFFFFFFFFFFFFFFFFFFFFFFFFFFFFFFFFFFFFF AND CALLER PUSH20 0xFFFFFFFFFFFFFFFFFFFFFFFFFFFFFFFFFFFFFFFF AND SUB PUSH2 0x3E6 JUMPI PUSH1 0x1 PUSH0 DUP4 PUSH1 0xFF AND PUSH1 0x3 DUP2 LT PUSH2 0x3AB JUMPI PUSH2 0x3AA PUSH2 0xE84 JUMP JUMPDEST JUMPDEST ADD DUP3 PUSH1 0xFF AND PUSH1 0x3 DUP2 LT PUSH2 0x3C1 JUMPI PUSH2 0x3C0 PUSH2 0xE84 JUMP JUMPDEST JUMPDEST PUSH1 0x20 SWAP2 DUP3 DUP3 DIV ADD SWAP2 SWAP1 MOD PUSH2 0x100 EXP DUP2 SLOAD DUP2 PUSH1 0xFF MUL NOT AND SWAP1 DUP4 PUSH1 0xFF AND MUL OR SWAP1 SSTORE POP PUSH2 0x435 JUMP JUMPDEST PUSH1 0x2 PUSH0 DUP4 PUSH1 0xFF AND PUSH1 0x3 DUP2 LT PUSH2 0x3FE JUMPI PUSH2 0x3FD PUSH2 0xE84 JUMP JUMPDEST JUMPDEST ADD DUP3 PUSH1 0xFF AND PUSH1 0x3 DUP2 LT PUSH2 0x414 JUMPI PUSH2 0x413 PUSH2 0xE84 JUMP JUMPDEST JUMPDEST PUSH1 0x20 SWAP2 DUP3 DUP3 DIV ADD SWAP2 SWAP1 MOD PUSH2 0x100 EXP DUP2 SLOAD DUP2 PUSH1 0xFF MUL NOT AND SWAP1 DUP4 PUSH1 0xFF AND MUL OR SWAP1 SSTORE POP JUMPDEST PUSH2 0x43D PUSH2 0x4BC JUMP JUMPDEST PUSH1 0x5 PUSH1 0x14 SWAP1 SLOAD SWAP1 PUSH2 0x100 EXP SWAP1 DIV PUSH1 0xFF AND PUSH2 0x45A JUMPI PUSH2 0x459 PUSH2 0xA28 JUMP JUMPDEST JUMPDEST POP POP JUMP JUMPDEST PUSH0 DUP3 PUSH1 0x3 DUP2 LT PUSH2 0x46C JUMPI PUSH0 DUP1 REVERT JUMPDEST ADD DUP2 PUSH1 0x3 DUP2 LT PUSH2 0x47A JUMPI PUSH0 DUP1 REVERT JUMPDEST PUSH1 0x20 SWAP2 DUP3 DUP3 DIV ADD SWAP2 SWAP1 MOD SWAP2 POP SWAP2 POP SWAP1 SLOAD SWAP1 PUSH2 0x100 EXP SWAP1 DIV PUSH1 0xFF AND DUP2 JUMP JUMPDEST PUSH1 0x4 PUSH0 SWAP1 SLOAD SWAP1 PUSH2 0x100 EXP SWAP1 DIV PUSH20 0xFFFFFFFFFFFFFFFFFFFFFFFFFFFFFFFFFFFFFFFF AND DUP2 JUMP JUMPDEST PUSH0 PUSH1 0x3 PUSH0 SWAP1 SLOAD SWAP1 PUSH2 0x100 EXP SWAP1 DIV PUSH20 0xFFFFFFFFFFFFFFFFFFFFFFFFFFFFFFFFFFFFFFFF AND PUSH20 0xFFFFFFFFFFFFFFFFFFFFFFFFFFFFFFFFFFFFFFFF AND CALLER PUSH20 0xFFFFFFFFFFFFFFFFFFFFFFFFFFFFFFFFFFFFFFFF AND SUB PUSH2 0x51A JUMPI PUSH1 0x1 SWAP1 POP PUSH2 0x51F JUMP JUMPDEST PUSH1 0x2 SWAP1 POP JUMPDEST PUSH0 PUSH0 SWAP1 POP JUMPDEST PUSH1 0x3 DUP2 PUSH1 0xFF AND LT ISZERO PUSH2 0x759 JUMPI DUP2 PUSH1 0xFF AND PUSH0 DUP3 PUSH1 0xFF AND PUSH1 0x3 DUP2 LT PUSH2 0x54A JUMPI PUSH2 0x549 PUSH2 0xE84 JUMP JUMPDEST JUMPDEST ADD PUSH0 PUSH1 0x3 DUP2 LT PUSH2 0x55D JUMPI PUSH2 0x55C PUSH2 0xE84 JUMP JUMPDEST JUMPDEST PUSH1 0x20 SWAP2 DUP3 DUP3 DIV ADD SWAP2 SWAP1 MOD SWAP1 SLOAD SWAP1 PUSH2 0x100 EXP SWAP1 DIV PUSH1 0xFF AND PUSH1 0xFF AND EQ DUP1 ISZERO PUSH2 0x5C7 JUMPI POP DUP2 PUSH1 0xFF AND PUSH0 DUP3 PUSH1 0xFF AND PUSH1 0x3 DUP2 LT PUSH2 0x598 JUMPI PUSH2 0x597 PUSH2 0xE84 JUMP JUMPDEST JUMPDEST ADD PUSH1 0x1 PUSH1 0x3 DUP2 LT PUSH2 0x5AC JUMPI PUSH2 0x5AB PUSH2 0xE84 JUMP JUMPDEST JUMPDEST PUSH1 0x20 SWAP2 DUP3 DUP3 DIV ADD SWAP2 SWAP1 MOD SWAP1 SLOAD SWAP1 PUSH2 0x100 EXP SWAP1 DIV PUSH1 0xFF AND PUSH1 0xFF AND EQ JUMPDEST DUP1 ISZERO PUSH2 0x617 JUMPI POP DUP2 PUSH1 0xFF AND PUSH0 DUP3 PUSH1 0xFF AND PUSH1 0x3 DUP2 LT PUSH2 0x5E8 JUMPI PUSH2 0x5E7 PUSH2 0xE84 JUMP JUMPDEST JUMPDEST ADD PUSH1 0x2 PUSH1 0x3 DUP2 LT PUSH2 0x5FC JUMPI PUSH2 0x5FB PUSH2 0xE84 JUMP JUMPDEST JUMPDEST PUSH1 0x20 SWAP2 DUP3 DUP3 DIV ADD SWAP2 SWAP1 MOD SWAP1 SLOAD SWAP1 PUSH2 0x100 EXP SWAP1 DIV PUSH1 0xFF AND PUSH1 0xFF AND EQ JUMPDEST ISZERO PUSH2 0x63E JUMPI PUSH1 0x1 PUSH1 0x5 PUSH1 0x14 PUSH2 0x100 EXP DUP2 SLOAD DUP2 PUSH1 0xFF MUL NOT AND SWAP1 DUP4 ISZERO ISZERO MUL OR SWAP1 SSTORE POP POP POP PUSH2 0xA26 JUMP JUMPDEST DUP2 PUSH1 0xFF AND PUSH0 PUSH0 PUSH1 0x3 DUP2 LT PUSH2 0x655 JUMPI PUSH2 0x654 PUSH2 0xE84 JUMP JUMPDEST JUMPDEST ADD DUP3 PUSH1 0xFF AND PUSH1 0x3 DUP2 LT PUSH2 0x66B JUMPI PUSH2 0x66A PUSH2 0xE84 JUMP JUMPDEST JUMPDEST PUSH1 0x20 SWAP2 DUP3 DUP3 DIV ADD SWAP2 SWAP1 MOD SWAP1 SLOAD SWAP1 PUSH2 0x100 EXP SWAP1 DIV PUSH1 0xFF AND PUSH1 0xFF AND EQ DUP1 ISZERO PUSH2 0x6D5 JUMPI POP DUP2 PUSH1 0xFF AND PUSH0 PUSH1 0x1 PUSH1 0x3 DUP2 LT PUSH2 0x6A4 JUMPI PUSH2 0x6A3 PUSH2 0xE84 JUMP JUMPDEST JUMPDEST ADD DUP3 PUSH1 0xFF AND PUSH1 0x3 DUP2 LT PUSH2 0x6BA JUMPI PUSH2 0x6B9 PUSH2 0xE84 JUMP JUMPDEST JUMPDEST PUSH1 0x20 SWAP2 DUP3 DUP3 DIV ADD SWAP2 SWAP1 MOD SWAP1 SLOAD SWAP1 PUSH2 0x100 EXP SWAP1 DIV PUSH1 0xFF AND PUSH1 0xFF AND EQ JUMPDEST DUP1 ISZERO PUSH2 0x725 JUMPI POP DUP2 PUSH1 0xFF AND PUSH0 PUSH1 0x2 PUSH1 0x3 DUP2 LT PUSH2 0x6F4 JUMPI PUSH2 0x6F3 PUSH2 0xE84 JUMP JUMPDEST JUMPDEST ADD DUP3 PUSH1 0xFF AND PUSH1 0x3 DUP2 LT PUSH2 0x70A JUMPI PUSH2 0x709 PUSH2 0xE84 JUMP JUMPDEST JUMPDEST PUSH1 0x20 SWAP2 DUP3 DUP3 DIV ADD SWAP2 SWAP1 MOD SWAP1 SLOAD SWAP1 PUSH2 0x100 EXP SWAP1 DIV PUSH1 0xFF AND PUSH1 0xFF AND EQ JUMPDEST ISZERO PUSH2 0x74C JUMPI PUSH1 0x1 PUSH1 0x5 PUSH1 0x14 PUSH2 0x100 EXP DUP2 SLOAD DUP2 PUSH1 0xFF MUL NOT AND SWAP1 DUP4 ISZERO ISZERO MUL OR SWAP1 SSTORE POP POP POP PUSH2 0xA26 JUMP JUMPDEST DUP1 DUP1 PUSH1 0x1 ADD SWAP2 POP POP PUSH2 0x524 JUMP JUMPDEST POP DUP1 PUSH1 0xFF AND PUSH0 PUSH0 PUSH1 0x3 DUP2 LT PUSH2 0x771 JUMPI PUSH2 0x770 PUSH2 0xE84 JUMP JUMPDEST JUMPDEST ADD PUSH0 PUSH1 0x3 DUP2 LT PUSH2 0x784 JUMPI PUSH2 0x783 PUSH2 0xE84 JUMP JUMPDEST JUMPDEST PUSH1 0x20 SWAP2 DUP3 DUP3 DIV ADD SWAP2 SWAP1 MOD SWAP1 SLOAD SWAP1 PUSH2 0x100 EXP SWAP1 DIV PUSH1 0xFF AND PUSH1 0xFF AND EQ DUP1 ISZERO PUSH2 0x7EC JUMPI POP DUP1 PUSH1 0xFF AND PUSH0 PUSH1 0x1 PUSH1 0x3 DUP2 LT PUSH2 0x7BD JUMPI PUSH2 0x7BC PUSH2 0xE84 JUMP JUMPDEST JUMPDEST ADD PUSH1 0x1 PUSH1 0x3 DUP2 LT PUSH2 0x7D1 JUMPI PUSH2 0x7D0 PUSH2 0xE84 JUMP JUMPDEST JUMPDEST PUSH1 0x20 SWAP2 DUP3 DUP3 DIV ADD SWAP2 SWAP1 MOD SWAP1 SLOAD SWAP1 PUSH2 0x100 EXP SWAP1 DIV PUSH1 0xFF AND PUSH1 0xFF AND EQ JUMPDEST DUP1 ISZERO PUSH2 0x83A JUMPI POP DUP1 PUSH1 0xFF AND PUSH0 PUSH1 0x2 PUSH1 0x3 DUP2 LT PUSH2 0x80B JUMPI PUSH2 0x80A PUSH2 0xE84 JUMP JUMPDEST JUMPDEST ADD PUSH1 0x2 PUSH1 0x3 DUP2 LT PUSH2 0x81F JUMPI PUSH2 0x81E PUSH2 0xE84 JUMP JUMPDEST JUMPDEST PUSH1 0x20 SWAP2 DUP3 DUP3 DIV ADD SWAP2 SWAP1 MOD SWAP1 SLOAD SWAP1 PUSH2 0x100 EXP SWAP1 DIV PUSH1 0xFF AND PUSH1 0xFF AND EQ JUMPDEST ISZERO PUSH2 0x860 JUMPI PUSH1 0x1 PUSH1 0x5 PUSH1 0x14 PUSH2 0x100 EXP DUP2 SLOAD DUP2 PUSH1 0xFF MUL NOT AND SWAP1 DUP4 ISZERO ISZERO MUL OR SWAP1 SSTORE POP POP PUSH2 0xA26 JUMP JUMPDEST DUP1 PUSH1 0xFF AND PUSH0 PUSH0 PUSH1 0x3 DUP2 LT PUSH2 0x877 JUMPI PUSH2 0x876 PUSH2 0xE84 JUMP JUMPDEST JUMPDEST ADD PUSH1 0x2 PUSH1 0x3 DUP2 LT PUSH2 0x88B JUMPI PUSH2 0x88A PUSH2 0xE84 JUMP JUMPDEST JUMPDEST PUSH1 0x20 SWAP2 DUP3 DUP3 DIV ADD SWAP2 SWAP1 MOD SWAP1 SLOAD SWAP1 PUSH2 0x100 EXP SWAP1 DIV PUSH1 0xFF AND PUSH1 0xFF AND EQ DUP1 ISZERO PUSH2 0x8F3 JUMPI POP DUP1 PUSH1 0xFF AND PUSH0 PUSH1 0x1 PUSH1 0x3 DUP2 LT PUSH2 0x8C4 JUMPI PUSH2 0x8C3 PUSH2 0xE84 JUMP JUMPDEST JUMPDEST ADD PUSH1 0x1 PUSH1 0x3 DUP2 LT PUSH2 0x8D8 JUMPI PUSH2 0x8D7 PUSH2 0xE84 JUMP JUMPDEST JUMPDEST PUSH1 0x20 SWAP2 DUP3 DUP3 DIV ADD SWAP2 SWAP1 MOD SWAP1 SLOAD SWAP1 PUSH2 0x100 EXP SWAP1 DIV PUSH1 0xFF AND PUSH1 0xFF AND EQ JUMPDEST DUP1 ISZERO PUSH2 0x940 JUMPI POP DUP1 PUSH1 0xFF AND PUSH0 PUSH1 0x2 PUSH1 0x3 DUP2 LT PUSH2 0x912 JUMPI PUSH2 0x911 PUSH2 0xE84 JUMP JUMPDEST JUMPDEST ADD PUSH0 PUSH1 0x3 DUP2 LT PUSH2 0x925 JUMPI PUSH2 0x924 PUSH2 0xE84 JUMP JUMPDEST JUMPDEST PUSH1 0x20 SWAP2 DUP3 DUP3 DIV ADD SWAP2 SWAP1 MOD SWAP1 SLOAD SWAP1 PUSH2 0x100 EXP SWAP1 DIV PUSH1 0xFF AND PUSH1 0xFF AND EQ JUMPDEST ISZERO PUSH2 0x966 JUMPI PUSH1 0x1 PUSH1 0x5 PUSH1 0x14 PUSH2 0x100 EXP DUP2 SLOAD DUP2 PUSH1 0xFF MUL NOT AND SWAP1 DUP4 ISZERO ISZERO MUL OR SWAP1 SSTORE POP POP PUSH2 0xA26 JUMP JUMPDEST PUSH0 PUSH0 SWAP1 POP PUSH0 PUSH0 SWAP1 POP JUMPDEST PUSH1 0x3 DUP2 LT ISZERO PUSH2 0x9FB JUMPI PUSH0 PUSH0 SWAP1 POP JUMPDEST PUSH1 0x3 DUP2 PUSH1 0xFF AND LT ISZERO PUSH2 0x9ED JUMPI PUSH0 PUSH0 DUP4 PUSH1 0x3 DUP2 LT PUSH2 0x99D JUMPI PUSH2 0x99C PUSH2 0xE84 JUMP JUMPDEST JUMPDEST ADD DUP3 PUSH1 0xFF AND PUSH1 0x3 DUP2 LT PUSH2 0x9B3 JUMPI PUSH2 0x9B2 PUSH2 0xE84 JUMP JUMPDEST JUMPDEST PUSH1 0x20 SWAP2 DUP3 DUP3 DIV ADD SWAP2 SWAP1 MOD SWAP1 SLOAD SWAP1 PUSH2 0x100 EXP SWAP1 DIV PUSH1 0xFF AND PUSH1 0xFF AND EQ PUSH2 0x9E0 JUMPI DUP3 DUP1 PUSH2 0x9DC SWAP1 PUSH2 0xF46 JUMP JUMPDEST SWAP4 POP POP JUMPDEST DUP1 DUP1 PUSH1 0x1 ADD SWAP2 POP POP PUSH2 0x97D JUMP JUMPDEST POP DUP1 DUP1 PUSH1 0x1 ADD SWAP2 POP POP PUSH2 0x96F JUMP JUMPDEST POP PUSH1 0x9 DUP2 PUSH1 0xFF AND SUB PUSH2 0xA23 JUMPI PUSH1 0x1 PUSH1 0x5 PUSH1 0x14 PUSH2 0x100 EXP DUP2 SLOAD DUP2 PUSH1 0xFF MUL NOT AND SWAP1 DUP4 ISZERO ISZERO MUL OR SWAP1 SSTORE POP JUMPDEST POP POP JUMPDEST JUMP JUMPDEST PUSH1 0x3 PUSH0 SWAP1 SLOAD SWAP1 PUSH2 0x100 EXP SWAP1 DIV PUSH20 0xFFFFFFFFFFFFFFFFFFFFFFFFFFFFFFFFFFFFFFFF AND PUSH20 0xFFFFFFFFFFFFFFFFFFFFFFFFFFFFFFFFFFFFFFFF AND PUSH1 0x5 PUSH0 SWAP1 SLOAD SWAP1 PUSH2 0x100 EXP SWAP1 DIV PUSH20 0xFFFFFFFFFFFFFFFFFFFFFFFFFFFFFFFFFFFFFFFF AND PUSH20 0xFFFFFFFFFFFFFFFFFFFFFFFFFFFFFFFFFFFFFFFF AND SUB PUSH2 0xB03 JUMPI PUSH1 0x4 PUSH0 SWAP1 SLOAD SWAP1 PUSH2 0x100 EXP SWAP1 DIV PUSH20 0xFFFFFFFFFFFFFFFFFFFFFFFFFFFFFFFFFFFFFFFF AND PUSH1 0x5 PUSH0 PUSH2 0x100 EXP DUP2 SLOAD DUP2 PUSH20 0xFFFFFFFFFFFFFFFFFFFFFFFFFFFFFFFFFFFFFFFF MUL NOT AND SWAP1 DUP4 PUSH20 0xFFFFFFFFFFFFFFFFFFFFFFFFFFFFFFFFFFFFFFFF AND MUL OR SWAP1 SSTORE POP PUSH2 0xB65 JUMP JUMPDEST PUSH1 0x3 PUSH0 SWAP1 SLOAD SWAP1 PUSH2 0x100 EXP SWAP1 DIV PUSH20 0xFFFFFFFFFFFFFFFFFFFFFFFFFFFFFFFFFFFFFFFF AND PUSH1 0x5 PUSH0 PUSH2 0x100 EXP DUP2 SLOAD DUP2 PUSH20 0xFFFFFFFFFFFFFFFFFFFFFFFFFFFFFFFFFFFFFFFF MUL NOT AND SWAP1 DUP4 PUSH20 0xFFFFFFFFFFFFFFFFFFFFFFFFFFFFFFFFFFFFFFFF AND MUL OR SWAP1 SSTORE POP JUMPDEST JUMP JUMPDEST PUSH0 PUSH20 0xFFFFFFFFFFFFFFFFFFFFFFFFFFFFFFFFFFFFFFFF DUP3 AND SWAP1 POP SWAP2 SWAP1 POP JUMP JUMPDEST PUSH0 PUSH2 0xB90 DUP3 PUSH2 0xB67 JUMP JUMPDEST SWAP1 POP SWAP2 SWAP1 POP JUMP JUMPDEST PUSH2 0xBA0 DUP2 PUSH2 0xB86 JUMP JUMPDEST DUP3 MSTORE POP POP JUMP JUMPDEST PUSH0 PUSH1 0x20 DUP3 ADD SWAP1 POP PUSH2 0xBB9 PUSH0 DUP4 ADD DUP5 PUSH2 0xB97 JUMP JUMPDEST SWAP3 SWAP2 POP POP JUMP JUMPDEST PUSH0 DUP2 ISZERO ISZERO SWAP1 POP SWAP2 SWAP1 POP JUMP JUMPDEST PUSH2 0xBD3 DUP2 PUSH2 0xBBF JUMP JUMPDEST DUP3 MSTORE POP POP JUMP JUMPDEST PUSH0 PUSH1 0x20 DUP3 ADD SWAP1 POP PUSH2 0xBEC PUSH0 DUP4 ADD DUP5 PUSH2 0xBCA JUMP JUMPDEST SWAP3 SWAP2 POP POP JUMP JUMPDEST PUSH0 PUSH2 0xBFC DUP3 PUSH2 0xB67 JUMP JUMPDEST SWAP1 POP SWAP2 SWAP1 POP JUMP JUMPDEST PUSH2 0xC0C DUP2 PUSH2 0xBF2 JUMP JUMPDEST DUP3 MSTORE POP POP JUMP JUMPDEST PUSH0 PUSH1 0x20 DUP3 ADD SWAP1 POP PUSH2 0xC25 PUSH0 DUP4 ADD DUP5 PUSH2 0xC03 JUMP JUMPDEST SWAP3 SWAP2 POP POP JUMP JUMPDEST PUSH0 PUSH0 REVERT JUMPDEST PUSH0 PUSH1 0xFF DUP3 AND SWAP1 POP SWAP2 SWAP1 POP JUMP JUMPDEST PUSH2 0xC44 DUP2 PUSH2 0xC2F JUMP JUMPDEST DUP2 EQ PUSH2 0xC4E JUMPI PUSH0 PUSH0 REVERT JUMPDEST POP JUMP JUMPDEST PUSH0 DUP2 CALLDATALOAD SWAP1 POP PUSH2 0xC5F DUP2 PUSH2 0xC3B JUMP JUMPDEST SWAP3 SWAP2 POP POP JUMP JUMPDEST PUSH0 PUSH0 PUSH1 0x40 DUP4 DUP6 SUB SLT ISZERO PUSH2 0xC7B JUMPI PUSH2 0xC7A PUSH2 0xC2B JUMP JUMPDEST JUMPDEST PUSH0 PUSH2 0xC88 DUP6 DUP3 DUP7 ADD PUSH2 0xC51 JUMP JUMPDEST SWAP3 POP POP PUSH1 0x20 PUSH2 0xC99 DUP6 DUP3 DUP7 ADD PUSH2 0xC51 JUMP JUMPDEST SWAP2 POP POP SWAP3 POP SWAP3 SWAP1 POP JUMP JUMPDEST PUSH0 DUP2 SWAP1 POP SWAP2 SWAP1 POP JUMP JUMPDEST PUSH2 0xCB5 DUP2 PUSH2 0xCA3 JUMP JUMPDEST DUP2 EQ PUSH2 0xCBF JUMPI PUSH0 PUSH0 REVERT JUMPDEST POP JUMP JUMPDEST PUSH0 DUP2 CALLDATALOAD SWAP1 POP PUSH2 0xCD0 DUP2 PUSH2 0xCAC JUMP JUMPDEST SWAP3 SWAP2 POP POP JUMP JUMPDEST PUSH0 PUSH0 PUSH1 0x40 DUP4 DUP6 SUB SLT ISZERO PUSH2 0xCEC JUMPI PUSH2 0xCEB PUSH2 0xC2B JUMP JUMPDEST JUMPDEST PUSH0 PUSH2 0xCF9 DUP6 DUP3 DUP7 ADD PUSH2 0xCC2 JUMP JUMPDEST SWAP3 POP POP PUSH1 0x20 PUSH2 0xD0A DUP6 DUP3 DUP7 ADD PUSH2 0xCC2 JUMP JUMPDEST SWAP2 POP POP SWAP3 POP SWAP3 SWAP1 POP JUMP JUMPDEST PUSH2 0xD1D DUP2 PUSH2 0xC2F JUMP JUMPDEST DUP3 MSTORE POP POP JUMP JUMPDEST PUSH0 PUSH1 0x20 DUP3 ADD SWAP1 POP PUSH2 0xD36 PUSH0 DUP4 ADD DUP5 PUSH2 0xD14 JUMP JUMPDEST SWAP3 SWAP2 POP POP JUMP JUMPDEST PUSH0 DUP3 DUP3 MSTORE PUSH1 0x20 DUP3 ADD SWAP1 POP SWAP3 SWAP2 POP POP JUMP JUMPDEST PUSH32 0x5468652067616D65206973206F7665722E000000000000000000000000000000 PUSH0 DUP3 ADD MSTORE POP JUMP JUMPDEST PUSH0 PUSH2 0xD80 PUSH1 0x11 DUP4 PUSH2 0xD3C JUMP JUMPDEST SWAP2 POP PUSH2 0xD8B DUP3 PUSH2 0xD4C JUMP JUMPDEST PUSH1 0x20 DUP3 ADD SWAP1 POP SWAP2 SWAP1 POP JUMP JUMPDEST PUSH0 PUSH1 0x20 DUP3 ADD SWAP1 POP DUP2 DUP2 SUB PUSH0 DUP4 ADD MSTORE PUSH2 0xDAD DUP2 PUSH2 0xD74 JUMP JUMPDEST SWAP1 POP SWAP2 SWAP1 POP JUMP JUMPDEST PUSH32 0x49742773206E6F7420796F7572207475726E2E00000000000000000000000000 PUSH0 DUP3 ADD MSTORE POP JUMP JUMPDEST PUSH0 PUSH2 0xDE8 PUSH1 0x13 DUP4 PUSH2 0xD3C JUMP JUMPDEST SWAP2 POP PUSH2 0xDF3 DUP3 PUSH2 0xDB4 JUMP JUMPDEST PUSH1 0x20 DUP3 ADD SWAP1 POP SWAP2 SWAP1 POP JUMP JUMPDEST PUSH0 PUSH1 0x20 DUP3 ADD SWAP1 POP DUP2 DUP2 SUB PUSH0 DUP4 ADD MSTORE PUSH2 0xE15 DUP2 PUSH2 0xDDC JUMP JUMPDEST SWAP1 POP SWAP2 SWAP1 POP JUMP JUMPDEST PUSH32 0x496E76616C696420726F77206F7220636F6C756D6E20706C6163656D656E7400 PUSH0 DUP3 ADD MSTORE POP JUMP JUMPDEST PUSH0 PUSH2 0xE50 PUSH1 0x1F DUP4 PUSH2 0xD3C JUMP JUMPDEST SWAP2 POP PUSH2 0xE5B DUP3 PUSH2 0xE1C JUMP JUMPDEST PUSH1 0x20 DUP3 ADD SWAP1 POP SWAP2 SWAP1 POP JUMP JUMPDEST PUSH0 PUSH1 0x20 DUP3 ADD SWAP1 POP DUP2 DUP2 SUB PUSH0 DUP4 ADD MSTORE PUSH2 0xE7D DUP2 PUSH2 0xE44 JUMP JUMPDEST SWAP1 POP SWAP2 SWAP1 POP JUMP JUMPDEST PUSH32 0x4E487B7100000000000000000000000000000000000000000000000000000000 PUSH0 MSTORE PUSH1 0x32 PUSH1 0x4 MSTORE PUSH1 0x24 PUSH0 REVERT JUMPDEST PUSH32 0x43656C6C20697320616C72656164792074616B656E2E00000000000000000000 PUSH0 DUP3 ADD MSTORE POP JUMP JUMPDEST PUSH0 PUSH2 0xEE5 PUSH1 0x16 DUP4 PUSH2 0xD3C JUMP JUMPDEST SWAP2 POP PUSH2 0xEF0 DUP3 PUSH2 0xEB1 JUMP JUMPDEST PUSH1 0x20 DUP3 ADD SWAP1 POP SWAP2 SWAP1 POP JUMP JUMPDEST PUSH0 PUSH1 0x20 DUP3 ADD SWAP1 POP DUP2 DUP2 SUB PUSH0 DUP4 ADD MSTORE PUSH2 0xF12 DUP2 PUSH2 0xED9 JUMP JUMPDEST SWAP1 POP SWAP2 SWAP1 POP JUMP JUMPDEST PUSH32 0x4E487B7100000000000000000000000000000000000000000000000000000000 PUSH0 MSTORE PUSH1 0x11 PUSH1 0x4 MSTORE PUSH1 0x24 PUSH0 REVERT JUMPDEST PUSH0 PUSH2 0xF50 DUP3 PUSH2 0xC2F JUMP JUMPDEST SWAP2 POP PUSH1 0xFF DUP3 SUB PUSH2 0xF63 JUMPI PUSH2 0xF62 PUSH2 0xF19 JUMP JUMPDEST JUMPDEST PUSH1 0x1 DUP3 ADD SWAP1 POP SWAP2 SWAP1 POP JUMP INVALID LOG2 PUSH5 0x6970667358 0x22 SLT KECCAK256 NOT 0xB2 LOG2 0xC9 0xD8 SWAP7 DUP16 AND 0x29 MSIZE PREVRANDAO PUSH27 0xFB194D4AFE49F3D519A7BB633EDAFAA3FA189E4D64736F6C634300 ADDMOD 0x1E STOP CALLER "
				},
				"gasEstimates": {
					"creation": {
						"codeDepositCost": "800800",
						"executionCost": "infinite",
						"totalCost": "infinite"
					},
					"external": {
						"board(uint256,uint256)": "infinite",
						"isGameOver()": "2517",
						"makeMove(uint8,uint8)": "infinite",
						"nextPlayer()": "2486",
						"playerO()": "2596",
						"playerX()": "2530"
					},
					"internal": {
						"checkWin()": "infinite",
						"switchTurn()": "30726"
					}
				},
				"methodIdentifiers": {
					"board(uint256,uint256)": "8086a92a",
					"isGameOver()": "0e04a7d8",
					"makeMove(uint8,uint8)": "5e24b0f1",
					"nextPlayer()": "04a93605",
					"playerO()": "e7dafa6e",
					"playerX()": "4cdea7d2"
				}
			},
			"storageLayout": {
				"storage": [
					{
						"astId": 7,
						"contract": "contracts/TicTacToe.sol:TicTacToe",
						"label": "board",
						"offset": 0,
						"slot": "0",
						"type": "t_array(t_array(t_uint8)3_storage)3_storage"
					},
					{
						"astId": 9,
						"contract": "contracts/TicTacToe.sol:TicTacToe",
						"label": "playerX",
						"offset": 0,
						"slot": "3",
						"type": "t_address_payable"
					},
					{
						"astId": 11,
						"contract": "contracts/TicTacToe.sol:TicTacToe",
						"label": "playerO",
						"offset": 0,
						"slot": "4",
						"type": "t_address_payable"
					},
					{
						"astId": 13,
						"contract": "contracts/TicTacToe.sol:TicTacToe",
						"label": "nextPlayer",
						"offset": 0,
						"slot": "5",
						"type": "t_address"
					},
					{
						"astId": 15,
						"contract": "contracts/TicTacToe.sol:TicTacToe",
						"label": "isGameOver",
						"offset": 20,
						"slot": "5",
						"type": "t_bool"
					}
				],
				"types": {
					"t_address": {
						"encoding": "inplace",
						"label": "address",
						"numberOfBytes": "20"
					},
					"t_address_payable": {
						"encoding": "inplace",
						"label": "address payable",
						"numberOfBytes": "20"
					},
					"t_array(t_array(t_uint8)3_storage)3_storage": {
						"base": "t_array(t_uint8)3_storage",
						"encoding": "inplace",
						"label": "uint8[3][3]",
						"numberOfBytes": "96"
					},
					"t_array(t_uint8)3_storage": {
						"base": "t_uint8",
						"encoding": "inplace",
						"label": "uint8[3]",
						"numberOfBytes": "32"
					},
					"t_bool": {
						"encoding": "inplace",
						"label": "bool",
						"numberOfBytes": "1"
					},
					"t_uint8": {
						"encoding": "inplace",
						"label": "uint8",
						"numberOfBytes": "1"
					}
				}
			},
			"userdoc": {
				"kind": "user",
				"methods": {},
				"version": 1
			}
		}
	}
}