{
	"contracts/TicTacToe.sol": {
		"TicTacToe": {
			"abi": [
				{
					"inputs": [
						{
							"internalType": "address payable",
							"name": "_playerO",
							"type": "address"
						}
					],
					"stateMutability": "nonpayable",
					"type": "constructor"
				},
				{
					"anonymous": false,
					"inputs": [
						{
							"indexed": true,
							"internalType": "address",
							"name": "winner",
							"type": "address"
						}
					],
					"name": "GameEnded",
					"type": "event"
				},
				{
					"anonymous": false,
					"inputs": [
						{
							"indexed": true,
							"internalType": "address",
							"name": "gameAddress",
							"type": "address"
						},
						{
							"indexed": true,
							"internalType": "address",
							"name": "pX",
							"type": "address"
						},
						{
							"indexed": true,
							"internalType": "address",
							"name": "pO",
							"type": "address"
						}
					],
					"name": "GameStarted",
					"type": "event"
				},
				{
					"anonymous": false,
					"inputs": [
						{
							"indexed": true,
							"internalType": "address",
							"name": "player",
							"type": "address"
						},
						{
							"indexed": false,
							"internalType": "uint8",
							"name": "r",
							"type": "uint8"
						},
						{
							"indexed": false,
							"internalType": "uint8",
							"name": "c",
							"type": "uint8"
						},
						{
							"indexed": false,
							"internalType": "uint8",
							"name": "marker",
							"type": "uint8"
						}
					],
					"name": "MoveMade",
					"type": "event"
				},
				{
					"inputs": [
						{
							"internalType": "uint256",
							"name": "",
							"type": "uint256"
						},
						{
							"internalType": "uint256",
							"name": "",
							"type": "uint256"
						}
					],
					"name": "board",
					"outputs": [
						{
							"internalType": "uint8",
							"name": "",
							"type": "uint8"
						}
					],
					"stateMutability": "view",
					"type": "function"
				},
				{
					"inputs": [],
					"name": "getBoardState",
					"outputs": [
						{
							"internalType": "uint8[3][3]",
							"name": "",
							"type": "uint8[3][3]"
						}
					],
					"stateMutability": "view",
					"type": "function"
				},
				{
					"inputs": [],
					"name": "getPlayers",
					"outputs": [
						{
							"internalType": "address",
							"name": "",
							"type": "address"
						},
						{
							"internalType": "address",
							"name": "",
							"type": "address"
						}
					],
					"stateMutability": "view",
					"type": "function"
				},
				{
					"inputs": [],
					"name": "isGameOver",
					"outputs": [
						{
							"internalType": "bool",
							"name": "",
							"type": "bool"
						}
					],
					"stateMutability": "view",
					"type": "function"
				},
				{
					"inputs": [
						{
							"internalType": "uint8",
							"name": "row",
							"type": "uint8"
						},
						{
							"internalType": "uint8",
							"name": "col",
							"type": "uint8"
						}
					],
					"name": "makeMove",
					"outputs": [],
					"stateMutability": "nonpayable",
					"type": "function"
				},
				{
					"inputs": [],
					"name": "nextPlayer",
					"outputs": [
						{
							"internalType": "address",
							"name": "",
							"type": "address"
						}
					],
					"stateMutability": "view",
					"type": "function"
				},
				{
					"inputs": [],
					"name": "winner",
					"outputs": [
						{
							"internalType": "address",
							"name": "",
							"type": "address"
						}
					],
					"stateMutability": "view",
					"type": "function"
				}
			],
			"devdoc": {
				"kind": "dev",
				"methods": {},
				"version": 1
			},
			"evm": {
				"assembly": "    /* \"contracts/TicTacToe.sol\":423:6740  contract TicTacToe {... */\n  mstore(0x40, 0x80)\n    /* \"contracts/TicTacToe.sol\":2722:3631  constructor(address payable _playerO) {... */\n  callvalue\n  dup1\n  iszero\n  tag_1\n  jumpi\n  revert(0x00, 0x00)\ntag_1:\n  pop\n  mload(0x40)\n  sub(codesize, bytecodeSize)\n  dup1\n  bytecodeSize\n  dup4\n  codecopy\n  dup2\n  dup2\n  add\n  0x40\n  mstore\n  dup2\n  add\n  swap1\n  tag_2\n  swap2\n  swap1\n  tag_3\n  jump\t// in\ntag_2:\n    /* \"contracts/TicTacToe.sol\":3113:3123  msg.sender */\n  caller\n    /* \"contracts/TicTacToe.sol\":3095:3102  playerX */\n  0x03\n  0x00\n    /* \"contracts/TicTacToe.sol\":3095:3124  playerX = payable(msg.sender) */\n  0x0100\n  exp\n  dup2\n  sload\n  dup2\n  0xffffffffffffffffffffffffffffffffffffffff\n  mul\n  not\n  and\n  swap1\n  dup4\n  0xffffffffffffffffffffffffffffffffffffffff\n  and\n  mul\n  or\n  swap1\n  sstore\n  pop\n    /* \"contracts/TicTacToe.sol\":3394:3402  _playerO */\n  dup1\n    /* \"contracts/TicTacToe.sol\":3383:3402  playerX != _playerO */\n  0xffffffffffffffffffffffffffffffffffffffff\n  and\n    /* \"contracts/TicTacToe.sol\":3383:3390  playerX */\n  0x03\n  0x00\n  swap1\n  sload\n  swap1\n  0x0100\n  exp\n  swap1\n  div\n  0xffffffffffffffffffffffffffffffffffffffff\n  and\n    /* \"contracts/TicTacToe.sol\":3383:3402  playerX != _playerO */\n  0xffffffffffffffffffffffffffffffffffffffff\n  and\n  sub\n    /* \"contracts/TicTacToe.sol\":3375:3444  require(playerX != _playerO, \"Player O must be a different address.\") */\n  tag_6\n  jumpi\n  mload(0x40)\n  0x08c379a000000000000000000000000000000000000000000000000000000000\n  dup2\n  mstore\n  0x04\n  add\n  tag_7\n  swap1\n  tag_8\n  jump\t// in\ntag_7:\n  mload(0x40)\n  dup1\n  swap2\n  sub\n  swap1\n  revert\ntag_6:\n    /* \"contracts/TicTacToe.sol\":3465:3473  _playerO */\n  dup1\n    /* \"contracts/TicTacToe.sol\":3455:3462  playerO */\n  0x04\n  0x00\n    /* \"contracts/TicTacToe.sol\":3455:3473  playerO = _playerO */\n  0x0100\n  exp\n  dup2\n  sload\n  dup2\n  0xffffffffffffffffffffffffffffffffffffffff\n  mul\n  not\n  and\n  swap1\n  dup4\n  0xffffffffffffffffffffffffffffffffffffffff\n  and\n  mul\n  or\n  swap1\n  sstore\n  pop\n    /* \"contracts/TicTacToe.sol\":3587:3594  playerX */\n  0x03\n  0x00\n  swap1\n  sload\n  swap1\n  0x0100\n  exp\n  swap1\n  div\n  0xffffffffffffffffffffffffffffffffffffffff\n  and\n    /* \"contracts/TicTacToe.sol\":3574:3584  nextPlayer */\n  0x05\n  0x00\n    /* \"contracts/TicTacToe.sol\":3574:3594  nextPlayer = playerX */\n  0x0100\n  exp\n  dup2\n  sload\n  dup2\n  0xffffffffffffffffffffffffffffffffffffffff\n  mul\n  not\n  and\n  swap1\n  dup4\n  0xffffffffffffffffffffffffffffffffffffffff\n  and\n  mul\n  or\n  swap1\n  sstore\n  pop\n    /* \"contracts/TicTacToe.sol\":3618:3623  false */\n  0x00\n    /* \"contracts/TicTacToe.sol\":3605:3615  isGameOver */\n  0x05\n  0x14\n    /* \"contracts/TicTacToe.sol\":3605:3623  isGameOver = false */\n  0x0100\n  exp\n  dup2\n  sload\n  dup2\n  0xff\n  mul\n  not\n  and\n  swap1\n  dup4\n  iszero\n  iszero\n  mul\n  or\n  swap1\n  sstore\n  pop\n    /* \"contracts/TicTacToe.sol\":2722:3631  constructor(address payable _playerO) {... */\n  pop\n    /* \"contracts/TicTacToe.sol\":423:6740  contract TicTacToe {... */\n  jump(tag_9)\n    /* \"#utility.yul\":88:205   */\ntag_11:\n    /* \"#utility.yul\":197:198   */\n  0x00\n    /* \"#utility.yul\":194:195   */\n  0x00\n    /* \"#utility.yul\":187:199   */\n  revert\n    /* \"#utility.yul\":334:460   */\ntag_13:\n    /* \"#utility.yul\":371:378   */\n  0x00\n    /* \"#utility.yul\":411:453   */\n  0xffffffffffffffffffffffffffffffffffffffff\n    /* \"#utility.yul\":404:409   */\n  dup3\n    /* \"#utility.yul\":400:454   */\n  and\n    /* \"#utility.yul\":389:454   */\n  swap1\n  pop\n    /* \"#utility.yul\":334:460   */\n  swap2\n  swap1\n  pop\n  jump\t// out\n    /* \"#utility.yul\":466:570   */\ntag_14:\n    /* \"#utility.yul\":511:518   */\n  0x00\n    /* \"#utility.yul\":540:564   */\n  tag_26\n    /* \"#utility.yul\":558:563   */\n  dup3\n    /* \"#utility.yul\":540:564   */\n  tag_13\n  jump\t// in\ntag_26:\n    /* \"#utility.yul\":529:564   */\n  swap1\n  pop\n    /* \"#utility.yul\":466:570   */\n  swap2\n  swap1\n  pop\n  jump\t// out\n    /* \"#utility.yul\":576:714   */\ntag_15:\n    /* \"#utility.yul\":657:689   */\n  tag_28\n    /* \"#utility.yul\":683:688   */\n  dup2\n    /* \"#utility.yul\":657:689   */\n  tag_14\n  jump\t// in\ntag_28:\n    /* \"#utility.yul\":650:655   */\n  dup2\n    /* \"#utility.yul\":647:690   */\n  eq\n    /* \"#utility.yul\":637:708   */\n  tag_29\n  jumpi\n    /* \"#utility.yul\":704:705   */\n  0x00\n    /* \"#utility.yul\":701:702   */\n  0x00\n    /* \"#utility.yul\":694:706   */\n  revert\n    /* \"#utility.yul\":637:708   */\ntag_29:\n    /* \"#utility.yul\":576:714   */\n  pop\n  jump\t// out\n    /* \"#utility.yul\":720:879   */\ntag_16:\n    /* \"#utility.yul\":785:790   */\n  0x00\n    /* \"#utility.yul\":816:822   */\n  dup2\n    /* \"#utility.yul\":810:823   */\n  mload\n    /* \"#utility.yul\":801:823   */\n  swap1\n  pop\n    /* \"#utility.yul\":832:873   */\n  tag_31\n    /* \"#utility.yul\":867:872   */\n  dup2\n    /* \"#utility.yul\":832:873   */\n  tag_15\n  jump\t// in\ntag_31:\n    /* \"#utility.yul\":720:879   */\n  swap3\n  swap2\n  pop\n  pop\n  jump\t// out\n    /* \"#utility.yul\":885:1252   */\ntag_3:\n    /* \"#utility.yul\":963:969   */\n  0x00\n    /* \"#utility.yul\":1012:1014   */\n  0x20\n    /* \"#utility.yul\":1000:1009   */\n  dup3\n    /* \"#utility.yul\":991:998   */\n  dup5\n    /* \"#utility.yul\":987:1010   */\n  sub\n    /* \"#utility.yul\":983:1015   */\n  slt\n    /* \"#utility.yul\":980:1099   */\n  iszero\n  tag_33\n  jumpi\n    /* \"#utility.yul\":1018:1097   */\n  tag_34\n  tag_11\n  jump\t// in\ntag_34:\n    /* \"#utility.yul\":980:1099   */\ntag_33:\n    /* \"#utility.yul\":1138:1139   */\n  0x00\n    /* \"#utility.yul\":1163:1235   */\n  tag_35\n    /* \"#utility.yul\":1227:1234   */\n  dup5\n    /* \"#utility.yul\":1218:1224   */\n  dup3\n    /* \"#utility.yul\":1207:1216   */\n  dup6\n    /* \"#utility.yul\":1203:1225   */\n  add\n    /* \"#utility.yul\":1163:1235   */\n  tag_16\n  jump\t// in\ntag_35:\n    /* \"#utility.yul\":1153:1235   */\n  swap2\n  pop\n    /* \"#utility.yul\":1109:1245   */\n  pop\n    /* \"#utility.yul\":885:1252   */\n  swap3\n  swap2\n  pop\n  pop\n  jump\t// out\n    /* \"#utility.yul\":1258:1427   */\ntag_17:\n    /* \"#utility.yul\":1342:1353   */\n  0x00\n    /* \"#utility.yul\":1376:1382   */\n  dup3\n    /* \"#utility.yul\":1371:1374   */\n  dup3\n    /* \"#utility.yul\":1364:1383   */\n  mstore\n    /* \"#utility.yul\":1416:1420   */\n  0x20\n    /* \"#utility.yul\":1411:1414   */\n  dup3\n    /* \"#utility.yul\":1407:1421   */\n  add\n    /* \"#utility.yul\":1392:1421   */\n  swap1\n  pop\n    /* \"#utility.yul\":1258:1427   */\n  swap3\n  swap2\n  pop\n  pop\n  jump\t// out\n    /* \"#utility.yul\":1433:1657   */\ntag_18:\n    /* \"#utility.yul\":1573:1607   */\n  0x506c61796572204f206d757374206265206120646966666572656e7420616464\n    /* \"#utility.yul\":1569:1570   */\n  0x00\n    /* \"#utility.yul\":1561:1567   */\n  dup3\n    /* \"#utility.yul\":1557:1571   */\n  add\n    /* \"#utility.yul\":1550:1608   */\n  mstore\n    /* \"#utility.yul\":1642:1649   */\n  0x726573732e000000000000000000000000000000000000000000000000000000\n    /* \"#utility.yul\":1637:1639   */\n  0x20\n    /* \"#utility.yul\":1629:1635   */\n  dup3\n    /* \"#utility.yul\":1625:1640   */\n  add\n    /* \"#utility.yul\":1618:1650   */\n  mstore\n    /* \"#utility.yul\":1433:1657   */\n  pop\n  jump\t// out\n    /* \"#utility.yul\":1663:2029   */\ntag_19:\n    /* \"#utility.yul\":1805:1808   */\n  0x00\n    /* \"#utility.yul\":1826:1893   */\n  tag_39\n    /* \"#utility.yul\":1890:1892   */\n  0x25\n    /* \"#utility.yul\":1885:1888   */\n  dup4\n    /* \"#utility.yul\":1826:1893   */\n  tag_17\n  jump\t// in\ntag_39:\n    /* \"#utility.yul\":1819:1893   */\n  swap2\n  pop\n    /* \"#utility.yul\":1902:1995   */\n  tag_40\n    /* \"#utility.yul\":1991:1994   */\n  dup3\n    /* \"#utility.yul\":1902:1995   */\n  tag_18\n  jump\t// in\ntag_40:\n    /* \"#utility.yul\":2020:2022   */\n  0x40\n    /* \"#utility.yul\":2015:2018   */\n  dup3\n    /* \"#utility.yul\":2011:2023   */\n  add\n    /* \"#utility.yul\":2004:2023   */\n  swap1\n  pop\n    /* \"#utility.yul\":1663:2029   */\n  swap2\n  swap1\n  pop\n  jump\t// out\n    /* \"#utility.yul\":2035:2454   */\ntag_8:\n    /* \"#utility.yul\":2201:2205   */\n  0x00\n    /* \"#utility.yul\":2239:2241   */\n  0x20\n    /* \"#utility.yul\":2228:2237   */\n  dup3\n    /* \"#utility.yul\":2224:2242   */\n  add\n    /* \"#utility.yul\":2216:2242   */\n  swap1\n  pop\n    /* \"#utility.yul\":2288:2297   */\n  dup2\n    /* \"#utility.yul\":2282:2286   */\n  dup2\n    /* \"#utility.yul\":2278:2298   */\n  sub\n    /* \"#utility.yul\":2274:2275   */\n  0x00\n    /* \"#utility.yul\":2263:2272   */\n  dup4\n    /* \"#utility.yul\":2259:2276   */\n  add\n    /* \"#utility.yul\":2252:2299   */\n  mstore\n    /* \"#utility.yul\":2316:2447   */\n  tag_42\n    /* \"#utility.yul\":2442:2446   */\n  dup2\n    /* \"#utility.yul\":2316:2447   */\n  tag_19\n  jump\t// in\ntag_42:\n    /* \"#utility.yul\":2308:2447   */\n  swap1\n  pop\n    /* \"#utility.yul\":2035:2454   */\n  swap2\n  swap1\n  pop\n  jump\t// out\n    /* \"contracts/TicTacToe.sol\":423:6740  contract TicTacToe {... */\ntag_9:\n  dataSize(sub_0)\n  dup1\n  dataOffset(sub_0)\n  0x00\n  codecopy\n  0x00\n  return\nstop\n\nsub_0: assembly {\n        /* \"contracts/TicTacToe.sol\":423:6740  contract TicTacToe {... */\n      mstore(0x40, 0x80)\n      callvalue\n      dup1\n      iszero\n      tag_1\n      jumpi\n      revert(0x00, 0x00)\n    tag_1:\n      pop\n      jumpi(tag_2, lt(calldatasize, 0x04))\n      shr(0xe0, calldataload(0x00))\n      dup1\n      0x5e24b0f1\n      gt\n      tag_10\n      jumpi\n      dup1\n      0x5e24b0f1\n      eq\n      tag_6\n      jumpi\n      dup1\n      0x8086a92a\n      eq\n      tag_7\n      jumpi\n      dup1\n      0x8b5b9ccc\n      eq\n      tag_8\n      jumpi\n      dup1\n      0xdfbf53ae\n      eq\n      tag_9\n      jumpi\n      jump(tag_2)\n    tag_10:\n      dup1\n      0x04a93605\n      eq\n      tag_3\n      jumpi\n      dup1\n      0x0e04a7d8\n      eq\n      tag_4\n      jumpi\n      dup1\n      0x2420f7f0\n      eq\n      tag_5\n      jumpi\n    tag_2:\n      revert(0x00, 0x00)\n        /* \"contracts/TicTacToe.sol\":1343:1368  address public nextPlayer */\n    tag_3:\n      tag_11\n      tag_12\n      jump\t// in\n    tag_11:\n      mload(0x40)\n      tag_13\n      swap2\n      swap1\n      tag_14\n      jump\t// in\n    tag_13:\n      mload(0x40)\n      dup1\n      swap2\n      sub\n      swap1\n      return\n        /* \"contracts/TicTacToe.sol\":1375:1397  bool public isGameOver */\n    tag_4:\n      tag_15\n      tag_16\n      jump\t// in\n    tag_15:\n      mload(0x40)\n      tag_17\n      swap2\n      swap1\n      tag_18\n      jump\t// in\n    tag_17:\n      mload(0x40)\n      dup1\n      swap2\n      sub\n      swap1\n      return\n        /* \"contracts/TicTacToe.sol\":3821:3918  function getBoardState() public view returns (uint8[3][3] memory) {... */\n    tag_5:\n      tag_19\n      tag_20\n      jump\t// in\n    tag_19:\n      mload(0x40)\n      tag_21\n      swap2\n      swap1\n      tag_22\n      jump\t// in\n    tag_21:\n      mload(0x40)\n      dup1\n      swap2\n      sub\n      swap1\n      return\n        /* \"contracts/TicTacToe.sol\":3962:4851  function makeMove(uint8 row, uint8 col) public {... */\n    tag_6:\n      tag_23\n      0x04\n      dup1\n      calldatasize\n      sub\n      dup2\n      add\n      swap1\n      tag_24\n      swap2\n      swap1\n      tag_25\n      jump\t// in\n    tag_24:\n      tag_26\n      jump\t// in\n    tag_23:\n      stop\n        /* \"contracts/TicTacToe.sol\":856:880  uint8[3][3] public board */\n    tag_7:\n      tag_27\n      0x04\n      dup1\n      calldatasize\n      sub\n      dup2\n      add\n      swap1\n      tag_28\n      swap2\n      swap1\n      tag_29\n      jump\t// in\n    tag_28:\n      tag_30\n      jump\t// in\n    tag_27:\n      mload(0x40)\n      tag_31\n      swap2\n      swap1\n      tag_32\n      jump\t// in\n    tag_31:\n      mload(0x40)\n      dup1\n      swap2\n      sub\n      swap1\n      return\n        /* \"contracts/TicTacToe.sol\":3675:3780  function getPlayers() public view returns (address, address) {... */\n    tag_8:\n      tag_33\n      tag_34\n      jump\t// in\n    tag_33:\n      mload(0x40)\n      tag_35\n      swap3\n      swap2\n      swap1\n      tag_36\n      jump\t// in\n    tag_35:\n      mload(0x40)\n      dup1\n      swap2\n      sub\n      swap1\n      return\n        /* \"contracts/TicTacToe.sol\":1448:1469  address public winner */\n    tag_9:\n      tag_37\n      tag_38\n      jump\t// in\n    tag_37:\n      mload(0x40)\n      tag_39\n      swap2\n      swap1\n      tag_14\n      jump\t// in\n    tag_39:\n      mload(0x40)\n      dup1\n      swap2\n      sub\n      swap1\n      return\n        /* \"contracts/TicTacToe.sol\":1343:1368  address public nextPlayer */\n    tag_12:\n      0x05\n      0x00\n      swap1\n      sload\n      swap1\n      0x0100\n      exp\n      swap1\n      div\n      0xffffffffffffffffffffffffffffffffffffffff\n      and\n      dup2\n      jump\t// out\n        /* \"contracts/TicTacToe.sol\":1375:1397  bool public isGameOver */\n    tag_16:\n      0x05\n      0x14\n      swap1\n      sload\n      swap1\n      0x0100\n      exp\n      swap1\n      div\n      0xff\n      and\n      dup2\n      jump\t// out\n        /* \"contracts/TicTacToe.sol\":3821:3918  function getBoardState() public view returns (uint8[3][3] memory) {... */\n    tag_20:\n        /* \"contracts/TicTacToe.sol\":3867:3885  uint8[3][3] memory */\n      tag_40\n      tag_41\n      jump\t// in\n    tag_40:\n        /* \"contracts/TicTacToe.sol\":3905:3910  board */\n      0x00\n        /* \"contracts/TicTacToe.sol\":3898:3910  return board */\n      0x03\n      dup1\n      0x20\n      mul\n      mload(0x40)\n      swap1\n      dup2\n      add\n      0x40\n      mstore\n      dup1\n      swap3\n      swap2\n      swap1\n      0x00\n      swap1\n    tag_43:\n      dup3\n      dup3\n      lt\n      iszero\n      tag_44\n      jumpi\n      dup4\n      dup3\n      add\n      0x03\n      dup1\n      0x20\n      mul\n      mload(0x40)\n      swap1\n      dup2\n      add\n      0x40\n      mstore\n      dup1\n      swap3\n      swap2\n      swap1\n      dup3\n      0x03\n      dup1\n      iszero\n      tag_46\n      jumpi\n      0x20\n      mul\n      dup3\n      add\n      swap2\n      0x00\n      swap1\n    tag_47:\n      dup3\n      dup3\n      swap1\n      sload\n      swap1\n      0x0100\n      exp\n      swap1\n      div\n      0xff\n      and\n      0xff\n      and\n      dup2\n      mstore\n      0x20\n      add\n      swap1\n      0x01\n      add\n      swap1\n      0x20\n      dup3\n      0x00\n      add\n      div\n      swap3\n      dup4\n      add\n      swap3\n      0x01\n      sub\n      dup3\n      mul\n      swap2\n      pop\n      dup1\n      dup5\n      gt\n      tag_47\n      jumpi\n      swap1\n      pop\n    tag_46:\n      pop\n      pop\n      pop\n      pop\n      pop\n      dup2\n      mstore\n      0x20\n      add\n      swap1\n      0x01\n      add\n      swap1\n      jump(tag_43)\n    tag_44:\n      pop\n      pop\n      pop\n      pop\n      swap1\n      pop\n        /* \"contracts/TicTacToe.sol\":3821:3918  function getBoardState() public view returns (uint8[3][3] memory) {... */\n      swap1\n      jump\t// out\n        /* \"contracts/TicTacToe.sol\":3962:4851  function makeMove(uint8 row, uint8 col) public {... */\n    tag_26:\n        /* \"contracts/TicTacToe.sol\":4113:4123  isGameOver */\n      0x05\n      0x14\n      swap1\n      sload\n      swap1\n      0x0100\n      exp\n      swap1\n      div\n      0xff\n      and\n        /* \"contracts/TicTacToe.sol\":4112:4123  !isGameOver */\n      iszero\n        /* \"contracts/TicTacToe.sol\":4104:4145  require(!isGameOver, \"The game is over.\") */\n      tag_49\n      jumpi\n      mload(0x40)\n      0x08c379a000000000000000000000000000000000000000000000000000000000\n      dup2\n      mstore\n      0x04\n      add\n      tag_50\n      swap1\n      tag_51\n      jump\t// in\n    tag_50:\n      mload(0x40)\n      dup1\n      swap2\n      sub\n      swap1\n      revert\n    tag_49:\n        /* \"contracts/TicTacToe.sol\":4237:4247  nextPlayer */\n      0x05\n      0x00\n      swap1\n      sload\n      swap1\n      0x0100\n      exp\n      swap1\n      div\n      0xffffffffffffffffffffffffffffffffffffffff\n      and\n        /* \"contracts/TicTacToe.sol\":4223:4247  msg.sender == nextPlayer */\n      0xffffffffffffffffffffffffffffffffffffffff\n      and\n        /* \"contracts/TicTacToe.sol\":4223:4233  msg.sender */\n      caller\n        /* \"contracts/TicTacToe.sol\":4223:4247  msg.sender == nextPlayer */\n      0xffffffffffffffffffffffffffffffffffffffff\n      and\n      eq\n        /* \"contracts/TicTacToe.sol\":4215:4271  require(msg.sender == nextPlayer, \"It's not your turn.\") */\n      tag_52\n      jumpi\n      mload(0x40)\n      0x08c379a000000000000000000000000000000000000000000000000000000000\n      dup2\n      mstore\n      0x04\n      add\n      tag_53\n      swap1\n      tag_54\n      jump\t// in\n    tag_53:\n      mload(0x40)\n      dup1\n      swap2\n      sub\n      swap1\n      revert\n    tag_52:\n        /* \"contracts/TicTacToe.sol\":4372:4373  3 */\n      0x03\n        /* \"contracts/TicTacToe.sol\":4366:4369  row */\n      dup3\n        /* \"contracts/TicTacToe.sol\":4366:4373  row < 3 */\n      0xff\n      and\n      lt\n        /* \"contracts/TicTacToe.sol\":4366:4384  row < 3 && col < 3 */\n      dup1\n      iszero\n      tag_55\n      jumpi\n      pop\n        /* \"contracts/TicTacToe.sol\":4383:4384  3 */\n      0x03\n        /* \"contracts/TicTacToe.sol\":4377:4380  col */\n      dup2\n        /* \"contracts/TicTacToe.sol\":4377:4384  col < 3 */\n      0xff\n      and\n      lt\n        /* \"contracts/TicTacToe.sol\":4366:4384  row < 3 && col < 3 */\n    tag_55:\n        /* \"contracts/TicTacToe.sol\":4358:4420  require(row < 3 && col < 3, \"Invalid row or column placement\") */\n      tag_56\n      jumpi\n      mload(0x40)\n      0x08c379a000000000000000000000000000000000000000000000000000000000\n      dup2\n      mstore\n      0x04\n      add\n      tag_57\n      swap1\n      tag_58\n      jump\t// in\n    tag_57:\n      mload(0x40)\n      dup1\n      swap2\n      sub\n      swap1\n      revert\n    tag_56:\n        /* \"contracts/TicTacToe.sol\":4506:4507  0 */\n      0x00\n        /* \"contracts/TicTacToe.sol\":4487:4492  board */\n      0x00\n        /* \"contracts/TicTacToe.sol\":4493:4496  row */\n      dup4\n        /* \"contracts/TicTacToe.sol\":4487:4497  board[row] */\n      0xff\n      and\n      0x03\n      dup2\n      lt\n      tag_59\n      jumpi\n      tag_60\n      tag_61\n      jump\t// in\n    tag_60:\n    tag_59:\n      add\n        /* \"contracts/TicTacToe.sol\":4498:4501  col */\n      dup3\n        /* \"contracts/TicTacToe.sol\":4487:4502  board[row][col] */\n      0xff\n      and\n      0x03\n      dup2\n      lt\n      tag_63\n      jumpi\n      tag_64\n      tag_61\n      jump\t// in\n    tag_64:\n    tag_63:\n      0x20\n      swap2\n      dup3\n      dup3\n      div\n      add\n      swap2\n      swap1\n      mod\n      swap1\n      sload\n      swap1\n      0x0100\n      exp\n      swap1\n      div\n      0xff\n      and\n        /* \"contracts/TicTacToe.sol\":4487:4507  board[row][col] == 0 */\n      0xff\n      and\n      eq\n        /* \"contracts/TicTacToe.sol\":4479:4534  require(board[row][col] == 0, \"Cell is already taken.\") */\n      tag_66\n      jumpi\n      mload(0x40)\n      0x08c379a000000000000000000000000000000000000000000000000000000000\n      dup2\n      mstore\n      0x04\n      add\n      tag_67\n      swap1\n      tag_68\n      jump\t// in\n    tag_67:\n      mload(0x40)\n      dup1\n      swap2\n      sub\n      swap1\n      revert\n    tag_66:\n        /* \"contracts/TicTacToe.sol\":4641:4648  playerX */\n      0x03\n      0x00\n      swap1\n      sload\n      swap1\n      0x0100\n      exp\n      swap1\n      div\n      0xffffffffffffffffffffffffffffffffffffffff\n      and\n        /* \"contracts/TicTacToe.sol\":4627:4648  msg.sender == playerX */\n      0xffffffffffffffffffffffffffffffffffffffff\n      and\n        /* \"contracts/TicTacToe.sol\":4627:4637  msg.sender */\n      caller\n        /* \"contracts/TicTacToe.sol\":4627:4648  msg.sender == playerX */\n      0xffffffffffffffffffffffffffffffffffffffff\n      and\n      sub\n        /* \"contracts/TicTacToe.sol\":4623:4748  if (msg.sender == playerX) {... */\n      tag_69\n      jumpi\n        /* \"contracts/TicTacToe.sol\":4683:4684  1 */\n      0x01\n        /* \"contracts/TicTacToe.sol\":4665:4670  board */\n      0x00\n        /* \"contracts/TicTacToe.sol\":4671:4674  row */\n      dup4\n        /* \"contracts/TicTacToe.sol\":4665:4675  board[row] */\n      0xff\n      and\n      0x03\n      dup2\n      lt\n      tag_70\n      jumpi\n      tag_71\n      tag_61\n      jump\t// in\n    tag_71:\n    tag_70:\n      add\n        /* \"contracts/TicTacToe.sol\":4676:4679  col */\n      dup3\n        /* \"contracts/TicTacToe.sol\":4665:4680  board[row][col] */\n      0xff\n      and\n      0x03\n      dup2\n      lt\n      tag_73\n      jumpi\n      tag_74\n      tag_61\n      jump\t// in\n    tag_74:\n    tag_73:\n      0x20\n      swap2\n      dup3\n      dup3\n      div\n      add\n      swap2\n      swap1\n      mod\n        /* \"contracts/TicTacToe.sol\":4665:4684  board[row][col] = 1 */\n      0x0100\n      exp\n      dup2\n      sload\n      dup2\n      0xff\n      mul\n      not\n      and\n      swap1\n      dup4\n      0xff\n      and\n      mul\n      or\n      swap1\n      sstore\n      pop\n        /* \"contracts/TicTacToe.sol\":4623:4748  if (msg.sender == playerX) {... */\n      jump(tag_76)\n    tag_69:\n        /* \"contracts/TicTacToe.sol\":4735:4736  2 */\n      0x02\n        /* \"contracts/TicTacToe.sol\":4717:4722  board */\n      0x00\n        /* \"contracts/TicTacToe.sol\":4723:4726  row */\n      dup4\n        /* \"contracts/TicTacToe.sol\":4717:4727  board[row] */\n      0xff\n      and\n      0x03\n      dup2\n      lt\n      tag_77\n      jumpi\n      tag_78\n      tag_61\n      jump\t// in\n    tag_78:\n    tag_77:\n      add\n        /* \"contracts/TicTacToe.sol\":4728:4731  col */\n      dup3\n        /* \"contracts/TicTacToe.sol\":4717:4732  board[row][col] */\n      0xff\n      and\n      0x03\n      dup2\n      lt\n      tag_80\n      jumpi\n      tag_81\n      tag_61\n      jump\t// in\n    tag_81:\n    tag_80:\n      0x20\n      swap2\n      dup3\n      dup3\n      div\n      add\n      swap2\n      swap1\n      mod\n        /* \"contracts/TicTacToe.sol\":4717:4736  board[row][col] = 2 */\n      0x0100\n      exp\n      dup2\n      sload\n      dup2\n      0xff\n      mul\n      not\n      and\n      swap1\n      dup4\n      0xff\n      and\n      mul\n      or\n      swap1\n      sstore\n      pop\n        /* \"contracts/TicTacToe.sol\":4623:4748  if (msg.sender == playerX) {... */\n    tag_76:\n        /* \"contracts/TicTacToe.sol\":4793:4803  checkWin() */\n      tag_83\n        /* \"contracts/TicTacToe.sol\":4793:4801  checkWin */\n      tag_84\n        /* \"contracts/TicTacToe.sol\":4793:4803  checkWin() */\n      jump\t// in\n    tag_83:\n        /* \"contracts/TicTacToe.sol\":4819:4829  isGameOver */\n      0x05\n      0x14\n      swap1\n      sload\n      swap1\n      0x0100\n      exp\n      swap1\n      div\n      0xff\n      and\n        /* \"contracts/TicTacToe.sol\":4814:4843  if (!isGameOver) switchTurn() */\n      tag_85\n      jumpi\n        /* \"contracts/TicTacToe.sol\":4831:4843  switchTurn() */\n      tag_86\n        /* \"contracts/TicTacToe.sol\":4831:4841  switchTurn */\n      tag_87\n        /* \"contracts/TicTacToe.sol\":4831:4843  switchTurn() */\n      jump\t// in\n    tag_86:\n        /* \"contracts/TicTacToe.sol\":4814:4843  if (!isGameOver) switchTurn() */\n    tag_85:\n        /* \"contracts/TicTacToe.sol\":3962:4851  function makeMove(uint8 row, uint8 col) public {... */\n      pop\n      pop\n      jump\t// out\n        /* \"contracts/TicTacToe.sol\":856:880  uint8[3][3] public board */\n    tag_30:\n      0x00\n      dup3\n      0x03\n      dup2\n      lt\n      tag_88\n      jumpi\n      0x00\n      dup1\n      revert\n    tag_88:\n      add\n      dup2\n      0x03\n      dup2\n      lt\n      tag_90\n      jumpi\n      0x00\n      dup1\n      revert\n    tag_90:\n      0x20\n      swap2\n      dup3\n      dup3\n      div\n      add\n      swap2\n      swap1\n      mod\n      swap2\n      pop\n      swap2\n      pop\n      swap1\n      sload\n      swap1\n      0x0100\n      exp\n      swap1\n      div\n      0xff\n      and\n      dup2\n      jump\t// out\n        /* \"contracts/TicTacToe.sol\":3675:3780  function getPlayers() public view returns (address, address) {... */\n    tag_34:\n        /* \"contracts/TicTacToe.sol\":3718:3725  address */\n      0x00\n        /* \"contracts/TicTacToe.sol\":3727:3734  address */\n      0x00\n        /* \"contracts/TicTacToe.sol\":3755:3762  playerX */\n      0x03\n      0x00\n      swap1\n      sload\n      swap1\n      0x0100\n      exp\n      swap1\n      div\n      0xffffffffffffffffffffffffffffffffffffffff\n      and\n        /* \"contracts/TicTacToe.sol\":3764:3771  playerO */\n      0x04\n      0x00\n      swap1\n      sload\n      swap1\n      0x0100\n      exp\n      swap1\n      div\n      0xffffffffffffffffffffffffffffffffffffffff\n      and\n        /* \"contracts/TicTacToe.sol\":3747:3772  return (playerX, playerO) */\n      swap2\n      pop\n      swap2\n      pop\n        /* \"contracts/TicTacToe.sol\":3675:3780  function getPlayers() public view returns (address, address) {... */\n      swap1\n      swap2\n      jump\t// out\n        /* \"contracts/TicTacToe.sol\":1448:1469  address public winner */\n    tag_38:\n      0x06\n      0x00\n      swap1\n      sload\n      swap1\n      0x0100\n      exp\n      swap1\n      div\n      0xffffffffffffffffffffffffffffffffffffffff\n      and\n      dup2\n      jump\t// out\n        /* \"contracts/TicTacToe.sol\":5331:6737  function checkWin() private {... */\n    tag_84:\n        /* \"contracts/TicTacToe.sol\":5433:5445  uint8 marker */\n      0x00\n        /* \"contracts/TicTacToe.sol\":5474:5481  playerX */\n      0x03\n      0x00\n      swap1\n      sload\n      swap1\n      0x0100\n      exp\n      swap1\n      div\n      0xffffffffffffffffffffffffffffffffffffffff\n      and\n        /* \"contracts/TicTacToe.sol\":5460:5481  msg.sender == playerX */\n      0xffffffffffffffffffffffffffffffffffffffff\n      and\n        /* \"contracts/TicTacToe.sol\":5460:5470  msg.sender */\n      caller\n        /* \"contracts/TicTacToe.sol\":5460:5481  msg.sender == playerX */\n      0xffffffffffffffffffffffffffffffffffffffff\n      and\n      sub\n        /* \"contracts/TicTacToe.sol\":5456:5563  if (msg.sender == playerX) {... */\n      tag_94\n      jumpi\n        /* \"contracts/TicTacToe.sol\":5507:5508  1 */\n      0x01\n        /* \"contracts/TicTacToe.sol\":5498:5508  marker = 1 */\n      swap1\n      pop\n        /* \"contracts/TicTacToe.sol\":5456:5563  if (msg.sender == playerX) {... */\n      jump(tag_95)\n    tag_94:\n        /* \"contracts/TicTacToe.sol\":5550:5551  2 */\n      0x02\n        /* \"contracts/TicTacToe.sol\":5541:5551  marker = 2 */\n      swap1\n      pop\n        /* \"contracts/TicTacToe.sol\":5456:5563  if (msg.sender == playerX) {... */\n    tag_95:\n        /* \"contracts/TicTacToe.sol\":5647:5654  uint8 i */\n      0x00\n        /* \"contracts/TicTacToe.sol\":5657:5658  0 */\n      0x00\n        /* \"contracts/TicTacToe.sol\":5647:5658  uint8 i = 0 */\n      swap1\n      pop\n        /* \"contracts/TicTacToe.sol\":5642:5988  for (uint8 i = 0; i < 3; i++) {... */\n    tag_96:\n        /* \"contracts/TicTacToe.sol\":5664:5665  3 */\n      0x03\n        /* \"contracts/TicTacToe.sol\":5660:5661  i */\n      dup2\n        /* \"contracts/TicTacToe.sol\":5660:5665  i < 3 */\n      0xff\n      and\n      lt\n        /* \"contracts/TicTacToe.sol\":5642:5988  for (uint8 i = 0; i < 3; i++) {... */\n      iszero\n      tag_97\n      jumpi\n        /* \"contracts/TicTacToe.sol\":5706:5712  marker */\n      dup2\n        /* \"contracts/TicTacToe.sol\":5691:5712  board[i][0] == marker */\n      0xff\n      and\n        /* \"contracts/TicTacToe.sol\":5691:5696  board */\n      0x00\n        /* \"contracts/TicTacToe.sol\":5697:5698  i */\n      dup3\n        /* \"contracts/TicTacToe.sol\":5691:5699  board[i] */\n      0xff\n      and\n      0x03\n      dup2\n      lt\n      tag_99\n      jumpi\n      tag_100\n      tag_61\n      jump\t// in\n    tag_100:\n    tag_99:\n      add\n        /* \"contracts/TicTacToe.sol\":5700:5701  0 */\n      0x00\n        /* \"contracts/TicTacToe.sol\":5691:5702  board[i][0] */\n      0x03\n      dup2\n      lt\n      tag_102\n      jumpi\n      tag_103\n      tag_61\n      jump\t// in\n    tag_103:\n    tag_102:\n      0x20\n      swap2\n      dup3\n      dup3\n      div\n      add\n      swap2\n      swap1\n      mod\n      swap1\n      sload\n      swap1\n      0x0100\n      exp\n      swap1\n      div\n      0xff\n      and\n        /* \"contracts/TicTacToe.sol\":5691:5712  board[i][0] == marker */\n      0xff\n      and\n      eq\n        /* \"contracts/TicTacToe.sol\":5691:5737  board[i][0] == marker && board[i][1] == marker */\n      dup1\n      iszero\n      tag_105\n      jumpi\n      pop\n        /* \"contracts/TicTacToe.sol\":5731:5737  marker */\n      dup2\n        /* \"contracts/TicTacToe.sol\":5716:5737  board[i][1] == marker */\n      0xff\n      and\n        /* \"contracts/TicTacToe.sol\":5716:5721  board */\n      0x00\n        /* \"contracts/TicTacToe.sol\":5722:5723  i */\n      dup3\n        /* \"contracts/TicTacToe.sol\":5716:5724  board[i] */\n      0xff\n      and\n      0x03\n      dup2\n      lt\n      tag_106\n      jumpi\n      tag_107\n      tag_61\n      jump\t// in\n    tag_107:\n    tag_106:\n      add\n        /* \"contracts/TicTacToe.sol\":5725:5726  1 */\n      0x01\n        /* \"contracts/TicTacToe.sol\":5716:5727  board[i][1] */\n      0x03\n      dup2\n      lt\n      tag_109\n      jumpi\n      tag_110\n      tag_61\n      jump\t// in\n    tag_110:\n    tag_109:\n      0x20\n      swap2\n      dup3\n      dup3\n      div\n      add\n      swap2\n      swap1\n      mod\n      swap1\n      sload\n      swap1\n      0x0100\n      exp\n      swap1\n      div\n      0xff\n      and\n        /* \"contracts/TicTacToe.sol\":5716:5737  board[i][1] == marker */\n      0xff\n      and\n      eq\n        /* \"contracts/TicTacToe.sol\":5691:5737  board[i][0] == marker && board[i][1] == marker */\n    tag_105:\n        /* \"contracts/TicTacToe.sol\":5691:5762  board[i][0] == marker && board[i][1] == marker && board[i][2] == marker */\n      dup1\n      iszero\n      tag_112\n      jumpi\n      pop\n        /* \"contracts/TicTacToe.sol\":5756:5762  marker */\n      dup2\n        /* \"contracts/TicTacToe.sol\":5741:5762  board[i][2] == marker */\n      0xff\n      and\n        /* \"contracts/TicTacToe.sol\":5741:5746  board */\n      0x00\n        /* \"contracts/TicTacToe.sol\":5747:5748  i */\n      dup3\n        /* \"contracts/TicTacToe.sol\":5741:5749  board[i] */\n      0xff\n      and\n      0x03\n      dup2\n      lt\n      tag_113\n      jumpi\n      tag_114\n      tag_61\n      jump\t// in\n    tag_114:\n    tag_113:\n      add\n        /* \"contracts/TicTacToe.sol\":5750:5751  2 */\n      0x02\n        /* \"contracts/TicTacToe.sol\":5741:5752  board[i][2] */\n      0x03\n      dup2\n      lt\n      tag_116\n      jumpi\n      tag_117\n      tag_61\n      jump\t// in\n    tag_117:\n    tag_116:\n      0x20\n      swap2\n      dup3\n      dup3\n      div\n      add\n      swap2\n      swap1\n      mod\n      swap1\n      sload\n      swap1\n      0x0100\n      exp\n      swap1\n      div\n      0xff\n      and\n        /* \"contracts/TicTacToe.sol\":5741:5762  board[i][2] == marker */\n      0xff\n      and\n      eq\n        /* \"contracts/TicTacToe.sol\":5691:5762  board[i][0] == marker && board[i][1] == marker && board[i][2] == marker */\n    tag_112:\n        /* \"contracts/TicTacToe.sol\":5687:5825  if (board[i][0] == marker && board[i][1] == marker && board[i][2] == marker) {... */\n      iszero\n      tag_119\n      jumpi\n        /* \"contracts/TicTacToe.sol\":5790:5809  endGameWithWinner() */\n      tag_120\n        /* \"contracts/TicTacToe.sol\":5790:5807  endGameWithWinner */\n      tag_121\n        /* \"contracts/TicTacToe.sol\":5790:5809  endGameWithWinner() */\n      jump\t// in\n    tag_120:\n        /* \"contracts/TicTacToe.sol\":5783:5809  return endGameWithWinner() */\n      pop\n      pop\n      jump(tag_93)\n        /* \"contracts/TicTacToe.sol\":5687:5825  if (board[i][0] == marker && board[i][1] == marker && board[i][2] == marker) {... */\n    tag_119:\n        /* \"contracts/TicTacToe.sol\":5858:5864  marker */\n      dup2\n        /* \"contracts/TicTacToe.sol\":5843:5864  board[0][i] == marker */\n      0xff\n      and\n        /* \"contracts/TicTacToe.sol\":5843:5848  board */\n      0x00\n        /* \"contracts/TicTacToe.sol\":5849:5850  0 */\n      0x00\n        /* \"contracts/TicTacToe.sol\":5843:5851  board[0] */\n      0x03\n      dup2\n      lt\n      tag_122\n      jumpi\n      tag_123\n      tag_61\n      jump\t// in\n    tag_123:\n    tag_122:\n      add\n        /* \"contracts/TicTacToe.sol\":5852:5853  i */\n      dup3\n        /* \"contracts/TicTacToe.sol\":5843:5854  board[0][i] */\n      0xff\n      and\n      0x03\n      dup2\n      lt\n      tag_125\n      jumpi\n      tag_126\n      tag_61\n      jump\t// in\n    tag_126:\n    tag_125:\n      0x20\n      swap2\n      dup3\n      dup3\n      div\n      add\n      swap2\n      swap1\n      mod\n      swap1\n      sload\n      swap1\n      0x0100\n      exp\n      swap1\n      div\n      0xff\n      and\n        /* \"contracts/TicTacToe.sol\":5843:5864  board[0][i] == marker */\n      0xff\n      and\n      eq\n        /* \"contracts/TicTacToe.sol\":5843:5889  board[0][i] == marker && board[1][i] == marker */\n      dup1\n      iszero\n      tag_128\n      jumpi\n      pop\n        /* \"contracts/TicTacToe.sol\":5883:5889  marker */\n      dup2\n        /* \"contracts/TicTacToe.sol\":5868:5889  board[1][i] == marker */\n      0xff\n      and\n        /* \"contracts/TicTacToe.sol\":5868:5873  board */\n      0x00\n        /* \"contracts/TicTacToe.sol\":5874:5875  1 */\n      0x01\n        /* \"contracts/TicTacToe.sol\":5868:5876  board[1] */\n      0x03\n      dup2\n      lt\n      tag_129\n      jumpi\n      tag_130\n      tag_61\n      jump\t// in\n    tag_130:\n    tag_129:\n      add\n        /* \"contracts/TicTacToe.sol\":5877:5878  i */\n      dup3\n        /* \"contracts/TicTacToe.sol\":5868:5879  board[1][i] */\n      0xff\n      and\n      0x03\n      dup2\n      lt\n      tag_132\n      jumpi\n      tag_133\n      tag_61\n      jump\t// in\n    tag_133:\n    tag_132:\n      0x20\n      swap2\n      dup3\n      dup3\n      div\n      add\n      swap2\n      swap1\n      mod\n      swap1\n      sload\n      swap1\n      0x0100\n      exp\n      swap1\n      div\n      0xff\n      and\n        /* \"contracts/TicTacToe.sol\":5868:5889  board[1][i] == marker */\n      0xff\n      and\n      eq\n        /* \"contracts/TicTacToe.sol\":5843:5889  board[0][i] == marker && board[1][i] == marker */\n    tag_128:\n        /* \"contracts/TicTacToe.sol\":5843:5914  board[0][i] == marker && board[1][i] == marker && board[2][i] == marker */\n      dup1\n      iszero\n      tag_135\n      jumpi\n      pop\n        /* \"contracts/TicTacToe.sol\":5908:5914  marker */\n      dup2\n        /* \"contracts/TicTacToe.sol\":5893:5914  board[2][i] == marker */\n      0xff\n      and\n        /* \"contracts/TicTacToe.sol\":5893:5898  board */\n      0x00\n        /* \"contracts/TicTacToe.sol\":5899:5900  2 */\n      0x02\n        /* \"contracts/TicTacToe.sol\":5893:5901  board[2] */\n      0x03\n      dup2\n      lt\n      tag_136\n      jumpi\n      tag_137\n      tag_61\n      jump\t// in\n    tag_137:\n    tag_136:\n      add\n        /* \"contracts/TicTacToe.sol\":5902:5903  i */\n      dup3\n        /* \"contracts/TicTacToe.sol\":5893:5904  board[2][i] */\n      0xff\n      and\n      0x03\n      dup2\n      lt\n      tag_139\n      jumpi\n      tag_140\n      tag_61\n      jump\t// in\n    tag_140:\n    tag_139:\n      0x20\n      swap2\n      dup3\n      dup3\n      div\n      add\n      swap2\n      swap1\n      mod\n      swap1\n      sload\n      swap1\n      0x0100\n      exp\n      swap1\n      div\n      0xff\n      and\n        /* \"contracts/TicTacToe.sol\":5893:5914  board[2][i] == marker */\n      0xff\n      and\n      eq\n        /* \"contracts/TicTacToe.sol\":5843:5914  board[0][i] == marker && board[1][i] == marker && board[2][i] == marker */\n    tag_135:\n        /* \"contracts/TicTacToe.sol\":5839:5977  if (board[0][i] == marker && board[1][i] == marker && board[2][i] == marker) {... */\n      iszero\n      tag_142\n      jumpi\n        /* \"contracts/TicTacToe.sol\":5942:5961  endGameWithWinner() */\n      tag_143\n        /* \"contracts/TicTacToe.sol\":5942:5959  endGameWithWinner */\n      tag_121\n        /* \"contracts/TicTacToe.sol\":5942:5961  endGameWithWinner() */\n      jump\t// in\n    tag_143:\n        /* \"contracts/TicTacToe.sol\":5935:5961  return endGameWithWinner() */\n      pop\n      pop\n      jump(tag_93)\n        /* \"contracts/TicTacToe.sol\":5839:5977  if (board[0][i] == marker && board[1][i] == marker && board[2][i] == marker) {... */\n    tag_142:\n        /* \"contracts/TicTacToe.sol\":5667:5670  i++ */\n      dup1\n      dup1\n      0x01\n      add\n      swap2\n      pop\n      pop\n        /* \"contracts/TicTacToe.sol\":5642:5988  for (uint8 i = 0; i < 3; i++) {... */\n      jump(tag_96)\n    tag_97:\n      pop\n        /* \"contracts/TicTacToe.sol\":6017:6023  marker */\n      dup1\n        /* \"contracts/TicTacToe.sol\":6002:6023  board[0][0] == marker */\n      0xff\n      and\n        /* \"contracts/TicTacToe.sol\":6002:6007  board */\n      0x00\n        /* \"contracts/TicTacToe.sol\":6008:6009  0 */\n      0x00\n        /* \"contracts/TicTacToe.sol\":6002:6010  board[0] */\n      0x03\n      dup2\n      lt\n      tag_144\n      jumpi\n      tag_145\n      tag_61\n      jump\t// in\n    tag_145:\n    tag_144:\n      add\n        /* \"contracts/TicTacToe.sol\":6011:6012  0 */\n      0x00\n        /* \"contracts/TicTacToe.sol\":6002:6013  board[0][0] */\n      0x03\n      dup2\n      lt\n      tag_147\n      jumpi\n      tag_148\n      tag_61\n      jump\t// in\n    tag_148:\n    tag_147:\n      0x20\n      swap2\n      dup3\n      dup3\n      div\n      add\n      swap2\n      swap1\n      mod\n      swap1\n      sload\n      swap1\n      0x0100\n      exp\n      swap1\n      div\n      0xff\n      and\n        /* \"contracts/TicTacToe.sol\":6002:6023  board[0][0] == marker */\n      0xff\n      and\n      eq\n        /* \"contracts/TicTacToe.sol\":6002:6048  board[0][0] == marker && board[1][1] == marker */\n      dup1\n      iszero\n      tag_150\n      jumpi\n      pop\n        /* \"contracts/TicTacToe.sol\":6042:6048  marker */\n      dup1\n        /* \"contracts/TicTacToe.sol\":6027:6048  board[1][1] == marker */\n      0xff\n      and\n        /* \"contracts/TicTacToe.sol\":6027:6032  board */\n      0x00\n        /* \"contracts/TicTacToe.sol\":6033:6034  1 */\n      0x01\n        /* \"contracts/TicTacToe.sol\":6027:6035  board[1] */\n      0x03\n      dup2\n      lt\n      tag_151\n      jumpi\n      tag_152\n      tag_61\n      jump\t// in\n    tag_152:\n    tag_151:\n      add\n        /* \"contracts/TicTacToe.sol\":6036:6037  1 */\n      0x01\n        /* \"contracts/TicTacToe.sol\":6027:6038  board[1][1] */\n      0x03\n      dup2\n      lt\n      tag_154\n      jumpi\n      tag_155\n      tag_61\n      jump\t// in\n    tag_155:\n    tag_154:\n      0x20\n      swap2\n      dup3\n      dup3\n      div\n      add\n      swap2\n      swap1\n      mod\n      swap1\n      sload\n      swap1\n      0x0100\n      exp\n      swap1\n      div\n      0xff\n      and\n        /* \"contracts/TicTacToe.sol\":6027:6048  board[1][1] == marker */\n      0xff\n      and\n      eq\n        /* \"contracts/TicTacToe.sol\":6002:6048  board[0][0] == marker && board[1][1] == marker */\n    tag_150:\n        /* \"contracts/TicTacToe.sol\":6002:6073  board[0][0] == marker && board[1][1] == marker && board[2][2] == marker */\n      dup1\n      iszero\n      tag_157\n      jumpi\n      pop\n        /* \"contracts/TicTacToe.sol\":6067:6073  marker */\n      dup1\n        /* \"contracts/TicTacToe.sol\":6052:6073  board[2][2] == marker */\n      0xff\n      and\n        /* \"contracts/TicTacToe.sol\":6052:6057  board */\n      0x00\n        /* \"contracts/TicTacToe.sol\":6058:6059  2 */\n      0x02\n        /* \"contracts/TicTacToe.sol\":6052:6060  board[2] */\n      0x03\n      dup2\n      lt\n      tag_158\n      jumpi\n      tag_159\n      tag_61\n      jump\t// in\n    tag_159:\n    tag_158:\n      add\n        /* \"contracts/TicTacToe.sol\":6061:6062  2 */\n      0x02\n        /* \"contracts/TicTacToe.sol\":6052:6063  board[2][2] */\n      0x03\n      dup2\n      lt\n      tag_161\n      jumpi\n      tag_162\n      tag_61\n      jump\t// in\n    tag_162:\n    tag_161:\n      0x20\n      swap2\n      dup3\n      dup3\n      div\n      add\n      swap2\n      swap1\n      mod\n      swap1\n      sload\n      swap1\n      0x0100\n      exp\n      swap1\n      div\n      0xff\n      and\n        /* \"contracts/TicTacToe.sol\":6052:6073  board[2][2] == marker */\n      0xff\n      and\n      eq\n        /* \"contracts/TicTacToe.sol\":6002:6073  board[0][0] == marker && board[1][1] == marker && board[2][2] == marker */\n    tag_157:\n        /* \"contracts/TicTacToe.sol\":5998:6264  if (board[0][0] == marker && board[1][1] == marker && board[2][2] == marker) {... */\n      iszero\n      tag_164\n      jumpi\n        /* \"contracts/TicTacToe.sol\":6097:6116  endGameWithWinner() */\n      tag_165\n        /* \"contracts/TicTacToe.sol\":6097:6114  endGameWithWinner */\n      tag_121\n        /* \"contracts/TicTacToe.sol\":6097:6116  endGameWithWinner() */\n      jump\t// in\n    tag_165:\n        /* \"contracts/TicTacToe.sol\":6090:6116  return endGameWithWinner() */\n      pop\n      jump(tag_93)\n        /* \"contracts/TicTacToe.sol\":5998:6264  if (board[0][0] == marker && board[1][1] == marker && board[2][2] == marker) {... */\n    tag_164:\n        /* \"contracts/TicTacToe.sol\":6153:6159  marker */\n      dup1\n        /* \"contracts/TicTacToe.sol\":6138:6159  board[0][2] == marker */\n      0xff\n      and\n        /* \"contracts/TicTacToe.sol\":6138:6143  board */\n      0x00\n        /* \"contracts/TicTacToe.sol\":6144:6145  0 */\n      0x00\n        /* \"contracts/TicTacToe.sol\":6138:6146  board[0] */\n      0x03\n      dup2\n      lt\n      tag_167\n      jumpi\n      tag_168\n      tag_61\n      jump\t// in\n    tag_168:\n    tag_167:\n      add\n        /* \"contracts/TicTacToe.sol\":6147:6148  2 */\n      0x02\n        /* \"contracts/TicTacToe.sol\":6138:6149  board[0][2] */\n      0x03\n      dup2\n      lt\n      tag_170\n      jumpi\n      tag_171\n      tag_61\n      jump\t// in\n    tag_171:\n    tag_170:\n      0x20\n      swap2\n      dup3\n      dup3\n      div\n      add\n      swap2\n      swap1\n      mod\n      swap1\n      sload\n      swap1\n      0x0100\n      exp\n      swap1\n      div\n      0xff\n      and\n        /* \"contracts/TicTacToe.sol\":6138:6159  board[0][2] == marker */\n      0xff\n      and\n      eq\n        /* \"contracts/TicTacToe.sol\":6138:6184  board[0][2] == marker && board[1][1] == marker */\n      dup1\n      iszero\n      tag_173\n      jumpi\n      pop\n        /* \"contracts/TicTacToe.sol\":6178:6184  marker */\n      dup1\n        /* \"contracts/TicTacToe.sol\":6163:6184  board[1][1] == marker */\n      0xff\n      and\n        /* \"contracts/TicTacToe.sol\":6163:6168  board */\n      0x00\n        /* \"contracts/TicTacToe.sol\":6169:6170  1 */\n      0x01\n        /* \"contracts/TicTacToe.sol\":6163:6171  board[1] */\n      0x03\n      dup2\n      lt\n      tag_174\n      jumpi\n      tag_175\n      tag_61\n      jump\t// in\n    tag_175:\n    tag_174:\n      add\n        /* \"contracts/TicTacToe.sol\":6172:6173  1 */\n      0x01\n        /* \"contracts/TicTacToe.sol\":6163:6174  board[1][1] */\n      0x03\n      dup2\n      lt\n      tag_177\n      jumpi\n      tag_178\n      tag_61\n      jump\t// in\n    tag_178:\n    tag_177:\n      0x20\n      swap2\n      dup3\n      dup3\n      div\n      add\n      swap2\n      swap1\n      mod\n      swap1\n      sload\n      swap1\n      0x0100\n      exp\n      swap1\n      div\n      0xff\n      and\n        /* \"contracts/TicTacToe.sol\":6163:6184  board[1][1] == marker */\n      0xff\n      and\n      eq\n        /* \"contracts/TicTacToe.sol\":6138:6184  board[0][2] == marker && board[1][1] == marker */\n    tag_173:\n        /* \"contracts/TicTacToe.sol\":6138:6209  board[0][2] == marker && board[1][1] == marker && board[2][0] == marker */\n      dup1\n      iszero\n      tag_180\n      jumpi\n      pop\n        /* \"contracts/TicTacToe.sol\":6203:6209  marker */\n      dup1\n        /* \"contracts/TicTacToe.sol\":6188:6209  board[2][0] == marker */\n      0xff\n      and\n        /* \"contracts/TicTacToe.sol\":6188:6193  board */\n      0x00\n        /* \"contracts/TicTacToe.sol\":6194:6195  2 */\n      0x02\n        /* \"contracts/TicTacToe.sol\":6188:6196  board[2] */\n      0x03\n      dup2\n      lt\n      tag_181\n      jumpi\n      tag_182\n      tag_61\n      jump\t// in\n    tag_182:\n    tag_181:\n      add\n        /* \"contracts/TicTacToe.sol\":6197:6198  0 */\n      0x00\n        /* \"contracts/TicTacToe.sol\":6188:6199  board[2][0] */\n      0x03\n      dup2\n      lt\n      tag_184\n      jumpi\n      tag_185\n      tag_61\n      jump\t// in\n    tag_185:\n    tag_184:\n      0x20\n      swap2\n      dup3\n      dup3\n      div\n      add\n      swap2\n      swap1\n      mod\n      swap1\n      sload\n      swap1\n      0x0100\n      exp\n      swap1\n      div\n      0xff\n      and\n        /* \"contracts/TicTacToe.sol\":6188:6209  board[2][0] == marker */\n      0xff\n      and\n      eq\n        /* \"contracts/TicTacToe.sol\":6138:6209  board[0][2] == marker && board[1][1] == marker && board[2][0] == marker */\n    tag_180:\n        /* \"contracts/TicTacToe.sol\":6134:6264  if (board[0][2] == marker && board[1][1] == marker && board[2][0] == marker) {... */\n      iszero\n      tag_187\n      jumpi\n        /* \"contracts/TicTacToe.sol\":6233:6252  endGameWithWinner() */\n      tag_188\n        /* \"contracts/TicTacToe.sol\":6233:6250  endGameWithWinner */\n      tag_121\n        /* \"contracts/TicTacToe.sol\":6233:6252  endGameWithWinner() */\n      jump\t// in\n    tag_188:\n        /* \"contracts/TicTacToe.sol\":6226:6252  return endGameWithWinner() */\n      pop\n      jump(tag_93)\n        /* \"contracts/TicTacToe.sol\":6134:6264  if (board[0][2] == marker && board[1][1] == marker && board[2][0] == marker) {... */\n    tag_187:\n        /* \"contracts/TicTacToe.sol\":6346:6363  uint8 filledCells */\n      0x00\n        /* \"contracts/TicTacToe.sol\":6366:6367  0 */\n      0x00\n        /* \"contracts/TicTacToe.sol\":6346:6367  uint8 filledCells = 0 */\n      swap1\n      pop\n        /* \"contracts/TicTacToe.sol\":6383:6389  uint i */\n      0x00\n        /* \"contracts/TicTacToe.sol\":6392:6393  0 */\n      0x00\n        /* \"contracts/TicTacToe.sol\":6383:6393  uint i = 0 */\n      swap1\n      pop\n        /* \"contracts/TicTacToe.sol\":6378:6533  for (uint i = 0; i < 3; i++) {... */\n    tag_189:\n        /* \"contracts/TicTacToe.sol\":6399:6400  3 */\n      0x03\n        /* \"contracts/TicTacToe.sol\":6395:6396  i */\n      dup2\n        /* \"contracts/TicTacToe.sol\":6395:6400  i < 3 */\n      lt\n        /* \"contracts/TicTacToe.sol\":6378:6533  for (uint i = 0; i < 3; i++) {... */\n      iszero\n      tag_190\n      jumpi\n        /* \"contracts/TicTacToe.sol\":6427:6434  uint8 j */\n      0x00\n        /* \"contracts/TicTacToe.sol\":6437:6438  0 */\n      0x00\n        /* \"contracts/TicTacToe.sol\":6427:6438  uint8 j = 0 */\n      swap1\n      pop\n        /* \"contracts/TicTacToe.sol\":6422:6522  for (uint8 j = 0; j < 3; j++) {... */\n    tag_192:\n        /* \"contracts/TicTacToe.sol\":6444:6445  3 */\n      0x03\n        /* \"contracts/TicTacToe.sol\":6440:6441  j */\n      dup2\n        /* \"contracts/TicTacToe.sol\":6440:6445  j < 3 */\n      0xff\n      and\n      lt\n        /* \"contracts/TicTacToe.sol\":6422:6522  for (uint8 j = 0; j < 3; j++) {... */\n      iszero\n      tag_193\n      jumpi\n        /* \"contracts/TicTacToe.sol\":6490:6491  0 */\n      0x00\n        /* \"contracts/TicTacToe.sol\":6475:6480  board */\n      0x00\n        /* \"contracts/TicTacToe.sol\":6481:6482  i */\n      dup4\n        /* \"contracts/TicTacToe.sol\":6475:6483  board[i] */\n      0x03\n      dup2\n      lt\n      tag_195\n      jumpi\n      tag_196\n      tag_61\n      jump\t// in\n    tag_196:\n    tag_195:\n      add\n        /* \"contracts/TicTacToe.sol\":6484:6485  j */\n      dup3\n        /* \"contracts/TicTacToe.sol\":6475:6486  board[i][j] */\n      0xff\n      and\n      0x03\n      dup2\n      lt\n      tag_198\n      jumpi\n      tag_199\n      tag_61\n      jump\t// in\n    tag_199:\n    tag_198:\n      0x20\n      swap2\n      dup3\n      dup3\n      div\n      add\n      swap2\n      swap1\n      mod\n      swap1\n      sload\n      swap1\n      0x0100\n      exp\n      swap1\n      div\n      0xff\n      and\n        /* \"contracts/TicTacToe.sol\":6475:6491  board[i][j] != 0 */\n      0xff\n      and\n      eq\n        /* \"contracts/TicTacToe.sol\":6471:6506  if (board[i][j] != 0) filledCells++ */\n      tag_201\n      jumpi\n        /* \"contracts/TicTacToe.sol\":6493:6506  filledCells++ */\n      dup3\n      dup1\n      tag_202\n      swap1\n      tag_203\n      jump\t// in\n    tag_202:\n      swap4\n      pop\n      pop\n        /* \"contracts/TicTacToe.sol\":6471:6506  if (board[i][j] != 0) filledCells++ */\n    tag_201:\n        /* \"contracts/TicTacToe.sol\":6447:6450  j++ */\n      dup1\n      dup1\n      0x01\n      add\n      swap2\n      pop\n      pop\n        /* \"contracts/TicTacToe.sol\":6422:6522  for (uint8 j = 0; j < 3; j++) {... */\n      jump(tag_192)\n    tag_193:\n      pop\n        /* \"contracts/TicTacToe.sol\":6402:6405  i++ */\n      dup1\n      dup1\n      0x01\n      add\n      swap2\n      pop\n      pop\n        /* \"contracts/TicTacToe.sol\":6378:6533  for (uint i = 0; i < 3; i++) {... */\n      jump(tag_189)\n    tag_190:\n      pop\n        /* \"contracts/TicTacToe.sol\":6612:6613  9 */\n      0x09\n        /* \"contracts/TicTacToe.sol\":6597:6608  filledCells */\n      dup2\n        /* \"contracts/TicTacToe.sol\":6597:6613  filledCells == 9 */\n      0xff\n      and\n      sub\n        /* \"contracts/TicTacToe.sol\":6593:6730  if (filledCells == 9) {... */\n      tag_204\n      jumpi\n        /* \"contracts/TicTacToe.sol\":6643:6647  true */\n      0x01\n        /* \"contracts/TicTacToe.sol\":6630:6640  isGameOver */\n      0x05\n      0x14\n        /* \"contracts/TicTacToe.sol\":6630:6647  isGameOver = true */\n      0x0100\n      exp\n      dup2\n      sload\n      dup2\n      0xff\n      mul\n      not\n      and\n      swap1\n      dup4\n      iszero\n      iszero\n      mul\n      or\n      swap1\n      sstore\n      pop\n        /* \"contracts/TicTacToe.sol\":6679:6680  0 */\n      0x00\n        /* \"contracts/TicTacToe.sol\":6662:6668  winner */\n      0x06\n      0x00\n        /* \"contracts/TicTacToe.sol\":6662:6681  winner = address(0) */\n      0x0100\n      exp\n      dup2\n      sload\n      dup2\n      0xffffffffffffffffffffffffffffffffffffffff\n      mul\n      not\n      and\n      swap1\n      dup4\n      0xffffffffffffffffffffffffffffffffffffffff\n      and\n      mul\n      or\n      swap1\n      sstore\n      pop\n        /* \"contracts/TicTacToe.sol\":6711:6717  winner */\n      0x06\n      0x00\n      swap1\n      sload\n      swap1\n      0x0100\n      exp\n      swap1\n      div\n      0xffffffffffffffffffffffffffffffffffffffff\n      and\n        /* \"contracts/TicTacToe.sol\":6701:6718  GameEnded(winner) */\n      0xffffffffffffffffffffffffffffffffffffffff\n      and\n      0x51b77d00d3c0b7e376e9ee146711ceb2c08e58a5dbe38055a618e52109f720c1\n      mload(0x40)\n      mload(0x40)\n      dup1\n      swap2\n      sub\n      swap1\n      log2\n        /* \"contracts/TicTacToe.sol\":6593:6730  if (filledCells == 9) {... */\n    tag_204:\n        /* \"contracts/TicTacToe.sol\":5359:6737  {... */\n      pop\n      pop\n        /* \"contracts/TicTacToe.sol\":5331:6737  function checkWin() private {... */\n    tag_93:\n      jump\t// out\n        /* \"contracts/TicTacToe.sol\":5062:5179  function switchTurn() private { ... */\n    tag_87:\n        /* \"contracts/TicTacToe.sol\":5118:5125  playerX */\n      0x03\n      0x00\n      swap1\n      sload\n      swap1\n      0x0100\n      exp\n      swap1\n      div\n      0xffffffffffffffffffffffffffffffffffffffff\n      and\n        /* \"contracts/TicTacToe.sol\":5104:5125  nextPlayer == playerX */\n      0xffffffffffffffffffffffffffffffffffffffff\n      and\n        /* \"contracts/TicTacToe.sol\":5104:5114  nextPlayer */\n      0x05\n      0x00\n      swap1\n      sload\n      swap1\n      0x0100\n      exp\n      swap1\n      div\n      0xffffffffffffffffffffffffffffffffffffffff\n      and\n        /* \"contracts/TicTacToe.sol\":5104:5125  nextPlayer == playerX */\n      0xffffffffffffffffffffffffffffffffffffffff\n      and\n      eq\n        /* \"contracts/TicTacToe.sol\":5104:5171  nextPlayer == playerX ? nextPlayer = playerO : nextPlayer = playerX */\n      tag_206\n      jumpi\n        /* \"contracts/TicTacToe.sol\":5164:5171  playerX */\n      0x03\n      0x00\n      swap1\n      sload\n      swap1\n      0x0100\n      exp\n      swap1\n      div\n      0xffffffffffffffffffffffffffffffffffffffff\n      and\n        /* \"contracts/TicTacToe.sol\":5151:5161  nextPlayer */\n      0x05\n      0x00\n        /* \"contracts/TicTacToe.sol\":5151:5171  nextPlayer = playerX */\n      0x0100\n      exp\n      dup2\n      sload\n      dup2\n      0xffffffffffffffffffffffffffffffffffffffff\n      mul\n      not\n      and\n      swap1\n      dup4\n      0xffffffffffffffffffffffffffffffffffffffff\n      and\n      mul\n      or\n      swap1\n      sstore\n        /* \"contracts/TicTacToe.sol\":5104:5171  nextPlayer == playerX ? nextPlayer = playerO : nextPlayer = playerX */\n      jump(tag_207)\n    tag_206:\n        /* \"contracts/TicTacToe.sol\":5141:5148  playerO */\n      0x04\n      0x00\n      swap1\n      sload\n      swap1\n      0x0100\n      exp\n      swap1\n      div\n      0xffffffffffffffffffffffffffffffffffffffff\n      and\n        /* \"contracts/TicTacToe.sol\":5128:5138  nextPlayer */\n      0x05\n      0x00\n        /* \"contracts/TicTacToe.sol\":5128:5148  nextPlayer = playerO */\n      0x0100\n      exp\n      dup2\n      sload\n      dup2\n      0xffffffffffffffffffffffffffffffffffffffff\n      mul\n      not\n      and\n      swap1\n      dup4\n      0xffffffffffffffffffffffffffffffffffffffff\n      and\n      mul\n      or\n      swap1\n      sstore\n        /* \"contracts/TicTacToe.sol\":5104:5171  nextPlayer == playerX ? nextPlayer = playerO : nextPlayer = playerX */\n    tag_207:\n      pop\n        /* \"contracts/TicTacToe.sol\":5062:5179  function switchTurn() private { ... */\n      jump\t// out\n        /* \"contracts/TicTacToe.sol\":5187:5323  function endGameWithWinner() private {... */\n    tag_121:\n        /* \"contracts/TicTacToe.sol\":5248:5252  true */\n      0x01\n        /* \"contracts/TicTacToe.sol\":5235:5245  isGameOver */\n      0x05\n      0x14\n        /* \"contracts/TicTacToe.sol\":5235:5252  isGameOver = true */\n      0x0100\n      exp\n      dup2\n      sload\n      dup2\n      0xff\n      mul\n      not\n      and\n      swap1\n      dup4\n      iszero\n      iszero\n      mul\n      or\n      swap1\n      sstore\n      pop\n        /* \"contracts/TicTacToe.sol\":5272:5282  msg.sender */\n      caller\n        /* \"contracts/TicTacToe.sol\":5263:5269  winner */\n      0x06\n      0x00\n        /* \"contracts/TicTacToe.sol\":5263:5282  winner = msg.sender */\n      0x0100\n      exp\n      dup2\n      sload\n      dup2\n      0xffffffffffffffffffffffffffffffffffffffff\n      mul\n      not\n      and\n      swap1\n      dup4\n      0xffffffffffffffffffffffffffffffffffffffff\n      and\n      mul\n      or\n      swap1\n      sstore\n      pop\n        /* \"contracts/TicTacToe.sol\":5308:5314  winner */\n      0x06\n      0x00\n      swap1\n      sload\n      swap1\n      0x0100\n      exp\n      swap1\n      div\n      0xffffffffffffffffffffffffffffffffffffffff\n      and\n        /* \"contracts/TicTacToe.sol\":5298:5315  GameEnded(winner) */\n      0xffffffffffffffffffffffffffffffffffffffff\n      and\n      0x51b77d00d3c0b7e376e9ee146711ceb2c08e58a5dbe38055a618e52109f720c1\n      mload(0x40)\n      mload(0x40)\n      dup1\n      swap2\n      sub\n      swap1\n      log2\n        /* \"contracts/TicTacToe.sol\":5187:5323  function endGameWithWinner() private {... */\n      jump\t// out\n    tag_41:\n      mload(0x40)\n      dup1\n      0x60\n      add\n      0x40\n      mstore\n      dup1\n      0x03\n      swap1\n    tag_209:\n      tag_210\n      tag_211\n      jump\t// in\n    tag_210:\n      dup2\n      mstore\n      0x20\n      add\n      swap1\n      0x01\n      swap1\n      sub\n      swap1\n      dup2\n      tag_209\n      jumpi\n      swap1\n      pop\n      pop\n      swap1\n      jump\t// out\n    tag_211:\n      mload(0x40)\n      dup1\n      0x60\n      add\n      0x40\n      mstore\n      dup1\n      0x03\n      swap1\n      0x20\n      dup3\n      mul\n      dup1\n      calldatasize\n      dup4\n      calldatacopy\n      dup1\n      dup3\n      add\n      swap2\n      pop\n      pop\n      swap1\n      pop\n      pop\n      swap1\n      jump\t// out\n        /* \"#utility.yul\":7:133   */\n    tag_212:\n        /* \"#utility.yul\":44:51   */\n      0x00\n        /* \"#utility.yul\":84:126   */\n      0xffffffffffffffffffffffffffffffffffffffff\n        /* \"#utility.yul\":77:82   */\n      dup3\n        /* \"#utility.yul\":73:127   */\n      and\n        /* \"#utility.yul\":62:127   */\n      swap1\n      pop\n        /* \"#utility.yul\":7:133   */\n      swap2\n      swap1\n      pop\n      jump\t// out\n        /* \"#utility.yul\":139:235   */\n    tag_213:\n        /* \"#utility.yul\":176:183   */\n      0x00\n        /* \"#utility.yul\":205:229   */\n      tag_253\n        /* \"#utility.yul\":223:228   */\n      dup3\n        /* \"#utility.yul\":205:229   */\n      tag_212\n      jump\t// in\n    tag_253:\n        /* \"#utility.yul\":194:229   */\n      swap1\n      pop\n        /* \"#utility.yul\":139:235   */\n      swap2\n      swap1\n      pop\n      jump\t// out\n        /* \"#utility.yul\":241:359   */\n    tag_214:\n        /* \"#utility.yul\":328:352   */\n      tag_255\n        /* \"#utility.yul\":346:351   */\n      dup2\n        /* \"#utility.yul\":328:352   */\n      tag_213\n      jump\t// in\n    tag_255:\n        /* \"#utility.yul\":323:326   */\n      dup3\n        /* \"#utility.yul\":316:353   */\n      mstore\n        /* \"#utility.yul\":241:359   */\n      pop\n      pop\n      jump\t// out\n        /* \"#utility.yul\":365:587   */\n    tag_14:\n        /* \"#utility.yul\":458:462   */\n      0x00\n        /* \"#utility.yul\":496:498   */\n      0x20\n        /* \"#utility.yul\":485:494   */\n      dup3\n        /* \"#utility.yul\":481:499   */\n      add\n        /* \"#utility.yul\":473:499   */\n      swap1\n      pop\n        /* \"#utility.yul\":509:580   */\n      tag_257\n        /* \"#utility.yul\":577:578   */\n      0x00\n        /* \"#utility.yul\":566:575   */\n      dup4\n        /* \"#utility.yul\":562:579   */\n      add\n        /* \"#utility.yul\":553:559   */\n      dup5\n        /* \"#utility.yul\":509:580   */\n      tag_214\n      jump\t// in\n    tag_257:\n        /* \"#utility.yul\":365:587   */\n      swap3\n      swap2\n      pop\n      pop\n      jump\t// out\n        /* \"#utility.yul\":593:683   */\n    tag_215:\n        /* \"#utility.yul\":627:634   */\n      0x00\n        /* \"#utility.yul\":670:675   */\n      dup2\n        /* \"#utility.yul\":663:676   */\n      iszero\n        /* \"#utility.yul\":656:677   */\n      iszero\n        /* \"#utility.yul\":645:677   */\n      swap1\n      pop\n        /* \"#utility.yul\":593:683   */\n      swap2\n      swap1\n      pop\n      jump\t// out\n        /* \"#utility.yul\":689:798   */\n    tag_216:\n        /* \"#utility.yul\":770:791   */\n      tag_260\n        /* \"#utility.yul\":785:790   */\n      dup2\n        /* \"#utility.yul\":770:791   */\n      tag_215\n      jump\t// in\n    tag_260:\n        /* \"#utility.yul\":765:768   */\n      dup3\n        /* \"#utility.yul\":758:792   */\n      mstore\n        /* \"#utility.yul\":689:798   */\n      pop\n      pop\n      jump\t// out\n        /* \"#utility.yul\":804:1014   */\n    tag_18:\n        /* \"#utility.yul\":891:895   */\n      0x00\n        /* \"#utility.yul\":929:931   */\n      0x20\n        /* \"#utility.yul\":918:927   */\n      dup3\n        /* \"#utility.yul\":914:932   */\n      add\n        /* \"#utility.yul\":906:932   */\n      swap1\n      pop\n        /* \"#utility.yul\":942:1007   */\n      tag_262\n        /* \"#utility.yul\":1004:1005   */\n      0x00\n        /* \"#utility.yul\":993:1002   */\n      dup4\n        /* \"#utility.yul\":989:1006   */\n      add\n        /* \"#utility.yul\":980:986   */\n      dup5\n        /* \"#utility.yul\":942:1007   */\n      tag_216\n      jump\t// in\n    tag_262:\n        /* \"#utility.yul\":804:1014   */\n      swap3\n      swap2\n      pop\n      pop\n      jump\t// out\n        /* \"#utility.yul\":1020:1145   */\n    tag_217:\n        /* \"#utility.yul\":1106:1112   */\n      0x00\n        /* \"#utility.yul\":1134:1138   */\n      0x03\n        /* \"#utility.yul\":1124:1138   */\n      swap1\n      pop\n        /* \"#utility.yul\":1020:1145   */\n      swap2\n      swap1\n      pop\n      jump\t// out\n        /* \"#utility.yul\":1151:1315   */\n    tag_218:\n        /* \"#utility.yul\":1269:1280   */\n      0x00\n        /* \"#utility.yul\":1306:1309   */\n      dup2\n        /* \"#utility.yul\":1291:1309   */\n      swap1\n      pop\n        /* \"#utility.yul\":1151:1315   */\n      swap3\n      swap2\n      pop\n      pop\n      jump\t// out\n        /* \"#utility.yul\":1321:1440   */\n    tag_219:\n        /* \"#utility.yul\":1407:1411   */\n      0x00\n        /* \"#utility.yul\":1430:1433   */\n      dup2\n        /* \"#utility.yul\":1422:1433   */\n      swap1\n      pop\n        /* \"#utility.yul\":1321:1440   */\n      swap2\n      swap1\n      pop\n      jump\t// out\n        /* \"#utility.yul\":1446:1548   */\n    tag_220:\n        /* \"#utility.yul\":1509:1515   */\n      0x00\n        /* \"#utility.yul\":1537:1541   */\n      0x03\n        /* \"#utility.yul\":1527:1541   */\n      swap1\n      pop\n        /* \"#utility.yul\":1446:1548   */\n      swap2\n      swap1\n      pop\n      jump\t// out\n        /* \"#utility.yul\":1554:1685   */\n    tag_221:\n        /* \"#utility.yul\":1639:1650   */\n      0x00\n        /* \"#utility.yul\":1676:1679   */\n      dup2\n        /* \"#utility.yul\":1661:1679   */\n      swap1\n      pop\n        /* \"#utility.yul\":1554:1685   */\n      swap3\n      swap2\n      pop\n      pop\n      jump\t// out\n        /* \"#utility.yul\":1691:1787   */\n    tag_222:\n        /* \"#utility.yul\":1754:1758   */\n      0x00\n        /* \"#utility.yul\":1777:1780   */\n      dup2\n        /* \"#utility.yul\":1769:1780   */\n      swap1\n      pop\n        /* \"#utility.yul\":1691:1787   */\n      swap2\n      swap1\n      pop\n      jump\t// out\n        /* \"#utility.yul\":1793:1879   */\n    tag_223:\n        /* \"#utility.yul\":1828:1835   */\n      0x00\n        /* \"#utility.yul\":1868:1872   */\n      0xff\n        /* \"#utility.yul\":1861:1866   */\n      dup3\n        /* \"#utility.yul\":1857:1873   */\n      and\n        /* \"#utility.yul\":1846:1873   */\n      swap1\n      pop\n        /* \"#utility.yul\":1793:1879   */\n      swap2\n      swap1\n      pop\n      jump\t// out\n        /* \"#utility.yul\":1885:1987   */\n    tag_224:\n        /* \"#utility.yul\":1958:1980   */\n      tag_271\n        /* \"#utility.yul\":1974:1979   */\n      dup2\n        /* \"#utility.yul\":1958:1980   */\n      tag_223\n      jump\t// in\n    tag_271:\n        /* \"#utility.yul\":1953:1956   */\n      dup3\n        /* \"#utility.yul\":1946:1981   */\n      mstore\n        /* \"#utility.yul\":1885:1987   */\n      pop\n      pop\n      jump\t// out\n        /* \"#utility.yul\":1993:2164   */\n    tag_225:\n        /* \"#utility.yul\":2058:2068   */\n      0x00\n        /* \"#utility.yul\":2079:2121   */\n      tag_273\n        /* \"#utility.yul\":2117:2120   */\n      dup4\n        /* \"#utility.yul\":2109:2115   */\n      dup4\n        /* \"#utility.yul\":2079:2121   */\n      tag_224\n      jump\t// in\n    tag_273:\n        /* \"#utility.yul\":2153:2157   */\n      0x20\n        /* \"#utility.yul\":2148:2151   */\n      dup4\n        /* \"#utility.yul\":2144:2158   */\n      add\n        /* \"#utility.yul\":2130:2158   */\n      swap1\n      pop\n        /* \"#utility.yul\":1993:2164   */\n      swap3\n      swap2\n      pop\n      pop\n      jump\t// out\n        /* \"#utility.yul\":2170:2279   */\n    tag_226:\n        /* \"#utility.yul\":2236:2240   */\n      0x00\n        /* \"#utility.yul\":2268:2272   */\n      0x20\n        /* \"#utility.yul\":2263:2266   */\n      dup3\n        /* \"#utility.yul\":2259:2273   */\n      add\n        /* \"#utility.yul\":2251:2273   */\n      swap1\n      pop\n        /* \"#utility.yul\":2170:2279   */\n      swap2\n      swap1\n      pop\n      jump\t// out\n        /* \"#utility.yul\":2313:2971   */\n    tag_227:\n        /* \"#utility.yul\":2435:2485   */\n      tag_276\n        /* \"#utility.yul\":2479:2484   */\n      dup2\n        /* \"#utility.yul\":2435:2485   */\n      tag_220\n      jump\t// in\n    tag_276:\n        /* \"#utility.yul\":2501:2573   */\n      tag_277\n        /* \"#utility.yul\":2566:2572   */\n      dup2\n        /* \"#utility.yul\":2561:2564   */\n      dup5\n        /* \"#utility.yul\":2501:2573   */\n      tag_221\n      jump\t// in\n    tag_277:\n        /* \"#utility.yul\":2494:2573   */\n      swap3\n      pop\n        /* \"#utility.yul\":2597:2649   */\n      tag_278\n        /* \"#utility.yul\":2643:2648   */\n      dup3\n        /* \"#utility.yul\":2597:2649   */\n      tag_222\n      jump\t// in\n    tag_278:\n        /* \"#utility.yul\":2672:2679   */\n      dup1\n        /* \"#utility.yul\":2703:2704   */\n      0x00\n        /* \"#utility.yul\":2688:2964   */\n    tag_279:\n        /* \"#utility.yul\":2713:2719   */\n      dup4\n        /* \"#utility.yul\":2710:2711   */\n      dup2\n        /* \"#utility.yul\":2707:2720   */\n      lt\n        /* \"#utility.yul\":2688:2964   */\n      iszero\n      tag_281\n      jumpi\n        /* \"#utility.yul\":2789:2795   */\n      dup2\n        /* \"#utility.yul\":2783:2796   */\n      mload\n        /* \"#utility.yul\":2816:2875   */\n      tag_282\n        /* \"#utility.yul\":2871:2874   */\n      dup8\n        /* \"#utility.yul\":2856:2869   */\n      dup3\n        /* \"#utility.yul\":2816:2875   */\n      tag_225\n      jump\t// in\n    tag_282:\n        /* \"#utility.yul\":2809:2875   */\n      swap7\n      pop\n        /* \"#utility.yul\":2898:2954   */\n      tag_283\n        /* \"#utility.yul\":2947:2953   */\n      dup4\n        /* \"#utility.yul\":2898:2954   */\n      tag_226\n      jump\t// in\n    tag_283:\n        /* \"#utility.yul\":2888:2954   */\n      swap3\n      pop\n        /* \"#utility.yul\":2748:2964   */\n      pop\n        /* \"#utility.yul\":2735:2736   */\n      0x01\n        /* \"#utility.yul\":2732:2733   */\n      dup2\n        /* \"#utility.yul\":2728:2737   */\n      add\n        /* \"#utility.yul\":2723:2737   */\n      swap1\n      pop\n        /* \"#utility.yul\":2688:2964   */\n      jump(tag_279)\n    tag_281:\n        /* \"#utility.yul\":2692:2706   */\n      pop\n        /* \"#utility.yul\":2411:2971   */\n      pop\n      pop\n      pop\n        /* \"#utility.yul\":2313:2971   */\n      pop\n      pop\n      jump\t// out\n        /* \"#utility.yul\":2977:3240   */\n    tag_228:\n        /* \"#utility.yul\":3088:3098   */\n      0x00\n        /* \"#utility.yul\":3109:3197   */\n      tag_285\n        /* \"#utility.yul\":3193:3196   */\n      dup4\n        /* \"#utility.yul\":3185:3191   */\n      dup4\n        /* \"#utility.yul\":3109:3197   */\n      tag_227\n      jump\t// in\n    tag_285:\n        /* \"#utility.yul\":3229:3233   */\n      0x60\n        /* \"#utility.yul\":3224:3227   */\n      dup4\n        /* \"#utility.yul\":3220:3234   */\n      add\n        /* \"#utility.yul\":3206:3234   */\n      swap1\n      pop\n        /* \"#utility.yul\":2977:3240   */\n      swap3\n      swap2\n      pop\n      pop\n      jump\t// out\n        /* \"#utility.yul\":3246:3378   */\n    tag_229:\n        /* \"#utility.yul\":3335:3339   */\n      0x00\n        /* \"#utility.yul\":3367:3371   */\n      0x20\n        /* \"#utility.yul\":3362:3365   */\n      dup3\n        /* \"#utility.yul\":3358:3372   */\n      add\n        /* \"#utility.yul\":3350:3372   */\n      swap1\n      pop\n        /* \"#utility.yul\":3246:3378   */\n      swap2\n      swap1\n      pop\n      jump\t// out\n        /* \"#utility.yul\":3418:4280   */\n    tag_230:\n        /* \"#utility.yul\":3596:3669   */\n      tag_288\n        /* \"#utility.yul\":3663:3668   */\n      dup2\n        /* \"#utility.yul\":3596:3669   */\n      tag_217\n      jump\t// in\n    tag_288:\n        /* \"#utility.yul\":3685:3790   */\n      tag_289\n        /* \"#utility.yul\":3783:3789   */\n      dup2\n        /* \"#utility.yul\":3778:3781   */\n      dup5\n        /* \"#utility.yul\":3685:3790   */\n      tag_218\n      jump\t// in\n    tag_289:\n        /* \"#utility.yul\":3678:3790   */\n      swap3\n      pop\n        /* \"#utility.yul\":3814:3889   */\n      tag_290\n        /* \"#utility.yul\":3883:3888   */\n      dup3\n        /* \"#utility.yul\":3814:3889   */\n      tag_219\n      jump\t// in\n    tag_290:\n        /* \"#utility.yul\":3912:3919   */\n      dup1\n        /* \"#utility.yul\":3943:3944   */\n      0x00\n        /* \"#utility.yul\":3928:4273   */\n    tag_291:\n        /* \"#utility.yul\":3953:3959   */\n      dup4\n        /* \"#utility.yul\":3950:3951   */\n      dup2\n        /* \"#utility.yul\":3947:3960   */\n      lt\n        /* \"#utility.yul\":3928:4273   */\n      iszero\n      tag_293\n      jumpi\n        /* \"#utility.yul\":4029:4035   */\n      dup2\n        /* \"#utility.yul\":4023:4036   */\n      mload\n        /* \"#utility.yul\":4056:4161   */\n      tag_294\n        /* \"#utility.yul\":4157:4160   */\n      dup8\n        /* \"#utility.yul\":4142:4155   */\n      dup3\n        /* \"#utility.yul\":4056:4161   */\n      tag_228\n      jump\t// in\n    tag_294:\n        /* \"#utility.yul\":4049:4161   */\n      swap7\n      pop\n        /* \"#utility.yul\":4184:4263   */\n      tag_295\n        /* \"#utility.yul\":4256:4262   */\n      dup4\n        /* \"#utility.yul\":4184:4263   */\n      tag_229\n      jump\t// in\n    tag_295:\n        /* \"#utility.yul\":4174:4263   */\n      swap3\n      pop\n        /* \"#utility.yul\":3988:4273   */\n      pop\n        /* \"#utility.yul\":3975:3976   */\n      0x01\n        /* \"#utility.yul\":3972:3973   */\n      dup2\n        /* \"#utility.yul\":3968:3977   */\n      add\n        /* \"#utility.yul\":3963:3977   */\n      swap1\n      pop\n        /* \"#utility.yul\":3928:4273   */\n      jump(tag_291)\n    tag_293:\n        /* \"#utility.yul\":3932:3946   */\n      pop\n        /* \"#utility.yul\":3572:4280   */\n      pop\n      pop\n      pop\n        /* \"#utility.yul\":3418:4280   */\n      pop\n      pop\n      jump\t// out\n        /* \"#utility.yul\":4286:4685   */\n    tag_22:\n        /* \"#utility.yul\":4467:4471   */\n      0x00\n        /* \"#utility.yul\":4505:4508   */\n      0x0120\n        /* \"#utility.yul\":4494:4503   */\n      dup3\n        /* \"#utility.yul\":4490:4509   */\n      add\n        /* \"#utility.yul\":4482:4509   */\n      swap1\n      pop\n        /* \"#utility.yul\":4519:4678   */\n      tag_297\n        /* \"#utility.yul\":4675:4676   */\n      0x00\n        /* \"#utility.yul\":4664:4673   */\n      dup4\n        /* \"#utility.yul\":4660:4677   */\n      add\n        /* \"#utility.yul\":4651:4657   */\n      dup5\n        /* \"#utility.yul\":4519:4678   */\n      tag_230\n      jump\t// in\n    tag_297:\n        /* \"#utility.yul\":4286:4685   */\n      swap3\n      swap2\n      pop\n      pop\n      jump\t// out\n        /* \"#utility.yul\":4772:4889   */\n    tag_232:\n        /* \"#utility.yul\":4881:4882   */\n      0x00\n        /* \"#utility.yul\":4878:4879   */\n      0x00\n        /* \"#utility.yul\":4871:4883   */\n      revert\n        /* \"#utility.yul\":5018:5136   */\n    tag_234:\n        /* \"#utility.yul\":5089:5111   */\n      tag_302\n        /* \"#utility.yul\":5105:5110   */\n      dup2\n        /* \"#utility.yul\":5089:5111   */\n      tag_223\n      jump\t// in\n    tag_302:\n        /* \"#utility.yul\":5082:5087   */\n      dup2\n        /* \"#utility.yul\":5079:5112   */\n      eq\n        /* \"#utility.yul\":5069:5130   */\n      tag_303\n      jumpi\n        /* \"#utility.yul\":5126:5127   */\n      0x00\n        /* \"#utility.yul\":5123:5124   */\n      0x00\n        /* \"#utility.yul\":5116:5128   */\n      revert\n        /* \"#utility.yul\":5069:5130   */\n    tag_303:\n        /* \"#utility.yul\":5018:5136   */\n      pop\n      jump\t// out\n        /* \"#utility.yul\":5142:5277   */\n    tag_235:\n        /* \"#utility.yul\":5186:5191   */\n      0x00\n        /* \"#utility.yul\":5224:5230   */\n      dup2\n        /* \"#utility.yul\":5211:5231   */\n      calldataload\n        /* \"#utility.yul\":5202:5231   */\n      swap1\n      pop\n        /* \"#utility.yul\":5240:5271   */\n      tag_305\n        /* \"#utility.yul\":5265:5270   */\n      dup2\n        /* \"#utility.yul\":5240:5271   */\n      tag_234\n      jump\t// in\n    tag_305:\n        /* \"#utility.yul\":5142:5277   */\n      swap3\n      swap2\n      pop\n      pop\n      jump\t// out\n        /* \"#utility.yul\":5283:5749   */\n    tag_25:\n        /* \"#utility.yul\":5347:5353   */\n      0x00\n        /* \"#utility.yul\":5355:5361   */\n      0x00\n        /* \"#utility.yul\":5404:5406   */\n      0x40\n        /* \"#utility.yul\":5392:5401   */\n      dup4\n        /* \"#utility.yul\":5383:5390   */\n      dup6\n        /* \"#utility.yul\":5379:5402   */\n      sub\n        /* \"#utility.yul\":5375:5407   */\n      slt\n        /* \"#utility.yul\":5372:5491   */\n      iszero\n      tag_307\n      jumpi\n        /* \"#utility.yul\":5410:5489   */\n      tag_308\n      tag_232\n      jump\t// in\n    tag_308:\n        /* \"#utility.yul\":5372:5491   */\n    tag_307:\n        /* \"#utility.yul\":5530:5531   */\n      0x00\n        /* \"#utility.yul\":5555:5606   */\n      tag_309\n        /* \"#utility.yul\":5598:5605   */\n      dup6\n        /* \"#utility.yul\":5589:5595   */\n      dup3\n        /* \"#utility.yul\":5578:5587   */\n      dup7\n        /* \"#utility.yul\":5574:5596   */\n      add\n        /* \"#utility.yul\":5555:5606   */\n      tag_235\n      jump\t// in\n    tag_309:\n        /* \"#utility.yul\":5545:5606   */\n      swap3\n      pop\n        /* \"#utility.yul\":5501:5616   */\n      pop\n        /* \"#utility.yul\":5655:5657   */\n      0x20\n        /* \"#utility.yul\":5681:5732   */\n      tag_310\n        /* \"#utility.yul\":5724:5731   */\n      dup6\n        /* \"#utility.yul\":5715:5721   */\n      dup3\n        /* \"#utility.yul\":5704:5713   */\n      dup7\n        /* \"#utility.yul\":5700:5722   */\n      add\n        /* \"#utility.yul\":5681:5732   */\n      tag_235\n      jump\t// in\n    tag_310:\n        /* \"#utility.yul\":5671:5732   */\n      swap2\n      pop\n        /* \"#utility.yul\":5626:5742   */\n      pop\n        /* \"#utility.yul\":5283:5749   */\n      swap3\n      pop\n      swap3\n      swap1\n      pop\n      jump\t// out\n        /* \"#utility.yul\":5755:5832   */\n    tag_236:\n        /* \"#utility.yul\":5792:5799   */\n      0x00\n        /* \"#utility.yul\":5821:5826   */\n      dup2\n        /* \"#utility.yul\":5810:5826   */\n      swap1\n      pop\n        /* \"#utility.yul\":5755:5832   */\n      swap2\n      swap1\n      pop\n      jump\t// out\n        /* \"#utility.yul\":5838:5960   */\n    tag_237:\n        /* \"#utility.yul\":5911:5935   */\n      tag_313\n        /* \"#utility.yul\":5929:5934   */\n      dup2\n        /* \"#utility.yul\":5911:5935   */\n      tag_236\n      jump\t// in\n    tag_313:\n        /* \"#utility.yul\":5904:5909   */\n      dup2\n        /* \"#utility.yul\":5901:5936   */\n      eq\n        /* \"#utility.yul\":5891:5954   */\n      tag_314\n      jumpi\n        /* \"#utility.yul\":5950:5951   */\n      0x00\n        /* \"#utility.yul\":5947:5948   */\n      0x00\n        /* \"#utility.yul\":5940:5952   */\n      revert\n        /* \"#utility.yul\":5891:5954   */\n    tag_314:\n        /* \"#utility.yul\":5838:5960   */\n      pop\n      jump\t// out\n        /* \"#utility.yul\":5966:6105   */\n    tag_238:\n        /* \"#utility.yul\":6012:6017   */\n      0x00\n        /* \"#utility.yul\":6050:6056   */\n      dup2\n        /* \"#utility.yul\":6037:6057   */\n      calldataload\n        /* \"#utility.yul\":6028:6057   */\n      swap1\n      pop\n        /* \"#utility.yul\":6066:6099   */\n      tag_316\n        /* \"#utility.yul\":6093:6098   */\n      dup2\n        /* \"#utility.yul\":6066:6099   */\n      tag_237\n      jump\t// in\n    tag_316:\n        /* \"#utility.yul\":5966:6105   */\n      swap3\n      swap2\n      pop\n      pop\n      jump\t// out\n        /* \"#utility.yul\":6111:6585   */\n    tag_29:\n        /* \"#utility.yul\":6179:6185   */\n      0x00\n        /* \"#utility.yul\":6187:6193   */\n      0x00\n        /* \"#utility.yul\":6236:6238   */\n      0x40\n        /* \"#utility.yul\":6224:6233   */\n      dup4\n        /* \"#utility.yul\":6215:6222   */\n      dup6\n        /* \"#utility.yul\":6211:6234   */\n      sub\n        /* \"#utility.yul\":6207:6239   */\n      slt\n        /* \"#utility.yul\":6204:6323   */\n      iszero\n      tag_318\n      jumpi\n        /* \"#utility.yul\":6242:6321   */\n      tag_319\n      tag_232\n      jump\t// in\n    tag_319:\n        /* \"#utility.yul\":6204:6323   */\n    tag_318:\n        /* \"#utility.yul\":6362:6363   */\n      0x00\n        /* \"#utility.yul\":6387:6440   */\n      tag_320\n        /* \"#utility.yul\":6432:6439   */\n      dup6\n        /* \"#utility.yul\":6423:6429   */\n      dup3\n        /* \"#utility.yul\":6412:6421   */\n      dup7\n        /* \"#utility.yul\":6408:6430   */\n      add\n        /* \"#utility.yul\":6387:6440   */\n      tag_238\n      jump\t// in\n    tag_320:\n        /* \"#utility.yul\":6377:6440   */\n      swap3\n      pop\n        /* \"#utility.yul\":6333:6450   */\n      pop\n        /* \"#utility.yul\":6489:6491   */\n      0x20\n        /* \"#utility.yul\":6515:6568   */\n      tag_321\n        /* \"#utility.yul\":6560:6567   */\n      dup6\n        /* \"#utility.yul\":6551:6557   */\n      dup3\n        /* \"#utility.yul\":6540:6549   */\n      dup7\n        /* \"#utility.yul\":6536:6558   */\n      add\n        /* \"#utility.yul\":6515:6568   */\n      tag_238\n      jump\t// in\n    tag_321:\n        /* \"#utility.yul\":6505:6568   */\n      swap2\n      pop\n        /* \"#utility.yul\":6460:6578   */\n      pop\n        /* \"#utility.yul\":6111:6585   */\n      swap3\n      pop\n      swap3\n      swap1\n      pop\n      jump\t// out\n        /* \"#utility.yul\":6591:6703   */\n    tag_239:\n        /* \"#utility.yul\":6674:6696   */\n      tag_323\n        /* \"#utility.yul\":6690:6695   */\n      dup2\n        /* \"#utility.yul\":6674:6696   */\n      tag_223\n      jump\t// in\n    tag_323:\n        /* \"#utility.yul\":6669:6672   */\n      dup3\n        /* \"#utility.yul\":6662:6697   */\n      mstore\n        /* \"#utility.yul\":6591:6703   */\n      pop\n      pop\n      jump\t// out\n        /* \"#utility.yul\":6709:6923   */\n    tag_32:\n        /* \"#utility.yul\":6798:6802   */\n      0x00\n        /* \"#utility.yul\":6836:6838   */\n      0x20\n        /* \"#utility.yul\":6825:6834   */\n      dup3\n        /* \"#utility.yul\":6821:6839   */\n      add\n        /* \"#utility.yul\":6813:6839   */\n      swap1\n      pop\n        /* \"#utility.yul\":6849:6916   */\n      tag_325\n        /* \"#utility.yul\":6913:6914   */\n      0x00\n        /* \"#utility.yul\":6902:6911   */\n      dup4\n        /* \"#utility.yul\":6898:6915   */\n      add\n        /* \"#utility.yul\":6889:6895   */\n      dup5\n        /* \"#utility.yul\":6849:6916   */\n      tag_239\n      jump\t// in\n    tag_325:\n        /* \"#utility.yul\":6709:6923   */\n      swap3\n      swap2\n      pop\n      pop\n      jump\t// out\n        /* \"#utility.yul\":6929:7261   */\n    tag_36:\n        /* \"#utility.yul\":7050:7054   */\n      0x00\n        /* \"#utility.yul\":7088:7090   */\n      0x40\n        /* \"#utility.yul\":7077:7086   */\n      dup3\n        /* \"#utility.yul\":7073:7091   */\n      add\n        /* \"#utility.yul\":7065:7091   */\n      swap1\n      pop\n        /* \"#utility.yul\":7101:7172   */\n      tag_327\n        /* \"#utility.yul\":7169:7170   */\n      0x00\n        /* \"#utility.yul\":7158:7167   */\n      dup4\n        /* \"#utility.yul\":7154:7171   */\n      add\n        /* \"#utility.yul\":7145:7151   */\n      dup6\n        /* \"#utility.yul\":7101:7172   */\n      tag_214\n      jump\t// in\n    tag_327:\n        /* \"#utility.yul\":7182:7254   */\n      tag_328\n        /* \"#utility.yul\":7250:7252   */\n      0x20\n        /* \"#utility.yul\":7239:7248   */\n      dup4\n        /* \"#utility.yul\":7235:7253   */\n      add\n        /* \"#utility.yul\":7226:7232   */\n      dup5\n        /* \"#utility.yul\":7182:7254   */\n      tag_214\n      jump\t// in\n    tag_328:\n        /* \"#utility.yul\":6929:7261   */\n      swap4\n      swap3\n      pop\n      pop\n      pop\n      jump\t// out\n        /* \"#utility.yul\":7267:7436   */\n    tag_240:\n        /* \"#utility.yul\":7351:7362   */\n      0x00\n        /* \"#utility.yul\":7385:7391   */\n      dup3\n        /* \"#utility.yul\":7380:7383   */\n      dup3\n        /* \"#utility.yul\":7373:7392   */\n      mstore\n        /* \"#utility.yul\":7425:7429   */\n      0x20\n        /* \"#utility.yul\":7420:7423   */\n      dup3\n        /* \"#utility.yul\":7416:7430   */\n      add\n        /* \"#utility.yul\":7401:7430   */\n      swap1\n      pop\n        /* \"#utility.yul\":7267:7436   */\n      swap3\n      swap2\n      pop\n      pop\n      jump\t// out\n        /* \"#utility.yul\":7442:7609   */\n    tag_241:\n        /* \"#utility.yul\":7582:7601   */\n      0x5468652067616d65206973206f7665722e000000000000000000000000000000\n        /* \"#utility.yul\":7578:7579   */\n      0x00\n        /* \"#utility.yul\":7570:7576   */\n      dup3\n        /* \"#utility.yul\":7566:7580   */\n      add\n        /* \"#utility.yul\":7559:7602   */\n      mstore\n        /* \"#utility.yul\":7442:7609   */\n      pop\n      jump\t// out\n        /* \"#utility.yul\":7615:7981   */\n    tag_242:\n        /* \"#utility.yul\":7757:7760   */\n      0x00\n        /* \"#utility.yul\":7778:7845   */\n      tag_332\n        /* \"#utility.yul\":7842:7844   */\n      0x11\n        /* \"#utility.yul\":7837:7840   */\n      dup4\n        /* \"#utility.yul\":7778:7845   */\n      tag_240\n      jump\t// in\n    tag_332:\n        /* \"#utility.yul\":7771:7845   */\n      swap2\n      pop\n        /* \"#utility.yul\":7854:7947   */\n      tag_333\n        /* \"#utility.yul\":7943:7946   */\n      dup3\n        /* \"#utility.yul\":7854:7947   */\n      tag_241\n      jump\t// in\n    tag_333:\n        /* \"#utility.yul\":7972:7974   */\n      0x20\n        /* \"#utility.yul\":7967:7970   */\n      dup3\n        /* \"#utility.yul\":7963:7975   */\n      add\n        /* \"#utility.yul\":7956:7975   */\n      swap1\n      pop\n        /* \"#utility.yul\":7615:7981   */\n      swap2\n      swap1\n      pop\n      jump\t// out\n        /* \"#utility.yul\":7987:8406   */\n    tag_51:\n        /* \"#utility.yul\":8153:8157   */\n      0x00\n        /* \"#utility.yul\":8191:8193   */\n      0x20\n        /* \"#utility.yul\":8180:8189   */\n      dup3\n        /* \"#utility.yul\":8176:8194   */\n      add\n        /* \"#utility.yul\":8168:8194   */\n      swap1\n      pop\n        /* \"#utility.yul\":8240:8249   */\n      dup2\n        /* \"#utility.yul\":8234:8238   */\n      dup2\n        /* \"#utility.yul\":8230:8250   */\n      sub\n        /* \"#utility.yul\":8226:8227   */\n      0x00\n        /* \"#utility.yul\":8215:8224   */\n      dup4\n        /* \"#utility.yul\":8211:8228   */\n      add\n        /* \"#utility.yul\":8204:8251   */\n      mstore\n        /* \"#utility.yul\":8268:8399   */\n      tag_335\n        /* \"#utility.yul\":8394:8398   */\n      dup2\n        /* \"#utility.yul\":8268:8399   */\n      tag_242\n      jump\t// in\n    tag_335:\n        /* \"#utility.yul\":8260:8399   */\n      swap1\n      pop\n        /* \"#utility.yul\":7987:8406   */\n      swap2\n      swap1\n      pop\n      jump\t// out\n        /* \"#utility.yul\":8412:8581   */\n    tag_243:\n        /* \"#utility.yul\":8552:8573   */\n      0x49742773206e6f7420796f7572207475726e2e00000000000000000000000000\n        /* \"#utility.yul\":8548:8549   */\n      0x00\n        /* \"#utility.yul\":8540:8546   */\n      dup3\n        /* \"#utility.yul\":8536:8550   */\n      add\n        /* \"#utility.yul\":8529:8574   */\n      mstore\n        /* \"#utility.yul\":8412:8581   */\n      pop\n      jump\t// out\n        /* \"#utility.yul\":8587:8953   */\n    tag_244:\n        /* \"#utility.yul\":8729:8732   */\n      0x00\n        /* \"#utility.yul\":8750:8817   */\n      tag_338\n        /* \"#utility.yul\":8814:8816   */\n      0x13\n        /* \"#utility.yul\":8809:8812   */\n      dup4\n        /* \"#utility.yul\":8750:8817   */\n      tag_240\n      jump\t// in\n    tag_338:\n        /* \"#utility.yul\":8743:8817   */\n      swap2\n      pop\n        /* \"#utility.yul\":8826:8919   */\n      tag_339\n        /* \"#utility.yul\":8915:8918   */\n      dup3\n        /* \"#utility.yul\":8826:8919   */\n      tag_243\n      jump\t// in\n    tag_339:\n        /* \"#utility.yul\":8944:8946   */\n      0x20\n        /* \"#utility.yul\":8939:8942   */\n      dup3\n        /* \"#utility.yul\":8935:8947   */\n      add\n        /* \"#utility.yul\":8928:8947   */\n      swap1\n      pop\n        /* \"#utility.yul\":8587:8953   */\n      swap2\n      swap1\n      pop\n      jump\t// out\n        /* \"#utility.yul\":8959:9378   */\n    tag_54:\n        /* \"#utility.yul\":9125:9129   */\n      0x00\n        /* \"#utility.yul\":9163:9165   */\n      0x20\n        /* \"#utility.yul\":9152:9161   */\n      dup3\n        /* \"#utility.yul\":9148:9166   */\n      add\n        /* \"#utility.yul\":9140:9166   */\n      swap1\n      pop\n        /* \"#utility.yul\":9212:9221   */\n      dup2\n        /* \"#utility.yul\":9206:9210   */\n      dup2\n        /* \"#utility.yul\":9202:9222   */\n      sub\n        /* \"#utility.yul\":9198:9199   */\n      0x00\n        /* \"#utility.yul\":9187:9196   */\n      dup4\n        /* \"#utility.yul\":9183:9200   */\n      add\n        /* \"#utility.yul\":9176:9223   */\n      mstore\n        /* \"#utility.yul\":9240:9371   */\n      tag_341\n        /* \"#utility.yul\":9366:9370   */\n      dup2\n        /* \"#utility.yul\":9240:9371   */\n      tag_244\n      jump\t// in\n    tag_341:\n        /* \"#utility.yul\":9232:9371   */\n      swap1\n      pop\n        /* \"#utility.yul\":8959:9378   */\n      swap2\n      swap1\n      pop\n      jump\t// out\n        /* \"#utility.yul\":9384:9565   */\n    tag_245:\n        /* \"#utility.yul\":9524:9557   */\n      0x496e76616c696420726f77206f7220636f6c756d6e20706c6163656d656e7400\n        /* \"#utility.yul\":9520:9521   */\n      0x00\n        /* \"#utility.yul\":9512:9518   */\n      dup3\n        /* \"#utility.yul\":9508:9522   */\n      add\n        /* \"#utility.yul\":9501:9558   */\n      mstore\n        /* \"#utility.yul\":9384:9565   */\n      pop\n      jump\t// out\n        /* \"#utility.yul\":9571:9937   */\n    tag_246:\n        /* \"#utility.yul\":9713:9716   */\n      0x00\n        /* \"#utility.yul\":9734:9801   */\n      tag_344\n        /* \"#utility.yul\":9798:9800   */\n      0x1f\n        /* \"#utility.yul\":9793:9796   */\n      dup4\n        /* \"#utility.yul\":9734:9801   */\n      tag_240\n      jump\t// in\n    tag_344:\n        /* \"#utility.yul\":9727:9801   */\n      swap2\n      pop\n        /* \"#utility.yul\":9810:9903   */\n      tag_345\n        /* \"#utility.yul\":9899:9902   */\n      dup3\n        /* \"#utility.yul\":9810:9903   */\n      tag_245\n      jump\t// in\n    tag_345:\n        /* \"#utility.yul\":9928:9930   */\n      0x20\n        /* \"#utility.yul\":9923:9926   */\n      dup3\n        /* \"#utility.yul\":9919:9931   */\n      add\n        /* \"#utility.yul\":9912:9931   */\n      swap1\n      pop\n        /* \"#utility.yul\":9571:9937   */\n      swap2\n      swap1\n      pop\n      jump\t// out\n        /* \"#utility.yul\":9943:10362   */\n    tag_58:\n        /* \"#utility.yul\":10109:10113   */\n      0x00\n        /* \"#utility.yul\":10147:10149   */\n      0x20\n        /* \"#utility.yul\":10136:10145   */\n      dup3\n        /* \"#utility.yul\":10132:10150   */\n      add\n        /* \"#utility.yul\":10124:10150   */\n      swap1\n      pop\n        /* \"#utility.yul\":10196:10205   */\n      dup2\n        /* \"#utility.yul\":10190:10194   */\n      dup2\n        /* \"#utility.yul\":10186:10206   */\n      sub\n        /* \"#utility.yul\":10182:10183   */\n      0x00\n        /* \"#utility.yul\":10171:10180   */\n      dup4\n        /* \"#utility.yul\":10167:10184   */\n      add\n        /* \"#utility.yul\":10160:10207   */\n      mstore\n        /* \"#utility.yul\":10224:10355   */\n      tag_347\n        /* \"#utility.yul\":10350:10354   */\n      dup2\n        /* \"#utility.yul\":10224:10355   */\n      tag_246\n      jump\t// in\n    tag_347:\n        /* \"#utility.yul\":10216:10355   */\n      swap1\n      pop\n        /* \"#utility.yul\":9943:10362   */\n      swap2\n      swap1\n      pop\n      jump\t// out\n        /* \"#utility.yul\":10368:10548   */\n    tag_61:\n        /* \"#utility.yul\":10416:10493   */\n      0x4e487b7100000000000000000000000000000000000000000000000000000000\n        /* \"#utility.yul\":10413:10414   */\n      0x00\n        /* \"#utility.yul\":10406:10494   */\n      mstore\n        /* \"#utility.yul\":10513:10517   */\n      0x32\n        /* \"#utility.yul\":10510:10511   */\n      0x04\n        /* \"#utility.yul\":10503:10518   */\n      mstore\n        /* \"#utility.yul\":10537:10541   */\n      0x24\n        /* \"#utility.yul\":10534:10535   */\n      0x00\n        /* \"#utility.yul\":10527:10542   */\n      revert\n        /* \"#utility.yul\":10554:10726   */\n    tag_247:\n        /* \"#utility.yul\":10694:10718   */\n      0x43656c6c20697320616c72656164792074616b656e2e00000000000000000000\n        /* \"#utility.yul\":10690:10691   */\n      0x00\n        /* \"#utility.yul\":10682:10688   */\n      dup3\n        /* \"#utility.yul\":10678:10692   */\n      add\n        /* \"#utility.yul\":10671:10719   */\n      mstore\n        /* \"#utility.yul\":10554:10726   */\n      pop\n      jump\t// out\n        /* \"#utility.yul\":10732:11098   */\n    tag_248:\n        /* \"#utility.yul\":10874:10877   */\n      0x00\n        /* \"#utility.yul\":10895:10962   */\n      tag_351\n        /* \"#utility.yul\":10959:10961   */\n      0x16\n        /* \"#utility.yul\":10954:10957   */\n      dup4\n        /* \"#utility.yul\":10895:10962   */\n      tag_240\n      jump\t// in\n    tag_351:\n        /* \"#utility.yul\":10888:10962   */\n      swap2\n      pop\n        /* \"#utility.yul\":10971:11064   */\n      tag_352\n        /* \"#utility.yul\":11060:11063   */\n      dup3\n        /* \"#utility.yul\":10971:11064   */\n      tag_247\n      jump\t// in\n    tag_352:\n        /* \"#utility.yul\":11089:11091   */\n      0x20\n        /* \"#utility.yul\":11084:11087   */\n      dup3\n        /* \"#utility.yul\":11080:11092   */\n      add\n        /* \"#utility.yul\":11073:11092   */\n      swap1\n      pop\n        /* \"#utility.yul\":10732:11098   */\n      swap2\n      swap1\n      pop\n      jump\t// out\n        /* \"#utility.yul\":11104:11523   */\n    tag_68:\n        /* \"#utility.yul\":11270:11274   */\n      0x00\n        /* \"#utility.yul\":11308:11310   */\n      0x20\n        /* \"#utility.yul\":11297:11306   */\n      dup3\n        /* \"#utility.yul\":11293:11311   */\n      add\n        /* \"#utility.yul\":11285:11311   */\n      swap1\n      pop\n        /* \"#utility.yul\":11357:11366   */\n      dup2\n        /* \"#utility.yul\":11351:11355   */\n      dup2\n        /* \"#utility.yul\":11347:11367   */\n      sub\n        /* \"#utility.yul\":11343:11344   */\n      0x00\n        /* \"#utility.yul\":11332:11341   */\n      dup4\n        /* \"#utility.yul\":11328:11345   */\n      add\n        /* \"#utility.yul\":11321:11368   */\n      mstore\n        /* \"#utility.yul\":11385:11516   */\n      tag_354\n        /* \"#utility.yul\":11511:11515   */\n      dup2\n        /* \"#utility.yul\":11385:11516   */\n      tag_248\n      jump\t// in\n    tag_354:\n        /* \"#utility.yul\":11377:11516   */\n      swap1\n      pop\n        /* \"#utility.yul\":11104:11523   */\n      swap2\n      swap1\n      pop\n      jump\t// out\n        /* \"#utility.yul\":11529:11709   */\n    tag_249:\n        /* \"#utility.yul\":11577:11654   */\n      0x4e487b7100000000000000000000000000000000000000000000000000000000\n        /* \"#utility.yul\":11574:11575   */\n      0x00\n        /* \"#utility.yul\":11567:11655   */\n      mstore\n        /* \"#utility.yul\":11674:11678   */\n      0x11\n        /* \"#utility.yul\":11671:11672   */\n      0x04\n        /* \"#utility.yul\":11664:11679   */\n      mstore\n        /* \"#utility.yul\":11698:11702   */\n      0x24\n        /* \"#utility.yul\":11695:11696   */\n      0x00\n        /* \"#utility.yul\":11688:11703   */\n      revert\n        /* \"#utility.yul\":11715:11882   */\n    tag_203:\n        /* \"#utility.yul\":11752:11755   */\n      0x00\n        /* \"#utility.yul\":11775:11797   */\n      tag_357\n        /* \"#utility.yul\":11791:11796   */\n      dup3\n        /* \"#utility.yul\":11775:11797   */\n      tag_223\n      jump\t// in\n    tag_357:\n        /* \"#utility.yul\":11766:11797   */\n      swap2\n      pop\n        /* \"#utility.yul\":11819:11823   */\n      0xff\n        /* \"#utility.yul\":11812:11817   */\n      dup3\n        /* \"#utility.yul\":11809:11824   */\n      sub\n        /* \"#utility.yul\":11806:11847   */\n      tag_358\n      jumpi\n        /* \"#utility.yul\":11827:11845   */\n      tag_359\n      tag_249\n      jump\t// in\n    tag_359:\n        /* \"#utility.yul\":11806:11847   */\n    tag_358:\n        /* \"#utility.yul\":11874:11875   */\n      0x01\n        /* \"#utility.yul\":11867:11872   */\n      dup3\n        /* \"#utility.yul\":11863:11876   */\n      add\n        /* \"#utility.yul\":11856:11876   */\n      swap1\n      pop\n        /* \"#utility.yul\":11715:11882   */\n      swap2\n      swap1\n      pop\n      jump\t// out\n\n    auxdata: 0xa2646970667358221220c1a466c1a7b6705263b433e4319ab2169a740d68dd3e72d919a1601b27568e5f64736f6c634300081e0033\n}\n",
				"bytecode": {
					"linkReferences": {},
					"object": "608060405234801561000f575f5ffd5b506040516116483803806116488339818101604052810190610031919061021f565b3360035f6101000a81548173ffffffffffffffffffffffffffffffffffffffff021916908373ffffffffffffffffffffffffffffffffffffffff1602179055508073ffffffffffffffffffffffffffffffffffffffff1660035f9054906101000a900473ffffffffffffffffffffffffffffffffffffffff1673ffffffffffffffffffffffffffffffffffffffff1603610100576040517f08c379a00000000000000000000000000000000000000000000000000000000081526004016100f7906102ca565b60405180910390fd5b8060045f6101000a81548173ffffffffffffffffffffffffffffffffffffffff021916908373ffffffffffffffffffffffffffffffffffffffff16021790555060035f9054906101000a900473ffffffffffffffffffffffffffffffffffffffff1660055f6101000a81548173ffffffffffffffffffffffffffffffffffffffff021916908373ffffffffffffffffffffffffffffffffffffffff1602179055505f600560146101000a81548160ff021916908315150217905550506102e8565b5f5ffd5b5f73ffffffffffffffffffffffffffffffffffffffff82169050919050565b5f6101ee826101c5565b9050919050565b6101fe816101e4565b8114610208575f5ffd5b50565b5f81519050610219816101f5565b92915050565b5f60208284031215610234576102336101c1565b5b5f6102418482850161020b565b91505092915050565b5f82825260208201905092915050565b7f506c61796572204f206d757374206265206120646966666572656e74206164645f8201527f726573732e000000000000000000000000000000000000000000000000000000602082015250565b5f6102b460258361024a565b91506102bf8261025a565b604082019050919050565b5f6020820190508181035f8301526102e1816102a8565b9050919050565b611353806102f55f395ff3fe608060405234801561000f575f5ffd5b506004361061007b575f3560e01c80635e24b0f1116100595780635e24b0f1146100d95780638086a92a146100f55780638b5b9ccc14610125578063dfbf53ae146101445761007b565b806304a936051461007f5780630e04a7d81461009d5780632420f7f0146100bb575b5f5ffd5b610087610162565b6040516100949190610e12565b60405180910390f35b6100a5610187565b6040516100b29190610e45565b60405180910390f35b6100c361019a565b6040516100d09190610fa5565b60405180910390f35b6100f360048036038101906100ee9190610fed565b61023c565b005b61010f600480360381019061010a919061105e565b610515565b60405161011c91906110ab565b60405180910390f35b61012d61054e565b60405161013b9291906110c4565b60405180910390f35b61014c61059c565b6040516101599190610e12565b60405180910390f35b60055f9054906101000a900473ffffffffffffffffffffffffffffffffffffffff1681565b600560149054906101000a900460ff1681565b6101a2610d84565b5f600380602002604051908101604052809291905f905b828210156102335783820160038060200260405190810160405280929190826003801561021f576020028201915f905b82829054906101000a900460ff1660ff16815260200190600101906020825f010492830192600103820291508084116101e95790505b5050505050815260200190600101906101b9565b50505050905090565b600560149054906101000a900460ff161561028c576040517f08c379a000000000000000000000000000000000000000000000000000000000815260040161028390611145565b60405180910390fd5b60055f9054906101000a900473ffffffffffffffffffffffffffffffffffffffff1673ffffffffffffffffffffffffffffffffffffffff163373ffffffffffffffffffffffffffffffffffffffff161461031b576040517f08c379a0000000000000000000000000000000000000000000000000000000008152600401610312906111ad565b60405180910390fd5b60038260ff16108015610331575060038160ff16105b610370576040517f08c379a000000000000000000000000000000000000000000000000000000000815260040161036790611215565b60405180910390fd5b5f5f8360ff166003811061038757610386611233565b5b018260ff166003811061039d5761039c611233565b5b602091828204019190069054906101000a900460ff1660ff16146103f6576040517f08c379a00000000000000000000000000000000000000000000000000000000081526004016103ed906112aa565b60405180910390fd5b60035f9054906101000a900473ffffffffffffffffffffffffffffffffffffffff1673ffffffffffffffffffffffffffffffffffffffff163373ffffffffffffffffffffffffffffffffffffffff160361049d5760015f8360ff166003811061046257610461611233565b5b018260ff166003811061047857610477611233565b5b602091828204019190066101000a81548160ff021916908360ff1602179055506104ec565b60025f8360ff16600381106104b5576104b4611233565b5b018260ff16600381106104cb576104ca611233565b5b602091828204019190066101000a81548160ff021916908360ff1602179055505b6104f46105c1565b600560149054906101000a900460ff1661051157610510610b85565b5b5050565b5f8260038110610523575f80fd5b018160038110610531575f80fd5b60209182820401919006915091509054906101000a900460ff1681565b5f5f60035f9054906101000a900473ffffffffffffffffffffffffffffffffffffffff1660045f9054906101000a900473ffffffffffffffffffffffffffffffffffffffff16915091509091565b60065f9054906101000a900473ffffffffffffffffffffffffffffffffffffffff1681565b5f60035f9054906101000a900473ffffffffffffffffffffffffffffffffffffffff1673ffffffffffffffffffffffffffffffffffffffff163373ffffffffffffffffffffffffffffffffffffffff160361061f5760019050610624565b600290505b5f5f90505b60038160ff161015610838578160ff165f8260ff166003811061064f5761064e611233565b5b015f6003811061066257610661611233565b5b602091828204019190069054906101000a900460ff1660ff161480156106cc57508160ff165f8260ff166003811061069d5761069c611233565b5b016001600381106106b1576106b0611233565b5b602091828204019190069054906101000a900460ff1660ff16145b801561071c57508160ff165f8260ff16600381106106ed576106ec611233565b5b0160026003811061070157610700611233565b5b602091828204019190069054906101000a900460ff1660ff16145b1561073057610729610cc3565b5050610b83565b8160ff165f5f6003811061074757610746611233565b5b018260ff166003811061075d5761075c611233565b5b602091828204019190069054906101000a900460ff1660ff161480156107c757508160ff165f60016003811061079657610795611233565b5b018260ff16600381106107ac576107ab611233565b5b602091828204019190069054906101000a900460ff1660ff16145b801561081757508160ff165f6002600381106107e6576107e5611233565b5b018260ff16600381106107fc576107fb611233565b5b602091828204019190069054906101000a900460ff1660ff16145b1561082b57610824610cc3565b5050610b83565b8080600101915050610629565b508060ff165f5f600381106108505761084f611233565b5b015f6003811061086357610862611233565b5b602091828204019190069054906101000a900460ff1660ff161480156108cb57508060ff165f60016003811061089c5761089b611233565b5b016001600381106108b0576108af611233565b5b602091828204019190069054906101000a900460ff1660ff16145b801561091957508060ff165f6002600381106108ea576108e9611233565b5b016002600381106108fe576108fd611233565b5b602091828204019190069054906101000a900460ff1660ff16145b1561092c57610926610cc3565b50610b83565b8060ff165f5f6003811061094357610942611233565b5b0160026003811061095757610956611233565b5b602091828204019190069054906101000a900460ff1660ff161480156109bf57508060ff165f6001600381106109905761098f611233565b5b016001600381106109a4576109a3611233565b5b602091828204019190069054906101000a900460ff1660ff16145b8015610a0c57508060ff165f6002600381106109de576109dd611233565b5b015f600381106109f1576109f0611233565b5b602091828204019190069054906101000a900460ff1660ff16145b15610a1f57610a19610cc3565b50610b83565b5f5f90505f5f90505b6003811015610ab4575f5f90505b60038160ff161015610aa6575f5f8360038110610a5657610a55611233565b5b018260ff1660038110610a6c57610a6b611233565b5b602091828204019190069054906101000a900460ff1660ff1614610a99578280610a95906112f5565b9350505b8080600101915050610a36565b508080600101915050610a28565b5060098160ff1603610b80576001600560146101000a81548160ff0219169083151502179055505f60065f6101000a81548173ffffffffffffffffffffffffffffffffffffffff021916908373ffffffffffffffffffffffffffffffffffffffff16021790555060065f9054906101000a900473ffffffffffffffffffffffffffffffffffffffff1673ffffffffffffffffffffffffffffffffffffffff167f51b77d00d3c0b7e376e9ee146711ceb2c08e58a5dbe38055a618e52109f720c160405160405180910390a25b50505b565b60035f9054906101000a900473ffffffffffffffffffffffffffffffffffffffff1673ffffffffffffffffffffffffffffffffffffffff1660055f9054906101000a900473ffffffffffffffffffffffffffffffffffffffff1673ffffffffffffffffffffffffffffffffffffffff1614610c5f5760035f9054906101000a900473ffffffffffffffffffffffffffffffffffffffff1660055f6101000a81548173ffffffffffffffffffffffffffffffffffffffff021916908373ffffffffffffffffffffffffffffffffffffffff1602179055610cc0565b60045f9054906101000a900473ffffffffffffffffffffffffffffffffffffffff1660055f6101000a81548173ffffffffffffffffffffffffffffffffffffffff021916908373ffffffffffffffffffffffffffffffffffffffff16021790555b50565b6001600560146101000a81548160ff0219169083151502179055503360065f6101000a81548173ffffffffffffffffffffffffffffffffffffffff021916908373ffffffffffffffffffffffffffffffffffffffff16021790555060065f9054906101000a900473ffffffffffffffffffffffffffffffffffffffff1673ffffffffffffffffffffffffffffffffffffffff167f51b77d00d3c0b7e376e9ee146711ceb2c08e58a5dbe38055a618e52109f720c160405160405180910390a2565b60405180606001604052806003905b610d9b610db1565b815260200190600190039081610d935790505090565b6040518060600160405280600390602082028036833780820191505090505090565b5f73ffffffffffffffffffffffffffffffffffffffff82169050919050565b5f610dfc82610dd3565b9050919050565b610e0c81610df2565b82525050565b5f602082019050610e255f830184610e03565b92915050565b5f8115159050919050565b610e3f81610e2b565b82525050565b5f602082019050610e585f830184610e36565b92915050565b5f60039050919050565b5f81905092915050565b5f819050919050565b5f60039050919050565b5f81905092915050565b5f819050919050565b5f60ff82169050919050565b610ead81610e98565b82525050565b5f610ebe8383610ea4565b60208301905092915050565b5f602082019050919050565b610edf81610e7b565b610ee98184610e85565b9250610ef482610e8f565b805f5b83811015610f24578151610f0b8782610eb3565b9650610f1683610eca565b925050600181019050610ef7565b505050505050565b5f610f378383610ed6565b60608301905092915050565b5f602082019050919050565b610f5881610e5e565b610f628184610e68565b9250610f6d82610e72565b805f5b83811015610f9d578151610f848782610f2c565b9650610f8f83610f43565b925050600181019050610f70565b505050505050565b5f61012082019050610fb95f830184610f4f565b92915050565b5f5ffd5b610fcc81610e98565b8114610fd6575f5ffd5b50565b5f81359050610fe781610fc3565b92915050565b5f5f6040838503121561100357611002610fbf565b5b5f61101085828601610fd9565b925050602061102185828601610fd9565b9150509250929050565b5f819050919050565b61103d8161102b565b8114611047575f5ffd5b50565b5f8135905061105881611034565b92915050565b5f5f6040838503121561107457611073610fbf565b5b5f6110818582860161104a565b92505060206110928582860161104a565b9150509250929050565b6110a581610e98565b82525050565b5f6020820190506110be5f83018461109c565b92915050565b5f6040820190506110d75f830185610e03565b6110e46020830184610e03565b9392505050565b5f82825260208201905092915050565b7f5468652067616d65206973206f7665722e0000000000000000000000000000005f82015250565b5f61112f6011836110eb565b915061113a826110fb565b602082019050919050565b5f6020820190508181035f83015261115c81611123565b9050919050565b7f49742773206e6f7420796f7572207475726e2e000000000000000000000000005f82015250565b5f6111976013836110eb565b91506111a282611163565b602082019050919050565b5f6020820190508181035f8301526111c48161118b565b9050919050565b7f496e76616c696420726f77206f7220636f6c756d6e20706c6163656d656e74005f82015250565b5f6111ff601f836110eb565b915061120a826111cb565b602082019050919050565b5f6020820190508181035f83015261122c816111f3565b9050919050565b7f4e487b71000000000000000000000000000000000000000000000000000000005f52603260045260245ffd5b7f43656c6c20697320616c72656164792074616b656e2e000000000000000000005f82015250565b5f6112946016836110eb565b915061129f82611260565b602082019050919050565b5f6020820190508181035f8301526112c181611288565b9050919050565b7f4e487b71000000000000000000000000000000000000000000000000000000005f52601160045260245ffd5b5f6112ff82610e98565b915060ff8203611312576113116112c8565b5b60018201905091905056fea2646970667358221220c1a466c1a7b6705263b433e4319ab2169a740d68dd3e72d919a1601b27568e5f64736f6c634300081e0033",
					"opcodes": "PUSH1 0x80 PUSH1 0x40 MSTORE CALLVALUE DUP1 ISZERO PUSH2 0xF JUMPI PUSH0 PUSH0 REVERT JUMPDEST POP PUSH1 0x40 MLOAD PUSH2 0x1648 CODESIZE SUB DUP1 PUSH2 0x1648 DUP4 CODECOPY DUP2 DUP2 ADD PUSH1 0x40 MSTORE DUP2 ADD SWAP1 PUSH2 0x31 SWAP2 SWAP1 PUSH2 0x21F JUMP JUMPDEST CALLER PUSH1 0x3 PUSH0 PUSH2 0x100 EXP DUP2 SLOAD DUP2 PUSH20 0xFFFFFFFFFFFFFFFFFFFFFFFFFFFFFFFFFFFFFFFF MUL NOT AND SWAP1 DUP4 PUSH20 0xFFFFFFFFFFFFFFFFFFFFFFFFFFFFFFFFFFFFFFFF AND MUL OR SWAP1 SSTORE POP DUP1 PUSH20 0xFFFFFFFFFFFFFFFFFFFFFFFFFFFFFFFFFFFFFFFF AND PUSH1 0x3 PUSH0 SWAP1 SLOAD SWAP1 PUSH2 0x100 EXP SWAP1 DIV PUSH20 0xFFFFFFFFFFFFFFFFFFFFFFFFFFFFFFFFFFFFFFFF AND PUSH20 0xFFFFFFFFFFFFFFFFFFFFFFFFFFFFFFFFFFFFFFFF AND SUB PUSH2 0x100 JUMPI PUSH1 0x40 MLOAD PUSH32 0x8C379A000000000000000000000000000000000000000000000000000000000 DUP2 MSTORE PUSH1 0x4 ADD PUSH2 0xF7 SWAP1 PUSH2 0x2CA JUMP JUMPDEST PUSH1 0x40 MLOAD DUP1 SWAP2 SUB SWAP1 REVERT JUMPDEST DUP1 PUSH1 0x4 PUSH0 PUSH2 0x100 EXP DUP2 SLOAD DUP2 PUSH20 0xFFFFFFFFFFFFFFFFFFFFFFFFFFFFFFFFFFFFFFFF MUL NOT AND SWAP1 DUP4 PUSH20 0xFFFFFFFFFFFFFFFFFFFFFFFFFFFFFFFFFFFFFFFF AND MUL OR SWAP1 SSTORE POP PUSH1 0x3 PUSH0 SWAP1 SLOAD SWAP1 PUSH2 0x100 EXP SWAP1 DIV PUSH20 0xFFFFFFFFFFFFFFFFFFFFFFFFFFFFFFFFFFFFFFFF AND PUSH1 0x5 PUSH0 PUSH2 0x100 EXP DUP2 SLOAD DUP2 PUSH20 0xFFFFFFFFFFFFFFFFFFFFFFFFFFFFFFFFFFFFFFFF MUL NOT AND SWAP1 DUP4 PUSH20 0xFFFFFFFFFFFFFFFFFFFFFFFFFFFFFFFFFFFFFFFF AND MUL OR SWAP1 SSTORE POP PUSH0 PUSH1 0x5 PUSH1 0x14 PUSH2 0x100 EXP DUP2 SLOAD DUP2 PUSH1 0xFF MUL NOT AND SWAP1 DUP4 ISZERO ISZERO MUL OR SWAP1 SSTORE POP POP PUSH2 0x2E8 JUMP JUMPDEST PUSH0 PUSH0 REVERT JUMPDEST PUSH0 PUSH20 0xFFFFFFFFFFFFFFFFFFFFFFFFFFFFFFFFFFFFFFFF DUP3 AND SWAP1 POP SWAP2 SWAP1 POP JUMP JUMPDEST PUSH0 PUSH2 0x1EE DUP3 PUSH2 0x1C5 JUMP JUMPDEST SWAP1 POP SWAP2 SWAP1 POP JUMP JUMPDEST PUSH2 0x1FE DUP2 PUSH2 0x1E4 JUMP JUMPDEST DUP2 EQ PUSH2 0x208 JUMPI PUSH0 PUSH0 REVERT JUMPDEST POP JUMP JUMPDEST PUSH0 DUP2 MLOAD SWAP1 POP PUSH2 0x219 DUP2 PUSH2 0x1F5 JUMP JUMPDEST SWAP3 SWAP2 POP POP JUMP JUMPDEST PUSH0 PUSH1 0x20 DUP3 DUP5 SUB SLT ISZERO PUSH2 0x234 JUMPI PUSH2 0x233 PUSH2 0x1C1 JUMP JUMPDEST JUMPDEST PUSH0 PUSH2 0x241 DUP5 DUP3 DUP6 ADD PUSH2 0x20B JUMP JUMPDEST SWAP2 POP POP SWAP3 SWAP2 POP POP JUMP JUMPDEST PUSH0 DUP3 DUP3 MSTORE PUSH1 0x20 DUP3 ADD SWAP1 POP SWAP3 SWAP2 POP POP JUMP JUMPDEST PUSH32 0x506C61796572204F206D757374206265206120646966666572656E7420616464 PUSH0 DUP3 ADD MSTORE PUSH32 0x726573732E000000000000000000000000000000000000000000000000000000 PUSH1 0x20 DUP3 ADD MSTORE POP JUMP JUMPDEST PUSH0 PUSH2 0x2B4 PUSH1 0x25 DUP4 PUSH2 0x24A JUMP JUMPDEST SWAP2 POP PUSH2 0x2BF DUP3 PUSH2 0x25A JUMP JUMPDEST PUSH1 0x40 DUP3 ADD SWAP1 POP SWAP2 SWAP1 POP JUMP JUMPDEST PUSH0 PUSH1 0x20 DUP3 ADD SWAP1 POP DUP2 DUP2 SUB PUSH0 DUP4 ADD MSTORE PUSH2 0x2E1 DUP2 PUSH2 0x2A8 JUMP JUMPDEST SWAP1 POP SWAP2 SWAP1 POP JUMP JUMPDEST PUSH2 0x1353 DUP1 PUSH2 0x2F5 PUSH0 CODECOPY PUSH0 RETURN INVALID PUSH1 0x80 PUSH1 0x40 MSTORE CALLVALUE DUP1 ISZERO PUSH2 0xF JUMPI PUSH0 PUSH0 REVERT JUMPDEST POP PUSH1 0x4 CALLDATASIZE LT PUSH2 0x7B JUMPI PUSH0 CALLDATALOAD PUSH1 0xE0 SHR DUP1 PUSH4 0x5E24B0F1 GT PUSH2 0x59 JUMPI DUP1 PUSH4 0x5E24B0F1 EQ PUSH2 0xD9 JUMPI DUP1 PUSH4 0x8086A92A EQ PUSH2 0xF5 JUMPI DUP1 PUSH4 0x8B5B9CCC EQ PUSH2 0x125 JUMPI DUP1 PUSH4 0xDFBF53AE EQ PUSH2 0x144 JUMPI PUSH2 0x7B JUMP JUMPDEST DUP1 PUSH4 0x4A93605 EQ PUSH2 0x7F JUMPI DUP1 PUSH4 0xE04A7D8 EQ PUSH2 0x9D JUMPI DUP1 PUSH4 0x2420F7F0 EQ PUSH2 0xBB JUMPI JUMPDEST PUSH0 PUSH0 REVERT JUMPDEST PUSH2 0x87 PUSH2 0x162 JUMP JUMPDEST PUSH1 0x40 MLOAD PUSH2 0x94 SWAP2 SWAP1 PUSH2 0xE12 JUMP JUMPDEST PUSH1 0x40 MLOAD DUP1 SWAP2 SUB SWAP1 RETURN JUMPDEST PUSH2 0xA5 PUSH2 0x187 JUMP JUMPDEST PUSH1 0x40 MLOAD PUSH2 0xB2 SWAP2 SWAP1 PUSH2 0xE45 JUMP JUMPDEST PUSH1 0x40 MLOAD DUP1 SWAP2 SUB SWAP1 RETURN JUMPDEST PUSH2 0xC3 PUSH2 0x19A JUMP JUMPDEST PUSH1 0x40 MLOAD PUSH2 0xD0 SWAP2 SWAP1 PUSH2 0xFA5 JUMP JUMPDEST PUSH1 0x40 MLOAD DUP1 SWAP2 SUB SWAP1 RETURN JUMPDEST PUSH2 0xF3 PUSH1 0x4 DUP1 CALLDATASIZE SUB DUP2 ADD SWAP1 PUSH2 0xEE SWAP2 SWAP1 PUSH2 0xFED JUMP JUMPDEST PUSH2 0x23C JUMP JUMPDEST STOP JUMPDEST PUSH2 0x10F PUSH1 0x4 DUP1 CALLDATASIZE SUB DUP2 ADD SWAP1 PUSH2 0x10A SWAP2 SWAP1 PUSH2 0x105E JUMP JUMPDEST PUSH2 0x515 JUMP JUMPDEST PUSH1 0x40 MLOAD PUSH2 0x11C SWAP2 SWAP1 PUSH2 0x10AB JUMP JUMPDEST PUSH1 0x40 MLOAD DUP1 SWAP2 SUB SWAP1 RETURN JUMPDEST PUSH2 0x12D PUSH2 0x54E JUMP JUMPDEST PUSH1 0x40 MLOAD PUSH2 0x13B SWAP3 SWAP2 SWAP1 PUSH2 0x10C4 JUMP JUMPDEST PUSH1 0x40 MLOAD DUP1 SWAP2 SUB SWAP1 RETURN JUMPDEST PUSH2 0x14C PUSH2 0x59C JUMP JUMPDEST PUSH1 0x40 MLOAD PUSH2 0x159 SWAP2 SWAP1 PUSH2 0xE12 JUMP JUMPDEST PUSH1 0x40 MLOAD DUP1 SWAP2 SUB SWAP1 RETURN JUMPDEST PUSH1 0x5 PUSH0 SWAP1 SLOAD SWAP1 PUSH2 0x100 EXP SWAP1 DIV PUSH20 0xFFFFFFFFFFFFFFFFFFFFFFFFFFFFFFFFFFFFFFFF AND DUP2 JUMP JUMPDEST PUSH1 0x5 PUSH1 0x14 SWAP1 SLOAD SWAP1 PUSH2 0x100 EXP SWAP1 DIV PUSH1 0xFF AND DUP2 JUMP JUMPDEST PUSH2 0x1A2 PUSH2 0xD84 JUMP JUMPDEST PUSH0 PUSH1 0x3 DUP1 PUSH1 0x20 MUL PUSH1 0x40 MLOAD SWAP1 DUP2 ADD PUSH1 0x40 MSTORE DUP1 SWAP3 SWAP2 SWAP1 PUSH0 SWAP1 JUMPDEST DUP3 DUP3 LT ISZERO PUSH2 0x233 JUMPI DUP4 DUP3 ADD PUSH1 0x3 DUP1 PUSH1 0x20 MUL PUSH1 0x40 MLOAD SWAP1 DUP2 ADD PUSH1 0x40 MSTORE DUP1 SWAP3 SWAP2 SWAP1 DUP3 PUSH1 0x3 DUP1 ISZERO PUSH2 0x21F JUMPI PUSH1 0x20 MUL DUP3 ADD SWAP2 PUSH0 SWAP1 JUMPDEST DUP3 DUP3 SWAP1 SLOAD SWAP1 PUSH2 0x100 EXP SWAP1 DIV PUSH1 0xFF AND PUSH1 0xFF AND DUP2 MSTORE PUSH1 0x20 ADD SWAP1 PUSH1 0x1 ADD SWAP1 PUSH1 0x20 DUP3 PUSH0 ADD DIV SWAP3 DUP4 ADD SWAP3 PUSH1 0x1 SUB DUP3 MUL SWAP2 POP DUP1 DUP5 GT PUSH2 0x1E9 JUMPI SWAP1 POP JUMPDEST POP POP POP POP POP DUP2 MSTORE PUSH1 0x20 ADD SWAP1 PUSH1 0x1 ADD SWAP1 PUSH2 0x1B9 JUMP JUMPDEST POP POP POP POP SWAP1 POP SWAP1 JUMP JUMPDEST PUSH1 0x5 PUSH1 0x14 SWAP1 SLOAD SWAP1 PUSH2 0x100 EXP SWAP1 DIV PUSH1 0xFF AND ISZERO PUSH2 0x28C JUMPI PUSH1 0x40 MLOAD PUSH32 0x8C379A000000000000000000000000000000000000000000000000000000000 DUP2 MSTORE PUSH1 0x4 ADD PUSH2 0x283 SWAP1 PUSH2 0x1145 JUMP JUMPDEST PUSH1 0x40 MLOAD DUP1 SWAP2 SUB SWAP1 REVERT JUMPDEST PUSH1 0x5 PUSH0 SWAP1 SLOAD SWAP1 PUSH2 0x100 EXP SWAP1 DIV PUSH20 0xFFFFFFFFFFFFFFFFFFFFFFFFFFFFFFFFFFFFFFFF AND PUSH20 0xFFFFFFFFFFFFFFFFFFFFFFFFFFFFFFFFFFFFFFFF AND CALLER PUSH20 0xFFFFFFFFFFFFFFFFFFFFFFFFFFFFFFFFFFFFFFFF AND EQ PUSH2 0x31B JUMPI PUSH1 0x40 MLOAD PUSH32 0x8C379A000000000000000000000000000000000000000000000000000000000 DUP2 MSTORE PUSH1 0x4 ADD PUSH2 0x312 SWAP1 PUSH2 0x11AD JUMP JUMPDEST PUSH1 0x40 MLOAD DUP1 SWAP2 SUB SWAP1 REVERT JUMPDEST PUSH1 0x3 DUP3 PUSH1 0xFF AND LT DUP1 ISZERO PUSH2 0x331 JUMPI POP PUSH1 0x3 DUP2 PUSH1 0xFF AND LT JUMPDEST PUSH2 0x370 JUMPI PUSH1 0x40 MLOAD PUSH32 0x8C379A000000000000000000000000000000000000000000000000000000000 DUP2 MSTORE PUSH1 0x4 ADD PUSH2 0x367 SWAP1 PUSH2 0x1215 JUMP JUMPDEST PUSH1 0x40 MLOAD DUP1 SWAP2 SUB SWAP1 REVERT JUMPDEST PUSH0 PUSH0 DUP4 PUSH1 0xFF AND PUSH1 0x3 DUP2 LT PUSH2 0x387 JUMPI PUSH2 0x386 PUSH2 0x1233 JUMP JUMPDEST JUMPDEST ADD DUP3 PUSH1 0xFF AND PUSH1 0x3 DUP2 LT PUSH2 0x39D JUMPI PUSH2 0x39C PUSH2 0x1233 JUMP JUMPDEST JUMPDEST PUSH1 0x20 SWAP2 DUP3 DUP3 DIV ADD SWAP2 SWAP1 MOD SWAP1 SLOAD SWAP1 PUSH2 0x100 EXP SWAP1 DIV PUSH1 0xFF AND PUSH1 0xFF AND EQ PUSH2 0x3F6 JUMPI PUSH1 0x40 MLOAD PUSH32 0x8C379A000000000000000000000000000000000000000000000000000000000 DUP2 MSTORE PUSH1 0x4 ADD PUSH2 0x3ED SWAP1 PUSH2 0x12AA JUMP JUMPDEST PUSH1 0x40 MLOAD DUP1 SWAP2 SUB SWAP1 REVERT JUMPDEST PUSH1 0x3 PUSH0 SWAP1 SLOAD SWAP1 PUSH2 0x100 EXP SWAP1 DIV PUSH20 0xFFFFFFFFFFFFFFFFFFFFFFFFFFFFFFFFFFFFFFFF AND PUSH20 0xFFFFFFFFFFFFFFFFFFFFFFFFFFFFFFFFFFFFFFFF AND CALLER PUSH20 0xFFFFFFFFFFFFFFFFFFFFFFFFFFFFFFFFFFFFFFFF AND SUB PUSH2 0x49D JUMPI PUSH1 0x1 PUSH0 DUP4 PUSH1 0xFF AND PUSH1 0x3 DUP2 LT PUSH2 0x462 JUMPI PUSH2 0x461 PUSH2 0x1233 JUMP JUMPDEST JUMPDEST ADD DUP3 PUSH1 0xFF AND PUSH1 0x3 DUP2 LT PUSH2 0x478 JUMPI PUSH2 0x477 PUSH2 0x1233 JUMP JUMPDEST JUMPDEST PUSH1 0x20 SWAP2 DUP3 DUP3 DIV ADD SWAP2 SWAP1 MOD PUSH2 0x100 EXP DUP2 SLOAD DUP2 PUSH1 0xFF MUL NOT AND SWAP1 DUP4 PUSH1 0xFF AND MUL OR SWAP1 SSTORE POP PUSH2 0x4EC JUMP JUMPDEST PUSH1 0x2 PUSH0 DUP4 PUSH1 0xFF AND PUSH1 0x3 DUP2 LT PUSH2 0x4B5 JUMPI PUSH2 0x4B4 PUSH2 0x1233 JUMP JUMPDEST JUMPDEST ADD DUP3 PUSH1 0xFF AND PUSH1 0x3 DUP2 LT PUSH2 0x4CB JUMPI PUSH2 0x4CA PUSH2 0x1233 JUMP JUMPDEST JUMPDEST PUSH1 0x20 SWAP2 DUP3 DUP3 DIV ADD SWAP2 SWAP1 MOD PUSH2 0x100 EXP DUP2 SLOAD DUP2 PUSH1 0xFF MUL NOT AND SWAP1 DUP4 PUSH1 0xFF AND MUL OR SWAP1 SSTORE POP JUMPDEST PUSH2 0x4F4 PUSH2 0x5C1 JUMP JUMPDEST PUSH1 0x5 PUSH1 0x14 SWAP1 SLOAD SWAP1 PUSH2 0x100 EXP SWAP1 DIV PUSH1 0xFF AND PUSH2 0x511 JUMPI PUSH2 0x510 PUSH2 0xB85 JUMP JUMPDEST JUMPDEST POP POP JUMP JUMPDEST PUSH0 DUP3 PUSH1 0x3 DUP2 LT PUSH2 0x523 JUMPI PUSH0 DUP1 REVERT JUMPDEST ADD DUP2 PUSH1 0x3 DUP2 LT PUSH2 0x531 JUMPI PUSH0 DUP1 REVERT JUMPDEST PUSH1 0x20 SWAP2 DUP3 DUP3 DIV ADD SWAP2 SWAP1 MOD SWAP2 POP SWAP2 POP SWAP1 SLOAD SWAP1 PUSH2 0x100 EXP SWAP1 DIV PUSH1 0xFF AND DUP2 JUMP JUMPDEST PUSH0 PUSH0 PUSH1 0x3 PUSH0 SWAP1 SLOAD SWAP1 PUSH2 0x100 EXP SWAP1 DIV PUSH20 0xFFFFFFFFFFFFFFFFFFFFFFFFFFFFFFFFFFFFFFFF AND PUSH1 0x4 PUSH0 SWAP1 SLOAD SWAP1 PUSH2 0x100 EXP SWAP1 DIV PUSH20 0xFFFFFFFFFFFFFFFFFFFFFFFFFFFFFFFFFFFFFFFF AND SWAP2 POP SWAP2 POP SWAP1 SWAP2 JUMP JUMPDEST PUSH1 0x6 PUSH0 SWAP1 SLOAD SWAP1 PUSH2 0x100 EXP SWAP1 DIV PUSH20 0xFFFFFFFFFFFFFFFFFFFFFFFFFFFFFFFFFFFFFFFF AND DUP2 JUMP JUMPDEST PUSH0 PUSH1 0x3 PUSH0 SWAP1 SLOAD SWAP1 PUSH2 0x100 EXP SWAP1 DIV PUSH20 0xFFFFFFFFFFFFFFFFFFFFFFFFFFFFFFFFFFFFFFFF AND PUSH20 0xFFFFFFFFFFFFFFFFFFFFFFFFFFFFFFFFFFFFFFFF AND CALLER PUSH20 0xFFFFFFFFFFFFFFFFFFFFFFFFFFFFFFFFFFFFFFFF AND SUB PUSH2 0x61F JUMPI PUSH1 0x1 SWAP1 POP PUSH2 0x624 JUMP JUMPDEST PUSH1 0x2 SWAP1 POP JUMPDEST PUSH0 PUSH0 SWAP1 POP JUMPDEST PUSH1 0x3 DUP2 PUSH1 0xFF AND LT ISZERO PUSH2 0x838 JUMPI DUP2 PUSH1 0xFF AND PUSH0 DUP3 PUSH1 0xFF AND PUSH1 0x3 DUP2 LT PUSH2 0x64F JUMPI PUSH2 0x64E PUSH2 0x1233 JUMP JUMPDEST JUMPDEST ADD PUSH0 PUSH1 0x3 DUP2 LT PUSH2 0x662 JUMPI PUSH2 0x661 PUSH2 0x1233 JUMP JUMPDEST JUMPDEST PUSH1 0x20 SWAP2 DUP3 DUP3 DIV ADD SWAP2 SWAP1 MOD SWAP1 SLOAD SWAP1 PUSH2 0x100 EXP SWAP1 DIV PUSH1 0xFF AND PUSH1 0xFF AND EQ DUP1 ISZERO PUSH2 0x6CC JUMPI POP DUP2 PUSH1 0xFF AND PUSH0 DUP3 PUSH1 0xFF AND PUSH1 0x3 DUP2 LT PUSH2 0x69D JUMPI PUSH2 0x69C PUSH2 0x1233 JUMP JUMPDEST JUMPDEST ADD PUSH1 0x1 PUSH1 0x3 DUP2 LT PUSH2 0x6B1 JUMPI PUSH2 0x6B0 PUSH2 0x1233 JUMP JUMPDEST JUMPDEST PUSH1 0x20 SWAP2 DUP3 DUP3 DIV ADD SWAP2 SWAP1 MOD SWAP1 SLOAD SWAP1 PUSH2 0x100 EXP SWAP1 DIV PUSH1 0xFF AND PUSH1 0xFF AND EQ JUMPDEST DUP1 ISZERO PUSH2 0x71C JUMPI POP DUP2 PUSH1 0xFF AND PUSH0 DUP3 PUSH1 0xFF AND PUSH1 0x3 DUP2 LT PUSH2 0x6ED JUMPI PUSH2 0x6EC PUSH2 0x1233 JUMP JUMPDEST JUMPDEST ADD PUSH1 0x2 PUSH1 0x3 DUP2 LT PUSH2 0x701 JUMPI PUSH2 0x700 PUSH2 0x1233 JUMP JUMPDEST JUMPDEST PUSH1 0x20 SWAP2 DUP3 DUP3 DIV ADD SWAP2 SWAP1 MOD SWAP1 SLOAD SWAP1 PUSH2 0x100 EXP SWAP1 DIV PUSH1 0xFF AND PUSH1 0xFF AND EQ JUMPDEST ISZERO PUSH2 0x730 JUMPI PUSH2 0x729 PUSH2 0xCC3 JUMP JUMPDEST POP POP PUSH2 0xB83 JUMP JUMPDEST DUP2 PUSH1 0xFF AND PUSH0 PUSH0 PUSH1 0x3 DUP2 LT PUSH2 0x747 JUMPI PUSH2 0x746 PUSH2 0x1233 JUMP JUMPDEST JUMPDEST ADD DUP3 PUSH1 0xFF AND PUSH1 0x3 DUP2 LT PUSH2 0x75D JUMPI PUSH2 0x75C PUSH2 0x1233 JUMP JUMPDEST JUMPDEST PUSH1 0x20 SWAP2 DUP3 DUP3 DIV ADD SWAP2 SWAP1 MOD SWAP1 SLOAD SWAP1 PUSH2 0x100 EXP SWAP1 DIV PUSH1 0xFF AND PUSH1 0xFF AND EQ DUP1 ISZERO PUSH2 0x7C7 JUMPI POP DUP2 PUSH1 0xFF AND PUSH0 PUSH1 0x1 PUSH1 0x3 DUP2 LT PUSH2 0x796 JUMPI PUSH2 0x795 PUSH2 0x1233 JUMP JUMPDEST JUMPDEST ADD DUP3 PUSH1 0xFF AND PUSH1 0x3 DUP2 LT PUSH2 0x7AC JUMPI PUSH2 0x7AB PUSH2 0x1233 JUMP JUMPDEST JUMPDEST PUSH1 0x20 SWAP2 DUP3 DUP3 DIV ADD SWAP2 SWAP1 MOD SWAP1 SLOAD SWAP1 PUSH2 0x100 EXP SWAP1 DIV PUSH1 0xFF AND PUSH1 0xFF AND EQ JUMPDEST DUP1 ISZERO PUSH2 0x817 JUMPI POP DUP2 PUSH1 0xFF AND PUSH0 PUSH1 0x2 PUSH1 0x3 DUP2 LT PUSH2 0x7E6 JUMPI PUSH2 0x7E5 PUSH2 0x1233 JUMP JUMPDEST JUMPDEST ADD DUP3 PUSH1 0xFF AND PUSH1 0x3 DUP2 LT PUSH2 0x7FC JUMPI PUSH2 0x7FB PUSH2 0x1233 JUMP JUMPDEST JUMPDEST PUSH1 0x20 SWAP2 DUP3 DUP3 DIV ADD SWAP2 SWAP1 MOD SWAP1 SLOAD SWAP1 PUSH2 0x100 EXP SWAP1 DIV PUSH1 0xFF AND PUSH1 0xFF AND EQ JUMPDEST ISZERO PUSH2 0x82B JUMPI PUSH2 0x824 PUSH2 0xCC3 JUMP JUMPDEST POP POP PUSH2 0xB83 JUMP JUMPDEST DUP1 DUP1 PUSH1 0x1 ADD SWAP2 POP POP PUSH2 0x629 JUMP JUMPDEST POP DUP1 PUSH1 0xFF AND PUSH0 PUSH0 PUSH1 0x3 DUP2 LT PUSH2 0x850 JUMPI PUSH2 0x84F PUSH2 0x1233 JUMP JUMPDEST JUMPDEST ADD PUSH0 PUSH1 0x3 DUP2 LT PUSH2 0x863 JUMPI PUSH2 0x862 PUSH2 0x1233 JUMP JUMPDEST JUMPDEST PUSH1 0x20 SWAP2 DUP3 DUP3 DIV ADD SWAP2 SWAP1 MOD SWAP1 SLOAD SWAP1 PUSH2 0x100 EXP SWAP1 DIV PUSH1 0xFF AND PUSH1 0xFF AND EQ DUP1 ISZERO PUSH2 0x8CB JUMPI POP DUP1 PUSH1 0xFF AND PUSH0 PUSH1 0x1 PUSH1 0x3 DUP2 LT PUSH2 0x89C JUMPI PUSH2 0x89B PUSH2 0x1233 JUMP JUMPDEST JUMPDEST ADD PUSH1 0x1 PUSH1 0x3 DUP2 LT PUSH2 0x8B0 JUMPI PUSH2 0x8AF PUSH2 0x1233 JUMP JUMPDEST JUMPDEST PUSH1 0x20 SWAP2 DUP3 DUP3 DIV ADD SWAP2 SWAP1 MOD SWAP1 SLOAD SWAP1 PUSH2 0x100 EXP SWAP1 DIV PUSH1 0xFF AND PUSH1 0xFF AND EQ JUMPDEST DUP1 ISZERO PUSH2 0x919 JUMPI POP DUP1 PUSH1 0xFF AND PUSH0 PUSH1 0x2 PUSH1 0x3 DUP2 LT PUSH2 0x8EA JUMPI PUSH2 0x8E9 PUSH2 0x1233 JUMP JUMPDEST JUMPDEST ADD PUSH1 0x2 PUSH1 0x3 DUP2 LT PUSH2 0x8FE JUMPI PUSH2 0x8FD PUSH2 0x1233 JUMP JUMPDEST JUMPDEST PUSH1 0x20 SWAP2 DUP3 DUP3 DIV ADD SWAP2 SWAP1 MOD SWAP1 SLOAD SWAP1 PUSH2 0x100 EXP SWAP1 DIV PUSH1 0xFF AND PUSH1 0xFF AND EQ JUMPDEST ISZERO PUSH2 0x92C JUMPI PUSH2 0x926 PUSH2 0xCC3 JUMP JUMPDEST POP PUSH2 0xB83 JUMP JUMPDEST DUP1 PUSH1 0xFF AND PUSH0 PUSH0 PUSH1 0x3 DUP2 LT PUSH2 0x943 JUMPI PUSH2 0x942 PUSH2 0x1233 JUMP JUMPDEST JUMPDEST ADD PUSH1 0x2 PUSH1 0x3 DUP2 LT PUSH2 0x957 JUMPI PUSH2 0x956 PUSH2 0x1233 JUMP JUMPDEST JUMPDEST PUSH1 0x20 SWAP2 DUP3 DUP3 DIV ADD SWAP2 SWAP1 MOD SWAP1 SLOAD SWAP1 PUSH2 0x100 EXP SWAP1 DIV PUSH1 0xFF AND PUSH1 0xFF AND EQ DUP1 ISZERO PUSH2 0x9BF JUMPI POP DUP1 PUSH1 0xFF AND PUSH0 PUSH1 0x1 PUSH1 0x3 DUP2 LT PUSH2 0x990 JUMPI PUSH2 0x98F PUSH2 0x1233 JUMP JUMPDEST JUMPDEST ADD PUSH1 0x1 PUSH1 0x3 DUP2 LT PUSH2 0x9A4 JUMPI PUSH2 0x9A3 PUSH2 0x1233 JUMP JUMPDEST JUMPDEST PUSH1 0x20 SWAP2 DUP3 DUP3 DIV ADD SWAP2 SWAP1 MOD SWAP1 SLOAD SWAP1 PUSH2 0x100 EXP SWAP1 DIV PUSH1 0xFF AND PUSH1 0xFF AND EQ JUMPDEST DUP1 ISZERO PUSH2 0xA0C JUMPI POP DUP1 PUSH1 0xFF AND PUSH0 PUSH1 0x2 PUSH1 0x3 DUP2 LT PUSH2 0x9DE JUMPI PUSH2 0x9DD PUSH2 0x1233 JUMP JUMPDEST JUMPDEST ADD PUSH0 PUSH1 0x3 DUP2 LT PUSH2 0x9F1 JUMPI PUSH2 0x9F0 PUSH2 0x1233 JUMP JUMPDEST JUMPDEST PUSH1 0x20 SWAP2 DUP3 DUP3 DIV ADD SWAP2 SWAP1 MOD SWAP1 SLOAD SWAP1 PUSH2 0x100 EXP SWAP1 DIV PUSH1 0xFF AND PUSH1 0xFF AND EQ JUMPDEST ISZERO PUSH2 0xA1F JUMPI PUSH2 0xA19 PUSH2 0xCC3 JUMP JUMPDEST POP PUSH2 0xB83 JUMP JUMPDEST PUSH0 PUSH0 SWAP1 POP PUSH0 PUSH0 SWAP1 POP JUMPDEST PUSH1 0x3 DUP2 LT ISZERO PUSH2 0xAB4 JUMPI PUSH0 PUSH0 SWAP1 POP JUMPDEST PUSH1 0x3 DUP2 PUSH1 0xFF AND LT ISZERO PUSH2 0xAA6 JUMPI PUSH0 PUSH0 DUP4 PUSH1 0x3 DUP2 LT PUSH2 0xA56 JUMPI PUSH2 0xA55 PUSH2 0x1233 JUMP JUMPDEST JUMPDEST ADD DUP3 PUSH1 0xFF AND PUSH1 0x3 DUP2 LT PUSH2 0xA6C JUMPI PUSH2 0xA6B PUSH2 0x1233 JUMP JUMPDEST JUMPDEST PUSH1 0x20 SWAP2 DUP3 DUP3 DIV ADD SWAP2 SWAP1 MOD SWAP1 SLOAD SWAP1 PUSH2 0x100 EXP SWAP1 DIV PUSH1 0xFF AND PUSH1 0xFF AND EQ PUSH2 0xA99 JUMPI DUP3 DUP1 PUSH2 0xA95 SWAP1 PUSH2 0x12F5 JUMP JUMPDEST SWAP4 POP POP JUMPDEST DUP1 DUP1 PUSH1 0x1 ADD SWAP2 POP POP PUSH2 0xA36 JUMP JUMPDEST POP DUP1 DUP1 PUSH1 0x1 ADD SWAP2 POP POP PUSH2 0xA28 JUMP JUMPDEST POP PUSH1 0x9 DUP2 PUSH1 0xFF AND SUB PUSH2 0xB80 JUMPI PUSH1 0x1 PUSH1 0x5 PUSH1 0x14 PUSH2 0x100 EXP DUP2 SLOAD DUP2 PUSH1 0xFF MUL NOT AND SWAP1 DUP4 ISZERO ISZERO MUL OR SWAP1 SSTORE POP PUSH0 PUSH1 0x6 PUSH0 PUSH2 0x100 EXP DUP2 SLOAD DUP2 PUSH20 0xFFFFFFFFFFFFFFFFFFFFFFFFFFFFFFFFFFFFFFFF MUL NOT AND SWAP1 DUP4 PUSH20 0xFFFFFFFFFFFFFFFFFFFFFFFFFFFFFFFFFFFFFFFF AND MUL OR SWAP1 SSTORE POP PUSH1 0x6 PUSH0 SWAP1 SLOAD SWAP1 PUSH2 0x100 EXP SWAP1 DIV PUSH20 0xFFFFFFFFFFFFFFFFFFFFFFFFFFFFFFFFFFFFFFFF AND PUSH20 0xFFFFFFFFFFFFFFFFFFFFFFFFFFFFFFFFFFFFFFFF AND PUSH32 0x51B77D00D3C0B7E376E9EE146711CEB2C08E58A5DBE38055A618E52109F720C1 PUSH1 0x40 MLOAD PUSH1 0x40 MLOAD DUP1 SWAP2 SUB SWAP1 LOG2 JUMPDEST POP POP JUMPDEST JUMP JUMPDEST PUSH1 0x3 PUSH0 SWAP1 SLOAD SWAP1 PUSH2 0x100 EXP SWAP1 DIV PUSH20 0xFFFFFFFFFFFFFFFFFFFFFFFFFFFFFFFFFFFFFFFF AND PUSH20 0xFFFFFFFFFFFFFFFFFFFFFFFFFFFFFFFFFFFFFFFF AND PUSH1 0x5 PUSH0 SWAP1 SLOAD SWAP1 PUSH2 0x100 EXP SWAP1 DIV PUSH20 0xFFFFFFFFFFFFFFFFFFFFFFFFFFFFFFFFFFFFFFFF AND PUSH20 0xFFFFFFFFFFFFFFFFFFFFFFFFFFFFFFFFFFFFFFFF AND EQ PUSH2 0xC5F JUMPI PUSH1 0x3 PUSH0 SWAP1 SLOAD SWAP1 PUSH2 0x100 EXP SWAP1 DIV PUSH20 0xFFFFFFFFFFFFFFFFFFFFFFFFFFFFFFFFFFFFFFFF AND PUSH1 0x5 PUSH0 PUSH2 0x100 EXP DUP2 SLOAD DUP2 PUSH20 0xFFFFFFFFFFFFFFFFFFFFFFFFFFFFFFFFFFFFFFFF MUL NOT AND SWAP1 DUP4 PUSH20 0xFFFFFFFFFFFFFFFFFFFFFFFFFFFFFFFFFFFFFFFF AND MUL OR SWAP1 SSTORE PUSH2 0xCC0 JUMP JUMPDEST PUSH1 0x4 PUSH0 SWAP1 SLOAD SWAP1 PUSH2 0x100 EXP SWAP1 DIV PUSH20 0xFFFFFFFFFFFFFFFFFFFFFFFFFFFFFFFFFFFFFFFF AND PUSH1 0x5 PUSH0 PUSH2 0x100 EXP DUP2 SLOAD DUP2 PUSH20 0xFFFFFFFFFFFFFFFFFFFFFFFFFFFFFFFFFFFFFFFF MUL NOT AND SWAP1 DUP4 PUSH20 0xFFFFFFFFFFFFFFFFFFFFFFFFFFFFFFFFFFFFFFFF AND MUL OR SWAP1 SSTORE JUMPDEST POP JUMP JUMPDEST PUSH1 0x1 PUSH1 0x5 PUSH1 0x14 PUSH2 0x100 EXP DUP2 SLOAD DUP2 PUSH1 0xFF MUL NOT AND SWAP1 DUP4 ISZERO ISZERO MUL OR SWAP1 SSTORE POP CALLER PUSH1 0x6 PUSH0 PUSH2 0x100 EXP DUP2 SLOAD DUP2 PUSH20 0xFFFFFFFFFFFFFFFFFFFFFFFFFFFFFFFFFFFFFFFF MUL NOT AND SWAP1 DUP4 PUSH20 0xFFFFFFFFFFFFFFFFFFFFFFFFFFFFFFFFFFFFFFFF AND MUL OR SWAP1 SSTORE POP PUSH1 0x6 PUSH0 SWAP1 SLOAD SWAP1 PUSH2 0x100 EXP SWAP1 DIV PUSH20 0xFFFFFFFFFFFFFFFFFFFFFFFFFFFFFFFFFFFFFFFF AND PUSH20 0xFFFFFFFFFFFFFFFFFFFFFFFFFFFFFFFFFFFFFFFF AND PUSH32 0x51B77D00D3C0B7E376E9EE146711CEB2C08E58A5DBE38055A618E52109F720C1 PUSH1 0x40 MLOAD PUSH1 0x40 MLOAD DUP1 SWAP2 SUB SWAP1 LOG2 JUMP JUMPDEST PUSH1 0x40 MLOAD DUP1 PUSH1 0x60 ADD PUSH1 0x40 MSTORE DUP1 PUSH1 0x3 SWAP1 JUMPDEST PUSH2 0xD9B PUSH2 0xDB1 JUMP JUMPDEST DUP2 MSTORE PUSH1 0x20 ADD SWAP1 PUSH1 0x1 SWAP1 SUB SWAP1 DUP2 PUSH2 0xD93 JUMPI SWAP1 POP POP SWAP1 JUMP JUMPDEST PUSH1 0x40 MLOAD DUP1 PUSH1 0x60 ADD PUSH1 0x40 MSTORE DUP1 PUSH1 0x3 SWAP1 PUSH1 0x20 DUP3 MUL DUP1 CALLDATASIZE DUP4 CALLDATACOPY DUP1 DUP3 ADD SWAP2 POP POP SWAP1 POP POP SWAP1 JUMP JUMPDEST PUSH0 PUSH20 0xFFFFFFFFFFFFFFFFFFFFFFFFFFFFFFFFFFFFFFFF DUP3 AND SWAP1 POP SWAP2 SWAP1 POP JUMP JUMPDEST PUSH0 PUSH2 0xDFC DUP3 PUSH2 0xDD3 JUMP JUMPDEST SWAP1 POP SWAP2 SWAP1 POP JUMP JUMPDEST PUSH2 0xE0C DUP2 PUSH2 0xDF2 JUMP JUMPDEST DUP3 MSTORE POP POP JUMP JUMPDEST PUSH0 PUSH1 0x20 DUP3 ADD SWAP1 POP PUSH2 0xE25 PUSH0 DUP4 ADD DUP5 PUSH2 0xE03 JUMP JUMPDEST SWAP3 SWAP2 POP POP JUMP JUMPDEST PUSH0 DUP2 ISZERO ISZERO SWAP1 POP SWAP2 SWAP1 POP JUMP JUMPDEST PUSH2 0xE3F DUP2 PUSH2 0xE2B JUMP JUMPDEST DUP3 MSTORE POP POP JUMP JUMPDEST PUSH0 PUSH1 0x20 DUP3 ADD SWAP1 POP PUSH2 0xE58 PUSH0 DUP4 ADD DUP5 PUSH2 0xE36 JUMP JUMPDEST SWAP3 SWAP2 POP POP JUMP JUMPDEST PUSH0 PUSH1 0x3 SWAP1 POP SWAP2 SWAP1 POP JUMP JUMPDEST PUSH0 DUP2 SWAP1 POP SWAP3 SWAP2 POP POP JUMP JUMPDEST PUSH0 DUP2 SWAP1 POP SWAP2 SWAP1 POP JUMP JUMPDEST PUSH0 PUSH1 0x3 SWAP1 POP SWAP2 SWAP1 POP JUMP JUMPDEST PUSH0 DUP2 SWAP1 POP SWAP3 SWAP2 POP POP JUMP JUMPDEST PUSH0 DUP2 SWAP1 POP SWAP2 SWAP1 POP JUMP JUMPDEST PUSH0 PUSH1 0xFF DUP3 AND SWAP1 POP SWAP2 SWAP1 POP JUMP JUMPDEST PUSH2 0xEAD DUP2 PUSH2 0xE98 JUMP JUMPDEST DUP3 MSTORE POP POP JUMP JUMPDEST PUSH0 PUSH2 0xEBE DUP4 DUP4 PUSH2 0xEA4 JUMP JUMPDEST PUSH1 0x20 DUP4 ADD SWAP1 POP SWAP3 SWAP2 POP POP JUMP JUMPDEST PUSH0 PUSH1 0x20 DUP3 ADD SWAP1 POP SWAP2 SWAP1 POP JUMP JUMPDEST PUSH2 0xEDF DUP2 PUSH2 0xE7B JUMP JUMPDEST PUSH2 0xEE9 DUP2 DUP5 PUSH2 0xE85 JUMP JUMPDEST SWAP3 POP PUSH2 0xEF4 DUP3 PUSH2 0xE8F JUMP JUMPDEST DUP1 PUSH0 JUMPDEST DUP4 DUP2 LT ISZERO PUSH2 0xF24 JUMPI DUP2 MLOAD PUSH2 0xF0B DUP8 DUP3 PUSH2 0xEB3 JUMP JUMPDEST SWAP7 POP PUSH2 0xF16 DUP4 PUSH2 0xECA JUMP JUMPDEST SWAP3 POP POP PUSH1 0x1 DUP2 ADD SWAP1 POP PUSH2 0xEF7 JUMP JUMPDEST POP POP POP POP POP POP JUMP JUMPDEST PUSH0 PUSH2 0xF37 DUP4 DUP4 PUSH2 0xED6 JUMP JUMPDEST PUSH1 0x60 DUP4 ADD SWAP1 POP SWAP3 SWAP2 POP POP JUMP JUMPDEST PUSH0 PUSH1 0x20 DUP3 ADD SWAP1 POP SWAP2 SWAP1 POP JUMP JUMPDEST PUSH2 0xF58 DUP2 PUSH2 0xE5E JUMP JUMPDEST PUSH2 0xF62 DUP2 DUP5 PUSH2 0xE68 JUMP JUMPDEST SWAP3 POP PUSH2 0xF6D DUP3 PUSH2 0xE72 JUMP JUMPDEST DUP1 PUSH0 JUMPDEST DUP4 DUP2 LT ISZERO PUSH2 0xF9D JUMPI DUP2 MLOAD PUSH2 0xF84 DUP8 DUP3 PUSH2 0xF2C JUMP JUMPDEST SWAP7 POP PUSH2 0xF8F DUP4 PUSH2 0xF43 JUMP JUMPDEST SWAP3 POP POP PUSH1 0x1 DUP2 ADD SWAP1 POP PUSH2 0xF70 JUMP JUMPDEST POP POP POP POP POP POP JUMP JUMPDEST PUSH0 PUSH2 0x120 DUP3 ADD SWAP1 POP PUSH2 0xFB9 PUSH0 DUP4 ADD DUP5 PUSH2 0xF4F JUMP JUMPDEST SWAP3 SWAP2 POP POP JUMP JUMPDEST PUSH0 PUSH0 REVERT JUMPDEST PUSH2 0xFCC DUP2 PUSH2 0xE98 JUMP JUMPDEST DUP2 EQ PUSH2 0xFD6 JUMPI PUSH0 PUSH0 REVERT JUMPDEST POP JUMP JUMPDEST PUSH0 DUP2 CALLDATALOAD SWAP1 POP PUSH2 0xFE7 DUP2 PUSH2 0xFC3 JUMP JUMPDEST SWAP3 SWAP2 POP POP JUMP JUMPDEST PUSH0 PUSH0 PUSH1 0x40 DUP4 DUP6 SUB SLT ISZERO PUSH2 0x1003 JUMPI PUSH2 0x1002 PUSH2 0xFBF JUMP JUMPDEST JUMPDEST PUSH0 PUSH2 0x1010 DUP6 DUP3 DUP7 ADD PUSH2 0xFD9 JUMP JUMPDEST SWAP3 POP POP PUSH1 0x20 PUSH2 0x1021 DUP6 DUP3 DUP7 ADD PUSH2 0xFD9 JUMP JUMPDEST SWAP2 POP POP SWAP3 POP SWAP3 SWAP1 POP JUMP JUMPDEST PUSH0 DUP2 SWAP1 POP SWAP2 SWAP1 POP JUMP JUMPDEST PUSH2 0x103D DUP2 PUSH2 0x102B JUMP JUMPDEST DUP2 EQ PUSH2 0x1047 JUMPI PUSH0 PUSH0 REVERT JUMPDEST POP JUMP JUMPDEST PUSH0 DUP2 CALLDATALOAD SWAP1 POP PUSH2 0x1058 DUP2 PUSH2 0x1034 JUMP JUMPDEST SWAP3 SWAP2 POP POP JUMP JUMPDEST PUSH0 PUSH0 PUSH1 0x40 DUP4 DUP6 SUB SLT ISZERO PUSH2 0x1074 JUMPI PUSH2 0x1073 PUSH2 0xFBF JUMP JUMPDEST JUMPDEST PUSH0 PUSH2 0x1081 DUP6 DUP3 DUP7 ADD PUSH2 0x104A JUMP JUMPDEST SWAP3 POP POP PUSH1 0x20 PUSH2 0x1092 DUP6 DUP3 DUP7 ADD PUSH2 0x104A JUMP JUMPDEST SWAP2 POP POP SWAP3 POP SWAP3 SWAP1 POP JUMP JUMPDEST PUSH2 0x10A5 DUP2 PUSH2 0xE98 JUMP JUMPDEST DUP3 MSTORE POP POP JUMP JUMPDEST PUSH0 PUSH1 0x20 DUP3 ADD SWAP1 POP PUSH2 0x10BE PUSH0 DUP4 ADD DUP5 PUSH2 0x109C JUMP JUMPDEST SWAP3 SWAP2 POP POP JUMP JUMPDEST PUSH0 PUSH1 0x40 DUP3 ADD SWAP1 POP PUSH2 0x10D7 PUSH0 DUP4 ADD DUP6 PUSH2 0xE03 JUMP JUMPDEST PUSH2 0x10E4 PUSH1 0x20 DUP4 ADD DUP5 PUSH2 0xE03 JUMP JUMPDEST SWAP4 SWAP3 POP POP POP JUMP JUMPDEST PUSH0 DUP3 DUP3 MSTORE PUSH1 0x20 DUP3 ADD SWAP1 POP SWAP3 SWAP2 POP POP JUMP JUMPDEST PUSH32 0x5468652067616D65206973206F7665722E000000000000000000000000000000 PUSH0 DUP3 ADD MSTORE POP JUMP JUMPDEST PUSH0 PUSH2 0x112F PUSH1 0x11 DUP4 PUSH2 0x10EB JUMP JUMPDEST SWAP2 POP PUSH2 0x113A DUP3 PUSH2 0x10FB JUMP JUMPDEST PUSH1 0x20 DUP3 ADD SWAP1 POP SWAP2 SWAP1 POP JUMP JUMPDEST PUSH0 PUSH1 0x20 DUP3 ADD SWAP1 POP DUP2 DUP2 SUB PUSH0 DUP4 ADD MSTORE PUSH2 0x115C DUP2 PUSH2 0x1123 JUMP JUMPDEST SWAP1 POP SWAP2 SWAP1 POP JUMP JUMPDEST PUSH32 0x49742773206E6F7420796F7572207475726E2E00000000000000000000000000 PUSH0 DUP3 ADD MSTORE POP JUMP JUMPDEST PUSH0 PUSH2 0x1197 PUSH1 0x13 DUP4 PUSH2 0x10EB JUMP JUMPDEST SWAP2 POP PUSH2 0x11A2 DUP3 PUSH2 0x1163 JUMP JUMPDEST PUSH1 0x20 DUP3 ADD SWAP1 POP SWAP2 SWAP1 POP JUMP JUMPDEST PUSH0 PUSH1 0x20 DUP3 ADD SWAP1 POP DUP2 DUP2 SUB PUSH0 DUP4 ADD MSTORE PUSH2 0x11C4 DUP2 PUSH2 0x118B JUMP JUMPDEST SWAP1 POP SWAP2 SWAP1 POP JUMP JUMPDEST PUSH32 0x496E76616C696420726F77206F7220636F6C756D6E20706C6163656D656E7400 PUSH0 DUP3 ADD MSTORE POP JUMP JUMPDEST PUSH0 PUSH2 0x11FF PUSH1 0x1F DUP4 PUSH2 0x10EB JUMP JUMPDEST SWAP2 POP PUSH2 0x120A DUP3 PUSH2 0x11CB JUMP JUMPDEST PUSH1 0x20 DUP3 ADD SWAP1 POP SWAP2 SWAP1 POP JUMP JUMPDEST PUSH0 PUSH1 0x20 DUP3 ADD SWAP1 POP DUP2 DUP2 SUB PUSH0 DUP4 ADD MSTORE PUSH2 0x122C DUP2 PUSH2 0x11F3 JUMP JUMPDEST SWAP1 POP SWAP2 SWAP1 POP JUMP JUMPDEST PUSH32 0x4E487B7100000000000000000000000000000000000000000000000000000000 PUSH0 MSTORE PUSH1 0x32 PUSH1 0x4 MSTORE PUSH1 0x24 PUSH0 REVERT JUMPDEST PUSH32 0x43656C6C20697320616C72656164792074616B656E2E00000000000000000000 PUSH0 DUP3 ADD MSTORE POP JUMP JUMPDEST PUSH0 PUSH2 0x1294 PUSH1 0x16 DUP4 PUSH2 0x10EB JUMP JUMPDEST SWAP2 POP PUSH2 0x129F DUP3 PUSH2 0x1260 JUMP JUMPDEST PUSH1 0x20 DUP3 ADD SWAP1 POP SWAP2 SWAP1 POP JUMP JUMPDEST PUSH0 PUSH1 0x20 DUP3 ADD SWAP1 POP DUP2 DUP2 SUB PUSH0 DUP4 ADD MSTORE PUSH2 0x12C1 DUP2 PUSH2 0x1288 JUMP JUMPDEST SWAP1 POP SWAP2 SWAP1 POP JUMP JUMPDEST PUSH32 0x4E487B7100000000000000000000000000000000000000000000000000000000 PUSH0 MSTORE PUSH1 0x11 PUSH1 0x4 MSTORE PUSH1 0x24 PUSH0 REVERT JUMPDEST PUSH0 PUSH2 0x12FF DUP3 PUSH2 0xE98 JUMP JUMPDEST SWAP2 POP PUSH1 0xFF DUP3 SUB PUSH2 0x1312 JUMPI PUSH2 0x1311 PUSH2 0x12C8 JUMP JUMPDEST JUMPDEST PUSH1 0x1 DUP3 ADD SWAP1 POP SWAP2 SWAP1 POP JUMP INVALID LOG2 PUSH5 0x6970667358 0x22 SLT KECCAK256 0xC1 LOG4 PUSH7 0xC1A7B6705263B4 CALLER RETF BALANCE SWAP11 0xB2 AND SWAP11 PUSH21 0xD68DD3E72D919A1601B27568E5F64736F6C634300 ADDMOD 0x1E STOP CALLER "
				},
				"gasEstimates": {
					"creation": {
						"codeDepositCost": "989400",
						"executionCost": "infinite",
						"totalCost": "infinite"
					},
					"external": {
						"board(uint256,uint256)": "infinite",
						"getBoardState()": "infinite",
						"getPlayers()": "infinite",
						"isGameOver()": "2540",
						"makeMove(uint8,uint8)": "infinite",
						"nextPlayer()": "2509",
						"winner()": "2574"
					},
					"internal": {
						"checkWin()": "infinite",
						"endGameWithWinner()": "51896",
						"switchTurn()": "30726"
					}
				},
				"methodIdentifiers": {
					"board(uint256,uint256)": "8086a92a",
					"getBoardState()": "2420f7f0",
					"getPlayers()": "8b5b9ccc",
					"isGameOver()": "0e04a7d8",
					"makeMove(uint8,uint8)": "5e24b0f1",
					"nextPlayer()": "04a93605",
					"winner()": "dfbf53ae"
				}
			},
			"storageLayout": {
				"storage": [
					{
						"astId": 7,
						"contract": "contracts/TicTacToe.sol:TicTacToe",
						"label": "board",
						"offset": 0,
						"slot": "0",
						"type": "t_array(t_array(t_uint8)3_storage)3_storage"
					},
					{
						"astId": 9,
						"contract": "contracts/TicTacToe.sol:TicTacToe",
						"label": "playerX",
						"offset": 0,
						"slot": "3",
						"type": "t_address_payable"
					},
					{
						"astId": 11,
						"contract": "contracts/TicTacToe.sol:TicTacToe",
						"label": "playerO",
						"offset": 0,
						"slot": "4",
						"type": "t_address_payable"
					},
					{
						"astId": 13,
						"contract": "contracts/TicTacToe.sol:TicTacToe",
						"label": "nextPlayer",
						"offset": 0,
						"slot": "5",
						"type": "t_address"
					},
					{
						"astId": 15,
						"contract": "contracts/TicTacToe.sol:TicTacToe",
						"label": "isGameOver",
						"offset": 20,
						"slot": "5",
						"type": "t_bool"
					},
					{
						"astId": 17,
						"contract": "contracts/TicTacToe.sol:TicTacToe",
						"label": "winner",
						"offset": 0,
						"slot": "6",
						"type": "t_address"
					}
				],
				"types": {
					"t_address": {
						"encoding": "inplace",
						"label": "address",
						"numberOfBytes": "20"
					},
					"t_address_payable": {
						"encoding": "inplace",
						"label": "address payable",
						"numberOfBytes": "20"
					},
					"t_array(t_array(t_uint8)3_storage)3_storage": {
						"base": "t_array(t_uint8)3_storage",
						"encoding": "inplace",
						"label": "uint8[3][3]",
						"numberOfBytes": "96"
					},
					"t_array(t_uint8)3_storage": {
						"base": "t_uint8",
						"encoding": "inplace",
						"label": "uint8[3]",
						"numberOfBytes": "32"
					},
					"t_bool": {
						"encoding": "inplace",
						"label": "bool",
						"numberOfBytes": "1"
					},
					"t_uint8": {
						"encoding": "inplace",
						"label": "uint8",
						"numberOfBytes": "1"
					}
				}
			},
			"userdoc": {
				"kind": "user",
				"methods": {},
				"version": 1
			}
		}
	}
}