{
	"contracts/TicTacToe.sol": {
		"TicTacToe": {
			"abi": [
				{
					"anonymous": false,
					"inputs": [
						{
							"indexed": true,
							"internalType": "address",
							"name": "winner",
							"type": "address"
						}
					],
					"name": "GameEnded",
					"type": "event"
				},
				{
					"anonymous": false,
					"inputs": [
						{
							"indexed": true,
							"internalType": "address",
							"name": "gameAddress",
							"type": "address"
						},
						{
							"indexed": true,
							"internalType": "address",
							"name": "pX",
							"type": "address"
						},
						{
							"indexed": true,
							"internalType": "address",
							"name": "pO",
							"type": "address"
						}
					],
					"name": "GameStarted",
					"type": "event"
				},
				{
					"anonymous": false,
					"inputs": [
						{
							"indexed": true,
							"internalType": "address",
							"name": "player",
							"type": "address"
						},
						{
							"indexed": false,
							"internalType": "uint8",
							"name": "r",
							"type": "uint8"
						},
						{
							"indexed": false,
							"internalType": "uint8",
							"name": "c",
							"type": "uint8"
						},
						{
							"indexed": false,
							"internalType": "uint8",
							"name": "marker",
							"type": "uint8"
						}
					],
					"name": "MoveMade",
					"type": "event"
				},
				{
					"inputs": [
						{
							"internalType": "uint256",
							"name": "",
							"type": "uint256"
						},
						{
							"internalType": "uint256",
							"name": "",
							"type": "uint256"
						}
					],
					"name": "board",
					"outputs": [
						{
							"internalType": "uint8",
							"name": "",
							"type": "uint8"
						}
					],
					"stateMutability": "view",
					"type": "function"
				},
				{
					"inputs": [],
					"name": "getBoardState",
					"outputs": [
						{
							"internalType": "uint8[3][3]",
							"name": "",
							"type": "uint8[3][3]"
						}
					],
					"stateMutability": "view",
					"type": "function"
				},
				{
					"inputs": [],
					"name": "getPlayers",
					"outputs": [
						{
							"internalType": "address",
							"name": "",
							"type": "address"
						},
						{
							"internalType": "address",
							"name": "",
							"type": "address"
						}
					],
					"stateMutability": "view",
					"type": "function"
				},
				{
					"inputs": [
						{
							"internalType": "address payable",
							"name": "_playerX",
							"type": "address"
						},
						{
							"internalType": "address payable",
							"name": "_playerO",
							"type": "address"
						}
					],
					"name": "initialize",
					"outputs": [],
					"stateMutability": "nonpayable",
					"type": "function"
				},
				{
					"inputs": [],
					"name": "isGameOver",
					"outputs": [
						{
							"internalType": "bool",
							"name": "",
							"type": "bool"
						}
					],
					"stateMutability": "view",
					"type": "function"
				},
				{
					"inputs": [
						{
							"internalType": "uint8",
							"name": "row",
							"type": "uint8"
						},
						{
							"internalType": "uint8",
							"name": "col",
							"type": "uint8"
						}
					],
					"name": "makeMove",
					"outputs": [],
					"stateMutability": "nonpayable",
					"type": "function"
				},
				{
					"inputs": [],
					"name": "nextPlayer",
					"outputs": [
						{
							"internalType": "address",
							"name": "",
							"type": "address"
						}
					],
					"stateMutability": "view",
					"type": "function"
				},
				{
					"inputs": [],
					"name": "winner",
					"outputs": [
						{
							"internalType": "address",
							"name": "",
							"type": "address"
						}
					],
					"stateMutability": "view",
					"type": "function"
				}
			],
			"devdoc": {
				"kind": "dev",
				"methods": {},
				"version": 1
			},
			"evm": {
				"assembly": "    /* \"contracts/TicTacToe.sol\":415:6460  contract TicTacToe {... */\n  mstore(0x40, 0x80)\n  callvalue\n  dup1\n  iszero\n  tag_1\n  jumpi\n  revert(0x00, 0x00)\ntag_1:\n  pop\n  dataSize(sub_0)\n  dup1\n  dataOffset(sub_0)\n  0x00\n  codecopy\n  0x00\n  return\nstop\n\nsub_0: assembly {\n        /* \"contracts/TicTacToe.sol\":415:6460  contract TicTacToe {... */\n      mstore(0x40, 0x80)\n      callvalue\n      dup1\n      iszero\n      tag_1\n      jumpi\n      revert(0x00, 0x00)\n    tag_1:\n      pop\n      jumpi(tag_2, lt(calldatasize, 0x04))\n      shr(0xe0, calldataload(0x00))\n      dup1\n      0x5e24b0f1\n      gt\n      tag_11\n      jumpi\n      dup1\n      0x5e24b0f1\n      eq\n      tag_7\n      jumpi\n      dup1\n      0x8086a92a\n      eq\n      tag_8\n      jumpi\n      dup1\n      0x8b5b9ccc\n      eq\n      tag_9\n      jumpi\n      dup1\n      0xdfbf53ae\n      eq\n      tag_10\n      jumpi\n      jump(tag_2)\n    tag_11:\n      dup1\n      0x04a93605\n      eq\n      tag_3\n      jumpi\n      dup1\n      0x0e04a7d8\n      eq\n      tag_4\n      jumpi\n      dup1\n      0x2420f7f0\n      eq\n      tag_5\n      jumpi\n      dup1\n      0x485cc955\n      eq\n      tag_6\n      jumpi\n    tag_2:\n      revert(0x00, 0x00)\n        /* \"contracts/TicTacToe.sol\":1322:1347  address public nextPlayer */\n    tag_3:\n      tag_12\n      tag_13\n      jump\t// in\n    tag_12:\n      mload(0x40)\n      tag_14\n      swap2\n      swap1\n      tag_15\n      jump\t// in\n    tag_14:\n      mload(0x40)\n      dup1\n      swap2\n      sub\n      swap1\n      return\n        /* \"contracts/TicTacToe.sol\":1353:1375  bool public isGameOver */\n    tag_4:\n      tag_16\n      tag_17\n      jump\t// in\n    tag_16:\n      mload(0x40)\n      tag_18\n      swap2\n      swap1\n      tag_19\n      jump\t// in\n    tag_18:\n      mload(0x40)\n      dup1\n      swap2\n      sub\n      swap1\n      return\n        /* \"contracts/TicTacToe.sol\":3751:3846  function getBoardState() public view returns (uint8[3][3] memory) {... */\n    tag_5:\n      tag_20\n      tag_21\n      jump\t// in\n    tag_20:\n      mload(0x40)\n      tag_22\n      swap2\n      swap1\n      tag_23\n      jump\t// in\n    tag_22:\n      mload(0x40)\n      dup1\n      swap2\n      sub\n      swap1\n      return\n        /* \"contracts/TicTacToe.sol\":1786:2423  function initialize(address payable _playerX, address payable _playerO) public {... */\n    tag_6:\n      tag_24\n      0x04\n      dup1\n      calldatasize\n      sub\n      dup2\n      add\n      swap1\n      tag_25\n      swap2\n      swap1\n      tag_26\n      jump\t// in\n    tag_25:\n      tag_27\n      jump\t// in\n    tag_24:\n      stop\n        /* \"contracts/TicTacToe.sol\":3887:4750  function makeMove(uint8 row, uint8 col) public {... */\n    tag_7:\n      tag_28\n      0x04\n      dup1\n      calldatasize\n      sub\n      dup2\n      add\n      swap1\n      tag_29\n      swap2\n      swap1\n      tag_30\n      jump\t// in\n    tag_29:\n      tag_31\n      jump\t// in\n    tag_28:\n      stop\n        /* \"contracts/TicTacToe.sol\":842:866  uint8[3][3] public board */\n    tag_8:\n      tag_32\n      0x04\n      dup1\n      calldatasize\n      sub\n      dup2\n      add\n      swap1\n      tag_33\n      swap2\n      swap1\n      tag_34\n      jump\t// in\n    tag_33:\n      tag_35\n      jump\t// in\n    tag_32:\n      mload(0x40)\n      tag_36\n      swap2\n      swap1\n      tag_37\n      jump\t// in\n    tag_36:\n      mload(0x40)\n      dup1\n      swap2\n      sub\n      swap1\n      return\n        /* \"contracts/TicTacToe.sol\":3610:3713  function getPlayers() public view returns (address, address) {... */\n    tag_9:\n      tag_38\n      tag_39\n      jump\t// in\n    tag_38:\n      mload(0x40)\n      tag_40\n      swap3\n      swap2\n      swap1\n      tag_41\n      jump\t// in\n    tag_40:\n      mload(0x40)\n      dup1\n      swap2\n      sub\n      swap1\n      return\n        /* \"contracts/TicTacToe.sol\":1423:1444  address public winner */\n    tag_10:\n      tag_42\n      tag_43\n      jump\t// in\n    tag_42:\n      mload(0x40)\n      tag_44\n      swap2\n      swap1\n      tag_15\n      jump\t// in\n    tag_44:\n      mload(0x40)\n      dup1\n      swap2\n      sub\n      swap1\n      return\n        /* \"contracts/TicTacToe.sol\":1322:1347  address public nextPlayer */\n    tag_13:\n      0x05\n      0x00\n      swap1\n      sload\n      swap1\n      0x0100\n      exp\n      swap1\n      div\n      0xffffffffffffffffffffffffffffffffffffffff\n      and\n      dup2\n      jump\t// out\n        /* \"contracts/TicTacToe.sol\":1353:1375  bool public isGameOver */\n    tag_17:\n      0x05\n      0x14\n      swap1\n      sload\n      swap1\n      0x0100\n      exp\n      swap1\n      div\n      0xff\n      and\n      dup2\n      jump\t// out\n        /* \"contracts/TicTacToe.sol\":3751:3846  function getBoardState() public view returns (uint8[3][3] memory) {... */\n    tag_21:\n        /* \"contracts/TicTacToe.sol\":3797:3815  uint8[3][3] memory */\n      tag_45\n      tag_46\n      jump\t// in\n    tag_45:\n        /* \"contracts/TicTacToe.sol\":3834:3839  board */\n      0x00\n        /* \"contracts/TicTacToe.sol\":3827:3839  return board */\n      0x03\n      dup1\n      0x20\n      mul\n      mload(0x40)\n      swap1\n      dup2\n      add\n      0x40\n      mstore\n      dup1\n      swap3\n      swap2\n      swap1\n      0x00\n      swap1\n    tag_48:\n      dup3\n      dup3\n      lt\n      iszero\n      tag_49\n      jumpi\n      dup4\n      dup3\n      add\n      0x03\n      dup1\n      0x20\n      mul\n      mload(0x40)\n      swap1\n      dup2\n      add\n      0x40\n      mstore\n      dup1\n      swap3\n      swap2\n      swap1\n      dup3\n      0x03\n      dup1\n      iszero\n      tag_51\n      jumpi\n      0x20\n      mul\n      dup3\n      add\n      swap2\n      0x00\n      swap1\n    tag_52:\n      dup3\n      dup3\n      swap1\n      sload\n      swap1\n      0x0100\n      exp\n      swap1\n      div\n      0xff\n      and\n      0xff\n      and\n      dup2\n      mstore\n      0x20\n      add\n      swap1\n      0x01\n      add\n      swap1\n      0x20\n      dup3\n      0x00\n      add\n      div\n      swap3\n      dup4\n      add\n      swap3\n      0x01\n      sub\n      dup3\n      mul\n      swap2\n      pop\n      dup1\n      dup5\n      gt\n      tag_52\n      jumpi\n      swap1\n      pop\n    tag_51:\n      pop\n      pop\n      pop\n      pop\n      pop\n      dup2\n      mstore\n      0x20\n      add\n      swap1\n      0x01\n      add\n      swap1\n      jump(tag_48)\n    tag_49:\n      pop\n      pop\n      pop\n      pop\n      swap1\n      pop\n        /* \"contracts/TicTacToe.sol\":3751:3846  function getBoardState() public view returns (uint8[3][3] memory) {... */\n      swap1\n      jump\t// out\n        /* \"contracts/TicTacToe.sol\":1786:2423  function initialize(address payable _playerX, address payable _playerO) public {... */\n    tag_27:\n        /* \"contracts/TicTacToe.sol\":2126:2127  0 */\n      0x00\n        /* \"contracts/TicTacToe.sol\":2107:2128  playerX == address(0) */\n      0xffffffffffffffffffffffffffffffffffffffff\n      and\n        /* \"contracts/TicTacToe.sol\":2107:2114  playerX */\n      0x03\n      0x00\n      swap1\n      sload\n      swap1\n      0x0100\n      exp\n      swap1\n      div\n      0xffffffffffffffffffffffffffffffffffffffff\n      and\n        /* \"contracts/TicTacToe.sol\":2107:2128  playerX == address(0) */\n      0xffffffffffffffffffffffffffffffffffffffff\n      and\n      eq\n        /* \"contracts/TicTacToe.sol\":2099:2157  require(playerX == address(0), \"Game already initialized\") */\n      tag_54\n      jumpi\n      mload(0x40)\n      0x08c379a000000000000000000000000000000000000000000000000000000000\n      dup2\n      mstore\n      0x04\n      add\n      tag_55\n      swap1\n      tag_56\n      jump\t// in\n    tag_55:\n      mload(0x40)\n      dup1\n      swap2\n      sub\n      swap1\n      revert\n    tag_54:\n        /* \"contracts/TicTacToe.sol\":2177:2185  _playerX */\n      dup2\n        /* \"contracts/TicTacToe.sol\":2167:2174  playerX */\n      0x03\n      0x00\n        /* \"contracts/TicTacToe.sol\":2167:2185  playerX = _playerX */\n      0x0100\n      exp\n      dup2\n      sload\n      dup2\n      0xffffffffffffffffffffffffffffffffffffffff\n      mul\n      not\n      and\n      swap1\n      dup4\n      0xffffffffffffffffffffffffffffffffffffffff\n      and\n      mul\n      or\n      swap1\n      sstore\n      pop\n        /* \"contracts/TicTacToe.sol\":2216:2223  playerX */\n      0x03\n      0x00\n      swap1\n      sload\n      swap1\n      0x0100\n      exp\n      swap1\n      div\n      0xffffffffffffffffffffffffffffffffffffffff\n      and\n        /* \"contracts/TicTacToe.sol\":2204:2223  _playerO != playerX */\n      0xffffffffffffffffffffffffffffffffffffffff\n      and\n        /* \"contracts/TicTacToe.sol\":2204:2212  _playerO */\n      dup2\n        /* \"contracts/TicTacToe.sol\":2204:2223  _playerO != playerX */\n      0xffffffffffffffffffffffffffffffffffffffff\n      and\n      sub\n        /* \"contracts/TicTacToe.sol\":2196:2269  require(_playerO != playerX, \"Other player must use a different address\") */\n      tag_57\n      jumpi\n      mload(0x40)\n      0x08c379a000000000000000000000000000000000000000000000000000000000\n      dup2\n      mstore\n      0x04\n      add\n      tag_58\n      swap1\n      tag_59\n      jump\t// in\n    tag_58:\n      mload(0x40)\n      dup1\n      swap2\n      sub\n      swap1\n      revert\n    tag_57:\n        /* \"contracts/TicTacToe.sol\":2289:2297  _playerO */\n      dup1\n        /* \"contracts/TicTacToe.sol\":2279:2286  playerO */\n      0x04\n      0x00\n        /* \"contracts/TicTacToe.sol\":2279:2297  playerO = _playerO */\n      0x0100\n      exp\n      dup2\n      sload\n      dup2\n      0xffffffffffffffffffffffffffffffffffffffff\n      mul\n      not\n      and\n      swap1\n      dup4\n      0xffffffffffffffffffffffffffffffffffffffff\n      and\n      mul\n      or\n      swap1\n      sstore\n      pop\n        /* \"contracts/TicTacToe.sol\":2321:2328  playerX */\n      0x03\n      0x00\n      swap1\n      sload\n      swap1\n      0x0100\n      exp\n      swap1\n      div\n      0xffffffffffffffffffffffffffffffffffffffff\n      and\n        /* \"contracts/TicTacToe.sol\":2308:2318  nextPlayer */\n      0x05\n      0x00\n        /* \"contracts/TicTacToe.sol\":2308:2328  nextPlayer = playerX */\n      0x0100\n      exp\n      dup2\n      sload\n      dup2\n      0xffffffffffffffffffffffffffffffffffffffff\n      mul\n      not\n      and\n      swap1\n      dup4\n      0xffffffffffffffffffffffffffffffffffffffff\n      and\n      mul\n      or\n      swap1\n      sstore\n      pop\n        /* \"contracts/TicTacToe.sol\":2351:2356  false */\n      0x00\n        /* \"contracts/TicTacToe.sol\":2338:2348  isGameOver */\n      0x05\n      0x14\n        /* \"contracts/TicTacToe.sol\":2338:2356  isGameOver = false */\n      0x0100\n      exp\n      dup2\n      sload\n      dup2\n      0xff\n      mul\n      not\n      and\n      swap1\n      dup4\n      iszero\n      iszero\n      mul\n      or\n      swap1\n      sstore\n      pop\n        /* \"contracts/TicTacToe.sol\":2408:2415  playerO */\n      0x04\n      0x00\n      swap1\n      sload\n      swap1\n      0x0100\n      exp\n      swap1\n      div\n      0xffffffffffffffffffffffffffffffffffffffff\n      and\n        /* \"contracts/TicTacToe.sol\":2372:2416  GameStarted(address(this), playerX, playerO) */\n      0xffffffffffffffffffffffffffffffffffffffff\n      and\n        /* \"contracts/TicTacToe.sol\":2399:2406  playerX */\n      0x03\n      0x00\n      swap1\n      sload\n      swap1\n      0x0100\n      exp\n      swap1\n      div\n      0xffffffffffffffffffffffffffffffffffffffff\n      and\n        /* \"contracts/TicTacToe.sol\":2372:2416  GameStarted(address(this), playerX, playerO) */\n      0xffffffffffffffffffffffffffffffffffffffff\n      and\n        /* \"contracts/TicTacToe.sol\":2392:2396  this */\n      address\n        /* \"contracts/TicTacToe.sol\":2372:2416  GameStarted(address(this), playerX, playerO) */\n      0xffffffffffffffffffffffffffffffffffffffff\n      and\n      0xe733eb5c42c855d38269254700780d064a49ef1611d1f3bfdda632ec19891f56\n      mload(0x40)\n      mload(0x40)\n      dup1\n      swap2\n      sub\n      swap1\n      log4\n        /* \"contracts/TicTacToe.sol\":1786:2423  function initialize(address payable _playerX, address payable _playerO) public {... */\n      pop\n      pop\n      jump\t// out\n        /* \"contracts/TicTacToe.sol\":3887:4750  function makeMove(uint8 row, uint8 col) public {... */\n    tag_31:\n        /* \"contracts/TicTacToe.sol\":4034:4044  isGameOver */\n      0x05\n      0x14\n      swap1\n      sload\n      swap1\n      0x0100\n      exp\n      swap1\n      div\n      0xff\n      and\n        /* \"contracts/TicTacToe.sol\":4033:4044  !isGameOver */\n      iszero\n        /* \"contracts/TicTacToe.sol\":4025:4066  require(!isGameOver, \"The game is over.\") */\n      tag_61\n      jumpi\n      mload(0x40)\n      0x08c379a000000000000000000000000000000000000000000000000000000000\n      dup2\n      mstore\n      0x04\n      add\n      tag_62\n      swap1\n      tag_63\n      jump\t// in\n    tag_62:\n      mload(0x40)\n      dup1\n      swap2\n      sub\n      swap1\n      revert\n    tag_61:\n        /* \"contracts/TicTacToe.sol\":4155:4165  nextPlayer */\n      0x05\n      0x00\n      swap1\n      sload\n      swap1\n      0x0100\n      exp\n      swap1\n      div\n      0xffffffffffffffffffffffffffffffffffffffff\n      and\n        /* \"contracts/TicTacToe.sol\":4141:4165  msg.sender == nextPlayer */\n      0xffffffffffffffffffffffffffffffffffffffff\n      and\n        /* \"contracts/TicTacToe.sol\":4141:4151  msg.sender */\n      caller\n        /* \"contracts/TicTacToe.sol\":4141:4165  msg.sender == nextPlayer */\n      0xffffffffffffffffffffffffffffffffffffffff\n      and\n      eq\n        /* \"contracts/TicTacToe.sol\":4133:4189  require(msg.sender == nextPlayer, \"It's not your turn.\") */\n      tag_64\n      jumpi\n      mload(0x40)\n      0x08c379a000000000000000000000000000000000000000000000000000000000\n      dup2\n      mstore\n      0x04\n      add\n      tag_65\n      swap1\n      tag_66\n      jump\t// in\n    tag_65:\n      mload(0x40)\n      dup1\n      swap2\n      sub\n      swap1\n      revert\n    tag_64:\n        /* \"contracts/TicTacToe.sol\":4287:4288  3 */\n      0x03\n        /* \"contracts/TicTacToe.sol\":4281:4284  row */\n      dup3\n        /* \"contracts/TicTacToe.sol\":4281:4288  row < 3 */\n      0xff\n      and\n      lt\n        /* \"contracts/TicTacToe.sol\":4281:4299  row < 3 && col < 3 */\n      dup1\n      iszero\n      tag_67\n      jumpi\n      pop\n        /* \"contracts/TicTacToe.sol\":4298:4299  3 */\n      0x03\n        /* \"contracts/TicTacToe.sol\":4292:4295  col */\n      dup2\n        /* \"contracts/TicTacToe.sol\":4292:4299  col < 3 */\n      0xff\n      and\n      lt\n        /* \"contracts/TicTacToe.sol\":4281:4299  row < 3 && col < 3 */\n    tag_67:\n        /* \"contracts/TicTacToe.sol\":4273:4335  require(row < 3 && col < 3, \"Invalid row or column placement\") */\n      tag_68\n      jumpi\n      mload(0x40)\n      0x08c379a000000000000000000000000000000000000000000000000000000000\n      dup2\n      mstore\n      0x04\n      add\n      tag_69\n      swap1\n      tag_70\n      jump\t// in\n    tag_69:\n      mload(0x40)\n      dup1\n      swap2\n      sub\n      swap1\n      revert\n    tag_68:\n        /* \"contracts/TicTacToe.sol\":4418:4419  0 */\n      0x00\n        /* \"contracts/TicTacToe.sol\":4399:4404  board */\n      0x00\n        /* \"contracts/TicTacToe.sol\":4405:4408  row */\n      dup4\n        /* \"contracts/TicTacToe.sol\":4399:4409  board[row] */\n      0xff\n      and\n      0x03\n      dup2\n      lt\n      tag_71\n      jumpi\n      tag_72\n      tag_73\n      jump\t// in\n    tag_72:\n    tag_71:\n      add\n        /* \"contracts/TicTacToe.sol\":4410:4413  col */\n      dup3\n        /* \"contracts/TicTacToe.sol\":4399:4414  board[row][col] */\n      0xff\n      and\n      0x03\n      dup2\n      lt\n      tag_75\n      jumpi\n      tag_76\n      tag_73\n      jump\t// in\n    tag_76:\n    tag_75:\n      0x20\n      swap2\n      dup3\n      dup3\n      div\n      add\n      swap2\n      swap1\n      mod\n      swap1\n      sload\n      swap1\n      0x0100\n      exp\n      swap1\n      div\n      0xff\n      and\n        /* \"contracts/TicTacToe.sol\":4399:4419  board[row][col] == 0 */\n      0xff\n      and\n      eq\n        /* \"contracts/TicTacToe.sol\":4391:4446  require(board[row][col] == 0, \"Cell is already taken.\") */\n      tag_78\n      jumpi\n      mload(0x40)\n      0x08c379a000000000000000000000000000000000000000000000000000000000\n      dup2\n      mstore\n      0x04\n      add\n      tag_79\n      swap1\n      tag_80\n      jump\t// in\n    tag_79:\n      mload(0x40)\n      dup1\n      swap2\n      sub\n      swap1\n      revert\n    tag_78:\n        /* \"contracts/TicTacToe.sol\":4549:4556  playerX */\n      0x03\n      0x00\n      swap1\n      sload\n      swap1\n      0x0100\n      exp\n      swap1\n      div\n      0xffffffffffffffffffffffffffffffffffffffff\n      and\n        /* \"contracts/TicTacToe.sol\":4535:4556  msg.sender == playerX */\n      0xffffffffffffffffffffffffffffffffffffffff\n      and\n        /* \"contracts/TicTacToe.sol\":4535:4545  msg.sender */\n      caller\n        /* \"contracts/TicTacToe.sol\":4535:4556  msg.sender == playerX */\n      0xffffffffffffffffffffffffffffffffffffffff\n      and\n      sub\n        /* \"contracts/TicTacToe.sol\":4531:4652  if (msg.sender == playerX) {... */\n      tag_81\n      jumpi\n        /* \"contracts/TicTacToe.sol\":4590:4591  1 */\n      0x01\n        /* \"contracts/TicTacToe.sol\":4572:4577  board */\n      0x00\n        /* \"contracts/TicTacToe.sol\":4578:4581  row */\n      dup4\n        /* \"contracts/TicTacToe.sol\":4572:4582  board[row] */\n      0xff\n      and\n      0x03\n      dup2\n      lt\n      tag_82\n      jumpi\n      tag_83\n      tag_73\n      jump\t// in\n    tag_83:\n    tag_82:\n      add\n        /* \"contracts/TicTacToe.sol\":4583:4586  col */\n      dup3\n        /* \"contracts/TicTacToe.sol\":4572:4587  board[row][col] */\n      0xff\n      and\n      0x03\n      dup2\n      lt\n      tag_85\n      jumpi\n      tag_86\n      tag_73\n      jump\t// in\n    tag_86:\n    tag_85:\n      0x20\n      swap2\n      dup3\n      dup3\n      div\n      add\n      swap2\n      swap1\n      mod\n        /* \"contracts/TicTacToe.sol\":4572:4591  board[row][col] = 1 */\n      0x0100\n      exp\n      dup2\n      sload\n      dup2\n      0xff\n      mul\n      not\n      and\n      swap1\n      dup4\n      0xff\n      and\n      mul\n      or\n      swap1\n      sstore\n      pop\n        /* \"contracts/TicTacToe.sol\":4531:4652  if (msg.sender == playerX) {... */\n      jump(tag_88)\n    tag_81:\n        /* \"contracts/TicTacToe.sol\":4640:4641  2 */\n      0x02\n        /* \"contracts/TicTacToe.sol\":4622:4627  board */\n      0x00\n        /* \"contracts/TicTacToe.sol\":4628:4631  row */\n      dup4\n        /* \"contracts/TicTacToe.sol\":4622:4632  board[row] */\n      0xff\n      and\n      0x03\n      dup2\n      lt\n      tag_89\n      jumpi\n      tag_90\n      tag_73\n      jump\t// in\n    tag_90:\n    tag_89:\n      add\n        /* \"contracts/TicTacToe.sol\":4633:4636  col */\n      dup3\n        /* \"contracts/TicTacToe.sol\":4622:4637  board[row][col] */\n      0xff\n      and\n      0x03\n      dup2\n      lt\n      tag_92\n      jumpi\n      tag_93\n      tag_73\n      jump\t// in\n    tag_93:\n    tag_92:\n      0x20\n      swap2\n      dup3\n      dup3\n      div\n      add\n      swap2\n      swap1\n      mod\n        /* \"contracts/TicTacToe.sol\":4622:4641  board[row][col] = 2 */\n      0x0100\n      exp\n      dup2\n      sload\n      dup2\n      0xff\n      mul\n      not\n      and\n      swap1\n      dup4\n      0xff\n      and\n      mul\n      or\n      swap1\n      sstore\n      pop\n        /* \"contracts/TicTacToe.sol\":4531:4652  if (msg.sender == playerX) {... */\n    tag_88:\n        /* \"contracts/TicTacToe.sol\":4694:4704  checkWin() */\n      tag_95\n        /* \"contracts/TicTacToe.sol\":4694:4702  checkWin */\n      tag_96\n        /* \"contracts/TicTacToe.sol\":4694:4704  checkWin() */\n      jump\t// in\n    tag_95:\n        /* \"contracts/TicTacToe.sol\":4719:4729  isGameOver */\n      0x05\n      0x14\n      swap1\n      sload\n      swap1\n      0x0100\n      exp\n      swap1\n      div\n      0xff\n      and\n        /* \"contracts/TicTacToe.sol\":4714:4743  if (!isGameOver) switchTurn() */\n      tag_97\n      jumpi\n        /* \"contracts/TicTacToe.sol\":4731:4743  switchTurn() */\n      tag_98\n        /* \"contracts/TicTacToe.sol\":4731:4741  switchTurn */\n      tag_99\n        /* \"contracts/TicTacToe.sol\":4731:4743  switchTurn() */\n      jump\t// in\n    tag_98:\n        /* \"contracts/TicTacToe.sol\":4714:4743  if (!isGameOver) switchTurn() */\n    tag_97:\n        /* \"contracts/TicTacToe.sol\":3887:4750  function makeMove(uint8 row, uint8 col) public {... */\n      pop\n      pop\n      jump\t// out\n        /* \"contracts/TicTacToe.sol\":842:866  uint8[3][3] public board */\n    tag_35:\n      0x00\n      dup3\n      0x03\n      dup2\n      lt\n      tag_100\n      jumpi\n      0x00\n      dup1\n      revert\n    tag_100:\n      add\n      dup2\n      0x03\n      dup2\n      lt\n      tag_102\n      jumpi\n      0x00\n      dup1\n      revert\n    tag_102:\n      0x20\n      swap2\n      dup3\n      dup3\n      div\n      add\n      swap2\n      swap1\n      mod\n      swap2\n      pop\n      swap2\n      pop\n      swap1\n      sload\n      swap1\n      0x0100\n      exp\n      swap1\n      div\n      0xff\n      and\n      dup2\n      jump\t// out\n        /* \"contracts/TicTacToe.sol\":3610:3713  function getPlayers() public view returns (address, address) {... */\n    tag_39:\n        /* \"contracts/TicTacToe.sol\":3653:3660  address */\n      0x00\n        /* \"contracts/TicTacToe.sol\":3662:3669  address */\n      0x00\n        /* \"contracts/TicTacToe.sol\":3689:3696  playerX */\n      0x03\n      0x00\n      swap1\n      sload\n      swap1\n      0x0100\n      exp\n      swap1\n      div\n      0xffffffffffffffffffffffffffffffffffffffff\n      and\n        /* \"contracts/TicTacToe.sol\":3698:3705  playerO */\n      0x04\n      0x00\n      swap1\n      sload\n      swap1\n      0x0100\n      exp\n      swap1\n      div\n      0xffffffffffffffffffffffffffffffffffffffff\n      and\n        /* \"contracts/TicTacToe.sol\":3681:3706  return (playerX, playerO) */\n      swap2\n      pop\n      swap2\n      pop\n        /* \"contracts/TicTacToe.sol\":3610:3713  function getPlayers() public view returns (address, address) {... */\n      swap1\n      swap2\n      jump\t// out\n        /* \"contracts/TicTacToe.sol\":1423:1444  address public winner */\n    tag_43:\n      0x06\n      0x00\n      swap1\n      sload\n      swap1\n      0x0100\n      exp\n      swap1\n      div\n      0xffffffffffffffffffffffffffffffffffffffff\n      and\n      dup2\n      jump\t// out\n        /* \"contracts/TicTacToe.sol\":5132:6458  function checkWin() private {... */\n    tag_96:\n        /* \"contracts/TicTacToe.sol\":5232:5244  uint8 marker */\n      0x00\n        /* \"contracts/TicTacToe.sol\":5272:5279  playerX */\n      0x03\n      0x00\n      swap1\n      sload\n      swap1\n      0x0100\n      exp\n      swap1\n      div\n      0xffffffffffffffffffffffffffffffffffffffff\n      and\n        /* \"contracts/TicTacToe.sol\":5258:5279  msg.sender == playerX */\n      0xffffffffffffffffffffffffffffffffffffffff\n      and\n        /* \"contracts/TicTacToe.sol\":5258:5268  msg.sender */\n      caller\n        /* \"contracts/TicTacToe.sol\":5258:5279  msg.sender == playerX */\n      0xffffffffffffffffffffffffffffffffffffffff\n      and\n      sub\n        /* \"contracts/TicTacToe.sol\":5254:5357  if (msg.sender == playerX) {... */\n      tag_106\n      jumpi\n        /* \"contracts/TicTacToe.sol\":5304:5305  1 */\n      0x01\n        /* \"contracts/TicTacToe.sol\":5295:5305  marker = 1 */\n      swap1\n      pop\n        /* \"contracts/TicTacToe.sol\":5254:5357  if (msg.sender == playerX) {... */\n      jump(tag_107)\n    tag_106:\n        /* \"contracts/TicTacToe.sol\":5345:5346  2 */\n      0x02\n        /* \"contracts/TicTacToe.sol\":5336:5346  marker = 2 */\n      swap1\n      pop\n        /* \"contracts/TicTacToe.sol\":5254:5357  if (msg.sender == playerX) {... */\n    tag_107:\n        /* \"contracts/TicTacToe.sol\":5436:5443  uint8 i */\n      0x00\n        /* \"contracts/TicTacToe.sol\":5446:5447  0 */\n      0x00\n        /* \"contracts/TicTacToe.sol\":5436:5447  uint8 i = 0 */\n      swap1\n      pop\n        /* \"contracts/TicTacToe.sol\":5431:5800  for (uint8 i = 0; i < 3; i++) {... */\n    tag_108:\n        /* \"contracts/TicTacToe.sol\":5453:5454  3 */\n      0x03\n        /* \"contracts/TicTacToe.sol\":5449:5450  i */\n      dup2\n        /* \"contracts/TicTacToe.sol\":5449:5454  i < 3 */\n      0xff\n      and\n      lt\n        /* \"contracts/TicTacToe.sol\":5431:5800  for (uint8 i = 0; i < 3; i++) {... */\n      iszero\n      tag_109\n      jumpi\n        /* \"contracts/TicTacToe.sol\":5494:5500  marker */\n      dup2\n        /* \"contracts/TicTacToe.sol\":5479:5500  board[i][0] == marker */\n      0xff\n      and\n        /* \"contracts/TicTacToe.sol\":5479:5484  board */\n      0x00\n        /* \"contracts/TicTacToe.sol\":5485:5486  i */\n      dup3\n        /* \"contracts/TicTacToe.sol\":5479:5487  board[i] */\n      0xff\n      and\n      0x03\n      dup2\n      lt\n      tag_111\n      jumpi\n      tag_112\n      tag_73\n      jump\t// in\n    tag_112:\n    tag_111:\n      add\n        /* \"contracts/TicTacToe.sol\":5488:5489  0 */\n      0x00\n        /* \"contracts/TicTacToe.sol\":5479:5490  board[i][0] */\n      0x03\n      dup2\n      lt\n      tag_114\n      jumpi\n      tag_115\n      tag_73\n      jump\t// in\n    tag_115:\n    tag_114:\n      0x20\n      swap2\n      dup3\n      dup3\n      div\n      add\n      swap2\n      swap1\n      mod\n      swap1\n      sload\n      swap1\n      0x0100\n      exp\n      swap1\n      div\n      0xff\n      and\n        /* \"contracts/TicTacToe.sol\":5479:5500  board[i][0] == marker */\n      0xff\n      and\n      eq\n        /* \"contracts/TicTacToe.sol\":5479:5525  board[i][0] == marker && board[i][1] == marker */\n      dup1\n      iszero\n      tag_117\n      jumpi\n      pop\n        /* \"contracts/TicTacToe.sol\":5519:5525  marker */\n      dup2\n        /* \"contracts/TicTacToe.sol\":5504:5525  board[i][1] == marker */\n      0xff\n      and\n        /* \"contracts/TicTacToe.sol\":5504:5509  board */\n      0x00\n        /* \"contracts/TicTacToe.sol\":5510:5511  i */\n      dup3\n        /* \"contracts/TicTacToe.sol\":5504:5512  board[i] */\n      0xff\n      and\n      0x03\n      dup2\n      lt\n      tag_118\n      jumpi\n      tag_119\n      tag_73\n      jump\t// in\n    tag_119:\n    tag_118:\n      add\n        /* \"contracts/TicTacToe.sol\":5513:5514  1 */\n      0x01\n        /* \"contracts/TicTacToe.sol\":5504:5515  board[i][1] */\n      0x03\n      dup2\n      lt\n      tag_121\n      jumpi\n      tag_122\n      tag_73\n      jump\t// in\n    tag_122:\n    tag_121:\n      0x20\n      swap2\n      dup3\n      dup3\n      div\n      add\n      swap2\n      swap1\n      mod\n      swap1\n      sload\n      swap1\n      0x0100\n      exp\n      swap1\n      div\n      0xff\n      and\n        /* \"contracts/TicTacToe.sol\":5504:5525  board[i][1] == marker */\n      0xff\n      and\n      eq\n        /* \"contracts/TicTacToe.sol\":5479:5525  board[i][0] == marker && board[i][1] == marker */\n    tag_117:\n        /* \"contracts/TicTacToe.sol\":5479:5550  board[i][0] == marker && board[i][1] == marker && board[i][2] == marker */\n      dup1\n      iszero\n      tag_124\n      jumpi\n      pop\n        /* \"contracts/TicTacToe.sol\":5544:5550  marker */\n      dup2\n        /* \"contracts/TicTacToe.sol\":5529:5550  board[i][2] == marker */\n      0xff\n      and\n        /* \"contracts/TicTacToe.sol\":5529:5534  board */\n      0x00\n        /* \"contracts/TicTacToe.sol\":5535:5536  i */\n      dup3\n        /* \"contracts/TicTacToe.sol\":5529:5537  board[i] */\n      0xff\n      and\n      0x03\n      dup2\n      lt\n      tag_125\n      jumpi\n      tag_126\n      tag_73\n      jump\t// in\n    tag_126:\n    tag_125:\n      add\n        /* \"contracts/TicTacToe.sol\":5538:5539  2 */\n      0x02\n        /* \"contracts/TicTacToe.sol\":5529:5540  board[i][2] */\n      0x03\n      dup2\n      lt\n      tag_128\n      jumpi\n      tag_129\n      tag_73\n      jump\t// in\n    tag_129:\n    tag_128:\n      0x20\n      swap2\n      dup3\n      dup3\n      div\n      add\n      swap2\n      swap1\n      mod\n      swap1\n      sload\n      swap1\n      0x0100\n      exp\n      swap1\n      div\n      0xff\n      and\n        /* \"contracts/TicTacToe.sol\":5529:5550  board[i][2] == marker */\n      0xff\n      and\n      eq\n        /* \"contracts/TicTacToe.sol\":5479:5550  board[i][0] == marker && board[i][1] == marker && board[i][2] == marker */\n    tag_124:\n        /* \"contracts/TicTacToe.sol\":5475:5626  if (board[i][0] == marker && board[i][1] == marker && board[i][2] == marker) {... */\n      iszero\n      tag_131\n      jumpi\n        /* \"contracts/TicTacToe.sol\":5583:5587  true */\n      0x01\n        /* \"contracts/TicTacToe.sol\":5570:5580  isGameOver */\n      0x05\n      0x14\n        /* \"contracts/TicTacToe.sol\":5570:5587  isGameOver = true */\n      0x0100\n      exp\n      dup2\n      sload\n      dup2\n      0xff\n      mul\n      not\n      and\n      swap1\n      dup4\n      iszero\n      iszero\n      mul\n      or\n      swap1\n      sstore\n      pop\n        /* \"contracts/TicTacToe.sol\":5605:5612  return; */\n      pop\n      pop\n      jump(tag_105)\n        /* \"contracts/TicTacToe.sol\":5475:5626  if (board[i][0] == marker && board[i][1] == marker && board[i][2] == marker) {... */\n    tag_131:\n        /* \"contracts/TicTacToe.sol\":5658:5664  marker */\n      dup2\n        /* \"contracts/TicTacToe.sol\":5643:5664  board[0][i] == marker */\n      0xff\n      and\n        /* \"contracts/TicTacToe.sol\":5643:5648  board */\n      0x00\n        /* \"contracts/TicTacToe.sol\":5649:5650  0 */\n      0x00\n        /* \"contracts/TicTacToe.sol\":5643:5651  board[0] */\n      0x03\n      dup2\n      lt\n      tag_132\n      jumpi\n      tag_133\n      tag_73\n      jump\t// in\n    tag_133:\n    tag_132:\n      add\n        /* \"contracts/TicTacToe.sol\":5652:5653  i */\n      dup3\n        /* \"contracts/TicTacToe.sol\":5643:5654  board[0][i] */\n      0xff\n      and\n      0x03\n      dup2\n      lt\n      tag_135\n      jumpi\n      tag_136\n      tag_73\n      jump\t// in\n    tag_136:\n    tag_135:\n      0x20\n      swap2\n      dup3\n      dup3\n      div\n      add\n      swap2\n      swap1\n      mod\n      swap1\n      sload\n      swap1\n      0x0100\n      exp\n      swap1\n      div\n      0xff\n      and\n        /* \"contracts/TicTacToe.sol\":5643:5664  board[0][i] == marker */\n      0xff\n      and\n      eq\n        /* \"contracts/TicTacToe.sol\":5643:5689  board[0][i] == marker && board[1][i] == marker */\n      dup1\n      iszero\n      tag_138\n      jumpi\n      pop\n        /* \"contracts/TicTacToe.sol\":5683:5689  marker */\n      dup2\n        /* \"contracts/TicTacToe.sol\":5668:5689  board[1][i] == marker */\n      0xff\n      and\n        /* \"contracts/TicTacToe.sol\":5668:5673  board */\n      0x00\n        /* \"contracts/TicTacToe.sol\":5674:5675  1 */\n      0x01\n        /* \"contracts/TicTacToe.sol\":5668:5676  board[1] */\n      0x03\n      dup2\n      lt\n      tag_139\n      jumpi\n      tag_140\n      tag_73\n      jump\t// in\n    tag_140:\n    tag_139:\n      add\n        /* \"contracts/TicTacToe.sol\":5677:5678  i */\n      dup3\n        /* \"contracts/TicTacToe.sol\":5668:5679  board[1][i] */\n      0xff\n      and\n      0x03\n      dup2\n      lt\n      tag_142\n      jumpi\n      tag_143\n      tag_73\n      jump\t// in\n    tag_143:\n    tag_142:\n      0x20\n      swap2\n      dup3\n      dup3\n      div\n      add\n      swap2\n      swap1\n      mod\n      swap1\n      sload\n      swap1\n      0x0100\n      exp\n      swap1\n      div\n      0xff\n      and\n        /* \"contracts/TicTacToe.sol\":5668:5689  board[1][i] == marker */\n      0xff\n      and\n      eq\n        /* \"contracts/TicTacToe.sol\":5643:5689  board[0][i] == marker && board[1][i] == marker */\n    tag_138:\n        /* \"contracts/TicTacToe.sol\":5643:5714  board[0][i] == marker && board[1][i] == marker && board[2][i] == marker */\n      dup1\n      iszero\n      tag_145\n      jumpi\n      pop\n        /* \"contracts/TicTacToe.sol\":5708:5714  marker */\n      dup2\n        /* \"contracts/TicTacToe.sol\":5693:5714  board[2][i] == marker */\n      0xff\n      and\n        /* \"contracts/TicTacToe.sol\":5693:5698  board */\n      0x00\n        /* \"contracts/TicTacToe.sol\":5699:5700  2 */\n      0x02\n        /* \"contracts/TicTacToe.sol\":5693:5701  board[2] */\n      0x03\n      dup2\n      lt\n      tag_146\n      jumpi\n      tag_147\n      tag_73\n      jump\t// in\n    tag_147:\n    tag_146:\n      add\n        /* \"contracts/TicTacToe.sol\":5702:5703  i */\n      dup3\n        /* \"contracts/TicTacToe.sol\":5693:5704  board[2][i] */\n      0xff\n      and\n      0x03\n      dup2\n      lt\n      tag_149\n      jumpi\n      tag_150\n      tag_73\n      jump\t// in\n    tag_150:\n    tag_149:\n      0x20\n      swap2\n      dup3\n      dup3\n      div\n      add\n      swap2\n      swap1\n      mod\n      swap1\n      sload\n      swap1\n      0x0100\n      exp\n      swap1\n      div\n      0xff\n      and\n        /* \"contracts/TicTacToe.sol\":5693:5714  board[2][i] == marker */\n      0xff\n      and\n      eq\n        /* \"contracts/TicTacToe.sol\":5643:5714  board[0][i] == marker && board[1][i] == marker && board[2][i] == marker */\n    tag_145:\n        /* \"contracts/TicTacToe.sol\":5639:5790  if (board[0][i] == marker && board[1][i] == marker && board[2][i] == marker) {... */\n      iszero\n      tag_152\n      jumpi\n        /* \"contracts/TicTacToe.sol\":5747:5751  true */\n      0x01\n        /* \"contracts/TicTacToe.sol\":5734:5744  isGameOver */\n      0x05\n      0x14\n        /* \"contracts/TicTacToe.sol\":5734:5751  isGameOver = true */\n      0x0100\n      exp\n      dup2\n      sload\n      dup2\n      0xff\n      mul\n      not\n      and\n      swap1\n      dup4\n      iszero\n      iszero\n      mul\n      or\n      swap1\n      sstore\n      pop\n        /* \"contracts/TicTacToe.sol\":5769:5776  return; */\n      pop\n      pop\n      jump(tag_105)\n        /* \"contracts/TicTacToe.sol\":5639:5790  if (board[0][i] == marker && board[1][i] == marker && board[2][i] == marker) {... */\n    tag_152:\n        /* \"contracts/TicTacToe.sol\":5456:5459  i++ */\n      dup1\n      dup1\n      0x01\n      add\n      swap2\n      pop\n      pop\n        /* \"contracts/TicTacToe.sol\":5431:5800  for (uint8 i = 0; i < 3; i++) {... */\n      jump(tag_108)\n    tag_109:\n      pop\n        /* \"contracts/TicTacToe.sol\":5828:5834  marker */\n      dup1\n        /* \"contracts/TicTacToe.sol\":5813:5834  board[0][0] == marker */\n      0xff\n      and\n        /* \"contracts/TicTacToe.sol\":5813:5818  board */\n      0x00\n        /* \"contracts/TicTacToe.sol\":5819:5820  0 */\n      0x00\n        /* \"contracts/TicTacToe.sol\":5813:5821  board[0] */\n      0x03\n      dup2\n      lt\n      tag_153\n      jumpi\n      tag_154\n      tag_73\n      jump\t// in\n    tag_154:\n    tag_153:\n      add\n        /* \"contracts/TicTacToe.sol\":5822:5823  0 */\n      0x00\n        /* \"contracts/TicTacToe.sol\":5813:5824  board[0][0] */\n      0x03\n      dup2\n      lt\n      tag_156\n      jumpi\n      tag_157\n      tag_73\n      jump\t// in\n    tag_157:\n    tag_156:\n      0x20\n      swap2\n      dup3\n      dup3\n      div\n      add\n      swap2\n      swap1\n      mod\n      swap1\n      sload\n      swap1\n      0x0100\n      exp\n      swap1\n      div\n      0xff\n      and\n        /* \"contracts/TicTacToe.sol\":5813:5834  board[0][0] == marker */\n      0xff\n      and\n      eq\n        /* \"contracts/TicTacToe.sol\":5813:5859  board[0][0] == marker && board[1][1] == marker */\n      dup1\n      iszero\n      tag_159\n      jumpi\n      pop\n        /* \"contracts/TicTacToe.sol\":5853:5859  marker */\n      dup1\n        /* \"contracts/TicTacToe.sol\":5838:5859  board[1][1] == marker */\n      0xff\n      and\n        /* \"contracts/TicTacToe.sol\":5838:5843  board */\n      0x00\n        /* \"contracts/TicTacToe.sol\":5844:5845  1 */\n      0x01\n        /* \"contracts/TicTacToe.sol\":5838:5846  board[1] */\n      0x03\n      dup2\n      lt\n      tag_160\n      jumpi\n      tag_161\n      tag_73\n      jump\t// in\n    tag_161:\n    tag_160:\n      add\n        /* \"contracts/TicTacToe.sol\":5847:5848  1 */\n      0x01\n        /* \"contracts/TicTacToe.sol\":5838:5849  board[1][1] */\n      0x03\n      dup2\n      lt\n      tag_163\n      jumpi\n      tag_164\n      tag_73\n      jump\t// in\n    tag_164:\n    tag_163:\n      0x20\n      swap2\n      dup3\n      dup3\n      div\n      add\n      swap2\n      swap1\n      mod\n      swap1\n      sload\n      swap1\n      0x0100\n      exp\n      swap1\n      div\n      0xff\n      and\n        /* \"contracts/TicTacToe.sol\":5838:5859  board[1][1] == marker */\n      0xff\n      and\n      eq\n        /* \"contracts/TicTacToe.sol\":5813:5859  board[0][0] == marker && board[1][1] == marker */\n    tag_159:\n        /* \"contracts/TicTacToe.sol\":5813:5884  board[0][0] == marker && board[1][1] == marker && board[2][2] == marker */\n      dup1\n      iszero\n      tag_166\n      jumpi\n      pop\n        /* \"contracts/TicTacToe.sol\":5878:5884  marker */\n      dup1\n        /* \"contracts/TicTacToe.sol\":5863:5884  board[2][2] == marker */\n      0xff\n      and\n        /* \"contracts/TicTacToe.sol\":5863:5868  board */\n      0x00\n        /* \"contracts/TicTacToe.sol\":5869:5870  2 */\n      0x02\n        /* \"contracts/TicTacToe.sol\":5863:5871  board[2] */\n      0x03\n      dup2\n      lt\n      tag_167\n      jumpi\n      tag_168\n      tag_73\n      jump\t// in\n    tag_168:\n    tag_167:\n      add\n        /* \"contracts/TicTacToe.sol\":5872:5873  2 */\n      0x02\n        /* \"contracts/TicTacToe.sol\":5863:5874  board[2][2] */\n      0x03\n      dup2\n      lt\n      tag_170\n      jumpi\n      tag_171\n      tag_73\n      jump\t// in\n    tag_171:\n    tag_170:\n      0x20\n      swap2\n      dup3\n      dup3\n      div\n      add\n      swap2\n      swap1\n      mod\n      swap1\n      sload\n      swap1\n      0x0100\n      exp\n      swap1\n      div\n      0xff\n      and\n        /* \"contracts/TicTacToe.sol\":5863:5884  board[2][2] == marker */\n      0xff\n      and\n      eq\n        /* \"contracts/TicTacToe.sol\":5813:5884  board[0][0] == marker && board[1][1] == marker && board[2][2] == marker */\n    tag_166:\n        /* \"contracts/TicTacToe.sol\":5809:6093  if (board[0][0] == marker && board[1][1] == marker && board[2][2] == marker) {... */\n      iszero\n      tag_173\n      jumpi\n        /* \"contracts/TicTacToe.sol\":5913:5917  true */\n      0x01\n        /* \"contracts/TicTacToe.sol\":5900:5910  isGameOver */\n      0x05\n      0x14\n        /* \"contracts/TicTacToe.sol\":5900:5917  isGameOver = true */\n      0x0100\n      exp\n      dup2\n      sload\n      dup2\n      0xff\n      mul\n      not\n      and\n      swap1\n      dup4\n      iszero\n      iszero\n      mul\n      or\n      swap1\n      sstore\n      pop\n        /* \"contracts/TicTacToe.sol\":5931:5938  return; */\n      pop\n      jump(tag_105)\n        /* \"contracts/TicTacToe.sol\":5809:6093  if (board[0][0] == marker && board[1][1] == marker && board[2][2] == marker) {... */\n    tag_173:\n        /* \"contracts/TicTacToe.sol\":5973:5979  marker */\n      dup1\n        /* \"contracts/TicTacToe.sol\":5958:5979  board[0][2] == marker */\n      0xff\n      and\n        /* \"contracts/TicTacToe.sol\":5958:5963  board */\n      0x00\n        /* \"contracts/TicTacToe.sol\":5964:5965  0 */\n      0x00\n        /* \"contracts/TicTacToe.sol\":5958:5966  board[0] */\n      0x03\n      dup2\n      lt\n      tag_175\n      jumpi\n      tag_176\n      tag_73\n      jump\t// in\n    tag_176:\n    tag_175:\n      add\n        /* \"contracts/TicTacToe.sol\":5967:5968  2 */\n      0x02\n        /* \"contracts/TicTacToe.sol\":5958:5969  board[0][2] */\n      0x03\n      dup2\n      lt\n      tag_178\n      jumpi\n      tag_179\n      tag_73\n      jump\t// in\n    tag_179:\n    tag_178:\n      0x20\n      swap2\n      dup3\n      dup3\n      div\n      add\n      swap2\n      swap1\n      mod\n      swap1\n      sload\n      swap1\n      0x0100\n      exp\n      swap1\n      div\n      0xff\n      and\n        /* \"contracts/TicTacToe.sol\":5958:5979  board[0][2] == marker */\n      0xff\n      and\n      eq\n        /* \"contracts/TicTacToe.sol\":5958:6004  board[0][2] == marker && board[1][1] == marker */\n      dup1\n      iszero\n      tag_181\n      jumpi\n      pop\n        /* \"contracts/TicTacToe.sol\":5998:6004  marker */\n      dup1\n        /* \"contracts/TicTacToe.sol\":5983:6004  board[1][1] == marker */\n      0xff\n      and\n        /* \"contracts/TicTacToe.sol\":5983:5988  board */\n      0x00\n        /* \"contracts/TicTacToe.sol\":5989:5990  1 */\n      0x01\n        /* \"contracts/TicTacToe.sol\":5983:5991  board[1] */\n      0x03\n      dup2\n      lt\n      tag_182\n      jumpi\n      tag_183\n      tag_73\n      jump\t// in\n    tag_183:\n    tag_182:\n      add\n        /* \"contracts/TicTacToe.sol\":5992:5993  1 */\n      0x01\n        /* \"contracts/TicTacToe.sol\":5983:5994  board[1][1] */\n      0x03\n      dup2\n      lt\n      tag_185\n      jumpi\n      tag_186\n      tag_73\n      jump\t// in\n    tag_186:\n    tag_185:\n      0x20\n      swap2\n      dup3\n      dup3\n      div\n      add\n      swap2\n      swap1\n      mod\n      swap1\n      sload\n      swap1\n      0x0100\n      exp\n      swap1\n      div\n      0xff\n      and\n        /* \"contracts/TicTacToe.sol\":5983:6004  board[1][1] == marker */\n      0xff\n      and\n      eq\n        /* \"contracts/TicTacToe.sol\":5958:6004  board[0][2] == marker && board[1][1] == marker */\n    tag_181:\n        /* \"contracts/TicTacToe.sol\":5958:6029  board[0][2] == marker && board[1][1] == marker && board[2][0] == marker */\n      dup1\n      iszero\n      tag_188\n      jumpi\n      pop\n        /* \"contracts/TicTacToe.sol\":6023:6029  marker */\n      dup1\n        /* \"contracts/TicTacToe.sol\":6008:6029  board[2][0] == marker */\n      0xff\n      and\n        /* \"contracts/TicTacToe.sol\":6008:6013  board */\n      0x00\n        /* \"contracts/TicTacToe.sol\":6014:6015  2 */\n      0x02\n        /* \"contracts/TicTacToe.sol\":6008:6016  board[2] */\n      0x03\n      dup2\n      lt\n      tag_189\n      jumpi\n      tag_190\n      tag_73\n      jump\t// in\n    tag_190:\n    tag_189:\n      add\n        /* \"contracts/TicTacToe.sol\":6017:6018  0 */\n      0x00\n        /* \"contracts/TicTacToe.sol\":6008:6019  board[2][0] */\n      0x03\n      dup2\n      lt\n      tag_192\n      jumpi\n      tag_193\n      tag_73\n      jump\t// in\n    tag_193:\n    tag_192:\n      0x20\n      swap2\n      dup3\n      dup3\n      div\n      add\n      swap2\n      swap1\n      mod\n      swap1\n      sload\n      swap1\n      0x0100\n      exp\n      swap1\n      div\n      0xff\n      and\n        /* \"contracts/TicTacToe.sol\":6008:6029  board[2][0] == marker */\n      0xff\n      and\n      eq\n        /* \"contracts/TicTacToe.sol\":5958:6029  board[0][2] == marker && board[1][1] == marker && board[2][0] == marker */\n    tag_188:\n        /* \"contracts/TicTacToe.sol\":5954:6093  if (board[0][2] == marker && board[1][1] == marker && board[2][0] == marker) {... */\n      iszero\n      tag_195\n      jumpi\n        /* \"contracts/TicTacToe.sol\":6058:6062  true */\n      0x01\n        /* \"contracts/TicTacToe.sol\":6045:6055  isGameOver */\n      0x05\n      0x14\n        /* \"contracts/TicTacToe.sol\":6045:6062  isGameOver = true */\n      0x0100\n      exp\n      dup2\n      sload\n      dup2\n      0xff\n      mul\n      not\n      and\n      swap1\n      dup4\n      iszero\n      iszero\n      mul\n      or\n      swap1\n      sstore\n      pop\n        /* \"contracts/TicTacToe.sol\":6076:6083  return; */\n      pop\n      jump(tag_105)\n        /* \"contracts/TicTacToe.sol\":5954:6093  if (board[0][2] == marker && board[1][1] == marker && board[2][0] == marker) {... */\n    tag_195:\n        /* \"contracts/TicTacToe.sol\":6172:6189  uint8 filledCells */\n      0x00\n        /* \"contracts/TicTacToe.sol\":6192:6193  0 */\n      0x00\n        /* \"contracts/TicTacToe.sol\":6172:6193  uint8 filledCells = 0 */\n      swap1\n      pop\n        /* \"contracts/TicTacToe.sol\":6208:6214  uint i */\n      0x00\n        /* \"contracts/TicTacToe.sol\":6217:6218  0 */\n      0x00\n        /* \"contracts/TicTacToe.sol\":6208:6218  uint i = 0 */\n      swap1\n      pop\n        /* \"contracts/TicTacToe.sol\":6203:6354  for (uint i = 0; i < 3; i++) {... */\n    tag_196:\n        /* \"contracts/TicTacToe.sol\":6224:6225  3 */\n      0x03\n        /* \"contracts/TicTacToe.sol\":6220:6221  i */\n      dup2\n        /* \"contracts/TicTacToe.sol\":6220:6225  i < 3 */\n      lt\n        /* \"contracts/TicTacToe.sol\":6203:6354  for (uint i = 0; i < 3; i++) {... */\n      iszero\n      tag_197\n      jumpi\n        /* \"contracts/TicTacToe.sol\":6251:6258  uint8 j */\n      0x00\n        /* \"contracts/TicTacToe.sol\":6261:6262  0 */\n      0x00\n        /* \"contracts/TicTacToe.sol\":6251:6262  uint8 j = 0 */\n      swap1\n      pop\n        /* \"contracts/TicTacToe.sol\":6246:6344  for (uint8 j = 0; j < 3; j++) {... */\n    tag_199:\n        /* \"contracts/TicTacToe.sol\":6268:6269  3 */\n      0x03\n        /* \"contracts/TicTacToe.sol\":6264:6265  j */\n      dup2\n        /* \"contracts/TicTacToe.sol\":6264:6269  j < 3 */\n      0xff\n      and\n      lt\n        /* \"contracts/TicTacToe.sol\":6246:6344  for (uint8 j = 0; j < 3; j++) {... */\n      iszero\n      tag_200\n      jumpi\n        /* \"contracts/TicTacToe.sol\":6313:6314  0 */\n      0x00\n        /* \"contracts/TicTacToe.sol\":6298:6303  board */\n      0x00\n        /* \"contracts/TicTacToe.sol\":6304:6305  i */\n      dup4\n        /* \"contracts/TicTacToe.sol\":6298:6306  board[i] */\n      0x03\n      dup2\n      lt\n      tag_202\n      jumpi\n      tag_203\n      tag_73\n      jump\t// in\n    tag_203:\n    tag_202:\n      add\n        /* \"contracts/TicTacToe.sol\":6307:6308  j */\n      dup3\n        /* \"contracts/TicTacToe.sol\":6298:6309  board[i][j] */\n      0xff\n      and\n      0x03\n      dup2\n      lt\n      tag_205\n      jumpi\n      tag_206\n      tag_73\n      jump\t// in\n    tag_206:\n    tag_205:\n      0x20\n      swap2\n      dup3\n      dup3\n      div\n      add\n      swap2\n      swap1\n      mod\n      swap1\n      sload\n      swap1\n      0x0100\n      exp\n      swap1\n      div\n      0xff\n      and\n        /* \"contracts/TicTacToe.sol\":6298:6314  board[i][j] != 0 */\n      0xff\n      and\n      eq\n        /* \"contracts/TicTacToe.sol\":6294:6329  if (board[i][j] != 0) filledCells++ */\n      tag_208\n      jumpi\n        /* \"contracts/TicTacToe.sol\":6316:6329  filledCells++ */\n      dup3\n      dup1\n      tag_209\n      swap1\n      tag_210\n      jump\t// in\n    tag_209:\n      swap4\n      pop\n      pop\n        /* \"contracts/TicTacToe.sol\":6294:6329  if (board[i][j] != 0) filledCells++ */\n    tag_208:\n        /* \"contracts/TicTacToe.sol\":6271:6274  j++ */\n      dup1\n      dup1\n      0x01\n      add\n      swap2\n      pop\n      pop\n        /* \"contracts/TicTacToe.sol\":6246:6344  for (uint8 j = 0; j < 3; j++) {... */\n      jump(tag_199)\n    tag_200:\n      pop\n        /* \"contracts/TicTacToe.sol\":6227:6230  i++ */\n      dup1\n      dup1\n      0x01\n      add\n      swap2\n      pop\n      pop\n        /* \"contracts/TicTacToe.sol\":6203:6354  for (uint i = 0; i < 3; i++) {... */\n      jump(tag_196)\n    tag_197:\n      pop\n        /* \"contracts/TicTacToe.sol\":6431:6432  9 */\n      0x09\n        /* \"contracts/TicTacToe.sol\":6416:6427  filledCells */\n      dup2\n        /* \"contracts/TicTacToe.sol\":6416:6432  filledCells == 9 */\n      0xff\n      and\n      sub\n        /* \"contracts/TicTacToe.sol\":6412:6451  if (filledCells == 9) isGameOver = true */\n      tag_211\n      jumpi\n        /* \"contracts/TicTacToe.sol\":6447:6451  true */\n      0x01\n        /* \"contracts/TicTacToe.sol\":6434:6444  isGameOver */\n      0x05\n      0x14\n        /* \"contracts/TicTacToe.sol\":6434:6451  isGameOver = true */\n      0x0100\n      exp\n      dup2\n      sload\n      dup2\n      0xff\n      mul\n      not\n      and\n      swap1\n      dup4\n      iszero\n      iszero\n      mul\n      or\n      swap1\n      sstore\n      pop\n        /* \"contracts/TicTacToe.sol\":6412:6451  if (filledCells == 9) isGameOver = true */\n    tag_211:\n        /* \"contracts/TicTacToe.sol\":5160:6458  {... */\n      pop\n      pop\n        /* \"contracts/TicTacToe.sol\":5132:6458  function checkWin() private {... */\n    tag_105:\n      jump\t// out\n        /* \"contracts/TicTacToe.sol\":4957:5126  function switchTurn() private {... */\n    tag_99:\n        /* \"contracts/TicTacToe.sol\":5015:5022  playerX */\n      0x03\n      0x00\n      swap1\n      sload\n      swap1\n      0x0100\n      exp\n      swap1\n      div\n      0xffffffffffffffffffffffffffffffffffffffff\n      and\n        /* \"contracts/TicTacToe.sol\":5001:5022  nextPlayer == playerX */\n      0xffffffffffffffffffffffffffffffffffffffff\n      and\n        /* \"contracts/TicTacToe.sol\":5001:5011  nextPlayer */\n      0x05\n      0x00\n      swap1\n      sload\n      swap1\n      0x0100\n      exp\n      swap1\n      div\n      0xffffffffffffffffffffffffffffffffffffffff\n      and\n        /* \"contracts/TicTacToe.sol\":5001:5022  nextPlayer == playerX */\n      0xffffffffffffffffffffffffffffffffffffffff\n      and\n      sub\n        /* \"contracts/TicTacToe.sol\":4997:5120  if (nextPlayer == playerX) {... */\n      tag_213\n      jumpi\n        /* \"contracts/TicTacToe.sol\":5051:5058  playerO */\n      0x04\n      0x00\n      swap1\n      sload\n      swap1\n      0x0100\n      exp\n      swap1\n      div\n      0xffffffffffffffffffffffffffffffffffffffff\n      and\n        /* \"contracts/TicTacToe.sol\":5038:5048  nextPlayer */\n      0x05\n      0x00\n        /* \"contracts/TicTacToe.sol\":5038:5058  nextPlayer = playerO */\n      0x0100\n      exp\n      dup2\n      sload\n      dup2\n      0xffffffffffffffffffffffffffffffffffffffff\n      mul\n      not\n      and\n      swap1\n      dup4\n      0xffffffffffffffffffffffffffffffffffffffff\n      and\n      mul\n      or\n      swap1\n      sstore\n      pop\n        /* \"contracts/TicTacToe.sol\":4997:5120  if (nextPlayer == playerX) {... */\n      jump(tag_214)\n    tag_213:\n        /* \"contracts/TicTacToe.sol\":5102:5109  playerX */\n      0x03\n      0x00\n      swap1\n      sload\n      swap1\n      0x0100\n      exp\n      swap1\n      div\n      0xffffffffffffffffffffffffffffffffffffffff\n      and\n        /* \"contracts/TicTacToe.sol\":5089:5099  nextPlayer */\n      0x05\n      0x00\n        /* \"contracts/TicTacToe.sol\":5089:5109  nextPlayer = playerX */\n      0x0100\n      exp\n      dup2\n      sload\n      dup2\n      0xffffffffffffffffffffffffffffffffffffffff\n      mul\n      not\n      and\n      swap1\n      dup4\n      0xffffffffffffffffffffffffffffffffffffffff\n      and\n      mul\n      or\n      swap1\n      sstore\n      pop\n        /* \"contracts/TicTacToe.sol\":4997:5120  if (nextPlayer == playerX) {... */\n    tag_214:\n        /* \"contracts/TicTacToe.sol\":4957:5126  function switchTurn() private {... */\n      jump\t// out\n    tag_46:\n      mload(0x40)\n      dup1\n      0x60\n      add\n      0x40\n      mstore\n      dup1\n      0x03\n      swap1\n    tag_215:\n      tag_216\n      tag_217\n      jump\t// in\n    tag_216:\n      dup2\n      mstore\n      0x20\n      add\n      swap1\n      0x01\n      swap1\n      sub\n      swap1\n      dup2\n      tag_215\n      jumpi\n      swap1\n      pop\n      pop\n      swap1\n      jump\t// out\n    tag_217:\n      mload(0x40)\n      dup1\n      0x60\n      add\n      0x40\n      mstore\n      dup1\n      0x03\n      swap1\n      0x20\n      dup3\n      mul\n      dup1\n      calldatasize\n      dup4\n      calldatacopy\n      dup1\n      dup3\n      add\n      swap2\n      pop\n      pop\n      swap1\n      pop\n      pop\n      swap1\n      jump\t// out\n        /* \"#utility.yul\":7:133   */\n    tag_218:\n        /* \"#utility.yul\":44:51   */\n      0x00\n        /* \"#utility.yul\":84:126   */\n      0xffffffffffffffffffffffffffffffffffffffff\n        /* \"#utility.yul\":77:82   */\n      dup3\n        /* \"#utility.yul\":73:127   */\n      and\n        /* \"#utility.yul\":62:127   */\n      swap1\n      pop\n        /* \"#utility.yul\":7:133   */\n      swap2\n      swap1\n      pop\n      jump\t// out\n        /* \"#utility.yul\":139:235   */\n    tag_219:\n        /* \"#utility.yul\":176:183   */\n      0x00\n        /* \"#utility.yul\":205:229   */\n      tag_266\n        /* \"#utility.yul\":223:228   */\n      dup3\n        /* \"#utility.yul\":205:229   */\n      tag_218\n      jump\t// in\n    tag_266:\n        /* \"#utility.yul\":194:229   */\n      swap1\n      pop\n        /* \"#utility.yul\":139:235   */\n      swap2\n      swap1\n      pop\n      jump\t// out\n        /* \"#utility.yul\":241:359   */\n    tag_220:\n        /* \"#utility.yul\":328:352   */\n      tag_268\n        /* \"#utility.yul\":346:351   */\n      dup2\n        /* \"#utility.yul\":328:352   */\n      tag_219\n      jump\t// in\n    tag_268:\n        /* \"#utility.yul\":323:326   */\n      dup3\n        /* \"#utility.yul\":316:353   */\n      mstore\n        /* \"#utility.yul\":241:359   */\n      pop\n      pop\n      jump\t// out\n        /* \"#utility.yul\":365:587   */\n    tag_15:\n        /* \"#utility.yul\":458:462   */\n      0x00\n        /* \"#utility.yul\":496:498   */\n      0x20\n        /* \"#utility.yul\":485:494   */\n      dup3\n        /* \"#utility.yul\":481:499   */\n      add\n        /* \"#utility.yul\":473:499   */\n      swap1\n      pop\n        /* \"#utility.yul\":509:580   */\n      tag_270\n        /* \"#utility.yul\":577:578   */\n      0x00\n        /* \"#utility.yul\":566:575   */\n      dup4\n        /* \"#utility.yul\":562:579   */\n      add\n        /* \"#utility.yul\":553:559   */\n      dup5\n        /* \"#utility.yul\":509:580   */\n      tag_220\n      jump\t// in\n    tag_270:\n        /* \"#utility.yul\":365:587   */\n      swap3\n      swap2\n      pop\n      pop\n      jump\t// out\n        /* \"#utility.yul\":593:683   */\n    tag_221:\n        /* \"#utility.yul\":627:634   */\n      0x00\n        /* \"#utility.yul\":670:675   */\n      dup2\n        /* \"#utility.yul\":663:676   */\n      iszero\n        /* \"#utility.yul\":656:677   */\n      iszero\n        /* \"#utility.yul\":645:677   */\n      swap1\n      pop\n        /* \"#utility.yul\":593:683   */\n      swap2\n      swap1\n      pop\n      jump\t// out\n        /* \"#utility.yul\":689:798   */\n    tag_222:\n        /* \"#utility.yul\":770:791   */\n      tag_273\n        /* \"#utility.yul\":785:790   */\n      dup2\n        /* \"#utility.yul\":770:791   */\n      tag_221\n      jump\t// in\n    tag_273:\n        /* \"#utility.yul\":765:768   */\n      dup3\n        /* \"#utility.yul\":758:792   */\n      mstore\n        /* \"#utility.yul\":689:798   */\n      pop\n      pop\n      jump\t// out\n        /* \"#utility.yul\":804:1014   */\n    tag_19:\n        /* \"#utility.yul\":891:895   */\n      0x00\n        /* \"#utility.yul\":929:931   */\n      0x20\n        /* \"#utility.yul\":918:927   */\n      dup3\n        /* \"#utility.yul\":914:932   */\n      add\n        /* \"#utility.yul\":906:932   */\n      swap1\n      pop\n        /* \"#utility.yul\":942:1007   */\n      tag_275\n        /* \"#utility.yul\":1004:1005   */\n      0x00\n        /* \"#utility.yul\":993:1002   */\n      dup4\n        /* \"#utility.yul\":989:1006   */\n      add\n        /* \"#utility.yul\":980:986   */\n      dup5\n        /* \"#utility.yul\":942:1007   */\n      tag_222\n      jump\t// in\n    tag_275:\n        /* \"#utility.yul\":804:1014   */\n      swap3\n      swap2\n      pop\n      pop\n      jump\t// out\n        /* \"#utility.yul\":1020:1145   */\n    tag_223:\n        /* \"#utility.yul\":1106:1112   */\n      0x00\n        /* \"#utility.yul\":1134:1138   */\n      0x03\n        /* \"#utility.yul\":1124:1138   */\n      swap1\n      pop\n        /* \"#utility.yul\":1020:1145   */\n      swap2\n      swap1\n      pop\n      jump\t// out\n        /* \"#utility.yul\":1151:1315   */\n    tag_224:\n        /* \"#utility.yul\":1269:1280   */\n      0x00\n        /* \"#utility.yul\":1306:1309   */\n      dup2\n        /* \"#utility.yul\":1291:1309   */\n      swap1\n      pop\n        /* \"#utility.yul\":1151:1315   */\n      swap3\n      swap2\n      pop\n      pop\n      jump\t// out\n        /* \"#utility.yul\":1321:1440   */\n    tag_225:\n        /* \"#utility.yul\":1407:1411   */\n      0x00\n        /* \"#utility.yul\":1430:1433   */\n      dup2\n        /* \"#utility.yul\":1422:1433   */\n      swap1\n      pop\n        /* \"#utility.yul\":1321:1440   */\n      swap2\n      swap1\n      pop\n      jump\t// out\n        /* \"#utility.yul\":1446:1548   */\n    tag_226:\n        /* \"#utility.yul\":1509:1515   */\n      0x00\n        /* \"#utility.yul\":1537:1541   */\n      0x03\n        /* \"#utility.yul\":1527:1541   */\n      swap1\n      pop\n        /* \"#utility.yul\":1446:1548   */\n      swap2\n      swap1\n      pop\n      jump\t// out\n        /* \"#utility.yul\":1554:1685   */\n    tag_227:\n        /* \"#utility.yul\":1639:1650   */\n      0x00\n        /* \"#utility.yul\":1676:1679   */\n      dup2\n        /* \"#utility.yul\":1661:1679   */\n      swap1\n      pop\n        /* \"#utility.yul\":1554:1685   */\n      swap3\n      swap2\n      pop\n      pop\n      jump\t// out\n        /* \"#utility.yul\":1691:1787   */\n    tag_228:\n        /* \"#utility.yul\":1754:1758   */\n      0x00\n        /* \"#utility.yul\":1777:1780   */\n      dup2\n        /* \"#utility.yul\":1769:1780   */\n      swap1\n      pop\n        /* \"#utility.yul\":1691:1787   */\n      swap2\n      swap1\n      pop\n      jump\t// out\n        /* \"#utility.yul\":1793:1879   */\n    tag_229:\n        /* \"#utility.yul\":1828:1835   */\n      0x00\n        /* \"#utility.yul\":1868:1872   */\n      0xff\n        /* \"#utility.yul\":1861:1866   */\n      dup3\n        /* \"#utility.yul\":1857:1873   */\n      and\n        /* \"#utility.yul\":1846:1873   */\n      swap1\n      pop\n        /* \"#utility.yul\":1793:1879   */\n      swap2\n      swap1\n      pop\n      jump\t// out\n        /* \"#utility.yul\":1885:1987   */\n    tag_230:\n        /* \"#utility.yul\":1958:1980   */\n      tag_284\n        /* \"#utility.yul\":1974:1979   */\n      dup2\n        /* \"#utility.yul\":1958:1980   */\n      tag_229\n      jump\t// in\n    tag_284:\n        /* \"#utility.yul\":1953:1956   */\n      dup3\n        /* \"#utility.yul\":1946:1981   */\n      mstore\n        /* \"#utility.yul\":1885:1987   */\n      pop\n      pop\n      jump\t// out\n        /* \"#utility.yul\":1993:2164   */\n    tag_231:\n        /* \"#utility.yul\":2058:2068   */\n      0x00\n        /* \"#utility.yul\":2079:2121   */\n      tag_286\n        /* \"#utility.yul\":2117:2120   */\n      dup4\n        /* \"#utility.yul\":2109:2115   */\n      dup4\n        /* \"#utility.yul\":2079:2121   */\n      tag_230\n      jump\t// in\n    tag_286:\n        /* \"#utility.yul\":2153:2157   */\n      0x20\n        /* \"#utility.yul\":2148:2151   */\n      dup4\n        /* \"#utility.yul\":2144:2158   */\n      add\n        /* \"#utility.yul\":2130:2158   */\n      swap1\n      pop\n        /* \"#utility.yul\":1993:2164   */\n      swap3\n      swap2\n      pop\n      pop\n      jump\t// out\n        /* \"#utility.yul\":2170:2279   */\n    tag_232:\n        /* \"#utility.yul\":2236:2240   */\n      0x00\n        /* \"#utility.yul\":2268:2272   */\n      0x20\n        /* \"#utility.yul\":2263:2266   */\n      dup3\n        /* \"#utility.yul\":2259:2273   */\n      add\n        /* \"#utility.yul\":2251:2273   */\n      swap1\n      pop\n        /* \"#utility.yul\":2170:2279   */\n      swap2\n      swap1\n      pop\n      jump\t// out\n        /* \"#utility.yul\":2313:2971   */\n    tag_233:\n        /* \"#utility.yul\":2435:2485   */\n      tag_289\n        /* \"#utility.yul\":2479:2484   */\n      dup2\n        /* \"#utility.yul\":2435:2485   */\n      tag_226\n      jump\t// in\n    tag_289:\n        /* \"#utility.yul\":2501:2573   */\n      tag_290\n        /* \"#utility.yul\":2566:2572   */\n      dup2\n        /* \"#utility.yul\":2561:2564   */\n      dup5\n        /* \"#utility.yul\":2501:2573   */\n      tag_227\n      jump\t// in\n    tag_290:\n        /* \"#utility.yul\":2494:2573   */\n      swap3\n      pop\n        /* \"#utility.yul\":2597:2649   */\n      tag_291\n        /* \"#utility.yul\":2643:2648   */\n      dup3\n        /* \"#utility.yul\":2597:2649   */\n      tag_228\n      jump\t// in\n    tag_291:\n        /* \"#utility.yul\":2672:2679   */\n      dup1\n        /* \"#utility.yul\":2703:2704   */\n      0x00\n        /* \"#utility.yul\":2688:2964   */\n    tag_292:\n        /* \"#utility.yul\":2713:2719   */\n      dup4\n        /* \"#utility.yul\":2710:2711   */\n      dup2\n        /* \"#utility.yul\":2707:2720   */\n      lt\n        /* \"#utility.yul\":2688:2964   */\n      iszero\n      tag_294\n      jumpi\n        /* \"#utility.yul\":2789:2795   */\n      dup2\n        /* \"#utility.yul\":2783:2796   */\n      mload\n        /* \"#utility.yul\":2816:2875   */\n      tag_295\n        /* \"#utility.yul\":2871:2874   */\n      dup8\n        /* \"#utility.yul\":2856:2869   */\n      dup3\n        /* \"#utility.yul\":2816:2875   */\n      tag_231\n      jump\t// in\n    tag_295:\n        /* \"#utility.yul\":2809:2875   */\n      swap7\n      pop\n        /* \"#utility.yul\":2898:2954   */\n      tag_296\n        /* \"#utility.yul\":2947:2953   */\n      dup4\n        /* \"#utility.yul\":2898:2954   */\n      tag_232\n      jump\t// in\n    tag_296:\n        /* \"#utility.yul\":2888:2954   */\n      swap3\n      pop\n        /* \"#utility.yul\":2748:2964   */\n      pop\n        /* \"#utility.yul\":2735:2736   */\n      0x01\n        /* \"#utility.yul\":2732:2733   */\n      dup2\n        /* \"#utility.yul\":2728:2737   */\n      add\n        /* \"#utility.yul\":2723:2737   */\n      swap1\n      pop\n        /* \"#utility.yul\":2688:2964   */\n      jump(tag_292)\n    tag_294:\n        /* \"#utility.yul\":2692:2706   */\n      pop\n        /* \"#utility.yul\":2411:2971   */\n      pop\n      pop\n      pop\n        /* \"#utility.yul\":2313:2971   */\n      pop\n      pop\n      jump\t// out\n        /* \"#utility.yul\":2977:3240   */\n    tag_234:\n        /* \"#utility.yul\":3088:3098   */\n      0x00\n        /* \"#utility.yul\":3109:3197   */\n      tag_298\n        /* \"#utility.yul\":3193:3196   */\n      dup4\n        /* \"#utility.yul\":3185:3191   */\n      dup4\n        /* \"#utility.yul\":3109:3197   */\n      tag_233\n      jump\t// in\n    tag_298:\n        /* \"#utility.yul\":3229:3233   */\n      0x60\n        /* \"#utility.yul\":3224:3227   */\n      dup4\n        /* \"#utility.yul\":3220:3234   */\n      add\n        /* \"#utility.yul\":3206:3234   */\n      swap1\n      pop\n        /* \"#utility.yul\":2977:3240   */\n      swap3\n      swap2\n      pop\n      pop\n      jump\t// out\n        /* \"#utility.yul\":3246:3378   */\n    tag_235:\n        /* \"#utility.yul\":3335:3339   */\n      0x00\n        /* \"#utility.yul\":3367:3371   */\n      0x20\n        /* \"#utility.yul\":3362:3365   */\n      dup3\n        /* \"#utility.yul\":3358:3372   */\n      add\n        /* \"#utility.yul\":3350:3372   */\n      swap1\n      pop\n        /* \"#utility.yul\":3246:3378   */\n      swap2\n      swap1\n      pop\n      jump\t// out\n        /* \"#utility.yul\":3418:4280   */\n    tag_236:\n        /* \"#utility.yul\":3596:3669   */\n      tag_301\n        /* \"#utility.yul\":3663:3668   */\n      dup2\n        /* \"#utility.yul\":3596:3669   */\n      tag_223\n      jump\t// in\n    tag_301:\n        /* \"#utility.yul\":3685:3790   */\n      tag_302\n        /* \"#utility.yul\":3783:3789   */\n      dup2\n        /* \"#utility.yul\":3778:3781   */\n      dup5\n        /* \"#utility.yul\":3685:3790   */\n      tag_224\n      jump\t// in\n    tag_302:\n        /* \"#utility.yul\":3678:3790   */\n      swap3\n      pop\n        /* \"#utility.yul\":3814:3889   */\n      tag_303\n        /* \"#utility.yul\":3883:3888   */\n      dup3\n        /* \"#utility.yul\":3814:3889   */\n      tag_225\n      jump\t// in\n    tag_303:\n        /* \"#utility.yul\":3912:3919   */\n      dup1\n        /* \"#utility.yul\":3943:3944   */\n      0x00\n        /* \"#utility.yul\":3928:4273   */\n    tag_304:\n        /* \"#utility.yul\":3953:3959   */\n      dup4\n        /* \"#utility.yul\":3950:3951   */\n      dup2\n        /* \"#utility.yul\":3947:3960   */\n      lt\n        /* \"#utility.yul\":3928:4273   */\n      iszero\n      tag_306\n      jumpi\n        /* \"#utility.yul\":4029:4035   */\n      dup2\n        /* \"#utility.yul\":4023:4036   */\n      mload\n        /* \"#utility.yul\":4056:4161   */\n      tag_307\n        /* \"#utility.yul\":4157:4160   */\n      dup8\n        /* \"#utility.yul\":4142:4155   */\n      dup3\n        /* \"#utility.yul\":4056:4161   */\n      tag_234\n      jump\t// in\n    tag_307:\n        /* \"#utility.yul\":4049:4161   */\n      swap7\n      pop\n        /* \"#utility.yul\":4184:4263   */\n      tag_308\n        /* \"#utility.yul\":4256:4262   */\n      dup4\n        /* \"#utility.yul\":4184:4263   */\n      tag_235\n      jump\t// in\n    tag_308:\n        /* \"#utility.yul\":4174:4263   */\n      swap3\n      pop\n        /* \"#utility.yul\":3988:4273   */\n      pop\n        /* \"#utility.yul\":3975:3976   */\n      0x01\n        /* \"#utility.yul\":3972:3973   */\n      dup2\n        /* \"#utility.yul\":3968:3977   */\n      add\n        /* \"#utility.yul\":3963:3977   */\n      swap1\n      pop\n        /* \"#utility.yul\":3928:4273   */\n      jump(tag_304)\n    tag_306:\n        /* \"#utility.yul\":3932:3946   */\n      pop\n        /* \"#utility.yul\":3572:4280   */\n      pop\n      pop\n      pop\n        /* \"#utility.yul\":3418:4280   */\n      pop\n      pop\n      jump\t// out\n        /* \"#utility.yul\":4286:4685   */\n    tag_23:\n        /* \"#utility.yul\":4467:4471   */\n      0x00\n        /* \"#utility.yul\":4505:4508   */\n      0x0120\n        /* \"#utility.yul\":4494:4503   */\n      dup3\n        /* \"#utility.yul\":4490:4509   */\n      add\n        /* \"#utility.yul\":4482:4509   */\n      swap1\n      pop\n        /* \"#utility.yul\":4519:4678   */\n      tag_310\n        /* \"#utility.yul\":4675:4676   */\n      0x00\n        /* \"#utility.yul\":4664:4673   */\n      dup4\n        /* \"#utility.yul\":4660:4677   */\n      add\n        /* \"#utility.yul\":4651:4657   */\n      dup5\n        /* \"#utility.yul\":4519:4678   */\n      tag_236\n      jump\t// in\n    tag_310:\n        /* \"#utility.yul\":4286:4685   */\n      swap3\n      swap2\n      pop\n      pop\n      jump\t// out\n        /* \"#utility.yul\":4772:4889   */\n    tag_238:\n        /* \"#utility.yul\":4881:4882   */\n      0x00\n        /* \"#utility.yul\":4878:4879   */\n      0x00\n        /* \"#utility.yul\":4871:4883   */\n      revert\n        /* \"#utility.yul\":5018:5122   */\n    tag_240:\n        /* \"#utility.yul\":5063:5070   */\n      0x00\n        /* \"#utility.yul\":5092:5116   */\n      tag_315\n        /* \"#utility.yul\":5110:5115   */\n      dup3\n        /* \"#utility.yul\":5092:5116   */\n      tag_218\n      jump\t// in\n    tag_315:\n        /* \"#utility.yul\":5081:5116   */\n      swap1\n      pop\n        /* \"#utility.yul\":5018:5122   */\n      swap2\n      swap1\n      pop\n      jump\t// out\n        /* \"#utility.yul\":5128:5266   */\n    tag_241:\n        /* \"#utility.yul\":5209:5241   */\n      tag_317\n        /* \"#utility.yul\":5235:5240   */\n      dup2\n        /* \"#utility.yul\":5209:5241   */\n      tag_240\n      jump\t// in\n    tag_317:\n        /* \"#utility.yul\":5202:5207   */\n      dup2\n        /* \"#utility.yul\":5199:5242   */\n      eq\n        /* \"#utility.yul\":5189:5260   */\n      tag_318\n      jumpi\n        /* \"#utility.yul\":5256:5257   */\n      0x00\n        /* \"#utility.yul\":5253:5254   */\n      0x00\n        /* \"#utility.yul\":5246:5258   */\n      revert\n        /* \"#utility.yul\":5189:5260   */\n    tag_318:\n        /* \"#utility.yul\":5128:5266   */\n      pop\n      jump\t// out\n        /* \"#utility.yul\":5272:5427   */\n    tag_242:\n        /* \"#utility.yul\":5326:5331   */\n      0x00\n        /* \"#utility.yul\":5364:5370   */\n      dup2\n        /* \"#utility.yul\":5351:5371   */\n      calldataload\n        /* \"#utility.yul\":5342:5371   */\n      swap1\n      pop\n        /* \"#utility.yul\":5380:5421   */\n      tag_320\n        /* \"#utility.yul\":5415:5420   */\n      dup2\n        /* \"#utility.yul\":5380:5421   */\n      tag_241\n      jump\t// in\n    tag_320:\n        /* \"#utility.yul\":5272:5427   */\n      swap3\n      swap2\n      pop\n      pop\n      jump\t// out\n        /* \"#utility.yul\":5433:5939   */\n    tag_26:\n        /* \"#utility.yul\":5517:5523   */\n      0x00\n        /* \"#utility.yul\":5525:5531   */\n      0x00\n        /* \"#utility.yul\":5574:5576   */\n      0x40\n        /* \"#utility.yul\":5562:5571   */\n      dup4\n        /* \"#utility.yul\":5553:5560   */\n      dup6\n        /* \"#utility.yul\":5549:5572   */\n      sub\n        /* \"#utility.yul\":5545:5577   */\n      slt\n        /* \"#utility.yul\":5542:5661   */\n      iszero\n      tag_322\n      jumpi\n        /* \"#utility.yul\":5580:5659   */\n      tag_323\n      tag_238\n      jump\t// in\n    tag_323:\n        /* \"#utility.yul\":5542:5661   */\n    tag_322:\n        /* \"#utility.yul\":5700:5701   */\n      0x00\n        /* \"#utility.yul\":5725:5786   */\n      tag_324\n        /* \"#utility.yul\":5778:5785   */\n      dup6\n        /* \"#utility.yul\":5769:5775   */\n      dup3\n        /* \"#utility.yul\":5758:5767   */\n      dup7\n        /* \"#utility.yul\":5754:5776   */\n      add\n        /* \"#utility.yul\":5725:5786   */\n      tag_242\n      jump\t// in\n    tag_324:\n        /* \"#utility.yul\":5715:5786   */\n      swap3\n      pop\n        /* \"#utility.yul\":5671:5796   */\n      pop\n        /* \"#utility.yul\":5835:5837   */\n      0x20\n        /* \"#utility.yul\":5861:5922   */\n      tag_325\n        /* \"#utility.yul\":5914:5921   */\n      dup6\n        /* \"#utility.yul\":5905:5911   */\n      dup3\n        /* \"#utility.yul\":5894:5903   */\n      dup7\n        /* \"#utility.yul\":5890:5912   */\n      add\n        /* \"#utility.yul\":5861:5922   */\n      tag_242\n      jump\t// in\n    tag_325:\n        /* \"#utility.yul\":5851:5922   */\n      swap2\n      pop\n        /* \"#utility.yul\":5806:5932   */\n      pop\n        /* \"#utility.yul\":5433:5939   */\n      swap3\n      pop\n      swap3\n      swap1\n      pop\n      jump\t// out\n        /* \"#utility.yul\":5945:6063   */\n    tag_243:\n        /* \"#utility.yul\":6016:6038   */\n      tag_327\n        /* \"#utility.yul\":6032:6037   */\n      dup2\n        /* \"#utility.yul\":6016:6038   */\n      tag_229\n      jump\t// in\n    tag_327:\n        /* \"#utility.yul\":6009:6014   */\n      dup2\n        /* \"#utility.yul\":6006:6039   */\n      eq\n        /* \"#utility.yul\":5996:6057   */\n      tag_328\n      jumpi\n        /* \"#utility.yul\":6053:6054   */\n      0x00\n        /* \"#utility.yul\":6050:6051   */\n      0x00\n        /* \"#utility.yul\":6043:6055   */\n      revert\n        /* \"#utility.yul\":5996:6057   */\n    tag_328:\n        /* \"#utility.yul\":5945:6063   */\n      pop\n      jump\t// out\n        /* \"#utility.yul\":6069:6204   */\n    tag_244:\n        /* \"#utility.yul\":6113:6118   */\n      0x00\n        /* \"#utility.yul\":6151:6157   */\n      dup2\n        /* \"#utility.yul\":6138:6158   */\n      calldataload\n        /* \"#utility.yul\":6129:6158   */\n      swap1\n      pop\n        /* \"#utility.yul\":6167:6198   */\n      tag_330\n        /* \"#utility.yul\":6192:6197   */\n      dup2\n        /* \"#utility.yul\":6167:6198   */\n      tag_243\n      jump\t// in\n    tag_330:\n        /* \"#utility.yul\":6069:6204   */\n      swap3\n      swap2\n      pop\n      pop\n      jump\t// out\n        /* \"#utility.yul\":6210:6676   */\n    tag_30:\n        /* \"#utility.yul\":6274:6280   */\n      0x00\n        /* \"#utility.yul\":6282:6288   */\n      0x00\n        /* \"#utility.yul\":6331:6333   */\n      0x40\n        /* \"#utility.yul\":6319:6328   */\n      dup4\n        /* \"#utility.yul\":6310:6317   */\n      dup6\n        /* \"#utility.yul\":6306:6329   */\n      sub\n        /* \"#utility.yul\":6302:6334   */\n      slt\n        /* \"#utility.yul\":6299:6418   */\n      iszero\n      tag_332\n      jumpi\n        /* \"#utility.yul\":6337:6416   */\n      tag_333\n      tag_238\n      jump\t// in\n    tag_333:\n        /* \"#utility.yul\":6299:6418   */\n    tag_332:\n        /* \"#utility.yul\":6457:6458   */\n      0x00\n        /* \"#utility.yul\":6482:6533   */\n      tag_334\n        /* \"#utility.yul\":6525:6532   */\n      dup6\n        /* \"#utility.yul\":6516:6522   */\n      dup3\n        /* \"#utility.yul\":6505:6514   */\n      dup7\n        /* \"#utility.yul\":6501:6523   */\n      add\n        /* \"#utility.yul\":6482:6533   */\n      tag_244\n      jump\t// in\n    tag_334:\n        /* \"#utility.yul\":6472:6533   */\n      swap3\n      pop\n        /* \"#utility.yul\":6428:6543   */\n      pop\n        /* \"#utility.yul\":6582:6584   */\n      0x20\n        /* \"#utility.yul\":6608:6659   */\n      tag_335\n        /* \"#utility.yul\":6651:6658   */\n      dup6\n        /* \"#utility.yul\":6642:6648   */\n      dup3\n        /* \"#utility.yul\":6631:6640   */\n      dup7\n        /* \"#utility.yul\":6627:6649   */\n      add\n        /* \"#utility.yul\":6608:6659   */\n      tag_244\n      jump\t// in\n    tag_335:\n        /* \"#utility.yul\":6598:6659   */\n      swap2\n      pop\n        /* \"#utility.yul\":6553:6669   */\n      pop\n        /* \"#utility.yul\":6210:6676   */\n      swap3\n      pop\n      swap3\n      swap1\n      pop\n      jump\t// out\n        /* \"#utility.yul\":6682:6759   */\n    tag_245:\n        /* \"#utility.yul\":6719:6726   */\n      0x00\n        /* \"#utility.yul\":6748:6753   */\n      dup2\n        /* \"#utility.yul\":6737:6753   */\n      swap1\n      pop\n        /* \"#utility.yul\":6682:6759   */\n      swap2\n      swap1\n      pop\n      jump\t// out\n        /* \"#utility.yul\":6765:6887   */\n    tag_246:\n        /* \"#utility.yul\":6838:6862   */\n      tag_338\n        /* \"#utility.yul\":6856:6861   */\n      dup2\n        /* \"#utility.yul\":6838:6862   */\n      tag_245\n      jump\t// in\n    tag_338:\n        /* \"#utility.yul\":6831:6836   */\n      dup2\n        /* \"#utility.yul\":6828:6863   */\n      eq\n        /* \"#utility.yul\":6818:6881   */\n      tag_339\n      jumpi\n        /* \"#utility.yul\":6877:6878   */\n      0x00\n        /* \"#utility.yul\":6874:6875   */\n      0x00\n        /* \"#utility.yul\":6867:6879   */\n      revert\n        /* \"#utility.yul\":6818:6881   */\n    tag_339:\n        /* \"#utility.yul\":6765:6887   */\n      pop\n      jump\t// out\n        /* \"#utility.yul\":6893:7032   */\n    tag_247:\n        /* \"#utility.yul\":6939:6944   */\n      0x00\n        /* \"#utility.yul\":6977:6983   */\n      dup2\n        /* \"#utility.yul\":6964:6984   */\n      calldataload\n        /* \"#utility.yul\":6955:6984   */\n      swap1\n      pop\n        /* \"#utility.yul\":6993:7026   */\n      tag_341\n        /* \"#utility.yul\":7020:7025   */\n      dup2\n        /* \"#utility.yul\":6993:7026   */\n      tag_246\n      jump\t// in\n    tag_341:\n        /* \"#utility.yul\":6893:7032   */\n      swap3\n      swap2\n      pop\n      pop\n      jump\t// out\n        /* \"#utility.yul\":7038:7512   */\n    tag_34:\n        /* \"#utility.yul\":7106:7112   */\n      0x00\n        /* \"#utility.yul\":7114:7120   */\n      0x00\n        /* \"#utility.yul\":7163:7165   */\n      0x40\n        /* \"#utility.yul\":7151:7160   */\n      dup4\n        /* \"#utility.yul\":7142:7149   */\n      dup6\n        /* \"#utility.yul\":7138:7161   */\n      sub\n        /* \"#utility.yul\":7134:7166   */\n      slt\n        /* \"#utility.yul\":7131:7250   */\n      iszero\n      tag_343\n      jumpi\n        /* \"#utility.yul\":7169:7248   */\n      tag_344\n      tag_238\n      jump\t// in\n    tag_344:\n        /* \"#utility.yul\":7131:7250   */\n    tag_343:\n        /* \"#utility.yul\":7289:7290   */\n      0x00\n        /* \"#utility.yul\":7314:7367   */\n      tag_345\n        /* \"#utility.yul\":7359:7366   */\n      dup6\n        /* \"#utility.yul\":7350:7356   */\n      dup3\n        /* \"#utility.yul\":7339:7348   */\n      dup7\n        /* \"#utility.yul\":7335:7357   */\n      add\n        /* \"#utility.yul\":7314:7367   */\n      tag_247\n      jump\t// in\n    tag_345:\n        /* \"#utility.yul\":7304:7367   */\n      swap3\n      pop\n        /* \"#utility.yul\":7260:7377   */\n      pop\n        /* \"#utility.yul\":7416:7418   */\n      0x20\n        /* \"#utility.yul\":7442:7495   */\n      tag_346\n        /* \"#utility.yul\":7487:7494   */\n      dup6\n        /* \"#utility.yul\":7478:7484   */\n      dup3\n        /* \"#utility.yul\":7467:7476   */\n      dup7\n        /* \"#utility.yul\":7463:7485   */\n      add\n        /* \"#utility.yul\":7442:7495   */\n      tag_247\n      jump\t// in\n    tag_346:\n        /* \"#utility.yul\":7432:7495   */\n      swap2\n      pop\n        /* \"#utility.yul\":7387:7505   */\n      pop\n        /* \"#utility.yul\":7038:7512   */\n      swap3\n      pop\n      swap3\n      swap1\n      pop\n      jump\t// out\n        /* \"#utility.yul\":7518:7630   */\n    tag_248:\n        /* \"#utility.yul\":7601:7623   */\n      tag_348\n        /* \"#utility.yul\":7617:7622   */\n      dup2\n        /* \"#utility.yul\":7601:7623   */\n      tag_229\n      jump\t// in\n    tag_348:\n        /* \"#utility.yul\":7596:7599   */\n      dup3\n        /* \"#utility.yul\":7589:7624   */\n      mstore\n        /* \"#utility.yul\":7518:7630   */\n      pop\n      pop\n      jump\t// out\n        /* \"#utility.yul\":7636:7850   */\n    tag_37:\n        /* \"#utility.yul\":7725:7729   */\n      0x00\n        /* \"#utility.yul\":7763:7765   */\n      0x20\n        /* \"#utility.yul\":7752:7761   */\n      dup3\n        /* \"#utility.yul\":7748:7766   */\n      add\n        /* \"#utility.yul\":7740:7766   */\n      swap1\n      pop\n        /* \"#utility.yul\":7776:7843   */\n      tag_350\n        /* \"#utility.yul\":7840:7841   */\n      0x00\n        /* \"#utility.yul\":7829:7838   */\n      dup4\n        /* \"#utility.yul\":7825:7842   */\n      add\n        /* \"#utility.yul\":7816:7822   */\n      dup5\n        /* \"#utility.yul\":7776:7843   */\n      tag_248\n      jump\t// in\n    tag_350:\n        /* \"#utility.yul\":7636:7850   */\n      swap3\n      swap2\n      pop\n      pop\n      jump\t// out\n        /* \"#utility.yul\":7856:8188   */\n    tag_41:\n        /* \"#utility.yul\":7977:7981   */\n      0x00\n        /* \"#utility.yul\":8015:8017   */\n      0x40\n        /* \"#utility.yul\":8004:8013   */\n      dup3\n        /* \"#utility.yul\":8000:8018   */\n      add\n        /* \"#utility.yul\":7992:8018   */\n      swap1\n      pop\n        /* \"#utility.yul\":8028:8099   */\n      tag_352\n        /* \"#utility.yul\":8096:8097   */\n      0x00\n        /* \"#utility.yul\":8085:8094   */\n      dup4\n        /* \"#utility.yul\":8081:8098   */\n      add\n        /* \"#utility.yul\":8072:8078   */\n      dup6\n        /* \"#utility.yul\":8028:8099   */\n      tag_220\n      jump\t// in\n    tag_352:\n        /* \"#utility.yul\":8109:8181   */\n      tag_353\n        /* \"#utility.yul\":8177:8179   */\n      0x20\n        /* \"#utility.yul\":8166:8175   */\n      dup4\n        /* \"#utility.yul\":8162:8180   */\n      add\n        /* \"#utility.yul\":8153:8159   */\n      dup5\n        /* \"#utility.yul\":8109:8181   */\n      tag_220\n      jump\t// in\n    tag_353:\n        /* \"#utility.yul\":7856:8188   */\n      swap4\n      swap3\n      pop\n      pop\n      pop\n      jump\t// out\n        /* \"#utility.yul\":8194:8363   */\n    tag_249:\n        /* \"#utility.yul\":8278:8289   */\n      0x00\n        /* \"#utility.yul\":8312:8318   */\n      dup3\n        /* \"#utility.yul\":8307:8310   */\n      dup3\n        /* \"#utility.yul\":8300:8319   */\n      mstore\n        /* \"#utility.yul\":8352:8356   */\n      0x20\n        /* \"#utility.yul\":8347:8350   */\n      dup3\n        /* \"#utility.yul\":8343:8357   */\n      add\n        /* \"#utility.yul\":8328:8357   */\n      swap1\n      pop\n        /* \"#utility.yul\":8194:8363   */\n      swap3\n      swap2\n      pop\n      pop\n      jump\t// out\n        /* \"#utility.yul\":8369:8543   */\n    tag_250:\n        /* \"#utility.yul\":8509:8535   */\n      0x47616d6520616c726561647920696e697469616c697a65640000000000000000\n        /* \"#utility.yul\":8505:8506   */\n      0x00\n        /* \"#utility.yul\":8497:8503   */\n      dup3\n        /* \"#utility.yul\":8493:8507   */\n      add\n        /* \"#utility.yul\":8486:8536   */\n      mstore\n        /* \"#utility.yul\":8369:8543   */\n      pop\n      jump\t// out\n        /* \"#utility.yul\":8549:8915   */\n    tag_251:\n        /* \"#utility.yul\":8691:8694   */\n      0x00\n        /* \"#utility.yul\":8712:8779   */\n      tag_357\n        /* \"#utility.yul\":8776:8778   */\n      0x18\n        /* \"#utility.yul\":8771:8774   */\n      dup4\n        /* \"#utility.yul\":8712:8779   */\n      tag_249\n      jump\t// in\n    tag_357:\n        /* \"#utility.yul\":8705:8779   */\n      swap2\n      pop\n        /* \"#utility.yul\":8788:8881   */\n      tag_358\n        /* \"#utility.yul\":8877:8880   */\n      dup3\n        /* \"#utility.yul\":8788:8881   */\n      tag_250\n      jump\t// in\n    tag_358:\n        /* \"#utility.yul\":8906:8908   */\n      0x20\n        /* \"#utility.yul\":8901:8904   */\n      dup3\n        /* \"#utility.yul\":8897:8909   */\n      add\n        /* \"#utility.yul\":8890:8909   */\n      swap1\n      pop\n        /* \"#utility.yul\":8549:8915   */\n      swap2\n      swap1\n      pop\n      jump\t// out\n        /* \"#utility.yul\":8921:9340   */\n    tag_56:\n        /* \"#utility.yul\":9087:9091   */\n      0x00\n        /* \"#utility.yul\":9125:9127   */\n      0x20\n        /* \"#utility.yul\":9114:9123   */\n      dup3\n        /* \"#utility.yul\":9110:9128   */\n      add\n        /* \"#utility.yul\":9102:9128   */\n      swap1\n      pop\n        /* \"#utility.yul\":9174:9183   */\n      dup2\n        /* \"#utility.yul\":9168:9172   */\n      dup2\n        /* \"#utility.yul\":9164:9184   */\n      sub\n        /* \"#utility.yul\":9160:9161   */\n      0x00\n        /* \"#utility.yul\":9149:9158   */\n      dup4\n        /* \"#utility.yul\":9145:9162   */\n      add\n        /* \"#utility.yul\":9138:9185   */\n      mstore\n        /* \"#utility.yul\":9202:9333   */\n      tag_360\n        /* \"#utility.yul\":9328:9332   */\n      dup2\n        /* \"#utility.yul\":9202:9333   */\n      tag_251\n      jump\t// in\n    tag_360:\n        /* \"#utility.yul\":9194:9333   */\n      swap1\n      pop\n        /* \"#utility.yul\":8921:9340   */\n      swap2\n      swap1\n      pop\n      jump\t// out\n        /* \"#utility.yul\":9346:9574   */\n    tag_252:\n        /* \"#utility.yul\":9486:9520   */\n      0x4f7468657220706c61796572206d75737420757365206120646966666572656e\n        /* \"#utility.yul\":9482:9483   */\n      0x00\n        /* \"#utility.yul\":9474:9480   */\n      dup3\n        /* \"#utility.yul\":9470:9484   */\n      add\n        /* \"#utility.yul\":9463:9521   */\n      mstore\n        /* \"#utility.yul\":9555:9566   */\n      0x7420616464726573730000000000000000000000000000000000000000000000\n        /* \"#utility.yul\":9550:9552   */\n      0x20\n        /* \"#utility.yul\":9542:9548   */\n      dup3\n        /* \"#utility.yul\":9538:9553   */\n      add\n        /* \"#utility.yul\":9531:9567   */\n      mstore\n        /* \"#utility.yul\":9346:9574   */\n      pop\n      jump\t// out\n        /* \"#utility.yul\":9580:9946   */\n    tag_253:\n        /* \"#utility.yul\":9722:9725   */\n      0x00\n        /* \"#utility.yul\":9743:9810   */\n      tag_363\n        /* \"#utility.yul\":9807:9809   */\n      0x29\n        /* \"#utility.yul\":9802:9805   */\n      dup4\n        /* \"#utility.yul\":9743:9810   */\n      tag_249\n      jump\t// in\n    tag_363:\n        /* \"#utility.yul\":9736:9810   */\n      swap2\n      pop\n        /* \"#utility.yul\":9819:9912   */\n      tag_364\n        /* \"#utility.yul\":9908:9911   */\n      dup3\n        /* \"#utility.yul\":9819:9912   */\n      tag_252\n      jump\t// in\n    tag_364:\n        /* \"#utility.yul\":9937:9939   */\n      0x40\n        /* \"#utility.yul\":9932:9935   */\n      dup3\n        /* \"#utility.yul\":9928:9940   */\n      add\n        /* \"#utility.yul\":9921:9940   */\n      swap1\n      pop\n        /* \"#utility.yul\":9580:9946   */\n      swap2\n      swap1\n      pop\n      jump\t// out\n        /* \"#utility.yul\":9952:10371   */\n    tag_59:\n        /* \"#utility.yul\":10118:10122   */\n      0x00\n        /* \"#utility.yul\":10156:10158   */\n      0x20\n        /* \"#utility.yul\":10145:10154   */\n      dup3\n        /* \"#utility.yul\":10141:10159   */\n      add\n        /* \"#utility.yul\":10133:10159   */\n      swap1\n      pop\n        /* \"#utility.yul\":10205:10214   */\n      dup2\n        /* \"#utility.yul\":10199:10203   */\n      dup2\n        /* \"#utility.yul\":10195:10215   */\n      sub\n        /* \"#utility.yul\":10191:10192   */\n      0x00\n        /* \"#utility.yul\":10180:10189   */\n      dup4\n        /* \"#utility.yul\":10176:10193   */\n      add\n        /* \"#utility.yul\":10169:10216   */\n      mstore\n        /* \"#utility.yul\":10233:10364   */\n      tag_366\n        /* \"#utility.yul\":10359:10363   */\n      dup2\n        /* \"#utility.yul\":10233:10364   */\n      tag_253\n      jump\t// in\n    tag_366:\n        /* \"#utility.yul\":10225:10364   */\n      swap1\n      pop\n        /* \"#utility.yul\":9952:10371   */\n      swap2\n      swap1\n      pop\n      jump\t// out\n        /* \"#utility.yul\":10377:10544   */\n    tag_254:\n        /* \"#utility.yul\":10517:10536   */\n      0x5468652067616d65206973206f7665722e000000000000000000000000000000\n        /* \"#utility.yul\":10513:10514   */\n      0x00\n        /* \"#utility.yul\":10505:10511   */\n      dup3\n        /* \"#utility.yul\":10501:10515   */\n      add\n        /* \"#utility.yul\":10494:10537   */\n      mstore\n        /* \"#utility.yul\":10377:10544   */\n      pop\n      jump\t// out\n        /* \"#utility.yul\":10550:10916   */\n    tag_255:\n        /* \"#utility.yul\":10692:10695   */\n      0x00\n        /* \"#utility.yul\":10713:10780   */\n      tag_369\n        /* \"#utility.yul\":10777:10779   */\n      0x11\n        /* \"#utility.yul\":10772:10775   */\n      dup4\n        /* \"#utility.yul\":10713:10780   */\n      tag_249\n      jump\t// in\n    tag_369:\n        /* \"#utility.yul\":10706:10780   */\n      swap2\n      pop\n        /* \"#utility.yul\":10789:10882   */\n      tag_370\n        /* \"#utility.yul\":10878:10881   */\n      dup3\n        /* \"#utility.yul\":10789:10882   */\n      tag_254\n      jump\t// in\n    tag_370:\n        /* \"#utility.yul\":10907:10909   */\n      0x20\n        /* \"#utility.yul\":10902:10905   */\n      dup3\n        /* \"#utility.yul\":10898:10910   */\n      add\n        /* \"#utility.yul\":10891:10910   */\n      swap1\n      pop\n        /* \"#utility.yul\":10550:10916   */\n      swap2\n      swap1\n      pop\n      jump\t// out\n        /* \"#utility.yul\":10922:11341   */\n    tag_63:\n        /* \"#utility.yul\":11088:11092   */\n      0x00\n        /* \"#utility.yul\":11126:11128   */\n      0x20\n        /* \"#utility.yul\":11115:11124   */\n      dup3\n        /* \"#utility.yul\":11111:11129   */\n      add\n        /* \"#utility.yul\":11103:11129   */\n      swap1\n      pop\n        /* \"#utility.yul\":11175:11184   */\n      dup2\n        /* \"#utility.yul\":11169:11173   */\n      dup2\n        /* \"#utility.yul\":11165:11185   */\n      sub\n        /* \"#utility.yul\":11161:11162   */\n      0x00\n        /* \"#utility.yul\":11150:11159   */\n      dup4\n        /* \"#utility.yul\":11146:11163   */\n      add\n        /* \"#utility.yul\":11139:11186   */\n      mstore\n        /* \"#utility.yul\":11203:11334   */\n      tag_372\n        /* \"#utility.yul\":11329:11333   */\n      dup2\n        /* \"#utility.yul\":11203:11334   */\n      tag_255\n      jump\t// in\n    tag_372:\n        /* \"#utility.yul\":11195:11334   */\n      swap1\n      pop\n        /* \"#utility.yul\":10922:11341   */\n      swap2\n      swap1\n      pop\n      jump\t// out\n        /* \"#utility.yul\":11347:11516   */\n    tag_256:\n        /* \"#utility.yul\":11487:11508   */\n      0x49742773206e6f7420796f7572207475726e2e00000000000000000000000000\n        /* \"#utility.yul\":11483:11484   */\n      0x00\n        /* \"#utility.yul\":11475:11481   */\n      dup3\n        /* \"#utility.yul\":11471:11485   */\n      add\n        /* \"#utility.yul\":11464:11509   */\n      mstore\n        /* \"#utility.yul\":11347:11516   */\n      pop\n      jump\t// out\n        /* \"#utility.yul\":11522:11888   */\n    tag_257:\n        /* \"#utility.yul\":11664:11667   */\n      0x00\n        /* \"#utility.yul\":11685:11752   */\n      tag_375\n        /* \"#utility.yul\":11749:11751   */\n      0x13\n        /* \"#utility.yul\":11744:11747   */\n      dup4\n        /* \"#utility.yul\":11685:11752   */\n      tag_249\n      jump\t// in\n    tag_375:\n        /* \"#utility.yul\":11678:11752   */\n      swap2\n      pop\n        /* \"#utility.yul\":11761:11854   */\n      tag_376\n        /* \"#utility.yul\":11850:11853   */\n      dup3\n        /* \"#utility.yul\":11761:11854   */\n      tag_256\n      jump\t// in\n    tag_376:\n        /* \"#utility.yul\":11879:11881   */\n      0x20\n        /* \"#utility.yul\":11874:11877   */\n      dup3\n        /* \"#utility.yul\":11870:11882   */\n      add\n        /* \"#utility.yul\":11863:11882   */\n      swap1\n      pop\n        /* \"#utility.yul\":11522:11888   */\n      swap2\n      swap1\n      pop\n      jump\t// out\n        /* \"#utility.yul\":11894:12313   */\n    tag_66:\n        /* \"#utility.yul\":12060:12064   */\n      0x00\n        /* \"#utility.yul\":12098:12100   */\n      0x20\n        /* \"#utility.yul\":12087:12096   */\n      dup3\n        /* \"#utility.yul\":12083:12101   */\n      add\n        /* \"#utility.yul\":12075:12101   */\n      swap1\n      pop\n        /* \"#utility.yul\":12147:12156   */\n      dup2\n        /* \"#utility.yul\":12141:12145   */\n      dup2\n        /* \"#utility.yul\":12137:12157   */\n      sub\n        /* \"#utility.yul\":12133:12134   */\n      0x00\n        /* \"#utility.yul\":12122:12131   */\n      dup4\n        /* \"#utility.yul\":12118:12135   */\n      add\n        /* \"#utility.yul\":12111:12158   */\n      mstore\n        /* \"#utility.yul\":12175:12306   */\n      tag_378\n        /* \"#utility.yul\":12301:12305   */\n      dup2\n        /* \"#utility.yul\":12175:12306   */\n      tag_257\n      jump\t// in\n    tag_378:\n        /* \"#utility.yul\":12167:12306   */\n      swap1\n      pop\n        /* \"#utility.yul\":11894:12313   */\n      swap2\n      swap1\n      pop\n      jump\t// out\n        /* \"#utility.yul\":12319:12500   */\n    tag_258:\n        /* \"#utility.yul\":12459:12492   */\n      0x496e76616c696420726f77206f7220636f6c756d6e20706c6163656d656e7400\n        /* \"#utility.yul\":12455:12456   */\n      0x00\n        /* \"#utility.yul\":12447:12453   */\n      dup3\n        /* \"#utility.yul\":12443:12457   */\n      add\n        /* \"#utility.yul\":12436:12493   */\n      mstore\n        /* \"#utility.yul\":12319:12500   */\n      pop\n      jump\t// out\n        /* \"#utility.yul\":12506:12872   */\n    tag_259:\n        /* \"#utility.yul\":12648:12651   */\n      0x00\n        /* \"#utility.yul\":12669:12736   */\n      tag_381\n        /* \"#utility.yul\":12733:12735   */\n      0x1f\n        /* \"#utility.yul\":12728:12731   */\n      dup4\n        /* \"#utility.yul\":12669:12736   */\n      tag_249\n      jump\t// in\n    tag_381:\n        /* \"#utility.yul\":12662:12736   */\n      swap2\n      pop\n        /* \"#utility.yul\":12745:12838   */\n      tag_382\n        /* \"#utility.yul\":12834:12837   */\n      dup3\n        /* \"#utility.yul\":12745:12838   */\n      tag_258\n      jump\t// in\n    tag_382:\n        /* \"#utility.yul\":12863:12865   */\n      0x20\n        /* \"#utility.yul\":12858:12861   */\n      dup3\n        /* \"#utility.yul\":12854:12866   */\n      add\n        /* \"#utility.yul\":12847:12866   */\n      swap1\n      pop\n        /* \"#utility.yul\":12506:12872   */\n      swap2\n      swap1\n      pop\n      jump\t// out\n        /* \"#utility.yul\":12878:13297   */\n    tag_70:\n        /* \"#utility.yul\":13044:13048   */\n      0x00\n        /* \"#utility.yul\":13082:13084   */\n      0x20\n        /* \"#utility.yul\":13071:13080   */\n      dup3\n        /* \"#utility.yul\":13067:13085   */\n      add\n        /* \"#utility.yul\":13059:13085   */\n      swap1\n      pop\n        /* \"#utility.yul\":13131:13140   */\n      dup2\n        /* \"#utility.yul\":13125:13129   */\n      dup2\n        /* \"#utility.yul\":13121:13141   */\n      sub\n        /* \"#utility.yul\":13117:13118   */\n      0x00\n        /* \"#utility.yul\":13106:13115   */\n      dup4\n        /* \"#utility.yul\":13102:13119   */\n      add\n        /* \"#utility.yul\":13095:13142   */\n      mstore\n        /* \"#utility.yul\":13159:13290   */\n      tag_384\n        /* \"#utility.yul\":13285:13289   */\n      dup2\n        /* \"#utility.yul\":13159:13290   */\n      tag_259\n      jump\t// in\n    tag_384:\n        /* \"#utility.yul\":13151:13290   */\n      swap1\n      pop\n        /* \"#utility.yul\":12878:13297   */\n      swap2\n      swap1\n      pop\n      jump\t// out\n        /* \"#utility.yul\":13303:13483   */\n    tag_73:\n        /* \"#utility.yul\":13351:13428   */\n      0x4e487b7100000000000000000000000000000000000000000000000000000000\n        /* \"#utility.yul\":13348:13349   */\n      0x00\n        /* \"#utility.yul\":13341:13429   */\n      mstore\n        /* \"#utility.yul\":13448:13452   */\n      0x32\n        /* \"#utility.yul\":13445:13446   */\n      0x04\n        /* \"#utility.yul\":13438:13453   */\n      mstore\n        /* \"#utility.yul\":13472:13476   */\n      0x24\n        /* \"#utility.yul\":13469:13470   */\n      0x00\n        /* \"#utility.yul\":13462:13477   */\n      revert\n        /* \"#utility.yul\":13489:13661   */\n    tag_260:\n        /* \"#utility.yul\":13629:13653   */\n      0x43656c6c20697320616c72656164792074616b656e2e00000000000000000000\n        /* \"#utility.yul\":13625:13626   */\n      0x00\n        /* \"#utility.yul\":13617:13623   */\n      dup3\n        /* \"#utility.yul\":13613:13627   */\n      add\n        /* \"#utility.yul\":13606:13654   */\n      mstore\n        /* \"#utility.yul\":13489:13661   */\n      pop\n      jump\t// out\n        /* \"#utility.yul\":13667:14033   */\n    tag_261:\n        /* \"#utility.yul\":13809:13812   */\n      0x00\n        /* \"#utility.yul\":13830:13897   */\n      tag_388\n        /* \"#utility.yul\":13894:13896   */\n      0x16\n        /* \"#utility.yul\":13889:13892   */\n      dup4\n        /* \"#utility.yul\":13830:13897   */\n      tag_249\n      jump\t// in\n    tag_388:\n        /* \"#utility.yul\":13823:13897   */\n      swap2\n      pop\n        /* \"#utility.yul\":13906:13999   */\n      tag_389\n        /* \"#utility.yul\":13995:13998   */\n      dup3\n        /* \"#utility.yul\":13906:13999   */\n      tag_260\n      jump\t// in\n    tag_389:\n        /* \"#utility.yul\":14024:14026   */\n      0x20\n        /* \"#utility.yul\":14019:14022   */\n      dup3\n        /* \"#utility.yul\":14015:14027   */\n      add\n        /* \"#utility.yul\":14008:14027   */\n      swap1\n      pop\n        /* \"#utility.yul\":13667:14033   */\n      swap2\n      swap1\n      pop\n      jump\t// out\n        /* \"#utility.yul\":14039:14458   */\n    tag_80:\n        /* \"#utility.yul\":14205:14209   */\n      0x00\n        /* \"#utility.yul\":14243:14245   */\n      0x20\n        /* \"#utility.yul\":14232:14241   */\n      dup3\n        /* \"#utility.yul\":14228:14246   */\n      add\n        /* \"#utility.yul\":14220:14246   */\n      swap1\n      pop\n        /* \"#utility.yul\":14292:14301   */\n      dup2\n        /* \"#utility.yul\":14286:14290   */\n      dup2\n        /* \"#utility.yul\":14282:14302   */\n      sub\n        /* \"#utility.yul\":14278:14279   */\n      0x00\n        /* \"#utility.yul\":14267:14276   */\n      dup4\n        /* \"#utility.yul\":14263:14280   */\n      add\n        /* \"#utility.yul\":14256:14303   */\n      mstore\n        /* \"#utility.yul\":14320:14451   */\n      tag_391\n        /* \"#utility.yul\":14446:14450   */\n      dup2\n        /* \"#utility.yul\":14320:14451   */\n      tag_261\n      jump\t// in\n    tag_391:\n        /* \"#utility.yul\":14312:14451   */\n      swap1\n      pop\n        /* \"#utility.yul\":14039:14458   */\n      swap2\n      swap1\n      pop\n      jump\t// out\n        /* \"#utility.yul\":14464:14644   */\n    tag_262:\n        /* \"#utility.yul\":14512:14589   */\n      0x4e487b7100000000000000000000000000000000000000000000000000000000\n        /* \"#utility.yul\":14509:14510   */\n      0x00\n        /* \"#utility.yul\":14502:14590   */\n      mstore\n        /* \"#utility.yul\":14609:14613   */\n      0x11\n        /* \"#utility.yul\":14606:14607   */\n      0x04\n        /* \"#utility.yul\":14599:14614   */\n      mstore\n        /* \"#utility.yul\":14633:14637   */\n      0x24\n        /* \"#utility.yul\":14630:14631   */\n      0x00\n        /* \"#utility.yul\":14623:14638   */\n      revert\n        /* \"#utility.yul\":14650:14817   */\n    tag_210:\n        /* \"#utility.yul\":14687:14690   */\n      0x00\n        /* \"#utility.yul\":14710:14732   */\n      tag_394\n        /* \"#utility.yul\":14726:14731   */\n      dup3\n        /* \"#utility.yul\":14710:14732   */\n      tag_229\n      jump\t// in\n    tag_394:\n        /* \"#utility.yul\":14701:14732   */\n      swap2\n      pop\n        /* \"#utility.yul\":14754:14758   */\n      0xff\n        /* \"#utility.yul\":14747:14752   */\n      dup3\n        /* \"#utility.yul\":14744:14759   */\n      sub\n        /* \"#utility.yul\":14741:14782   */\n      tag_395\n      jumpi\n        /* \"#utility.yul\":14762:14780   */\n      tag_396\n      tag_262\n      jump\t// in\n    tag_396:\n        /* \"#utility.yul\":14741:14782   */\n    tag_395:\n        /* \"#utility.yul\":14809:14810   */\n      0x01\n        /* \"#utility.yul\":14802:14807   */\n      dup3\n        /* \"#utility.yul\":14798:14811   */\n      add\n        /* \"#utility.yul\":14791:14811   */\n      swap1\n      pop\n        /* \"#utility.yul\":14650:14817   */\n      swap2\n      swap1\n      pop\n      jump\t// out\n\n    auxdata: 0xa2646970667358221220407e3262796c26ae7c25e7f6208f6c2e05b562f7085639e336e31ae512087be664736f6c634300081e0033\n}\n",
				"bytecode": {
					"linkReferences": {},
					"object": "6080604052348015600e575f5ffd5b506116a18061001c5f395ff3fe608060405234801561000f575f5ffd5b5060043610610086575f3560e01c80635e24b0f1116100595780635e24b0f1146101005780638086a92a1461011c5780638b5b9ccc1461014c578063dfbf53ae1461016b57610086565b806304a936051461008a5780630e04a7d8146100a85780632420f7f0146100c6578063485cc955146100e4575b5f5ffd5b610092610189565b60405161009f9190610ff1565b60405180910390f35b6100b06101ae565b6040516100bd9190611024565b60405180910390f35b6100ce6101c1565b6040516100db9190611184565b60405180910390f35b6100fe60048036038101906100f991906111dd565b610263565b005b61011a60048036038101906101159190611245565b610533565b005b610136600480360381019061013191906112b6565b61080c565b6040516101439190611303565b60405180910390f35b610154610845565b60405161016292919061131c565b60405180910390f35b610173610893565b6040516101809190610ff1565b60405180910390f35b60055f9054906101000a900473ffffffffffffffffffffffffffffffffffffffff1681565b600560149054906101000a900460ff1681565b6101c9610f63565b5f600380602002604051908101604052809291905f905b8282101561025a57838201600380602002604051908101604052809291908260038015610246576020028201915f905b82829054906101000a900460ff1660ff16815260200190600101906020825f010492830192600103820291508084116102105790505b5050505050815260200190600101906101e0565b50505050905090565b5f73ffffffffffffffffffffffffffffffffffffffff1660035f9054906101000a900473ffffffffffffffffffffffffffffffffffffffff1673ffffffffffffffffffffffffffffffffffffffff16146102f2576040517f08c379a00000000000000000000000000000000000000000000000000000000081526004016102e99061139d565b60405180910390fd5b8160035f6101000a81548173ffffffffffffffffffffffffffffffffffffffff021916908373ffffffffffffffffffffffffffffffffffffffff16021790555060035f9054906101000a900473ffffffffffffffffffffffffffffffffffffffff1673ffffffffffffffffffffffffffffffffffffffff168173ffffffffffffffffffffffffffffffffffffffff16036103c1576040517f08c379a00000000000000000000000000000000000000000000000000000000081526004016103b89061142b565b60405180910390fd5b8060045f6101000a81548173ffffffffffffffffffffffffffffffffffffffff021916908373ffffffffffffffffffffffffffffffffffffffff16021790555060035f9054906101000a900473ffffffffffffffffffffffffffffffffffffffff1660055f6101000a81548173ffffffffffffffffffffffffffffffffffffffff021916908373ffffffffffffffffffffffffffffffffffffffff1602179055505f600560146101000a81548160ff02191690831515021790555060045f9054906101000a900473ffffffffffffffffffffffffffffffffffffffff1673ffffffffffffffffffffffffffffffffffffffff1660035f9054906101000a900473ffffffffffffffffffffffffffffffffffffffff1673ffffffffffffffffffffffffffffffffffffffff163073ffffffffffffffffffffffffffffffffffffffff167fe733eb5c42c855d38269254700780d064a49ef1611d1f3bfdda632ec19891f5660405160405180910390a45050565b600560149054906101000a900460ff1615610583576040517f08c379a000000000000000000000000000000000000000000000000000000000815260040161057a90611493565b60405180910390fd5b60055f9054906101000a900473ffffffffffffffffffffffffffffffffffffffff1673ffffffffffffffffffffffffffffffffffffffff163373ffffffffffffffffffffffffffffffffffffffff1614610612576040517f08c379a0000000000000000000000000000000000000000000000000000000008152600401610609906114fb565b60405180910390fd5b60038260ff16108015610628575060038160ff16105b610667576040517f08c379a000000000000000000000000000000000000000000000000000000000815260040161065e90611563565b60405180910390fd5b5f5f8360ff166003811061067e5761067d611581565b5b018260ff166003811061069457610693611581565b5b602091828204019190069054906101000a900460ff1660ff16146106ed576040517f08c379a00000000000000000000000000000000000000000000000000000000081526004016106e4906115f8565b60405180910390fd5b60035f9054906101000a900473ffffffffffffffffffffffffffffffffffffffff1673ffffffffffffffffffffffffffffffffffffffff163373ffffffffffffffffffffffffffffffffffffffff16036107945760015f8360ff166003811061075957610758611581565b5b018260ff166003811061076f5761076e611581565b5b602091828204019190066101000a81548160ff021916908360ff1602179055506107e3565b60025f8360ff16600381106107ac576107ab611581565b5b018260ff16600381106107c2576107c1611581565b5b602091828204019190066101000a81548160ff021916908360ff1602179055505b6107eb6108b8565b600560149054906101000a900460ff1661080857610807610e24565b5b5050565b5f826003811061081a575f80fd5b018160038110610828575f80fd5b60209182820401919006915091509054906101000a900460ff1681565b5f5f60035f9054906101000a900473ffffffffffffffffffffffffffffffffffffffff1660045f9054906101000a900473ffffffffffffffffffffffffffffffffffffffff16915091509091565b60065f9054906101000a900473ffffffffffffffffffffffffffffffffffffffff1681565b5f60035f9054906101000a900473ffffffffffffffffffffffffffffffffffffffff1673ffffffffffffffffffffffffffffffffffffffff163373ffffffffffffffffffffffffffffffffffffffff1603610916576001905061091b565b600290505b5f5f90505b60038160ff161015610b55578160ff165f8260ff166003811061094657610945611581565b5b015f6003811061095957610958611581565b5b602091828204019190069054906101000a900460ff1660ff161480156109c357508160ff165f8260ff166003811061099457610993611581565b5b016001600381106109a8576109a7611581565b5b602091828204019190069054906101000a900460ff1660ff16145b8015610a1357508160ff165f8260ff16600381106109e4576109e3611581565b5b016002600381106109f8576109f7611581565b5b602091828204019190069054906101000a900460ff1660ff16145b15610a3a576001600560146101000a81548160ff0219169083151502179055505050610e22565b8160ff165f5f60038110610a5157610a50611581565b5b018260ff1660038110610a6757610a66611581565b5b602091828204019190069054906101000a900460ff1660ff16148015610ad157508160ff165f600160038110610aa057610a9f611581565b5b018260ff1660038110610ab657610ab5611581565b5b602091828204019190069054906101000a900460ff1660ff16145b8015610b2157508160ff165f600260038110610af057610aef611581565b5b018260ff1660038110610b0657610b05611581565b5b602091828204019190069054906101000a900460ff1660ff16145b15610b48576001600560146101000a81548160ff0219169083151502179055505050610e22565b8080600101915050610920565b508060ff165f5f60038110610b6d57610b6c611581565b5b015f60038110610b8057610b7f611581565b5b602091828204019190069054906101000a900460ff1660ff16148015610be857508060ff165f600160038110610bb957610bb8611581565b5b01600160038110610bcd57610bcc611581565b5b602091828204019190069054906101000a900460ff1660ff16145b8015610c3657508060ff165f600260038110610c0757610c06611581565b5b01600260038110610c1b57610c1a611581565b5b602091828204019190069054906101000a900460ff1660ff16145b15610c5c576001600560146101000a81548160ff02191690831515021790555050610e22565b8060ff165f5f60038110610c7357610c72611581565b5b01600260038110610c8757610c86611581565b5b602091828204019190069054906101000a900460ff1660ff16148015610cef57508060ff165f600160038110610cc057610cbf611581565b5b01600160038110610cd457610cd3611581565b5b602091828204019190069054906101000a900460ff1660ff16145b8015610d3c57508060ff165f600260038110610d0e57610d0d611581565b5b015f60038110610d2157610d20611581565b5b602091828204019190069054906101000a900460ff1660ff16145b15610d62576001600560146101000a81548160ff02191690831515021790555050610e22565b5f5f90505f5f90505b6003811015610df7575f5f90505b60038160ff161015610de9575f5f8360038110610d9957610d98611581565b5b018260ff1660038110610daf57610dae611581565b5b602091828204019190069054906101000a900460ff1660ff1614610ddc578280610dd890611643565b9350505b8080600101915050610d79565b508080600101915050610d6b565b5060098160ff1603610e1f576001600560146101000a81548160ff0219169083151502179055505b50505b565b60035f9054906101000a900473ffffffffffffffffffffffffffffffffffffffff1673ffffffffffffffffffffffffffffffffffffffff1660055f9054906101000a900473ffffffffffffffffffffffffffffffffffffffff1673ffffffffffffffffffffffffffffffffffffffff1603610eff5760045f9054906101000a900473ffffffffffffffffffffffffffffffffffffffff1660055f6101000a81548173ffffffffffffffffffffffffffffffffffffffff021916908373ffffffffffffffffffffffffffffffffffffffff160217905550610f61565b60035f9054906101000a900473ffffffffffffffffffffffffffffffffffffffff1660055f6101000a81548173ffffffffffffffffffffffffffffffffffffffff021916908373ffffffffffffffffffffffffffffffffffffffff1602179055505b565b60405180606001604052806003905b610f7a610f90565b815260200190600190039081610f725790505090565b6040518060600160405280600390602082028036833780820191505090505090565b5f73ffffffffffffffffffffffffffffffffffffffff82169050919050565b5f610fdb82610fb2565b9050919050565b610feb81610fd1565b82525050565b5f6020820190506110045f830184610fe2565b92915050565b5f8115159050919050565b61101e8161100a565b82525050565b5f6020820190506110375f830184611015565b92915050565b5f60039050919050565b5f81905092915050565b5f819050919050565b5f60039050919050565b5f81905092915050565b5f819050919050565b5f60ff82169050919050565b61108c81611077565b82525050565b5f61109d8383611083565b60208301905092915050565b5f602082019050919050565b6110be8161105a565b6110c88184611064565b92506110d38261106e565b805f5b838110156111035781516110ea8782611092565b96506110f5836110a9565b9250506001810190506110d6565b505050505050565b5f61111683836110b5565b60608301905092915050565b5f602082019050919050565b6111378161103d565b6111418184611047565b925061114c82611051565b805f5b8381101561117c578151611163878261110b565b965061116e83611122565b92505060018101905061114f565b505050505050565b5f610120820190506111985f83018461112e565b92915050565b5f5ffd5b5f6111ac82610fb2565b9050919050565b6111bc816111a2565b81146111c6575f5ffd5b50565b5f813590506111d7816111b3565b92915050565b5f5f604083850312156111f3576111f261119e565b5b5f611200858286016111c9565b9250506020611211858286016111c9565b9150509250929050565b61122481611077565b811461122e575f5ffd5b50565b5f8135905061123f8161121b565b92915050565b5f5f6040838503121561125b5761125a61119e565b5b5f61126885828601611231565b925050602061127985828601611231565b9150509250929050565b5f819050919050565b61129581611283565b811461129f575f5ffd5b50565b5f813590506112b08161128c565b92915050565b5f5f604083850312156112cc576112cb61119e565b5b5f6112d9858286016112a2565b92505060206112ea858286016112a2565b9150509250929050565b6112fd81611077565b82525050565b5f6020820190506113165f8301846112f4565b92915050565b5f60408201905061132f5f830185610fe2565b61133c6020830184610fe2565b9392505050565b5f82825260208201905092915050565b7f47616d6520616c726561647920696e697469616c697a656400000000000000005f82015250565b5f611387601883611343565b915061139282611353565b602082019050919050565b5f6020820190508181035f8301526113b48161137b565b9050919050565b7f4f7468657220706c61796572206d75737420757365206120646966666572656e5f8201527f7420616464726573730000000000000000000000000000000000000000000000602082015250565b5f611415602983611343565b9150611420826113bb565b604082019050919050565b5f6020820190508181035f83015261144281611409565b9050919050565b7f5468652067616d65206973206f7665722e0000000000000000000000000000005f82015250565b5f61147d601183611343565b915061148882611449565b602082019050919050565b5f6020820190508181035f8301526114aa81611471565b9050919050565b7f49742773206e6f7420796f7572207475726e2e000000000000000000000000005f82015250565b5f6114e5601383611343565b91506114f0826114b1565b602082019050919050565b5f6020820190508181035f830152611512816114d9565b9050919050565b7f496e76616c696420726f77206f7220636f6c756d6e20706c6163656d656e74005f82015250565b5f61154d601f83611343565b915061155882611519565b602082019050919050565b5f6020820190508181035f83015261157a81611541565b9050919050565b7f4e487b71000000000000000000000000000000000000000000000000000000005f52603260045260245ffd5b7f43656c6c20697320616c72656164792074616b656e2e000000000000000000005f82015250565b5f6115e2601683611343565b91506115ed826115ae565b602082019050919050565b5f6020820190508181035f83015261160f816115d6565b9050919050565b7f4e487b71000000000000000000000000000000000000000000000000000000005f52601160045260245ffd5b5f61164d82611077565b915060ff82036116605761165f611616565b5b60018201905091905056fea2646970667358221220407e3262796c26ae7c25e7f6208f6c2e05b562f7085639e336e31ae512087be664736f6c634300081e0033",
					"opcodes": "PUSH1 0x80 PUSH1 0x40 MSTORE CALLVALUE DUP1 ISZERO PUSH1 0xE JUMPI PUSH0 PUSH0 REVERT JUMPDEST POP PUSH2 0x16A1 DUP1 PUSH2 0x1C PUSH0 CODECOPY PUSH0 RETURN INVALID PUSH1 0x80 PUSH1 0x40 MSTORE CALLVALUE DUP1 ISZERO PUSH2 0xF JUMPI PUSH0 PUSH0 REVERT JUMPDEST POP PUSH1 0x4 CALLDATASIZE LT PUSH2 0x86 JUMPI PUSH0 CALLDATALOAD PUSH1 0xE0 SHR DUP1 PUSH4 0x5E24B0F1 GT PUSH2 0x59 JUMPI DUP1 PUSH4 0x5E24B0F1 EQ PUSH2 0x100 JUMPI DUP1 PUSH4 0x8086A92A EQ PUSH2 0x11C JUMPI DUP1 PUSH4 0x8B5B9CCC EQ PUSH2 0x14C JUMPI DUP1 PUSH4 0xDFBF53AE EQ PUSH2 0x16B JUMPI PUSH2 0x86 JUMP JUMPDEST DUP1 PUSH4 0x4A93605 EQ PUSH2 0x8A JUMPI DUP1 PUSH4 0xE04A7D8 EQ PUSH2 0xA8 JUMPI DUP1 PUSH4 0x2420F7F0 EQ PUSH2 0xC6 JUMPI DUP1 PUSH4 0x485CC955 EQ PUSH2 0xE4 JUMPI JUMPDEST PUSH0 PUSH0 REVERT JUMPDEST PUSH2 0x92 PUSH2 0x189 JUMP JUMPDEST PUSH1 0x40 MLOAD PUSH2 0x9F SWAP2 SWAP1 PUSH2 0xFF1 JUMP JUMPDEST PUSH1 0x40 MLOAD DUP1 SWAP2 SUB SWAP1 RETURN JUMPDEST PUSH2 0xB0 PUSH2 0x1AE JUMP JUMPDEST PUSH1 0x40 MLOAD PUSH2 0xBD SWAP2 SWAP1 PUSH2 0x1024 JUMP JUMPDEST PUSH1 0x40 MLOAD DUP1 SWAP2 SUB SWAP1 RETURN JUMPDEST PUSH2 0xCE PUSH2 0x1C1 JUMP JUMPDEST PUSH1 0x40 MLOAD PUSH2 0xDB SWAP2 SWAP1 PUSH2 0x1184 JUMP JUMPDEST PUSH1 0x40 MLOAD DUP1 SWAP2 SUB SWAP1 RETURN JUMPDEST PUSH2 0xFE PUSH1 0x4 DUP1 CALLDATASIZE SUB DUP2 ADD SWAP1 PUSH2 0xF9 SWAP2 SWAP1 PUSH2 0x11DD JUMP JUMPDEST PUSH2 0x263 JUMP JUMPDEST STOP JUMPDEST PUSH2 0x11A PUSH1 0x4 DUP1 CALLDATASIZE SUB DUP2 ADD SWAP1 PUSH2 0x115 SWAP2 SWAP1 PUSH2 0x1245 JUMP JUMPDEST PUSH2 0x533 JUMP JUMPDEST STOP JUMPDEST PUSH2 0x136 PUSH1 0x4 DUP1 CALLDATASIZE SUB DUP2 ADD SWAP1 PUSH2 0x131 SWAP2 SWAP1 PUSH2 0x12B6 JUMP JUMPDEST PUSH2 0x80C JUMP JUMPDEST PUSH1 0x40 MLOAD PUSH2 0x143 SWAP2 SWAP1 PUSH2 0x1303 JUMP JUMPDEST PUSH1 0x40 MLOAD DUP1 SWAP2 SUB SWAP1 RETURN JUMPDEST PUSH2 0x154 PUSH2 0x845 JUMP JUMPDEST PUSH1 0x40 MLOAD PUSH2 0x162 SWAP3 SWAP2 SWAP1 PUSH2 0x131C JUMP JUMPDEST PUSH1 0x40 MLOAD DUP1 SWAP2 SUB SWAP1 RETURN JUMPDEST PUSH2 0x173 PUSH2 0x893 JUMP JUMPDEST PUSH1 0x40 MLOAD PUSH2 0x180 SWAP2 SWAP1 PUSH2 0xFF1 JUMP JUMPDEST PUSH1 0x40 MLOAD DUP1 SWAP2 SUB SWAP1 RETURN JUMPDEST PUSH1 0x5 PUSH0 SWAP1 SLOAD SWAP1 PUSH2 0x100 EXP SWAP1 DIV PUSH20 0xFFFFFFFFFFFFFFFFFFFFFFFFFFFFFFFFFFFFFFFF AND DUP2 JUMP JUMPDEST PUSH1 0x5 PUSH1 0x14 SWAP1 SLOAD SWAP1 PUSH2 0x100 EXP SWAP1 DIV PUSH1 0xFF AND DUP2 JUMP JUMPDEST PUSH2 0x1C9 PUSH2 0xF63 JUMP JUMPDEST PUSH0 PUSH1 0x3 DUP1 PUSH1 0x20 MUL PUSH1 0x40 MLOAD SWAP1 DUP2 ADD PUSH1 0x40 MSTORE DUP1 SWAP3 SWAP2 SWAP1 PUSH0 SWAP1 JUMPDEST DUP3 DUP3 LT ISZERO PUSH2 0x25A JUMPI DUP4 DUP3 ADD PUSH1 0x3 DUP1 PUSH1 0x20 MUL PUSH1 0x40 MLOAD SWAP1 DUP2 ADD PUSH1 0x40 MSTORE DUP1 SWAP3 SWAP2 SWAP1 DUP3 PUSH1 0x3 DUP1 ISZERO PUSH2 0x246 JUMPI PUSH1 0x20 MUL DUP3 ADD SWAP2 PUSH0 SWAP1 JUMPDEST DUP3 DUP3 SWAP1 SLOAD SWAP1 PUSH2 0x100 EXP SWAP1 DIV PUSH1 0xFF AND PUSH1 0xFF AND DUP2 MSTORE PUSH1 0x20 ADD SWAP1 PUSH1 0x1 ADD SWAP1 PUSH1 0x20 DUP3 PUSH0 ADD DIV SWAP3 DUP4 ADD SWAP3 PUSH1 0x1 SUB DUP3 MUL SWAP2 POP DUP1 DUP5 GT PUSH2 0x210 JUMPI SWAP1 POP JUMPDEST POP POP POP POP POP DUP2 MSTORE PUSH1 0x20 ADD SWAP1 PUSH1 0x1 ADD SWAP1 PUSH2 0x1E0 JUMP JUMPDEST POP POP POP POP SWAP1 POP SWAP1 JUMP JUMPDEST PUSH0 PUSH20 0xFFFFFFFFFFFFFFFFFFFFFFFFFFFFFFFFFFFFFFFF AND PUSH1 0x3 PUSH0 SWAP1 SLOAD SWAP1 PUSH2 0x100 EXP SWAP1 DIV PUSH20 0xFFFFFFFFFFFFFFFFFFFFFFFFFFFFFFFFFFFFFFFF AND PUSH20 0xFFFFFFFFFFFFFFFFFFFFFFFFFFFFFFFFFFFFFFFF AND EQ PUSH2 0x2F2 JUMPI PUSH1 0x40 MLOAD PUSH32 0x8C379A000000000000000000000000000000000000000000000000000000000 DUP2 MSTORE PUSH1 0x4 ADD PUSH2 0x2E9 SWAP1 PUSH2 0x139D JUMP JUMPDEST PUSH1 0x40 MLOAD DUP1 SWAP2 SUB SWAP1 REVERT JUMPDEST DUP2 PUSH1 0x3 PUSH0 PUSH2 0x100 EXP DUP2 SLOAD DUP2 PUSH20 0xFFFFFFFFFFFFFFFFFFFFFFFFFFFFFFFFFFFFFFFF MUL NOT AND SWAP1 DUP4 PUSH20 0xFFFFFFFFFFFFFFFFFFFFFFFFFFFFFFFFFFFFFFFF AND MUL OR SWAP1 SSTORE POP PUSH1 0x3 PUSH0 SWAP1 SLOAD SWAP1 PUSH2 0x100 EXP SWAP1 DIV PUSH20 0xFFFFFFFFFFFFFFFFFFFFFFFFFFFFFFFFFFFFFFFF AND PUSH20 0xFFFFFFFFFFFFFFFFFFFFFFFFFFFFFFFFFFFFFFFF AND DUP2 PUSH20 0xFFFFFFFFFFFFFFFFFFFFFFFFFFFFFFFFFFFFFFFF AND SUB PUSH2 0x3C1 JUMPI PUSH1 0x40 MLOAD PUSH32 0x8C379A000000000000000000000000000000000000000000000000000000000 DUP2 MSTORE PUSH1 0x4 ADD PUSH2 0x3B8 SWAP1 PUSH2 0x142B JUMP JUMPDEST PUSH1 0x40 MLOAD DUP1 SWAP2 SUB SWAP1 REVERT JUMPDEST DUP1 PUSH1 0x4 PUSH0 PUSH2 0x100 EXP DUP2 SLOAD DUP2 PUSH20 0xFFFFFFFFFFFFFFFFFFFFFFFFFFFFFFFFFFFFFFFF MUL NOT AND SWAP1 DUP4 PUSH20 0xFFFFFFFFFFFFFFFFFFFFFFFFFFFFFFFFFFFFFFFF AND MUL OR SWAP1 SSTORE POP PUSH1 0x3 PUSH0 SWAP1 SLOAD SWAP1 PUSH2 0x100 EXP SWAP1 DIV PUSH20 0xFFFFFFFFFFFFFFFFFFFFFFFFFFFFFFFFFFFFFFFF AND PUSH1 0x5 PUSH0 PUSH2 0x100 EXP DUP2 SLOAD DUP2 PUSH20 0xFFFFFFFFFFFFFFFFFFFFFFFFFFFFFFFFFFFFFFFF MUL NOT AND SWAP1 DUP4 PUSH20 0xFFFFFFFFFFFFFFFFFFFFFFFFFFFFFFFFFFFFFFFF AND MUL OR SWAP1 SSTORE POP PUSH0 PUSH1 0x5 PUSH1 0x14 PUSH2 0x100 EXP DUP2 SLOAD DUP2 PUSH1 0xFF MUL NOT AND SWAP1 DUP4 ISZERO ISZERO MUL OR SWAP1 SSTORE POP PUSH1 0x4 PUSH0 SWAP1 SLOAD SWAP1 PUSH2 0x100 EXP SWAP1 DIV PUSH20 0xFFFFFFFFFFFFFFFFFFFFFFFFFFFFFFFFFFFFFFFF AND PUSH20 0xFFFFFFFFFFFFFFFFFFFFFFFFFFFFFFFFFFFFFFFF AND PUSH1 0x3 PUSH0 SWAP1 SLOAD SWAP1 PUSH2 0x100 EXP SWAP1 DIV PUSH20 0xFFFFFFFFFFFFFFFFFFFFFFFFFFFFFFFFFFFFFFFF AND PUSH20 0xFFFFFFFFFFFFFFFFFFFFFFFFFFFFFFFFFFFFFFFF AND ADDRESS PUSH20 0xFFFFFFFFFFFFFFFFFFFFFFFFFFFFFFFFFFFFFFFF AND PUSH32 0xE733EB5C42C855D38269254700780D064A49EF1611D1F3BFDDA632EC19891F56 PUSH1 0x40 MLOAD PUSH1 0x40 MLOAD DUP1 SWAP2 SUB SWAP1 LOG4 POP POP JUMP JUMPDEST PUSH1 0x5 PUSH1 0x14 SWAP1 SLOAD SWAP1 PUSH2 0x100 EXP SWAP1 DIV PUSH1 0xFF AND ISZERO PUSH2 0x583 JUMPI PUSH1 0x40 MLOAD PUSH32 0x8C379A000000000000000000000000000000000000000000000000000000000 DUP2 MSTORE PUSH1 0x4 ADD PUSH2 0x57A SWAP1 PUSH2 0x1493 JUMP JUMPDEST PUSH1 0x40 MLOAD DUP1 SWAP2 SUB SWAP1 REVERT JUMPDEST PUSH1 0x5 PUSH0 SWAP1 SLOAD SWAP1 PUSH2 0x100 EXP SWAP1 DIV PUSH20 0xFFFFFFFFFFFFFFFFFFFFFFFFFFFFFFFFFFFFFFFF AND PUSH20 0xFFFFFFFFFFFFFFFFFFFFFFFFFFFFFFFFFFFFFFFF AND CALLER PUSH20 0xFFFFFFFFFFFFFFFFFFFFFFFFFFFFFFFFFFFFFFFF AND EQ PUSH2 0x612 JUMPI PUSH1 0x40 MLOAD PUSH32 0x8C379A000000000000000000000000000000000000000000000000000000000 DUP2 MSTORE PUSH1 0x4 ADD PUSH2 0x609 SWAP1 PUSH2 0x14FB JUMP JUMPDEST PUSH1 0x40 MLOAD DUP1 SWAP2 SUB SWAP1 REVERT JUMPDEST PUSH1 0x3 DUP3 PUSH1 0xFF AND LT DUP1 ISZERO PUSH2 0x628 JUMPI POP PUSH1 0x3 DUP2 PUSH1 0xFF AND LT JUMPDEST PUSH2 0x667 JUMPI PUSH1 0x40 MLOAD PUSH32 0x8C379A000000000000000000000000000000000000000000000000000000000 DUP2 MSTORE PUSH1 0x4 ADD PUSH2 0x65E SWAP1 PUSH2 0x1563 JUMP JUMPDEST PUSH1 0x40 MLOAD DUP1 SWAP2 SUB SWAP1 REVERT JUMPDEST PUSH0 PUSH0 DUP4 PUSH1 0xFF AND PUSH1 0x3 DUP2 LT PUSH2 0x67E JUMPI PUSH2 0x67D PUSH2 0x1581 JUMP JUMPDEST JUMPDEST ADD DUP3 PUSH1 0xFF AND PUSH1 0x3 DUP2 LT PUSH2 0x694 JUMPI PUSH2 0x693 PUSH2 0x1581 JUMP JUMPDEST JUMPDEST PUSH1 0x20 SWAP2 DUP3 DUP3 DIV ADD SWAP2 SWAP1 MOD SWAP1 SLOAD SWAP1 PUSH2 0x100 EXP SWAP1 DIV PUSH1 0xFF AND PUSH1 0xFF AND EQ PUSH2 0x6ED JUMPI PUSH1 0x40 MLOAD PUSH32 0x8C379A000000000000000000000000000000000000000000000000000000000 DUP2 MSTORE PUSH1 0x4 ADD PUSH2 0x6E4 SWAP1 PUSH2 0x15F8 JUMP JUMPDEST PUSH1 0x40 MLOAD DUP1 SWAP2 SUB SWAP1 REVERT JUMPDEST PUSH1 0x3 PUSH0 SWAP1 SLOAD SWAP1 PUSH2 0x100 EXP SWAP1 DIV PUSH20 0xFFFFFFFFFFFFFFFFFFFFFFFFFFFFFFFFFFFFFFFF AND PUSH20 0xFFFFFFFFFFFFFFFFFFFFFFFFFFFFFFFFFFFFFFFF AND CALLER PUSH20 0xFFFFFFFFFFFFFFFFFFFFFFFFFFFFFFFFFFFFFFFF AND SUB PUSH2 0x794 JUMPI PUSH1 0x1 PUSH0 DUP4 PUSH1 0xFF AND PUSH1 0x3 DUP2 LT PUSH2 0x759 JUMPI PUSH2 0x758 PUSH2 0x1581 JUMP JUMPDEST JUMPDEST ADD DUP3 PUSH1 0xFF AND PUSH1 0x3 DUP2 LT PUSH2 0x76F JUMPI PUSH2 0x76E PUSH2 0x1581 JUMP JUMPDEST JUMPDEST PUSH1 0x20 SWAP2 DUP3 DUP3 DIV ADD SWAP2 SWAP1 MOD PUSH2 0x100 EXP DUP2 SLOAD DUP2 PUSH1 0xFF MUL NOT AND SWAP1 DUP4 PUSH1 0xFF AND MUL OR SWAP1 SSTORE POP PUSH2 0x7E3 JUMP JUMPDEST PUSH1 0x2 PUSH0 DUP4 PUSH1 0xFF AND PUSH1 0x3 DUP2 LT PUSH2 0x7AC JUMPI PUSH2 0x7AB PUSH2 0x1581 JUMP JUMPDEST JUMPDEST ADD DUP3 PUSH1 0xFF AND PUSH1 0x3 DUP2 LT PUSH2 0x7C2 JUMPI PUSH2 0x7C1 PUSH2 0x1581 JUMP JUMPDEST JUMPDEST PUSH1 0x20 SWAP2 DUP3 DUP3 DIV ADD SWAP2 SWAP1 MOD PUSH2 0x100 EXP DUP2 SLOAD DUP2 PUSH1 0xFF MUL NOT AND SWAP1 DUP4 PUSH1 0xFF AND MUL OR SWAP1 SSTORE POP JUMPDEST PUSH2 0x7EB PUSH2 0x8B8 JUMP JUMPDEST PUSH1 0x5 PUSH1 0x14 SWAP1 SLOAD SWAP1 PUSH2 0x100 EXP SWAP1 DIV PUSH1 0xFF AND PUSH2 0x808 JUMPI PUSH2 0x807 PUSH2 0xE24 JUMP JUMPDEST JUMPDEST POP POP JUMP JUMPDEST PUSH0 DUP3 PUSH1 0x3 DUP2 LT PUSH2 0x81A JUMPI PUSH0 DUP1 REVERT JUMPDEST ADD DUP2 PUSH1 0x3 DUP2 LT PUSH2 0x828 JUMPI PUSH0 DUP1 REVERT JUMPDEST PUSH1 0x20 SWAP2 DUP3 DUP3 DIV ADD SWAP2 SWAP1 MOD SWAP2 POP SWAP2 POP SWAP1 SLOAD SWAP1 PUSH2 0x100 EXP SWAP1 DIV PUSH1 0xFF AND DUP2 JUMP JUMPDEST PUSH0 PUSH0 PUSH1 0x3 PUSH0 SWAP1 SLOAD SWAP1 PUSH2 0x100 EXP SWAP1 DIV PUSH20 0xFFFFFFFFFFFFFFFFFFFFFFFFFFFFFFFFFFFFFFFF AND PUSH1 0x4 PUSH0 SWAP1 SLOAD SWAP1 PUSH2 0x100 EXP SWAP1 DIV PUSH20 0xFFFFFFFFFFFFFFFFFFFFFFFFFFFFFFFFFFFFFFFF AND SWAP2 POP SWAP2 POP SWAP1 SWAP2 JUMP JUMPDEST PUSH1 0x6 PUSH0 SWAP1 SLOAD SWAP1 PUSH2 0x100 EXP SWAP1 DIV PUSH20 0xFFFFFFFFFFFFFFFFFFFFFFFFFFFFFFFFFFFFFFFF AND DUP2 JUMP JUMPDEST PUSH0 PUSH1 0x3 PUSH0 SWAP1 SLOAD SWAP1 PUSH2 0x100 EXP SWAP1 DIV PUSH20 0xFFFFFFFFFFFFFFFFFFFFFFFFFFFFFFFFFFFFFFFF AND PUSH20 0xFFFFFFFFFFFFFFFFFFFFFFFFFFFFFFFFFFFFFFFF AND CALLER PUSH20 0xFFFFFFFFFFFFFFFFFFFFFFFFFFFFFFFFFFFFFFFF AND SUB PUSH2 0x916 JUMPI PUSH1 0x1 SWAP1 POP PUSH2 0x91B JUMP JUMPDEST PUSH1 0x2 SWAP1 POP JUMPDEST PUSH0 PUSH0 SWAP1 POP JUMPDEST PUSH1 0x3 DUP2 PUSH1 0xFF AND LT ISZERO PUSH2 0xB55 JUMPI DUP2 PUSH1 0xFF AND PUSH0 DUP3 PUSH1 0xFF AND PUSH1 0x3 DUP2 LT PUSH2 0x946 JUMPI PUSH2 0x945 PUSH2 0x1581 JUMP JUMPDEST JUMPDEST ADD PUSH0 PUSH1 0x3 DUP2 LT PUSH2 0x959 JUMPI PUSH2 0x958 PUSH2 0x1581 JUMP JUMPDEST JUMPDEST PUSH1 0x20 SWAP2 DUP3 DUP3 DIV ADD SWAP2 SWAP1 MOD SWAP1 SLOAD SWAP1 PUSH2 0x100 EXP SWAP1 DIV PUSH1 0xFF AND PUSH1 0xFF AND EQ DUP1 ISZERO PUSH2 0x9C3 JUMPI POP DUP2 PUSH1 0xFF AND PUSH0 DUP3 PUSH1 0xFF AND PUSH1 0x3 DUP2 LT PUSH2 0x994 JUMPI PUSH2 0x993 PUSH2 0x1581 JUMP JUMPDEST JUMPDEST ADD PUSH1 0x1 PUSH1 0x3 DUP2 LT PUSH2 0x9A8 JUMPI PUSH2 0x9A7 PUSH2 0x1581 JUMP JUMPDEST JUMPDEST PUSH1 0x20 SWAP2 DUP3 DUP3 DIV ADD SWAP2 SWAP1 MOD SWAP1 SLOAD SWAP1 PUSH2 0x100 EXP SWAP1 DIV PUSH1 0xFF AND PUSH1 0xFF AND EQ JUMPDEST DUP1 ISZERO PUSH2 0xA13 JUMPI POP DUP2 PUSH1 0xFF AND PUSH0 DUP3 PUSH1 0xFF AND PUSH1 0x3 DUP2 LT PUSH2 0x9E4 JUMPI PUSH2 0x9E3 PUSH2 0x1581 JUMP JUMPDEST JUMPDEST ADD PUSH1 0x2 PUSH1 0x3 DUP2 LT PUSH2 0x9F8 JUMPI PUSH2 0x9F7 PUSH2 0x1581 JUMP JUMPDEST JUMPDEST PUSH1 0x20 SWAP2 DUP3 DUP3 DIV ADD SWAP2 SWAP1 MOD SWAP1 SLOAD SWAP1 PUSH2 0x100 EXP SWAP1 DIV PUSH1 0xFF AND PUSH1 0xFF AND EQ JUMPDEST ISZERO PUSH2 0xA3A JUMPI PUSH1 0x1 PUSH1 0x5 PUSH1 0x14 PUSH2 0x100 EXP DUP2 SLOAD DUP2 PUSH1 0xFF MUL NOT AND SWAP1 DUP4 ISZERO ISZERO MUL OR SWAP1 SSTORE POP POP POP PUSH2 0xE22 JUMP JUMPDEST DUP2 PUSH1 0xFF AND PUSH0 PUSH0 PUSH1 0x3 DUP2 LT PUSH2 0xA51 JUMPI PUSH2 0xA50 PUSH2 0x1581 JUMP JUMPDEST JUMPDEST ADD DUP3 PUSH1 0xFF AND PUSH1 0x3 DUP2 LT PUSH2 0xA67 JUMPI PUSH2 0xA66 PUSH2 0x1581 JUMP JUMPDEST JUMPDEST PUSH1 0x20 SWAP2 DUP3 DUP3 DIV ADD SWAP2 SWAP1 MOD SWAP1 SLOAD SWAP1 PUSH2 0x100 EXP SWAP1 DIV PUSH1 0xFF AND PUSH1 0xFF AND EQ DUP1 ISZERO PUSH2 0xAD1 JUMPI POP DUP2 PUSH1 0xFF AND PUSH0 PUSH1 0x1 PUSH1 0x3 DUP2 LT PUSH2 0xAA0 JUMPI PUSH2 0xA9F PUSH2 0x1581 JUMP JUMPDEST JUMPDEST ADD DUP3 PUSH1 0xFF AND PUSH1 0x3 DUP2 LT PUSH2 0xAB6 JUMPI PUSH2 0xAB5 PUSH2 0x1581 JUMP JUMPDEST JUMPDEST PUSH1 0x20 SWAP2 DUP3 DUP3 DIV ADD SWAP2 SWAP1 MOD SWAP1 SLOAD SWAP1 PUSH2 0x100 EXP SWAP1 DIV PUSH1 0xFF AND PUSH1 0xFF AND EQ JUMPDEST DUP1 ISZERO PUSH2 0xB21 JUMPI POP DUP2 PUSH1 0xFF AND PUSH0 PUSH1 0x2 PUSH1 0x3 DUP2 LT PUSH2 0xAF0 JUMPI PUSH2 0xAEF PUSH2 0x1581 JUMP JUMPDEST JUMPDEST ADD DUP3 PUSH1 0xFF AND PUSH1 0x3 DUP2 LT PUSH2 0xB06 JUMPI PUSH2 0xB05 PUSH2 0x1581 JUMP JUMPDEST JUMPDEST PUSH1 0x20 SWAP2 DUP3 DUP3 DIV ADD SWAP2 SWAP1 MOD SWAP1 SLOAD SWAP1 PUSH2 0x100 EXP SWAP1 DIV PUSH1 0xFF AND PUSH1 0xFF AND EQ JUMPDEST ISZERO PUSH2 0xB48 JUMPI PUSH1 0x1 PUSH1 0x5 PUSH1 0x14 PUSH2 0x100 EXP DUP2 SLOAD DUP2 PUSH1 0xFF MUL NOT AND SWAP1 DUP4 ISZERO ISZERO MUL OR SWAP1 SSTORE POP POP POP PUSH2 0xE22 JUMP JUMPDEST DUP1 DUP1 PUSH1 0x1 ADD SWAP2 POP POP PUSH2 0x920 JUMP JUMPDEST POP DUP1 PUSH1 0xFF AND PUSH0 PUSH0 PUSH1 0x3 DUP2 LT PUSH2 0xB6D JUMPI PUSH2 0xB6C PUSH2 0x1581 JUMP JUMPDEST JUMPDEST ADD PUSH0 PUSH1 0x3 DUP2 LT PUSH2 0xB80 JUMPI PUSH2 0xB7F PUSH2 0x1581 JUMP JUMPDEST JUMPDEST PUSH1 0x20 SWAP2 DUP3 DUP3 DIV ADD SWAP2 SWAP1 MOD SWAP1 SLOAD SWAP1 PUSH2 0x100 EXP SWAP1 DIV PUSH1 0xFF AND PUSH1 0xFF AND EQ DUP1 ISZERO PUSH2 0xBE8 JUMPI POP DUP1 PUSH1 0xFF AND PUSH0 PUSH1 0x1 PUSH1 0x3 DUP2 LT PUSH2 0xBB9 JUMPI PUSH2 0xBB8 PUSH2 0x1581 JUMP JUMPDEST JUMPDEST ADD PUSH1 0x1 PUSH1 0x3 DUP2 LT PUSH2 0xBCD JUMPI PUSH2 0xBCC PUSH2 0x1581 JUMP JUMPDEST JUMPDEST PUSH1 0x20 SWAP2 DUP3 DUP3 DIV ADD SWAP2 SWAP1 MOD SWAP1 SLOAD SWAP1 PUSH2 0x100 EXP SWAP1 DIV PUSH1 0xFF AND PUSH1 0xFF AND EQ JUMPDEST DUP1 ISZERO PUSH2 0xC36 JUMPI POP DUP1 PUSH1 0xFF AND PUSH0 PUSH1 0x2 PUSH1 0x3 DUP2 LT PUSH2 0xC07 JUMPI PUSH2 0xC06 PUSH2 0x1581 JUMP JUMPDEST JUMPDEST ADD PUSH1 0x2 PUSH1 0x3 DUP2 LT PUSH2 0xC1B JUMPI PUSH2 0xC1A PUSH2 0x1581 JUMP JUMPDEST JUMPDEST PUSH1 0x20 SWAP2 DUP3 DUP3 DIV ADD SWAP2 SWAP1 MOD SWAP1 SLOAD SWAP1 PUSH2 0x100 EXP SWAP1 DIV PUSH1 0xFF AND PUSH1 0xFF AND EQ JUMPDEST ISZERO PUSH2 0xC5C JUMPI PUSH1 0x1 PUSH1 0x5 PUSH1 0x14 PUSH2 0x100 EXP DUP2 SLOAD DUP2 PUSH1 0xFF MUL NOT AND SWAP1 DUP4 ISZERO ISZERO MUL OR SWAP1 SSTORE POP POP PUSH2 0xE22 JUMP JUMPDEST DUP1 PUSH1 0xFF AND PUSH0 PUSH0 PUSH1 0x3 DUP2 LT PUSH2 0xC73 JUMPI PUSH2 0xC72 PUSH2 0x1581 JUMP JUMPDEST JUMPDEST ADD PUSH1 0x2 PUSH1 0x3 DUP2 LT PUSH2 0xC87 JUMPI PUSH2 0xC86 PUSH2 0x1581 JUMP JUMPDEST JUMPDEST PUSH1 0x20 SWAP2 DUP3 DUP3 DIV ADD SWAP2 SWAP1 MOD SWAP1 SLOAD SWAP1 PUSH2 0x100 EXP SWAP1 DIV PUSH1 0xFF AND PUSH1 0xFF AND EQ DUP1 ISZERO PUSH2 0xCEF JUMPI POP DUP1 PUSH1 0xFF AND PUSH0 PUSH1 0x1 PUSH1 0x3 DUP2 LT PUSH2 0xCC0 JUMPI PUSH2 0xCBF PUSH2 0x1581 JUMP JUMPDEST JUMPDEST ADD PUSH1 0x1 PUSH1 0x3 DUP2 LT PUSH2 0xCD4 JUMPI PUSH2 0xCD3 PUSH2 0x1581 JUMP JUMPDEST JUMPDEST PUSH1 0x20 SWAP2 DUP3 DUP3 DIV ADD SWAP2 SWAP1 MOD SWAP1 SLOAD SWAP1 PUSH2 0x100 EXP SWAP1 DIV PUSH1 0xFF AND PUSH1 0xFF AND EQ JUMPDEST DUP1 ISZERO PUSH2 0xD3C JUMPI POP DUP1 PUSH1 0xFF AND PUSH0 PUSH1 0x2 PUSH1 0x3 DUP2 LT PUSH2 0xD0E JUMPI PUSH2 0xD0D PUSH2 0x1581 JUMP JUMPDEST JUMPDEST ADD PUSH0 PUSH1 0x3 DUP2 LT PUSH2 0xD21 JUMPI PUSH2 0xD20 PUSH2 0x1581 JUMP JUMPDEST JUMPDEST PUSH1 0x20 SWAP2 DUP3 DUP3 DIV ADD SWAP2 SWAP1 MOD SWAP1 SLOAD SWAP1 PUSH2 0x100 EXP SWAP1 DIV PUSH1 0xFF AND PUSH1 0xFF AND EQ JUMPDEST ISZERO PUSH2 0xD62 JUMPI PUSH1 0x1 PUSH1 0x5 PUSH1 0x14 PUSH2 0x100 EXP DUP2 SLOAD DUP2 PUSH1 0xFF MUL NOT AND SWAP1 DUP4 ISZERO ISZERO MUL OR SWAP1 SSTORE POP POP PUSH2 0xE22 JUMP JUMPDEST PUSH0 PUSH0 SWAP1 POP PUSH0 PUSH0 SWAP1 POP JUMPDEST PUSH1 0x3 DUP2 LT ISZERO PUSH2 0xDF7 JUMPI PUSH0 PUSH0 SWAP1 POP JUMPDEST PUSH1 0x3 DUP2 PUSH1 0xFF AND LT ISZERO PUSH2 0xDE9 JUMPI PUSH0 PUSH0 DUP4 PUSH1 0x3 DUP2 LT PUSH2 0xD99 JUMPI PUSH2 0xD98 PUSH2 0x1581 JUMP JUMPDEST JUMPDEST ADD DUP3 PUSH1 0xFF AND PUSH1 0x3 DUP2 LT PUSH2 0xDAF JUMPI PUSH2 0xDAE PUSH2 0x1581 JUMP JUMPDEST JUMPDEST PUSH1 0x20 SWAP2 DUP3 DUP3 DIV ADD SWAP2 SWAP1 MOD SWAP1 SLOAD SWAP1 PUSH2 0x100 EXP SWAP1 DIV PUSH1 0xFF AND PUSH1 0xFF AND EQ PUSH2 0xDDC JUMPI DUP3 DUP1 PUSH2 0xDD8 SWAP1 PUSH2 0x1643 JUMP JUMPDEST SWAP4 POP POP JUMPDEST DUP1 DUP1 PUSH1 0x1 ADD SWAP2 POP POP PUSH2 0xD79 JUMP JUMPDEST POP DUP1 DUP1 PUSH1 0x1 ADD SWAP2 POP POP PUSH2 0xD6B JUMP JUMPDEST POP PUSH1 0x9 DUP2 PUSH1 0xFF AND SUB PUSH2 0xE1F JUMPI PUSH1 0x1 PUSH1 0x5 PUSH1 0x14 PUSH2 0x100 EXP DUP2 SLOAD DUP2 PUSH1 0xFF MUL NOT AND SWAP1 DUP4 ISZERO ISZERO MUL OR SWAP1 SSTORE POP JUMPDEST POP POP JUMPDEST JUMP JUMPDEST PUSH1 0x3 PUSH0 SWAP1 SLOAD SWAP1 PUSH2 0x100 EXP SWAP1 DIV PUSH20 0xFFFFFFFFFFFFFFFFFFFFFFFFFFFFFFFFFFFFFFFF AND PUSH20 0xFFFFFFFFFFFFFFFFFFFFFFFFFFFFFFFFFFFFFFFF AND PUSH1 0x5 PUSH0 SWAP1 SLOAD SWAP1 PUSH2 0x100 EXP SWAP1 DIV PUSH20 0xFFFFFFFFFFFFFFFFFFFFFFFFFFFFFFFFFFFFFFFF AND PUSH20 0xFFFFFFFFFFFFFFFFFFFFFFFFFFFFFFFFFFFFFFFF AND SUB PUSH2 0xEFF JUMPI PUSH1 0x4 PUSH0 SWAP1 SLOAD SWAP1 PUSH2 0x100 EXP SWAP1 DIV PUSH20 0xFFFFFFFFFFFFFFFFFFFFFFFFFFFFFFFFFFFFFFFF AND PUSH1 0x5 PUSH0 PUSH2 0x100 EXP DUP2 SLOAD DUP2 PUSH20 0xFFFFFFFFFFFFFFFFFFFFFFFFFFFFFFFFFFFFFFFF MUL NOT AND SWAP1 DUP4 PUSH20 0xFFFFFFFFFFFFFFFFFFFFFFFFFFFFFFFFFFFFFFFF AND MUL OR SWAP1 SSTORE POP PUSH2 0xF61 JUMP JUMPDEST PUSH1 0x3 PUSH0 SWAP1 SLOAD SWAP1 PUSH2 0x100 EXP SWAP1 DIV PUSH20 0xFFFFFFFFFFFFFFFFFFFFFFFFFFFFFFFFFFFFFFFF AND PUSH1 0x5 PUSH0 PUSH2 0x100 EXP DUP2 SLOAD DUP2 PUSH20 0xFFFFFFFFFFFFFFFFFFFFFFFFFFFFFFFFFFFFFFFF MUL NOT AND SWAP1 DUP4 PUSH20 0xFFFFFFFFFFFFFFFFFFFFFFFFFFFFFFFFFFFFFFFF AND MUL OR SWAP1 SSTORE POP JUMPDEST JUMP JUMPDEST PUSH1 0x40 MLOAD DUP1 PUSH1 0x60 ADD PUSH1 0x40 MSTORE DUP1 PUSH1 0x3 SWAP1 JUMPDEST PUSH2 0xF7A PUSH2 0xF90 JUMP JUMPDEST DUP2 MSTORE PUSH1 0x20 ADD SWAP1 PUSH1 0x1 SWAP1 SUB SWAP1 DUP2 PUSH2 0xF72 JUMPI SWAP1 POP POP SWAP1 JUMP JUMPDEST PUSH1 0x40 MLOAD DUP1 PUSH1 0x60 ADD PUSH1 0x40 MSTORE DUP1 PUSH1 0x3 SWAP1 PUSH1 0x20 DUP3 MUL DUP1 CALLDATASIZE DUP4 CALLDATACOPY DUP1 DUP3 ADD SWAP2 POP POP SWAP1 POP POP SWAP1 JUMP JUMPDEST PUSH0 PUSH20 0xFFFFFFFFFFFFFFFFFFFFFFFFFFFFFFFFFFFFFFFF DUP3 AND SWAP1 POP SWAP2 SWAP1 POP JUMP JUMPDEST PUSH0 PUSH2 0xFDB DUP3 PUSH2 0xFB2 JUMP JUMPDEST SWAP1 POP SWAP2 SWAP1 POP JUMP JUMPDEST PUSH2 0xFEB DUP2 PUSH2 0xFD1 JUMP JUMPDEST DUP3 MSTORE POP POP JUMP JUMPDEST PUSH0 PUSH1 0x20 DUP3 ADD SWAP1 POP PUSH2 0x1004 PUSH0 DUP4 ADD DUP5 PUSH2 0xFE2 JUMP JUMPDEST SWAP3 SWAP2 POP POP JUMP JUMPDEST PUSH0 DUP2 ISZERO ISZERO SWAP1 POP SWAP2 SWAP1 POP JUMP JUMPDEST PUSH2 0x101E DUP2 PUSH2 0x100A JUMP JUMPDEST DUP3 MSTORE POP POP JUMP JUMPDEST PUSH0 PUSH1 0x20 DUP3 ADD SWAP1 POP PUSH2 0x1037 PUSH0 DUP4 ADD DUP5 PUSH2 0x1015 JUMP JUMPDEST SWAP3 SWAP2 POP POP JUMP JUMPDEST PUSH0 PUSH1 0x3 SWAP1 POP SWAP2 SWAP1 POP JUMP JUMPDEST PUSH0 DUP2 SWAP1 POP SWAP3 SWAP2 POP POP JUMP JUMPDEST PUSH0 DUP2 SWAP1 POP SWAP2 SWAP1 POP JUMP JUMPDEST PUSH0 PUSH1 0x3 SWAP1 POP SWAP2 SWAP1 POP JUMP JUMPDEST PUSH0 DUP2 SWAP1 POP SWAP3 SWAP2 POP POP JUMP JUMPDEST PUSH0 DUP2 SWAP1 POP SWAP2 SWAP1 POP JUMP JUMPDEST PUSH0 PUSH1 0xFF DUP3 AND SWAP1 POP SWAP2 SWAP1 POP JUMP JUMPDEST PUSH2 0x108C DUP2 PUSH2 0x1077 JUMP JUMPDEST DUP3 MSTORE POP POP JUMP JUMPDEST PUSH0 PUSH2 0x109D DUP4 DUP4 PUSH2 0x1083 JUMP JUMPDEST PUSH1 0x20 DUP4 ADD SWAP1 POP SWAP3 SWAP2 POP POP JUMP JUMPDEST PUSH0 PUSH1 0x20 DUP3 ADD SWAP1 POP SWAP2 SWAP1 POP JUMP JUMPDEST PUSH2 0x10BE DUP2 PUSH2 0x105A JUMP JUMPDEST PUSH2 0x10C8 DUP2 DUP5 PUSH2 0x1064 JUMP JUMPDEST SWAP3 POP PUSH2 0x10D3 DUP3 PUSH2 0x106E JUMP JUMPDEST DUP1 PUSH0 JUMPDEST DUP4 DUP2 LT ISZERO PUSH2 0x1103 JUMPI DUP2 MLOAD PUSH2 0x10EA DUP8 DUP3 PUSH2 0x1092 JUMP JUMPDEST SWAP7 POP PUSH2 0x10F5 DUP4 PUSH2 0x10A9 JUMP JUMPDEST SWAP3 POP POP PUSH1 0x1 DUP2 ADD SWAP1 POP PUSH2 0x10D6 JUMP JUMPDEST POP POP POP POP POP POP JUMP JUMPDEST PUSH0 PUSH2 0x1116 DUP4 DUP4 PUSH2 0x10B5 JUMP JUMPDEST PUSH1 0x60 DUP4 ADD SWAP1 POP SWAP3 SWAP2 POP POP JUMP JUMPDEST PUSH0 PUSH1 0x20 DUP3 ADD SWAP1 POP SWAP2 SWAP1 POP JUMP JUMPDEST PUSH2 0x1137 DUP2 PUSH2 0x103D JUMP JUMPDEST PUSH2 0x1141 DUP2 DUP5 PUSH2 0x1047 JUMP JUMPDEST SWAP3 POP PUSH2 0x114C DUP3 PUSH2 0x1051 JUMP JUMPDEST DUP1 PUSH0 JUMPDEST DUP4 DUP2 LT ISZERO PUSH2 0x117C JUMPI DUP2 MLOAD PUSH2 0x1163 DUP8 DUP3 PUSH2 0x110B JUMP JUMPDEST SWAP7 POP PUSH2 0x116E DUP4 PUSH2 0x1122 JUMP JUMPDEST SWAP3 POP POP PUSH1 0x1 DUP2 ADD SWAP1 POP PUSH2 0x114F JUMP JUMPDEST POP POP POP POP POP POP JUMP JUMPDEST PUSH0 PUSH2 0x120 DUP3 ADD SWAP1 POP PUSH2 0x1198 PUSH0 DUP4 ADD DUP5 PUSH2 0x112E JUMP JUMPDEST SWAP3 SWAP2 POP POP JUMP JUMPDEST PUSH0 PUSH0 REVERT JUMPDEST PUSH0 PUSH2 0x11AC DUP3 PUSH2 0xFB2 JUMP JUMPDEST SWAP1 POP SWAP2 SWAP1 POP JUMP JUMPDEST PUSH2 0x11BC DUP2 PUSH2 0x11A2 JUMP JUMPDEST DUP2 EQ PUSH2 0x11C6 JUMPI PUSH0 PUSH0 REVERT JUMPDEST POP JUMP JUMPDEST PUSH0 DUP2 CALLDATALOAD SWAP1 POP PUSH2 0x11D7 DUP2 PUSH2 0x11B3 JUMP JUMPDEST SWAP3 SWAP2 POP POP JUMP JUMPDEST PUSH0 PUSH0 PUSH1 0x40 DUP4 DUP6 SUB SLT ISZERO PUSH2 0x11F3 JUMPI PUSH2 0x11F2 PUSH2 0x119E JUMP JUMPDEST JUMPDEST PUSH0 PUSH2 0x1200 DUP6 DUP3 DUP7 ADD PUSH2 0x11C9 JUMP JUMPDEST SWAP3 POP POP PUSH1 0x20 PUSH2 0x1211 DUP6 DUP3 DUP7 ADD PUSH2 0x11C9 JUMP JUMPDEST SWAP2 POP POP SWAP3 POP SWAP3 SWAP1 POP JUMP JUMPDEST PUSH2 0x1224 DUP2 PUSH2 0x1077 JUMP JUMPDEST DUP2 EQ PUSH2 0x122E JUMPI PUSH0 PUSH0 REVERT JUMPDEST POP JUMP JUMPDEST PUSH0 DUP2 CALLDATALOAD SWAP1 POP PUSH2 0x123F DUP2 PUSH2 0x121B JUMP JUMPDEST SWAP3 SWAP2 POP POP JUMP JUMPDEST PUSH0 PUSH0 PUSH1 0x40 DUP4 DUP6 SUB SLT ISZERO PUSH2 0x125B JUMPI PUSH2 0x125A PUSH2 0x119E JUMP JUMPDEST JUMPDEST PUSH0 PUSH2 0x1268 DUP6 DUP3 DUP7 ADD PUSH2 0x1231 JUMP JUMPDEST SWAP3 POP POP PUSH1 0x20 PUSH2 0x1279 DUP6 DUP3 DUP7 ADD PUSH2 0x1231 JUMP JUMPDEST SWAP2 POP POP SWAP3 POP SWAP3 SWAP1 POP JUMP JUMPDEST PUSH0 DUP2 SWAP1 POP SWAP2 SWAP1 POP JUMP JUMPDEST PUSH2 0x1295 DUP2 PUSH2 0x1283 JUMP JUMPDEST DUP2 EQ PUSH2 0x129F JUMPI PUSH0 PUSH0 REVERT JUMPDEST POP JUMP JUMPDEST PUSH0 DUP2 CALLDATALOAD SWAP1 POP PUSH2 0x12B0 DUP2 PUSH2 0x128C JUMP JUMPDEST SWAP3 SWAP2 POP POP JUMP JUMPDEST PUSH0 PUSH0 PUSH1 0x40 DUP4 DUP6 SUB SLT ISZERO PUSH2 0x12CC JUMPI PUSH2 0x12CB PUSH2 0x119E JUMP JUMPDEST JUMPDEST PUSH0 PUSH2 0x12D9 DUP6 DUP3 DUP7 ADD PUSH2 0x12A2 JUMP JUMPDEST SWAP3 POP POP PUSH1 0x20 PUSH2 0x12EA DUP6 DUP3 DUP7 ADD PUSH2 0x12A2 JUMP JUMPDEST SWAP2 POP POP SWAP3 POP SWAP3 SWAP1 POP JUMP JUMPDEST PUSH2 0x12FD DUP2 PUSH2 0x1077 JUMP JUMPDEST DUP3 MSTORE POP POP JUMP JUMPDEST PUSH0 PUSH1 0x20 DUP3 ADD SWAP1 POP PUSH2 0x1316 PUSH0 DUP4 ADD DUP5 PUSH2 0x12F4 JUMP JUMPDEST SWAP3 SWAP2 POP POP JUMP JUMPDEST PUSH0 PUSH1 0x40 DUP3 ADD SWAP1 POP PUSH2 0x132F PUSH0 DUP4 ADD DUP6 PUSH2 0xFE2 JUMP JUMPDEST PUSH2 0x133C PUSH1 0x20 DUP4 ADD DUP5 PUSH2 0xFE2 JUMP JUMPDEST SWAP4 SWAP3 POP POP POP JUMP JUMPDEST PUSH0 DUP3 DUP3 MSTORE PUSH1 0x20 DUP3 ADD SWAP1 POP SWAP3 SWAP2 POP POP JUMP JUMPDEST PUSH32 0x47616D6520616C726561647920696E697469616C697A65640000000000000000 PUSH0 DUP3 ADD MSTORE POP JUMP JUMPDEST PUSH0 PUSH2 0x1387 PUSH1 0x18 DUP4 PUSH2 0x1343 JUMP JUMPDEST SWAP2 POP PUSH2 0x1392 DUP3 PUSH2 0x1353 JUMP JUMPDEST PUSH1 0x20 DUP3 ADD SWAP1 POP SWAP2 SWAP1 POP JUMP JUMPDEST PUSH0 PUSH1 0x20 DUP3 ADD SWAP1 POP DUP2 DUP2 SUB PUSH0 DUP4 ADD MSTORE PUSH2 0x13B4 DUP2 PUSH2 0x137B JUMP JUMPDEST SWAP1 POP SWAP2 SWAP1 POP JUMP JUMPDEST PUSH32 0x4F7468657220706C61796572206D75737420757365206120646966666572656E PUSH0 DUP3 ADD MSTORE PUSH32 0x7420616464726573730000000000000000000000000000000000000000000000 PUSH1 0x20 DUP3 ADD MSTORE POP JUMP JUMPDEST PUSH0 PUSH2 0x1415 PUSH1 0x29 DUP4 PUSH2 0x1343 JUMP JUMPDEST SWAP2 POP PUSH2 0x1420 DUP3 PUSH2 0x13BB JUMP JUMPDEST PUSH1 0x40 DUP3 ADD SWAP1 POP SWAP2 SWAP1 POP JUMP JUMPDEST PUSH0 PUSH1 0x20 DUP3 ADD SWAP1 POP DUP2 DUP2 SUB PUSH0 DUP4 ADD MSTORE PUSH2 0x1442 DUP2 PUSH2 0x1409 JUMP JUMPDEST SWAP1 POP SWAP2 SWAP1 POP JUMP JUMPDEST PUSH32 0x5468652067616D65206973206F7665722E000000000000000000000000000000 PUSH0 DUP3 ADD MSTORE POP JUMP JUMPDEST PUSH0 PUSH2 0x147D PUSH1 0x11 DUP4 PUSH2 0x1343 JUMP JUMPDEST SWAP2 POP PUSH2 0x1488 DUP3 PUSH2 0x1449 JUMP JUMPDEST PUSH1 0x20 DUP3 ADD SWAP1 POP SWAP2 SWAP1 POP JUMP JUMPDEST PUSH0 PUSH1 0x20 DUP3 ADD SWAP1 POP DUP2 DUP2 SUB PUSH0 DUP4 ADD MSTORE PUSH2 0x14AA DUP2 PUSH2 0x1471 JUMP JUMPDEST SWAP1 POP SWAP2 SWAP1 POP JUMP JUMPDEST PUSH32 0x49742773206E6F7420796F7572207475726E2E00000000000000000000000000 PUSH0 DUP3 ADD MSTORE POP JUMP JUMPDEST PUSH0 PUSH2 0x14E5 PUSH1 0x13 DUP4 PUSH2 0x1343 JUMP JUMPDEST SWAP2 POP PUSH2 0x14F0 DUP3 PUSH2 0x14B1 JUMP JUMPDEST PUSH1 0x20 DUP3 ADD SWAP1 POP SWAP2 SWAP1 POP JUMP JUMPDEST PUSH0 PUSH1 0x20 DUP3 ADD SWAP1 POP DUP2 DUP2 SUB PUSH0 DUP4 ADD MSTORE PUSH2 0x1512 DUP2 PUSH2 0x14D9 JUMP JUMPDEST SWAP1 POP SWAP2 SWAP1 POP JUMP JUMPDEST PUSH32 0x496E76616C696420726F77206F7220636F6C756D6E20706C6163656D656E7400 PUSH0 DUP3 ADD MSTORE POP JUMP JUMPDEST PUSH0 PUSH2 0x154D PUSH1 0x1F DUP4 PUSH2 0x1343 JUMP JUMPDEST SWAP2 POP PUSH2 0x1558 DUP3 PUSH2 0x1519 JUMP JUMPDEST PUSH1 0x20 DUP3 ADD SWAP1 POP SWAP2 SWAP1 POP JUMP JUMPDEST PUSH0 PUSH1 0x20 DUP3 ADD SWAP1 POP DUP2 DUP2 SUB PUSH0 DUP4 ADD MSTORE PUSH2 0x157A DUP2 PUSH2 0x1541 JUMP JUMPDEST SWAP1 POP SWAP2 SWAP1 POP JUMP JUMPDEST PUSH32 0x4E487B7100000000000000000000000000000000000000000000000000000000 PUSH0 MSTORE PUSH1 0x32 PUSH1 0x4 MSTORE PUSH1 0x24 PUSH0 REVERT JUMPDEST PUSH32 0x43656C6C20697320616C72656164792074616B656E2E00000000000000000000 PUSH0 DUP3 ADD MSTORE POP JUMP JUMPDEST PUSH0 PUSH2 0x15E2 PUSH1 0x16 DUP4 PUSH2 0x1343 JUMP JUMPDEST SWAP2 POP PUSH2 0x15ED DUP3 PUSH2 0x15AE JUMP JUMPDEST PUSH1 0x20 DUP3 ADD SWAP1 POP SWAP2 SWAP1 POP JUMP JUMPDEST PUSH0 PUSH1 0x20 DUP3 ADD SWAP1 POP DUP2 DUP2 SUB PUSH0 DUP4 ADD MSTORE PUSH2 0x160F DUP2 PUSH2 0x15D6 JUMP JUMPDEST SWAP1 POP SWAP2 SWAP1 POP JUMP JUMPDEST PUSH32 0x4E487B7100000000000000000000000000000000000000000000000000000000 PUSH0 MSTORE PUSH1 0x11 PUSH1 0x4 MSTORE PUSH1 0x24 PUSH0 REVERT JUMPDEST PUSH0 PUSH2 0x164D DUP3 PUSH2 0x1077 JUMP JUMPDEST SWAP2 POP PUSH1 0xFF DUP3 SUB PUSH2 0x1660 JUMPI PUSH2 0x165F PUSH2 0x1616 JUMP JUMPDEST JUMPDEST PUSH1 0x1 DUP3 ADD SWAP1 POP SWAP2 SWAP1 POP JUMP INVALID LOG2 PUSH5 0x6970667358 0x22 SLT KECCAK256 BLOCKHASH PUSH31 0x3262796C26AE7C25E7F6208F6C2E05B562F7085639E336E31AE512087BE664 PUSH20 0x6F6C634300081E00330000000000000000000000 "
				},
				"gasEstimates": {
					"creation": {
						"codeDepositCost": "1158600",
						"executionCost": "1205",
						"totalCost": "1159805"
					},
					"external": {
						"board(uint256,uint256)": "infinite",
						"getBoardState()": "infinite",
						"getPlayers()": "infinite",
						"initialize(address,address)": "infinite",
						"isGameOver()": "2540",
						"makeMove(uint8,uint8)": "infinite",
						"nextPlayer()": "2509",
						"winner()": "2574"
					},
					"internal": {
						"checkWin()": "infinite",
						"switchTurn()": "30726"
					}
				},
				"methodIdentifiers": {
					"board(uint256,uint256)": "8086a92a",
					"getBoardState()": "2420f7f0",
					"getPlayers()": "8b5b9ccc",
					"initialize(address,address)": "485cc955",
					"isGameOver()": "0e04a7d8",
					"makeMove(uint8,uint8)": "5e24b0f1",
					"nextPlayer()": "04a93605",
					"winner()": "dfbf53ae"
				}
			},
			"storageLayout": {
				"storage": [
					{
						"astId": 7,
						"contract": "contracts/TicTacToe.sol:TicTacToe",
						"label": "board",
						"offset": 0,
						"slot": "0",
						"type": "t_array(t_array(t_uint8)3_storage)3_storage"
					},
					{
						"astId": 9,
						"contract": "contracts/TicTacToe.sol:TicTacToe",
						"label": "playerX",
						"offset": 0,
						"slot": "3",
						"type": "t_address_payable"
					},
					{
						"astId": 11,
						"contract": "contracts/TicTacToe.sol:TicTacToe",
						"label": "playerO",
						"offset": 0,
						"slot": "4",
						"type": "t_address_payable"
					},
					{
						"astId": 13,
						"contract": "contracts/TicTacToe.sol:TicTacToe",
						"label": "nextPlayer",
						"offset": 0,
						"slot": "5",
						"type": "t_address"
					},
					{
						"astId": 15,
						"contract": "contracts/TicTacToe.sol:TicTacToe",
						"label": "isGameOver",
						"offset": 20,
						"slot": "5",
						"type": "t_bool"
					},
					{
						"astId": 17,
						"contract": "contracts/TicTacToe.sol:TicTacToe",
						"label": "winner",
						"offset": 0,
						"slot": "6",
						"type": "t_address"
					}
				],
				"types": {
					"t_address": {
						"encoding": "inplace",
						"label": "address",
						"numberOfBytes": "20"
					},
					"t_address_payable": {
						"encoding": "inplace",
						"label": "address payable",
						"numberOfBytes": "20"
					},
					"t_array(t_array(t_uint8)3_storage)3_storage": {
						"base": "t_array(t_uint8)3_storage",
						"encoding": "inplace",
						"label": "uint8[3][3]",
						"numberOfBytes": "96"
					},
					"t_array(t_uint8)3_storage": {
						"base": "t_uint8",
						"encoding": "inplace",
						"label": "uint8[3]",
						"numberOfBytes": "32"
					},
					"t_bool": {
						"encoding": "inplace",
						"label": "bool",
						"numberOfBytes": "1"
					},
					"t_uint8": {
						"encoding": "inplace",
						"label": "uint8",
						"numberOfBytes": "1"
					}
				}
			},
			"userdoc": {
				"kind": "user",
				"methods": {},
				"version": 1
			}
		}
	}
}