{
	"contracts/TicTacToe.sol": {
		"TicTacToe": {
			"abi": [
				{
					"anonymous": false,
					"inputs": [
						{
							"indexed": true,
							"internalType": "address",
							"name": "winner",
							"type": "address"
						}
					],
					"name": "GameEnded",
					"type": "event"
				},
				{
					"anonymous": false,
					"inputs": [
						{
							"indexed": true,
							"internalType": "address",
							"name": "gameAddress",
							"type": "address"
						},
						{
							"indexed": true,
							"internalType": "address",
							"name": "pX",
							"type": "address"
						},
						{
							"indexed": true,
							"internalType": "address",
							"name": "pO",
							"type": "address"
						}
					],
					"name": "GameStarted",
					"type": "event"
				},
				{
					"anonymous": false,
					"inputs": [
						{
							"indexed": true,
							"internalType": "address",
							"name": "player",
							"type": "address"
						},
						{
							"indexed": false,
							"internalType": "uint8",
							"name": "r",
							"type": "uint8"
						},
						{
							"indexed": false,
							"internalType": "uint8",
							"name": "c",
							"type": "uint8"
						},
						{
							"indexed": false,
							"internalType": "uint8",
							"name": "marker",
							"type": "uint8"
						}
					],
					"name": "MoveMade",
					"type": "event"
				},
				{
					"inputs": [
						{
							"internalType": "uint256",
							"name": "",
							"type": "uint256"
						},
						{
							"internalType": "uint256",
							"name": "",
							"type": "uint256"
						}
					],
					"name": "board",
					"outputs": [
						{
							"internalType": "uint8",
							"name": "",
							"type": "uint8"
						}
					],
					"stateMutability": "view",
					"type": "function"
				},
				{
					"inputs": [],
					"name": "getBoardState",
					"outputs": [
						{
							"internalType": "uint8[3][3]",
							"name": "",
							"type": "uint8[3][3]"
						}
					],
					"stateMutability": "view",
					"type": "function"
				},
				{
					"inputs": [],
					"name": "getPlayerO",
					"outputs": [
						{
							"internalType": "address",
							"name": "",
							"type": "address"
						}
					],
					"stateMutability": "view",
					"type": "function"
				},
				{
					"inputs": [],
					"name": "getPlayerX",
					"outputs": [
						{
							"internalType": "address",
							"name": "",
							"type": "address"
						}
					],
					"stateMutability": "view",
					"type": "function"
				},
				{
					"inputs": [],
					"name": "getPlayers",
					"outputs": [
						{
							"internalType": "address",
							"name": "",
							"type": "address"
						},
						{
							"internalType": "address",
							"name": "",
							"type": "address"
						}
					],
					"stateMutability": "view",
					"type": "function"
				},
				{
					"inputs": [
						{
							"internalType": "address payable",
							"name": "_playerX",
							"type": "address"
						},
						{
							"internalType": "address payable",
							"name": "_playerO",
							"type": "address"
						}
					],
					"name": "initialize",
					"outputs": [],
					"stateMutability": "nonpayable",
					"type": "function"
				},
				{
					"inputs": [],
					"name": "isGameOver",
					"outputs": [
						{
							"internalType": "bool",
							"name": "",
							"type": "bool"
						}
					],
					"stateMutability": "view",
					"type": "function"
				},
				{
					"inputs": [
						{
							"internalType": "uint8",
							"name": "row",
							"type": "uint8"
						},
						{
							"internalType": "uint8",
							"name": "col",
							"type": "uint8"
						}
					],
					"name": "makeMove",
					"outputs": [],
					"stateMutability": "nonpayable",
					"type": "function"
				},
				{
					"inputs": [],
					"name": "nextPlayer",
					"outputs": [
						{
							"internalType": "address",
							"name": "",
							"type": "address"
						}
					],
					"stateMutability": "view",
					"type": "function"
				},
				{
					"inputs": [],
					"name": "winner",
					"outputs": [
						{
							"internalType": "address",
							"name": "",
							"type": "address"
						}
					],
					"stateMutability": "view",
					"type": "function"
				}
			],
			"devdoc": {
				"kind": "dev",
				"methods": {},
				"version": 1
			},
			"evm": {
				"assembly": "    /* \"contracts/TicTacToe.sol\":732:7240  contract TicTacToe {... */\n  mstore(0x40, 0x80)\n  callvalue\n  dup1\n  iszero\n  tag_1\n  jumpi\n  revert(0x00, 0x00)\ntag_1:\n  pop\n  dataSize(sub_0)\n  dup1\n  dataOffset(sub_0)\n  0x00\n  codecopy\n  0x00\n  return\nstop\n\nsub_0: assembly {\n        /* \"contracts/TicTacToe.sol\":732:7240  contract TicTacToe {... */\n      mstore(0x40, 0x80)\n      callvalue\n      dup1\n      iszero\n      tag_1\n      jumpi\n      revert(0x00, 0x00)\n    tag_1:\n      pop\n      jumpi(tag_2, lt(calldatasize, 0x04))\n      shr(0xe0, calldataload(0x00))\n      dup1\n      0x8086a92a\n      gt\n      tag_13\n      jumpi\n      dup1\n      0x8086a92a\n      eq\n      tag_8\n      jumpi\n      dup1\n      0x8b5b9ccc\n      eq\n      tag_9\n      jumpi\n      dup1\n      0xc06af996\n      eq\n      tag_10\n      jumpi\n      dup1\n      0xd9a4264c\n      eq\n      tag_11\n      jumpi\n      dup1\n      0xdfbf53ae\n      eq\n      tag_12\n      jumpi\n      jump(tag_2)\n    tag_13:\n      dup1\n      0x04a93605\n      eq\n      tag_3\n      jumpi\n      dup1\n      0x0e04a7d8\n      eq\n      tag_4\n      jumpi\n      dup1\n      0x2420f7f0\n      eq\n      tag_5\n      jumpi\n      dup1\n      0x485cc955\n      eq\n      tag_6\n      jumpi\n      dup1\n      0x5e24b0f1\n      eq\n      tag_7\n      jumpi\n    tag_2:\n      revert(0x00, 0x00)\n        /* \"contracts/TicTacToe.sol\":1652:1677  address public nextPlayer */\n    tag_3:\n      tag_14\n      tag_15\n      jump\t// in\n    tag_14:\n      mload(0x40)\n      tag_16\n      swap2\n      swap1\n      tag_17\n      jump\t// in\n    tag_16:\n      mload(0x40)\n      dup1\n      swap2\n      sub\n      swap1\n      return\n        /* \"contracts/TicTacToe.sol\":1684:1706  bool public isGameOver */\n    tag_4:\n      tag_18\n      tag_19\n      jump\t// in\n    tag_18:\n      mload(0x40)\n      tag_20\n      swap2\n      swap1\n      tag_21\n      jump\t// in\n    tag_20:\n      mload(0x40)\n      dup1\n      swap2\n      sub\n      swap1\n      return\n        /* \"contracts/TicTacToe.sol\":4322:4419  function getBoardState() public view returns (uint8[3][3] memory) {... */\n    tag_5:\n      tag_22\n      tag_23\n      jump\t// in\n    tag_22:\n      mload(0x40)\n      tag_24\n      swap2\n      swap1\n      tag_25\n      jump\t// in\n    tag_24:\n      mload(0x40)\n      dup1\n      swap2\n      sub\n      swap1\n      return\n        /* \"contracts/TicTacToe.sol\":2127:2777  function initialize(address payable _playerX, address payable _playerO) public {... */\n    tag_6:\n      tag_26\n      0x04\n      dup1\n      calldatasize\n      sub\n      dup2\n      add\n      swap1\n      tag_27\n      swap2\n      swap1\n      tag_28\n      jump\t// in\n    tag_27:\n      tag_29\n      jump\t// in\n    tag_26:\n      stop\n        /* \"contracts/TicTacToe.sol\":4463:5352  function makeMove(uint8 row, uint8 col) public {... */\n    tag_7:\n      tag_30\n      0x04\n      dup1\n      calldatasize\n      sub\n      dup2\n      add\n      swap1\n      tag_31\n      swap2\n      swap1\n      tag_32\n      jump\t// in\n    tag_31:\n      tag_33\n      jump\t// in\n    tag_30:\n      stop\n        /* \"contracts/TicTacToe.sol\":1165:1189  uint8[3][3] public board */\n    tag_8:\n      tag_34\n      0x04\n      dup1\n      calldatasize\n      sub\n      dup2\n      add\n      swap1\n      tag_35\n      swap2\n      swap1\n      tag_36\n      jump\t// in\n    tag_35:\n      tag_37\n      jump\t// in\n    tag_34:\n      mload(0x40)\n      tag_38\n      swap2\n      swap1\n      tag_39\n      jump\t// in\n    tag_38:\n      mload(0x40)\n      dup1\n      swap2\n      sub\n      swap1\n      return\n        /* \"contracts/TicTacToe.sol\":3990:4095  function getPlayers() public view returns (address, address) {... */\n    tag_9:\n      tag_40\n      tag_41\n      jump\t// in\n    tag_40:\n      mload(0x40)\n      tag_42\n      swap3\n      swap2\n      swap1\n      tag_43\n      jump\t// in\n    tag_42:\n      mload(0x40)\n      dup1\n      swap2\n      sub\n      swap1\n      return\n        /* \"contracts/TicTacToe.sol\":4196:4281  function getPlayerO() public view returns (address) {... */\n    tag_10:\n      tag_44\n      tag_45\n      jump\t// in\n    tag_44:\n      mload(0x40)\n      tag_46\n      swap2\n      swap1\n      tag_17\n      jump\t// in\n    tag_46:\n      mload(0x40)\n      dup1\n      swap2\n      sub\n      swap1\n      return\n        /* \"contracts/TicTacToe.sol\":4103:4188  function getPlayerX() public view returns (address) {... */\n    tag_11:\n      tag_47\n      tag_48\n      jump\t// in\n    tag_47:\n      mload(0x40)\n      tag_49\n      swap2\n      swap1\n      tag_17\n      jump\t// in\n    tag_49:\n      mload(0x40)\n      dup1\n      swap2\n      sub\n      swap1\n      return\n        /* \"contracts/TicTacToe.sol\":1757:1778  address public winner */\n    tag_12:\n      tag_50\n      tag_51\n      jump\t// in\n    tag_50:\n      mload(0x40)\n      tag_52\n      swap2\n      swap1\n      tag_17\n      jump\t// in\n    tag_52:\n      mload(0x40)\n      dup1\n      swap2\n      sub\n      swap1\n      return\n        /* \"contracts/TicTacToe.sol\":1652:1677  address public nextPlayer */\n    tag_15:\n      0x05\n      0x00\n      swap1\n      sload\n      swap1\n      0x0100\n      exp\n      swap1\n      div\n      0xffffffffffffffffffffffffffffffffffffffff\n      and\n      dup2\n      jump\t// out\n        /* \"contracts/TicTacToe.sol\":1684:1706  bool public isGameOver */\n    tag_19:\n      0x05\n      0x14\n      swap1\n      sload\n      swap1\n      0x0100\n      exp\n      swap1\n      div\n      0xff\n      and\n      dup2\n      jump\t// out\n        /* \"contracts/TicTacToe.sol\":4322:4419  function getBoardState() public view returns (uint8[3][3] memory) {... */\n    tag_23:\n        /* \"contracts/TicTacToe.sol\":4368:4386  uint8[3][3] memory */\n      tag_53\n      tag_54\n      jump\t// in\n    tag_53:\n        /* \"contracts/TicTacToe.sol\":4406:4411  board */\n      0x00\n        /* \"contracts/TicTacToe.sol\":4399:4411  return board */\n      0x03\n      dup1\n      0x20\n      mul\n      mload(0x40)\n      swap1\n      dup2\n      add\n      0x40\n      mstore\n      dup1\n      swap3\n      swap2\n      swap1\n      0x00\n      swap1\n    tag_56:\n      dup3\n      dup3\n      lt\n      iszero\n      tag_57\n      jumpi\n      dup4\n      dup3\n      add\n      0x03\n      dup1\n      0x20\n      mul\n      mload(0x40)\n      swap1\n      dup2\n      add\n      0x40\n      mstore\n      dup1\n      swap3\n      swap2\n      swap1\n      dup3\n      0x03\n      dup1\n      iszero\n      tag_59\n      jumpi\n      0x20\n      mul\n      dup3\n      add\n      swap2\n      0x00\n      swap1\n    tag_60:\n      dup3\n      dup3\n      swap1\n      sload\n      swap1\n      0x0100\n      exp\n      swap1\n      div\n      0xff\n      and\n      0xff\n      and\n      dup2\n      mstore\n      0x20\n      add\n      swap1\n      0x01\n      add\n      swap1\n      0x20\n      dup3\n      0x00\n      add\n      div\n      swap3\n      dup4\n      add\n      swap3\n      0x01\n      sub\n      dup3\n      mul\n      swap2\n      pop\n      dup1\n      dup5\n      gt\n      tag_60\n      jumpi\n      swap1\n      pop\n    tag_59:\n      pop\n      pop\n      pop\n      pop\n      pop\n      dup2\n      mstore\n      0x20\n      add\n      swap1\n      0x01\n      add\n      swap1\n      jump(tag_56)\n    tag_57:\n      pop\n      pop\n      pop\n      pop\n      swap1\n      pop\n        /* \"contracts/TicTacToe.sol\":4322:4419  function getBoardState() public view returns (uint8[3][3] memory) {... */\n      swap1\n      jump\t// out\n        /* \"contracts/TicTacToe.sol\":2127:2777  function initialize(address payable _playerX, address payable _playerO) public {... */\n    tag_29:\n        /* \"contracts/TicTacToe.sol\":2470:2471  0 */\n      0x00\n        /* \"contracts/TicTacToe.sol\":2451:2472  playerX == address(0) */\n      0xffffffffffffffffffffffffffffffffffffffff\n      and\n        /* \"contracts/TicTacToe.sol\":2451:2458  playerX */\n      0x03\n      0x00\n      swap1\n      sload\n      swap1\n      0x0100\n      exp\n      swap1\n      div\n      0xffffffffffffffffffffffffffffffffffffffff\n      and\n        /* \"contracts/TicTacToe.sol\":2451:2472  playerX == address(0) */\n      0xffffffffffffffffffffffffffffffffffffffff\n      and\n      eq\n        /* \"contracts/TicTacToe.sol\":2443:2501  require(playerX == address(0), \"Game already initialized\") */\n      tag_62\n      jumpi\n      mload(0x40)\n      0x08c379a000000000000000000000000000000000000000000000000000000000\n      dup2\n      mstore\n      0x04\n      add\n      tag_63\n      swap1\n      tag_64\n      jump\t// in\n    tag_63:\n      mload(0x40)\n      dup1\n      swap2\n      sub\n      swap1\n      revert\n    tag_62:\n        /* \"contracts/TicTacToe.sol\":2522:2530  _playerX */\n      dup2\n        /* \"contracts/TicTacToe.sol\":2512:2519  playerX */\n      0x03\n      0x00\n        /* \"contracts/TicTacToe.sol\":2512:2530  playerX = _playerX */\n      0x0100\n      exp\n      dup2\n      sload\n      dup2\n      0xffffffffffffffffffffffffffffffffffffffff\n      mul\n      not\n      and\n      swap1\n      dup4\n      0xffffffffffffffffffffffffffffffffffffffff\n      and\n      mul\n      or\n      swap1\n      sstore\n      pop\n        /* \"contracts/TicTacToe.sol\":2563:2570  playerX */\n      0x03\n      0x00\n      swap1\n      sload\n      swap1\n      0x0100\n      exp\n      swap1\n      div\n      0xffffffffffffffffffffffffffffffffffffffff\n      and\n        /* \"contracts/TicTacToe.sol\":2551:2570  _playerO != playerX */\n      0xffffffffffffffffffffffffffffffffffffffff\n      and\n        /* \"contracts/TicTacToe.sol\":2551:2559  _playerO */\n      dup2\n        /* \"contracts/TicTacToe.sol\":2551:2570  _playerO != playerX */\n      0xffffffffffffffffffffffffffffffffffffffff\n      and\n      sub\n        /* \"contracts/TicTacToe.sol\":2543:2616  require(_playerO != playerX, \"Other player must use a different address\") */\n      tag_65\n      jumpi\n      mload(0x40)\n      0x08c379a000000000000000000000000000000000000000000000000000000000\n      dup2\n      mstore\n      0x04\n      add\n      tag_66\n      swap1\n      tag_67\n      jump\t// in\n    tag_66:\n      mload(0x40)\n      dup1\n      swap2\n      sub\n      swap1\n      revert\n    tag_65:\n        /* \"contracts/TicTacToe.sol\":2637:2645  _playerO */\n      dup1\n        /* \"contracts/TicTacToe.sol\":2627:2634  playerO */\n      0x04\n      0x00\n        /* \"contracts/TicTacToe.sol\":2627:2645  playerO = _playerO */\n      0x0100\n      exp\n      dup2\n      sload\n      dup2\n      0xffffffffffffffffffffffffffffffffffffffff\n      mul\n      not\n      and\n      swap1\n      dup4\n      0xffffffffffffffffffffffffffffffffffffffff\n      and\n      mul\n      or\n      swap1\n      sstore\n      pop\n        /* \"contracts/TicTacToe.sol\":2671:2678  playerX */\n      0x03\n      0x00\n      swap1\n      sload\n      swap1\n      0x0100\n      exp\n      swap1\n      div\n      0xffffffffffffffffffffffffffffffffffffffff\n      and\n        /* \"contracts/TicTacToe.sol\":2658:2668  nextPlayer */\n      0x05\n      0x00\n        /* \"contracts/TicTacToe.sol\":2658:2678  nextPlayer = playerX */\n      0x0100\n      exp\n      dup2\n      sload\n      dup2\n      0xffffffffffffffffffffffffffffffffffffffff\n      mul\n      not\n      and\n      swap1\n      dup4\n      0xffffffffffffffffffffffffffffffffffffffff\n      and\n      mul\n      or\n      swap1\n      sstore\n      pop\n        /* \"contracts/TicTacToe.sol\":2702:2707  false */\n      0x00\n        /* \"contracts/TicTacToe.sol\":2689:2699  isGameOver */\n      0x05\n      0x14\n        /* \"contracts/TicTacToe.sol\":2689:2707  isGameOver = false */\n      0x0100\n      exp\n      dup2\n      sload\n      dup2\n      0xff\n      mul\n      not\n      and\n      swap1\n      dup4\n      iszero\n      iszero\n      mul\n      or\n      swap1\n      sstore\n      pop\n        /* \"contracts/TicTacToe.sol\":2761:2768  playerO */\n      0x04\n      0x00\n      swap1\n      sload\n      swap1\n      0x0100\n      exp\n      swap1\n      div\n      0xffffffffffffffffffffffffffffffffffffffff\n      and\n        /* \"contracts/TicTacToe.sol\":2725:2769  GameStarted(address(this), playerX, playerO) */\n      0xffffffffffffffffffffffffffffffffffffffff\n      and\n        /* \"contracts/TicTacToe.sol\":2752:2759  playerX */\n      0x03\n      0x00\n      swap1\n      sload\n      swap1\n      0x0100\n      exp\n      swap1\n      div\n      0xffffffffffffffffffffffffffffffffffffffff\n      and\n        /* \"contracts/TicTacToe.sol\":2725:2769  GameStarted(address(this), playerX, playerO) */\n      0xffffffffffffffffffffffffffffffffffffffff\n      and\n        /* \"contracts/TicTacToe.sol\":2745:2749  this */\n      address\n        /* \"contracts/TicTacToe.sol\":2725:2769  GameStarted(address(this), playerX, playerO) */\n      0xffffffffffffffffffffffffffffffffffffffff\n      and\n      0xe733eb5c42c855d38269254700780d064a49ef1611d1f3bfdda632ec19891f56\n      mload(0x40)\n      mload(0x40)\n      dup1\n      swap2\n      sub\n      swap1\n      log4\n        /* \"contracts/TicTacToe.sol\":2127:2777  function initialize(address payable _playerX, address payable _playerO) public {... */\n      pop\n      pop\n      jump\t// out\n        /* \"contracts/TicTacToe.sol\":4463:5352  function makeMove(uint8 row, uint8 col) public {... */\n    tag_33:\n        /* \"contracts/TicTacToe.sol\":4614:4624  isGameOver */\n      0x05\n      0x14\n      swap1\n      sload\n      swap1\n      0x0100\n      exp\n      swap1\n      div\n      0xff\n      and\n        /* \"contracts/TicTacToe.sol\":4613:4624  !isGameOver */\n      iszero\n        /* \"contracts/TicTacToe.sol\":4605:4646  require(!isGameOver, \"The game is over.\") */\n      tag_69\n      jumpi\n      mload(0x40)\n      0x08c379a000000000000000000000000000000000000000000000000000000000\n      dup2\n      mstore\n      0x04\n      add\n      tag_70\n      swap1\n      tag_71\n      jump\t// in\n    tag_70:\n      mload(0x40)\n      dup1\n      swap2\n      sub\n      swap1\n      revert\n    tag_69:\n        /* \"contracts/TicTacToe.sol\":4738:4748  nextPlayer */\n      0x05\n      0x00\n      swap1\n      sload\n      swap1\n      0x0100\n      exp\n      swap1\n      div\n      0xffffffffffffffffffffffffffffffffffffffff\n      and\n        /* \"contracts/TicTacToe.sol\":4724:4748  msg.sender == nextPlayer */\n      0xffffffffffffffffffffffffffffffffffffffff\n      and\n        /* \"contracts/TicTacToe.sol\":4724:4734  msg.sender */\n      caller\n        /* \"contracts/TicTacToe.sol\":4724:4748  msg.sender == nextPlayer */\n      0xffffffffffffffffffffffffffffffffffffffff\n      and\n      eq\n        /* \"contracts/TicTacToe.sol\":4716:4772  require(msg.sender == nextPlayer, \"It's not your turn.\") */\n      tag_72\n      jumpi\n      mload(0x40)\n      0x08c379a000000000000000000000000000000000000000000000000000000000\n      dup2\n      mstore\n      0x04\n      add\n      tag_73\n      swap1\n      tag_74\n      jump\t// in\n    tag_73:\n      mload(0x40)\n      dup1\n      swap2\n      sub\n      swap1\n      revert\n    tag_72:\n        /* \"contracts/TicTacToe.sol\":4873:4874  3 */\n      0x03\n        /* \"contracts/TicTacToe.sol\":4867:4870  row */\n      dup3\n        /* \"contracts/TicTacToe.sol\":4867:4874  row < 3 */\n      0xff\n      and\n      lt\n        /* \"contracts/TicTacToe.sol\":4867:4885  row < 3 && col < 3 */\n      dup1\n      iszero\n      tag_75\n      jumpi\n      pop\n        /* \"contracts/TicTacToe.sol\":4884:4885  3 */\n      0x03\n        /* \"contracts/TicTacToe.sol\":4878:4881  col */\n      dup2\n        /* \"contracts/TicTacToe.sol\":4878:4885  col < 3 */\n      0xff\n      and\n      lt\n        /* \"contracts/TicTacToe.sol\":4867:4885  row < 3 && col < 3 */\n    tag_75:\n        /* \"contracts/TicTacToe.sol\":4859:4921  require(row < 3 && col < 3, \"Invalid row or column placement\") */\n      tag_76\n      jumpi\n      mload(0x40)\n      0x08c379a000000000000000000000000000000000000000000000000000000000\n      dup2\n      mstore\n      0x04\n      add\n      tag_77\n      swap1\n      tag_78\n      jump\t// in\n    tag_77:\n      mload(0x40)\n      dup1\n      swap2\n      sub\n      swap1\n      revert\n    tag_76:\n        /* \"contracts/TicTacToe.sol\":5007:5008  0 */\n      0x00\n        /* \"contracts/TicTacToe.sol\":4988:4993  board */\n      0x00\n        /* \"contracts/TicTacToe.sol\":4994:4997  row */\n      dup4\n        /* \"contracts/TicTacToe.sol\":4988:4998  board[row] */\n      0xff\n      and\n      0x03\n      dup2\n      lt\n      tag_79\n      jumpi\n      tag_80\n      tag_81\n      jump\t// in\n    tag_80:\n    tag_79:\n      add\n        /* \"contracts/TicTacToe.sol\":4999:5002  col */\n      dup3\n        /* \"contracts/TicTacToe.sol\":4988:5003  board[row][col] */\n      0xff\n      and\n      0x03\n      dup2\n      lt\n      tag_83\n      jumpi\n      tag_84\n      tag_81\n      jump\t// in\n    tag_84:\n    tag_83:\n      0x20\n      swap2\n      dup3\n      dup3\n      div\n      add\n      swap2\n      swap1\n      mod\n      swap1\n      sload\n      swap1\n      0x0100\n      exp\n      swap1\n      div\n      0xff\n      and\n        /* \"contracts/TicTacToe.sol\":4988:5008  board[row][col] == 0 */\n      0xff\n      and\n      eq\n        /* \"contracts/TicTacToe.sol\":4980:5035  require(board[row][col] == 0, \"Cell is already taken.\") */\n      tag_86\n      jumpi\n      mload(0x40)\n      0x08c379a000000000000000000000000000000000000000000000000000000000\n      dup2\n      mstore\n      0x04\n      add\n      tag_87\n      swap1\n      tag_88\n      jump\t// in\n    tag_87:\n      mload(0x40)\n      dup1\n      swap2\n      sub\n      swap1\n      revert\n    tag_86:\n        /* \"contracts/TicTacToe.sol\":5142:5149  playerX */\n      0x03\n      0x00\n      swap1\n      sload\n      swap1\n      0x0100\n      exp\n      swap1\n      div\n      0xffffffffffffffffffffffffffffffffffffffff\n      and\n        /* \"contracts/TicTacToe.sol\":5128:5149  msg.sender == playerX */\n      0xffffffffffffffffffffffffffffffffffffffff\n      and\n        /* \"contracts/TicTacToe.sol\":5128:5138  msg.sender */\n      caller\n        /* \"contracts/TicTacToe.sol\":5128:5149  msg.sender == playerX */\n      0xffffffffffffffffffffffffffffffffffffffff\n      and\n      sub\n        /* \"contracts/TicTacToe.sol\":5124:5249  if (msg.sender == playerX) {... */\n      tag_89\n      jumpi\n        /* \"contracts/TicTacToe.sol\":5184:5185  1 */\n      0x01\n        /* \"contracts/TicTacToe.sol\":5166:5171  board */\n      0x00\n        /* \"contracts/TicTacToe.sol\":5172:5175  row */\n      dup4\n        /* \"contracts/TicTacToe.sol\":5166:5176  board[row] */\n      0xff\n      and\n      0x03\n      dup2\n      lt\n      tag_90\n      jumpi\n      tag_91\n      tag_81\n      jump\t// in\n    tag_91:\n    tag_90:\n      add\n        /* \"contracts/TicTacToe.sol\":5177:5180  col */\n      dup3\n        /* \"contracts/TicTacToe.sol\":5166:5181  board[row][col] */\n      0xff\n      and\n      0x03\n      dup2\n      lt\n      tag_93\n      jumpi\n      tag_94\n      tag_81\n      jump\t// in\n    tag_94:\n    tag_93:\n      0x20\n      swap2\n      dup3\n      dup3\n      div\n      add\n      swap2\n      swap1\n      mod\n        /* \"contracts/TicTacToe.sol\":5166:5185  board[row][col] = 1 */\n      0x0100\n      exp\n      dup2\n      sload\n      dup2\n      0xff\n      mul\n      not\n      and\n      swap1\n      dup4\n      0xff\n      and\n      mul\n      or\n      swap1\n      sstore\n      pop\n        /* \"contracts/TicTacToe.sol\":5124:5249  if (msg.sender == playerX) {... */\n      jump(tag_96)\n    tag_89:\n        /* \"contracts/TicTacToe.sol\":5236:5237  2 */\n      0x02\n        /* \"contracts/TicTacToe.sol\":5218:5223  board */\n      0x00\n        /* \"contracts/TicTacToe.sol\":5224:5227  row */\n      dup4\n        /* \"contracts/TicTacToe.sol\":5218:5228  board[row] */\n      0xff\n      and\n      0x03\n      dup2\n      lt\n      tag_97\n      jumpi\n      tag_98\n      tag_81\n      jump\t// in\n    tag_98:\n    tag_97:\n      add\n        /* \"contracts/TicTacToe.sol\":5229:5232  col */\n      dup3\n        /* \"contracts/TicTacToe.sol\":5218:5233  board[row][col] */\n      0xff\n      and\n      0x03\n      dup2\n      lt\n      tag_100\n      jumpi\n      tag_101\n      tag_81\n      jump\t// in\n    tag_101:\n    tag_100:\n      0x20\n      swap2\n      dup3\n      dup3\n      div\n      add\n      swap2\n      swap1\n      mod\n        /* \"contracts/TicTacToe.sol\":5218:5237  board[row][col] = 2 */\n      0x0100\n      exp\n      dup2\n      sload\n      dup2\n      0xff\n      mul\n      not\n      and\n      swap1\n      dup4\n      0xff\n      and\n      mul\n      or\n      swap1\n      sstore\n      pop\n        /* \"contracts/TicTacToe.sol\":5124:5249  if (msg.sender == playerX) {... */\n    tag_96:\n        /* \"contracts/TicTacToe.sol\":5294:5304  checkWin() */\n      tag_103\n        /* \"contracts/TicTacToe.sol\":5294:5302  checkWin */\n      tag_104\n        /* \"contracts/TicTacToe.sol\":5294:5304  checkWin() */\n      jump\t// in\n    tag_103:\n        /* \"contracts/TicTacToe.sol\":5320:5330  isGameOver */\n      0x05\n      0x14\n      swap1\n      sload\n      swap1\n      0x0100\n      exp\n      swap1\n      div\n      0xff\n      and\n        /* \"contracts/TicTacToe.sol\":5315:5344  if (!isGameOver) switchTurn() */\n      tag_105\n      jumpi\n        /* \"contracts/TicTacToe.sol\":5332:5344  switchTurn() */\n      tag_106\n        /* \"contracts/TicTacToe.sol\":5332:5342  switchTurn */\n      tag_107\n        /* \"contracts/TicTacToe.sol\":5332:5344  switchTurn() */\n      jump\t// in\n    tag_106:\n        /* \"contracts/TicTacToe.sol\":5315:5344  if (!isGameOver) switchTurn() */\n    tag_105:\n        /* \"contracts/TicTacToe.sol\":4463:5352  function makeMove(uint8 row, uint8 col) public {... */\n      pop\n      pop\n      jump\t// out\n        /* \"contracts/TicTacToe.sol\":1165:1189  uint8[3][3] public board */\n    tag_37:\n      0x00\n      dup3\n      0x03\n      dup2\n      lt\n      tag_108\n      jumpi\n      0x00\n      dup1\n      revert\n    tag_108:\n      add\n      dup2\n      0x03\n      dup2\n      lt\n      tag_110\n      jumpi\n      0x00\n      dup1\n      revert\n    tag_110:\n      0x20\n      swap2\n      dup3\n      dup3\n      div\n      add\n      swap2\n      swap1\n      mod\n      swap2\n      pop\n      swap2\n      pop\n      swap1\n      sload\n      swap1\n      0x0100\n      exp\n      swap1\n      div\n      0xff\n      and\n      dup2\n      jump\t// out\n        /* \"contracts/TicTacToe.sol\":3990:4095  function getPlayers() public view returns (address, address) {... */\n    tag_41:\n        /* \"contracts/TicTacToe.sol\":4033:4040  address */\n      0x00\n        /* \"contracts/TicTacToe.sol\":4042:4049  address */\n      0x00\n        /* \"contracts/TicTacToe.sol\":4070:4077  playerX */\n      0x03\n      0x00\n      swap1\n      sload\n      swap1\n      0x0100\n      exp\n      swap1\n      div\n      0xffffffffffffffffffffffffffffffffffffffff\n      and\n        /* \"contracts/TicTacToe.sol\":4079:4086  playerO */\n      0x04\n      0x00\n      swap1\n      sload\n      swap1\n      0x0100\n      exp\n      swap1\n      div\n      0xffffffffffffffffffffffffffffffffffffffff\n      and\n        /* \"contracts/TicTacToe.sol\":4062:4087  return (playerX, playerO) */\n      swap2\n      pop\n      swap2\n      pop\n        /* \"contracts/TicTacToe.sol\":3990:4095  function getPlayers() public view returns (address, address) {... */\n      swap1\n      swap2\n      jump\t// out\n        /* \"contracts/TicTacToe.sol\":4196:4281  function getPlayerO() public view returns (address) {... */\n    tag_45:\n        /* \"contracts/TicTacToe.sol\":4239:4246  address */\n      0x00\n        /* \"contracts/TicTacToe.sol\":4266:4273  playerO */\n      0x04\n      0x00\n      swap1\n      sload\n      swap1\n      0x0100\n      exp\n      swap1\n      div\n      0xffffffffffffffffffffffffffffffffffffffff\n      and\n        /* \"contracts/TicTacToe.sol\":4259:4273  return playerO */\n      swap1\n      pop\n        /* \"contracts/TicTacToe.sol\":4196:4281  function getPlayerO() public view returns (address) {... */\n      swap1\n      jump\t// out\n        /* \"contracts/TicTacToe.sol\":4103:4188  function getPlayerX() public view returns (address) {... */\n    tag_48:\n        /* \"contracts/TicTacToe.sol\":4146:4153  address */\n      0x00\n        /* \"contracts/TicTacToe.sol\":4173:4180  playerX */\n      0x03\n      0x00\n      swap1\n      sload\n      swap1\n      0x0100\n      exp\n      swap1\n      div\n      0xffffffffffffffffffffffffffffffffffffffff\n      and\n        /* \"contracts/TicTacToe.sol\":4166:4180  return playerX */\n      swap1\n      pop\n        /* \"contracts/TicTacToe.sol\":4103:4188  function getPlayerX() public view returns (address) {... */\n      swap1\n      jump\t// out\n        /* \"contracts/TicTacToe.sol\":1757:1778  address public winner */\n    tag_51:\n      0x06\n      0x00\n      swap1\n      sload\n      swap1\n      0x0100\n      exp\n      swap1\n      div\n      0xffffffffffffffffffffffffffffffffffffffff\n      and\n      dup2\n      jump\t// out\n        /* \"contracts/TicTacToe.sol\":5831:7237  function checkWin() private {... */\n    tag_104:\n        /* \"contracts/TicTacToe.sol\":5933:5945  uint8 marker */\n      0x00\n        /* \"contracts/TicTacToe.sol\":5974:5981  playerX */\n      0x03\n      0x00\n      swap1\n      sload\n      swap1\n      0x0100\n      exp\n      swap1\n      div\n      0xffffffffffffffffffffffffffffffffffffffff\n      and\n        /* \"contracts/TicTacToe.sol\":5960:5981  msg.sender == playerX */\n      0xffffffffffffffffffffffffffffffffffffffff\n      and\n        /* \"contracts/TicTacToe.sol\":5960:5970  msg.sender */\n      caller\n        /* \"contracts/TicTacToe.sol\":5960:5981  msg.sender == playerX */\n      0xffffffffffffffffffffffffffffffffffffffff\n      and\n      sub\n        /* \"contracts/TicTacToe.sol\":5956:6063  if (msg.sender == playerX) {... */\n      tag_116\n      jumpi\n        /* \"contracts/TicTacToe.sol\":6007:6008  1 */\n      0x01\n        /* \"contracts/TicTacToe.sol\":5998:6008  marker = 1 */\n      swap1\n      pop\n        /* \"contracts/TicTacToe.sol\":5956:6063  if (msg.sender == playerX) {... */\n      jump(tag_117)\n    tag_116:\n        /* \"contracts/TicTacToe.sol\":6050:6051  2 */\n      0x02\n        /* \"contracts/TicTacToe.sol\":6041:6051  marker = 2 */\n      swap1\n      pop\n        /* \"contracts/TicTacToe.sol\":5956:6063  if (msg.sender == playerX) {... */\n    tag_117:\n        /* \"contracts/TicTacToe.sol\":6147:6154  uint8 i */\n      0x00\n        /* \"contracts/TicTacToe.sol\":6157:6158  0 */\n      0x00\n        /* \"contracts/TicTacToe.sol\":6147:6158  uint8 i = 0 */\n      swap1\n      pop\n        /* \"contracts/TicTacToe.sol\":6142:6488  for (uint8 i = 0; i < 3; i++) {... */\n    tag_118:\n        /* \"contracts/TicTacToe.sol\":6164:6165  3 */\n      0x03\n        /* \"contracts/TicTacToe.sol\":6160:6161  i */\n      dup2\n        /* \"contracts/TicTacToe.sol\":6160:6165  i < 3 */\n      0xff\n      and\n      lt\n        /* \"contracts/TicTacToe.sol\":6142:6488  for (uint8 i = 0; i < 3; i++) {... */\n      iszero\n      tag_119\n      jumpi\n        /* \"contracts/TicTacToe.sol\":6206:6212  marker */\n      dup2\n        /* \"contracts/TicTacToe.sol\":6191:6212  board[i][0] == marker */\n      0xff\n      and\n        /* \"contracts/TicTacToe.sol\":6191:6196  board */\n      0x00\n        /* \"contracts/TicTacToe.sol\":6197:6198  i */\n      dup3\n        /* \"contracts/TicTacToe.sol\":6191:6199  board[i] */\n      0xff\n      and\n      0x03\n      dup2\n      lt\n      tag_121\n      jumpi\n      tag_122\n      tag_81\n      jump\t// in\n    tag_122:\n    tag_121:\n      add\n        /* \"contracts/TicTacToe.sol\":6200:6201  0 */\n      0x00\n        /* \"contracts/TicTacToe.sol\":6191:6202  board[i][0] */\n      0x03\n      dup2\n      lt\n      tag_124\n      jumpi\n      tag_125\n      tag_81\n      jump\t// in\n    tag_125:\n    tag_124:\n      0x20\n      swap2\n      dup3\n      dup3\n      div\n      add\n      swap2\n      swap1\n      mod\n      swap1\n      sload\n      swap1\n      0x0100\n      exp\n      swap1\n      div\n      0xff\n      and\n        /* \"contracts/TicTacToe.sol\":6191:6212  board[i][0] == marker */\n      0xff\n      and\n      eq\n        /* \"contracts/TicTacToe.sol\":6191:6237  board[i][0] == marker && board[i][1] == marker */\n      dup1\n      iszero\n      tag_127\n      jumpi\n      pop\n        /* \"contracts/TicTacToe.sol\":6231:6237  marker */\n      dup2\n        /* \"contracts/TicTacToe.sol\":6216:6237  board[i][1] == marker */\n      0xff\n      and\n        /* \"contracts/TicTacToe.sol\":6216:6221  board */\n      0x00\n        /* \"contracts/TicTacToe.sol\":6222:6223  i */\n      dup3\n        /* \"contracts/TicTacToe.sol\":6216:6224  board[i] */\n      0xff\n      and\n      0x03\n      dup2\n      lt\n      tag_128\n      jumpi\n      tag_129\n      tag_81\n      jump\t// in\n    tag_129:\n    tag_128:\n      add\n        /* \"contracts/TicTacToe.sol\":6225:6226  1 */\n      0x01\n        /* \"contracts/TicTacToe.sol\":6216:6227  board[i][1] */\n      0x03\n      dup2\n      lt\n      tag_131\n      jumpi\n      tag_132\n      tag_81\n      jump\t// in\n    tag_132:\n    tag_131:\n      0x20\n      swap2\n      dup3\n      dup3\n      div\n      add\n      swap2\n      swap1\n      mod\n      swap1\n      sload\n      swap1\n      0x0100\n      exp\n      swap1\n      div\n      0xff\n      and\n        /* \"contracts/TicTacToe.sol\":6216:6237  board[i][1] == marker */\n      0xff\n      and\n      eq\n        /* \"contracts/TicTacToe.sol\":6191:6237  board[i][0] == marker && board[i][1] == marker */\n    tag_127:\n        /* \"contracts/TicTacToe.sol\":6191:6262  board[i][0] == marker && board[i][1] == marker && board[i][2] == marker */\n      dup1\n      iszero\n      tag_134\n      jumpi\n      pop\n        /* \"contracts/TicTacToe.sol\":6256:6262  marker */\n      dup2\n        /* \"contracts/TicTacToe.sol\":6241:6262  board[i][2] == marker */\n      0xff\n      and\n        /* \"contracts/TicTacToe.sol\":6241:6246  board */\n      0x00\n        /* \"contracts/TicTacToe.sol\":6247:6248  i */\n      dup3\n        /* \"contracts/TicTacToe.sol\":6241:6249  board[i] */\n      0xff\n      and\n      0x03\n      dup2\n      lt\n      tag_135\n      jumpi\n      tag_136\n      tag_81\n      jump\t// in\n    tag_136:\n    tag_135:\n      add\n        /* \"contracts/TicTacToe.sol\":6250:6251  2 */\n      0x02\n        /* \"contracts/TicTacToe.sol\":6241:6252  board[i][2] */\n      0x03\n      dup2\n      lt\n      tag_138\n      jumpi\n      tag_139\n      tag_81\n      jump\t// in\n    tag_139:\n    tag_138:\n      0x20\n      swap2\n      dup3\n      dup3\n      div\n      add\n      swap2\n      swap1\n      mod\n      swap1\n      sload\n      swap1\n      0x0100\n      exp\n      swap1\n      div\n      0xff\n      and\n        /* \"contracts/TicTacToe.sol\":6241:6262  board[i][2] == marker */\n      0xff\n      and\n      eq\n        /* \"contracts/TicTacToe.sol\":6191:6262  board[i][0] == marker && board[i][1] == marker && board[i][2] == marker */\n    tag_134:\n        /* \"contracts/TicTacToe.sol\":6187:6325  if (board[i][0] == marker && board[i][1] == marker && board[i][2] == marker) {... */\n      iszero\n      tag_141\n      jumpi\n        /* \"contracts/TicTacToe.sol\":6290:6309  endGameWithWinner() */\n      tag_142\n        /* \"contracts/TicTacToe.sol\":6290:6307  endGameWithWinner */\n      tag_143\n        /* \"contracts/TicTacToe.sol\":6290:6309  endGameWithWinner() */\n      jump\t// in\n    tag_142:\n        /* \"contracts/TicTacToe.sol\":6283:6309  return endGameWithWinner() */\n      pop\n      pop\n      jump(tag_115)\n        /* \"contracts/TicTacToe.sol\":6187:6325  if (board[i][0] == marker && board[i][1] == marker && board[i][2] == marker) {... */\n    tag_141:\n        /* \"contracts/TicTacToe.sol\":6358:6364  marker */\n      dup2\n        /* \"contracts/TicTacToe.sol\":6343:6364  board[0][i] == marker */\n      0xff\n      and\n        /* \"contracts/TicTacToe.sol\":6343:6348  board */\n      0x00\n        /* \"contracts/TicTacToe.sol\":6349:6350  0 */\n      0x00\n        /* \"contracts/TicTacToe.sol\":6343:6351  board[0] */\n      0x03\n      dup2\n      lt\n      tag_144\n      jumpi\n      tag_145\n      tag_81\n      jump\t// in\n    tag_145:\n    tag_144:\n      add\n        /* \"contracts/TicTacToe.sol\":6352:6353  i */\n      dup3\n        /* \"contracts/TicTacToe.sol\":6343:6354  board[0][i] */\n      0xff\n      and\n      0x03\n      dup2\n      lt\n      tag_147\n      jumpi\n      tag_148\n      tag_81\n      jump\t// in\n    tag_148:\n    tag_147:\n      0x20\n      swap2\n      dup3\n      dup3\n      div\n      add\n      swap2\n      swap1\n      mod\n      swap1\n      sload\n      swap1\n      0x0100\n      exp\n      swap1\n      div\n      0xff\n      and\n        /* \"contracts/TicTacToe.sol\":6343:6364  board[0][i] == marker */\n      0xff\n      and\n      eq\n        /* \"contracts/TicTacToe.sol\":6343:6389  board[0][i] == marker && board[1][i] == marker */\n      dup1\n      iszero\n      tag_150\n      jumpi\n      pop\n        /* \"contracts/TicTacToe.sol\":6383:6389  marker */\n      dup2\n        /* \"contracts/TicTacToe.sol\":6368:6389  board[1][i] == marker */\n      0xff\n      and\n        /* \"contracts/TicTacToe.sol\":6368:6373  board */\n      0x00\n        /* \"contracts/TicTacToe.sol\":6374:6375  1 */\n      0x01\n        /* \"contracts/TicTacToe.sol\":6368:6376  board[1] */\n      0x03\n      dup2\n      lt\n      tag_151\n      jumpi\n      tag_152\n      tag_81\n      jump\t// in\n    tag_152:\n    tag_151:\n      add\n        /* \"contracts/TicTacToe.sol\":6377:6378  i */\n      dup3\n        /* \"contracts/TicTacToe.sol\":6368:6379  board[1][i] */\n      0xff\n      and\n      0x03\n      dup2\n      lt\n      tag_154\n      jumpi\n      tag_155\n      tag_81\n      jump\t// in\n    tag_155:\n    tag_154:\n      0x20\n      swap2\n      dup3\n      dup3\n      div\n      add\n      swap2\n      swap1\n      mod\n      swap1\n      sload\n      swap1\n      0x0100\n      exp\n      swap1\n      div\n      0xff\n      and\n        /* \"contracts/TicTacToe.sol\":6368:6389  board[1][i] == marker */\n      0xff\n      and\n      eq\n        /* \"contracts/TicTacToe.sol\":6343:6389  board[0][i] == marker && board[1][i] == marker */\n    tag_150:\n        /* \"contracts/TicTacToe.sol\":6343:6414  board[0][i] == marker && board[1][i] == marker && board[2][i] == marker */\n      dup1\n      iszero\n      tag_157\n      jumpi\n      pop\n        /* \"contracts/TicTacToe.sol\":6408:6414  marker */\n      dup2\n        /* \"contracts/TicTacToe.sol\":6393:6414  board[2][i] == marker */\n      0xff\n      and\n        /* \"contracts/TicTacToe.sol\":6393:6398  board */\n      0x00\n        /* \"contracts/TicTacToe.sol\":6399:6400  2 */\n      0x02\n        /* \"contracts/TicTacToe.sol\":6393:6401  board[2] */\n      0x03\n      dup2\n      lt\n      tag_158\n      jumpi\n      tag_159\n      tag_81\n      jump\t// in\n    tag_159:\n    tag_158:\n      add\n        /* \"contracts/TicTacToe.sol\":6402:6403  i */\n      dup3\n        /* \"contracts/TicTacToe.sol\":6393:6404  board[2][i] */\n      0xff\n      and\n      0x03\n      dup2\n      lt\n      tag_161\n      jumpi\n      tag_162\n      tag_81\n      jump\t// in\n    tag_162:\n    tag_161:\n      0x20\n      swap2\n      dup3\n      dup3\n      div\n      add\n      swap2\n      swap1\n      mod\n      swap1\n      sload\n      swap1\n      0x0100\n      exp\n      swap1\n      div\n      0xff\n      and\n        /* \"contracts/TicTacToe.sol\":6393:6414  board[2][i] == marker */\n      0xff\n      and\n      eq\n        /* \"contracts/TicTacToe.sol\":6343:6414  board[0][i] == marker && board[1][i] == marker && board[2][i] == marker */\n    tag_157:\n        /* \"contracts/TicTacToe.sol\":6339:6477  if (board[0][i] == marker && board[1][i] == marker && board[2][i] == marker) {... */\n      iszero\n      tag_164\n      jumpi\n        /* \"contracts/TicTacToe.sol\":6442:6461  endGameWithWinner() */\n      tag_165\n        /* \"contracts/TicTacToe.sol\":6442:6459  endGameWithWinner */\n      tag_143\n        /* \"contracts/TicTacToe.sol\":6442:6461  endGameWithWinner() */\n      jump\t// in\n    tag_165:\n        /* \"contracts/TicTacToe.sol\":6435:6461  return endGameWithWinner() */\n      pop\n      pop\n      jump(tag_115)\n        /* \"contracts/TicTacToe.sol\":6339:6477  if (board[0][i] == marker && board[1][i] == marker && board[2][i] == marker) {... */\n    tag_164:\n        /* \"contracts/TicTacToe.sol\":6167:6170  i++ */\n      dup1\n      dup1\n      0x01\n      add\n      swap2\n      pop\n      pop\n        /* \"contracts/TicTacToe.sol\":6142:6488  for (uint8 i = 0; i < 3; i++) {... */\n      jump(tag_118)\n    tag_119:\n      pop\n        /* \"contracts/TicTacToe.sol\":6517:6523  marker */\n      dup1\n        /* \"contracts/TicTacToe.sol\":6502:6523  board[0][0] == marker */\n      0xff\n      and\n        /* \"contracts/TicTacToe.sol\":6502:6507  board */\n      0x00\n        /* \"contracts/TicTacToe.sol\":6508:6509  0 */\n      0x00\n        /* \"contracts/TicTacToe.sol\":6502:6510  board[0] */\n      0x03\n      dup2\n      lt\n      tag_166\n      jumpi\n      tag_167\n      tag_81\n      jump\t// in\n    tag_167:\n    tag_166:\n      add\n        /* \"contracts/TicTacToe.sol\":6511:6512  0 */\n      0x00\n        /* \"contracts/TicTacToe.sol\":6502:6513  board[0][0] */\n      0x03\n      dup2\n      lt\n      tag_169\n      jumpi\n      tag_170\n      tag_81\n      jump\t// in\n    tag_170:\n    tag_169:\n      0x20\n      swap2\n      dup3\n      dup3\n      div\n      add\n      swap2\n      swap1\n      mod\n      swap1\n      sload\n      swap1\n      0x0100\n      exp\n      swap1\n      div\n      0xff\n      and\n        /* \"contracts/TicTacToe.sol\":6502:6523  board[0][0] == marker */\n      0xff\n      and\n      eq\n        /* \"contracts/TicTacToe.sol\":6502:6548  board[0][0] == marker && board[1][1] == marker */\n      dup1\n      iszero\n      tag_172\n      jumpi\n      pop\n        /* \"contracts/TicTacToe.sol\":6542:6548  marker */\n      dup1\n        /* \"contracts/TicTacToe.sol\":6527:6548  board[1][1] == marker */\n      0xff\n      and\n        /* \"contracts/TicTacToe.sol\":6527:6532  board */\n      0x00\n        /* \"contracts/TicTacToe.sol\":6533:6534  1 */\n      0x01\n        /* \"contracts/TicTacToe.sol\":6527:6535  board[1] */\n      0x03\n      dup2\n      lt\n      tag_173\n      jumpi\n      tag_174\n      tag_81\n      jump\t// in\n    tag_174:\n    tag_173:\n      add\n        /* \"contracts/TicTacToe.sol\":6536:6537  1 */\n      0x01\n        /* \"contracts/TicTacToe.sol\":6527:6538  board[1][1] */\n      0x03\n      dup2\n      lt\n      tag_176\n      jumpi\n      tag_177\n      tag_81\n      jump\t// in\n    tag_177:\n    tag_176:\n      0x20\n      swap2\n      dup3\n      dup3\n      div\n      add\n      swap2\n      swap1\n      mod\n      swap1\n      sload\n      swap1\n      0x0100\n      exp\n      swap1\n      div\n      0xff\n      and\n        /* \"contracts/TicTacToe.sol\":6527:6548  board[1][1] == marker */\n      0xff\n      and\n      eq\n        /* \"contracts/TicTacToe.sol\":6502:6548  board[0][0] == marker && board[1][1] == marker */\n    tag_172:\n        /* \"contracts/TicTacToe.sol\":6502:6573  board[0][0] == marker && board[1][1] == marker && board[2][2] == marker */\n      dup1\n      iszero\n      tag_179\n      jumpi\n      pop\n        /* \"contracts/TicTacToe.sol\":6567:6573  marker */\n      dup1\n        /* \"contracts/TicTacToe.sol\":6552:6573  board[2][2] == marker */\n      0xff\n      and\n        /* \"contracts/TicTacToe.sol\":6552:6557  board */\n      0x00\n        /* \"contracts/TicTacToe.sol\":6558:6559  2 */\n      0x02\n        /* \"contracts/TicTacToe.sol\":6552:6560  board[2] */\n      0x03\n      dup2\n      lt\n      tag_180\n      jumpi\n      tag_181\n      tag_81\n      jump\t// in\n    tag_181:\n    tag_180:\n      add\n        /* \"contracts/TicTacToe.sol\":6561:6562  2 */\n      0x02\n        /* \"contracts/TicTacToe.sol\":6552:6563  board[2][2] */\n      0x03\n      dup2\n      lt\n      tag_183\n      jumpi\n      tag_184\n      tag_81\n      jump\t// in\n    tag_184:\n    tag_183:\n      0x20\n      swap2\n      dup3\n      dup3\n      div\n      add\n      swap2\n      swap1\n      mod\n      swap1\n      sload\n      swap1\n      0x0100\n      exp\n      swap1\n      div\n      0xff\n      and\n        /* \"contracts/TicTacToe.sol\":6552:6573  board[2][2] == marker */\n      0xff\n      and\n      eq\n        /* \"contracts/TicTacToe.sol\":6502:6573  board[0][0] == marker && board[1][1] == marker && board[2][2] == marker */\n    tag_179:\n        /* \"contracts/TicTacToe.sol\":6498:6764  if (board[0][0] == marker && board[1][1] == marker && board[2][2] == marker) {... */\n      iszero\n      tag_186\n      jumpi\n        /* \"contracts/TicTacToe.sol\":6597:6616  endGameWithWinner() */\n      tag_187\n        /* \"contracts/TicTacToe.sol\":6597:6614  endGameWithWinner */\n      tag_143\n        /* \"contracts/TicTacToe.sol\":6597:6616  endGameWithWinner() */\n      jump\t// in\n    tag_187:\n        /* \"contracts/TicTacToe.sol\":6590:6616  return endGameWithWinner() */\n      pop\n      jump(tag_115)\n        /* \"contracts/TicTacToe.sol\":6498:6764  if (board[0][0] == marker && board[1][1] == marker && board[2][2] == marker) {... */\n    tag_186:\n        /* \"contracts/TicTacToe.sol\":6653:6659  marker */\n      dup1\n        /* \"contracts/TicTacToe.sol\":6638:6659  board[0][2] == marker */\n      0xff\n      and\n        /* \"contracts/TicTacToe.sol\":6638:6643  board */\n      0x00\n        /* \"contracts/TicTacToe.sol\":6644:6645  0 */\n      0x00\n        /* \"contracts/TicTacToe.sol\":6638:6646  board[0] */\n      0x03\n      dup2\n      lt\n      tag_189\n      jumpi\n      tag_190\n      tag_81\n      jump\t// in\n    tag_190:\n    tag_189:\n      add\n        /* \"contracts/TicTacToe.sol\":6647:6648  2 */\n      0x02\n        /* \"contracts/TicTacToe.sol\":6638:6649  board[0][2] */\n      0x03\n      dup2\n      lt\n      tag_192\n      jumpi\n      tag_193\n      tag_81\n      jump\t// in\n    tag_193:\n    tag_192:\n      0x20\n      swap2\n      dup3\n      dup3\n      div\n      add\n      swap2\n      swap1\n      mod\n      swap1\n      sload\n      swap1\n      0x0100\n      exp\n      swap1\n      div\n      0xff\n      and\n        /* \"contracts/TicTacToe.sol\":6638:6659  board[0][2] == marker */\n      0xff\n      and\n      eq\n        /* \"contracts/TicTacToe.sol\":6638:6684  board[0][2] == marker && board[1][1] == marker */\n      dup1\n      iszero\n      tag_195\n      jumpi\n      pop\n        /* \"contracts/TicTacToe.sol\":6678:6684  marker */\n      dup1\n        /* \"contracts/TicTacToe.sol\":6663:6684  board[1][1] == marker */\n      0xff\n      and\n        /* \"contracts/TicTacToe.sol\":6663:6668  board */\n      0x00\n        /* \"contracts/TicTacToe.sol\":6669:6670  1 */\n      0x01\n        /* \"contracts/TicTacToe.sol\":6663:6671  board[1] */\n      0x03\n      dup2\n      lt\n      tag_196\n      jumpi\n      tag_197\n      tag_81\n      jump\t// in\n    tag_197:\n    tag_196:\n      add\n        /* \"contracts/TicTacToe.sol\":6672:6673  1 */\n      0x01\n        /* \"contracts/TicTacToe.sol\":6663:6674  board[1][1] */\n      0x03\n      dup2\n      lt\n      tag_199\n      jumpi\n      tag_200\n      tag_81\n      jump\t// in\n    tag_200:\n    tag_199:\n      0x20\n      swap2\n      dup3\n      dup3\n      div\n      add\n      swap2\n      swap1\n      mod\n      swap1\n      sload\n      swap1\n      0x0100\n      exp\n      swap1\n      div\n      0xff\n      and\n        /* \"contracts/TicTacToe.sol\":6663:6684  board[1][1] == marker */\n      0xff\n      and\n      eq\n        /* \"contracts/TicTacToe.sol\":6638:6684  board[0][2] == marker && board[1][1] == marker */\n    tag_195:\n        /* \"contracts/TicTacToe.sol\":6638:6709  board[0][2] == marker && board[1][1] == marker && board[2][0] == marker */\n      dup1\n      iszero\n      tag_202\n      jumpi\n      pop\n        /* \"contracts/TicTacToe.sol\":6703:6709  marker */\n      dup1\n        /* \"contracts/TicTacToe.sol\":6688:6709  board[2][0] == marker */\n      0xff\n      and\n        /* \"contracts/TicTacToe.sol\":6688:6693  board */\n      0x00\n        /* \"contracts/TicTacToe.sol\":6694:6695  2 */\n      0x02\n        /* \"contracts/TicTacToe.sol\":6688:6696  board[2] */\n      0x03\n      dup2\n      lt\n      tag_203\n      jumpi\n      tag_204\n      tag_81\n      jump\t// in\n    tag_204:\n    tag_203:\n      add\n        /* \"contracts/TicTacToe.sol\":6697:6698  0 */\n      0x00\n        /* \"contracts/TicTacToe.sol\":6688:6699  board[2][0] */\n      0x03\n      dup2\n      lt\n      tag_206\n      jumpi\n      tag_207\n      tag_81\n      jump\t// in\n    tag_207:\n    tag_206:\n      0x20\n      swap2\n      dup3\n      dup3\n      div\n      add\n      swap2\n      swap1\n      mod\n      swap1\n      sload\n      swap1\n      0x0100\n      exp\n      swap1\n      div\n      0xff\n      and\n        /* \"contracts/TicTacToe.sol\":6688:6709  board[2][0] == marker */\n      0xff\n      and\n      eq\n        /* \"contracts/TicTacToe.sol\":6638:6709  board[0][2] == marker && board[1][1] == marker && board[2][0] == marker */\n    tag_202:\n        /* \"contracts/TicTacToe.sol\":6634:6764  if (board[0][2] == marker && board[1][1] == marker && board[2][0] == marker) {... */\n      iszero\n      tag_209\n      jumpi\n        /* \"contracts/TicTacToe.sol\":6733:6752  endGameWithWinner() */\n      tag_210\n        /* \"contracts/TicTacToe.sol\":6733:6750  endGameWithWinner */\n      tag_143\n        /* \"contracts/TicTacToe.sol\":6733:6752  endGameWithWinner() */\n      jump\t// in\n    tag_210:\n        /* \"contracts/TicTacToe.sol\":6726:6752  return endGameWithWinner() */\n      pop\n      jump(tag_115)\n        /* \"contracts/TicTacToe.sol\":6634:6764  if (board[0][2] == marker && board[1][1] == marker && board[2][0] == marker) {... */\n    tag_209:\n        /* \"contracts/TicTacToe.sol\":6846:6863  uint8 filledCells */\n      0x00\n        /* \"contracts/TicTacToe.sol\":6866:6867  0 */\n      0x00\n        /* \"contracts/TicTacToe.sol\":6846:6867  uint8 filledCells = 0 */\n      swap1\n      pop\n        /* \"contracts/TicTacToe.sol\":6883:6889  uint i */\n      0x00\n        /* \"contracts/TicTacToe.sol\":6892:6893  0 */\n      0x00\n        /* \"contracts/TicTacToe.sol\":6883:6893  uint i = 0 */\n      swap1\n      pop\n        /* \"contracts/TicTacToe.sol\":6878:7033  for (uint i = 0; i < 3; i++) {... */\n    tag_211:\n        /* \"contracts/TicTacToe.sol\":6899:6900  3 */\n      0x03\n        /* \"contracts/TicTacToe.sol\":6895:6896  i */\n      dup2\n        /* \"contracts/TicTacToe.sol\":6895:6900  i < 3 */\n      lt\n        /* \"contracts/TicTacToe.sol\":6878:7033  for (uint i = 0; i < 3; i++) {... */\n      iszero\n      tag_212\n      jumpi\n        /* \"contracts/TicTacToe.sol\":6927:6934  uint8 j */\n      0x00\n        /* \"contracts/TicTacToe.sol\":6937:6938  0 */\n      0x00\n        /* \"contracts/TicTacToe.sol\":6927:6938  uint8 j = 0 */\n      swap1\n      pop\n        /* \"contracts/TicTacToe.sol\":6922:7022  for (uint8 j = 0; j < 3; j++) {... */\n    tag_214:\n        /* \"contracts/TicTacToe.sol\":6944:6945  3 */\n      0x03\n        /* \"contracts/TicTacToe.sol\":6940:6941  j */\n      dup2\n        /* \"contracts/TicTacToe.sol\":6940:6945  j < 3 */\n      0xff\n      and\n      lt\n        /* \"contracts/TicTacToe.sol\":6922:7022  for (uint8 j = 0; j < 3; j++) {... */\n      iszero\n      tag_215\n      jumpi\n        /* \"contracts/TicTacToe.sol\":6990:6991  0 */\n      0x00\n        /* \"contracts/TicTacToe.sol\":6975:6980  board */\n      0x00\n        /* \"contracts/TicTacToe.sol\":6981:6982  i */\n      dup4\n        /* \"contracts/TicTacToe.sol\":6975:6983  board[i] */\n      0x03\n      dup2\n      lt\n      tag_217\n      jumpi\n      tag_218\n      tag_81\n      jump\t// in\n    tag_218:\n    tag_217:\n      add\n        /* \"contracts/TicTacToe.sol\":6984:6985  j */\n      dup3\n        /* \"contracts/TicTacToe.sol\":6975:6986  board[i][j] */\n      0xff\n      and\n      0x03\n      dup2\n      lt\n      tag_220\n      jumpi\n      tag_221\n      tag_81\n      jump\t// in\n    tag_221:\n    tag_220:\n      0x20\n      swap2\n      dup3\n      dup3\n      div\n      add\n      swap2\n      swap1\n      mod\n      swap1\n      sload\n      swap1\n      0x0100\n      exp\n      swap1\n      div\n      0xff\n      and\n        /* \"contracts/TicTacToe.sol\":6975:6991  board[i][j] != 0 */\n      0xff\n      and\n      eq\n        /* \"contracts/TicTacToe.sol\":6971:7006  if (board[i][j] != 0) filledCells++ */\n      tag_223\n      jumpi\n        /* \"contracts/TicTacToe.sol\":6993:7006  filledCells++ */\n      dup3\n      dup1\n      tag_224\n      swap1\n      tag_225\n      jump\t// in\n    tag_224:\n      swap4\n      pop\n      pop\n        /* \"contracts/TicTacToe.sol\":6971:7006  if (board[i][j] != 0) filledCells++ */\n    tag_223:\n        /* \"contracts/TicTacToe.sol\":6947:6950  j++ */\n      dup1\n      dup1\n      0x01\n      add\n      swap2\n      pop\n      pop\n        /* \"contracts/TicTacToe.sol\":6922:7022  for (uint8 j = 0; j < 3; j++) {... */\n      jump(tag_214)\n    tag_215:\n      pop\n        /* \"contracts/TicTacToe.sol\":6902:6905  i++ */\n      dup1\n      dup1\n      0x01\n      add\n      swap2\n      pop\n      pop\n        /* \"contracts/TicTacToe.sol\":6878:7033  for (uint i = 0; i < 3; i++) {... */\n      jump(tag_211)\n    tag_212:\n      pop\n        /* \"contracts/TicTacToe.sol\":7112:7113  9 */\n      0x09\n        /* \"contracts/TicTacToe.sol\":7097:7108  filledCells */\n      dup2\n        /* \"contracts/TicTacToe.sol\":7097:7113  filledCells == 9 */\n      0xff\n      and\n      sub\n        /* \"contracts/TicTacToe.sol\":7093:7230  if (filledCells == 9) {... */\n      tag_226\n      jumpi\n        /* \"contracts/TicTacToe.sol\":7143:7147  true */\n      0x01\n        /* \"contracts/TicTacToe.sol\":7130:7140  isGameOver */\n      0x05\n      0x14\n        /* \"contracts/TicTacToe.sol\":7130:7147  isGameOver = true */\n      0x0100\n      exp\n      dup2\n      sload\n      dup2\n      0xff\n      mul\n      not\n      and\n      swap1\n      dup4\n      iszero\n      iszero\n      mul\n      or\n      swap1\n      sstore\n      pop\n        /* \"contracts/TicTacToe.sol\":7179:7180  0 */\n      0x00\n        /* \"contracts/TicTacToe.sol\":7162:7168  winner */\n      0x06\n      0x00\n        /* \"contracts/TicTacToe.sol\":7162:7181  winner = address(0) */\n      0x0100\n      exp\n      dup2\n      sload\n      dup2\n      0xffffffffffffffffffffffffffffffffffffffff\n      mul\n      not\n      and\n      swap1\n      dup4\n      0xffffffffffffffffffffffffffffffffffffffff\n      and\n      mul\n      or\n      swap1\n      sstore\n      pop\n        /* \"contracts/TicTacToe.sol\":7211:7217  winner */\n      0x06\n      0x00\n      swap1\n      sload\n      swap1\n      0x0100\n      exp\n      swap1\n      div\n      0xffffffffffffffffffffffffffffffffffffffff\n      and\n        /* \"contracts/TicTacToe.sol\":7201:7218  GameEnded(winner) */\n      0xffffffffffffffffffffffffffffffffffffffff\n      and\n      0x51b77d00d3c0b7e376e9ee146711ceb2c08e58a5dbe38055a618e52109f720c1\n      mload(0x40)\n      mload(0x40)\n      dup1\n      swap2\n      sub\n      swap1\n      log2\n        /* \"contracts/TicTacToe.sol\":7093:7230  if (filledCells == 9) {... */\n    tag_226:\n        /* \"contracts/TicTacToe.sol\":5859:7237  {... */\n      pop\n      pop\n        /* \"contracts/TicTacToe.sol\":5831:7237  function checkWin() private {... */\n    tag_115:\n      jump\t// out\n        /* \"contracts/TicTacToe.sol\":5563:5679  function switchTurn() private {... */\n    tag_107:\n        /* \"contracts/TicTacToe.sol\":5618:5625  playerX */\n      0x03\n      0x00\n      swap1\n      sload\n      swap1\n      0x0100\n      exp\n      swap1\n      div\n      0xffffffffffffffffffffffffffffffffffffffff\n      and\n        /* \"contracts/TicTacToe.sol\":5604:5625  nextPlayer == playerX */\n      0xffffffffffffffffffffffffffffffffffffffff\n      and\n        /* \"contracts/TicTacToe.sol\":5604:5614  nextPlayer */\n      0x05\n      0x00\n      swap1\n      sload\n      swap1\n      0x0100\n      exp\n      swap1\n      div\n      0xffffffffffffffffffffffffffffffffffffffff\n      and\n        /* \"contracts/TicTacToe.sol\":5604:5625  nextPlayer == playerX */\n      0xffffffffffffffffffffffffffffffffffffffff\n      and\n      eq\n        /* \"contracts/TicTacToe.sol\":5604:5671  nextPlayer == playerX ? nextPlayer = playerO : nextPlayer = playerX */\n      tag_228\n      jumpi\n        /* \"contracts/TicTacToe.sol\":5664:5671  playerX */\n      0x03\n      0x00\n      swap1\n      sload\n      swap1\n      0x0100\n      exp\n      swap1\n      div\n      0xffffffffffffffffffffffffffffffffffffffff\n      and\n        /* \"contracts/TicTacToe.sol\":5651:5661  nextPlayer */\n      0x05\n      0x00\n        /* \"contracts/TicTacToe.sol\":5651:5671  nextPlayer = playerX */\n      0x0100\n      exp\n      dup2\n      sload\n      dup2\n      0xffffffffffffffffffffffffffffffffffffffff\n      mul\n      not\n      and\n      swap1\n      dup4\n      0xffffffffffffffffffffffffffffffffffffffff\n      and\n      mul\n      or\n      swap1\n      sstore\n        /* \"contracts/TicTacToe.sol\":5604:5671  nextPlayer == playerX ? nextPlayer = playerO : nextPlayer = playerX */\n      jump(tag_229)\n    tag_228:\n        /* \"contracts/TicTacToe.sol\":5641:5648  playerO */\n      0x04\n      0x00\n      swap1\n      sload\n      swap1\n      0x0100\n      exp\n      swap1\n      div\n      0xffffffffffffffffffffffffffffffffffffffff\n      and\n        /* \"contracts/TicTacToe.sol\":5628:5638  nextPlayer */\n      0x05\n      0x00\n        /* \"contracts/TicTacToe.sol\":5628:5648  nextPlayer = playerO */\n      0x0100\n      exp\n      dup2\n      sload\n      dup2\n      0xffffffffffffffffffffffffffffffffffffffff\n      mul\n      not\n      and\n      swap1\n      dup4\n      0xffffffffffffffffffffffffffffffffffffffff\n      and\n      mul\n      or\n      swap1\n      sstore\n        /* \"contracts/TicTacToe.sol\":5604:5671  nextPlayer == playerX ? nextPlayer = playerO : nextPlayer = playerX */\n    tag_229:\n      pop\n        /* \"contracts/TicTacToe.sol\":5563:5679  function switchTurn() private {... */\n      jump\t// out\n        /* \"contracts/TicTacToe.sol\":5687:5823  function endGameWithWinner() private {... */\n    tag_143:\n        /* \"contracts/TicTacToe.sol\":5748:5752  true */\n      0x01\n        /* \"contracts/TicTacToe.sol\":5735:5745  isGameOver */\n      0x05\n      0x14\n        /* \"contracts/TicTacToe.sol\":5735:5752  isGameOver = true */\n      0x0100\n      exp\n      dup2\n      sload\n      dup2\n      0xff\n      mul\n      not\n      and\n      swap1\n      dup4\n      iszero\n      iszero\n      mul\n      or\n      swap1\n      sstore\n      pop\n        /* \"contracts/TicTacToe.sol\":5772:5782  msg.sender */\n      caller\n        /* \"contracts/TicTacToe.sol\":5763:5769  winner */\n      0x06\n      0x00\n        /* \"contracts/TicTacToe.sol\":5763:5782  winner = msg.sender */\n      0x0100\n      exp\n      dup2\n      sload\n      dup2\n      0xffffffffffffffffffffffffffffffffffffffff\n      mul\n      not\n      and\n      swap1\n      dup4\n      0xffffffffffffffffffffffffffffffffffffffff\n      and\n      mul\n      or\n      swap1\n      sstore\n      pop\n        /* \"contracts/TicTacToe.sol\":5808:5814  winner */\n      0x06\n      0x00\n      swap1\n      sload\n      swap1\n      0x0100\n      exp\n      swap1\n      div\n      0xffffffffffffffffffffffffffffffffffffffff\n      and\n        /* \"contracts/TicTacToe.sol\":5798:5815  GameEnded(winner) */\n      0xffffffffffffffffffffffffffffffffffffffff\n      and\n      0x51b77d00d3c0b7e376e9ee146711ceb2c08e58a5dbe38055a618e52109f720c1\n      mload(0x40)\n      mload(0x40)\n      dup1\n      swap2\n      sub\n      swap1\n      log2\n        /* \"contracts/TicTacToe.sol\":5687:5823  function endGameWithWinner() private {... */\n      jump\t// out\n    tag_54:\n      mload(0x40)\n      dup1\n      0x60\n      add\n      0x40\n      mstore\n      dup1\n      0x03\n      swap1\n    tag_231:\n      tag_232\n      tag_233\n      jump\t// in\n    tag_232:\n      dup2\n      mstore\n      0x20\n      add\n      swap1\n      0x01\n      swap1\n      sub\n      swap1\n      dup2\n      tag_231\n      jumpi\n      swap1\n      pop\n      pop\n      swap1\n      jump\t// out\n    tag_233:\n      mload(0x40)\n      dup1\n      0x60\n      add\n      0x40\n      mstore\n      dup1\n      0x03\n      swap1\n      0x20\n      dup3\n      mul\n      dup1\n      calldatasize\n      dup4\n      calldatacopy\n      dup1\n      dup3\n      add\n      swap2\n      pop\n      pop\n      swap1\n      pop\n      pop\n      swap1\n      jump\t// out\n        /* \"#utility.yul\":7:133   */\n    tag_234:\n        /* \"#utility.yul\":44:51   */\n      0x00\n        /* \"#utility.yul\":84:126   */\n      0xffffffffffffffffffffffffffffffffffffffff\n        /* \"#utility.yul\":77:82   */\n      dup3\n        /* \"#utility.yul\":73:127   */\n      and\n        /* \"#utility.yul\":62:127   */\n      swap1\n      pop\n        /* \"#utility.yul\":7:133   */\n      swap2\n      swap1\n      pop\n      jump\t// out\n        /* \"#utility.yul\":139:235   */\n    tag_235:\n        /* \"#utility.yul\":176:183   */\n      0x00\n        /* \"#utility.yul\":205:229   */\n      tag_282\n        /* \"#utility.yul\":223:228   */\n      dup3\n        /* \"#utility.yul\":205:229   */\n      tag_234\n      jump\t// in\n    tag_282:\n        /* \"#utility.yul\":194:229   */\n      swap1\n      pop\n        /* \"#utility.yul\":139:235   */\n      swap2\n      swap1\n      pop\n      jump\t// out\n        /* \"#utility.yul\":241:359   */\n    tag_236:\n        /* \"#utility.yul\":328:352   */\n      tag_284\n        /* \"#utility.yul\":346:351   */\n      dup2\n        /* \"#utility.yul\":328:352   */\n      tag_235\n      jump\t// in\n    tag_284:\n        /* \"#utility.yul\":323:326   */\n      dup3\n        /* \"#utility.yul\":316:353   */\n      mstore\n        /* \"#utility.yul\":241:359   */\n      pop\n      pop\n      jump\t// out\n        /* \"#utility.yul\":365:587   */\n    tag_17:\n        /* \"#utility.yul\":458:462   */\n      0x00\n        /* \"#utility.yul\":496:498   */\n      0x20\n        /* \"#utility.yul\":485:494   */\n      dup3\n        /* \"#utility.yul\":481:499   */\n      add\n        /* \"#utility.yul\":473:499   */\n      swap1\n      pop\n        /* \"#utility.yul\":509:580   */\n      tag_286\n        /* \"#utility.yul\":577:578   */\n      0x00\n        /* \"#utility.yul\":566:575   */\n      dup4\n        /* \"#utility.yul\":562:579   */\n      add\n        /* \"#utility.yul\":553:559   */\n      dup5\n        /* \"#utility.yul\":509:580   */\n      tag_236\n      jump\t// in\n    tag_286:\n        /* \"#utility.yul\":365:587   */\n      swap3\n      swap2\n      pop\n      pop\n      jump\t// out\n        /* \"#utility.yul\":593:683   */\n    tag_237:\n        /* \"#utility.yul\":627:634   */\n      0x00\n        /* \"#utility.yul\":670:675   */\n      dup2\n        /* \"#utility.yul\":663:676   */\n      iszero\n        /* \"#utility.yul\":656:677   */\n      iszero\n        /* \"#utility.yul\":645:677   */\n      swap1\n      pop\n        /* \"#utility.yul\":593:683   */\n      swap2\n      swap1\n      pop\n      jump\t// out\n        /* \"#utility.yul\":689:798   */\n    tag_238:\n        /* \"#utility.yul\":770:791   */\n      tag_289\n        /* \"#utility.yul\":785:790   */\n      dup2\n        /* \"#utility.yul\":770:791   */\n      tag_237\n      jump\t// in\n    tag_289:\n        /* \"#utility.yul\":765:768   */\n      dup3\n        /* \"#utility.yul\":758:792   */\n      mstore\n        /* \"#utility.yul\":689:798   */\n      pop\n      pop\n      jump\t// out\n        /* \"#utility.yul\":804:1014   */\n    tag_21:\n        /* \"#utility.yul\":891:895   */\n      0x00\n        /* \"#utility.yul\":929:931   */\n      0x20\n        /* \"#utility.yul\":918:927   */\n      dup3\n        /* \"#utility.yul\":914:932   */\n      add\n        /* \"#utility.yul\":906:932   */\n      swap1\n      pop\n        /* \"#utility.yul\":942:1007   */\n      tag_291\n        /* \"#utility.yul\":1004:1005   */\n      0x00\n        /* \"#utility.yul\":993:1002   */\n      dup4\n        /* \"#utility.yul\":989:1006   */\n      add\n        /* \"#utility.yul\":980:986   */\n      dup5\n        /* \"#utility.yul\":942:1007   */\n      tag_238\n      jump\t// in\n    tag_291:\n        /* \"#utility.yul\":804:1014   */\n      swap3\n      swap2\n      pop\n      pop\n      jump\t// out\n        /* \"#utility.yul\":1020:1145   */\n    tag_239:\n        /* \"#utility.yul\":1106:1112   */\n      0x00\n        /* \"#utility.yul\":1134:1138   */\n      0x03\n        /* \"#utility.yul\":1124:1138   */\n      swap1\n      pop\n        /* \"#utility.yul\":1020:1145   */\n      swap2\n      swap1\n      pop\n      jump\t// out\n        /* \"#utility.yul\":1151:1315   */\n    tag_240:\n        /* \"#utility.yul\":1269:1280   */\n      0x00\n        /* \"#utility.yul\":1306:1309   */\n      dup2\n        /* \"#utility.yul\":1291:1309   */\n      swap1\n      pop\n        /* \"#utility.yul\":1151:1315   */\n      swap3\n      swap2\n      pop\n      pop\n      jump\t// out\n        /* \"#utility.yul\":1321:1440   */\n    tag_241:\n        /* \"#utility.yul\":1407:1411   */\n      0x00\n        /* \"#utility.yul\":1430:1433   */\n      dup2\n        /* \"#utility.yul\":1422:1433   */\n      swap1\n      pop\n        /* \"#utility.yul\":1321:1440   */\n      swap2\n      swap1\n      pop\n      jump\t// out\n        /* \"#utility.yul\":1446:1548   */\n    tag_242:\n        /* \"#utility.yul\":1509:1515   */\n      0x00\n        /* \"#utility.yul\":1537:1541   */\n      0x03\n        /* \"#utility.yul\":1527:1541   */\n      swap1\n      pop\n        /* \"#utility.yul\":1446:1548   */\n      swap2\n      swap1\n      pop\n      jump\t// out\n        /* \"#utility.yul\":1554:1685   */\n    tag_243:\n        /* \"#utility.yul\":1639:1650   */\n      0x00\n        /* \"#utility.yul\":1676:1679   */\n      dup2\n        /* \"#utility.yul\":1661:1679   */\n      swap1\n      pop\n        /* \"#utility.yul\":1554:1685   */\n      swap3\n      swap2\n      pop\n      pop\n      jump\t// out\n        /* \"#utility.yul\":1691:1787   */\n    tag_244:\n        /* \"#utility.yul\":1754:1758   */\n      0x00\n        /* \"#utility.yul\":1777:1780   */\n      dup2\n        /* \"#utility.yul\":1769:1780   */\n      swap1\n      pop\n        /* \"#utility.yul\":1691:1787   */\n      swap2\n      swap1\n      pop\n      jump\t// out\n        /* \"#utility.yul\":1793:1879   */\n    tag_245:\n        /* \"#utility.yul\":1828:1835   */\n      0x00\n        /* \"#utility.yul\":1868:1872   */\n      0xff\n        /* \"#utility.yul\":1861:1866   */\n      dup3\n        /* \"#utility.yul\":1857:1873   */\n      and\n        /* \"#utility.yul\":1846:1873   */\n      swap1\n      pop\n        /* \"#utility.yul\":1793:1879   */\n      swap2\n      swap1\n      pop\n      jump\t// out\n        /* \"#utility.yul\":1885:1987   */\n    tag_246:\n        /* \"#utility.yul\":1958:1980   */\n      tag_300\n        /* \"#utility.yul\":1974:1979   */\n      dup2\n        /* \"#utility.yul\":1958:1980   */\n      tag_245\n      jump\t// in\n    tag_300:\n        /* \"#utility.yul\":1953:1956   */\n      dup3\n        /* \"#utility.yul\":1946:1981   */\n      mstore\n        /* \"#utility.yul\":1885:1987   */\n      pop\n      pop\n      jump\t// out\n        /* \"#utility.yul\":1993:2164   */\n    tag_247:\n        /* \"#utility.yul\":2058:2068   */\n      0x00\n        /* \"#utility.yul\":2079:2121   */\n      tag_302\n        /* \"#utility.yul\":2117:2120   */\n      dup4\n        /* \"#utility.yul\":2109:2115   */\n      dup4\n        /* \"#utility.yul\":2079:2121   */\n      tag_246\n      jump\t// in\n    tag_302:\n        /* \"#utility.yul\":2153:2157   */\n      0x20\n        /* \"#utility.yul\":2148:2151   */\n      dup4\n        /* \"#utility.yul\":2144:2158   */\n      add\n        /* \"#utility.yul\":2130:2158   */\n      swap1\n      pop\n        /* \"#utility.yul\":1993:2164   */\n      swap3\n      swap2\n      pop\n      pop\n      jump\t// out\n        /* \"#utility.yul\":2170:2279   */\n    tag_248:\n        /* \"#utility.yul\":2236:2240   */\n      0x00\n        /* \"#utility.yul\":2268:2272   */\n      0x20\n        /* \"#utility.yul\":2263:2266   */\n      dup3\n        /* \"#utility.yul\":2259:2273   */\n      add\n        /* \"#utility.yul\":2251:2273   */\n      swap1\n      pop\n        /* \"#utility.yul\":2170:2279   */\n      swap2\n      swap1\n      pop\n      jump\t// out\n        /* \"#utility.yul\":2313:2971   */\n    tag_249:\n        /* \"#utility.yul\":2435:2485   */\n      tag_305\n        /* \"#utility.yul\":2479:2484   */\n      dup2\n        /* \"#utility.yul\":2435:2485   */\n      tag_242\n      jump\t// in\n    tag_305:\n        /* \"#utility.yul\":2501:2573   */\n      tag_306\n        /* \"#utility.yul\":2566:2572   */\n      dup2\n        /* \"#utility.yul\":2561:2564   */\n      dup5\n        /* \"#utility.yul\":2501:2573   */\n      tag_243\n      jump\t// in\n    tag_306:\n        /* \"#utility.yul\":2494:2573   */\n      swap3\n      pop\n        /* \"#utility.yul\":2597:2649   */\n      tag_307\n        /* \"#utility.yul\":2643:2648   */\n      dup3\n        /* \"#utility.yul\":2597:2649   */\n      tag_244\n      jump\t// in\n    tag_307:\n        /* \"#utility.yul\":2672:2679   */\n      dup1\n        /* \"#utility.yul\":2703:2704   */\n      0x00\n        /* \"#utility.yul\":2688:2964   */\n    tag_308:\n        /* \"#utility.yul\":2713:2719   */\n      dup4\n        /* \"#utility.yul\":2710:2711   */\n      dup2\n        /* \"#utility.yul\":2707:2720   */\n      lt\n        /* \"#utility.yul\":2688:2964   */\n      iszero\n      tag_310\n      jumpi\n        /* \"#utility.yul\":2789:2795   */\n      dup2\n        /* \"#utility.yul\":2783:2796   */\n      mload\n        /* \"#utility.yul\":2816:2875   */\n      tag_311\n        /* \"#utility.yul\":2871:2874   */\n      dup8\n        /* \"#utility.yul\":2856:2869   */\n      dup3\n        /* \"#utility.yul\":2816:2875   */\n      tag_247\n      jump\t// in\n    tag_311:\n        /* \"#utility.yul\":2809:2875   */\n      swap7\n      pop\n        /* \"#utility.yul\":2898:2954   */\n      tag_312\n        /* \"#utility.yul\":2947:2953   */\n      dup4\n        /* \"#utility.yul\":2898:2954   */\n      tag_248\n      jump\t// in\n    tag_312:\n        /* \"#utility.yul\":2888:2954   */\n      swap3\n      pop\n        /* \"#utility.yul\":2748:2964   */\n      pop\n        /* \"#utility.yul\":2735:2736   */\n      0x01\n        /* \"#utility.yul\":2732:2733   */\n      dup2\n        /* \"#utility.yul\":2728:2737   */\n      add\n        /* \"#utility.yul\":2723:2737   */\n      swap1\n      pop\n        /* \"#utility.yul\":2688:2964   */\n      jump(tag_308)\n    tag_310:\n        /* \"#utility.yul\":2692:2706   */\n      pop\n        /* \"#utility.yul\":2411:2971   */\n      pop\n      pop\n      pop\n        /* \"#utility.yul\":2313:2971   */\n      pop\n      pop\n      jump\t// out\n        /* \"#utility.yul\":2977:3240   */\n    tag_250:\n        /* \"#utility.yul\":3088:3098   */\n      0x00\n        /* \"#utility.yul\":3109:3197   */\n      tag_314\n        /* \"#utility.yul\":3193:3196   */\n      dup4\n        /* \"#utility.yul\":3185:3191   */\n      dup4\n        /* \"#utility.yul\":3109:3197   */\n      tag_249\n      jump\t// in\n    tag_314:\n        /* \"#utility.yul\":3229:3233   */\n      0x60\n        /* \"#utility.yul\":3224:3227   */\n      dup4\n        /* \"#utility.yul\":3220:3234   */\n      add\n        /* \"#utility.yul\":3206:3234   */\n      swap1\n      pop\n        /* \"#utility.yul\":2977:3240   */\n      swap3\n      swap2\n      pop\n      pop\n      jump\t// out\n        /* \"#utility.yul\":3246:3378   */\n    tag_251:\n        /* \"#utility.yul\":3335:3339   */\n      0x00\n        /* \"#utility.yul\":3367:3371   */\n      0x20\n        /* \"#utility.yul\":3362:3365   */\n      dup3\n        /* \"#utility.yul\":3358:3372   */\n      add\n        /* \"#utility.yul\":3350:3372   */\n      swap1\n      pop\n        /* \"#utility.yul\":3246:3378   */\n      swap2\n      swap1\n      pop\n      jump\t// out\n        /* \"#utility.yul\":3418:4280   */\n    tag_252:\n        /* \"#utility.yul\":3596:3669   */\n      tag_317\n        /* \"#utility.yul\":3663:3668   */\n      dup2\n        /* \"#utility.yul\":3596:3669   */\n      tag_239\n      jump\t// in\n    tag_317:\n        /* \"#utility.yul\":3685:3790   */\n      tag_318\n        /* \"#utility.yul\":3783:3789   */\n      dup2\n        /* \"#utility.yul\":3778:3781   */\n      dup5\n        /* \"#utility.yul\":3685:3790   */\n      tag_240\n      jump\t// in\n    tag_318:\n        /* \"#utility.yul\":3678:3790   */\n      swap3\n      pop\n        /* \"#utility.yul\":3814:3889   */\n      tag_319\n        /* \"#utility.yul\":3883:3888   */\n      dup3\n        /* \"#utility.yul\":3814:3889   */\n      tag_241\n      jump\t// in\n    tag_319:\n        /* \"#utility.yul\":3912:3919   */\n      dup1\n        /* \"#utility.yul\":3943:3944   */\n      0x00\n        /* \"#utility.yul\":3928:4273   */\n    tag_320:\n        /* \"#utility.yul\":3953:3959   */\n      dup4\n        /* \"#utility.yul\":3950:3951   */\n      dup2\n        /* \"#utility.yul\":3947:3960   */\n      lt\n        /* \"#utility.yul\":3928:4273   */\n      iszero\n      tag_322\n      jumpi\n        /* \"#utility.yul\":4029:4035   */\n      dup2\n        /* \"#utility.yul\":4023:4036   */\n      mload\n        /* \"#utility.yul\":4056:4161   */\n      tag_323\n        /* \"#utility.yul\":4157:4160   */\n      dup8\n        /* \"#utility.yul\":4142:4155   */\n      dup3\n        /* \"#utility.yul\":4056:4161   */\n      tag_250\n      jump\t// in\n    tag_323:\n        /* \"#utility.yul\":4049:4161   */\n      swap7\n      pop\n        /* \"#utility.yul\":4184:4263   */\n      tag_324\n        /* \"#utility.yul\":4256:4262   */\n      dup4\n        /* \"#utility.yul\":4184:4263   */\n      tag_251\n      jump\t// in\n    tag_324:\n        /* \"#utility.yul\":4174:4263   */\n      swap3\n      pop\n        /* \"#utility.yul\":3988:4273   */\n      pop\n        /* \"#utility.yul\":3975:3976   */\n      0x01\n        /* \"#utility.yul\":3972:3973   */\n      dup2\n        /* \"#utility.yul\":3968:3977   */\n      add\n        /* \"#utility.yul\":3963:3977   */\n      swap1\n      pop\n        /* \"#utility.yul\":3928:4273   */\n      jump(tag_320)\n    tag_322:\n        /* \"#utility.yul\":3932:3946   */\n      pop\n        /* \"#utility.yul\":3572:4280   */\n      pop\n      pop\n      pop\n        /* \"#utility.yul\":3418:4280   */\n      pop\n      pop\n      jump\t// out\n        /* \"#utility.yul\":4286:4685   */\n    tag_25:\n        /* \"#utility.yul\":4467:4471   */\n      0x00\n        /* \"#utility.yul\":4505:4508   */\n      0x0120\n        /* \"#utility.yul\":4494:4503   */\n      dup3\n        /* \"#utility.yul\":4490:4509   */\n      add\n        /* \"#utility.yul\":4482:4509   */\n      swap1\n      pop\n        /* \"#utility.yul\":4519:4678   */\n      tag_326\n        /* \"#utility.yul\":4675:4676   */\n      0x00\n        /* \"#utility.yul\":4664:4673   */\n      dup4\n        /* \"#utility.yul\":4660:4677   */\n      add\n        /* \"#utility.yul\":4651:4657   */\n      dup5\n        /* \"#utility.yul\":4519:4678   */\n      tag_252\n      jump\t// in\n    tag_326:\n        /* \"#utility.yul\":4286:4685   */\n      swap3\n      swap2\n      pop\n      pop\n      jump\t// out\n        /* \"#utility.yul\":4772:4889   */\n    tag_254:\n        /* \"#utility.yul\":4881:4882   */\n      0x00\n        /* \"#utility.yul\":4878:4879   */\n      0x00\n        /* \"#utility.yul\":4871:4883   */\n      revert\n        /* \"#utility.yul\":5018:5122   */\n    tag_256:\n        /* \"#utility.yul\":5063:5070   */\n      0x00\n        /* \"#utility.yul\":5092:5116   */\n      tag_331\n        /* \"#utility.yul\":5110:5115   */\n      dup3\n        /* \"#utility.yul\":5092:5116   */\n      tag_234\n      jump\t// in\n    tag_331:\n        /* \"#utility.yul\":5081:5116   */\n      swap1\n      pop\n        /* \"#utility.yul\":5018:5122   */\n      swap2\n      swap1\n      pop\n      jump\t// out\n        /* \"#utility.yul\":5128:5266   */\n    tag_257:\n        /* \"#utility.yul\":5209:5241   */\n      tag_333\n        /* \"#utility.yul\":5235:5240   */\n      dup2\n        /* \"#utility.yul\":5209:5241   */\n      tag_256\n      jump\t// in\n    tag_333:\n        /* \"#utility.yul\":5202:5207   */\n      dup2\n        /* \"#utility.yul\":5199:5242   */\n      eq\n        /* \"#utility.yul\":5189:5260   */\n      tag_334\n      jumpi\n        /* \"#utility.yul\":5256:5257   */\n      0x00\n        /* \"#utility.yul\":5253:5254   */\n      0x00\n        /* \"#utility.yul\":5246:5258   */\n      revert\n        /* \"#utility.yul\":5189:5260   */\n    tag_334:\n        /* \"#utility.yul\":5128:5266   */\n      pop\n      jump\t// out\n        /* \"#utility.yul\":5272:5427   */\n    tag_258:\n        /* \"#utility.yul\":5326:5331   */\n      0x00\n        /* \"#utility.yul\":5364:5370   */\n      dup2\n        /* \"#utility.yul\":5351:5371   */\n      calldataload\n        /* \"#utility.yul\":5342:5371   */\n      swap1\n      pop\n        /* \"#utility.yul\":5380:5421   */\n      tag_336\n        /* \"#utility.yul\":5415:5420   */\n      dup2\n        /* \"#utility.yul\":5380:5421   */\n      tag_257\n      jump\t// in\n    tag_336:\n        /* \"#utility.yul\":5272:5427   */\n      swap3\n      swap2\n      pop\n      pop\n      jump\t// out\n        /* \"#utility.yul\":5433:5939   */\n    tag_28:\n        /* \"#utility.yul\":5517:5523   */\n      0x00\n        /* \"#utility.yul\":5525:5531   */\n      0x00\n        /* \"#utility.yul\":5574:5576   */\n      0x40\n        /* \"#utility.yul\":5562:5571   */\n      dup4\n        /* \"#utility.yul\":5553:5560   */\n      dup6\n        /* \"#utility.yul\":5549:5572   */\n      sub\n        /* \"#utility.yul\":5545:5577   */\n      slt\n        /* \"#utility.yul\":5542:5661   */\n      iszero\n      tag_338\n      jumpi\n        /* \"#utility.yul\":5580:5659   */\n      tag_339\n      tag_254\n      jump\t// in\n    tag_339:\n        /* \"#utility.yul\":5542:5661   */\n    tag_338:\n        /* \"#utility.yul\":5700:5701   */\n      0x00\n        /* \"#utility.yul\":5725:5786   */\n      tag_340\n        /* \"#utility.yul\":5778:5785   */\n      dup6\n        /* \"#utility.yul\":5769:5775   */\n      dup3\n        /* \"#utility.yul\":5758:5767   */\n      dup7\n        /* \"#utility.yul\":5754:5776   */\n      add\n        /* \"#utility.yul\":5725:5786   */\n      tag_258\n      jump\t// in\n    tag_340:\n        /* \"#utility.yul\":5715:5786   */\n      swap3\n      pop\n        /* \"#utility.yul\":5671:5796   */\n      pop\n        /* \"#utility.yul\":5835:5837   */\n      0x20\n        /* \"#utility.yul\":5861:5922   */\n      tag_341\n        /* \"#utility.yul\":5914:5921   */\n      dup6\n        /* \"#utility.yul\":5905:5911   */\n      dup3\n        /* \"#utility.yul\":5894:5903   */\n      dup7\n        /* \"#utility.yul\":5890:5912   */\n      add\n        /* \"#utility.yul\":5861:5922   */\n      tag_258\n      jump\t// in\n    tag_341:\n        /* \"#utility.yul\":5851:5922   */\n      swap2\n      pop\n        /* \"#utility.yul\":5806:5932   */\n      pop\n        /* \"#utility.yul\":5433:5939   */\n      swap3\n      pop\n      swap3\n      swap1\n      pop\n      jump\t// out\n        /* \"#utility.yul\":5945:6063   */\n    tag_259:\n        /* \"#utility.yul\":6016:6038   */\n      tag_343\n        /* \"#utility.yul\":6032:6037   */\n      dup2\n        /* \"#utility.yul\":6016:6038   */\n      tag_245\n      jump\t// in\n    tag_343:\n        /* \"#utility.yul\":6009:6014   */\n      dup2\n        /* \"#utility.yul\":6006:6039   */\n      eq\n        /* \"#utility.yul\":5996:6057   */\n      tag_344\n      jumpi\n        /* \"#utility.yul\":6053:6054   */\n      0x00\n        /* \"#utility.yul\":6050:6051   */\n      0x00\n        /* \"#utility.yul\":6043:6055   */\n      revert\n        /* \"#utility.yul\":5996:6057   */\n    tag_344:\n        /* \"#utility.yul\":5945:6063   */\n      pop\n      jump\t// out\n        /* \"#utility.yul\":6069:6204   */\n    tag_260:\n        /* \"#utility.yul\":6113:6118   */\n      0x00\n        /* \"#utility.yul\":6151:6157   */\n      dup2\n        /* \"#utility.yul\":6138:6158   */\n      calldataload\n        /* \"#utility.yul\":6129:6158   */\n      swap1\n      pop\n        /* \"#utility.yul\":6167:6198   */\n      tag_346\n        /* \"#utility.yul\":6192:6197   */\n      dup2\n        /* \"#utility.yul\":6167:6198   */\n      tag_259\n      jump\t// in\n    tag_346:\n        /* \"#utility.yul\":6069:6204   */\n      swap3\n      swap2\n      pop\n      pop\n      jump\t// out\n        /* \"#utility.yul\":6210:6676   */\n    tag_32:\n        /* \"#utility.yul\":6274:6280   */\n      0x00\n        /* \"#utility.yul\":6282:6288   */\n      0x00\n        /* \"#utility.yul\":6331:6333   */\n      0x40\n        /* \"#utility.yul\":6319:6328   */\n      dup4\n        /* \"#utility.yul\":6310:6317   */\n      dup6\n        /* \"#utility.yul\":6306:6329   */\n      sub\n        /* \"#utility.yul\":6302:6334   */\n      slt\n        /* \"#utility.yul\":6299:6418   */\n      iszero\n      tag_348\n      jumpi\n        /* \"#utility.yul\":6337:6416   */\n      tag_349\n      tag_254\n      jump\t// in\n    tag_349:\n        /* \"#utility.yul\":6299:6418   */\n    tag_348:\n        /* \"#utility.yul\":6457:6458   */\n      0x00\n        /* \"#utility.yul\":6482:6533   */\n      tag_350\n        /* \"#utility.yul\":6525:6532   */\n      dup6\n        /* \"#utility.yul\":6516:6522   */\n      dup3\n        /* \"#utility.yul\":6505:6514   */\n      dup7\n        /* \"#utility.yul\":6501:6523   */\n      add\n        /* \"#utility.yul\":6482:6533   */\n      tag_260\n      jump\t// in\n    tag_350:\n        /* \"#utility.yul\":6472:6533   */\n      swap3\n      pop\n        /* \"#utility.yul\":6428:6543   */\n      pop\n        /* \"#utility.yul\":6582:6584   */\n      0x20\n        /* \"#utility.yul\":6608:6659   */\n      tag_351\n        /* \"#utility.yul\":6651:6658   */\n      dup6\n        /* \"#utility.yul\":6642:6648   */\n      dup3\n        /* \"#utility.yul\":6631:6640   */\n      dup7\n        /* \"#utility.yul\":6627:6649   */\n      add\n        /* \"#utility.yul\":6608:6659   */\n      tag_260\n      jump\t// in\n    tag_351:\n        /* \"#utility.yul\":6598:6659   */\n      swap2\n      pop\n        /* \"#utility.yul\":6553:6669   */\n      pop\n        /* \"#utility.yul\":6210:6676   */\n      swap3\n      pop\n      swap3\n      swap1\n      pop\n      jump\t// out\n        /* \"#utility.yul\":6682:6759   */\n    tag_261:\n        /* \"#utility.yul\":6719:6726   */\n      0x00\n        /* \"#utility.yul\":6748:6753   */\n      dup2\n        /* \"#utility.yul\":6737:6753   */\n      swap1\n      pop\n        /* \"#utility.yul\":6682:6759   */\n      swap2\n      swap1\n      pop\n      jump\t// out\n        /* \"#utility.yul\":6765:6887   */\n    tag_262:\n        /* \"#utility.yul\":6838:6862   */\n      tag_354\n        /* \"#utility.yul\":6856:6861   */\n      dup2\n        /* \"#utility.yul\":6838:6862   */\n      tag_261\n      jump\t// in\n    tag_354:\n        /* \"#utility.yul\":6831:6836   */\n      dup2\n        /* \"#utility.yul\":6828:6863   */\n      eq\n        /* \"#utility.yul\":6818:6881   */\n      tag_355\n      jumpi\n        /* \"#utility.yul\":6877:6878   */\n      0x00\n        /* \"#utility.yul\":6874:6875   */\n      0x00\n        /* \"#utility.yul\":6867:6879   */\n      revert\n        /* \"#utility.yul\":6818:6881   */\n    tag_355:\n        /* \"#utility.yul\":6765:6887   */\n      pop\n      jump\t// out\n        /* \"#utility.yul\":6893:7032   */\n    tag_263:\n        /* \"#utility.yul\":6939:6944   */\n      0x00\n        /* \"#utility.yul\":6977:6983   */\n      dup2\n        /* \"#utility.yul\":6964:6984   */\n      calldataload\n        /* \"#utility.yul\":6955:6984   */\n      swap1\n      pop\n        /* \"#utility.yul\":6993:7026   */\n      tag_357\n        /* \"#utility.yul\":7020:7025   */\n      dup2\n        /* \"#utility.yul\":6993:7026   */\n      tag_262\n      jump\t// in\n    tag_357:\n        /* \"#utility.yul\":6893:7032   */\n      swap3\n      swap2\n      pop\n      pop\n      jump\t// out\n        /* \"#utility.yul\":7038:7512   */\n    tag_36:\n        /* \"#utility.yul\":7106:7112   */\n      0x00\n        /* \"#utility.yul\":7114:7120   */\n      0x00\n        /* \"#utility.yul\":7163:7165   */\n      0x40\n        /* \"#utility.yul\":7151:7160   */\n      dup4\n        /* \"#utility.yul\":7142:7149   */\n      dup6\n        /* \"#utility.yul\":7138:7161   */\n      sub\n        /* \"#utility.yul\":7134:7166   */\n      slt\n        /* \"#utility.yul\":7131:7250   */\n      iszero\n      tag_359\n      jumpi\n        /* \"#utility.yul\":7169:7248   */\n      tag_360\n      tag_254\n      jump\t// in\n    tag_360:\n        /* \"#utility.yul\":7131:7250   */\n    tag_359:\n        /* \"#utility.yul\":7289:7290   */\n      0x00\n        /* \"#utility.yul\":7314:7367   */\n      tag_361\n        /* \"#utility.yul\":7359:7366   */\n      dup6\n        /* \"#utility.yul\":7350:7356   */\n      dup3\n        /* \"#utility.yul\":7339:7348   */\n      dup7\n        /* \"#utility.yul\":7335:7357   */\n      add\n        /* \"#utility.yul\":7314:7367   */\n      tag_263\n      jump\t// in\n    tag_361:\n        /* \"#utility.yul\":7304:7367   */\n      swap3\n      pop\n        /* \"#utility.yul\":7260:7377   */\n      pop\n        /* \"#utility.yul\":7416:7418   */\n      0x20\n        /* \"#utility.yul\":7442:7495   */\n      tag_362\n        /* \"#utility.yul\":7487:7494   */\n      dup6\n        /* \"#utility.yul\":7478:7484   */\n      dup3\n        /* \"#utility.yul\":7467:7476   */\n      dup7\n        /* \"#utility.yul\":7463:7485   */\n      add\n        /* \"#utility.yul\":7442:7495   */\n      tag_263\n      jump\t// in\n    tag_362:\n        /* \"#utility.yul\":7432:7495   */\n      swap2\n      pop\n        /* \"#utility.yul\":7387:7505   */\n      pop\n        /* \"#utility.yul\":7038:7512   */\n      swap3\n      pop\n      swap3\n      swap1\n      pop\n      jump\t// out\n        /* \"#utility.yul\":7518:7630   */\n    tag_264:\n        /* \"#utility.yul\":7601:7623   */\n      tag_364\n        /* \"#utility.yul\":7617:7622   */\n      dup2\n        /* \"#utility.yul\":7601:7623   */\n      tag_245\n      jump\t// in\n    tag_364:\n        /* \"#utility.yul\":7596:7599   */\n      dup3\n        /* \"#utility.yul\":7589:7624   */\n      mstore\n        /* \"#utility.yul\":7518:7630   */\n      pop\n      pop\n      jump\t// out\n        /* \"#utility.yul\":7636:7850   */\n    tag_39:\n        /* \"#utility.yul\":7725:7729   */\n      0x00\n        /* \"#utility.yul\":7763:7765   */\n      0x20\n        /* \"#utility.yul\":7752:7761   */\n      dup3\n        /* \"#utility.yul\":7748:7766   */\n      add\n        /* \"#utility.yul\":7740:7766   */\n      swap1\n      pop\n        /* \"#utility.yul\":7776:7843   */\n      tag_366\n        /* \"#utility.yul\":7840:7841   */\n      0x00\n        /* \"#utility.yul\":7829:7838   */\n      dup4\n        /* \"#utility.yul\":7825:7842   */\n      add\n        /* \"#utility.yul\":7816:7822   */\n      dup5\n        /* \"#utility.yul\":7776:7843   */\n      tag_264\n      jump\t// in\n    tag_366:\n        /* \"#utility.yul\":7636:7850   */\n      swap3\n      swap2\n      pop\n      pop\n      jump\t// out\n        /* \"#utility.yul\":7856:8188   */\n    tag_43:\n        /* \"#utility.yul\":7977:7981   */\n      0x00\n        /* \"#utility.yul\":8015:8017   */\n      0x40\n        /* \"#utility.yul\":8004:8013   */\n      dup3\n        /* \"#utility.yul\":8000:8018   */\n      add\n        /* \"#utility.yul\":7992:8018   */\n      swap1\n      pop\n        /* \"#utility.yul\":8028:8099   */\n      tag_368\n        /* \"#utility.yul\":8096:8097   */\n      0x00\n        /* \"#utility.yul\":8085:8094   */\n      dup4\n        /* \"#utility.yul\":8081:8098   */\n      add\n        /* \"#utility.yul\":8072:8078   */\n      dup6\n        /* \"#utility.yul\":8028:8099   */\n      tag_236\n      jump\t// in\n    tag_368:\n        /* \"#utility.yul\":8109:8181   */\n      tag_369\n        /* \"#utility.yul\":8177:8179   */\n      0x20\n        /* \"#utility.yul\":8166:8175   */\n      dup4\n        /* \"#utility.yul\":8162:8180   */\n      add\n        /* \"#utility.yul\":8153:8159   */\n      dup5\n        /* \"#utility.yul\":8109:8181   */\n      tag_236\n      jump\t// in\n    tag_369:\n        /* \"#utility.yul\":7856:8188   */\n      swap4\n      swap3\n      pop\n      pop\n      pop\n      jump\t// out\n        /* \"#utility.yul\":8194:8363   */\n    tag_265:\n        /* \"#utility.yul\":8278:8289   */\n      0x00\n        /* \"#utility.yul\":8312:8318   */\n      dup3\n        /* \"#utility.yul\":8307:8310   */\n      dup3\n        /* \"#utility.yul\":8300:8319   */\n      mstore\n        /* \"#utility.yul\":8352:8356   */\n      0x20\n        /* \"#utility.yul\":8347:8350   */\n      dup3\n        /* \"#utility.yul\":8343:8357   */\n      add\n        /* \"#utility.yul\":8328:8357   */\n      swap1\n      pop\n        /* \"#utility.yul\":8194:8363   */\n      swap3\n      swap2\n      pop\n      pop\n      jump\t// out\n        /* \"#utility.yul\":8369:8543   */\n    tag_266:\n        /* \"#utility.yul\":8509:8535   */\n      0x47616d6520616c726561647920696e697469616c697a65640000000000000000\n        /* \"#utility.yul\":8505:8506   */\n      0x00\n        /* \"#utility.yul\":8497:8503   */\n      dup3\n        /* \"#utility.yul\":8493:8507   */\n      add\n        /* \"#utility.yul\":8486:8536   */\n      mstore\n        /* \"#utility.yul\":8369:8543   */\n      pop\n      jump\t// out\n        /* \"#utility.yul\":8549:8915   */\n    tag_267:\n        /* \"#utility.yul\":8691:8694   */\n      0x00\n        /* \"#utility.yul\":8712:8779   */\n      tag_373\n        /* \"#utility.yul\":8776:8778   */\n      0x18\n        /* \"#utility.yul\":8771:8774   */\n      dup4\n        /* \"#utility.yul\":8712:8779   */\n      tag_265\n      jump\t// in\n    tag_373:\n        /* \"#utility.yul\":8705:8779   */\n      swap2\n      pop\n        /* \"#utility.yul\":8788:8881   */\n      tag_374\n        /* \"#utility.yul\":8877:8880   */\n      dup3\n        /* \"#utility.yul\":8788:8881   */\n      tag_266\n      jump\t// in\n    tag_374:\n        /* \"#utility.yul\":8906:8908   */\n      0x20\n        /* \"#utility.yul\":8901:8904   */\n      dup3\n        /* \"#utility.yul\":8897:8909   */\n      add\n        /* \"#utility.yul\":8890:8909   */\n      swap1\n      pop\n        /* \"#utility.yul\":8549:8915   */\n      swap2\n      swap1\n      pop\n      jump\t// out\n        /* \"#utility.yul\":8921:9340   */\n    tag_64:\n        /* \"#utility.yul\":9087:9091   */\n      0x00\n        /* \"#utility.yul\":9125:9127   */\n      0x20\n        /* \"#utility.yul\":9114:9123   */\n      dup3\n        /* \"#utility.yul\":9110:9128   */\n      add\n        /* \"#utility.yul\":9102:9128   */\n      swap1\n      pop\n        /* \"#utility.yul\":9174:9183   */\n      dup2\n        /* \"#utility.yul\":9168:9172   */\n      dup2\n        /* \"#utility.yul\":9164:9184   */\n      sub\n        /* \"#utility.yul\":9160:9161   */\n      0x00\n        /* \"#utility.yul\":9149:9158   */\n      dup4\n        /* \"#utility.yul\":9145:9162   */\n      add\n        /* \"#utility.yul\":9138:9185   */\n      mstore\n        /* \"#utility.yul\":9202:9333   */\n      tag_376\n        /* \"#utility.yul\":9328:9332   */\n      dup2\n        /* \"#utility.yul\":9202:9333   */\n      tag_267\n      jump\t// in\n    tag_376:\n        /* \"#utility.yul\":9194:9333   */\n      swap1\n      pop\n        /* \"#utility.yul\":8921:9340   */\n      swap2\n      swap1\n      pop\n      jump\t// out\n        /* \"#utility.yul\":9346:9574   */\n    tag_268:\n        /* \"#utility.yul\":9486:9520   */\n      0x4f7468657220706c61796572206d75737420757365206120646966666572656e\n        /* \"#utility.yul\":9482:9483   */\n      0x00\n        /* \"#utility.yul\":9474:9480   */\n      dup3\n        /* \"#utility.yul\":9470:9484   */\n      add\n        /* \"#utility.yul\":9463:9521   */\n      mstore\n        /* \"#utility.yul\":9555:9566   */\n      0x7420616464726573730000000000000000000000000000000000000000000000\n        /* \"#utility.yul\":9550:9552   */\n      0x20\n        /* \"#utility.yul\":9542:9548   */\n      dup3\n        /* \"#utility.yul\":9538:9553   */\n      add\n        /* \"#utility.yul\":9531:9567   */\n      mstore\n        /* \"#utility.yul\":9346:9574   */\n      pop\n      jump\t// out\n        /* \"#utility.yul\":9580:9946   */\n    tag_269:\n        /* \"#utility.yul\":9722:9725   */\n      0x00\n        /* \"#utility.yul\":9743:9810   */\n      tag_379\n        /* \"#utility.yul\":9807:9809   */\n      0x29\n        /* \"#utility.yul\":9802:9805   */\n      dup4\n        /* \"#utility.yul\":9743:9810   */\n      tag_265\n      jump\t// in\n    tag_379:\n        /* \"#utility.yul\":9736:9810   */\n      swap2\n      pop\n        /* \"#utility.yul\":9819:9912   */\n      tag_380\n        /* \"#utility.yul\":9908:9911   */\n      dup3\n        /* \"#utility.yul\":9819:9912   */\n      tag_268\n      jump\t// in\n    tag_380:\n        /* \"#utility.yul\":9937:9939   */\n      0x40\n        /* \"#utility.yul\":9932:9935   */\n      dup3\n        /* \"#utility.yul\":9928:9940   */\n      add\n        /* \"#utility.yul\":9921:9940   */\n      swap1\n      pop\n        /* \"#utility.yul\":9580:9946   */\n      swap2\n      swap1\n      pop\n      jump\t// out\n        /* \"#utility.yul\":9952:10371   */\n    tag_67:\n        /* \"#utility.yul\":10118:10122   */\n      0x00\n        /* \"#utility.yul\":10156:10158   */\n      0x20\n        /* \"#utility.yul\":10145:10154   */\n      dup3\n        /* \"#utility.yul\":10141:10159   */\n      add\n        /* \"#utility.yul\":10133:10159   */\n      swap1\n      pop\n        /* \"#utility.yul\":10205:10214   */\n      dup2\n        /* \"#utility.yul\":10199:10203   */\n      dup2\n        /* \"#utility.yul\":10195:10215   */\n      sub\n        /* \"#utility.yul\":10191:10192   */\n      0x00\n        /* \"#utility.yul\":10180:10189   */\n      dup4\n        /* \"#utility.yul\":10176:10193   */\n      add\n        /* \"#utility.yul\":10169:10216   */\n      mstore\n        /* \"#utility.yul\":10233:10364   */\n      tag_382\n        /* \"#utility.yul\":10359:10363   */\n      dup2\n        /* \"#utility.yul\":10233:10364   */\n      tag_269\n      jump\t// in\n    tag_382:\n        /* \"#utility.yul\":10225:10364   */\n      swap1\n      pop\n        /* \"#utility.yul\":9952:10371   */\n      swap2\n      swap1\n      pop\n      jump\t// out\n        /* \"#utility.yul\":10377:10544   */\n    tag_270:\n        /* \"#utility.yul\":10517:10536   */\n      0x5468652067616d65206973206f7665722e000000000000000000000000000000\n        /* \"#utility.yul\":10513:10514   */\n      0x00\n        /* \"#utility.yul\":10505:10511   */\n      dup3\n        /* \"#utility.yul\":10501:10515   */\n      add\n        /* \"#utility.yul\":10494:10537   */\n      mstore\n        /* \"#utility.yul\":10377:10544   */\n      pop\n      jump\t// out\n        /* \"#utility.yul\":10550:10916   */\n    tag_271:\n        /* \"#utility.yul\":10692:10695   */\n      0x00\n        /* \"#utility.yul\":10713:10780   */\n      tag_385\n        /* \"#utility.yul\":10777:10779   */\n      0x11\n        /* \"#utility.yul\":10772:10775   */\n      dup4\n        /* \"#utility.yul\":10713:10780   */\n      tag_265\n      jump\t// in\n    tag_385:\n        /* \"#utility.yul\":10706:10780   */\n      swap2\n      pop\n        /* \"#utility.yul\":10789:10882   */\n      tag_386\n        /* \"#utility.yul\":10878:10881   */\n      dup3\n        /* \"#utility.yul\":10789:10882   */\n      tag_270\n      jump\t// in\n    tag_386:\n        /* \"#utility.yul\":10907:10909   */\n      0x20\n        /* \"#utility.yul\":10902:10905   */\n      dup3\n        /* \"#utility.yul\":10898:10910   */\n      add\n        /* \"#utility.yul\":10891:10910   */\n      swap1\n      pop\n        /* \"#utility.yul\":10550:10916   */\n      swap2\n      swap1\n      pop\n      jump\t// out\n        /* \"#utility.yul\":10922:11341   */\n    tag_71:\n        /* \"#utility.yul\":11088:11092   */\n      0x00\n        /* \"#utility.yul\":11126:11128   */\n      0x20\n        /* \"#utility.yul\":11115:11124   */\n      dup3\n        /* \"#utility.yul\":11111:11129   */\n      add\n        /* \"#utility.yul\":11103:11129   */\n      swap1\n      pop\n        /* \"#utility.yul\":11175:11184   */\n      dup2\n        /* \"#utility.yul\":11169:11173   */\n      dup2\n        /* \"#utility.yul\":11165:11185   */\n      sub\n        /* \"#utility.yul\":11161:11162   */\n      0x00\n        /* \"#utility.yul\":11150:11159   */\n      dup4\n        /* \"#utility.yul\":11146:11163   */\n      add\n        /* \"#utility.yul\":11139:11186   */\n      mstore\n        /* \"#utility.yul\":11203:11334   */\n      tag_388\n        /* \"#utility.yul\":11329:11333   */\n      dup2\n        /* \"#utility.yul\":11203:11334   */\n      tag_271\n      jump\t// in\n    tag_388:\n        /* \"#utility.yul\":11195:11334   */\n      swap1\n      pop\n        /* \"#utility.yul\":10922:11341   */\n      swap2\n      swap1\n      pop\n      jump\t// out\n        /* \"#utility.yul\":11347:11516   */\n    tag_272:\n        /* \"#utility.yul\":11487:11508   */\n      0x49742773206e6f7420796f7572207475726e2e00000000000000000000000000\n        /* \"#utility.yul\":11483:11484   */\n      0x00\n        /* \"#utility.yul\":11475:11481   */\n      dup3\n        /* \"#utility.yul\":11471:11485   */\n      add\n        /* \"#utility.yul\":11464:11509   */\n      mstore\n        /* \"#utility.yul\":11347:11516   */\n      pop\n      jump\t// out\n        /* \"#utility.yul\":11522:11888   */\n    tag_273:\n        /* \"#utility.yul\":11664:11667   */\n      0x00\n        /* \"#utility.yul\":11685:11752   */\n      tag_391\n        /* \"#utility.yul\":11749:11751   */\n      0x13\n        /* \"#utility.yul\":11744:11747   */\n      dup4\n        /* \"#utility.yul\":11685:11752   */\n      tag_265\n      jump\t// in\n    tag_391:\n        /* \"#utility.yul\":11678:11752   */\n      swap2\n      pop\n        /* \"#utility.yul\":11761:11854   */\n      tag_392\n        /* \"#utility.yul\":11850:11853   */\n      dup3\n        /* \"#utility.yul\":11761:11854   */\n      tag_272\n      jump\t// in\n    tag_392:\n        /* \"#utility.yul\":11879:11881   */\n      0x20\n        /* \"#utility.yul\":11874:11877   */\n      dup3\n        /* \"#utility.yul\":11870:11882   */\n      add\n        /* \"#utility.yul\":11863:11882   */\n      swap1\n      pop\n        /* \"#utility.yul\":11522:11888   */\n      swap2\n      swap1\n      pop\n      jump\t// out\n        /* \"#utility.yul\":11894:12313   */\n    tag_74:\n        /* \"#utility.yul\":12060:12064   */\n      0x00\n        /* \"#utility.yul\":12098:12100   */\n      0x20\n        /* \"#utility.yul\":12087:12096   */\n      dup3\n        /* \"#utility.yul\":12083:12101   */\n      add\n        /* \"#utility.yul\":12075:12101   */\n      swap1\n      pop\n        /* \"#utility.yul\":12147:12156   */\n      dup2\n        /* \"#utility.yul\":12141:12145   */\n      dup2\n        /* \"#utility.yul\":12137:12157   */\n      sub\n        /* \"#utility.yul\":12133:12134   */\n      0x00\n        /* \"#utility.yul\":12122:12131   */\n      dup4\n        /* \"#utility.yul\":12118:12135   */\n      add\n        /* \"#utility.yul\":12111:12158   */\n      mstore\n        /* \"#utility.yul\":12175:12306   */\n      tag_394\n        /* \"#utility.yul\":12301:12305   */\n      dup2\n        /* \"#utility.yul\":12175:12306   */\n      tag_273\n      jump\t// in\n    tag_394:\n        /* \"#utility.yul\":12167:12306   */\n      swap1\n      pop\n        /* \"#utility.yul\":11894:12313   */\n      swap2\n      swap1\n      pop\n      jump\t// out\n        /* \"#utility.yul\":12319:12500   */\n    tag_274:\n        /* \"#utility.yul\":12459:12492   */\n      0x496e76616c696420726f77206f7220636f6c756d6e20706c6163656d656e7400\n        /* \"#utility.yul\":12455:12456   */\n      0x00\n        /* \"#utility.yul\":12447:12453   */\n      dup3\n        /* \"#utility.yul\":12443:12457   */\n      add\n        /* \"#utility.yul\":12436:12493   */\n      mstore\n        /* \"#utility.yul\":12319:12500   */\n      pop\n      jump\t// out\n        /* \"#utility.yul\":12506:12872   */\n    tag_275:\n        /* \"#utility.yul\":12648:12651   */\n      0x00\n        /* \"#utility.yul\":12669:12736   */\n      tag_397\n        /* \"#utility.yul\":12733:12735   */\n      0x1f\n        /* \"#utility.yul\":12728:12731   */\n      dup4\n        /* \"#utility.yul\":12669:12736   */\n      tag_265\n      jump\t// in\n    tag_397:\n        /* \"#utility.yul\":12662:12736   */\n      swap2\n      pop\n        /* \"#utility.yul\":12745:12838   */\n      tag_398\n        /* \"#utility.yul\":12834:12837   */\n      dup3\n        /* \"#utility.yul\":12745:12838   */\n      tag_274\n      jump\t// in\n    tag_398:\n        /* \"#utility.yul\":12863:12865   */\n      0x20\n        /* \"#utility.yul\":12858:12861   */\n      dup3\n        /* \"#utility.yul\":12854:12866   */\n      add\n        /* \"#utility.yul\":12847:12866   */\n      swap1\n      pop\n        /* \"#utility.yul\":12506:12872   */\n      swap2\n      swap1\n      pop\n      jump\t// out\n        /* \"#utility.yul\":12878:13297   */\n    tag_78:\n        /* \"#utility.yul\":13044:13048   */\n      0x00\n        /* \"#utility.yul\":13082:13084   */\n      0x20\n        /* \"#utility.yul\":13071:13080   */\n      dup3\n        /* \"#utility.yul\":13067:13085   */\n      add\n        /* \"#utility.yul\":13059:13085   */\n      swap1\n      pop\n        /* \"#utility.yul\":13131:13140   */\n      dup2\n        /* \"#utility.yul\":13125:13129   */\n      dup2\n        /* \"#utility.yul\":13121:13141   */\n      sub\n        /* \"#utility.yul\":13117:13118   */\n      0x00\n        /* \"#utility.yul\":13106:13115   */\n      dup4\n        /* \"#utility.yul\":13102:13119   */\n      add\n        /* \"#utility.yul\":13095:13142   */\n      mstore\n        /* \"#utility.yul\":13159:13290   */\n      tag_400\n        /* \"#utility.yul\":13285:13289   */\n      dup2\n        /* \"#utility.yul\":13159:13290   */\n      tag_275\n      jump\t// in\n    tag_400:\n        /* \"#utility.yul\":13151:13290   */\n      swap1\n      pop\n        /* \"#utility.yul\":12878:13297   */\n      swap2\n      swap1\n      pop\n      jump\t// out\n        /* \"#utility.yul\":13303:13483   */\n    tag_81:\n        /* \"#utility.yul\":13351:13428   */\n      0x4e487b7100000000000000000000000000000000000000000000000000000000\n        /* \"#utility.yul\":13348:13349   */\n      0x00\n        /* \"#utility.yul\":13341:13429   */\n      mstore\n        /* \"#utility.yul\":13448:13452   */\n      0x32\n        /* \"#utility.yul\":13445:13446   */\n      0x04\n        /* \"#utility.yul\":13438:13453   */\n      mstore\n        /* \"#utility.yul\":13472:13476   */\n      0x24\n        /* \"#utility.yul\":13469:13470   */\n      0x00\n        /* \"#utility.yul\":13462:13477   */\n      revert\n        /* \"#utility.yul\":13489:13661   */\n    tag_276:\n        /* \"#utility.yul\":13629:13653   */\n      0x43656c6c20697320616c72656164792074616b656e2e00000000000000000000\n        /* \"#utility.yul\":13625:13626   */\n      0x00\n        /* \"#utility.yul\":13617:13623   */\n      dup3\n        /* \"#utility.yul\":13613:13627   */\n      add\n        /* \"#utility.yul\":13606:13654   */\n      mstore\n        /* \"#utility.yul\":13489:13661   */\n      pop\n      jump\t// out\n        /* \"#utility.yul\":13667:14033   */\n    tag_277:\n        /* \"#utility.yul\":13809:13812   */\n      0x00\n        /* \"#utility.yul\":13830:13897   */\n      tag_404\n        /* \"#utility.yul\":13894:13896   */\n      0x16\n        /* \"#utility.yul\":13889:13892   */\n      dup4\n        /* \"#utility.yul\":13830:13897   */\n      tag_265\n      jump\t// in\n    tag_404:\n        /* \"#utility.yul\":13823:13897   */\n      swap2\n      pop\n        /* \"#utility.yul\":13906:13999   */\n      tag_405\n        /* \"#utility.yul\":13995:13998   */\n      dup3\n        /* \"#utility.yul\":13906:13999   */\n      tag_276\n      jump\t// in\n    tag_405:\n        /* \"#utility.yul\":14024:14026   */\n      0x20\n        /* \"#utility.yul\":14019:14022   */\n      dup3\n        /* \"#utility.yul\":14015:14027   */\n      add\n        /* \"#utility.yul\":14008:14027   */\n      swap1\n      pop\n        /* \"#utility.yul\":13667:14033   */\n      swap2\n      swap1\n      pop\n      jump\t// out\n        /* \"#utility.yul\":14039:14458   */\n    tag_88:\n        /* \"#utility.yul\":14205:14209   */\n      0x00\n        /* \"#utility.yul\":14243:14245   */\n      0x20\n        /* \"#utility.yul\":14232:14241   */\n      dup3\n        /* \"#utility.yul\":14228:14246   */\n      add\n        /* \"#utility.yul\":14220:14246   */\n      swap1\n      pop\n        /* \"#utility.yul\":14292:14301   */\n      dup2\n        /* \"#utility.yul\":14286:14290   */\n      dup2\n        /* \"#utility.yul\":14282:14302   */\n      sub\n        /* \"#utility.yul\":14278:14279   */\n      0x00\n        /* \"#utility.yul\":14267:14276   */\n      dup4\n        /* \"#utility.yul\":14263:14280   */\n      add\n        /* \"#utility.yul\":14256:14303   */\n      mstore\n        /* \"#utility.yul\":14320:14451   */\n      tag_407\n        /* \"#utility.yul\":14446:14450   */\n      dup2\n        /* \"#utility.yul\":14320:14451   */\n      tag_277\n      jump\t// in\n    tag_407:\n        /* \"#utility.yul\":14312:14451   */\n      swap1\n      pop\n        /* \"#utility.yul\":14039:14458   */\n      swap2\n      swap1\n      pop\n      jump\t// out\n        /* \"#utility.yul\":14464:14644   */\n    tag_278:\n        /* \"#utility.yul\":14512:14589   */\n      0x4e487b7100000000000000000000000000000000000000000000000000000000\n        /* \"#utility.yul\":14509:14510   */\n      0x00\n        /* \"#utility.yul\":14502:14590   */\n      mstore\n        /* \"#utility.yul\":14609:14613   */\n      0x11\n        /* \"#utility.yul\":14606:14607   */\n      0x04\n        /* \"#utility.yul\":14599:14614   */\n      mstore\n        /* \"#utility.yul\":14633:14637   */\n      0x24\n        /* \"#utility.yul\":14630:14631   */\n      0x00\n        /* \"#utility.yul\":14623:14638   */\n      revert\n        /* \"#utility.yul\":14650:14817   */\n    tag_225:\n        /* \"#utility.yul\":14687:14690   */\n      0x00\n        /* \"#utility.yul\":14710:14732   */\n      tag_410\n        /* \"#utility.yul\":14726:14731   */\n      dup3\n        /* \"#utility.yul\":14710:14732   */\n      tag_245\n      jump\t// in\n    tag_410:\n        /* \"#utility.yul\":14701:14732   */\n      swap2\n      pop\n        /* \"#utility.yul\":14754:14758   */\n      0xff\n        /* \"#utility.yul\":14747:14752   */\n      dup3\n        /* \"#utility.yul\":14744:14759   */\n      sub\n        /* \"#utility.yul\":14741:14782   */\n      tag_411\n      jumpi\n        /* \"#utility.yul\":14762:14780   */\n      tag_412\n      tag_278\n      jump\t// in\n    tag_412:\n        /* \"#utility.yul\":14741:14782   */\n    tag_411:\n        /* \"#utility.yul\":14809:14810   */\n      0x01\n        /* \"#utility.yul\":14802:14807   */\n      dup3\n        /* \"#utility.yul\":14798:14811   */\n      add\n        /* \"#utility.yul\":14791:14811   */\n      swap1\n      pop\n        /* \"#utility.yul\":14650:14817   */\n      swap2\n      swap1\n      pop\n      jump\t// out\n\n    auxdata: 0xa26469706673582212208e32e88cd6c546f941eedc1c06abb736010989283f2ca4e7a4afc42cd26a506764736f6c634300081e0033\n}\n",
				"bytecode": {
					"linkReferences": {},
					"object": "6080604052348015600e575f5ffd5b5061185b8061001c5f395ff3fe608060405234801561000f575f5ffd5b506004361061009c575f3560e01c80638086a92a116100645780638086a92a146101325780638b5b9ccc14610162578063c06af99614610181578063d9a4264c1461019f578063dfbf53ae146101bd5761009c565b806304a93605146100a05780630e04a7d8146100be5780632420f7f0146100dc578063485cc955146100fa5780635e24b0f114610116575b5f5ffd5b6100a86101db565b6040516100b591906111ab565b60405180910390f35b6100c6610200565b6040516100d391906111de565b60405180910390f35b6100e4610213565b6040516100f1919061133e565b60405180910390f35b610114600480360381019061010f9190611397565b6102b5565b005b610130600480360381019061012b91906113ff565b610585565b005b61014c60048036038101906101479190611470565b61085e565b60405161015991906114bd565b60405180910390f35b61016a610897565b6040516101789291906114d6565b60405180910390f35b6101896108e5565b60405161019691906111ab565b60405180910390f35b6101a761090d565b6040516101b491906111ab565b60405180910390f35b6101c5610935565b6040516101d291906111ab565b60405180910390f35b60055f9054906101000a900473ffffffffffffffffffffffffffffffffffffffff1681565b600560149054906101000a900460ff1681565b61021b61111d565b5f600380602002604051908101604052809291905f905b828210156102ac57838201600380602002604051908101604052809291908260038015610298576020028201915f905b82829054906101000a900460ff1660ff16815260200190600101906020825f010492830192600103820291508084116102625790505b505050505081526020019060010190610232565b50505050905090565b5f73ffffffffffffffffffffffffffffffffffffffff1660035f9054906101000a900473ffffffffffffffffffffffffffffffffffffffff1673ffffffffffffffffffffffffffffffffffffffff1614610344576040517f08c379a000000000000000000000000000000000000000000000000000000000815260040161033b90611557565b60405180910390fd5b8160035f6101000a81548173ffffffffffffffffffffffffffffffffffffffff021916908373ffffffffffffffffffffffffffffffffffffffff16021790555060035f9054906101000a900473ffffffffffffffffffffffffffffffffffffffff1673ffffffffffffffffffffffffffffffffffffffff168173ffffffffffffffffffffffffffffffffffffffff1603610413576040517f08c379a000000000000000000000000000000000000000000000000000000000815260040161040a906115e5565b60405180910390fd5b8060045f6101000a81548173ffffffffffffffffffffffffffffffffffffffff021916908373ffffffffffffffffffffffffffffffffffffffff16021790555060035f9054906101000a900473ffffffffffffffffffffffffffffffffffffffff1660055f6101000a81548173ffffffffffffffffffffffffffffffffffffffff021916908373ffffffffffffffffffffffffffffffffffffffff1602179055505f600560146101000a81548160ff02191690831515021790555060045f9054906101000a900473ffffffffffffffffffffffffffffffffffffffff1673ffffffffffffffffffffffffffffffffffffffff1660035f9054906101000a900473ffffffffffffffffffffffffffffffffffffffff1673ffffffffffffffffffffffffffffffffffffffff163073ffffffffffffffffffffffffffffffffffffffff167fe733eb5c42c855d38269254700780d064a49ef1611d1f3bfdda632ec19891f5660405160405180910390a45050565b600560149054906101000a900460ff16156105d5576040517f08c379a00000000000000000000000000000000000000000000000000000000081526004016105cc9061164d565b60405180910390fd5b60055f9054906101000a900473ffffffffffffffffffffffffffffffffffffffff1673ffffffffffffffffffffffffffffffffffffffff163373ffffffffffffffffffffffffffffffffffffffff1614610664576040517f08c379a000000000000000000000000000000000000000000000000000000000815260040161065b906116b5565b60405180910390fd5b60038260ff1610801561067a575060038160ff16105b6106b9576040517f08c379a00000000000000000000000000000000000000000000000000000000081526004016106b09061171d565b60405180910390fd5b5f5f8360ff16600381106106d0576106cf61173b565b5b018260ff16600381106106e6576106e561173b565b5b602091828204019190069054906101000a900460ff1660ff161461073f576040517f08c379a0000000000000000000000000000000000000000000000000000000008152600401610736906117b2565b60405180910390fd5b60035f9054906101000a900473ffffffffffffffffffffffffffffffffffffffff1673ffffffffffffffffffffffffffffffffffffffff163373ffffffffffffffffffffffffffffffffffffffff16036107e65760015f8360ff16600381106107ab576107aa61173b565b5b018260ff16600381106107c1576107c061173b565b5b602091828204019190066101000a81548160ff021916908360ff160217905550610835565b60025f8360ff16600381106107fe576107fd61173b565b5b018260ff16600381106108145761081361173b565b5b602091828204019190066101000a81548160ff021916908360ff1602179055505b61083d61095a565b600560149054906101000a900460ff1661085a57610859610f1e565b5b5050565b5f826003811061086c575f80fd5b01816003811061087a575f80fd5b60209182820401919006915091509054906101000a900460ff1681565b5f5f60035f9054906101000a900473ffffffffffffffffffffffffffffffffffffffff1660045f9054906101000a900473ffffffffffffffffffffffffffffffffffffffff16915091509091565b5f60045f9054906101000a900473ffffffffffffffffffffffffffffffffffffffff16905090565b5f60035f9054906101000a900473ffffffffffffffffffffffffffffffffffffffff16905090565b60065f9054906101000a900473ffffffffffffffffffffffffffffffffffffffff1681565b5f60035f9054906101000a900473ffffffffffffffffffffffffffffffffffffffff1673ffffffffffffffffffffffffffffffffffffffff163373ffffffffffffffffffffffffffffffffffffffff16036109b857600190506109bd565b600290505b5f5f90505b60038160ff161015610bd1578160ff165f8260ff16600381106109e8576109e761173b565b5b015f600381106109fb576109fa61173b565b5b602091828204019190069054906101000a900460ff1660ff16148015610a6557508160ff165f8260ff1660038110610a3657610a3561173b565b5b01600160038110610a4a57610a4961173b565b5b602091828204019190069054906101000a900460ff1660ff16145b8015610ab557508160ff165f8260ff1660038110610a8657610a8561173b565b5b01600260038110610a9a57610a9961173b565b5b602091828204019190069054906101000a900460ff1660ff16145b15610ac957610ac261105c565b5050610f1c565b8160ff165f5f60038110610ae057610adf61173b565b5b018260ff1660038110610af657610af561173b565b5b602091828204019190069054906101000a900460ff1660ff16148015610b6057508160ff165f600160038110610b2f57610b2e61173b565b5b018260ff1660038110610b4557610b4461173b565b5b602091828204019190069054906101000a900460ff1660ff16145b8015610bb057508160ff165f600260038110610b7f57610b7e61173b565b5b018260ff1660038110610b9557610b9461173b565b5b602091828204019190069054906101000a900460ff1660ff16145b15610bc457610bbd61105c565b5050610f1c565b80806001019150506109c2565b508060ff165f5f60038110610be957610be861173b565b5b015f60038110610bfc57610bfb61173b565b5b602091828204019190069054906101000a900460ff1660ff16148015610c6457508060ff165f600160038110610c3557610c3461173b565b5b01600160038110610c4957610c4861173b565b5b602091828204019190069054906101000a900460ff1660ff16145b8015610cb257508060ff165f600260038110610c8357610c8261173b565b5b01600260038110610c9757610c9661173b565b5b602091828204019190069054906101000a900460ff1660ff16145b15610cc557610cbf61105c565b50610f1c565b8060ff165f5f60038110610cdc57610cdb61173b565b5b01600260038110610cf057610cef61173b565b5b602091828204019190069054906101000a900460ff1660ff16148015610d5857508060ff165f600160038110610d2957610d2861173b565b5b01600160038110610d3d57610d3c61173b565b5b602091828204019190069054906101000a900460ff1660ff16145b8015610da557508060ff165f600260038110610d7757610d7661173b565b5b015f60038110610d8a57610d8961173b565b5b602091828204019190069054906101000a900460ff1660ff16145b15610db857610db261105c565b50610f1c565b5f5f90505f5f90505b6003811015610e4d575f5f90505b60038160ff161015610e3f575f5f8360038110610def57610dee61173b565b5b018260ff1660038110610e0557610e0461173b565b5b602091828204019190069054906101000a900460ff1660ff1614610e32578280610e2e906117fd565b9350505b8080600101915050610dcf565b508080600101915050610dc1565b5060098160ff1603610f19576001600560146101000a81548160ff0219169083151502179055505f60065f6101000a81548173ffffffffffffffffffffffffffffffffffffffff021916908373ffffffffffffffffffffffffffffffffffffffff16021790555060065f9054906101000a900473ffffffffffffffffffffffffffffffffffffffff1673ffffffffffffffffffffffffffffffffffffffff167f51b77d00d3c0b7e376e9ee146711ceb2c08e58a5dbe38055a618e52109f720c160405160405180910390a25b50505b565b60035f9054906101000a900473ffffffffffffffffffffffffffffffffffffffff1673ffffffffffffffffffffffffffffffffffffffff1660055f9054906101000a900473ffffffffffffffffffffffffffffffffffffffff1673ffffffffffffffffffffffffffffffffffffffff1614610ff85760035f9054906101000a900473ffffffffffffffffffffffffffffffffffffffff1660055f6101000a81548173ffffffffffffffffffffffffffffffffffffffff021916908373ffffffffffffffffffffffffffffffffffffffff1602179055611059565b60045f9054906101000a900473ffffffffffffffffffffffffffffffffffffffff1660055f6101000a81548173ffffffffffffffffffffffffffffffffffffffff021916908373ffffffffffffffffffffffffffffffffffffffff16021790555b50565b6001600560146101000a81548160ff0219169083151502179055503360065f6101000a81548173ffffffffffffffffffffffffffffffffffffffff021916908373ffffffffffffffffffffffffffffffffffffffff16021790555060065f9054906101000a900473ffffffffffffffffffffffffffffffffffffffff1673ffffffffffffffffffffffffffffffffffffffff167f51b77d00d3c0b7e376e9ee146711ceb2c08e58a5dbe38055a618e52109f720c160405160405180910390a2565b60405180606001604052806003905b61113461114a565b81526020019060019003908161112c5790505090565b6040518060600160405280600390602082028036833780820191505090505090565b5f73ffffffffffffffffffffffffffffffffffffffff82169050919050565b5f6111958261116c565b9050919050565b6111a58161118b565b82525050565b5f6020820190506111be5f83018461119c565b92915050565b5f8115159050919050565b6111d8816111c4565b82525050565b5f6020820190506111f15f8301846111cf565b92915050565b5f60039050919050565b5f81905092915050565b5f819050919050565b5f60039050919050565b5f81905092915050565b5f819050919050565b5f60ff82169050919050565b61124681611231565b82525050565b5f611257838361123d565b60208301905092915050565b5f602082019050919050565b61127881611214565b611282818461121e565b925061128d82611228565b805f5b838110156112bd5781516112a4878261124c565b96506112af83611263565b925050600181019050611290565b505050505050565b5f6112d0838361126f565b60608301905092915050565b5f602082019050919050565b6112f1816111f7565b6112fb8184611201565b92506113068261120b565b805f5b8381101561133657815161131d87826112c5565b9650611328836112dc565b925050600181019050611309565b505050505050565b5f610120820190506113525f8301846112e8565b92915050565b5f5ffd5b5f6113668261116c565b9050919050565b6113768161135c565b8114611380575f5ffd5b50565b5f813590506113918161136d565b92915050565b5f5f604083850312156113ad576113ac611358565b5b5f6113ba85828601611383565b92505060206113cb85828601611383565b9150509250929050565b6113de81611231565b81146113e8575f5ffd5b50565b5f813590506113f9816113d5565b92915050565b5f5f6040838503121561141557611414611358565b5b5f611422858286016113eb565b9250506020611433858286016113eb565b9150509250929050565b5f819050919050565b61144f8161143d565b8114611459575f5ffd5b50565b5f8135905061146a81611446565b92915050565b5f5f6040838503121561148657611485611358565b5b5f6114938582860161145c565b92505060206114a48582860161145c565b9150509250929050565b6114b781611231565b82525050565b5f6020820190506114d05f8301846114ae565b92915050565b5f6040820190506114e95f83018561119c565b6114f6602083018461119c565b9392505050565b5f82825260208201905092915050565b7f47616d6520616c726561647920696e697469616c697a656400000000000000005f82015250565b5f6115416018836114fd565b915061154c8261150d565b602082019050919050565b5f6020820190508181035f83015261156e81611535565b9050919050565b7f4f7468657220706c61796572206d75737420757365206120646966666572656e5f8201527f7420616464726573730000000000000000000000000000000000000000000000602082015250565b5f6115cf6029836114fd565b91506115da82611575565b604082019050919050565b5f6020820190508181035f8301526115fc816115c3565b9050919050565b7f5468652067616d65206973206f7665722e0000000000000000000000000000005f82015250565b5f6116376011836114fd565b915061164282611603565b602082019050919050565b5f6020820190508181035f8301526116648161162b565b9050919050565b7f49742773206e6f7420796f7572207475726e2e000000000000000000000000005f82015250565b5f61169f6013836114fd565b91506116aa8261166b565b602082019050919050565b5f6020820190508181035f8301526116cc81611693565b9050919050565b7f496e76616c696420726f77206f7220636f6c756d6e20706c6163656d656e74005f82015250565b5f611707601f836114fd565b9150611712826116d3565b602082019050919050565b5f6020820190508181035f830152611734816116fb565b9050919050565b7f4e487b71000000000000000000000000000000000000000000000000000000005f52603260045260245ffd5b7f43656c6c20697320616c72656164792074616b656e2e000000000000000000005f82015250565b5f61179c6016836114fd565b91506117a782611768565b602082019050919050565b5f6020820190508181035f8301526117c981611790565b9050919050565b7f4e487b71000000000000000000000000000000000000000000000000000000005f52601160045260245ffd5b5f61180782611231565b915060ff820361181a576118196117d0565b5b60018201905091905056fea26469706673582212208e32e88cd6c546f941eedc1c06abb736010989283f2ca4e7a4afc42cd26a506764736f6c634300081e0033",
					"opcodes": "PUSH1 0x80 PUSH1 0x40 MSTORE CALLVALUE DUP1 ISZERO PUSH1 0xE JUMPI PUSH0 PUSH0 REVERT JUMPDEST POP PUSH2 0x185B DUP1 PUSH2 0x1C PUSH0 CODECOPY PUSH0 RETURN INVALID PUSH1 0x80 PUSH1 0x40 MSTORE CALLVALUE DUP1 ISZERO PUSH2 0xF JUMPI PUSH0 PUSH0 REVERT JUMPDEST POP PUSH1 0x4 CALLDATASIZE LT PUSH2 0x9C JUMPI PUSH0 CALLDATALOAD PUSH1 0xE0 SHR DUP1 PUSH4 0x8086A92A GT PUSH2 0x64 JUMPI DUP1 PUSH4 0x8086A92A EQ PUSH2 0x132 JUMPI DUP1 PUSH4 0x8B5B9CCC EQ PUSH2 0x162 JUMPI DUP1 PUSH4 0xC06AF996 EQ PUSH2 0x181 JUMPI DUP1 PUSH4 0xD9A4264C EQ PUSH2 0x19F JUMPI DUP1 PUSH4 0xDFBF53AE EQ PUSH2 0x1BD JUMPI PUSH2 0x9C JUMP JUMPDEST DUP1 PUSH4 0x4A93605 EQ PUSH2 0xA0 JUMPI DUP1 PUSH4 0xE04A7D8 EQ PUSH2 0xBE JUMPI DUP1 PUSH4 0x2420F7F0 EQ PUSH2 0xDC JUMPI DUP1 PUSH4 0x485CC955 EQ PUSH2 0xFA JUMPI DUP1 PUSH4 0x5E24B0F1 EQ PUSH2 0x116 JUMPI JUMPDEST PUSH0 PUSH0 REVERT JUMPDEST PUSH2 0xA8 PUSH2 0x1DB JUMP JUMPDEST PUSH1 0x40 MLOAD PUSH2 0xB5 SWAP2 SWAP1 PUSH2 0x11AB JUMP JUMPDEST PUSH1 0x40 MLOAD DUP1 SWAP2 SUB SWAP1 RETURN JUMPDEST PUSH2 0xC6 PUSH2 0x200 JUMP JUMPDEST PUSH1 0x40 MLOAD PUSH2 0xD3 SWAP2 SWAP1 PUSH2 0x11DE JUMP JUMPDEST PUSH1 0x40 MLOAD DUP1 SWAP2 SUB SWAP1 RETURN JUMPDEST PUSH2 0xE4 PUSH2 0x213 JUMP JUMPDEST PUSH1 0x40 MLOAD PUSH2 0xF1 SWAP2 SWAP1 PUSH2 0x133E JUMP JUMPDEST PUSH1 0x40 MLOAD DUP1 SWAP2 SUB SWAP1 RETURN JUMPDEST PUSH2 0x114 PUSH1 0x4 DUP1 CALLDATASIZE SUB DUP2 ADD SWAP1 PUSH2 0x10F SWAP2 SWAP1 PUSH2 0x1397 JUMP JUMPDEST PUSH2 0x2B5 JUMP JUMPDEST STOP JUMPDEST PUSH2 0x130 PUSH1 0x4 DUP1 CALLDATASIZE SUB DUP2 ADD SWAP1 PUSH2 0x12B SWAP2 SWAP1 PUSH2 0x13FF JUMP JUMPDEST PUSH2 0x585 JUMP JUMPDEST STOP JUMPDEST PUSH2 0x14C PUSH1 0x4 DUP1 CALLDATASIZE SUB DUP2 ADD SWAP1 PUSH2 0x147 SWAP2 SWAP1 PUSH2 0x1470 JUMP JUMPDEST PUSH2 0x85E JUMP JUMPDEST PUSH1 0x40 MLOAD PUSH2 0x159 SWAP2 SWAP1 PUSH2 0x14BD JUMP JUMPDEST PUSH1 0x40 MLOAD DUP1 SWAP2 SUB SWAP1 RETURN JUMPDEST PUSH2 0x16A PUSH2 0x897 JUMP JUMPDEST PUSH1 0x40 MLOAD PUSH2 0x178 SWAP3 SWAP2 SWAP1 PUSH2 0x14D6 JUMP JUMPDEST PUSH1 0x40 MLOAD DUP1 SWAP2 SUB SWAP1 RETURN JUMPDEST PUSH2 0x189 PUSH2 0x8E5 JUMP JUMPDEST PUSH1 0x40 MLOAD PUSH2 0x196 SWAP2 SWAP1 PUSH2 0x11AB JUMP JUMPDEST PUSH1 0x40 MLOAD DUP1 SWAP2 SUB SWAP1 RETURN JUMPDEST PUSH2 0x1A7 PUSH2 0x90D JUMP JUMPDEST PUSH1 0x40 MLOAD PUSH2 0x1B4 SWAP2 SWAP1 PUSH2 0x11AB JUMP JUMPDEST PUSH1 0x40 MLOAD DUP1 SWAP2 SUB SWAP1 RETURN JUMPDEST PUSH2 0x1C5 PUSH2 0x935 JUMP JUMPDEST PUSH1 0x40 MLOAD PUSH2 0x1D2 SWAP2 SWAP1 PUSH2 0x11AB JUMP JUMPDEST PUSH1 0x40 MLOAD DUP1 SWAP2 SUB SWAP1 RETURN JUMPDEST PUSH1 0x5 PUSH0 SWAP1 SLOAD SWAP1 PUSH2 0x100 EXP SWAP1 DIV PUSH20 0xFFFFFFFFFFFFFFFFFFFFFFFFFFFFFFFFFFFFFFFF AND DUP2 JUMP JUMPDEST PUSH1 0x5 PUSH1 0x14 SWAP1 SLOAD SWAP1 PUSH2 0x100 EXP SWAP1 DIV PUSH1 0xFF AND DUP2 JUMP JUMPDEST PUSH2 0x21B PUSH2 0x111D JUMP JUMPDEST PUSH0 PUSH1 0x3 DUP1 PUSH1 0x20 MUL PUSH1 0x40 MLOAD SWAP1 DUP2 ADD PUSH1 0x40 MSTORE DUP1 SWAP3 SWAP2 SWAP1 PUSH0 SWAP1 JUMPDEST DUP3 DUP3 LT ISZERO PUSH2 0x2AC JUMPI DUP4 DUP3 ADD PUSH1 0x3 DUP1 PUSH1 0x20 MUL PUSH1 0x40 MLOAD SWAP1 DUP2 ADD PUSH1 0x40 MSTORE DUP1 SWAP3 SWAP2 SWAP1 DUP3 PUSH1 0x3 DUP1 ISZERO PUSH2 0x298 JUMPI PUSH1 0x20 MUL DUP3 ADD SWAP2 PUSH0 SWAP1 JUMPDEST DUP3 DUP3 SWAP1 SLOAD SWAP1 PUSH2 0x100 EXP SWAP1 DIV PUSH1 0xFF AND PUSH1 0xFF AND DUP2 MSTORE PUSH1 0x20 ADD SWAP1 PUSH1 0x1 ADD SWAP1 PUSH1 0x20 DUP3 PUSH0 ADD DIV SWAP3 DUP4 ADD SWAP3 PUSH1 0x1 SUB DUP3 MUL SWAP2 POP DUP1 DUP5 GT PUSH2 0x262 JUMPI SWAP1 POP JUMPDEST POP POP POP POP POP DUP2 MSTORE PUSH1 0x20 ADD SWAP1 PUSH1 0x1 ADD SWAP1 PUSH2 0x232 JUMP JUMPDEST POP POP POP POP SWAP1 POP SWAP1 JUMP JUMPDEST PUSH0 PUSH20 0xFFFFFFFFFFFFFFFFFFFFFFFFFFFFFFFFFFFFFFFF AND PUSH1 0x3 PUSH0 SWAP1 SLOAD SWAP1 PUSH2 0x100 EXP SWAP1 DIV PUSH20 0xFFFFFFFFFFFFFFFFFFFFFFFFFFFFFFFFFFFFFFFF AND PUSH20 0xFFFFFFFFFFFFFFFFFFFFFFFFFFFFFFFFFFFFFFFF AND EQ PUSH2 0x344 JUMPI PUSH1 0x40 MLOAD PUSH32 0x8C379A000000000000000000000000000000000000000000000000000000000 DUP2 MSTORE PUSH1 0x4 ADD PUSH2 0x33B SWAP1 PUSH2 0x1557 JUMP JUMPDEST PUSH1 0x40 MLOAD DUP1 SWAP2 SUB SWAP1 REVERT JUMPDEST DUP2 PUSH1 0x3 PUSH0 PUSH2 0x100 EXP DUP2 SLOAD DUP2 PUSH20 0xFFFFFFFFFFFFFFFFFFFFFFFFFFFFFFFFFFFFFFFF MUL NOT AND SWAP1 DUP4 PUSH20 0xFFFFFFFFFFFFFFFFFFFFFFFFFFFFFFFFFFFFFFFF AND MUL OR SWAP1 SSTORE POP PUSH1 0x3 PUSH0 SWAP1 SLOAD SWAP1 PUSH2 0x100 EXP SWAP1 DIV PUSH20 0xFFFFFFFFFFFFFFFFFFFFFFFFFFFFFFFFFFFFFFFF AND PUSH20 0xFFFFFFFFFFFFFFFFFFFFFFFFFFFFFFFFFFFFFFFF AND DUP2 PUSH20 0xFFFFFFFFFFFFFFFFFFFFFFFFFFFFFFFFFFFFFFFF AND SUB PUSH2 0x413 JUMPI PUSH1 0x40 MLOAD PUSH32 0x8C379A000000000000000000000000000000000000000000000000000000000 DUP2 MSTORE PUSH1 0x4 ADD PUSH2 0x40A SWAP1 PUSH2 0x15E5 JUMP JUMPDEST PUSH1 0x40 MLOAD DUP1 SWAP2 SUB SWAP1 REVERT JUMPDEST DUP1 PUSH1 0x4 PUSH0 PUSH2 0x100 EXP DUP2 SLOAD DUP2 PUSH20 0xFFFFFFFFFFFFFFFFFFFFFFFFFFFFFFFFFFFFFFFF MUL NOT AND SWAP1 DUP4 PUSH20 0xFFFFFFFFFFFFFFFFFFFFFFFFFFFFFFFFFFFFFFFF AND MUL OR SWAP1 SSTORE POP PUSH1 0x3 PUSH0 SWAP1 SLOAD SWAP1 PUSH2 0x100 EXP SWAP1 DIV PUSH20 0xFFFFFFFFFFFFFFFFFFFFFFFFFFFFFFFFFFFFFFFF AND PUSH1 0x5 PUSH0 PUSH2 0x100 EXP DUP2 SLOAD DUP2 PUSH20 0xFFFFFFFFFFFFFFFFFFFFFFFFFFFFFFFFFFFFFFFF MUL NOT AND SWAP1 DUP4 PUSH20 0xFFFFFFFFFFFFFFFFFFFFFFFFFFFFFFFFFFFFFFFF AND MUL OR SWAP1 SSTORE POP PUSH0 PUSH1 0x5 PUSH1 0x14 PUSH2 0x100 EXP DUP2 SLOAD DUP2 PUSH1 0xFF MUL NOT AND SWAP1 DUP4 ISZERO ISZERO MUL OR SWAP1 SSTORE POP PUSH1 0x4 PUSH0 SWAP1 SLOAD SWAP1 PUSH2 0x100 EXP SWAP1 DIV PUSH20 0xFFFFFFFFFFFFFFFFFFFFFFFFFFFFFFFFFFFFFFFF AND PUSH20 0xFFFFFFFFFFFFFFFFFFFFFFFFFFFFFFFFFFFFFFFF AND PUSH1 0x3 PUSH0 SWAP1 SLOAD SWAP1 PUSH2 0x100 EXP SWAP1 DIV PUSH20 0xFFFFFFFFFFFFFFFFFFFFFFFFFFFFFFFFFFFFFFFF AND PUSH20 0xFFFFFFFFFFFFFFFFFFFFFFFFFFFFFFFFFFFFFFFF AND ADDRESS PUSH20 0xFFFFFFFFFFFFFFFFFFFFFFFFFFFFFFFFFFFFFFFF AND PUSH32 0xE733EB5C42C855D38269254700780D064A49EF1611D1F3BFDDA632EC19891F56 PUSH1 0x40 MLOAD PUSH1 0x40 MLOAD DUP1 SWAP2 SUB SWAP1 LOG4 POP POP JUMP JUMPDEST PUSH1 0x5 PUSH1 0x14 SWAP1 SLOAD SWAP1 PUSH2 0x100 EXP SWAP1 DIV PUSH1 0xFF AND ISZERO PUSH2 0x5D5 JUMPI PUSH1 0x40 MLOAD PUSH32 0x8C379A000000000000000000000000000000000000000000000000000000000 DUP2 MSTORE PUSH1 0x4 ADD PUSH2 0x5CC SWAP1 PUSH2 0x164D JUMP JUMPDEST PUSH1 0x40 MLOAD DUP1 SWAP2 SUB SWAP1 REVERT JUMPDEST PUSH1 0x5 PUSH0 SWAP1 SLOAD SWAP1 PUSH2 0x100 EXP SWAP1 DIV PUSH20 0xFFFFFFFFFFFFFFFFFFFFFFFFFFFFFFFFFFFFFFFF AND PUSH20 0xFFFFFFFFFFFFFFFFFFFFFFFFFFFFFFFFFFFFFFFF AND CALLER PUSH20 0xFFFFFFFFFFFFFFFFFFFFFFFFFFFFFFFFFFFFFFFF AND EQ PUSH2 0x664 JUMPI PUSH1 0x40 MLOAD PUSH32 0x8C379A000000000000000000000000000000000000000000000000000000000 DUP2 MSTORE PUSH1 0x4 ADD PUSH2 0x65B SWAP1 PUSH2 0x16B5 JUMP JUMPDEST PUSH1 0x40 MLOAD DUP1 SWAP2 SUB SWAP1 REVERT JUMPDEST PUSH1 0x3 DUP3 PUSH1 0xFF AND LT DUP1 ISZERO PUSH2 0x67A JUMPI POP PUSH1 0x3 DUP2 PUSH1 0xFF AND LT JUMPDEST PUSH2 0x6B9 JUMPI PUSH1 0x40 MLOAD PUSH32 0x8C379A000000000000000000000000000000000000000000000000000000000 DUP2 MSTORE PUSH1 0x4 ADD PUSH2 0x6B0 SWAP1 PUSH2 0x171D JUMP JUMPDEST PUSH1 0x40 MLOAD DUP1 SWAP2 SUB SWAP1 REVERT JUMPDEST PUSH0 PUSH0 DUP4 PUSH1 0xFF AND PUSH1 0x3 DUP2 LT PUSH2 0x6D0 JUMPI PUSH2 0x6CF PUSH2 0x173B JUMP JUMPDEST JUMPDEST ADD DUP3 PUSH1 0xFF AND PUSH1 0x3 DUP2 LT PUSH2 0x6E6 JUMPI PUSH2 0x6E5 PUSH2 0x173B JUMP JUMPDEST JUMPDEST PUSH1 0x20 SWAP2 DUP3 DUP3 DIV ADD SWAP2 SWAP1 MOD SWAP1 SLOAD SWAP1 PUSH2 0x100 EXP SWAP1 DIV PUSH1 0xFF AND PUSH1 0xFF AND EQ PUSH2 0x73F JUMPI PUSH1 0x40 MLOAD PUSH32 0x8C379A000000000000000000000000000000000000000000000000000000000 DUP2 MSTORE PUSH1 0x4 ADD PUSH2 0x736 SWAP1 PUSH2 0x17B2 JUMP JUMPDEST PUSH1 0x40 MLOAD DUP1 SWAP2 SUB SWAP1 REVERT JUMPDEST PUSH1 0x3 PUSH0 SWAP1 SLOAD SWAP1 PUSH2 0x100 EXP SWAP1 DIV PUSH20 0xFFFFFFFFFFFFFFFFFFFFFFFFFFFFFFFFFFFFFFFF AND PUSH20 0xFFFFFFFFFFFFFFFFFFFFFFFFFFFFFFFFFFFFFFFF AND CALLER PUSH20 0xFFFFFFFFFFFFFFFFFFFFFFFFFFFFFFFFFFFFFFFF AND SUB PUSH2 0x7E6 JUMPI PUSH1 0x1 PUSH0 DUP4 PUSH1 0xFF AND PUSH1 0x3 DUP2 LT PUSH2 0x7AB JUMPI PUSH2 0x7AA PUSH2 0x173B JUMP JUMPDEST JUMPDEST ADD DUP3 PUSH1 0xFF AND PUSH1 0x3 DUP2 LT PUSH2 0x7C1 JUMPI PUSH2 0x7C0 PUSH2 0x173B JUMP JUMPDEST JUMPDEST PUSH1 0x20 SWAP2 DUP3 DUP3 DIV ADD SWAP2 SWAP1 MOD PUSH2 0x100 EXP DUP2 SLOAD DUP2 PUSH1 0xFF MUL NOT AND SWAP1 DUP4 PUSH1 0xFF AND MUL OR SWAP1 SSTORE POP PUSH2 0x835 JUMP JUMPDEST PUSH1 0x2 PUSH0 DUP4 PUSH1 0xFF AND PUSH1 0x3 DUP2 LT PUSH2 0x7FE JUMPI PUSH2 0x7FD PUSH2 0x173B JUMP JUMPDEST JUMPDEST ADD DUP3 PUSH1 0xFF AND PUSH1 0x3 DUP2 LT PUSH2 0x814 JUMPI PUSH2 0x813 PUSH2 0x173B JUMP JUMPDEST JUMPDEST PUSH1 0x20 SWAP2 DUP3 DUP3 DIV ADD SWAP2 SWAP1 MOD PUSH2 0x100 EXP DUP2 SLOAD DUP2 PUSH1 0xFF MUL NOT AND SWAP1 DUP4 PUSH1 0xFF AND MUL OR SWAP1 SSTORE POP JUMPDEST PUSH2 0x83D PUSH2 0x95A JUMP JUMPDEST PUSH1 0x5 PUSH1 0x14 SWAP1 SLOAD SWAP1 PUSH2 0x100 EXP SWAP1 DIV PUSH1 0xFF AND PUSH2 0x85A JUMPI PUSH2 0x859 PUSH2 0xF1E JUMP JUMPDEST JUMPDEST POP POP JUMP JUMPDEST PUSH0 DUP3 PUSH1 0x3 DUP2 LT PUSH2 0x86C JUMPI PUSH0 DUP1 REVERT JUMPDEST ADD DUP2 PUSH1 0x3 DUP2 LT PUSH2 0x87A JUMPI PUSH0 DUP1 REVERT JUMPDEST PUSH1 0x20 SWAP2 DUP3 DUP3 DIV ADD SWAP2 SWAP1 MOD SWAP2 POP SWAP2 POP SWAP1 SLOAD SWAP1 PUSH2 0x100 EXP SWAP1 DIV PUSH1 0xFF AND DUP2 JUMP JUMPDEST PUSH0 PUSH0 PUSH1 0x3 PUSH0 SWAP1 SLOAD SWAP1 PUSH2 0x100 EXP SWAP1 DIV PUSH20 0xFFFFFFFFFFFFFFFFFFFFFFFFFFFFFFFFFFFFFFFF AND PUSH1 0x4 PUSH0 SWAP1 SLOAD SWAP1 PUSH2 0x100 EXP SWAP1 DIV PUSH20 0xFFFFFFFFFFFFFFFFFFFFFFFFFFFFFFFFFFFFFFFF AND SWAP2 POP SWAP2 POP SWAP1 SWAP2 JUMP JUMPDEST PUSH0 PUSH1 0x4 PUSH0 SWAP1 SLOAD SWAP1 PUSH2 0x100 EXP SWAP1 DIV PUSH20 0xFFFFFFFFFFFFFFFFFFFFFFFFFFFFFFFFFFFFFFFF AND SWAP1 POP SWAP1 JUMP JUMPDEST PUSH0 PUSH1 0x3 PUSH0 SWAP1 SLOAD SWAP1 PUSH2 0x100 EXP SWAP1 DIV PUSH20 0xFFFFFFFFFFFFFFFFFFFFFFFFFFFFFFFFFFFFFFFF AND SWAP1 POP SWAP1 JUMP JUMPDEST PUSH1 0x6 PUSH0 SWAP1 SLOAD SWAP1 PUSH2 0x100 EXP SWAP1 DIV PUSH20 0xFFFFFFFFFFFFFFFFFFFFFFFFFFFFFFFFFFFFFFFF AND DUP2 JUMP JUMPDEST PUSH0 PUSH1 0x3 PUSH0 SWAP1 SLOAD SWAP1 PUSH2 0x100 EXP SWAP1 DIV PUSH20 0xFFFFFFFFFFFFFFFFFFFFFFFFFFFFFFFFFFFFFFFF AND PUSH20 0xFFFFFFFFFFFFFFFFFFFFFFFFFFFFFFFFFFFFFFFF AND CALLER PUSH20 0xFFFFFFFFFFFFFFFFFFFFFFFFFFFFFFFFFFFFFFFF AND SUB PUSH2 0x9B8 JUMPI PUSH1 0x1 SWAP1 POP PUSH2 0x9BD JUMP JUMPDEST PUSH1 0x2 SWAP1 POP JUMPDEST PUSH0 PUSH0 SWAP1 POP JUMPDEST PUSH1 0x3 DUP2 PUSH1 0xFF AND LT ISZERO PUSH2 0xBD1 JUMPI DUP2 PUSH1 0xFF AND PUSH0 DUP3 PUSH1 0xFF AND PUSH1 0x3 DUP2 LT PUSH2 0x9E8 JUMPI PUSH2 0x9E7 PUSH2 0x173B JUMP JUMPDEST JUMPDEST ADD PUSH0 PUSH1 0x3 DUP2 LT PUSH2 0x9FB JUMPI PUSH2 0x9FA PUSH2 0x173B JUMP JUMPDEST JUMPDEST PUSH1 0x20 SWAP2 DUP3 DUP3 DIV ADD SWAP2 SWAP1 MOD SWAP1 SLOAD SWAP1 PUSH2 0x100 EXP SWAP1 DIV PUSH1 0xFF AND PUSH1 0xFF AND EQ DUP1 ISZERO PUSH2 0xA65 JUMPI POP DUP2 PUSH1 0xFF AND PUSH0 DUP3 PUSH1 0xFF AND PUSH1 0x3 DUP2 LT PUSH2 0xA36 JUMPI PUSH2 0xA35 PUSH2 0x173B JUMP JUMPDEST JUMPDEST ADD PUSH1 0x1 PUSH1 0x3 DUP2 LT PUSH2 0xA4A JUMPI PUSH2 0xA49 PUSH2 0x173B JUMP JUMPDEST JUMPDEST PUSH1 0x20 SWAP2 DUP3 DUP3 DIV ADD SWAP2 SWAP1 MOD SWAP1 SLOAD SWAP1 PUSH2 0x100 EXP SWAP1 DIV PUSH1 0xFF AND PUSH1 0xFF AND EQ JUMPDEST DUP1 ISZERO PUSH2 0xAB5 JUMPI POP DUP2 PUSH1 0xFF AND PUSH0 DUP3 PUSH1 0xFF AND PUSH1 0x3 DUP2 LT PUSH2 0xA86 JUMPI PUSH2 0xA85 PUSH2 0x173B JUMP JUMPDEST JUMPDEST ADD PUSH1 0x2 PUSH1 0x3 DUP2 LT PUSH2 0xA9A JUMPI PUSH2 0xA99 PUSH2 0x173B JUMP JUMPDEST JUMPDEST PUSH1 0x20 SWAP2 DUP3 DUP3 DIV ADD SWAP2 SWAP1 MOD SWAP1 SLOAD SWAP1 PUSH2 0x100 EXP SWAP1 DIV PUSH1 0xFF AND PUSH1 0xFF AND EQ JUMPDEST ISZERO PUSH2 0xAC9 JUMPI PUSH2 0xAC2 PUSH2 0x105C JUMP JUMPDEST POP POP PUSH2 0xF1C JUMP JUMPDEST DUP2 PUSH1 0xFF AND PUSH0 PUSH0 PUSH1 0x3 DUP2 LT PUSH2 0xAE0 JUMPI PUSH2 0xADF PUSH2 0x173B JUMP JUMPDEST JUMPDEST ADD DUP3 PUSH1 0xFF AND PUSH1 0x3 DUP2 LT PUSH2 0xAF6 JUMPI PUSH2 0xAF5 PUSH2 0x173B JUMP JUMPDEST JUMPDEST PUSH1 0x20 SWAP2 DUP3 DUP3 DIV ADD SWAP2 SWAP1 MOD SWAP1 SLOAD SWAP1 PUSH2 0x100 EXP SWAP1 DIV PUSH1 0xFF AND PUSH1 0xFF AND EQ DUP1 ISZERO PUSH2 0xB60 JUMPI POP DUP2 PUSH1 0xFF AND PUSH0 PUSH1 0x1 PUSH1 0x3 DUP2 LT PUSH2 0xB2F JUMPI PUSH2 0xB2E PUSH2 0x173B JUMP JUMPDEST JUMPDEST ADD DUP3 PUSH1 0xFF AND PUSH1 0x3 DUP2 LT PUSH2 0xB45 JUMPI PUSH2 0xB44 PUSH2 0x173B JUMP JUMPDEST JUMPDEST PUSH1 0x20 SWAP2 DUP3 DUP3 DIV ADD SWAP2 SWAP1 MOD SWAP1 SLOAD SWAP1 PUSH2 0x100 EXP SWAP1 DIV PUSH1 0xFF AND PUSH1 0xFF AND EQ JUMPDEST DUP1 ISZERO PUSH2 0xBB0 JUMPI POP DUP2 PUSH1 0xFF AND PUSH0 PUSH1 0x2 PUSH1 0x3 DUP2 LT PUSH2 0xB7F JUMPI PUSH2 0xB7E PUSH2 0x173B JUMP JUMPDEST JUMPDEST ADD DUP3 PUSH1 0xFF AND PUSH1 0x3 DUP2 LT PUSH2 0xB95 JUMPI PUSH2 0xB94 PUSH2 0x173B JUMP JUMPDEST JUMPDEST PUSH1 0x20 SWAP2 DUP3 DUP3 DIV ADD SWAP2 SWAP1 MOD SWAP1 SLOAD SWAP1 PUSH2 0x100 EXP SWAP1 DIV PUSH1 0xFF AND PUSH1 0xFF AND EQ JUMPDEST ISZERO PUSH2 0xBC4 JUMPI PUSH2 0xBBD PUSH2 0x105C JUMP JUMPDEST POP POP PUSH2 0xF1C JUMP JUMPDEST DUP1 DUP1 PUSH1 0x1 ADD SWAP2 POP POP PUSH2 0x9C2 JUMP JUMPDEST POP DUP1 PUSH1 0xFF AND PUSH0 PUSH0 PUSH1 0x3 DUP2 LT PUSH2 0xBE9 JUMPI PUSH2 0xBE8 PUSH2 0x173B JUMP JUMPDEST JUMPDEST ADD PUSH0 PUSH1 0x3 DUP2 LT PUSH2 0xBFC JUMPI PUSH2 0xBFB PUSH2 0x173B JUMP JUMPDEST JUMPDEST PUSH1 0x20 SWAP2 DUP3 DUP3 DIV ADD SWAP2 SWAP1 MOD SWAP1 SLOAD SWAP1 PUSH2 0x100 EXP SWAP1 DIV PUSH1 0xFF AND PUSH1 0xFF AND EQ DUP1 ISZERO PUSH2 0xC64 JUMPI POP DUP1 PUSH1 0xFF AND PUSH0 PUSH1 0x1 PUSH1 0x3 DUP2 LT PUSH2 0xC35 JUMPI PUSH2 0xC34 PUSH2 0x173B JUMP JUMPDEST JUMPDEST ADD PUSH1 0x1 PUSH1 0x3 DUP2 LT PUSH2 0xC49 JUMPI PUSH2 0xC48 PUSH2 0x173B JUMP JUMPDEST JUMPDEST PUSH1 0x20 SWAP2 DUP3 DUP3 DIV ADD SWAP2 SWAP1 MOD SWAP1 SLOAD SWAP1 PUSH2 0x100 EXP SWAP1 DIV PUSH1 0xFF AND PUSH1 0xFF AND EQ JUMPDEST DUP1 ISZERO PUSH2 0xCB2 JUMPI POP DUP1 PUSH1 0xFF AND PUSH0 PUSH1 0x2 PUSH1 0x3 DUP2 LT PUSH2 0xC83 JUMPI PUSH2 0xC82 PUSH2 0x173B JUMP JUMPDEST JUMPDEST ADD PUSH1 0x2 PUSH1 0x3 DUP2 LT PUSH2 0xC97 JUMPI PUSH2 0xC96 PUSH2 0x173B JUMP JUMPDEST JUMPDEST PUSH1 0x20 SWAP2 DUP3 DUP3 DIV ADD SWAP2 SWAP1 MOD SWAP1 SLOAD SWAP1 PUSH2 0x100 EXP SWAP1 DIV PUSH1 0xFF AND PUSH1 0xFF AND EQ JUMPDEST ISZERO PUSH2 0xCC5 JUMPI PUSH2 0xCBF PUSH2 0x105C JUMP JUMPDEST POP PUSH2 0xF1C JUMP JUMPDEST DUP1 PUSH1 0xFF AND PUSH0 PUSH0 PUSH1 0x3 DUP2 LT PUSH2 0xCDC JUMPI PUSH2 0xCDB PUSH2 0x173B JUMP JUMPDEST JUMPDEST ADD PUSH1 0x2 PUSH1 0x3 DUP2 LT PUSH2 0xCF0 JUMPI PUSH2 0xCEF PUSH2 0x173B JUMP JUMPDEST JUMPDEST PUSH1 0x20 SWAP2 DUP3 DUP3 DIV ADD SWAP2 SWAP1 MOD SWAP1 SLOAD SWAP1 PUSH2 0x100 EXP SWAP1 DIV PUSH1 0xFF AND PUSH1 0xFF AND EQ DUP1 ISZERO PUSH2 0xD58 JUMPI POP DUP1 PUSH1 0xFF AND PUSH0 PUSH1 0x1 PUSH1 0x3 DUP2 LT PUSH2 0xD29 JUMPI PUSH2 0xD28 PUSH2 0x173B JUMP JUMPDEST JUMPDEST ADD PUSH1 0x1 PUSH1 0x3 DUP2 LT PUSH2 0xD3D JUMPI PUSH2 0xD3C PUSH2 0x173B JUMP JUMPDEST JUMPDEST PUSH1 0x20 SWAP2 DUP3 DUP3 DIV ADD SWAP2 SWAP1 MOD SWAP1 SLOAD SWAP1 PUSH2 0x100 EXP SWAP1 DIV PUSH1 0xFF AND PUSH1 0xFF AND EQ JUMPDEST DUP1 ISZERO PUSH2 0xDA5 JUMPI POP DUP1 PUSH1 0xFF AND PUSH0 PUSH1 0x2 PUSH1 0x3 DUP2 LT PUSH2 0xD77 JUMPI PUSH2 0xD76 PUSH2 0x173B JUMP JUMPDEST JUMPDEST ADD PUSH0 PUSH1 0x3 DUP2 LT PUSH2 0xD8A JUMPI PUSH2 0xD89 PUSH2 0x173B JUMP JUMPDEST JUMPDEST PUSH1 0x20 SWAP2 DUP3 DUP3 DIV ADD SWAP2 SWAP1 MOD SWAP1 SLOAD SWAP1 PUSH2 0x100 EXP SWAP1 DIV PUSH1 0xFF AND PUSH1 0xFF AND EQ JUMPDEST ISZERO PUSH2 0xDB8 JUMPI PUSH2 0xDB2 PUSH2 0x105C JUMP JUMPDEST POP PUSH2 0xF1C JUMP JUMPDEST PUSH0 PUSH0 SWAP1 POP PUSH0 PUSH0 SWAP1 POP JUMPDEST PUSH1 0x3 DUP2 LT ISZERO PUSH2 0xE4D JUMPI PUSH0 PUSH0 SWAP1 POP JUMPDEST PUSH1 0x3 DUP2 PUSH1 0xFF AND LT ISZERO PUSH2 0xE3F JUMPI PUSH0 PUSH0 DUP4 PUSH1 0x3 DUP2 LT PUSH2 0xDEF JUMPI PUSH2 0xDEE PUSH2 0x173B JUMP JUMPDEST JUMPDEST ADD DUP3 PUSH1 0xFF AND PUSH1 0x3 DUP2 LT PUSH2 0xE05 JUMPI PUSH2 0xE04 PUSH2 0x173B JUMP JUMPDEST JUMPDEST PUSH1 0x20 SWAP2 DUP3 DUP3 DIV ADD SWAP2 SWAP1 MOD SWAP1 SLOAD SWAP1 PUSH2 0x100 EXP SWAP1 DIV PUSH1 0xFF AND PUSH1 0xFF AND EQ PUSH2 0xE32 JUMPI DUP3 DUP1 PUSH2 0xE2E SWAP1 PUSH2 0x17FD JUMP JUMPDEST SWAP4 POP POP JUMPDEST DUP1 DUP1 PUSH1 0x1 ADD SWAP2 POP POP PUSH2 0xDCF JUMP JUMPDEST POP DUP1 DUP1 PUSH1 0x1 ADD SWAP2 POP POP PUSH2 0xDC1 JUMP JUMPDEST POP PUSH1 0x9 DUP2 PUSH1 0xFF AND SUB PUSH2 0xF19 JUMPI PUSH1 0x1 PUSH1 0x5 PUSH1 0x14 PUSH2 0x100 EXP DUP2 SLOAD DUP2 PUSH1 0xFF MUL NOT AND SWAP1 DUP4 ISZERO ISZERO MUL OR SWAP1 SSTORE POP PUSH0 PUSH1 0x6 PUSH0 PUSH2 0x100 EXP DUP2 SLOAD DUP2 PUSH20 0xFFFFFFFFFFFFFFFFFFFFFFFFFFFFFFFFFFFFFFFF MUL NOT AND SWAP1 DUP4 PUSH20 0xFFFFFFFFFFFFFFFFFFFFFFFFFFFFFFFFFFFFFFFF AND MUL OR SWAP1 SSTORE POP PUSH1 0x6 PUSH0 SWAP1 SLOAD SWAP1 PUSH2 0x100 EXP SWAP1 DIV PUSH20 0xFFFFFFFFFFFFFFFFFFFFFFFFFFFFFFFFFFFFFFFF AND PUSH20 0xFFFFFFFFFFFFFFFFFFFFFFFFFFFFFFFFFFFFFFFF AND PUSH32 0x51B77D00D3C0B7E376E9EE146711CEB2C08E58A5DBE38055A618E52109F720C1 PUSH1 0x40 MLOAD PUSH1 0x40 MLOAD DUP1 SWAP2 SUB SWAP1 LOG2 JUMPDEST POP POP JUMPDEST JUMP JUMPDEST PUSH1 0x3 PUSH0 SWAP1 SLOAD SWAP1 PUSH2 0x100 EXP SWAP1 DIV PUSH20 0xFFFFFFFFFFFFFFFFFFFFFFFFFFFFFFFFFFFFFFFF AND PUSH20 0xFFFFFFFFFFFFFFFFFFFFFFFFFFFFFFFFFFFFFFFF AND PUSH1 0x5 PUSH0 SWAP1 SLOAD SWAP1 PUSH2 0x100 EXP SWAP1 DIV PUSH20 0xFFFFFFFFFFFFFFFFFFFFFFFFFFFFFFFFFFFFFFFF AND PUSH20 0xFFFFFFFFFFFFFFFFFFFFFFFFFFFFFFFFFFFFFFFF AND EQ PUSH2 0xFF8 JUMPI PUSH1 0x3 PUSH0 SWAP1 SLOAD SWAP1 PUSH2 0x100 EXP SWAP1 DIV PUSH20 0xFFFFFFFFFFFFFFFFFFFFFFFFFFFFFFFFFFFFFFFF AND PUSH1 0x5 PUSH0 PUSH2 0x100 EXP DUP2 SLOAD DUP2 PUSH20 0xFFFFFFFFFFFFFFFFFFFFFFFFFFFFFFFFFFFFFFFF MUL NOT AND SWAP1 DUP4 PUSH20 0xFFFFFFFFFFFFFFFFFFFFFFFFFFFFFFFFFFFFFFFF AND MUL OR SWAP1 SSTORE PUSH2 0x1059 JUMP JUMPDEST PUSH1 0x4 PUSH0 SWAP1 SLOAD SWAP1 PUSH2 0x100 EXP SWAP1 DIV PUSH20 0xFFFFFFFFFFFFFFFFFFFFFFFFFFFFFFFFFFFFFFFF AND PUSH1 0x5 PUSH0 PUSH2 0x100 EXP DUP2 SLOAD DUP2 PUSH20 0xFFFFFFFFFFFFFFFFFFFFFFFFFFFFFFFFFFFFFFFF MUL NOT AND SWAP1 DUP4 PUSH20 0xFFFFFFFFFFFFFFFFFFFFFFFFFFFFFFFFFFFFFFFF AND MUL OR SWAP1 SSTORE JUMPDEST POP JUMP JUMPDEST PUSH1 0x1 PUSH1 0x5 PUSH1 0x14 PUSH2 0x100 EXP DUP2 SLOAD DUP2 PUSH1 0xFF MUL NOT AND SWAP1 DUP4 ISZERO ISZERO MUL OR SWAP1 SSTORE POP CALLER PUSH1 0x6 PUSH0 PUSH2 0x100 EXP DUP2 SLOAD DUP2 PUSH20 0xFFFFFFFFFFFFFFFFFFFFFFFFFFFFFFFFFFFFFFFF MUL NOT AND SWAP1 DUP4 PUSH20 0xFFFFFFFFFFFFFFFFFFFFFFFFFFFFFFFFFFFFFFFF AND MUL OR SWAP1 SSTORE POP PUSH1 0x6 PUSH0 SWAP1 SLOAD SWAP1 PUSH2 0x100 EXP SWAP1 DIV PUSH20 0xFFFFFFFFFFFFFFFFFFFFFFFFFFFFFFFFFFFFFFFF AND PUSH20 0xFFFFFFFFFFFFFFFFFFFFFFFFFFFFFFFFFFFFFFFF AND PUSH32 0x51B77D00D3C0B7E376E9EE146711CEB2C08E58A5DBE38055A618E52109F720C1 PUSH1 0x40 MLOAD PUSH1 0x40 MLOAD DUP1 SWAP2 SUB SWAP1 LOG2 JUMP JUMPDEST PUSH1 0x40 MLOAD DUP1 PUSH1 0x60 ADD PUSH1 0x40 MSTORE DUP1 PUSH1 0x3 SWAP1 JUMPDEST PUSH2 0x1134 PUSH2 0x114A JUMP JUMPDEST DUP2 MSTORE PUSH1 0x20 ADD SWAP1 PUSH1 0x1 SWAP1 SUB SWAP1 DUP2 PUSH2 0x112C JUMPI SWAP1 POP POP SWAP1 JUMP JUMPDEST PUSH1 0x40 MLOAD DUP1 PUSH1 0x60 ADD PUSH1 0x40 MSTORE DUP1 PUSH1 0x3 SWAP1 PUSH1 0x20 DUP3 MUL DUP1 CALLDATASIZE DUP4 CALLDATACOPY DUP1 DUP3 ADD SWAP2 POP POP SWAP1 POP POP SWAP1 JUMP JUMPDEST PUSH0 PUSH20 0xFFFFFFFFFFFFFFFFFFFFFFFFFFFFFFFFFFFFFFFF DUP3 AND SWAP1 POP SWAP2 SWAP1 POP JUMP JUMPDEST PUSH0 PUSH2 0x1195 DUP3 PUSH2 0x116C JUMP JUMPDEST SWAP1 POP SWAP2 SWAP1 POP JUMP JUMPDEST PUSH2 0x11A5 DUP2 PUSH2 0x118B JUMP JUMPDEST DUP3 MSTORE POP POP JUMP JUMPDEST PUSH0 PUSH1 0x20 DUP3 ADD SWAP1 POP PUSH2 0x11BE PUSH0 DUP4 ADD DUP5 PUSH2 0x119C JUMP JUMPDEST SWAP3 SWAP2 POP POP JUMP JUMPDEST PUSH0 DUP2 ISZERO ISZERO SWAP1 POP SWAP2 SWAP1 POP JUMP JUMPDEST PUSH2 0x11D8 DUP2 PUSH2 0x11C4 JUMP JUMPDEST DUP3 MSTORE POP POP JUMP JUMPDEST PUSH0 PUSH1 0x20 DUP3 ADD SWAP1 POP PUSH2 0x11F1 PUSH0 DUP4 ADD DUP5 PUSH2 0x11CF JUMP JUMPDEST SWAP3 SWAP2 POP POP JUMP JUMPDEST PUSH0 PUSH1 0x3 SWAP1 POP SWAP2 SWAP1 POP JUMP JUMPDEST PUSH0 DUP2 SWAP1 POP SWAP3 SWAP2 POP POP JUMP JUMPDEST PUSH0 DUP2 SWAP1 POP SWAP2 SWAP1 POP JUMP JUMPDEST PUSH0 PUSH1 0x3 SWAP1 POP SWAP2 SWAP1 POP JUMP JUMPDEST PUSH0 DUP2 SWAP1 POP SWAP3 SWAP2 POP POP JUMP JUMPDEST PUSH0 DUP2 SWAP1 POP SWAP2 SWAP1 POP JUMP JUMPDEST PUSH0 PUSH1 0xFF DUP3 AND SWAP1 POP SWAP2 SWAP1 POP JUMP JUMPDEST PUSH2 0x1246 DUP2 PUSH2 0x1231 JUMP JUMPDEST DUP3 MSTORE POP POP JUMP JUMPDEST PUSH0 PUSH2 0x1257 DUP4 DUP4 PUSH2 0x123D JUMP JUMPDEST PUSH1 0x20 DUP4 ADD SWAP1 POP SWAP3 SWAP2 POP POP JUMP JUMPDEST PUSH0 PUSH1 0x20 DUP3 ADD SWAP1 POP SWAP2 SWAP1 POP JUMP JUMPDEST PUSH2 0x1278 DUP2 PUSH2 0x1214 JUMP JUMPDEST PUSH2 0x1282 DUP2 DUP5 PUSH2 0x121E JUMP JUMPDEST SWAP3 POP PUSH2 0x128D DUP3 PUSH2 0x1228 JUMP JUMPDEST DUP1 PUSH0 JUMPDEST DUP4 DUP2 LT ISZERO PUSH2 0x12BD JUMPI DUP2 MLOAD PUSH2 0x12A4 DUP8 DUP3 PUSH2 0x124C JUMP JUMPDEST SWAP7 POP PUSH2 0x12AF DUP4 PUSH2 0x1263 JUMP JUMPDEST SWAP3 POP POP PUSH1 0x1 DUP2 ADD SWAP1 POP PUSH2 0x1290 JUMP JUMPDEST POP POP POP POP POP POP JUMP JUMPDEST PUSH0 PUSH2 0x12D0 DUP4 DUP4 PUSH2 0x126F JUMP JUMPDEST PUSH1 0x60 DUP4 ADD SWAP1 POP SWAP3 SWAP2 POP POP JUMP JUMPDEST PUSH0 PUSH1 0x20 DUP3 ADD SWAP1 POP SWAP2 SWAP1 POP JUMP JUMPDEST PUSH2 0x12F1 DUP2 PUSH2 0x11F7 JUMP JUMPDEST PUSH2 0x12FB DUP2 DUP5 PUSH2 0x1201 JUMP JUMPDEST SWAP3 POP PUSH2 0x1306 DUP3 PUSH2 0x120B JUMP JUMPDEST DUP1 PUSH0 JUMPDEST DUP4 DUP2 LT ISZERO PUSH2 0x1336 JUMPI DUP2 MLOAD PUSH2 0x131D DUP8 DUP3 PUSH2 0x12C5 JUMP JUMPDEST SWAP7 POP PUSH2 0x1328 DUP4 PUSH2 0x12DC JUMP JUMPDEST SWAP3 POP POP PUSH1 0x1 DUP2 ADD SWAP1 POP PUSH2 0x1309 JUMP JUMPDEST POP POP POP POP POP POP JUMP JUMPDEST PUSH0 PUSH2 0x120 DUP3 ADD SWAP1 POP PUSH2 0x1352 PUSH0 DUP4 ADD DUP5 PUSH2 0x12E8 JUMP JUMPDEST SWAP3 SWAP2 POP POP JUMP JUMPDEST PUSH0 PUSH0 REVERT JUMPDEST PUSH0 PUSH2 0x1366 DUP3 PUSH2 0x116C JUMP JUMPDEST SWAP1 POP SWAP2 SWAP1 POP JUMP JUMPDEST PUSH2 0x1376 DUP2 PUSH2 0x135C JUMP JUMPDEST DUP2 EQ PUSH2 0x1380 JUMPI PUSH0 PUSH0 REVERT JUMPDEST POP JUMP JUMPDEST PUSH0 DUP2 CALLDATALOAD SWAP1 POP PUSH2 0x1391 DUP2 PUSH2 0x136D JUMP JUMPDEST SWAP3 SWAP2 POP POP JUMP JUMPDEST PUSH0 PUSH0 PUSH1 0x40 DUP4 DUP6 SUB SLT ISZERO PUSH2 0x13AD JUMPI PUSH2 0x13AC PUSH2 0x1358 JUMP JUMPDEST JUMPDEST PUSH0 PUSH2 0x13BA DUP6 DUP3 DUP7 ADD PUSH2 0x1383 JUMP JUMPDEST SWAP3 POP POP PUSH1 0x20 PUSH2 0x13CB DUP6 DUP3 DUP7 ADD PUSH2 0x1383 JUMP JUMPDEST SWAP2 POP POP SWAP3 POP SWAP3 SWAP1 POP JUMP JUMPDEST PUSH2 0x13DE DUP2 PUSH2 0x1231 JUMP JUMPDEST DUP2 EQ PUSH2 0x13E8 JUMPI PUSH0 PUSH0 REVERT JUMPDEST POP JUMP JUMPDEST PUSH0 DUP2 CALLDATALOAD SWAP1 POP PUSH2 0x13F9 DUP2 PUSH2 0x13D5 JUMP JUMPDEST SWAP3 SWAP2 POP POP JUMP JUMPDEST PUSH0 PUSH0 PUSH1 0x40 DUP4 DUP6 SUB SLT ISZERO PUSH2 0x1415 JUMPI PUSH2 0x1414 PUSH2 0x1358 JUMP JUMPDEST JUMPDEST PUSH0 PUSH2 0x1422 DUP6 DUP3 DUP7 ADD PUSH2 0x13EB JUMP JUMPDEST SWAP3 POP POP PUSH1 0x20 PUSH2 0x1433 DUP6 DUP3 DUP7 ADD PUSH2 0x13EB JUMP JUMPDEST SWAP2 POP POP SWAP3 POP SWAP3 SWAP1 POP JUMP JUMPDEST PUSH0 DUP2 SWAP1 POP SWAP2 SWAP1 POP JUMP JUMPDEST PUSH2 0x144F DUP2 PUSH2 0x143D JUMP JUMPDEST DUP2 EQ PUSH2 0x1459 JUMPI PUSH0 PUSH0 REVERT JUMPDEST POP JUMP JUMPDEST PUSH0 DUP2 CALLDATALOAD SWAP1 POP PUSH2 0x146A DUP2 PUSH2 0x1446 JUMP JUMPDEST SWAP3 SWAP2 POP POP JUMP JUMPDEST PUSH0 PUSH0 PUSH1 0x40 DUP4 DUP6 SUB SLT ISZERO PUSH2 0x1486 JUMPI PUSH2 0x1485 PUSH2 0x1358 JUMP JUMPDEST JUMPDEST PUSH0 PUSH2 0x1493 DUP6 DUP3 DUP7 ADD PUSH2 0x145C JUMP JUMPDEST SWAP3 POP POP PUSH1 0x20 PUSH2 0x14A4 DUP6 DUP3 DUP7 ADD PUSH2 0x145C JUMP JUMPDEST SWAP2 POP POP SWAP3 POP SWAP3 SWAP1 POP JUMP JUMPDEST PUSH2 0x14B7 DUP2 PUSH2 0x1231 JUMP JUMPDEST DUP3 MSTORE POP POP JUMP JUMPDEST PUSH0 PUSH1 0x20 DUP3 ADD SWAP1 POP PUSH2 0x14D0 PUSH0 DUP4 ADD DUP5 PUSH2 0x14AE JUMP JUMPDEST SWAP3 SWAP2 POP POP JUMP JUMPDEST PUSH0 PUSH1 0x40 DUP3 ADD SWAP1 POP PUSH2 0x14E9 PUSH0 DUP4 ADD DUP6 PUSH2 0x119C JUMP JUMPDEST PUSH2 0x14F6 PUSH1 0x20 DUP4 ADD DUP5 PUSH2 0x119C JUMP JUMPDEST SWAP4 SWAP3 POP POP POP JUMP JUMPDEST PUSH0 DUP3 DUP3 MSTORE PUSH1 0x20 DUP3 ADD SWAP1 POP SWAP3 SWAP2 POP POP JUMP JUMPDEST PUSH32 0x47616D6520616C726561647920696E697469616C697A65640000000000000000 PUSH0 DUP3 ADD MSTORE POP JUMP JUMPDEST PUSH0 PUSH2 0x1541 PUSH1 0x18 DUP4 PUSH2 0x14FD JUMP JUMPDEST SWAP2 POP PUSH2 0x154C DUP3 PUSH2 0x150D JUMP JUMPDEST PUSH1 0x20 DUP3 ADD SWAP1 POP SWAP2 SWAP1 POP JUMP JUMPDEST PUSH0 PUSH1 0x20 DUP3 ADD SWAP1 POP DUP2 DUP2 SUB PUSH0 DUP4 ADD MSTORE PUSH2 0x156E DUP2 PUSH2 0x1535 JUMP JUMPDEST SWAP1 POP SWAP2 SWAP1 POP JUMP JUMPDEST PUSH32 0x4F7468657220706C61796572206D75737420757365206120646966666572656E PUSH0 DUP3 ADD MSTORE PUSH32 0x7420616464726573730000000000000000000000000000000000000000000000 PUSH1 0x20 DUP3 ADD MSTORE POP JUMP JUMPDEST PUSH0 PUSH2 0x15CF PUSH1 0x29 DUP4 PUSH2 0x14FD JUMP JUMPDEST SWAP2 POP PUSH2 0x15DA DUP3 PUSH2 0x1575 JUMP JUMPDEST PUSH1 0x40 DUP3 ADD SWAP1 POP SWAP2 SWAP1 POP JUMP JUMPDEST PUSH0 PUSH1 0x20 DUP3 ADD SWAP1 POP DUP2 DUP2 SUB PUSH0 DUP4 ADD MSTORE PUSH2 0x15FC DUP2 PUSH2 0x15C3 JUMP JUMPDEST SWAP1 POP SWAP2 SWAP1 POP JUMP JUMPDEST PUSH32 0x5468652067616D65206973206F7665722E000000000000000000000000000000 PUSH0 DUP3 ADD MSTORE POP JUMP JUMPDEST PUSH0 PUSH2 0x1637 PUSH1 0x11 DUP4 PUSH2 0x14FD JUMP JUMPDEST SWAP2 POP PUSH2 0x1642 DUP3 PUSH2 0x1603 JUMP JUMPDEST PUSH1 0x20 DUP3 ADD SWAP1 POP SWAP2 SWAP1 POP JUMP JUMPDEST PUSH0 PUSH1 0x20 DUP3 ADD SWAP1 POP DUP2 DUP2 SUB PUSH0 DUP4 ADD MSTORE PUSH2 0x1664 DUP2 PUSH2 0x162B JUMP JUMPDEST SWAP1 POP SWAP2 SWAP1 POP JUMP JUMPDEST PUSH32 0x49742773206E6F7420796F7572207475726E2E00000000000000000000000000 PUSH0 DUP3 ADD MSTORE POP JUMP JUMPDEST PUSH0 PUSH2 0x169F PUSH1 0x13 DUP4 PUSH2 0x14FD JUMP JUMPDEST SWAP2 POP PUSH2 0x16AA DUP3 PUSH2 0x166B JUMP JUMPDEST PUSH1 0x20 DUP3 ADD SWAP1 POP SWAP2 SWAP1 POP JUMP JUMPDEST PUSH0 PUSH1 0x20 DUP3 ADD SWAP1 POP DUP2 DUP2 SUB PUSH0 DUP4 ADD MSTORE PUSH2 0x16CC DUP2 PUSH2 0x1693 JUMP JUMPDEST SWAP1 POP SWAP2 SWAP1 POP JUMP JUMPDEST PUSH32 0x496E76616C696420726F77206F7220636F6C756D6E20706C6163656D656E7400 PUSH0 DUP3 ADD MSTORE POP JUMP JUMPDEST PUSH0 PUSH2 0x1707 PUSH1 0x1F DUP4 PUSH2 0x14FD JUMP JUMPDEST SWAP2 POP PUSH2 0x1712 DUP3 PUSH2 0x16D3 JUMP JUMPDEST PUSH1 0x20 DUP3 ADD SWAP1 POP SWAP2 SWAP1 POP JUMP JUMPDEST PUSH0 PUSH1 0x20 DUP3 ADD SWAP1 POP DUP2 DUP2 SUB PUSH0 DUP4 ADD MSTORE PUSH2 0x1734 DUP2 PUSH2 0x16FB JUMP JUMPDEST SWAP1 POP SWAP2 SWAP1 POP JUMP JUMPDEST PUSH32 0x4E487B7100000000000000000000000000000000000000000000000000000000 PUSH0 MSTORE PUSH1 0x32 PUSH1 0x4 MSTORE PUSH1 0x24 PUSH0 REVERT JUMPDEST PUSH32 0x43656C6C20697320616C72656164792074616B656E2E00000000000000000000 PUSH0 DUP3 ADD MSTORE POP JUMP JUMPDEST PUSH0 PUSH2 0x179C PUSH1 0x16 DUP4 PUSH2 0x14FD JUMP JUMPDEST SWAP2 POP PUSH2 0x17A7 DUP3 PUSH2 0x1768 JUMP JUMPDEST PUSH1 0x20 DUP3 ADD SWAP1 POP SWAP2 SWAP1 POP JUMP JUMPDEST PUSH0 PUSH1 0x20 DUP3 ADD SWAP1 POP DUP2 DUP2 SUB PUSH0 DUP4 ADD MSTORE PUSH2 0x17C9 DUP2 PUSH2 0x1790 JUMP JUMPDEST SWAP1 POP SWAP2 SWAP1 POP JUMP JUMPDEST PUSH32 0x4E487B7100000000000000000000000000000000000000000000000000000000 PUSH0 MSTORE PUSH1 0x11 PUSH1 0x4 MSTORE PUSH1 0x24 PUSH0 REVERT JUMPDEST PUSH0 PUSH2 0x1807 DUP3 PUSH2 0x1231 JUMP JUMPDEST SWAP2 POP PUSH1 0xFF DUP3 SUB PUSH2 0x181A JUMPI PUSH2 0x1819 PUSH2 0x17D0 JUMP JUMPDEST JUMPDEST PUSH1 0x1 DUP3 ADD SWAP1 POP SWAP2 SWAP1 POP JUMP INVALID LOG2 PUSH5 0x6970667358 0x22 SLT KECCAK256 DUP15 ORIGIN 0xE8 DUP13 0xD6 0xC5 CHAINID EXTDELEGATECALL COINBASE RETURNCONTRACT 0xDC SHR MOD 0xAB 0xB7 CALLDATASIZE ADD MULMOD DUP10 0x28 EXTCODEHASH 0x2C LOG4 SWAPN 0xA4 0xAF 0xC4 0x2C 0xD2 PUSH11 0x506764736F6C634300081E STOP CALLER "
				},
				"gasEstimates": {
					"creation": {
						"codeDepositCost": "1247000",
						"executionCost": "1293",
						"totalCost": "1248293"
					},
					"external": {
						"board(uint256,uint256)": "infinite",
						"getBoardState()": "infinite",
						"getPlayerO()": "2559",
						"getPlayerX()": "2581",
						"getPlayers()": "infinite",
						"initialize(address,address)": "infinite",
						"isGameOver()": "2540",
						"makeMove(uint8,uint8)": "infinite",
						"nextPlayer()": "2509",
						"winner()": "2596"
					},
					"internal": {
						"checkWin()": "infinite",
						"endGameWithWinner()": "51896",
						"switchTurn()": "30726"
					}
				},
				"methodIdentifiers": {
					"board(uint256,uint256)": "8086a92a",
					"getBoardState()": "2420f7f0",
					"getPlayerO()": "c06af996",
					"getPlayerX()": "d9a4264c",
					"getPlayers()": "8b5b9ccc",
					"initialize(address,address)": "485cc955",
					"isGameOver()": "0e04a7d8",
					"makeMove(uint8,uint8)": "5e24b0f1",
					"nextPlayer()": "04a93605",
					"winner()": "dfbf53ae"
				}
			},
			"storageLayout": {
				"storage": [
					{
						"astId": 7,
						"contract": "contracts/TicTacToe.sol:TicTacToe",
						"label": "board",
						"offset": 0,
						"slot": "0",
						"type": "t_array(t_array(t_uint8)3_storage)3_storage"
					},
					{
						"astId": 9,
						"contract": "contracts/TicTacToe.sol:TicTacToe",
						"label": "playerX",
						"offset": 0,
						"slot": "3",
						"type": "t_address_payable"
					},
					{
						"astId": 11,
						"contract": "contracts/TicTacToe.sol:TicTacToe",
						"label": "playerO",
						"offset": 0,
						"slot": "4",
						"type": "t_address_payable"
					},
					{
						"astId": 13,
						"contract": "contracts/TicTacToe.sol:TicTacToe",
						"label": "nextPlayer",
						"offset": 0,
						"slot": "5",
						"type": "t_address"
					},
					{
						"astId": 15,
						"contract": "contracts/TicTacToe.sol:TicTacToe",
						"label": "isGameOver",
						"offset": 20,
						"slot": "5",
						"type": "t_bool"
					},
					{
						"astId": 17,
						"contract": "contracts/TicTacToe.sol:TicTacToe",
						"label": "winner",
						"offset": 0,
						"slot": "6",
						"type": "t_address"
					}
				],
				"types": {
					"t_address": {
						"encoding": "inplace",
						"label": "address",
						"numberOfBytes": "20"
					},
					"t_address_payable": {
						"encoding": "inplace",
						"label": "address payable",
						"numberOfBytes": "20"
					},
					"t_array(t_array(t_uint8)3_storage)3_storage": {
						"base": "t_array(t_uint8)3_storage",
						"encoding": "inplace",
						"label": "uint8[3][3]",
						"numberOfBytes": "96"
					},
					"t_array(t_uint8)3_storage": {
						"base": "t_uint8",
						"encoding": "inplace",
						"label": "uint8[3]",
						"numberOfBytes": "32"
					},
					"t_bool": {
						"encoding": "inplace",
						"label": "bool",
						"numberOfBytes": "1"
					},
					"t_uint8": {
						"encoding": "inplace",
						"label": "uint8",
						"numberOfBytes": "1"
					}
				}
			},
			"userdoc": {
				"kind": "user",
				"methods": {},
				"version": 1
			}
		}
	}
}