{
  "_format": "hh-sol-artifact-1",
  "contractName": "TicTacToe",
  "sourceName": "contracts/TicTacToe.sol",
  "abi": [
    {
      "inputs": [
        {
          "internalType": "address payable",
          "name": "_playerO",
          "type": "address"
        }
      ],
      "stateMutability": "nonpayable",
      "type": "constructor"
    },
    {
      "inputs": [
        {
          "internalType": "uint256",
          "name": "",
          "type": "uint256"
        },
        {
          "internalType": "uint256",
          "name": "",
          "type": "uint256"
        }
      ],
      "name": "board",
      "outputs": [
        {
          "internalType": "uint8",
          "name": "",
          "type": "uint8"
        }
      ],
      "stateMutability": "view",
      "type": "function"
    },
    {
      "inputs": [],
      "name": "isGameOver",
      "outputs": [
        {
          "internalType": "bool",
          "name": "",
          "type": "bool"
        }
      ],
      "stateMutability": "view",
      "type": "function"
    },
    {
      "inputs": [
        {
          "internalType": "uint8",
          "name": "row",
          "type": "uint8"
        },
        {
          "internalType": "uint8",
          "name": "col",
          "type": "uint8"
        }
      ],
      "name": "makeMove",
      "outputs": [],
      "stateMutability": "nonpayable",
      "type": "function"
    },
    {
      "inputs": [],
      "name": "nextPlayer",
      "outputs": [
        {
          "internalType": "address",
          "name": "",
          "type": "address"
        }
      ],
      "stateMutability": "view",
      "type": "function"
    },
    {
      "inputs": [],
      "name": "playerO",
      "outputs": [
        {
          "internalType": "address payable",
          "name": "",
          "type": "address"
        }
      ],
      "stateMutability": "view",
      "type": "function"
    },
    {
      "inputs": [],
      "name": "playerX",
      "outputs": [
        {
          "internalType": "address payable",
          "name": "",
          "type": "address"
        }
      ],
      "stateMutability": "view",
      "type": "function"
    }
  ],
  "bytecode": "0x608060405234801561001057600080fd5b506040516112e33803806112e38339818101604052810190610032919061022b565b33600360006101000a81548173ffffffffffffffffffffffffffffffffffffffff021916908373ffffffffffffffffffffffffffffffffffffffff1602179055508073ffffffffffffffffffffffffffffffffffffffff16600360009054906101000a900473ffffffffffffffffffffffffffffffffffffffff1673ffffffffffffffffffffffffffffffffffffffff1603610103576040517f08c379a00000000000000000000000000000000000000000000000000000000081526004016100fa906102db565b60405180910390fd5b80600460006101000a81548173ffffffffffffffffffffffffffffffffffffffff021916908373ffffffffffffffffffffffffffffffffffffffff160217905550600360009054906101000a900473ffffffffffffffffffffffffffffffffffffffff16600560006101000a81548173ffffffffffffffffffffffffffffffffffffffff021916908373ffffffffffffffffffffffffffffffffffffffff1602179055506000600560146101000a81548160ff021916908315150217905550506102fb565b600080fd5b600073ffffffffffffffffffffffffffffffffffffffff82169050919050565b60006101f8826101cd565b9050919050565b610208816101ed565b811461021357600080fd5b50565b600081519050610225816101ff565b92915050565b600060208284031215610241576102406101c8565b5b600061024f84828501610216565b91505092915050565b600082825260208201905092915050565b7f506c61796572204f206d757374206265206120646966666572656e742061646460008201527f726573732e000000000000000000000000000000000000000000000000000000602082015250565b60006102c5602583610258565b91506102d082610269565b604082019050919050565b600060208201905081810360008301526102f4816102b8565b9050919050565b610fd98061030a6000396000f3fe608060405234801561001057600080fd5b50600436106100625760003560e01c806304a93605146100675780630e04a7d8146100855780634cdea7d2146100a35780635e24b0f1146100c15780638086a92a146100dd578063e7dafa6e1461010d575b600080fd5b61006f61012b565b60405161007c9190610bb0565b60405180910390f35b61008d610151565b60405161009a9190610be6565b60405180910390f35b6100ab610164565b6040516100b89190610c22565b60405180910390f35b6100db60048036038101906100d69190610c7b565b61018a565b005b6100f760048036038101906100f29190610cf1565b610453565b6040516101049190610d40565b60405180910390f35b61011561048f565b6040516101229190610c22565b60405180910390f35b600560009054906101000a900473ffffffffffffffffffffffffffffffffffffffff1681565b600560149054906101000a900460ff1681565b600360009054906101000a900473ffffffffffffffffffffffffffffffffffffffff1681565b600560009054906101000a900473ffffffffffffffffffffffffffffffffffffffff1673ffffffffffffffffffffffffffffffffffffffff163373ffffffffffffffffffffffffffffffffffffffff161461021a576040517f08c379a000000000000000000000000000000000000000000000000000000000815260040161021190610db8565b60405180910390fd5b600560149054906101000a900460ff161561026a576040517f08c379a000000000000000000000000000000000000000000000000000000000815260040161026190610e24565b60405180910390fd5b60038260ff16108015610280575060038160ff16105b6102bf576040517f08c379a00000000000000000000000000000000000000000000000000000000081526004016102b690610e90565b60405180910390fd5b6000808360ff16600381106102d7576102d6610eb0565b5b018260ff16600381106102ed576102ec610eb0565b5b602091828204019190069054906101000a900460ff1660ff1614610346576040517f08c379a000000000000000000000000000000000000000000000000000000000815260040161033d90610f2b565b60405180910390fd5b600360009054906101000a900473ffffffffffffffffffffffffffffffffffffffff1673ffffffffffffffffffffffffffffffffffffffff163373ffffffffffffffffffffffffffffffffffffffff16036103ef57600160008360ff16600381106103b4576103b3610eb0565b5b018260ff16600381106103ca576103c9610eb0565b5b602091828204019190066101000a81548160ff021916908360ff16021790555061043f565b600260008360ff166003811061040857610407610eb0565b5b018260ff166003811061041e5761041d610eb0565b5b602091828204019190066101000a81548160ff021916908360ff1602179055505b6104476104b5565b61044f6105fa565b5050565b6000826003811061046357600080fd5b01816003811061047257600080fd5b60209182820401919006915091509054906101000a900460ff1681565b600460009054906101000a900473ffffffffffffffffffffffffffffffffffffffff1681565b600360009054906101000a900473ffffffffffffffffffffffffffffffffffffffff1673ffffffffffffffffffffffffffffffffffffffff16600560009054906101000a900473ffffffffffffffffffffffffffffffffffffffff1673ffffffffffffffffffffffffffffffffffffffff160361059457600460009054906101000a900473ffffffffffffffffffffffffffffffffffffffff16600560006101000a81548173ffffffffffffffffffffffffffffffffffffffff021916908373ffffffffffffffffffffffffffffffffffffffff1602179055506105f8565b600360009054906101000a900473ffffffffffffffffffffffffffffffffffffffff16600560006101000a81548173ffffffffffffffffffffffffffffffffffffffff021916908373ffffffffffffffffffffffffffffffffffffffff1602179055505b565b6000600360009054906101000a900473ffffffffffffffffffffffffffffffffffffffff1673ffffffffffffffffffffffffffffffffffffffff163373ffffffffffffffffffffffffffffffffffffffff160361065a576001905061065f565b600290505b60005b60038160ff16101561089e578160ff1660008260ff166003811061068957610688610eb0565b5b0160006003811061069d5761069c610eb0565b5b602091828204019190069054906101000a900460ff1660ff1614801561070857508160ff1660008260ff16600381106106d9576106d8610eb0565b5b016001600381106106ed576106ec610eb0565b5b602091828204019190069054906101000a900460ff1660ff16145b801561075957508160ff1660008260ff166003811061072a57610729610eb0565b5b0160026003811061073e5761073d610eb0565b5b602091828204019190069054906101000a900460ff1660ff16145b15610780576001600560146101000a81548160ff0219169083151502179055505050610b6d565b8160ff166000806003811061079857610797610eb0565b5b018260ff16600381106107ae576107ad610eb0565b5b602091828204019190069054906101000a900460ff1660ff1614801561081957508160ff1660006001600381106107e8576107e7610eb0565b5b018260ff16600381106107fe576107fd610eb0565b5b602091828204019190069054906101000a900460ff1660ff16145b801561086a57508160ff16600060026003811061083957610838610eb0565b5b018260ff166003811061084f5761084e610eb0565b5b602091828204019190069054906101000a900460ff1660ff16145b15610891576000600560146101000a81548160ff0219169083151502179055505050610b6d565b8080600101915050610662565b508060ff16600080600381106108b7576108b6610eb0565b5b016000600381106108cb576108ca610eb0565b5b602091828204019190069054906101000a900460ff1660ff1614801561093457508060ff16600060016003811061090557610904610eb0565b5b0160016003811061091957610918610eb0565b5b602091828204019190069054906101000a900460ff1660ff16145b801561098357508060ff16600060026003811061095457610953610eb0565b5b0160026003811061096857610967610eb0565b5b602091828204019190069054906101000a900460ff1660ff16145b156109a9576001600560146101000a81548160ff02191690831515021790555050610b6d565b8060ff16600080600381106109c1576109c0610eb0565b5b016002600381106109d5576109d4610eb0565b5b602091828204019190069054906101000a900460ff1660ff16148015610a3e57508060ff166000600160038110610a0f57610a0e610eb0565b5b01600160038110610a2357610a22610eb0565b5b602091828204019190069054906101000a900460ff1660ff16145b8015610a8d57508060ff166000600260038110610a5e57610a5d610eb0565b5b01600060038110610a7257610a71610eb0565b5b602091828204019190069054906101000a900460ff1660ff16145b15610ab3576001600560146101000a81548160ff02191690831515021790555050610b6d565b6000805b6003811015610b425760005b60038160ff161015610b34576000808360038110610ae457610ae3610eb0565b5b018260ff1660038110610afa57610af9610eb0565b5b602091828204019190069054906101000a900460ff1660ff1614610b27578280610b2390610f7a565b9350505b8080600101915050610ac3565b508080600101915050610ab7565b5060098160ff1603610b6a576000600560146101000a81548160ff0219169083151502179055505b50505b565b600073ffffffffffffffffffffffffffffffffffffffff82169050919050565b6000610b9a82610b6f565b9050919050565b610baa81610b8f565b82525050565b6000602082019050610bc56000830184610ba1565b92915050565b60008115159050919050565b610be081610bcb565b82525050565b6000602082019050610bfb6000830184610bd7565b92915050565b6000610c0c82610b6f565b9050919050565b610c1c81610c01565b82525050565b6000602082019050610c376000830184610c13565b92915050565b600080fd5b600060ff82169050919050565b610c5881610c42565b8114610c6357600080fd5b50565b600081359050610c7581610c4f565b92915050565b60008060408385031215610c9257610c91610c3d565b5b6000610ca085828601610c66565b9250506020610cb185828601610c66565b9150509250929050565b6000819050919050565b610cce81610cbb565b8114610cd957600080fd5b50565b600081359050610ceb81610cc5565b92915050565b60008060408385031215610d0857610d07610c3d565b5b6000610d1685828601610cdc565b9250506020610d2785828601610cdc565b9150509250929050565b610d3a81610c42565b82525050565b6000602082019050610d556000830184610d31565b92915050565b600082825260208201905092915050565b7f49742773206e6f7420796f7572207475726e2e00000000000000000000000000600082015250565b6000610da2601383610d5b565b9150610dad82610d6c565b602082019050919050565b60006020820190508181036000830152610dd181610d95565b9050919050565b7f5468652067616d65206973206f7665722e000000000000000000000000000000600082015250565b6000610e0e601183610d5b565b9150610e1982610dd8565b602082019050919050565b60006020820190508181036000830152610e3d81610e01565b9050919050565b7f496e76616c696420726f77206f7220636f6c756d6e20706c6163656d656e7400600082015250565b6000610e7a601f83610d5b565b9150610e8582610e44565b602082019050919050565b60006020820190508181036000830152610ea981610e6d565b9050919050565b7f4e487b7100000000000000000000000000000000000000000000000000000000600052603260045260246000fd5b7f43656c6c20697320616c72656164792074616b656e2e00000000000000000000600082015250565b6000610f15601683610d5b565b9150610f2082610edf565b602082019050919050565b60006020820190508181036000830152610f4481610f08565b9050919050565b7f4e487b7100000000000000000000000000000000000000000000000000000000600052601160045260246000fd5b6000610f8582610c42565b915060ff8203610f9857610f97610f4b565b5b60018201905091905056fea2646970667358221220d440f062c19ddf04a766a2e41cfc112517d681700256a13b054f8dc49422c59464736f6c634300081c0033",
  "linkReferences": {},
  "deployedLinkReferences": {}
}