{
  "_format": "hh-sol-artifact-1",
  "contractName": "TicTacToe",
  "sourceName": "contracts/TicTacToe.sol",
  "abi": [
    {
      "anonymous": false,
      "inputs": [
        {
          "indexed": true,
          "internalType": "address",
          "name": "winner",
          "type": "address"
        }
      ],
      "name": "GameEnded",
      "type": "event"
    },
    {
      "anonymous": false,
      "inputs": [
        {
          "indexed": true,
          "internalType": "address",
          "name": "gameAddress",
          "type": "address"
        },
        {
          "indexed": true,
          "internalType": "address",
          "name": "pX",
          "type": "address"
        },
        {
          "indexed": true,
          "internalType": "address",
          "name": "pO",
          "type": "address"
        }
      ],
      "name": "GameStarted",
      "type": "event"
    },
    {
      "anonymous": false,
      "inputs": [
        {
          "indexed": true,
          "internalType": "address",
          "name": "player",
          "type": "address"
        },
        {
          "indexed": false,
          "internalType": "uint8",
          "name": "r",
          "type": "uint8"
        },
        {
          "indexed": false,
          "internalType": "uint8",
          "name": "c",
          "type": "uint8"
        },
        {
          "indexed": false,
          "internalType": "uint8",
          "name": "marker",
          "type": "uint8"
        }
      ],
      "name": "MoveMade",
      "type": "event"
    },
    {
      "inputs": [
        {
          "internalType": "uint256",
          "name": "",
          "type": "uint256"
        },
        {
          "internalType": "uint256",
          "name": "",
          "type": "uint256"
        }
      ],
      "name": "board",
      "outputs": [
        {
          "internalType": "uint8",
          "name": "",
          "type": "uint8"
        }
      ],
      "stateMutability": "view",
      "type": "function"
    },
    {
      "inputs": [],
      "name": "getBoardState",
      "outputs": [
        {
          "internalType": "uint8[3][3]",
          "name": "",
          "type": "uint8[3][3]"
        }
      ],
      "stateMutability": "view",
      "type": "function"
    },
    {
      "inputs": [],
      "name": "getPlayerO",
      "outputs": [
        {
          "internalType": "address",
          "name": "",
          "type": "address"
        }
      ],
      "stateMutability": "view",
      "type": "function"
    },
    {
      "inputs": [],
      "name": "getPlayerX",
      "outputs": [
        {
          "internalType": "address",
          "name": "",
          "type": "address"
        }
      ],
      "stateMutability": "view",
      "type": "function"
    },
    {
      "inputs": [],
      "name": "getPlayers",
      "outputs": [
        {
          "internalType": "address",
          "name": "",
          "type": "address"
        },
        {
          "internalType": "address",
          "name": "",
          "type": "address"
        }
      ],
      "stateMutability": "view",
      "type": "function"
    },
    {
      "inputs": [
        {
          "internalType": "address payable",
          "name": "_playerX",
          "type": "address"
        },
        {
          "internalType": "address payable",
          "name": "_playerO",
          "type": "address"
        }
      ],
      "name": "initialize",
      "outputs": [],
      "stateMutability": "nonpayable",
      "type": "function"
    },
    {
      "inputs": [],
      "name": "isGameOver",
      "outputs": [
        {
          "internalType": "bool",
          "name": "",
          "type": "bool"
        }
      ],
      "stateMutability": "view",
      "type": "function"
    },
    {
      "inputs": [
        {
          "internalType": "uint8",
          "name": "row",
          "type": "uint8"
        },
        {
          "internalType": "uint8",
          "name": "col",
          "type": "uint8"
        }
      ],
      "name": "makeMove",
      "outputs": [],
      "stateMutability": "nonpayable",
      "type": "function"
    },
    {
      "inputs": [],
      "name": "nextPlayer",
      "outputs": [
        {
          "internalType": "address",
          "name": "",
          "type": "address"
        }
      ],
      "stateMutability": "view",
      "type": "function"
    },
    {
      "inputs": [],
      "name": "restartGame",
      "outputs": [],
      "stateMutability": "nonpayable",
      "type": "function"
    },
    {
      "inputs": [],
      "name": "winner",
      "outputs": [
        {
          "internalType": "address",
          "name": "",
          "type": "address"
        }
      ],
      "stateMutability": "view",
      "type": "function"
    }
  ],
  "bytecode": "0x6080604052348015600f57600080fd5b50611c948061001f6000396000f3fe608060405234801561001057600080fd5b50600436106100a95760003560e01c80638086a92a116100715780638086a92a146101405780638b5b9ccc146101705780638d25af041461018f578063c06af99614610199578063d9a4264c146101b7578063dfbf53ae146101d5576100a9565b806304a93605146100ae5780630e04a7d8146100cc5780632420f7f0146100ea578063485cc955146101085780635e24b0f114610124575b600080fd5b6100b66101f3565b6040516100c3919061150d565b60405180910390f35b6100d4610219565b6040516100e19190611543565b60405180910390f35b6100f261022c565b6040516100ff91906116b2565b60405180910390f35b610122600480360381019061011d9190611711565b6102d2565b005b61013e6004803603810190610139919061177d565b6105ac565b005b61015a600480360381019061015591906117f3565b61088a565b6040516101679190611842565b60405180910390f35b6101786108c6565b60405161018692919061185d565b60405180910390f35b610197610917565b005b6101a1610c01565b6040516101ae919061150d565b60405180910390f35b6101bf610c2b565b6040516101cc919061150d565b60405180910390f35b6101dd610c55565b6040516101ea919061150d565b60405180910390f35b600560009054906101000a900473ffffffffffffffffffffffffffffffffffffffff1681565b600560149054906101000a900460ff1681565b61023461147d565b6000600380602002604051908101604052809291906000905b828210156102c9578382016003806020026040519081016040528092919082600380156102b5576020028201916000905b82829054906101000a900460ff1660ff168152602001906001019060208260000104928301926001038202915080841161027e5790505b50505050508152602001906001019061024d565b50505050905090565b600073ffffffffffffffffffffffffffffffffffffffff16600360009054906101000a900473ffffffffffffffffffffffffffffffffffffffff1673ffffffffffffffffffffffffffffffffffffffff1614610363576040517f08c379a000000000000000000000000000000000000000000000000000000000815260040161035a906118e3565b60405180910390fd5b81600360006101000a81548173ffffffffffffffffffffffffffffffffffffffff021916908373ffffffffffffffffffffffffffffffffffffffff160217905550600360009054906101000a900473ffffffffffffffffffffffffffffffffffffffff1673ffffffffffffffffffffffffffffffffffffffff168173ffffffffffffffffffffffffffffffffffffffff1603610434576040517f08c379a000000000000000000000000000000000000000000000000000000000815260040161042b90611975565b60405180910390fd5b80600460006101000a81548173ffffffffffffffffffffffffffffffffffffffff021916908373ffffffffffffffffffffffffffffffffffffffff160217905550600360009054906101000a900473ffffffffffffffffffffffffffffffffffffffff16600560006101000a81548173ffffffffffffffffffffffffffffffffffffffff021916908373ffffffffffffffffffffffffffffffffffffffff1602179055506000600560146101000a81548160ff021916908315150217905550600460009054906101000a900473ffffffffffffffffffffffffffffffffffffffff1673ffffffffffffffffffffffffffffffffffffffff16600360009054906101000a900473ffffffffffffffffffffffffffffffffffffffff1673ffffffffffffffffffffffffffffffffffffffff163073ffffffffffffffffffffffffffffffffffffffff167fe733eb5c42c855d38269254700780d064a49ef1611d1f3bfdda632ec19891f5660405160405180910390a45050565b600560149054906101000a900460ff16156105fc576040517f08c379a00000000000000000000000000000000000000000000000000000000081526004016105f3906119e1565b60405180910390fd5b600560009054906101000a900473ffffffffffffffffffffffffffffffffffffffff1673ffffffffffffffffffffffffffffffffffffffff163373ffffffffffffffffffffffffffffffffffffffff161461068c576040517f08c379a000000000000000000000000000000000000000000000000000000000815260040161068390611a4d565b60405180910390fd5b60038260ff161080156106a2575060038160ff16105b6106e1576040517f08c379a00000000000000000000000000000000000000000000000000000000081526004016106d890611ab9565b60405180910390fd5b6000808360ff16600381106106f9576106f8611ad9565b5b018260ff166003811061070f5761070e611ad9565b5b602091828204019190069054906101000a900460ff1660ff1614610768576040517f08c379a000000000000000000000000000000000000000000000000000000000815260040161075f90611b54565b60405180910390fd5b600360009054906101000a900473ffffffffffffffffffffffffffffffffffffffff1673ffffffffffffffffffffffffffffffffffffffff163373ffffffffffffffffffffffffffffffffffffffff160361081157600160008360ff16600381106107d6576107d5611ad9565b5b018260ff16600381106107ec576107eb611ad9565b5b602091828204019190066101000a81548160ff021916908360ff160217905550610861565b600260008360ff166003811061082a57610829611ad9565b5b018260ff16600381106108405761083f611ad9565b5b602091828204019190066101000a81548160ff021916908360ff1602179055505b610869610c7b565b600560149054906101000a900460ff1661088657610885611276565b5b5050565b6000826003811061089a57600080fd5b0181600381106108a957600080fd5b60209182820401919006915091509054906101000a900460ff1681565b600080600360009054906101000a900473ffffffffffffffffffffffffffffffffffffffff16600460009054906101000a900473ffffffffffffffffffffffffffffffffffffffff16915091509091565b600360009054906101000a900473ffffffffffffffffffffffffffffffffffffffff1673ffffffffffffffffffffffffffffffffffffffff163373ffffffffffffffffffffffffffffffffffffffff1614806109c05750600460009054906101000a900473ffffffffffffffffffffffffffffffffffffffff1673ffffffffffffffffffffffffffffffffffffffff163373ffffffffffffffffffffffffffffffffffffffff16145b6109ff576040517f08c379a00000000000000000000000000000000000000000000000000000000081526004016109f690611be6565b60405180910390fd5b60005b60038160ff161015610aab5760005b60008260ff1660038110610a2857610a27611ad9565b5b505060038160ff161015610a97576000808360ff1660038110610a4e57610a4d611ad9565b5b018260ff1660038110610a6457610a63611ad9565b5b602091828204019190066101000a81548160ff021916908360ff1602179055508080610a8f90611c35565b915050610a11565b508080610aa390611c35565b915050610a02565b506000600560146101000a81548160ff0219169083151502179055506000600660006101000a81548173ffffffffffffffffffffffffffffffffffffffff021916908373ffffffffffffffffffffffffffffffffffffffff16021790555033600560006101000a81548173ffffffffffffffffffffffffffffffffffffffff021916908373ffffffffffffffffffffffffffffffffffffffff160217905550600460009054906101000a900473ffffffffffffffffffffffffffffffffffffffff1673ffffffffffffffffffffffffffffffffffffffff16600360009054906101000a900473ffffffffffffffffffffffffffffffffffffffff1673ffffffffffffffffffffffffffffffffffffffff163073ffffffffffffffffffffffffffffffffffffffff167fe733eb5c42c855d38269254700780d064a49ef1611d1f3bfdda632ec19891f5660405160405180910390a4565b6000600460009054906101000a900473ffffffffffffffffffffffffffffffffffffffff16905090565b6000600360009054906101000a900473ffffffffffffffffffffffffffffffffffffffff16905090565b600660009054906101000a900473ffffffffffffffffffffffffffffffffffffffff1681565b6000600360009054906101000a900473ffffffffffffffffffffffffffffffffffffffff1673ffffffffffffffffffffffffffffffffffffffff163373ffffffffffffffffffffffffffffffffffffffff1603610cdb5760019050610ce0565b600290505b60005b60038160ff161015610ef9578160ff1660008260ff1660038110610d0a57610d09611ad9565b5b01600060038110610d1e57610d1d611ad9565b5b602091828204019190069054906101000a900460ff1660ff16148015610d8957508160ff1660008260ff1660038110610d5a57610d59611ad9565b5b01600160038110610d6e57610d6d611ad9565b5b602091828204019190069054906101000a900460ff1660ff16145b8015610dda57508160ff1660008260ff1660038110610dab57610daa611ad9565b5b01600260038110610dbf57610dbe611ad9565b5b602091828204019190069054906101000a900460ff1660ff16145b15610dee57610de76113ba565b5050611274565b8160ff1660008060038110610e0657610e05611ad9565b5b018260ff1660038110610e1c57610e1b611ad9565b5b602091828204019190069054906101000a900460ff1660ff16148015610e8757508160ff166000600160038110610e5657610e55611ad9565b5b018260ff1660038110610e6c57610e6b611ad9565b5b602091828204019190069054906101000a900460ff1660ff16145b8015610ed857508160ff166000600260038110610ea757610ea6611ad9565b5b018260ff1660038110610ebd57610ebc611ad9565b5b602091828204019190069054906101000a900460ff1660ff16145b15610eec57610ee56113ba565b5050611274565b8080600101915050610ce3565b508060ff1660008060038110610f1257610f11611ad9565b5b01600060038110610f2657610f25611ad9565b5b602091828204019190069054906101000a900460ff1660ff16148015610f8f57508060ff166000600160038110610f6057610f5f611ad9565b5b01600160038110610f7457610f73611ad9565b5b602091828204019190069054906101000a900460ff1660ff16145b8015610fde57508060ff166000600260038110610faf57610fae611ad9565b5b01600260038110610fc357610fc2611ad9565b5b602091828204019190069054906101000a900460ff1660ff16145b15610ff157610feb6113ba565b50611274565b8060ff166000806003811061100957611008611ad9565b5b0160026003811061101d5761101c611ad9565b5b602091828204019190069054906101000a900460ff1660ff1614801561108657508060ff16600060016003811061105757611056611ad9565b5b0160016003811061106b5761106a611ad9565b5b602091828204019190069054906101000a900460ff1660ff16145b80156110d557508060ff1660006002600381106110a6576110a5611ad9565b5b016000600381106110ba576110b9611ad9565b5b602091828204019190069054906101000a900460ff1660ff16145b156110e8576110e26113ba565b50611274565b6000805b60038160ff1610156111a25760005b60008260ff166003811061111257611111611ad9565b5b505060038160ff16101561118e576000808360ff166003811061113857611137611ad9565b5b018260ff166003811061114e5761114d611ad9565b5b602091828204019190069054906101000a900460ff1660ff161461117b57828061117790611c35565b9350505b808061118690611c35565b9150506110fb565b50808061119a90611c35565b9150506110ec565b5060098160ff1603611271576001600560146101000a81548160ff0219169083151502179055506000600660006101000a81548173ffffffffffffffffffffffffffffffffffffffff021916908373ffffffffffffffffffffffffffffffffffffffff160217905550600660009054906101000a900473ffffffffffffffffffffffffffffffffffffffff1673ffffffffffffffffffffffffffffffffffffffff167f51b77d00d3c0b7e376e9ee146711ceb2c08e58a5dbe38055a618e52109f720c160405160405180910390a25b50505b565b600360009054906101000a900473ffffffffffffffffffffffffffffffffffffffff1673ffffffffffffffffffffffffffffffffffffffff16600560009054906101000a900473ffffffffffffffffffffffffffffffffffffffff1673ffffffffffffffffffffffffffffffffffffffff161461135457600360009054906101000a900473ffffffffffffffffffffffffffffffffffffffff16600560006101000a81548173ffffffffffffffffffffffffffffffffffffffff021916908373ffffffffffffffffffffffffffffffffffffffff16021790556113b7565b600460009054906101000a900473ffffffffffffffffffffffffffffffffffffffff16600560006101000a81548173ffffffffffffffffffffffffffffffffffffffff021916908373ffffffffffffffffffffffffffffffffffffffff16021790555b50565b6001600560146101000a81548160ff02191690831515021790555033600660006101000a81548173ffffffffffffffffffffffffffffffffffffffff021916908373ffffffffffffffffffffffffffffffffffffffff160217905550600660009054906101000a900473ffffffffffffffffffffffffffffffffffffffff1673ffffffffffffffffffffffffffffffffffffffff167f51b77d00d3c0b7e376e9ee146711ceb2c08e58a5dbe38055a618e52109f720c160405160405180910390a2565b60405180606001604052806003905b6114946114aa565b81526020019060019003908161148c5790505090565b6040518060600160405280600390602082028036833780820191505090505090565b600073ffffffffffffffffffffffffffffffffffffffff82169050919050565b60006114f7826114cc565b9050919050565b611507816114ec565b82525050565b600060208201905061152260008301846114fe565b92915050565b60008115159050919050565b61153d81611528565b82525050565b60006020820190506115586000830184611534565b92915050565b600060039050919050565b600081905092915050565b6000819050919050565b600060039050919050565b600081905092915050565b6000819050919050565b600060ff82169050919050565b6115b48161159e565b82525050565b60006115c683836115ab565b60208301905092915050565b6000602082019050919050565b6115e88161157e565b6115f28184611589565b92506115fd82611594565b8060005b8381101561162e57815161161587826115ba565b9650611620836115d2565b925050600181019050611601565b505050505050565b600061164283836115df565b60608301905092915050565b6000602082019050919050565b6116648161155e565b61166e8184611569565b925061167982611574565b8060005b838110156116aa5781516116918782611636565b965061169c8361164e565b92505060018101905061167d565b505050505050565b6000610120820190506116c8600083018461165b565b92915050565b600080fd5b60006116de826114cc565b9050919050565b6116ee816116d3565b81146116f957600080fd5b50565b60008135905061170b816116e5565b92915050565b60008060408385031215611728576117276116ce565b5b6000611736858286016116fc565b9250506020611747858286016116fc565b9150509250929050565b61175a8161159e565b811461176557600080fd5b50565b60008135905061177781611751565b92915050565b60008060408385031215611794576117936116ce565b5b60006117a285828601611768565b92505060206117b385828601611768565b9150509250929050565b6000819050919050565b6117d0816117bd565b81146117db57600080fd5b50565b6000813590506117ed816117c7565b92915050565b6000806040838503121561180a576118096116ce565b5b6000611818858286016117de565b9250506020611829858286016117de565b9150509250929050565b61183c8161159e565b82525050565b60006020820190506118576000830184611833565b92915050565b600060408201905061187260008301856114fe565b61187f60208301846114fe565b9392505050565b600082825260208201905092915050565b7f47616d6520616c726561647920696e697469616c697a65640000000000000000600082015250565b60006118cd601883611886565b91506118d882611897565b602082019050919050565b600060208201905081810360008301526118fc816118c0565b9050919050565b7f4f7468657220706c61796572206d75737420757365206120646966666572656e60008201527f7420616464726573730000000000000000000000000000000000000000000000602082015250565b600061195f602983611886565b915061196a82611903565b604082019050919050565b6000602082019050818103600083015261198e81611952565b9050919050565b7f5468652067616d65206973206f7665722e000000000000000000000000000000600082015250565b60006119cb601183611886565b91506119d682611995565b602082019050919050565b600060208201905081810360008301526119fa816119be565b9050919050565b7f49742773206e6f7420796f7572207475726e2e00000000000000000000000000600082015250565b6000611a37601383611886565b9150611a4282611a01565b602082019050919050565b60006020820190508181036000830152611a6681611a2a565b9050919050565b7f496e76616c696420726f77206f7220636f6c756d6e20706c6163656d656e7400600082015250565b6000611aa3601f83611886565b9150611aae82611a6d565b602082019050919050565b60006020820190508181036000830152611ad281611a96565b9050919050565b7f4e487b7100000000000000000000000000000000000000000000000000000000600052603260045260246000fd5b7f43656c6c20697320616c72656164792074616b656e2e00000000000000000000600082015250565b6000611b3e601683611886565b9150611b4982611b08565b602082019050919050565b60006020820190508181036000830152611b6d81611b31565b9050919050565b7f43616e6e6f7420726573746172742067616d652c206e6f74206120706c61796560008201527f7200000000000000000000000000000000000000000000000000000000000000602082015250565b6000611bd0602183611886565b9150611bdb82611b74565b604082019050919050565b60006020820190508181036000830152611bff81611bc3565b9050919050565b7f4e487b7100000000000000000000000000000000000000000000000000000000600052601160045260246000fd5b6000611c408261159e565b915060ff8203611c5357611c52611c06565b5b60018201905091905056fea26469706673582212203cb47fda987d718fa1d16ed92b7d6f46e36eb23fa9939d75b2eaf77e3d1a939264736f6c634300081c0033",
  "linkReferences": {},
  "deployedLinkReferences": {}
}