{
  "_format": "hh-sol-artifact-1",
  "contractName": "TicTacToe",
  "sourceName": "contracts/TicTacToe.sol",
  "abi": [
    {
      "inputs": [
        {
          "internalType": "address payable",
          "name": "_playerO",
          "type": "address"
        }
      ],
      "stateMutability": "nonpayable",
      "type": "constructor"
    },
    {
      "inputs": [
        {
          "internalType": "uint256",
          "name": "",
          "type": "uint256"
        },
        {
          "internalType": "uint256",
          "name": "",
          "type": "uint256"
        }
      ],
      "name": "board",
      "outputs": [
        {
          "internalType": "uint8",
          "name": "",
          "type": "uint8"
        }
      ],
      "stateMutability": "view",
      "type": "function"
    },
    {
      "inputs": [],
      "name": "isGameOver",
      "outputs": [
        {
          "internalType": "bool",
          "name": "",
          "type": "bool"
        }
      ],
      "stateMutability": "view",
      "type": "function"
    },
    {
      "inputs": [],
      "name": "nextPlayer",
      "outputs": [
        {
          "internalType": "address",
          "name": "",
          "type": "address"
        }
      ],
      "stateMutability": "view",
      "type": "function"
    },
    {
      "inputs": [],
      "name": "playerO",
      "outputs": [
        {
          "internalType": "address payable",
          "name": "",
          "type": "address"
        }
      ],
      "stateMutability": "view",
      "type": "function"
    },
    {
      "inputs": [],
      "name": "playerX",
      "outputs": [
        {
          "internalType": "address payable",
          "name": "",
          "type": "address"
        }
      ],
      "stateMutability": "view",
      "type": "function"
    }
  ],
  "bytecode": "0x608060405234801561001057600080fd5b506040516106853803806106858339818101604052810190610032919061022b565b33600360006101000a81548173ffffffffffffffffffffffffffffffffffffffff021916908373ffffffffffffffffffffffffffffffffffffffff1602179055508073ffffffffffffffffffffffffffffffffffffffff16600360009054906101000a900473ffffffffffffffffffffffffffffffffffffffff1673ffffffffffffffffffffffffffffffffffffffff1603610103576040517f08c379a00000000000000000000000000000000000000000000000000000000081526004016100fa906102db565b60405180910390fd5b80600460006101000a81548173ffffffffffffffffffffffffffffffffffffffff021916908373ffffffffffffffffffffffffffffffffffffffff160217905550600360009054906101000a900473ffffffffffffffffffffffffffffffffffffffff16600560006101000a81548173ffffffffffffffffffffffffffffffffffffffff021916908373ffffffffffffffffffffffffffffffffffffffff1602179055506000600560146101000a81548160ff021916908315150217905550506102fb565b600080fd5b600073ffffffffffffffffffffffffffffffffffffffff82169050919050565b60006101f8826101cd565b9050919050565b610208816101ed565b811461021357600080fd5b50565b600081519050610225816101ff565b92915050565b600060208284031215610241576102406101c8565b5b600061024f84828501610216565b91505092915050565b600082825260208201905092915050565b7f506c61796572204f206d757374206265206120646966666572656e742061646460008201527f726573732e000000000000000000000000000000000000000000000000000000602082015250565b60006102c5602583610258565b91506102d082610269565b604082019050919050565b600060208201905081810360008301526102f4816102b8565b9050919050565b61037b8061030a6000396000f3fe608060405234801561001057600080fd5b50600436106100575760003560e01c806304a936051461005c5780630e04a7d81461007a5780634cdea7d2146100985780638086a92a146100b6578063e7dafa6e146100e6575b600080fd5b610064610104565b6040516100719190610206565b60405180910390f35b61008261012a565b60405161008f919061023c565b60405180910390f35b6100a061013d565b6040516100ad9190610278565b60405180910390f35b6100d060048036038101906100cb91906102ce565b610163565b6040516100dd919061032a565b60405180910390f35b6100ee61019f565b6040516100fb9190610278565b60405180910390f35b600560009054906101000a900473ffffffffffffffffffffffffffffffffffffffff1681565b600560149054906101000a900460ff1681565b600360009054906101000a900473ffffffffffffffffffffffffffffffffffffffff1681565b6000826003811061017357600080fd5b01816003811061018257600080fd5b60209182820401919006915091509054906101000a900460ff1681565b600460009054906101000a900473ffffffffffffffffffffffffffffffffffffffff1681565b600073ffffffffffffffffffffffffffffffffffffffff82169050919050565b60006101f0826101c5565b9050919050565b610200816101e5565b82525050565b600060208201905061021b60008301846101f7565b92915050565b60008115159050919050565b61023681610221565b82525050565b6000602082019050610251600083018461022d565b92915050565b6000610262826101c5565b9050919050565b61027281610257565b82525050565b600060208201905061028d6000830184610269565b92915050565b600080fd5b6000819050919050565b6102ab81610298565b81146102b657600080fd5b50565b6000813590506102c8816102a2565b92915050565b600080604083850312156102e5576102e4610293565b5b60006102f3858286016102b9565b9250506020610304858286016102b9565b9150509250929050565b600060ff82169050919050565b6103248161030e565b82525050565b600060208201905061033f600083018461031b565b9291505056fea2646970667358221220aba0cf2c7a8af2bb38b3082fdca9b24b36415a1f1646430a85a6fb1df445dc2064736f6c634300081c0033",
  "linkReferences": {},
  "deployedLinkReferences": {}
}