{
	"data": {
		"bytecode": {
			"linkReferences": {},
			"object": "608060405234801561000f575f5ffd5b506040516112993803806112998339818101604052810190610031919061021f565b3360035f6101000a81548173ffffffffffffffffffffffffffffffffffffffff021916908373ffffffffffffffffffffffffffffffffffffffff1602179055508073ffffffffffffffffffffffffffffffffffffffff1660035f9054906101000a900473ffffffffffffffffffffffffffffffffffffffff1673ffffffffffffffffffffffffffffffffffffffff1603610100576040517f08c379a00000000000000000000000000000000000000000000000000000000081526004016100f7906102ca565b60405180910390fd5b8060045f6101000a81548173ffffffffffffffffffffffffffffffffffffffff021916908373ffffffffffffffffffffffffffffffffffffffff16021790555060035f9054906101000a900473ffffffffffffffffffffffffffffffffffffffff1660055f6101000a81548173ffffffffffffffffffffffffffffffffffffffff021916908373ffffffffffffffffffffffffffffffffffffffff1602179055505f600560146101000a81548160ff021916908315150217905550506102e8565b5f5ffd5b5f73ffffffffffffffffffffffffffffffffffffffff82169050919050565b5f6101ee826101c5565b9050919050565b6101fe816101e4565b8114610208575f5ffd5b50565b5f81519050610219816101f5565b92915050565b5f60208284031215610234576102336101c1565b5b5f6102418482850161020b565b91505092915050565b5f82825260208201905092915050565b7f506c61796572204f206d757374206265206120646966666572656e74206164645f8201527f726573732e000000000000000000000000000000000000000000000000000000602082015250565b5f6102b460258361024a565b91506102bf8261025a565b604082019050919050565b5f6020820190508181035f8301526102e1816102a8565b9050919050565b610fa4806102f55f395ff3fe608060405234801561000f575f5ffd5b5060043610610060575f3560e01c806304a93605146100645780630e04a7d8146100825780634cdea7d2146100a05780635e24b0f1146100be5780638086a92a146100da578063e7dafa6e1461010a575b5f5ffd5b61006c610128565b6040516100799190610ba6565b60405180910390f35b61008a61014d565b6040516100979190610bd9565b60405180910390f35b6100a8610160565b6040516100b59190610c12565b60405180910390f35b6100d860048036038101906100d39190610c65565b610185565b005b6100f460048036038101906100ef9190610cd6565b61045e565b6040516101019190610d23565b60405180910390f35b610112610497565b60405161011f9190610c12565b60405180910390f35b60055f9054906101000a900473ffffffffffffffffffffffffffffffffffffffff1681565b600560149054906101000a900460ff1681565b60035f9054906101000a900473ffffffffffffffffffffffffffffffffffffffff1681565b600560149054906101000a900460ff16156101d5576040517f08c379a00000000000000000000000000000000000000000000000000000000081526004016101cc90610d96565b60405180910390fd5b60055f9054906101000a900473ffffffffffffffffffffffffffffffffffffffff1673ffffffffffffffffffffffffffffffffffffffff163373ffffffffffffffffffffffffffffffffffffffff1614610264576040517f08c379a000000000000000000000000000000000000000000000000000000000815260040161025b90610dfe565b60405180910390fd5b60038260ff1610801561027a575060038160ff16105b6102b9576040517f08c379a00000000000000000000000000000000000000000000000000000000081526004016102b090610e66565b60405180910390fd5b5f5f8360ff16600381106102d0576102cf610e84565b5b018260ff16600381106102e6576102e5610e84565b5b602091828204019190069054906101000a900460ff1660ff161461033f576040517f08c379a000000000000000000000000000000000000000000000000000000000815260040161033690610efb565b60405180910390fd5b60035f9054906101000a900473ffffffffffffffffffffffffffffffffffffffff1673ffffffffffffffffffffffffffffffffffffffff163373ffffffffffffffffffffffffffffffffffffffff16036103e65760015f8360ff16600381106103ab576103aa610e84565b5b018260ff16600381106103c1576103c0610e84565b5b602091828204019190066101000a81548160ff021916908360ff160217905550610435565b60025f8360ff16600381106103fe576103fd610e84565b5b018260ff166003811061041457610413610e84565b5b602091828204019190066101000a81548160ff021916908360ff1602179055505b61043d6104bc565b600560149054906101000a900460ff1661045a57610459610a28565b5b5050565b5f826003811061046c575f80fd5b01816003811061047a575f80fd5b60209182820401919006915091509054906101000a900460ff1681565b60045f9054906101000a900473ffffffffffffffffffffffffffffffffffffffff1681565b5f60035f9054906101000a900473ffffffffffffffffffffffffffffffffffffffff1673ffffffffffffffffffffffffffffffffffffffff163373ffffffffffffffffffffffffffffffffffffffff160361051a576001905061051f565b600290505b5f5f90505b60038160ff161015610759578160ff165f8260ff166003811061054a57610549610e84565b5b015f6003811061055d5761055c610e84565b5b602091828204019190069054906101000a900460ff1660ff161480156105c757508160ff165f8260ff166003811061059857610597610e84565b5b016001600381106105ac576105ab610e84565b5b602091828204019190069054906101000a900460ff1660ff16145b801561061757508160ff165f8260ff16600381106105e8576105e7610e84565b5b016002600381106105fc576105fb610e84565b5b602091828204019190069054906101000a900460ff1660ff16145b1561063e576001600560146101000a81548160ff0219169083151502179055505050610a26565b8160ff165f5f6003811061065557610654610e84565b5b018260ff166003811061066b5761066a610e84565b5b602091828204019190069054906101000a900460ff1660ff161480156106d557508160ff165f6001600381106106a4576106a3610e84565b5b018260ff16600381106106ba576106b9610e84565b5b602091828204019190069054906101000a900460ff1660ff16145b801561072557508160ff165f6002600381106106f4576106f3610e84565b5b018260ff166003811061070a57610709610e84565b5b602091828204019190069054906101000a900460ff1660ff16145b1561074c576001600560146101000a81548160ff0219169083151502179055505050610a26565b8080600101915050610524565b508060ff165f5f6003811061077157610770610e84565b5b015f6003811061078457610783610e84565b5b602091828204019190069054906101000a900460ff1660ff161480156107ec57508060ff165f6001600381106107bd576107bc610e84565b5b016001600381106107d1576107d0610e84565b5b602091828204019190069054906101000a900460ff1660ff16145b801561083a57508060ff165f60026003811061080b5761080a610e84565b5b0160026003811061081f5761081e610e84565b5b602091828204019190069054906101000a900460ff1660ff16145b15610860576001600560146101000a81548160ff02191690831515021790555050610a26565b8060ff165f5f6003811061087757610876610e84565b5b0160026003811061088b5761088a610e84565b5b602091828204019190069054906101000a900460ff1660ff161480156108f357508060ff165f6001600381106108c4576108c3610e84565b5b016001600381106108d8576108d7610e84565b5b602091828204019190069054906101000a900460ff1660ff16145b801561094057508060ff165f60026003811061091257610911610e84565b5b015f6003811061092557610924610e84565b5b602091828204019190069054906101000a900460ff1660ff16145b15610966576001600560146101000a81548160ff02191690831515021790555050610a26565b5f5f90505f5f90505b60038110156109fb575f5f90505b60038160ff1610156109ed575f5f836003811061099d5761099c610e84565b5b018260ff16600381106109b3576109b2610e84565b5b602091828204019190069054906101000a900460ff1660ff16146109e05782806109dc90610f46565b9350505b808060010191505061097d565b50808060010191505061096f565b5060098160ff1603610a23576001600560146101000a81548160ff0219169083151502179055505b50505b565b60035f9054906101000a900473ffffffffffffffffffffffffffffffffffffffff1673ffffffffffffffffffffffffffffffffffffffff1660055f9054906101000a900473ffffffffffffffffffffffffffffffffffffffff1673ffffffffffffffffffffffffffffffffffffffff1603610b035760045f9054906101000a900473ffffffffffffffffffffffffffffffffffffffff1660055f6101000a81548173ffffffffffffffffffffffffffffffffffffffff021916908373ffffffffffffffffffffffffffffffffffffffff160217905550610b65565b60035f9054906101000a900473ffffffffffffffffffffffffffffffffffffffff1660055f6101000a81548173ffffffffffffffffffffffffffffffffffffffff021916908373ffffffffffffffffffffffffffffffffffffffff1602179055505b565b5f73ffffffffffffffffffffffffffffffffffffffff82169050919050565b5f610b9082610b67565b9050919050565b610ba081610b86565b82525050565b5f602082019050610bb95f830184610b97565b92915050565b5f8115159050919050565b610bd381610bbf565b82525050565b5f602082019050610bec5f830184610bca565b92915050565b5f610bfc82610b67565b9050919050565b610c0c81610bf2565b82525050565b5f602082019050610c255f830184610c03565b92915050565b5f5ffd5b5f60ff82169050919050565b610c4481610c2f565b8114610c4e575f5ffd5b50565b5f81359050610c5f81610c3b565b92915050565b5f5f60408385031215610c7b57610c7a610c2b565b5b5f610c8885828601610c51565b9250506020610c9985828601610c51565b9150509250929050565b5f819050919050565b610cb581610ca3565b8114610cbf575f5ffd5b50565b5f81359050610cd081610cac565b92915050565b5f5f60408385031215610cec57610ceb610c2b565b5b5f610cf985828601610cc2565b9250506020610d0a85828601610cc2565b9150509250929050565b610d1d81610c2f565b82525050565b5f602082019050610d365f830184610d14565b92915050565b5f82825260208201905092915050565b7f5468652067616d65206973206f7665722e0000000000000000000000000000005f82015250565b5f610d80601183610d3c565b9150610d8b82610d4c565b602082019050919050565b5f6020820190508181035f830152610dad81610d74565b9050919050565b7f49742773206e6f7420796f7572207475726e2e000000000000000000000000005f82015250565b5f610de8601383610d3c565b9150610df382610db4565b602082019050919050565b5f6020820190508181035f830152610e1581610ddc565b9050919050565b7f496e76616c696420726f77206f7220636f6c756d6e20706c6163656d656e74005f82015250565b5f610e50601f83610d3c565b9150610e5b82610e1c565b602082019050919050565b5f6020820190508181035f830152610e7d81610e44565b9050919050565b7f4e487b71000000000000000000000000000000000000000000000000000000005f52603260045260245ffd5b7f43656c6c20697320616c72656164792074616b656e2e000000000000000000005f82015250565b5f610ee5601683610d3c565b9150610ef082610eb1565b602082019050919050565b5f6020820190508181035f830152610f1281610ed9565b9050919050565b7f4e487b71000000000000000000000000000000000000000000000000000000005f52601160045260245ffd5b5f610f5082610c2f565b915060ff8203610f6357610f62610f19565b5b60018201905091905056fea264697066735822122019b2a2c9d8968f162959447afb194d4afe49f3d519a7bb633edafaa3fa189e4d64736f6c634300081e0033",
			"opcodes": "PUSH1 0x80 PUSH1 0x40 MSTORE CALLVALUE DUP1 ISZERO PUSH2 0xF JUMPI PUSH0 PUSH0 REVERT JUMPDEST POP PUSH1 0x40 MLOAD PUSH2 0x1299 CODESIZE SUB DUP1 PUSH2 0x1299 DUP4 CODECOPY DUP2 DUP2 ADD PUSH1 0x40 MSTORE DUP2 ADD SWAP1 PUSH2 0x31 SWAP2 SWAP1 PUSH2 0x21F JUMP JUMPDEST CALLER PUSH1 0x3 PUSH0 PUSH2 0x100 EXP DUP2 SLOAD DUP2 PUSH20 0xFFFFFFFFFFFFFFFFFFFFFFFFFFFFFFFFFFFFFFFF MUL NOT AND SWAP1 DUP4 PUSH20 0xFFFFFFFFFFFFFFFFFFFFFFFFFFFFFFFFFFFFFFFF AND MUL OR SWAP1 SSTORE POP DUP1 PUSH20 0xFFFFFFFFFFFFFFFFFFFFFFFFFFFFFFFFFFFFFFFF AND PUSH1 0x3 PUSH0 SWAP1 SLOAD SWAP1 PUSH2 0x100 EXP SWAP1 DIV PUSH20 0xFFFFFFFFFFFFFFFFFFFFFFFFFFFFFFFFFFFFFFFF AND PUSH20 0xFFFFFFFFFFFFFFFFFFFFFFFFFFFFFFFFFFFFFFFF AND SUB PUSH2 0x100 JUMPI PUSH1 0x40 MLOAD PUSH32 0x8C379A000000000000000000000000000000000000000000000000000000000 DUP2 MSTORE PUSH1 0x4 ADD PUSH2 0xF7 SWAP1 PUSH2 0x2CA JUMP JUMPDEST PUSH1 0x40 MLOAD DUP1 SWAP2 SUB SWAP1 REVERT JUMPDEST DUP1 PUSH1 0x4 PUSH0 PUSH2 0x100 EXP DUP2 SLOAD DUP2 PUSH20 0xFFFFFFFFFFFFFFFFFFFFFFFFFFFFFFFFFFFFFFFF MUL NOT AND SWAP1 DUP4 PUSH20 0xFFFFFFFFFFFFFFFFFFFFFFFFFFFFFFFFFFFFFFFF AND MUL OR SWAP1 SSTORE POP PUSH1 0x3 PUSH0 SWAP1 SLOAD SWAP1 PUSH2 0x100 EXP SWAP1 DIV PUSH20 0xFFFFFFFFFFFFFFFFFFFFFFFFFFFFFFFFFFFFFFFF AND PUSH1 0x5 PUSH0 PUSH2 0x100 EXP DUP2 SLOAD DUP2 PUSH20 0xFFFFFFFFFFFFFFFFFFFFFFFFFFFFFFFFFFFFFFFF MUL NOT AND SWAP1 DUP4 PUSH20 0xFFFFFFFFFFFFFFFFFFFFFFFFFFFFFFFFFFFFFFFF AND MUL OR SWAP1 SSTORE POP PUSH0 PUSH1 0x5 PUSH1 0x14 PUSH2 0x100 EXP DUP2 SLOAD DUP2 PUSH1 0xFF MUL NOT AND SWAP1 DUP4 ISZERO ISZERO MUL OR SWAP1 SSTORE POP POP PUSH2 0x2E8 JUMP JUMPDEST PUSH0 PUSH0 REVERT JUMPDEST PUSH0 PUSH20 0xFFFFFFFFFFFFFFFFFFFFFFFFFFFFFFFFFFFFFFFF DUP3 AND SWAP1 POP SWAP2 SWAP1 POP JUMP JUMPDEST PUSH0 PUSH2 0x1EE DUP3 PUSH2 0x1C5 JUMP JUMPDEST SWAP1 POP SWAP2 SWAP1 POP JUMP JUMPDEST PUSH2 0x1FE DUP2 PUSH2 0x1E4 JUMP JUMPDEST DUP2 EQ PUSH2 0x208 JUMPI PUSH0 PUSH0 REVERT JUMPDEST POP JUMP JUMPDEST PUSH0 DUP2 MLOAD SWAP1 POP PUSH2 0x219 DUP2 PUSH2 0x1F5 JUMP JUMPDEST SWAP3 SWAP2 POP POP JUMP JUMPDEST PUSH0 PUSH1 0x20 DUP3 DUP5 SUB SLT ISZERO PUSH2 0x234 JUMPI PUSH2 0x233 PUSH2 0x1C1 JUMP JUMPDEST JUMPDEST PUSH0 PUSH2 0x241 DUP5 DUP3 DUP6 ADD PUSH2 0x20B JUMP JUMPDEST SWAP2 POP POP SWAP3 SWAP2 POP POP JUMP JUMPDEST PUSH0 DUP3 DUP3 MSTORE PUSH1 0x20 DUP3 ADD SWAP1 POP SWAP3 SWAP2 POP POP JUMP JUMPDEST PUSH32 0x506C61796572204F206D757374206265206120646966666572656E7420616464 PUSH0 DUP3 ADD MSTORE PUSH32 0x726573732E000000000000000000000000000000000000000000000000000000 PUSH1 0x20 DUP3 ADD MSTORE POP JUMP JUMPDEST PUSH0 PUSH2 0x2B4 PUSH1 0x25 DUP4 PUSH2 0x24A JUMP JUMPDEST SWAP2 POP PUSH2 0x2BF DUP3 PUSH2 0x25A JUMP JUMPDEST PUSH1 0x40 DUP3 ADD SWAP1 POP SWAP2 SWAP1 POP JUMP JUMPDEST PUSH0 PUSH1 0x20 DUP3 ADD SWAP1 POP DUP2 DUP2 SUB PUSH0 DUP4 ADD MSTORE PUSH2 0x2E1 DUP2 PUSH2 0x2A8 JUMP JUMPDEST SWAP1 POP SWAP2 SWAP1 POP JUMP JUMPDEST PUSH2 0xFA4 DUP1 PUSH2 0x2F5 PUSH0 CODECOPY PUSH0 RETURN INVALID PUSH1 0x80 PUSH1 0x40 MSTORE CALLVALUE DUP1 ISZERO PUSH2 0xF JUMPI PUSH0 PUSH0 REVERT JUMPDEST POP PUSH1 0x4 CALLDATASIZE LT PUSH2 0x60 JUMPI PUSH0 CALLDATALOAD PUSH1 0xE0 SHR DUP1 PUSH4 0x4A93605 EQ PUSH2 0x64 JUMPI DUP1 PUSH4 0xE04A7D8 EQ PUSH2 0x82 JUMPI DUP1 PUSH4 0x4CDEA7D2 EQ PUSH2 0xA0 JUMPI DUP1 PUSH4 0x5E24B0F1 EQ PUSH2 0xBE JUMPI DUP1 PUSH4 0x8086A92A EQ PUSH2 0xDA JUMPI DUP1 PUSH4 0xE7DAFA6E EQ PUSH2 0x10A JUMPI JUMPDEST PUSH0 PUSH0 REVERT JUMPDEST PUSH2 0x6C PUSH2 0x128 JUMP JUMPDEST PUSH1 0x40 MLOAD PUSH2 0x79 SWAP2 SWAP1 PUSH2 0xBA6 JUMP JUMPDEST PUSH1 0x40 MLOAD DUP1 SWAP2 SUB SWAP1 RETURN JUMPDEST PUSH2 0x8A PUSH2 0x14D JUMP JUMPDEST PUSH1 0x40 MLOAD PUSH2 0x97 SWAP2 SWAP1 PUSH2 0xBD9 JUMP JUMPDEST PUSH1 0x40 MLOAD DUP1 SWAP2 SUB SWAP1 RETURN JUMPDEST PUSH2 0xA8 PUSH2 0x160 JUMP JUMPDEST PUSH1 0x40 MLOAD PUSH2 0xB5 SWAP2 SWAP1 PUSH2 0xC12 JUMP JUMPDEST PUSH1 0x40 MLOAD DUP1 SWAP2 SUB SWAP1 RETURN JUMPDEST PUSH2 0xD8 PUSH1 0x4 DUP1 CALLDATASIZE SUB DUP2 ADD SWAP1 PUSH2 0xD3 SWAP2 SWAP1 PUSH2 0xC65 JUMP JUMPDEST PUSH2 0x185 JUMP JUMPDEST STOP JUMPDEST PUSH2 0xF4 PUSH1 0x4 DUP1 CALLDATASIZE SUB DUP2 ADD SWAP1 PUSH2 0xEF SWAP2 SWAP1 PUSH2 0xCD6 JUMP JUMPDEST PUSH2 0x45E JUMP JUMPDEST PUSH1 0x40 MLOAD PUSH2 0x101 SWAP2 SWAP1 PUSH2 0xD23 JUMP JUMPDEST PUSH1 0x40 MLOAD DUP1 SWAP2 SUB SWAP1 RETURN JUMPDEST PUSH2 0x112 PUSH2 0x497 JUMP JUMPDEST PUSH1 0x40 MLOAD PUSH2 0x11F SWAP2 SWAP1 PUSH2 0xC12 JUMP JUMPDEST PUSH1 0x40 MLOAD DUP1 SWAP2 SUB SWAP1 RETURN JUMPDEST PUSH1 0x5 PUSH0 SWAP1 SLOAD SWAP1 PUSH2 0x100 EXP SWAP1 DIV PUSH20 0xFFFFFFFFFFFFFFFFFFFFFFFFFFFFFFFFFFFFFFFF AND DUP2 JUMP JUMPDEST PUSH1 0x5 PUSH1 0x14 SWAP1 SLOAD SWAP1 PUSH2 0x100 EXP SWAP1 DIV PUSH1 0xFF AND DUP2 JUMP JUMPDEST PUSH1 0x3 PUSH0 SWAP1 SLOAD SWAP1 PUSH2 0x100 EXP SWAP1 DIV PUSH20 0xFFFFFFFFFFFFFFFFFFFFFFFFFFFFFFFFFFFFFFFF AND DUP2 JUMP JUMPDEST PUSH1 0x5 PUSH1 0x14 SWAP1 SLOAD SWAP1 PUSH2 0x100 EXP SWAP1 DIV PUSH1 0xFF AND ISZERO PUSH2 0x1D5 JUMPI PUSH1 0x40 MLOAD PUSH32 0x8C379A000000000000000000000000000000000000000000000000000000000 DUP2 MSTORE PUSH1 0x4 ADD PUSH2 0x1CC SWAP1 PUSH2 0xD96 JUMP JUMPDEST PUSH1 0x40 MLOAD DUP1 SWAP2 SUB SWAP1 REVERT JUMPDEST PUSH1 0x5 PUSH0 SWAP1 SLOAD SWAP1 PUSH2 0x100 EXP SWAP1 DIV PUSH20 0xFFFFFFFFFFFFFFFFFFFFFFFFFFFFFFFFFFFFFFFF AND PUSH20 0xFFFFFFFFFFFFFFFFFFFFFFFFFFFFFFFFFFFFFFFF AND CALLER PUSH20 0xFFFFFFFFFFFFFFFFFFFFFFFFFFFFFFFFFFFFFFFF AND EQ PUSH2 0x264 JUMPI PUSH1 0x40 MLOAD PUSH32 0x8C379A000000000000000000000000000000000000000000000000000000000 DUP2 MSTORE PUSH1 0x4 ADD PUSH2 0x25B SWAP1 PUSH2 0xDFE JUMP JUMPDEST PUSH1 0x40 MLOAD DUP1 SWAP2 SUB SWAP1 REVERT JUMPDEST PUSH1 0x3 DUP3 PUSH1 0xFF AND LT DUP1 ISZERO PUSH2 0x27A JUMPI POP PUSH1 0x3 DUP2 PUSH1 0xFF AND LT JUMPDEST PUSH2 0x2B9 JUMPI PUSH1 0x40 MLOAD PUSH32 0x8C379A000000000000000000000000000000000000000000000000000000000 DUP2 MSTORE PUSH1 0x4 ADD PUSH2 0x2B0 SWAP1 PUSH2 0xE66 JUMP JUMPDEST PUSH1 0x40 MLOAD DUP1 SWAP2 SUB SWAP1 REVERT JUMPDEST PUSH0 PUSH0 DUP4 PUSH1 0xFF AND PUSH1 0x3 DUP2 LT PUSH2 0x2D0 JUMPI PUSH2 0x2CF PUSH2 0xE84 JUMP JUMPDEST JUMPDEST ADD DUP3 PUSH1 0xFF AND PUSH1 0x3 DUP2 LT PUSH2 0x2E6 JUMPI PUSH2 0x2E5 PUSH2 0xE84 JUMP JUMPDEST JUMPDEST PUSH1 0x20 SWAP2 DUP3 DUP3 DIV ADD SWAP2 SWAP1 MOD SWAP1 SLOAD SWAP1 PUSH2 0x100 EXP SWAP1 DIV PUSH1 0xFF AND PUSH1 0xFF AND EQ PUSH2 0x33F JUMPI PUSH1 0x40 MLOAD PUSH32 0x8C379A000000000000000000000000000000000000000000000000000000000 DUP2 MSTORE PUSH1 0x4 ADD PUSH2 0x336 SWAP1 PUSH2 0xEFB JUMP JUMPDEST PUSH1 0x40 MLOAD DUP1 SWAP2 SUB SWAP1 REVERT JUMPDEST PUSH1 0x3 PUSH0 SWAP1 SLOAD SWAP1 PUSH2 0x100 EXP SWAP1 DIV PUSH20 0xFFFFFFFFFFFFFFFFFFFFFFFFFFFFFFFFFFFFFFFF AND PUSH20 0xFFFFFFFFFFFFFFFFFFFFFFFFFFFFFFFFFFFFFFFF AND CALLER PUSH20 0xFFFFFFFFFFFFFFFFFFFFFFFFFFFFFFFFFFFFFFFF AND SUB PUSH2 0x3E6 JUMPI PUSH1 0x1 PUSH0 DUP4 PUSH1 0xFF AND PUSH1 0x3 DUP2 LT PUSH2 0x3AB JUMPI PUSH2 0x3AA PUSH2 0xE84 JUMP JUMPDEST JUMPDEST ADD DUP3 PUSH1 0xFF AND PUSH1 0x3 DUP2 LT PUSH2 0x3C1 JUMPI PUSH2 0x3C0 PUSH2 0xE84 JUMP JUMPDEST JUMPDEST PUSH1 0x20 SWAP2 DUP3 DUP3 DIV ADD SWAP2 SWAP1 MOD PUSH2 0x100 EXP DUP2 SLOAD DUP2 PUSH1 0xFF MUL NOT AND SWAP1 DUP4 PUSH1 0xFF AND MUL OR SWAP1 SSTORE POP PUSH2 0x435 JUMP JUMPDEST PUSH1 0x2 PUSH0 DUP4 PUSH1 0xFF AND PUSH1 0x3 DUP2 LT PUSH2 0x3FE JUMPI PUSH2 0x3FD PUSH2 0xE84 JUMP JUMPDEST JUMPDEST ADD DUP3 PUSH1 0xFF AND PUSH1 0x3 DUP2 LT PUSH2 0x414 JUMPI PUSH2 0x413 PUSH2 0xE84 JUMP JUMPDEST JUMPDEST PUSH1 0x20 SWAP2 DUP3 DUP3 DIV ADD SWAP2 SWAP1 MOD PUSH2 0x100 EXP DUP2 SLOAD DUP2 PUSH1 0xFF MUL NOT AND SWAP1 DUP4 PUSH1 0xFF AND MUL OR SWAP1 SSTORE POP JUMPDEST PUSH2 0x43D PUSH2 0x4BC JUMP JUMPDEST PUSH1 0x5 PUSH1 0x14 SWAP1 SLOAD SWAP1 PUSH2 0x100 EXP SWAP1 DIV PUSH1 0xFF AND PUSH2 0x45A JUMPI PUSH2 0x459 PUSH2 0xA28 JUMP JUMPDEST JUMPDEST POP POP JUMP JUMPDEST PUSH0 DUP3 PUSH1 0x3 DUP2 LT PUSH2 0x46C JUMPI PUSH0 DUP1 REVERT JUMPDEST ADD DUP2 PUSH1 0x3 DUP2 LT PUSH2 0x47A JUMPI PUSH0 DUP1 REVERT JUMPDEST PUSH1 0x20 SWAP2 DUP3 DUP3 DIV ADD SWAP2 SWAP1 MOD SWAP2 POP SWAP2 POP SWAP1 SLOAD SWAP1 PUSH2 0x100 EXP SWAP1 DIV PUSH1 0xFF AND DUP2 JUMP JUMPDEST PUSH1 0x4 PUSH0 SWAP1 SLOAD SWAP1 PUSH2 0x100 EXP SWAP1 DIV PUSH20 0xFFFFFFFFFFFFFFFFFFFFFFFFFFFFFFFFFFFFFFFF AND DUP2 JUMP JUMPDEST PUSH0 PUSH1 0x3 PUSH0 SWAP1 SLOAD SWAP1 PUSH2 0x100 EXP SWAP1 DIV PUSH20 0xFFFFFFFFFFFFFFFFFFFFFFFFFFFFFFFFFFFFFFFF AND PUSH20 0xFFFFFFFFFFFFFFFFFFFFFFFFFFFFFFFFFFFFFFFF AND CALLER PUSH20 0xFFFFFFFFFFFFFFFFFFFFFFFFFFFFFFFFFFFFFFFF AND SUB PUSH2 0x51A JUMPI PUSH1 0x1 SWAP1 POP PUSH2 0x51F JUMP JUMPDEST PUSH1 0x2 SWAP1 POP JUMPDEST PUSH0 PUSH0 SWAP1 POP JUMPDEST PUSH1 0x3 DUP2 PUSH1 0xFF AND LT ISZERO PUSH2 0x759 JUMPI DUP2 PUSH1 0xFF AND PUSH0 DUP3 PUSH1 0xFF AND PUSH1 0x3 DUP2 LT PUSH2 0x54A JUMPI PUSH2 0x549 PUSH2 0xE84 JUMP JUMPDEST JUMPDEST ADD PUSH0 PUSH1 0x3 DUP2 LT PUSH2 0x55D JUMPI PUSH2 0x55C PUSH2 0xE84 JUMP JUMPDEST JUMPDEST PUSH1 0x20 SWAP2 DUP3 DUP3 DIV ADD SWAP2 SWAP1 MOD SWAP1 SLOAD SWAP1 PUSH2 0x100 EXP SWAP1 DIV PUSH1 0xFF AND PUSH1 0xFF AND EQ DUP1 ISZERO PUSH2 0x5C7 JUMPI POP DUP2 PUSH1 0xFF AND PUSH0 DUP3 PUSH1 0xFF AND PUSH1 0x3 DUP2 LT PUSH2 0x598 JUMPI PUSH2 0x597 PUSH2 0xE84 JUMP JUMPDEST JUMPDEST ADD PUSH1 0x1 PUSH1 0x3 DUP2 LT PUSH2 0x5AC JUMPI PUSH2 0x5AB PUSH2 0xE84 JUMP JUMPDEST JUMPDEST PUSH1 0x20 SWAP2 DUP3 DUP3 DIV ADD SWAP2 SWAP1 MOD SWAP1 SLOAD SWAP1 PUSH2 0x100 EXP SWAP1 DIV PUSH1 0xFF AND PUSH1 0xFF AND EQ JUMPDEST DUP1 ISZERO PUSH2 0x617 JUMPI POP DUP2 PUSH1 0xFF AND PUSH0 DUP3 PUSH1 0xFF AND PUSH1 0x3 DUP2 LT PUSH2 0x5E8 JUMPI PUSH2 0x5E7 PUSH2 0xE84 JUMP JUMPDEST JUMPDEST ADD PUSH1 0x2 PUSH1 0x3 DUP2 LT PUSH2 0x5FC JUMPI PUSH2 0x5FB PUSH2 0xE84 JUMP JUMPDEST JUMPDEST PUSH1 0x20 SWAP2 DUP3 DUP3 DIV ADD SWAP2 SWAP1 MOD SWAP1 SLOAD SWAP1 PUSH2 0x100 EXP SWAP1 DIV PUSH1 0xFF AND PUSH1 0xFF AND EQ JUMPDEST ISZERO PUSH2 0x63E JUMPI PUSH1 0x1 PUSH1 0x5 PUSH1 0x14 PUSH2 0x100 EXP DUP2 SLOAD DUP2 PUSH1 0xFF MUL NOT AND SWAP1 DUP4 ISZERO ISZERO MUL OR SWAP1 SSTORE POP POP POP PUSH2 0xA26 JUMP JUMPDEST DUP2 PUSH1 0xFF AND PUSH0 PUSH0 PUSH1 0x3 DUP2 LT PUSH2 0x655 JUMPI PUSH2 0x654 PUSH2 0xE84 JUMP JUMPDEST JUMPDEST ADD DUP3 PUSH1 0xFF AND PUSH1 0x3 DUP2 LT PUSH2 0x66B JUMPI PUSH2 0x66A PUSH2 0xE84 JUMP JUMPDEST JUMPDEST PUSH1 0x20 SWAP2 DUP3 DUP3 DIV ADD SWAP2 SWAP1 MOD SWAP1 SLOAD SWAP1 PUSH2 0x100 EXP SWAP1 DIV PUSH1 0xFF AND PUSH1 0xFF AND EQ DUP1 ISZERO PUSH2 0x6D5 JUMPI POP DUP2 PUSH1 0xFF AND PUSH0 PUSH1 0x1 PUSH1 0x3 DUP2 LT PUSH2 0x6A4 JUMPI PUSH2 0x6A3 PUSH2 0xE84 JUMP JUMPDEST JUMPDEST ADD DUP3 PUSH1 0xFF AND PUSH1 0x3 DUP2 LT PUSH2 0x6BA JUMPI PUSH2 0x6B9 PUSH2 0xE84 JUMP JUMPDEST JUMPDEST PUSH1 0x20 SWAP2 DUP3 DUP3 DIV ADD SWAP2 SWAP1 MOD SWAP1 SLOAD SWAP1 PUSH2 0x100 EXP SWAP1 DIV PUSH1 0xFF AND PUSH1 0xFF AND EQ JUMPDEST DUP1 ISZERO PUSH2 0x725 JUMPI POP DUP2 PUSH1 0xFF AND PUSH0 PUSH1 0x2 PUSH1 0x3 DUP2 LT PUSH2 0x6F4 JUMPI PUSH2 0x6F3 PUSH2 0xE84 JUMP JUMPDEST JUMPDEST ADD DUP3 PUSH1 0xFF AND PUSH1 0x3 DUP2 LT PUSH2 0x70A JUMPI PUSH2 0x709 PUSH2 0xE84 JUMP JUMPDEST JUMPDEST PUSH1 0x20 SWAP2 DUP3 DUP3 DIV ADD SWAP2 SWAP1 MOD SWAP1 SLOAD SWAP1 PUSH2 0x100 EXP SWAP1 DIV PUSH1 0xFF AND PUSH1 0xFF AND EQ JUMPDEST ISZERO PUSH2 0x74C JUMPI PUSH1 0x1 PUSH1 0x5 PUSH1 0x14 PUSH2 0x100 EXP DUP2 SLOAD DUP2 PUSH1 0xFF MUL NOT AND SWAP1 DUP4 ISZERO ISZERO MUL OR SWAP1 SSTORE POP POP POP PUSH2 0xA26 JUMP JUMPDEST DUP1 DUP1 PUSH1 0x1 ADD SWAP2 POP POP PUSH2 0x524 JUMP JUMPDEST POP DUP1 PUSH1 0xFF AND PUSH0 PUSH0 PUSH1 0x3 DUP2 LT PUSH2 0x771 JUMPI PUSH2 0x770 PUSH2 0xE84 JUMP JUMPDEST JUMPDEST ADD PUSH0 PUSH1 0x3 DUP2 LT PUSH2 0x784 JUMPI PUSH2 0x783 PUSH2 0xE84 JUMP JUMPDEST JUMPDEST PUSH1 0x20 SWAP2 DUP3 DUP3 DIV ADD SWAP2 SWAP1 MOD SWAP1 SLOAD SWAP1 PUSH2 0x100 EXP SWAP1 DIV PUSH1 0xFF AND PUSH1 0xFF AND EQ DUP1 ISZERO PUSH2 0x7EC JUMPI POP DUP1 PUSH1 0xFF AND PUSH0 PUSH1 0x1 PUSH1 0x3 DUP2 LT PUSH2 0x7BD JUMPI PUSH2 0x7BC PUSH2 0xE84 JUMP JUMPDEST JUMPDEST ADD PUSH1 0x1 PUSH1 0x3 DUP2 LT PUSH2 0x7D1 JUMPI PUSH2 0x7D0 PUSH2 0xE84 JUMP JUMPDEST JUMPDEST PUSH1 0x20 SWAP2 DUP3 DUP3 DIV ADD SWAP2 SWAP1 MOD SWAP1 SLOAD SWAP1 PUSH2 0x100 EXP SWAP1 DIV PUSH1 0xFF AND PUSH1 0xFF AND EQ JUMPDEST DUP1 ISZERO PUSH2 0x83A JUMPI POP DUP1 PUSH1 0xFF AND PUSH0 PUSH1 0x2 PUSH1 0x3 DUP2 LT PUSH2 0x80B JUMPI PUSH2 0x80A PUSH2 0xE84 JUMP JUMPDEST JUMPDEST ADD PUSH1 0x2 PUSH1 0x3 DUP2 LT PUSH2 0x81F JUMPI PUSH2 0x81E PUSH2 0xE84 JUMP JUMPDEST JUMPDEST PUSH1 0x20 SWAP2 DUP3 DUP3 DIV ADD SWAP2 SWAP1 MOD SWAP1 SLOAD SWAP1 PUSH2 0x100 EXP SWAP1 DIV PUSH1 0xFF AND PUSH1 0xFF AND EQ JUMPDEST ISZERO PUSH2 0x860 JUMPI PUSH1 0x1 PUSH1 0x5 PUSH1 0x14 PUSH2 0x100 EXP DUP2 SLOAD DUP2 PUSH1 0xFF MUL NOT AND SWAP1 DUP4 ISZERO ISZERO MUL OR SWAP1 SSTORE POP POP PUSH2 0xA26 JUMP JUMPDEST DUP1 PUSH1 0xFF AND PUSH0 PUSH0 PUSH1 0x3 DUP2 LT PUSH2 0x877 JUMPI PUSH2 0x876 PUSH2 0xE84 JUMP JUMPDEST JUMPDEST ADD PUSH1 0x2 PUSH1 0x3 DUP2 LT PUSH2 0x88B JUMPI PUSH2 0x88A PUSH2 0xE84 JUMP JUMPDEST JUMPDEST PUSH1 0x20 SWAP2 DUP3 DUP3 DIV ADD SWAP2 SWAP1 MOD SWAP1 SLOAD SWAP1 PUSH2 0x100 EXP SWAP1 DIV PUSH1 0xFF AND PUSH1 0xFF AND EQ DUP1 ISZERO PUSH2 0x8F3 JUMPI POP DUP1 PUSH1 0xFF AND PUSH0 PUSH1 0x1 PUSH1 0x3 DUP2 LT PUSH2 0x8C4 JUMPI PUSH2 0x8C3 PUSH2 0xE84 JUMP JUMPDEST JUMPDEST ADD PUSH1 0x1 PUSH1 0x3 DUP2 LT PUSH2 0x8D8 JUMPI PUSH2 0x8D7 PUSH2 0xE84 JUMP JUMPDEST JUMPDEST PUSH1 0x20 SWAP2 DUP3 DUP3 DIV ADD SWAP2 SWAP1 MOD SWAP1 SLOAD SWAP1 PUSH2 0x100 EXP SWAP1 DIV PUSH1 0xFF AND PUSH1 0xFF AND EQ JUMPDEST DUP1 ISZERO PUSH2 0x940 JUMPI POP DUP1 PUSH1 0xFF AND PUSH0 PUSH1 0x2 PUSH1 0x3 DUP2 LT PUSH2 0x912 JUMPI PUSH2 0x911 PUSH2 0xE84 JUMP JUMPDEST JUMPDEST ADD PUSH0 PUSH1 0x3 DUP2 LT PUSH2 0x925 JUMPI PUSH2 0x924 PUSH2 0xE84 JUMP JUMPDEST JUMPDEST PUSH1 0x20 SWAP2 DUP3 DUP3 DIV ADD SWAP2 SWAP1 MOD SWAP1 SLOAD SWAP1 PUSH2 0x100 EXP SWAP1 DIV PUSH1 0xFF AND PUSH1 0xFF AND EQ JUMPDEST ISZERO PUSH2 0x966 JUMPI PUSH1 0x1 PUSH1 0x5 PUSH1 0x14 PUSH2 0x100 EXP DUP2 SLOAD DUP2 PUSH1 0xFF MUL NOT AND SWAP1 DUP4 ISZERO ISZERO MUL OR SWAP1 SSTORE POP POP PUSH2 0xA26 JUMP JUMPDEST PUSH0 PUSH0 SWAP1 POP PUSH0 PUSH0 SWAP1 POP JUMPDEST PUSH1 0x3 DUP2 LT ISZERO PUSH2 0x9FB JUMPI PUSH0 PUSH0 SWAP1 POP JUMPDEST PUSH1 0x3 DUP2 PUSH1 0xFF AND LT ISZERO PUSH2 0x9ED JUMPI PUSH0 PUSH0 DUP4 PUSH1 0x3 DUP2 LT PUSH2 0x99D JUMPI PUSH2 0x99C PUSH2 0xE84 JUMP JUMPDEST JUMPDEST ADD DUP3 PUSH1 0xFF AND PUSH1 0x3 DUP2 LT PUSH2 0x9B3 JUMPI PUSH2 0x9B2 PUSH2 0xE84 JUMP JUMPDEST JUMPDEST PUSH1 0x20 SWAP2 DUP3 DUP3 DIV ADD SWAP2 SWAP1 MOD SWAP1 SLOAD SWAP1 PUSH2 0x100 EXP SWAP1 DIV PUSH1 0xFF AND PUSH1 0xFF AND EQ PUSH2 0x9E0 JUMPI DUP3 DUP1 PUSH2 0x9DC SWAP1 PUSH2 0xF46 JUMP JUMPDEST SWAP4 POP POP JUMPDEST DUP1 DUP1 PUSH1 0x1 ADD SWAP2 POP POP PUSH2 0x97D JUMP JUMPDEST POP DUP1 DUP1 PUSH1 0x1 ADD SWAP2 POP POP PUSH2 0x96F JUMP JUMPDEST POP PUSH1 0x9 DUP2 PUSH1 0xFF AND SUB PUSH2 0xA23 JUMPI PUSH1 0x1 PUSH1 0x5 PUSH1 0x14 PUSH2 0x100 EXP DUP2 SLOAD DUP2 PUSH1 0xFF MUL NOT AND SWAP1 DUP4 ISZERO ISZERO MUL OR SWAP1 SSTORE POP JUMPDEST POP POP JUMPDEST JUMP JUMPDEST PUSH1 0x3 PUSH0 SWAP1 SLOAD SWAP1 PUSH2 0x100 EXP SWAP1 DIV PUSH20 0xFFFFFFFFFFFFFFFFFFFFFFFFFFFFFFFFFFFFFFFF AND PUSH20 0xFFFFFFFFFFFFFFFFFFFFFFFFFFFFFFFFFFFFFFFF AND PUSH1 0x5 PUSH0 SWAP1 SLOAD SWAP1 PUSH2 0x100 EXP SWAP1 DIV PUSH20 0xFFFFFFFFFFFFFFFFFFFFFFFFFFFFFFFFFFFFFFFF AND PUSH20 0xFFFFFFFFFFFFFFFFFFFFFFFFFFFFFFFFFFFFFFFF AND SUB PUSH2 0xB03 JUMPI PUSH1 0x4 PUSH0 SWAP1 SLOAD SWAP1 PUSH2 0x100 EXP SWAP1 DIV PUSH20 0xFFFFFFFFFFFFFFFFFFFFFFFFFFFFFFFFFFFFFFFF AND PUSH1 0x5 PUSH0 PUSH2 0x100 EXP DUP2 SLOAD DUP2 PUSH20 0xFFFFFFFFFFFFFFFFFFFFFFFFFFFFFFFFFFFFFFFF MUL NOT AND SWAP1 DUP4 PUSH20 0xFFFFFFFFFFFFFFFFFFFFFFFFFFFFFFFFFFFFFFFF AND MUL OR SWAP1 SSTORE POP PUSH2 0xB65 JUMP JUMPDEST PUSH1 0x3 PUSH0 SWAP1 SLOAD SWAP1 PUSH2 0x100 EXP SWAP1 DIV PUSH20 0xFFFFFFFFFFFFFFFFFFFFFFFFFFFFFFFFFFFFFFFF AND PUSH1 0x5 PUSH0 PUSH2 0x100 EXP DUP2 SLOAD DUP2 PUSH20 0xFFFFFFFFFFFFFFFFFFFFFFFFFFFFFFFFFFFFFFFF MUL NOT AND SWAP1 DUP4 PUSH20 0xFFFFFFFFFFFFFFFFFFFFFFFFFFFFFFFFFFFFFFFF AND MUL OR SWAP1 SSTORE POP JUMPDEST JUMP JUMPDEST PUSH0 PUSH20 0xFFFFFFFFFFFFFFFFFFFFFFFFFFFFFFFFFFFFFFFF DUP3 AND SWAP1 POP SWAP2 SWAP1 POP JUMP JUMPDEST PUSH0 PUSH2 0xB90 DUP3 PUSH2 0xB67 JUMP JUMPDEST SWAP1 POP SWAP2 SWAP1 POP JUMP JUMPDEST PUSH2 0xBA0 DUP2 PUSH2 0xB86 JUMP JUMPDEST DUP3 MSTORE POP POP JUMP JUMPDEST PUSH0 PUSH1 0x20 DUP3 ADD SWAP1 POP PUSH2 0xBB9 PUSH0 DUP4 ADD DUP5 PUSH2 0xB97 JUMP JUMPDEST SWAP3 SWAP2 POP POP JUMP JUMPDEST PUSH0 DUP2 ISZERO ISZERO SWAP1 POP SWAP2 SWAP1 POP JUMP JUMPDEST PUSH2 0xBD3 DUP2 PUSH2 0xBBF JUMP JUMPDEST DUP3 MSTORE POP POP JUMP JUMPDEST PUSH0 PUSH1 0x20 DUP3 ADD SWAP1 POP PUSH2 0xBEC PUSH0 DUP4 ADD DUP5 PUSH2 0xBCA JUMP JUMPDEST SWAP3 SWAP2 POP POP JUMP JUMPDEST PUSH0 PUSH2 0xBFC DUP3 PUSH2 0xB67 JUMP JUMPDEST SWAP1 POP SWAP2 SWAP1 POP JUMP JUMPDEST PUSH2 0xC0C DUP2 PUSH2 0xBF2 JUMP JUMPDEST DUP3 MSTORE POP POP JUMP JUMPDEST PUSH0 PUSH1 0x20 DUP3 ADD SWAP1 POP PUSH2 0xC25 PUSH0 DUP4 ADD DUP5 PUSH2 0xC03 JUMP JUMPDEST SWAP3 SWAP2 POP POP JUMP JUMPDEST PUSH0 PUSH0 REVERT JUMPDEST PUSH0 PUSH1 0xFF DUP3 AND SWAP1 POP SWAP2 SWAP1 POP JUMP JUMPDEST PUSH2 0xC44 DUP2 PUSH2 0xC2F JUMP JUMPDEST DUP2 EQ PUSH2 0xC4E JUMPI PUSH0 PUSH0 REVERT JUMPDEST POP JUMP JUMPDEST PUSH0 DUP2 CALLDATALOAD SWAP1 POP PUSH2 0xC5F DUP2 PUSH2 0xC3B JUMP JUMPDEST SWAP3 SWAP2 POP POP JUMP JUMPDEST PUSH0 PUSH0 PUSH1 0x40 DUP4 DUP6 SUB SLT ISZERO PUSH2 0xC7B JUMPI PUSH2 0xC7A PUSH2 0xC2B JUMP JUMPDEST JUMPDEST PUSH0 PUSH2 0xC88 DUP6 DUP3 DUP7 ADD PUSH2 0xC51 JUMP JUMPDEST SWAP3 POP POP PUSH1 0x20 PUSH2 0xC99 DUP6 DUP3 DUP7 ADD PUSH2 0xC51 JUMP JUMPDEST SWAP2 POP POP SWAP3 POP SWAP3 SWAP1 POP JUMP JUMPDEST PUSH0 DUP2 SWAP1 POP SWAP2 SWAP1 POP JUMP JUMPDEST PUSH2 0xCB5 DUP2 PUSH2 0xCA3 JUMP JUMPDEST DUP2 EQ PUSH2 0xCBF JUMPI PUSH0 PUSH0 REVERT JUMPDEST POP JUMP JUMPDEST PUSH0 DUP2 CALLDATALOAD SWAP1 POP PUSH2 0xCD0 DUP2 PUSH2 0xCAC JUMP JUMPDEST SWAP3 SWAP2 POP POP JUMP JUMPDEST PUSH0 PUSH0 PUSH1 0x40 DUP4 DUP6 SUB SLT ISZERO PUSH2 0xCEC JUMPI PUSH2 0xCEB PUSH2 0xC2B JUMP JUMPDEST JUMPDEST PUSH0 PUSH2 0xCF9 DUP6 DUP3 DUP7 ADD PUSH2 0xCC2 JUMP JUMPDEST SWAP3 POP POP PUSH1 0x20 PUSH2 0xD0A DUP6 DUP3 DUP7 ADD PUSH2 0xCC2 JUMP JUMPDEST SWAP2 POP POP SWAP3 POP SWAP3 SWAP1 POP JUMP JUMPDEST PUSH2 0xD1D DUP2 PUSH2 0xC2F JUMP JUMPDEST DUP3 MSTORE POP POP JUMP JUMPDEST PUSH0 PUSH1 0x20 DUP3 ADD SWAP1 POP PUSH2 0xD36 PUSH0 DUP4 ADD DUP5 PUSH2 0xD14 JUMP JUMPDEST SWAP3 SWAP2 POP POP JUMP JUMPDEST PUSH0 DUP3 DUP3 MSTORE PUSH1 0x20 DUP3 ADD SWAP1 POP SWAP3 SWAP2 POP POP JUMP JUMPDEST PUSH32 0x5468652067616D65206973206F7665722E000000000000000000000000000000 PUSH0 DUP3 ADD MSTORE POP JUMP JUMPDEST PUSH0 PUSH2 0xD80 PUSH1 0x11 DUP4 PUSH2 0xD3C JUMP JUMPDEST SWAP2 POP PUSH2 0xD8B DUP3 PUSH2 0xD4C JUMP JUMPDEST PUSH1 0x20 DUP3 ADD SWAP1 POP SWAP2 SWAP1 POP JUMP JUMPDEST PUSH0 PUSH1 0x20 DUP3 ADD SWAP1 POP DUP2 DUP2 SUB PUSH0 DUP4 ADD MSTORE PUSH2 0xDAD DUP2 PUSH2 0xD74 JUMP JUMPDEST SWAP1 POP SWAP2 SWAP1 POP JUMP JUMPDEST PUSH32 0x49742773206E6F7420796F7572207475726E2E00000000000000000000000000 PUSH0 DUP3 ADD MSTORE POP JUMP JUMPDEST PUSH0 PUSH2 0xDE8 PUSH1 0x13 DUP4 PUSH2 0xD3C JUMP JUMPDEST SWAP2 POP PUSH2 0xDF3 DUP3 PUSH2 0xDB4 JUMP JUMPDEST PUSH1 0x20 DUP3 ADD SWAP1 POP SWAP2 SWAP1 POP JUMP JUMPDEST PUSH0 PUSH1 0x20 DUP3 ADD SWAP1 POP DUP2 DUP2 SUB PUSH0 DUP4 ADD MSTORE PUSH2 0xE15 DUP2 PUSH2 0xDDC JUMP JUMPDEST SWAP1 POP SWAP2 SWAP1 POP JUMP JUMPDEST PUSH32 0x496E76616C696420726F77206F7220636F6C756D6E20706C6163656D656E7400 PUSH0 DUP3 ADD MSTORE POP JUMP JUMPDEST PUSH0 PUSH2 0xE50 PUSH1 0x1F DUP4 PUSH2 0xD3C JUMP JUMPDEST SWAP2 POP PUSH2 0xE5B DUP3 PUSH2 0xE1C JUMP JUMPDEST PUSH1 0x20 DUP3 ADD SWAP1 POP SWAP2 SWAP1 POP JUMP JUMPDEST PUSH0 PUSH1 0x20 DUP3 ADD SWAP1 POP DUP2 DUP2 SUB PUSH0 DUP4 ADD MSTORE PUSH2 0xE7D DUP2 PUSH2 0xE44 JUMP JUMPDEST SWAP1 POP SWAP2 SWAP1 POP JUMP JUMPDEST PUSH32 0x4E487B7100000000000000000000000000000000000000000000000000000000 PUSH0 MSTORE PUSH1 0x32 PUSH1 0x4 MSTORE PUSH1 0x24 PUSH0 REVERT JUMPDEST PUSH32 0x43656C6C20697320616C72656164792074616B656E2E00000000000000000000 PUSH0 DUP3 ADD MSTORE POP JUMP JUMPDEST PUSH0 PUSH2 0xEE5 PUSH1 0x16 DUP4 PUSH2 0xD3C JUMP JUMPDEST SWAP2 POP PUSH2 0xEF0 DUP3 PUSH2 0xEB1 JUMP JUMPDEST PUSH1 0x20 DUP3 ADD SWAP1 POP SWAP2 SWAP1 POP JUMP JUMPDEST PUSH0 PUSH1 0x20 DUP3 ADD SWAP1 POP DUP2 DUP2 SUB PUSH0 DUP4 ADD MSTORE PUSH2 0xF12 DUP2 PUSH2 0xED9 JUMP JUMPDEST SWAP1 POP SWAP2 SWAP1 POP JUMP JUMPDEST PUSH32 0x4E487B7100000000000000000000000000000000000000000000000000000000 PUSH0 MSTORE PUSH1 0x11 PUSH1 0x4 MSTORE PUSH1 0x24 PUSH0 REVERT JUMPDEST PUSH0 PUSH2 0xF50 DUP3 PUSH2 0xC2F JUMP JUMPDEST SWAP2 POP PUSH1 0xFF DUP3 SUB PUSH2 0xF63 JUMPI PUSH2 0xF62 PUSH2 0xF19 JUMP JUMPDEST JUMPDEST PUSH1 0x1 DUP3 ADD SWAP1 POP SWAP2 SWAP1 POP JUMP INVALID LOG2 PUSH5 0x6970667358 0x22 SLT KECCAK256 NOT 0xB2 LOG2 0xC9 0xD8 SWAP7 DUP16 AND 0x29 MSIZE PREVRANDAO PUSH27 0xFB194D4AFE49F3D519A7BB633EDAFAA3FA189E4D64736F6C634300 ADDMOD 0x1E STOP CALLER "
		},
		"gasEstimates": {
			"creation": {
				"codeDepositCost": "800800",
				"executionCost": "infinite",
				"totalCost": "infinite"
			},
			"external": {
				"board(uint256,uint256)": "infinite",
				"isGameOver()": "2517",
				"makeMove(uint8,uint8)": "infinite",
				"nextPlayer()": "2486",
				"playerO()": "2596",
				"playerX()": "2530"
			},
			"internal": {
				"checkWin()": "infinite",
				"switchTurn()": "30726"
			}
		},
		"methodIdentifiers": {
			"board(uint256,uint256)": "8086a92a",
			"isGameOver()": "0e04a7d8",
			"makeMove(uint8,uint8)": "5e24b0f1",
			"nextPlayer()": "04a93605",
			"playerO()": "e7dafa6e",
			"playerX()": "4cdea7d2"
		}
	},
	"abi": [
		{
			"inputs": [
				{
					"internalType": "address payable",
					"name": "_playerO",
					"type": "address"
				}
			],
			"stateMutability": "nonpayable",
			"type": "constructor"
		},
		{
			"inputs": [
				{
					"internalType": "uint256",
					"name": "",
					"type": "uint256"
				},
				{
					"internalType": "uint256",
					"name": "",
					"type": "uint256"
				}
			],
			"name": "board",
			"outputs": [
				{
					"internalType": "uint8",
					"name": "",
					"type": "uint8"
				}
			],
			"stateMutability": "view",
			"type": "function"
		},
		{
			"inputs": [],
			"name": "isGameOver",
			"outputs": [
				{
					"internalType": "bool",
					"name": "",
					"type": "bool"
				}
			],
			"stateMutability": "view",
			"type": "function"
		},
		{
			"inputs": [
				{
					"internalType": "uint8",
					"name": "row",
					"type": "uint8"
				},
				{
					"internalType": "uint8",
					"name": "col",
					"type": "uint8"
				}
			],
			"name": "makeMove",
			"outputs": [],
			"stateMutability": "nonpayable",
			"type": "function"
		},
		{
			"inputs": [],
			"name": "nextPlayer",
			"outputs": [
				{
					"internalType": "address",
					"name": "",
					"type": "address"
				}
			],
			"stateMutability": "view",
			"type": "function"
		},
		{
			"inputs": [],
			"name": "playerO",
			"outputs": [
				{
					"internalType": "address payable",
					"name": "",
					"type": "address"
				}
			],
			"stateMutability": "view",
			"type": "function"
		},
		{
			"inputs": [],
			"name": "playerX",
			"outputs": [
				{
					"internalType": "address payable",
					"name": "",
					"type": "address"
				}
			],
			"stateMutability": "view",
			"type": "function"
		}
	]
}